{
	"module-3/ERC1155token.sol": {
		"MyERC1155Token": {
			"abi": [
				{
					"inputs": [],
					"stateMutability": "nonpayable",
					"type": "constructor"
				},
				{
					"inputs": [
						{
							"internalType": "address",
							"name": "sender",
							"type": "address"
						},
						{
							"internalType": "uint256",
							"name": "balance",
							"type": "uint256"
						},
						{
							"internalType": "uint256",
							"name": "needed",
							"type": "uint256"
						},
						{
							"internalType": "uint256",
							"name": "tokenId",
							"type": "uint256"
						}
					],
					"name": "ERC1155InsufficientBalance",
					"type": "error"
				},
				{
					"inputs": [
						{
							"internalType": "address",
							"name": "approver",
							"type": "address"
						}
					],
					"name": "ERC1155InvalidApprover",
					"type": "error"
				},
				{
					"inputs": [
						{
							"internalType": "uint256",
							"name": "idsLength",
							"type": "uint256"
						},
						{
							"internalType": "uint256",
							"name": "valuesLength",
							"type": "uint256"
						}
					],
					"name": "ERC1155InvalidArrayLength",
					"type": "error"
				},
				{
					"inputs": [
						{
							"internalType": "address",
							"name": "operator",
							"type": "address"
						}
					],
					"name": "ERC1155InvalidOperator",
					"type": "error"
				},
				{
					"inputs": [
						{
							"internalType": "address",
							"name": "receiver",
							"type": "address"
						}
					],
					"name": "ERC1155InvalidReceiver",
					"type": "error"
				},
				{
					"inputs": [
						{
							"internalType": "address",
							"name": "sender",
							"type": "address"
						}
					],
					"name": "ERC1155InvalidSender",
					"type": "error"
				},
				{
					"inputs": [
						{
							"internalType": "address",
							"name": "operator",
							"type": "address"
						},
						{
							"internalType": "address",
							"name": "owner",
							"type": "address"
						}
					],
					"name": "ERC1155MissingApprovalForAll",
					"type": "error"
				},
				{
					"inputs": [
						{
							"internalType": "address",
							"name": "owner",
							"type": "address"
						}
					],
					"name": "OwnableInvalidOwner",
					"type": "error"
				},
				{
					"inputs": [
						{
							"internalType": "address",
							"name": "account",
							"type": "address"
						}
					],
					"name": "OwnableUnauthorizedAccount",
					"type": "error"
				},
				{
					"anonymous": false,
					"inputs": [
						{
							"indexed": true,
							"internalType": "address",
							"name": "account",
							"type": "address"
						},
						{
							"indexed": true,
							"internalType": "address",
							"name": "operator",
							"type": "address"
						},
						{
							"indexed": false,
							"internalType": "bool",
							"name": "approved",
							"type": "bool"
						}
					],
					"name": "ApprovalForAll",
					"type": "event"
				},
				{
					"anonymous": false,
					"inputs": [
						{
							"indexed": true,
							"internalType": "address",
							"name": "previousOwner",
							"type": "address"
						},
						{
							"indexed": true,
							"internalType": "address",
							"name": "newOwner",
							"type": "address"
						}
					],
					"name": "OwnershipTransferred",
					"type": "event"
				},
				{
					"anonymous": false,
					"inputs": [
						{
							"indexed": true,
							"internalType": "address",
							"name": "operator",
							"type": "address"
						},
						{
							"indexed": true,
							"internalType": "address",
							"name": "from",
							"type": "address"
						},
						{
							"indexed": true,
							"internalType": "address",
							"name": "to",
							"type": "address"
						},
						{
							"indexed": false,
							"internalType": "uint256[]",
							"name": "ids",
							"type": "uint256[]"
						},
						{
							"indexed": false,
							"internalType": "uint256[]",
							"name": "values",
							"type": "uint256[]"
						}
					],
					"name": "TransferBatch",
					"type": "event"
				},
				{
					"anonymous": false,
					"inputs": [
						{
							"indexed": true,
							"internalType": "address",
							"name": "operator",
							"type": "address"
						},
						{
							"indexed": true,
							"internalType": "address",
							"name": "from",
							"type": "address"
						},
						{
							"indexed": true,
							"internalType": "address",
							"name": "to",
							"type": "address"
						},
						{
							"indexed": false,
							"internalType": "uint256",
							"name": "id",
							"type": "uint256"
						},
						{
							"indexed": false,
							"internalType": "uint256",
							"name": "value",
							"type": "uint256"
						}
					],
					"name": "TransferSingle",
					"type": "event"
				},
				{
					"anonymous": false,
					"inputs": [
						{
							"indexed": false,
							"internalType": "string",
							"name": "value",
							"type": "string"
						},
						{
							"indexed": true,
							"internalType": "uint256",
							"name": "id",
							"type": "uint256"
						}
					],
					"name": "URI",
					"type": "event"
				},
				{
					"inputs": [],
					"name": "TOKEN_0",
					"outputs": [
						{
							"internalType": "uint256",
							"name": "",
							"type": "uint256"
						}
					],
					"stateMutability": "view",
					"type": "function"
				},
				{
					"inputs": [],
					"name": "TOKEN_1",
					"outputs": [
						{
							"internalType": "uint256",
							"name": "",
							"type": "uint256"
						}
					],
					"stateMutability": "view",
					"type": "function"
				},
				{
					"inputs": [],
					"name": "TOKEN_2",
					"outputs": [
						{
							"internalType": "uint256",
							"name": "",
							"type": "uint256"
						}
					],
					"stateMutability": "view",
					"type": "function"
				},
				{
					"inputs": [],
					"name": "TOKEN_3",
					"outputs": [
						{
							"internalType": "uint256",
							"name": "",
							"type": "uint256"
						}
					],
					"stateMutability": "view",
					"type": "function"
				},
				{
					"inputs": [],
					"name": "TOKEN_4",
					"outputs": [
						{
							"internalType": "uint256",
							"name": "",
							"type": "uint256"
						}
					],
					"stateMutability": "view",
					"type": "function"
				},
				{
					"inputs": [],
					"name": "TOKEN_5",
					"outputs": [
						{
							"internalType": "uint256",
							"name": "",
							"type": "uint256"
						}
					],
					"stateMutability": "view",
					"type": "function"
				},
				{
					"inputs": [],
					"name": "TOKEN_6",
					"outputs": [
						{
							"internalType": "uint256",
							"name": "",
							"type": "uint256"
						}
					],
					"stateMutability": "view",
					"type": "function"
				},
				{
					"inputs": [
						{
							"internalType": "address",
							"name": "account",
							"type": "address"
						},
						{
							"internalType": "uint256",
							"name": "id",
							"type": "uint256"
						}
					],
					"name": "balanceOf",
					"outputs": [
						{
							"internalType": "uint256",
							"name": "",
							"type": "uint256"
						}
					],
					"stateMutability": "view",
					"type": "function"
				},
				{
					"inputs": [
						{
							"internalType": "address[]",
							"name": "accounts",
							"type": "address[]"
						},
						{
							"internalType": "uint256[]",
							"name": "ids",
							"type": "uint256[]"
						}
					],
					"name": "balanceOfBatch",
					"outputs": [
						{
							"internalType": "uint256[]",
							"name": "",
							"type": "uint256[]"
						}
					],
					"stateMutability": "view",
					"type": "function"
				},
				{
					"inputs": [
						{
							"internalType": "address",
							"name": "from",
							"type": "address"
						},
						{
							"internalType": "uint256",
							"name": "id",
							"type": "uint256"
						},
						{
							"internalType": "uint256",
							"name": "amount",
							"type": "uint256"
						}
					],
					"name": "burn",
					"outputs": [],
					"stateMutability": "nonpayable",
					"type": "function"
				},
				{
					"inputs": [
						{
							"internalType": "address",
							"name": "from",
							"type": "address"
						},
						{
							"internalType": "uint256[]",
							"name": "ids",
							"type": "uint256[]"
						},
						{
							"internalType": "uint256[]",
							"name": "amounts",
							"type": "uint256[]"
						}
					],
					"name": "burnBatch",
					"outputs": [],
					"stateMutability": "nonpayable",
					"type": "function"
				},
				{
					"inputs": [
						{
							"internalType": "address",
							"name": "account",
							"type": "address"
						},
						{
							"internalType": "address",
							"name": "operator",
							"type": "address"
						}
					],
					"name": "isApprovedForAll",
					"outputs": [
						{
							"internalType": "bool",
							"name": "",
							"type": "bool"
						}
					],
					"stateMutability": "view",
					"type": "function"
				},
				{
					"inputs": [
						{
							"internalType": "address",
							"name": "",
							"type": "address"
						},
						{
							"internalType": "uint256",
							"name": "",
							"type": "uint256"
						}
					],
					"name": "lastMintTime",
					"outputs": [
						{
							"internalType": "uint256",
							"name": "",
							"type": "uint256"
						}
					],
					"stateMutability": "view",
					"type": "function"
				},
				{
					"inputs": [
						{
							"internalType": "uint256",
							"name": "id",
							"type": "uint256"
						},
						{
							"internalType": "uint256",
							"name": "amount",
							"type": "uint256"
						}
					],
					"name": "mint",
					"outputs": [],
					"stateMutability": "nonpayable",
					"type": "function"
				},
				{
					"inputs": [
						{
							"internalType": "address",
							"name": "to",
							"type": "address"
						},
						{
							"internalType": "uint256[]",
							"name": "ids",
							"type": "uint256[]"
						},
						{
							"internalType": "uint256[]",
							"name": "amounts",
							"type": "uint256[]"
						},
						{
							"internalType": "bytes",
							"name": "data",
							"type": "bytes"
						}
					],
					"name": "mintBatch",
					"outputs": [],
					"stateMutability": "nonpayable",
					"type": "function"
				},
				{
					"inputs": [],
					"name": "owner",
					"outputs": [
						{
							"internalType": "address",
							"name": "",
							"type": "address"
						}
					],
					"stateMutability": "view",
					"type": "function"
				},
				{
					"inputs": [],
					"name": "renounceOwnership",
					"outputs": [],
					"stateMutability": "nonpayable",
					"type": "function"
				},
				{
					"inputs": [
						{
							"internalType": "address",
							"name": "from",
							"type": "address"
						},
						{
							"internalType": "address",
							"name": "to",
							"type": "address"
						},
						{
							"internalType": "uint256[]",
							"name": "ids",
							"type": "uint256[]"
						},
						{
							"internalType": "uint256[]",
							"name": "values",
							"type": "uint256[]"
						},
						{
							"internalType": "bytes",
							"name": "data",
							"type": "bytes"
						}
					],
					"name": "safeBatchTransferFrom",
					"outputs": [],
					"stateMutability": "nonpayable",
					"type": "function"
				},
				{
					"inputs": [
						{
							"internalType": "address",
							"name": "from",
							"type": "address"
						},
						{
							"internalType": "address",
							"name": "to",
							"type": "address"
						},
						{
							"internalType": "uint256",
							"name": "id",
							"type": "uint256"
						},
						{
							"internalType": "uint256",
							"name": "value",
							"type": "uint256"
						},
						{
							"internalType": "bytes",
							"name": "data",
							"type": "bytes"
						}
					],
					"name": "safeTransferFrom",
					"outputs": [],
					"stateMutability": "nonpayable",
					"type": "function"
				},
				{
					"inputs": [
						{
							"internalType": "address",
							"name": "operator",
							"type": "address"
						},
						{
							"internalType": "bool",
							"name": "approved",
							"type": "bool"
						}
					],
					"name": "setApprovalForAll",
					"outputs": [],
					"stateMutability": "nonpayable",
					"type": "function"
				},
				{
					"inputs": [
						{
							"internalType": "bytes4",
							"name": "interfaceId",
							"type": "bytes4"
						}
					],
					"name": "supportsInterface",
					"outputs": [
						{
							"internalType": "bool",
							"name": "",
							"type": "bool"
						}
					],
					"stateMutability": "view",
					"type": "function"
				},
				{
					"inputs": [
						{
							"internalType": "address",
							"name": "newOwner",
							"type": "address"
						}
					],
					"name": "transferOwnership",
					"outputs": [],
					"stateMutability": "nonpayable",
					"type": "function"
				},
				{
					"inputs": [
						{
							"internalType": "uint256",
							"name": "id",
							"type": "uint256"
						}
					],
					"name": "uri",
					"outputs": [
						{
							"internalType": "string",
							"name": "",
							"type": "string"
						}
					],
					"stateMutability": "view",
					"type": "function"
				}
			],
			"devdoc": {
				"errors": {
					"ERC1155InsufficientBalance(address,uint256,uint256,uint256)": [
						{
							"details": "Indicates an error related to the current `balance` of a `sender`. Used in transfers.",
							"params": {
								"balance": "Current balance for the interacting account.",
								"needed": "Minimum amount required to perform a transfer.",
								"sender": "Address whose tokens are being transferred.",
								"tokenId": "Identifier number of a token."
							}
						}
					],
					"ERC1155InvalidApprover(address)": [
						{
							"details": "Indicates a failure with the `approver` of a token to be approved. Used in approvals.",
							"params": {
								"approver": "Address initiating an approval operation."
							}
						}
					],
					"ERC1155InvalidArrayLength(uint256,uint256)": [
						{
							"details": "Indicates an array length mismatch between ids and values in a safeBatchTransferFrom operation. Used in batch transfers.",
							"params": {
								"idsLength": "Length of the array of token identifiers",
								"valuesLength": "Length of the array of token amounts"
							}
						}
					],
					"ERC1155InvalidOperator(address)": [
						{
							"details": "Indicates a failure with the `operator` to be approved. Used in approvals.",
							"params": {
								"operator": "Address that may be allowed to operate on tokens without being their owner."
							}
						}
					],
					"ERC1155InvalidReceiver(address)": [
						{
							"details": "Indicates a failure with the token `receiver`. Used in transfers.",
							"params": {
								"receiver": "Address to which tokens are being transferred."
							}
						}
					],
					"ERC1155InvalidSender(address)": [
						{
							"details": "Indicates a failure with the token `sender`. Used in transfers.",
							"params": {
								"sender": "Address whose tokens are being transferred."
							}
						}
					],
					"ERC1155MissingApprovalForAll(address,address)": [
						{
							"details": "Indicates a failure with the `operator`’s approval. Used in transfers.",
							"params": {
								"operator": "Address that may be allowed to operate on tokens without being their owner.",
								"owner": "Address of the current owner of a token."
							}
						}
					],
					"OwnableInvalidOwner(address)": [
						{
							"details": "The owner is not a valid owner account. (eg. `address(0)`)"
						}
					],
					"OwnableUnauthorizedAccount(address)": [
						{
							"details": "The caller account is not authorized to perform an operation."
						}
					]
				},
				"events": {
					"ApprovalForAll(address,address,bool)": {
						"details": "Emitted when `account` grants or revokes permission to `operator` to transfer their tokens, according to `approved`."
					},
					"TransferBatch(address,address,address,uint256[],uint256[])": {
						"details": "Equivalent to multiple {TransferSingle} events, where `operator`, `from` and `to` are the same for all transfers."
					},
					"TransferSingle(address,address,address,uint256,uint256)": {
						"details": "Emitted when `value` amount of tokens of type `id` are transferred from `from` to `to` by `operator`."
					},
					"URI(string,uint256)": {
						"details": "Emitted when the URI for token type `id` changes to `value`, if it is a non-programmatic URI. If an {URI} event was emitted for `id`, the standard https://eips.ethereum.org/EIPS/eip-1155#metadata-extensions[guarantees] that `value` will equal the value returned by {IERC1155MetadataURI-uri}."
					}
				},
				"kind": "dev",
				"methods": {
					"balanceOf(address,uint256)": {
						"details": "See {IERC1155-balanceOf}."
					},
					"balanceOfBatch(address[],uint256[])": {
						"details": "See {IERC1155-balanceOfBatch}. Requirements: - `accounts` and `ids` must have the same length."
					},
					"isApprovedForAll(address,address)": {
						"details": "See {IERC1155-isApprovedForAll}."
					},
					"owner()": {
						"details": "Returns the address of the current owner."
					},
					"renounceOwnership()": {
						"details": "Leaves the contract without owner. It will not be possible to call `onlyOwner` functions. Can only be called by the current owner. NOTE: Renouncing ownership will leave the contract without an owner, thereby disabling any functionality that is only available to the owner."
					},
					"safeBatchTransferFrom(address,address,uint256[],uint256[],bytes)": {
						"details": "See {IERC1155-safeBatchTransferFrom}."
					},
					"safeTransferFrom(address,address,uint256,uint256,bytes)": {
						"details": "See {IERC1155-safeTransferFrom}."
					},
					"setApprovalForAll(address,bool)": {
						"details": "See {IERC1155-setApprovalForAll}."
					},
					"supportsInterface(bytes4)": {
						"details": "See {IERC165-supportsInterface}."
					},
					"transferOwnership(address)": {
						"details": "Transfers ownership of the contract to a new account (`newOwner`). Can only be called by the current owner."
					}
				},
				"version": 1
			},
			"evm": {
				"assembly": "    /* \"module-3/ERC1155token.sol\":223:1903  contract MyERC1155Token is ERC1155,Ownable  {... */\n  mstore(0x40, 0x80)\n    /* \"module-3/ERC1155token.sol\":667:785  constructor() ERC1155(\"ipfs://bafybeihrklb222sgiowrjceg76rmqqpzqiyujmnufv3cq57ssemdxbbe4u/{id}\") Ownable(msg.sender){} */\n  callvalue\n  dup1\n  iszero\n  tag_1\n  jumpi\n  0x00\n  dup1\n  revert\ntag_1:\n  pop\n    /* \"module-3/ERC1155token.sol\":772:782  msg.sender */\n  caller\n    /* \"@openzeppelin/contracts/token/ERC1155/ERC1155.sol\":1251:1313  constructor(string memory uri_) {... */\n  mload(0x40)\n  dup1\n  0x80\n  add\n  0x40\n  mstore\n  dup1\n  0x47\n  dup2\n  mstore\n  0x20\n  add\n  data_3a101464a4e84a7d1a807d584bce9e27324494de0a05dedef590e97c5130cc4d\n  0x47\n  swap2\n  codecopy\n    /* \"@openzeppelin/contracts/token/ERC1155/ERC1155.sol\":1293:1306  _setURI(uri_) */\n  tag_6\n    /* \"@openzeppelin/contracts/token/ERC1155/ERC1155.sol\":1301:1305  uri_ */\n  dup2\n    /* \"@openzeppelin/contracts/token/ERC1155/ERC1155.sol\":1293:1300  _setURI */\n  tag_7\n    /* \"@openzeppelin/contracts/token/ERC1155/ERC1155.sol\":1293:1306  _setURI(uri_) */\n  jump\t// in\ntag_6:\n  pop\n  sub(shl(0xa0, 0x01), 0x01)\n    /* \"@openzeppelin/contracts/access/Ownable.sol\":1273:1299  initialOwner == address(0) */\n  dup2\n  and\n    /* \"@openzeppelin/contracts/access/Ownable.sol\":1269:1364  if (initialOwner == address(0)) {... */\n  tag_9\n  jumpi\n    /* \"@openzeppelin/contracts/access/Ownable.sol\":1322:1353  OwnableInvalidOwner(address(0)) */\n  mload(0x40)\n  shl(0xe0, 0x1e4fbdf7)\n  dup2\n  mstore\n    /* \"@openzeppelin/contracts/access/Ownable.sol\":1350:1351  0 */\n  0x00\n    /* \"@openzeppelin/contracts/access/Ownable.sol\":1322:1353  OwnableInvalidOwner(address(0)) */\n  0x04\n  dup3\n  add\n    /* \"#utility.yul\":160:211   */\n  mstore\n    /* \"#utility.yul\":133:151   */\n  0x24\n  add\n    /* \"@openzeppelin/contracts/access/Ownable.sol\":1322:1353  OwnableInvalidOwner(address(0)) */\n  mload(0x40)\n  dup1\n  swap2\n  sub\n  swap1\n  revert\n    /* \"@openzeppelin/contracts/access/Ownable.sol\":1269:1364  if (initialOwner == address(0)) {... */\ntag_9:\n    /* \"@openzeppelin/contracts/access/Ownable.sol\":1373:1405  _transferOwnership(initialOwner) */\n  tag_12\n    /* \"@openzeppelin/contracts/access/Ownable.sol\":1392:1404  initialOwner */\n  dup2\n    /* \"@openzeppelin/contracts/access/Ownable.sol\":1373:1391  _transferOwnership */\n  tag_13\n    /* \"@openzeppelin/contracts/access/Ownable.sol\":1373:1405  _transferOwnership(initialOwner) */\n  jump\t// in\ntag_12:\n    /* \"@openzeppelin/contracts/access/Ownable.sol\":1225:1412  constructor(address initialOwner) {... */\n  pop\n    /* \"module-3/ERC1155token.sol\":223:1903  contract MyERC1155Token is ERC1155,Ownable  {... */\n  jump(tag_25)\n    /* \"@openzeppelin/contracts/token/ERC1155/ERC1155.sol\":10282:10368  function _setURI(string memory newuri) internal virtual {... */\ntag_7:\n    /* \"@openzeppelin/contracts/token/ERC1155/ERC1155.sol\":10348:10352  _uri */\n  0x02\n    /* \"@openzeppelin/contracts/token/ERC1155/ERC1155.sol\":10348:10361  _uri = newuri */\n  tag_17\n    /* \"@openzeppelin/contracts/token/ERC1155/ERC1155.sol\":10355:10361  newuri */\n  dup3\n    /* \"@openzeppelin/contracts/token/ERC1155/ERC1155.sol\":10348:10352  _uri */\n  dup3\n    /* \"@openzeppelin/contracts/token/ERC1155/ERC1155.sol\":10348:10361  _uri = newuri */\n  tag_18\n  jump\t// in\ntag_17:\n  pop\n    /* \"@openzeppelin/contracts/token/ERC1155/ERC1155.sol\":10282:10368  function _setURI(string memory newuri) internal virtual {... */\n  pop\n  jump\t// out\n    /* \"@openzeppelin/contracts/access/Ownable.sol\":2912:3099  function _transferOwnership(address newOwner) internal virtual {... */\ntag_13:\n    /* \"@openzeppelin/contracts/access/Ownable.sol\":3004:3010  _owner */\n  0x03\n  dup1\n  sload\n  sub(shl(0xa0, 0x01), 0x01)\n    /* \"@openzeppelin/contracts/access/Ownable.sol\":3020:3037  _owner = newOwner */\n  dup4\n  dup2\n  and\n  not(sub(shl(0xa0, 0x01), 0x01))\n  dup4\n  and\n  dup2\n  or\n  swap1\n  swap4\n  sstore\n    /* \"@openzeppelin/contracts/access/Ownable.sol\":3052:3092  OwnershipTransferred(oldOwner, newOwner) */\n  mload(0x40)\n    /* \"@openzeppelin/contracts/access/Ownable.sol\":3004:3010  _owner */\n  swap2\n  and\n  swap2\n    /* \"@openzeppelin/contracts/access/Ownable.sol\":3020:3037  _owner = newOwner */\n  swap1\n    /* \"@openzeppelin/contracts/access/Ownable.sol\":3004:3010  _owner */\n  dup3\n  swap1\n    /* \"@openzeppelin/contracts/access/Ownable.sol\":3052:3092  OwnershipTransferred(oldOwner, newOwner) */\n  0x8be0079c531659141344cd1fd0a4f28419497f9722a3daafe3b4186f6b6457e0\n  swap1\n    /* \"@openzeppelin/contracts/access/Ownable.sol\":2985:3001  address oldOwner */\n  0x00\n  swap1\n    /* \"@openzeppelin/contracts/access/Ownable.sol\":3052:3092  OwnershipTransferred(oldOwner, newOwner) */\n  log3\n    /* \"@openzeppelin/contracts/access/Ownable.sol\":2975:3099  {... */\n  pop\n    /* \"@openzeppelin/contracts/access/Ownable.sol\":2912:3099  function _transferOwnership(address newOwner) internal virtual {... */\n  pop\n  jump\t// out\n    /* \"#utility.yul\":222:349   */\ntag_20:\n    /* \"#utility.yul\":283:293   */\n  0x4e487b71\n    /* \"#utility.yul\":278:281   */\n  0xe0\n    /* \"#utility.yul\":274:294   */\n  shl\n    /* \"#utility.yul\":271:272   */\n  0x00\n    /* \"#utility.yul\":264:295   */\n  mstore\n    /* \"#utility.yul\":314:318   */\n  0x41\n    /* \"#utility.yul\":311:312   */\n  0x04\n    /* \"#utility.yul\":304:319   */\n  mstore\n    /* \"#utility.yul\":338:342   */\n  0x24\n    /* \"#utility.yul\":335:336   */\n  0x00\n    /* \"#utility.yul\":328:343   */\n  revert\n    /* \"#utility.yul\":354:734   */\ntag_21:\n    /* \"#utility.yul\":433:434   */\n  0x01\n    /* \"#utility.yul\":429:441   */\n  dup2\n  dup2\n  shr\n  swap1\n    /* \"#utility.yul\":476:488   */\n  dup3\n  and\n  dup1\n    /* \"#utility.yul\":497:558   */\n  tag_29\n  jumpi\n    /* \"#utility.yul\":551:555   */\n  0x7f\n    /* \"#utility.yul\":543:549   */\n  dup3\n    /* \"#utility.yul\":539:556   */\n  and\n    /* \"#utility.yul\":529:556   */\n  swap2\n  pop\n    /* \"#utility.yul\":497:558   */\ntag_29:\n    /* \"#utility.yul\":604:606   */\n  0x20\n    /* \"#utility.yul\":596:602   */\n  dup3\n    /* \"#utility.yul\":593:607   */\n  lt\n    /* \"#utility.yul\":573:591   */\n  dup2\n    /* \"#utility.yul\":570:608   */\n  sub\n    /* \"#utility.yul\":567:728   */\n  tag_30\n  jumpi\n    /* \"#utility.yul\":650:660   */\n  0x4e487b71\n    /* \"#utility.yul\":645:648   */\n  0xe0\n    /* \"#utility.yul\":641:661   */\n  shl\n    /* \"#utility.yul\":638:639   */\n  0x00\n    /* \"#utility.yul\":631:662   */\n  mstore\n    /* \"#utility.yul\":685:689   */\n  0x22\n    /* \"#utility.yul\":682:683   */\n  0x04\n    /* \"#utility.yul\":675:690   */\n  mstore\n    /* \"#utility.yul\":713:717   */\n  0x24\n    /* \"#utility.yul\":710:711   */\n  0x00\n    /* \"#utility.yul\":703:718   */\n  revert\n    /* \"#utility.yul\":567:728   */\ntag_30:\n  pop\n    /* \"#utility.yul\":354:734   */\n  swap2\n  swap1\n  pop\n  jump\t// out\n    /* \"#utility.yul\":865:1383   */\ntag_23:\n    /* \"#utility.yul\":967:969   */\n  0x1f\n    /* \"#utility.yul\":962:965   */\n  dup3\n    /* \"#utility.yul\":959:970   */\n  gt\n    /* \"#utility.yul\":956:1377   */\n  iszero\n  tag_33\n  jumpi\n    /* \"#utility.yul\":1003:1008   */\n  dup1\n    /* \"#utility.yul\":1000:1001   */\n  0x00\n    /* \"#utility.yul\":993:1009   */\n  mstore\n    /* \"#utility.yul\":1047:1051   */\n  0x20\n    /* \"#utility.yul\":1044:1045   */\n  0x00\n    /* \"#utility.yul\":1034:1052   */\n  keccak256\n    /* \"#utility.yul\":1117:1119   */\n  0x1f\n    /* \"#utility.yul\":1105:1115   */\n  dup5\n    /* \"#utility.yul\":1101:1120   */\n  add\n    /* \"#utility.yul\":1098:1099   */\n  0x05\n    /* \"#utility.yul\":1094:1121   */\n  shr\n    /* \"#utility.yul\":1088:1092   */\n  dup2\n    /* \"#utility.yul\":1084:1122   */\n  add\n    /* \"#utility.yul\":1153:1157   */\n  0x20\n    /* \"#utility.yul\":1141:1151   */\n  dup6\n    /* \"#utility.yul\":1138:1158   */\n  lt\n    /* \"#utility.yul\":1135:1182   */\n  iszero\n  tag_34\n  jumpi\n  pop\n    /* \"#utility.yul\":1176:1180   */\n  dup1\n    /* \"#utility.yul\":1135:1182   */\ntag_34:\n    /* \"#utility.yul\":1231:1233   */\n  0x1f\n    /* \"#utility.yul\":1226:1229   */\n  dup5\n    /* \"#utility.yul\":1222:1234   */\n  add\n    /* \"#utility.yul\":1219:1220   */\n  0x05\n    /* \"#utility.yul\":1215:1235   */\n  shr\n    /* \"#utility.yul\":1209:1213   */\n  dup3\n    /* \"#utility.yul\":1205:1236   */\n  add\n    /* \"#utility.yul\":1195:1236   */\n  swap2\n  pop\n    /* \"#utility.yul\":1286:1367   */\ntag_35:\n    /* \"#utility.yul\":1304:1306   */\n  dup2\n    /* \"#utility.yul\":1297:1302   */\n  dup2\n    /* \"#utility.yul\":1294:1307   */\n  lt\n    /* \"#utility.yul\":1286:1367   */\n  iszero\n  tag_37\n  jumpi\n    /* \"#utility.yul\":1363:1364   */\n  0x00\n    /* \"#utility.yul\":1349:1365   */\n  dup2\n  sstore\n    /* \"#utility.yul\":1330:1331   */\n  0x01\n    /* \"#utility.yul\":1319:1332   */\n  add\n    /* \"#utility.yul\":1286:1367   */\n  jump(tag_35)\ntag_37:\n    /* \"#utility.yul\":1290:1293   */\n  pop\n  pop\n    /* \"#utility.yul\":956:1377   */\ntag_33:\n    /* \"#utility.yul\":865:1383   */\n  pop\n  pop\n  pop\n  jump\t// out\n    /* \"#utility.yul\":1559:2904   */\ntag_18:\n    /* \"#utility.yul\":1679:1689   */\n  dup2\n  mload\n  sub(shl(0x40, 0x01), 0x01)\n    /* \"#utility.yul\":1701:1731   */\n  dup2\n  gt\n    /* \"#utility.yul\":1698:1754   */\n  iszero\n  tag_41\n  jumpi\n    /* \"#utility.yul\":1734:1752   */\n  tag_41\n  tag_20\n  jump\t// in\ntag_41:\n    /* \"#utility.yul\":1763:1860   */\n  tag_42\n    /* \"#utility.yul\":1853:1859   */\n  dup2\n    /* \"#utility.yul\":1813:1851   */\n  tag_43\n    /* \"#utility.yul\":1845:1849   */\n  dup5\n    /* \"#utility.yul\":1839:1850   */\n  sload\n    /* \"#utility.yul\":1813:1851   */\n  tag_21\n  jump\t// in\ntag_43:\n    /* \"#utility.yul\":1807:1811   */\n  dup5\n    /* \"#utility.yul\":1763:1860   */\n  tag_23\n  jump\t// in\ntag_42:\n    /* \"#utility.yul\":1915:1919   */\n  0x20\n  dup1\n    /* \"#utility.yul\":1972:1974   */\n  0x1f\n    /* \"#utility.yul\":1961:1975   */\n  dup4\n  gt\n    /* \"#utility.yul\":1989:1990   */\n  0x01\n    /* \"#utility.yul\":1984:2647   */\n  dup2\n  eq\n  tag_45\n  jumpi\n    /* \"#utility.yul\":2691:2692   */\n  0x00\n    /* \"#utility.yul\":2708:2714   */\n  dup5\n    /* \"#utility.yul\":2705:2794   */\n  iszero\n  tag_46\n  jumpi\n  pop\n    /* \"#utility.yul\":2760:2779   */\n  dup6\n  dup4\n  add\n    /* \"#utility.yul\":2754:2780   */\n  mload\n    /* \"#utility.yul\":2705:2794   */\ntag_46:\n  not(0x00)\n    /* \"#utility.yul\":1516:1517   */\n  0x03\n    /* \"#utility.yul\":1512:1523   */\n  dup7\n  swap1\n  shl\n    /* \"#utility.yul\":1508:1532   */\n  shr\n    /* \"#utility.yul\":1504:1533   */\n  not\n    /* \"#utility.yul\":1494:1534   */\n  and\n    /* \"#utility.yul\":1540:1541   */\n  0x01\n    /* \"#utility.yul\":1536:1547   */\n  dup6\n  swap1\n  shl\n    /* \"#utility.yul\":1491:1548   */\n  or\n    /* \"#utility.yul\":2807:2888   */\n  dup6\n  sstore\n    /* \"#utility.yul\":1954:2898   */\n  jump(tag_44)\n    /* \"#utility.yul\":1984:2647   */\ntag_45:\n    /* \"#utility.yul\":812:813   */\n  0x00\n    /* \"#utility.yul\":805:819   */\n  dup6\n  dup2\n  mstore\n    /* \"#utility.yul\":849:853   */\n  0x20\n    /* \"#utility.yul\":836:854   */\n  dup2\n  keccak256\n  not(0x1f)\n    /* \"#utility.yul\":2020:2040   */\n  dup7\n  and\n  swap2\n    /* \"#utility.yul\":2138:2374   */\ntag_49:\n    /* \"#utility.yul\":2152:2159   */\n  dup3\n    /* \"#utility.yul\":2149:2150   */\n  dup2\n    /* \"#utility.yul\":2146:2160   */\n  lt\n    /* \"#utility.yul\":2138:2374   */\n  iszero\n  tag_51\n  jumpi\n    /* \"#utility.yul\":2241:2260   */\n  dup9\n  dup7\n  add\n    /* \"#utility.yul\":2235:2261   */\n  mload\n    /* \"#utility.yul\":2220:2262   */\n  dup3\n  sstore\n    /* \"#utility.yul\":2333:2360   */\n  swap5\n  dup5\n  add\n  swap5\n    /* \"#utility.yul\":2301:2302   */\n  0x01\n    /* \"#utility.yul\":2289:2303   */\n  swap1\n  swap2\n  add\n  swap1\n    /* \"#utility.yul\":2168:2187   */\n  dup5\n  add\n    /* \"#utility.yul\":2138:2374   */\n  jump(tag_49)\ntag_51:\n    /* \"#utility.yul\":2142:2145   */\n  pop\n    /* \"#utility.yul\":2402:2408   */\n  dup6\n    /* \"#utility.yul\":2393:2400   */\n  dup3\n    /* \"#utility.yul\":2390:2409   */\n  lt\n    /* \"#utility.yul\":2387:2588   */\n  iszero\n  tag_52\n  jumpi\n    /* \"#utility.yul\":2463:2482   */\n  dup8\n  dup6\n  add\n    /* \"#utility.yul\":2457:2483   */\n  mload\n  not(0x00)\n    /* \"#utility.yul\":2546:2547   */\n  0x03\n    /* \"#utility.yul\":2542:2556   */\n  dup9\n  swap1\n  shl\n    /* \"#utility.yul\":2558:2561   */\n  0xf8\n    /* \"#utility.yul\":2538:2562   */\n  and\n    /* \"#utility.yul\":2534:2571   */\n  shr\n    /* \"#utility.yul\":2530:2572   */\n  not\n    /* \"#utility.yul\":2515:2573   */\n  and\n    /* \"#utility.yul\":2500:2574   */\n  dup2\n  sstore\n    /* \"#utility.yul\":2387:2588   */\ntag_52:\n  pop\n  pop\n    /* \"#utility.yul\":2634:2635   */\n  0x01\n    /* \"#utility.yul\":2625:2631   */\n  dup5\n    /* \"#utility.yul\":2622:2623   */\n  0x01\n    /* \"#utility.yul\":2618:2632   */\n  shl\n    /* \"#utility.yul\":2614:2636   */\n  add\n    /* \"#utility.yul\":2608:2612   */\n  dup6\n    /* \"#utility.yul\":2601:2637   */\n  sstore\n    /* \"#utility.yul\":1954:2898   */\ntag_44:\n  pop\n  pop\n  pop\n  pop\n    /* \"#utility.yul\":1559:2904   */\n  pop\n  pop\n  jump\t// out\ntag_25:\n    /* \"module-3/ERC1155token.sol\":223:1903  contract MyERC1155Token is ERC1155,Ownable  {... */\n  dataSize(sub_0)\n  dup1\n  dataOffset(sub_0)\n  0x00\n  codecopy\n  0x00\n  return\nstop\ndata_3a101464a4e84a7d1a807d584bce9e27324494de0a05dedef590e97c5130cc4d 697066733a2f2f6261667962656968726b6c623232327367696f77726a6365673736726d7171707a716979756a6d6e75667633637135377373656d647862626534752f7b69647d\n\nsub_0: assembly {\n        /* \"module-3/ERC1155token.sol\":223:1903  contract MyERC1155Token is ERC1155,Ownable  {... */\n      mstore(0x40, 0x80)\n      callvalue\n      dup1\n      iszero\n      tag_1\n      jumpi\n      0x00\n      dup1\n      revert\n    tag_1:\n      pop\n      jumpi(tag_2, lt(calldatasize, 0x04))\n      shr(0xe0, calldataload(0x00))\n      dup1\n      0x6b20c454\n      gt\n      tag_26\n      jumpi\n      dup1\n      0xd99939a2\n      gt\n      tag_27\n      jumpi\n      dup1\n      0xf242432a\n      gt\n      tag_28\n      jumpi\n      dup1\n      0xf242432a\n      eq\n      tag_23\n      jumpi\n      dup1\n      0xf2fde38b\n      eq\n      tag_24\n      jumpi\n      dup1\n      0xf5298aca\n      eq\n      tag_25\n      jumpi\n      0x00\n      dup1\n      revert\n    tag_28:\n      dup1\n      0xd99939a2\n      eq\n      tag_20\n      jumpi\n      dup1\n      0xe74d3862\n      eq\n      tag_21\n      jumpi\n      dup1\n      0xe985e9c5\n      eq\n      tag_22\n      jumpi\n      0x00\n      dup1\n      revert\n    tag_27:\n      dup1\n      0x8da5cb5b\n      gt\n      tag_29\n      jumpi\n      dup1\n      0x8da5cb5b\n      eq\n      tag_17\n      jumpi\n      dup1\n      0xa22cb465\n      eq\n      tag_18\n      jumpi\n      dup1\n      0xa3cacc85\n      eq\n      tag_19\n      jumpi\n      0x00\n      dup1\n      revert\n    tag_29:\n      dup1\n      0x6b20c454\n      eq\n      tag_14\n      jumpi\n      dup1\n      0x715018a6\n      eq\n      tag_15\n      jumpi\n      dup1\n      0x82c0fa30\n      eq\n      tag_16\n      jumpi\n      0x00\n      dup1\n      revert\n    tag_26:\n      dup1\n      0x1b2ef1ca\n      gt\n      tag_30\n      jumpi\n      dup1\n      0x453f6a32\n      gt\n      tag_31\n      jumpi\n      dup1\n      0x453f6a32\n      eq\n      tag_11\n      jumpi\n      dup1\n      0x4a3268e4\n      eq\n      tag_12\n      jumpi\n      dup1\n      0x4e1273f4\n      eq\n      tag_13\n      jumpi\n      0x00\n      dup1\n      revert\n    tag_31:\n      dup1\n      0x1b2ef1ca\n      eq\n      tag_8\n      jumpi\n      dup1\n      0x1f7fdffa\n      eq\n      tag_9\n      jumpi\n      dup1\n      0x2eb2c2d6\n      eq\n      tag_10\n      jumpi\n      0x00\n      dup1\n      revert\n    tag_30:\n      dup1\n      0x0ce52e07\n      gt\n      tag_32\n      jumpi\n      dup1\n      0x0ce52e07\n      eq\n      tag_5\n      jumpi\n      dup1\n      0x0d9371ad\n      eq\n      tag_6\n      jumpi\n      dup1\n      0x0e89341c\n      eq\n      tag_7\n      jumpi\n      0x00\n      dup1\n      revert\n    tag_32:\n      dup1\n      0xfdd58e\n      eq\n      tag_3\n      jumpi\n      dup1\n      0x01ffc9a7\n      eq\n      tag_4\n      jumpi\n    tag_2:\n      0x00\n      dup1\n      revert\n        /* \"@openzeppelin/contracts/token/ERC1155/ERC1155.sol\":2247:2379  function balanceOf(address account, uint256 id) public view virtual returns (uint256) {... */\n    tag_3:\n      tag_33\n      tag_34\n      calldatasize\n      0x04\n      tag_35\n      jump\t// in\n    tag_34:\n      tag_36\n      jump\t// in\n    tag_33:\n      mload(0x40)\n        /* \"#utility.yul\":620:645   */\n      swap1\n      dup2\n      mstore\n        /* \"#utility.yul\":608:610   */\n      0x20\n        /* \"#utility.yul\":593:611   */\n      add\n        /* \"@openzeppelin/contracts/token/ERC1155/ERC1155.sol\":2247:2379  function balanceOf(address account, uint256 id) public view virtual returns (uint256) {... */\n    tag_37:\n      mload(0x40)\n      dup1\n      swap2\n      sub\n      swap1\n      return\n        /* \"@openzeppelin/contracts/token/ERC1155/ERC1155.sol\":1380:1685  function supportsInterface(bytes4 interfaceId) public view virtual override(ERC165, IERC165) returns (bool) {... */\n    tag_4:\n      tag_39\n      tag_40\n      calldatasize\n      0x04\n      tag_41\n      jump\t// in\n    tag_40:\n      tag_42\n      jump\t// in\n    tag_39:\n      mload(0x40)\n        /* \"#utility.yul\":1253:1267   */\n      swap1\n      iszero\n        /* \"#utility.yul\":1246:1268   */\n      iszero\n        /* \"#utility.yul\":1228:1269   */\n      dup2\n      mstore\n        /* \"#utility.yul\":1216:1218   */\n      0x20\n        /* \"#utility.yul\":1201:1219   */\n      add\n        /* \"@openzeppelin/contracts/token/ERC1155/ERC1155.sol\":1380:1685  function supportsInterface(bytes4 interfaceId) public view virtual override(ERC165, IERC165) returns (bool) {... */\n      tag_37\n        /* \"#utility.yul\":1088:1275   */\n      jump\n        /* \"module-3/ERC1155token.sol\":593:660  mapping(address => mapping(uint256 => uint256)) public lastMintTime */\n    tag_5:\n      tag_33\n      tag_46\n      calldatasize\n      0x04\n      tag_35\n      jump\t// in\n    tag_46:\n      0x04\n      0x20\n      swap1\n      dup2\n      mstore\n      0x00\n      swap3\n      dup4\n      mstore\n      0x40\n      dup1\n      dup5\n      keccak256\n      swap1\n      swap2\n      mstore\n      swap1\n      dup3\n      mstore\n      swap1\n      keccak256\n      sload\n      dup2\n      jump\n        /* \"module-3/ERC1155token.sol\":469:504  uint256 public constant TOKEN_4 = 4 */\n    tag_6:\n      tag_33\n        /* \"module-3/ERC1155token.sol\":503:504  4 */\n      0x04\n        /* \"module-3/ERC1155token.sol\":469:504  uint256 public constant TOKEN_4 = 4 */\n      dup2\n      jump\n        /* \"module-3/ERC1155token.sol\":1761:1900  function uri(uint256 id) public view override returns (string memory) {... */\n    tag_7:\n      tag_52\n      tag_53\n      calldatasize\n      0x04\n      tag_54\n      jump\t// in\n    tag_53:\n      tag_55\n      jump\t// in\n    tag_52:\n      mload(0x40)\n      tag_37\n      swap2\n      swap1\n      tag_57\n      jump\t// in\n        /* \"module-3/ERC1155token.sol\":791:1111  function mint(uint256 id, uint256 amount) public {... */\n    tag_8:\n      tag_58\n      tag_59\n      calldatasize\n      0x04\n      tag_60\n      jump\t// in\n    tag_59:\n      tag_61\n      jump\t// in\n    tag_58:\n      stop\n        /* \"module-3/ERC1155token.sol\":1117:1283  function mintBatch(address to, uint256[] memory ids, uint256[] memory amounts, bytes memory data) public onlyOwner {... */\n    tag_9:\n      tag_58\n      tag_63\n      calldatasize\n      0x04\n      tag_64\n      jump\t// in\n    tag_63:\n      tag_65\n      jump\t// in\n        /* \"@openzeppelin/contracts/token/ERC1155/ERC1155.sol\":4014:4443  function safeBatchTransferFrom(... */\n    tag_10:\n      tag_58\n      tag_67\n      calldatasize\n      0x04\n      tag_68\n      jump\t// in\n    tag_67:\n      tag_69\n      jump\t// in\n        /* \"module-3/ERC1155token.sol\":428:463  uint256 public constant TOKEN_3 = 3 */\n    tag_11:\n      tag_33\n        /* \"module-3/ERC1155token.sol\":462:463  3 */\n      0x03\n        /* \"module-3/ERC1155token.sol\":428:463  uint256 public constant TOKEN_3 = 3 */\n      dup2\n      jump\n        /* \"module-3/ERC1155token.sol\":346:381  uint256 public constant TOKEN_1 = 1 */\n    tag_12:\n      tag_33\n        /* \"module-3/ERC1155token.sol\":380:381  1 */\n      0x01\n        /* \"module-3/ERC1155token.sol\":346:381  uint256 public constant TOKEN_1 = 1 */\n      dup2\n      jump\n        /* \"@openzeppelin/contracts/token/ERC1155/ERC1155.sol\":2536:3088  function balanceOfBatch(... */\n    tag_13:\n      tag_76\n      tag_77\n      calldatasize\n      0x04\n      tag_78\n      jump\t// in\n    tag_77:\n      tag_79\n      jump\t// in\n    tag_76:\n      mload(0x40)\n      tag_37\n      swap2\n      swap1\n      tag_81\n      jump\t// in\n        /* \"module-3/ERC1155token.sol\":1509:1755  function burnBatch(address from, uint256[] memory ids, uint256[] memory amounts) public {... */\n    tag_14:\n      tag_58\n      tag_83\n      calldatasize\n      0x04\n      tag_84\n      jump\t// in\n    tag_83:\n      tag_85\n      jump\t// in\n        /* \"@openzeppelin/contracts/access/Ownable.sol\":2293:2394  function renounceOwnership() public virtual onlyOwner {... */\n    tag_15:\n      tag_58\n      tag_87\n      jump\t// in\n        /* \"module-3/ERC1155token.sol\":387:422  uint256 public constant TOKEN_2 = 2 */\n    tag_16:\n      tag_33\n        /* \"module-3/ERC1155token.sol\":421:422  2 */\n      0x02\n        /* \"module-3/ERC1155token.sol\":387:422  uint256 public constant TOKEN_2 = 2 */\n      dup2\n      jump\n        /* \"@openzeppelin/contracts/access/Ownable.sol\":1638:1723  function owner() public view virtual returns (address) {... */\n    tag_17:\n        /* \"@openzeppelin/contracts/access/Ownable.sol\":1710:1716  _owner */\n      sload(0x03)\n        /* \"@openzeppelin/contracts/access/Ownable.sol\":1638:1723  function owner() public view virtual returns (address) {... */\n      mload(0x40)\n      sub(shl(0xa0, 0x01), 0x01)\n        /* \"@openzeppelin/contracts/access/Ownable.sol\":1710:1716  _owner */\n      swap1\n      swap2\n      and\n        /* \"#utility.yul\":8841:8915   */\n      dup2\n      mstore\n        /* \"#utility.yul\":8829:8831   */\n      0x20\n        /* \"#utility.yul\":8814:8832   */\n      add\n        /* \"@openzeppelin/contracts/access/Ownable.sol\":1638:1723  function owner() public view virtual returns (address) {... */\n      tag_37\n        /* \"#utility.yul\":8695:8921   */\n      jump\n        /* \"@openzeppelin/contracts/token/ERC1155/ERC1155.sol\":3156:3300  function setApprovalForAll(address operator, bool approved) public virtual {... */\n    tag_18:\n      tag_58\n      tag_96\n      calldatasize\n      0x04\n      tag_97\n      jump\t// in\n    tag_96:\n      tag_98\n      jump\t// in\n        /* \"module-3/ERC1155token.sol\":551:586  uint256 public constant TOKEN_6 = 6 */\n    tag_19:\n      tag_33\n        /* \"module-3/ERC1155token.sol\":585:586  6 */\n      0x06\n        /* \"module-3/ERC1155token.sol\":551:586  uint256 public constant TOKEN_6 = 6 */\n      dup2\n      jump\n        /* \"module-3/ERC1155token.sol\":305:340  uint256 public constant TOKEN_0 = 0 */\n    tag_20:\n      tag_33\n        /* \"module-3/ERC1155token.sol\":339:340  0 */\n      0x00\n        /* \"module-3/ERC1155token.sol\":305:340  uint256 public constant TOKEN_0 = 0 */\n      dup2\n      jump\n        /* \"module-3/ERC1155token.sol\":510:545  uint256 public constant TOKEN_5 = 5 */\n    tag_21:\n      tag_33\n        /* \"module-3/ERC1155token.sol\":544:545  5 */\n      0x05\n        /* \"module-3/ERC1155token.sol\":510:545  uint256 public constant TOKEN_5 = 5 */\n      dup2\n      jump\n        /* \"@openzeppelin/contracts/token/ERC1155/ERC1155.sol\":3367:3524  function isApprovedForAll(address account, address operator) public view virtual returns (bool) {... */\n    tag_22:\n      tag_39\n      tag_109\n      calldatasize\n      0x04\n      tag_110\n      jump\t// in\n    tag_109:\n      sub(shl(0xa0, 0x01), 0x01)\n        /* \"@openzeppelin/contracts/token/ERC1155/ERC1155.sol\":3480:3507  _operatorApprovals[account] */\n      swap2\n      dup3\n      and\n        /* \"@openzeppelin/contracts/token/ERC1155/ERC1155.sol\":3457:3461  bool */\n      0x00\n        /* \"@openzeppelin/contracts/token/ERC1155/ERC1155.sol\":3480:3507  _operatorApprovals[account] */\n      swap1\n      dup2\n      mstore\n        /* \"@openzeppelin/contracts/token/ERC1155/ERC1155.sol\":3480:3498  _operatorApprovals */\n      0x01\n        /* \"@openzeppelin/contracts/token/ERC1155/ERC1155.sol\":3480:3507  _operatorApprovals[account] */\n      0x20\n      swap1\n      dup2\n      mstore\n      0x40\n      dup1\n      dup4\n      keccak256\n        /* \"@openzeppelin/contracts/token/ERC1155/ERC1155.sol\":3480:3517  _operatorApprovals[account][operator] */\n      swap4\n      swap1\n      swap5\n      and\n      dup3\n      mstore\n      swap2\n      swap1\n      swap2\n      mstore\n      keccak256\n      sload\n      0xff\n      and\n      swap1\n        /* \"@openzeppelin/contracts/token/ERC1155/ERC1155.sol\":3367:3524  function isApprovedForAll(address account, address operator) public view virtual returns (bool) {... */\n      jump\n        /* \"@openzeppelin/contracts/token/ERC1155/ERC1155.sol\":3591:3942  function safeTransferFrom(address from, address to, uint256 id, uint256 value, bytes memory data) public virtual {... */\n    tag_23:\n      tag_58\n      tag_114\n      calldatasize\n      0x04\n      tag_115\n      jump\t// in\n    tag_114:\n      tag_116\n      jump\t// in\n        /* \"@openzeppelin/contracts/access/Ownable.sol\":2543:2758  function transferOwnership(address newOwner) public virtual onlyOwner {... */\n    tag_24:\n      tag_58\n      tag_118\n      calldatasize\n      0x04\n      tag_119\n      jump\t// in\n    tag_118:\n      tag_120\n      jump\t// in\n        /* \"module-3/ERC1155token.sol\":1289:1503  function burn(address from, uint256 id, uint256 amount) public {... */\n    tag_25:\n      tag_58\n      tag_122\n      calldatasize\n      0x04\n      tag_123\n      jump\t// in\n    tag_122:\n      tag_124\n      jump\t// in\n        /* \"@openzeppelin/contracts/token/ERC1155/ERC1155.sol\":2247:2379  function balanceOf(address account, uint256 id) public view virtual returns (uint256) {... */\n    tag_36:\n        /* \"@openzeppelin/contracts/token/ERC1155/ERC1155.sol\":2324:2331  uint256 */\n      0x00\n        /* \"@openzeppelin/contracts/token/ERC1155/ERC1155.sol\":2350:2363  _balances[id] */\n      dup2\n      dup2\n      mstore\n      0x20\n      dup2\n      dup2\n      mstore\n      0x40\n      dup1\n      dup4\n      keccak256\n      sub(shl(0xa0, 0x01), 0x01)\n        /* \"@openzeppelin/contracts/token/ERC1155/ERC1155.sol\":2350:2372  _balances[id][account] */\n      dup7\n      and\n      dup5\n      mstore\n      swap1\n      swap2\n      mstore\n      swap1\n      keccak256\n      sload\n        /* \"@openzeppelin/contracts/token/ERC1155/ERC1155.sol\":2247:2379  function balanceOf(address account, uint256 id) public view virtual returns (uint256) {... */\n    tag_125:\n      swap3\n      swap2\n      pop\n      pop\n      jump\t// out\n        /* \"@openzeppelin/contracts/token/ERC1155/ERC1155.sol\":1380:1685  function supportsInterface(bytes4 interfaceId) public view virtual override(ERC165, IERC165) returns (bool) {... */\n    tag_42:\n        /* \"@openzeppelin/contracts/token/ERC1155/ERC1155.sol\":1482:1486  bool */\n      0x00\n      not(sub(shl(0xe0, 0x01), 0x01))\n        /* \"@openzeppelin/contracts/token/ERC1155/ERC1155.sol\":1517:1558  interfaceId == type(IERC1155).interfaceId */\n      dup3\n      and\n        /* \"@openzeppelin/contracts/token/ERC1155/ERC1155.sol\":1532:1558  type(IERC1155).interfaceId */\n      0xd9b67a2600000000000000000000000000000000000000000000000000000000\n        /* \"@openzeppelin/contracts/token/ERC1155/ERC1155.sol\":1517:1558  interfaceId == type(IERC1155).interfaceId */\n      eq\n      dup1\n        /* \"@openzeppelin/contracts/token/ERC1155/ERC1155.sol\":1517:1626  interfaceId == type(IERC1155).interfaceId ||... */\n      tag_127\n      jumpi\n      pop\n      not(sub(shl(0xe0, 0x01), 0x01))\n        /* \"@openzeppelin/contracts/token/ERC1155/ERC1155.sol\":1574:1626  interfaceId == type(IERC1155MetadataURI).interfaceId */\n      dup3\n      and\n        /* \"@openzeppelin/contracts/token/ERC1155/ERC1155.sol\":1589:1626  type(IERC1155MetadataURI).interfaceId */\n      0x0e89341c00000000000000000000000000000000000000000000000000000000\n        /* \"@openzeppelin/contracts/token/ERC1155/ERC1155.sol\":1574:1626  interfaceId == type(IERC1155MetadataURI).interfaceId */\n      eq\n        /* \"@openzeppelin/contracts/token/ERC1155/ERC1155.sol\":1517:1626  interfaceId == type(IERC1155).interfaceId ||... */\n    tag_127:\n        /* \"@openzeppelin/contracts/token/ERC1155/ERC1155.sol\":1517:1678  interfaceId == type(IERC1155).interfaceId ||... */\n      dup1\n      tag_125\n      jumpi\n      pop\n        /* \"@openzeppelin/contracts/utils/introspection/ERC165.sol\":876:901  type(IERC165).interfaceId */\n      0x01ffc9a700000000000000000000000000000000000000000000000000000000\n      not(sub(shl(0xe0, 0x01), 0x01))\n        /* \"@openzeppelin/contracts/utils/introspection/ERC165.sol\":861:901  interfaceId == type(IERC165).interfaceId */\n      dup4\n      and\n      eq\n        /* \"@openzeppelin/contracts/token/ERC1155/ERC1155.sol\":1642:1678  super.supportsInterface(interfaceId) */\n      tag_125\n        /* \"@openzeppelin/contracts/utils/introspection/ERC165.sol\":762:908  function supportsInterface(bytes4 interfaceId) public view virtual returns (bool) {... */\n      jump\n        /* \"module-3/ERC1155token.sol\":1761:1900  function uri(uint256 id) public view override returns (string memory) {... */\n    tag_55:\n        /* \"module-3/ERC1155token.sol\":1816:1829  string memory */\n      0x60\n        /* \"module-3/ERC1155token.sol\":1868:1881  super.uri(id) */\n      tag_132\n        /* \"module-3/ERC1155token.sol\":1878:1880  id */\n      dup3\n        /* \"module-3/ERC1155token.sol\":1868:1877  super.uri */\n      tag_133\n        /* \"module-3/ERC1155token.sol\":1868:1881  super.uri(id) */\n      jump\t// in\n    tag_132:\n        /* \"module-3/ERC1155token.sol\":1882:1895  id.toString() */\n      tag_134\n        /* \"module-3/ERC1155token.sol\":1882:1884  id */\n      dup4\n        /* \"module-3/ERC1155token.sol\":1882:1893  id.toString */\n      tag_135\n        /* \"module-3/ERC1155token.sol\":1882:1895  id.toString() */\n      jump\t// in\n    tag_134:\n        /* \"module-3/ERC1155token.sol\":1851:1896  abi.encodePacked(super.uri(id),id.toString()) */\n      add(0x20, mload(0x40))\n      tag_136\n      swap3\n      swap2\n      swap1\n      tag_137\n      jump\t// in\n    tag_136:\n      mload(0x40)\n      0x20\n      dup2\n      dup4\n      sub\n      sub\n      dup2\n      mstore\n      swap1\n      0x40\n      mstore\n        /* \"module-3/ERC1155token.sol\":1837:1897  return string(abi.encodePacked(super.uri(id),id.toString())) */\n      swap1\n      pop\n        /* \"module-3/ERC1155token.sol\":1761:1900  function uri(uint256 id) public view override returns (string memory) {... */\n      swap2\n      swap1\n      pop\n      jump\t// out\n        /* \"module-3/ERC1155token.sol\":791:1111  function mint(uint256 id, uint256 amount) public {... */\n    tag_61:\n        /* \"module-3/ERC1155token.sol\":421:422  2 */\n      0x02\n        /* \"module-3/ERC1155token.sol\":875:877  id */\n      dup3\n        /* \"module-3/ERC1155token.sol\":875:888  id <= TOKEN_2 */\n      gt\n      iszero\n        /* \"module-3/ERC1155token.sol\":850:909  require(id >= TOKEN_0 && id <= TOKEN_2, \"Invalid token ID\") */\n      tag_140\n      jumpi\n      mload(0x40)\n      shl(0xe5, 0x461bcd)\n      dup2\n      mstore\n        /* \"#utility.yul\":11375:11377   */\n      0x20\n        /* \"module-3/ERC1155token.sol\":850:909  require(id >= TOKEN_0 && id <= TOKEN_2, \"Invalid token ID\") */\n      0x04\n      dup3\n      add\n        /* \"#utility.yul\":11357:11378   */\n      mstore\n        /* \"#utility.yul\":11414:11416   */\n      0x10\n        /* \"#utility.yul\":11394:11412   */\n      0x24\n      dup3\n      add\n        /* \"#utility.yul\":11387:11417   */\n      mstore\n        /* \"#utility.yul\":11453:11471   */\n      0x496e76616c696420746f6b656e20494400000000000000000000000000000000\n        /* \"#utility.yul\":11433:11451   */\n      0x44\n      dup3\n      add\n        /* \"#utility.yul\":11426:11472   */\n      mstore\n        /* \"#utility.yul\":11489:11507   */\n      0x64\n      add\n        /* \"module-3/ERC1155token.sol\":850:909  require(id >= TOKEN_0 && id <= TOKEN_2, \"Invalid token ID\") */\n    tag_141:\n      mload(0x40)\n      dup1\n      swap2\n      sub\n      swap1\n      revert\n    tag_140:\n        /* \"module-3/ERC1155token.sol\":959:969  msg.sender */\n      caller\n        /* \"module-3/ERC1155token.sol\":946:970  lastMintTime[msg.sender] */\n      0x00\n      swap1\n      dup2\n      mstore\n        /* \"module-3/ERC1155token.sol\":946:958  lastMintTime */\n      0x04\n        /* \"module-3/ERC1155token.sol\":946:970  lastMintTime[msg.sender] */\n      0x20\n      swap1\n      dup2\n      mstore\n      0x40\n      dup1\n      dup4\n      keccak256\n        /* \"module-3/ERC1155token.sol\":946:974  lastMintTime[msg.sender][id] */\n      dup6\n      dup5\n      mstore\n      swap1\n      swap2\n      mstore\n      swap1\n      keccak256\n      sload\n        /* \"module-3/ERC1155token.sol\":946:986  lastMintTime[msg.sender][id] + 1 minutes */\n      tag_143\n      swap1\n        /* \"module-3/ERC1155token.sol\":977:986  1 minutes */\n      0x3c\n        /* \"module-3/ERC1155token.sol\":946:986  lastMintTime[msg.sender][id] + 1 minutes */\n      tag_144\n      jump\t// in\n    tag_143:\n        /* \"module-3/ERC1155token.sol\":927:942  block.timestamp */\n      timestamp\n        /* \"module-3/ERC1155token.sol\":927:986  block.timestamp >= lastMintTime[msg.sender][id] + 1 minutes */\n      lt\n      iszero\n        /* \"module-3/ERC1155token.sol\":919:1004  require(block.timestamp >= lastMintTime[msg.sender][id] + 1 minutes, \"Mint cooldown\") */\n      tag_145\n      jumpi\n      mload(0x40)\n      shl(0xe5, 0x461bcd)\n      dup2\n      mstore\n        /* \"#utility.yul\":12004:12006   */\n      0x20\n        /* \"module-3/ERC1155token.sol\":919:1004  require(block.timestamp >= lastMintTime[msg.sender][id] + 1 minutes, \"Mint cooldown\") */\n      0x04\n      dup3\n      add\n        /* \"#utility.yul\":11986:12007   */\n      mstore\n        /* \"#utility.yul\":12043:12045   */\n      0x0d\n        /* \"#utility.yul\":12023:12041   */\n      0x24\n      dup3\n      add\n        /* \"#utility.yul\":12016:12046   */\n      mstore\n        /* \"#utility.yul\":12082:12097   */\n      0x4d696e7420636f6f6c646f776e00000000000000000000000000000000000000\n        /* \"#utility.yul\":12062:12080   */\n      0x44\n      dup3\n      add\n        /* \"#utility.yul\":12055:12098   */\n      mstore\n        /* \"#utility.yul\":12115:12133   */\n      0x64\n      add\n        /* \"module-3/ERC1155token.sol\":919:1004  require(block.timestamp >= lastMintTime[msg.sender][id] + 1 minutes, \"Mint cooldown\") */\n      tag_141\n        /* \"#utility.yul\":11802:12139   */\n      jump\n        /* \"module-3/ERC1155token.sol\":919:1004  require(block.timestamp >= lastMintTime[msg.sender][id] + 1 minutes, \"Mint cooldown\") */\n    tag_145:\n        /* \"module-3/ERC1155token.sol\":1028:1038  msg.sender */\n      caller\n        /* \"module-3/ERC1155token.sol\":1015:1039  lastMintTime[msg.sender] */\n      0x00\n      dup2\n      dup2\n      mstore\n        /* \"module-3/ERC1155token.sol\":1015:1027  lastMintTime */\n      0x04\n        /* \"module-3/ERC1155token.sol\":1015:1039  lastMintTime[msg.sender] */\n      0x20\n      swap1\n      dup2\n      mstore\n      0x40\n      dup1\n      dup4\n      keccak256\n        /* \"module-3/ERC1155token.sol\":1015:1043  lastMintTime[msg.sender][id] */\n      dup7\n      dup5\n      mstore\n      dup3\n      mstore\n      dup1\n      dup4\n      keccak256\n        /* \"module-3/ERC1155token.sol\":1046:1061  block.timestamp */\n      timestamp\n        /* \"module-3/ERC1155token.sol\":1015:1061  lastMintTime[msg.sender][id] = block.timestamp */\n      swap1\n      sstore\n        /* \"module-3/ERC1155token.sol\":1071:1104  _mint(msg.sender, id, amount, \"\") */\n      dup1\n      mload\n      swap2\n      dup3\n      add\n      swap1\n      mstore\n      swap1\n      dup2\n      mstore\n      tag_148\n      swap2\n        /* \"module-3/ERC1155token.sol\":1028:1038  msg.sender */\n      swap1\n        /* \"module-3/ERC1155token.sol\":1040:1042  id */\n      dup5\n      swap1\n        /* \"module-3/ERC1155token.sol\":1093:1099  amount */\n      dup5\n      swap1\n        /* \"module-3/ERC1155token.sol\":1071:1076  _mint */\n      tag_149\n        /* \"module-3/ERC1155token.sol\":1071:1104  _mint(msg.sender, id, amount, \"\") */\n      jump\t// in\n    tag_148:\n        /* \"module-3/ERC1155token.sol\":791:1111  function mint(uint256 id, uint256 amount) public {... */\n      pop\n      pop\n      jump\t// out\n        /* \"module-3/ERC1155token.sol\":1117:1283  function mintBatch(address to, uint256[] memory ids, uint256[] memory amounts, bytes memory data) public onlyOwner {... */\n    tag_65:\n        /* \"@openzeppelin/contracts/access/Ownable.sol\":1531:1544  _checkOwner() */\n      tag_151\n        /* \"@openzeppelin/contracts/access/Ownable.sol\":1531:1542  _checkOwner */\n      tag_152\n        /* \"@openzeppelin/contracts/access/Ownable.sol\":1531:1544  _checkOwner() */\n      jump\t// in\n    tag_151:\n        /* \"module-3/ERC1155token.sol\":1242:1276  _mintBatch(to, ids, amounts, data) */\n      tag_154\n        /* \"module-3/ERC1155token.sol\":1253:1255  to */\n      dup5\n        /* \"module-3/ERC1155token.sol\":1257:1260  ids */\n      dup5\n        /* \"module-3/ERC1155token.sol\":1262:1269  amounts */\n      dup5\n        /* \"module-3/ERC1155token.sol\":1271:1275  data */\n      dup5\n        /* \"module-3/ERC1155token.sol\":1242:1252  _mintBatch */\n      tag_155\n        /* \"module-3/ERC1155token.sol\":1242:1276  _mintBatch(to, ids, amounts, data) */\n      jump\t// in\n    tag_154:\n        /* \"module-3/ERC1155token.sol\":1117:1283  function mintBatch(address to, uint256[] memory ids, uint256[] memory amounts, bytes memory data) public onlyOwner {... */\n      pop\n      pop\n      pop\n      pop\n      jump\t// out\n        /* \"@openzeppelin/contracts/token/ERC1155/ERC1155.sol\":4014:4443  function safeBatchTransferFrom(... */\n    tag_69:\n        /* \"@openzeppelin/contracts/utils/Context.sol\":735:745  msg.sender */\n      caller\n      sub(shl(0xa0, 0x01), 0x01)\n        /* \"@openzeppelin/contracts/token/ERC1155/ERC1155.sol\":4251:4265  from != sender */\n      dup7\n      and\n      dup2\n      eq\n      dup1\n      iszero\n      swap1\n        /* \"@openzeppelin/contracts/token/ERC1155/ERC1155.sol\":4251:4300  from != sender && !isApprovedForAll(from, sender) */\n      tag_159\n      jumpi\n      pop\n      sub(shl(0xa0, 0x01), 0x01)\n        /* \"@openzeppelin/contracts/token/ERC1155/ERC1155.sol\":3480:3507  _operatorApprovals[account] */\n      dup1\n      dup8\n      and\n        /* \"@openzeppelin/contracts/token/ERC1155/ERC1155.sol\":3457:3461  bool */\n      0x00\n        /* \"@openzeppelin/contracts/token/ERC1155/ERC1155.sol\":3480:3507  _operatorApprovals[account] */\n      swap1\n      dup2\n      mstore\n        /* \"@openzeppelin/contracts/token/ERC1155/ERC1155.sol\":3480:3498  _operatorApprovals */\n      0x01\n        /* \"@openzeppelin/contracts/token/ERC1155/ERC1155.sol\":3480:3507  _operatorApprovals[account] */\n      0x20\n      swap1\n      dup2\n      mstore\n      0x40\n      dup1\n      dup4\n      keccak256\n        /* \"@openzeppelin/contracts/token/ERC1155/ERC1155.sol\":3480:3517  _operatorApprovals[account][operator] */\n      swap4\n      dup6\n      and\n      dup4\n      mstore\n      swap3\n      swap1\n      mstore\n      keccak256\n      sload\n      0xff\n      and\n        /* \"@openzeppelin/contracts/token/ERC1155/ERC1155.sol\":4269:4300  !isApprovedForAll(from, sender) */\n      iszero\n        /* \"@openzeppelin/contracts/token/ERC1155/ERC1155.sol\":4251:4300  from != sender && !isApprovedForAll(from, sender) */\n    tag_159:\n        /* \"@openzeppelin/contracts/token/ERC1155/ERC1155.sol\":4247:4376  if (from != sender && !isApprovedForAll(from, sender)) {... */\n      iszero\n      tag_161\n      jumpi\n        /* \"@openzeppelin/contracts/token/ERC1155/ERC1155.sol\":4323:4365  ERC1155MissingApprovalForAll(sender, from) */\n      mload(0x40)\n      shl(0xe1, 0x711bec91)\n      dup2\n      mstore\n      sub(shl(0xa0, 0x01), 0x01)\n        /* \"#utility.yul\":12397:12412   */\n      dup1\n      dup4\n      and\n        /* \"@openzeppelin/contracts/token/ERC1155/ERC1155.sol\":4323:4365  ERC1155MissingApprovalForAll(sender, from) */\n      0x04\n      dup4\n      add\n        /* \"#utility.yul\":12379:12413   */\n      mstore\n        /* \"#utility.yul\":12449:12464   */\n      dup8\n      and\n        /* \"#utility.yul\":12429:12447   */\n      0x24\n      dup3\n      add\n        /* \"#utility.yul\":12422:12465   */\n      mstore\n        /* \"#utility.yul\":12291:12309   */\n      0x44\n      add\n        /* \"@openzeppelin/contracts/token/ERC1155/ERC1155.sol\":4323:4365  ERC1155MissingApprovalForAll(sender, from) */\n      tag_141\n        /* \"#utility.yul\":12144:12471   */\n      jump\n        /* \"@openzeppelin/contracts/token/ERC1155/ERC1155.sol\":4247:4376  if (from != sender && !isApprovedForAll(from, sender)) {... */\n    tag_161:\n        /* \"@openzeppelin/contracts/token/ERC1155/ERC1155.sol\":4385:4436  _safeBatchTransferFrom(from, to, ids, values, data) */\n      tag_164\n        /* \"@openzeppelin/contracts/token/ERC1155/ERC1155.sol\":4408:4412  from */\n      dup7\n        /* \"@openzeppelin/contracts/token/ERC1155/ERC1155.sol\":4414:4416  to */\n      dup7\n        /* \"@openzeppelin/contracts/token/ERC1155/ERC1155.sol\":4418:4421  ids */\n      dup7\n        /* \"@openzeppelin/contracts/token/ERC1155/ERC1155.sol\":4423:4429  values */\n      dup7\n        /* \"@openzeppelin/contracts/token/ERC1155/ERC1155.sol\":4431:4435  data */\n      dup7\n        /* \"@openzeppelin/contracts/token/ERC1155/ERC1155.sol\":4385:4407  _safeBatchTransferFrom */\n      tag_165\n        /* \"@openzeppelin/contracts/token/ERC1155/ERC1155.sol\":4385:4436  _safeBatchTransferFrom(from, to, ids, values, data) */\n      jump\t// in\n    tag_164:\n        /* \"@openzeppelin/contracts/token/ERC1155/ERC1155.sol\":4198:4443  {... */\n      pop\n        /* \"@openzeppelin/contracts/token/ERC1155/ERC1155.sol\":4014:4443  function safeBatchTransferFrom(... */\n      pop\n      pop\n      pop\n      pop\n      pop\n      jump\t// out\n        /* \"@openzeppelin/contracts/token/ERC1155/ERC1155.sol\":2536:3088  function balanceOfBatch(... */\n    tag_79:\n        /* \"@openzeppelin/contracts/token/ERC1155/ERC1155.sol\":2660:2676  uint256[] memory */\n      0x60\n        /* \"@openzeppelin/contracts/token/ERC1155/ERC1155.sol\":2711:2714  ids */\n      dup2\n        /* \"@openzeppelin/contracts/token/ERC1155/ERC1155.sol\":2711:2721  ids.length */\n      mload\n        /* \"@openzeppelin/contracts/token/ERC1155/ERC1155.sol\":2692:2700  accounts */\n      dup4\n        /* \"@openzeppelin/contracts/token/ERC1155/ERC1155.sol\":2692:2707  accounts.length */\n      mload\n        /* \"@openzeppelin/contracts/token/ERC1155/ERC1155.sol\":2692:2721  accounts.length != ids.length */\n      eq\n        /* \"@openzeppelin/contracts/token/ERC1155/ERC1155.sol\":2688:2809  if (accounts.length != ids.length) {... */\n      tag_167\n      jumpi\n        /* \"@openzeppelin/contracts/token/ERC1155/ERC1155.sol\":2770:2780  ids.length */\n      dup2\n      mload\n        /* \"@openzeppelin/contracts/token/ERC1155/ERC1155.sol\":2782:2797  accounts.length */\n      dup4\n      mload\n        /* \"@openzeppelin/contracts/token/ERC1155/ERC1155.sol\":2744:2798  ERC1155InvalidArrayLength(ids.length, accounts.length) */\n      mload(0x40)\n      shl(0xe0, 0x5b059991)\n      dup2\n      mstore\n      0x04\n      dup2\n      add\n        /* \"#utility.yul\":12650:12675   */\n      swap3\n      swap1\n      swap3\n      mstore\n        /* \"#utility.yul\":12691:12709   */\n      0x24\n      dup3\n      add\n        /* \"#utility.yul\":12684:12718   */\n      mstore\n        /* \"#utility.yul\":12623:12641   */\n      0x44\n      add\n        /* \"@openzeppelin/contracts/token/ERC1155/ERC1155.sol\":2744:2798  ERC1155InvalidArrayLength(ids.length, accounts.length) */\n      tag_141\n        /* \"#utility.yul\":12476:12724   */\n      jump\n        /* \"@openzeppelin/contracts/token/ERC1155/ERC1155.sol\":2688:2809  if (accounts.length != ids.length) {... */\n    tag_167:\n        /* \"@openzeppelin/contracts/token/ERC1155/ERC1155.sol\":2819:2849  uint256[] memory batchBalances */\n      0x00\n        /* \"@openzeppelin/contracts/token/ERC1155/ERC1155.sol\":2866:2874  accounts */\n      dup4\n        /* \"@openzeppelin/contracts/token/ERC1155/ERC1155.sol\":2866:2881  accounts.length */\n      mload\n        /* \"@openzeppelin/contracts/token/ERC1155/ERC1155.sol\":2852:2882  new uint256[](accounts.length) */\n      0xffffffffffffffff\n      dup2\n      gt\n      iszero\n      tag_171\n      jumpi\n      tag_171\n      tag_172\n      jump\t// in\n    tag_171:\n      mload(0x40)\n      swap1\n      dup1\n      dup3\n      mstore\n      dup1\n      0x20\n      mul\n      0x20\n      add\n      dup3\n      add\n      0x40\n      mstore\n      dup1\n      iszero\n      tag_173\n      jumpi\n      dup2\n      0x20\n      add\n      0x20\n      dup3\n      mul\n      dup1\n      calldatasize\n      dup4\n      calldatacopy\n      add\n      swap1\n      pop\n    tag_173:\n      pop\n        /* \"@openzeppelin/contracts/token/ERC1155/ERC1155.sol\":2819:2882  uint256[] memory batchBalances = new uint256[](accounts.length) */\n      swap1\n      pop\n        /* \"@openzeppelin/contracts/token/ERC1155/ERC1155.sol\":2898:2907  uint256 i */\n      0x00\n        /* \"@openzeppelin/contracts/token/ERC1155/ERC1155.sol\":2893:3051  for (uint256 i = 0; i < accounts.length; ++i) {... */\n    tag_174:\n        /* \"@openzeppelin/contracts/token/ERC1155/ERC1155.sol\":2917:2925  accounts */\n      dup5\n        /* \"@openzeppelin/contracts/token/ERC1155/ERC1155.sol\":2917:2932  accounts.length */\n      mload\n        /* \"@openzeppelin/contracts/token/ERC1155/ERC1155.sol\":2913:2914  i */\n      dup2\n        /* \"@openzeppelin/contracts/token/ERC1155/ERC1155.sol\":2913:2932  i < accounts.length */\n      lt\n        /* \"@openzeppelin/contracts/token/ERC1155/ERC1155.sol\":2893:3051  for (uint256 i = 0; i < accounts.length; ++i) {... */\n      iszero\n      tag_175\n      jumpi\n        /* \"@openzeppelin/contracts/utils/Arrays.sol\":4777:4781  0x20 */\n      0x20\n        /* \"@openzeppelin/contracts/utils/Arrays.sol\":4768:4782  mul(pos, 0x20) */\n      dup1\n      dup3\n      mul\n        /* \"@openzeppelin/contracts/utils/Arrays.sol\":4748:4783  add(add(arr, 0x20), mul(pos, 0x20)) */\n      dup7\n      add\n      add\n        /* \"@openzeppelin/contracts/utils/Arrays.sol\":4742:4784  mload(add(add(arr, 0x20), mul(pos, 0x20))) */\n      mload\n        /* \"@openzeppelin/contracts/token/ERC1155/ERC1155.sol\":2972:3040  balanceOf(accounts.unsafeMemoryAccess(i), ids.unsafeMemoryAccess(i)) */\n      tag_177\n      swap1\n        /* \"@openzeppelin/contracts/utils/Arrays.sol\":4777:4781  0x20 */\n      0x20\n        /* \"@openzeppelin/contracts/utils/Arrays.sol\":4768:4782  mul(pos, 0x20) */\n      dup1\n      dup5\n      mul\n        /* \"@openzeppelin/contracts/utils/Arrays.sol\":4748:4783  add(add(arr, 0x20), mul(pos, 0x20)) */\n      dup8\n      add\n      add\n        /* \"@openzeppelin/contracts/utils/Arrays.sol\":4742:4784  mload(add(add(arr, 0x20), mul(pos, 0x20))) */\n      mload\n        /* \"@openzeppelin/contracts/token/ERC1155/ERC1155.sol\":2247:2379  function balanceOf(address account, uint256 id) public view virtual returns (uint256) {... */\n      tag_36\n      jump\t// in\n        /* \"@openzeppelin/contracts/token/ERC1155/ERC1155.sol\":2972:3040  balanceOf(accounts.unsafeMemoryAccess(i), ids.unsafeMemoryAccess(i)) */\n    tag_177:\n        /* \"@openzeppelin/contracts/token/ERC1155/ERC1155.sol\":2953:2966  batchBalances */\n      dup3\n        /* \"@openzeppelin/contracts/token/ERC1155/ERC1155.sol\":2967:2968  i */\n      dup3\n        /* \"@openzeppelin/contracts/token/ERC1155/ERC1155.sol\":2953:2969  batchBalances[i] */\n      dup2\n      mload\n      dup2\n      lt\n      tag_183\n      jumpi\n      tag_183\n      tag_184\n      jump\t// in\n    tag_183:\n      0x20\n      swap1\n      dup2\n      mul\n      swap2\n      swap1\n      swap2\n      add\n      add\n        /* \"@openzeppelin/contracts/token/ERC1155/ERC1155.sol\":2953:3040  batchBalances[i] = balanceOf(accounts.unsafeMemoryAccess(i), ids.unsafeMemoryAccess(i)) */\n      mstore\n        /* \"@openzeppelin/contracts/token/ERC1155/ERC1155.sol\":2934:2937  ++i */\n      0x01\n      add\n        /* \"@openzeppelin/contracts/token/ERC1155/ERC1155.sol\":2893:3051  for (uint256 i = 0; i < accounts.length; ++i) {... */\n      jump(tag_174)\n    tag_175:\n      pop\n        /* \"@openzeppelin/contracts/token/ERC1155/ERC1155.sol\":3068:3081  batchBalances */\n      swap4\n        /* \"@openzeppelin/contracts/token/ERC1155/ERC1155.sol\":2536:3088  function balanceOfBatch(... */\n      swap3\n      pop\n      pop\n      pop\n      jump\t// out\n        /* \"module-3/ERC1155token.sol\":1509:1755  function burnBatch(address from, uint256[] memory ids, uint256[] memory amounts) public {... */\n    tag_85:\n        /* \"module-3/ERC1155token.sol\":1615:1625  msg.sender */\n      caller\n      sub(shl(0xa0, 0x01), 0x01)\n        /* \"module-3/ERC1155token.sol\":1615:1633  msg.sender == from */\n      dup5\n      and\n      eq\n      dup1\n        /* \"module-3/ERC1155token.sol\":1615:1671  msg.sender == from || isApprovedForAll(from, msg.sender) */\n      tag_187\n      jumpi\n      pop\n      sub(shl(0xa0, 0x01), 0x01)\n        /* \"@openzeppelin/contracts/token/ERC1155/ERC1155.sol\":3480:3507  _operatorApprovals[account] */\n      dup4\n      and\n        /* \"@openzeppelin/contracts/token/ERC1155/ERC1155.sol\":3457:3461  bool */\n      0x00\n        /* \"@openzeppelin/contracts/token/ERC1155/ERC1155.sol\":3480:3507  _operatorApprovals[account] */\n      swap1\n      dup2\n      mstore\n        /* \"@openzeppelin/contracts/token/ERC1155/ERC1155.sol\":3480:3498  _operatorApprovals */\n      0x01\n        /* \"@openzeppelin/contracts/token/ERC1155/ERC1155.sol\":3480:3507  _operatorApprovals[account] */\n      0x20\n      swap1\n      dup2\n      mstore\n      0x40\n      dup1\n      dup4\n      keccak256\n        /* \"module-3/ERC1155token.sol\":1660:1670  msg.sender */\n      caller\n        /* \"@openzeppelin/contracts/token/ERC1155/ERC1155.sol\":3480:3517  _operatorApprovals[account][operator] */\n      dup5\n      mstore\n      swap1\n      swap2\n      mstore\n      swap1\n      keccak256\n      sload\n      0xff\n      and\n        /* \"module-3/ERC1155token.sol\":1637:1671  isApprovedForAll(from, msg.sender) */\n    tag_187:\n        /* \"module-3/ERC1155token.sol\":1607:1708  require(msg.sender == from || isApprovedForAll(from, msg.sender), \"Caller is not owner nor approved\") */\n      tag_188\n      jumpi\n      mload(0x40)\n      shl(0xe5, 0x461bcd)\n      dup2\n      mstore\n        /* \"#utility.yul\":13120:13122   */\n      0x20\n        /* \"module-3/ERC1155token.sol\":1607:1708  require(msg.sender == from || isApprovedForAll(from, msg.sender), \"Caller is not owner nor approved\") */\n      0x04\n      dup3\n      add\n        /* \"#utility.yul\":13102:13123   */\n      dup2\n      swap1\n      mstore\n        /* \"#utility.yul\":13139:13157   */\n      0x24\n      dup3\n      add\n        /* \"#utility.yul\":13132:13162   */\n      mstore\n        /* \"#utility.yul\":13198:13232   */\n      0x43616c6c6572206973206e6f74206f776e6572206e6f7220617070726f766564\n        /* \"#utility.yul\":13178:13196   */\n      0x44\n      dup3\n      add\n        /* \"#utility.yul\":13171:13233   */\n      mstore\n        /* \"#utility.yul\":13250:13268   */\n      0x64\n      add\n        /* \"module-3/ERC1155token.sol\":1607:1708  require(msg.sender == from || isApprovedForAll(from, msg.sender), \"Caller is not owner nor approved\") */\n      tag_141\n        /* \"#utility.yul\":12918:13274   */\n      jump\n        /* \"module-3/ERC1155token.sol\":1607:1708  require(msg.sender == from || isApprovedForAll(from, msg.sender), \"Caller is not owner nor approved\") */\n    tag_188:\n        /* \"module-3/ERC1155token.sol\":1718:1748  _burnBatch(from, ids, amounts) */\n      tag_191\n        /* \"module-3/ERC1155token.sol\":1729:1733  from */\n      dup4\n        /* \"module-3/ERC1155token.sol\":1735:1738  ids */\n      dup4\n        /* \"module-3/ERC1155token.sol\":1740:1747  amounts */\n      dup4\n        /* \"module-3/ERC1155token.sol\":1718:1728  _burnBatch */\n      tag_192\n        /* \"module-3/ERC1155token.sol\":1718:1748  _burnBatch(from, ids, amounts) */\n      jump\t// in\n    tag_191:\n        /* \"module-3/ERC1155token.sol\":1509:1755  function burnBatch(address from, uint256[] memory ids, uint256[] memory amounts) public {... */\n      pop\n      pop\n      pop\n      jump\t// out\n        /* \"@openzeppelin/contracts/access/Ownable.sol\":2293:2394  function renounceOwnership() public virtual onlyOwner {... */\n    tag_87:\n        /* \"@openzeppelin/contracts/access/Ownable.sol\":1531:1544  _checkOwner() */\n      tag_194\n        /* \"@openzeppelin/contracts/access/Ownable.sol\":1531:1542  _checkOwner */\n      tag_152\n        /* \"@openzeppelin/contracts/access/Ownable.sol\":1531:1544  _checkOwner() */\n      jump\t// in\n    tag_194:\n        /* \"@openzeppelin/contracts/access/Ownable.sol\":2357:2387  _transferOwnership(address(0)) */\n      tag_196\n        /* \"@openzeppelin/contracts/access/Ownable.sol\":2384:2385  0 */\n      0x00\n        /* \"@openzeppelin/contracts/access/Ownable.sol\":2357:2375  _transferOwnership */\n      tag_197\n        /* \"@openzeppelin/contracts/access/Ownable.sol\":2357:2387  _transferOwnership(address(0)) */\n      jump\t// in\n    tag_196:\n        /* \"@openzeppelin/contracts/access/Ownable.sol\":2293:2394  function renounceOwnership() public virtual onlyOwner {... */\n      jump\t// out\n        /* \"@openzeppelin/contracts/token/ERC1155/ERC1155.sol\":3156:3300  function setApprovalForAll(address operator, bool approved) public virtual {... */\n    tag_98:\n        /* \"@openzeppelin/contracts/token/ERC1155/ERC1155.sol\":3241:3293  _setApprovalForAll(_msgSender(), operator, approved) */\n      tag_148\n        /* \"@openzeppelin/contracts/utils/Context.sol\":735:745  msg.sender */\n      caller\n        /* \"@openzeppelin/contracts/token/ERC1155/ERC1155.sol\":3274:3282  operator */\n      dup4\n        /* \"@openzeppelin/contracts/token/ERC1155/ERC1155.sol\":3284:3292  approved */\n      dup4\n        /* \"@openzeppelin/contracts/token/ERC1155/ERC1155.sol\":3241:3259  _setApprovalForAll */\n      tag_202\n        /* \"@openzeppelin/contracts/token/ERC1155/ERC1155.sol\":3241:3293  _setApprovalForAll(_msgSender(), operator, approved) */\n      jump\t// in\n        /* \"@openzeppelin/contracts/token/ERC1155/ERC1155.sol\":3591:3942  function safeTransferFrom(address from, address to, uint256 id, uint256 value, bytes memory data) public virtual {... */\n    tag_116:\n        /* \"@openzeppelin/contracts/utils/Context.sol\":735:745  msg.sender */\n      caller\n      sub(shl(0xa0, 0x01), 0x01)\n        /* \"@openzeppelin/contracts/token/ERC1155/ERC1155.sol\":3757:3771  from != sender */\n      dup7\n      and\n      dup2\n      eq\n      dup1\n      iszero\n      swap1\n        /* \"@openzeppelin/contracts/token/ERC1155/ERC1155.sol\":3757:3806  from != sender && !isApprovedForAll(from, sender) */\n      tag_206\n      jumpi\n      pop\n      sub(shl(0xa0, 0x01), 0x01)\n        /* \"@openzeppelin/contracts/token/ERC1155/ERC1155.sol\":3480:3507  _operatorApprovals[account] */\n      dup1\n      dup8\n      and\n        /* \"@openzeppelin/contracts/token/ERC1155/ERC1155.sol\":3457:3461  bool */\n      0x00\n        /* \"@openzeppelin/contracts/token/ERC1155/ERC1155.sol\":3480:3507  _operatorApprovals[account] */\n      swap1\n      dup2\n      mstore\n        /* \"@openzeppelin/contracts/token/ERC1155/ERC1155.sol\":3480:3498  _operatorApprovals */\n      0x01\n        /* \"@openzeppelin/contracts/token/ERC1155/ERC1155.sol\":3480:3507  _operatorApprovals[account] */\n      0x20\n      swap1\n      dup2\n      mstore\n      0x40\n      dup1\n      dup4\n      keccak256\n        /* \"@openzeppelin/contracts/token/ERC1155/ERC1155.sol\":3480:3517  _operatorApprovals[account][operator] */\n      swap4\n      dup6\n      and\n      dup4\n      mstore\n      swap3\n      swap1\n      mstore\n      keccak256\n      sload\n      0xff\n      and\n        /* \"@openzeppelin/contracts/token/ERC1155/ERC1155.sol\":3775:3806  !isApprovedForAll(from, sender) */\n      iszero\n        /* \"@openzeppelin/contracts/token/ERC1155/ERC1155.sol\":3757:3806  from != sender && !isApprovedForAll(from, sender) */\n    tag_206:\n        /* \"@openzeppelin/contracts/token/ERC1155/ERC1155.sol\":3753:3882  if (from != sender && !isApprovedForAll(from, sender)) {... */\n      iszero\n      tag_208\n      jumpi\n        /* \"@openzeppelin/contracts/token/ERC1155/ERC1155.sol\":3829:3871  ERC1155MissingApprovalForAll(sender, from) */\n      mload(0x40)\n      shl(0xe1, 0x711bec91)\n      dup2\n      mstore\n      sub(shl(0xa0, 0x01), 0x01)\n        /* \"#utility.yul\":12397:12412   */\n      dup1\n      dup4\n      and\n        /* \"@openzeppelin/contracts/token/ERC1155/ERC1155.sol\":3829:3871  ERC1155MissingApprovalForAll(sender, from) */\n      0x04\n      dup4\n      add\n        /* \"#utility.yul\":12379:12413   */\n      mstore\n        /* \"#utility.yul\":12449:12464   */\n      dup8\n      and\n        /* \"#utility.yul\":12429:12447   */\n      0x24\n      dup3\n      add\n        /* \"#utility.yul\":12422:12465   */\n      mstore\n        /* \"#utility.yul\":12291:12309   */\n      0x44\n      add\n        /* \"@openzeppelin/contracts/token/ERC1155/ERC1155.sol\":3829:3871  ERC1155MissingApprovalForAll(sender, from) */\n      tag_141\n        /* \"#utility.yul\":12144:12471   */\n      jump\n        /* \"@openzeppelin/contracts/token/ERC1155/ERC1155.sol\":3753:3882  if (from != sender && !isApprovedForAll(from, sender)) {... */\n    tag_208:\n        /* \"@openzeppelin/contracts/token/ERC1155/ERC1155.sol\":3891:3935  _safeTransferFrom(from, to, id, value, data) */\n      tag_164\n        /* \"@openzeppelin/contracts/token/ERC1155/ERC1155.sol\":3909:3913  from */\n      dup7\n        /* \"@openzeppelin/contracts/token/ERC1155/ERC1155.sol\":3915:3917  to */\n      dup7\n        /* \"@openzeppelin/contracts/token/ERC1155/ERC1155.sol\":3919:3921  id */\n      dup7\n        /* \"@openzeppelin/contracts/token/ERC1155/ERC1155.sol\":3923:3928  value */\n      dup7\n        /* \"@openzeppelin/contracts/token/ERC1155/ERC1155.sol\":3930:3934  data */\n      dup7\n        /* \"@openzeppelin/contracts/token/ERC1155/ERC1155.sol\":3891:3908  _safeTransferFrom */\n      tag_211\n        /* \"@openzeppelin/contracts/token/ERC1155/ERC1155.sol\":3891:3935  _safeTransferFrom(from, to, id, value, data) */\n      jump\t// in\n        /* \"@openzeppelin/contracts/access/Ownable.sol\":2543:2758  function transferOwnership(address newOwner) public virtual onlyOwner {... */\n    tag_120:\n        /* \"@openzeppelin/contracts/access/Ownable.sol\":1531:1544  _checkOwner() */\n      tag_213\n        /* \"@openzeppelin/contracts/access/Ownable.sol\":1531:1542  _checkOwner */\n      tag_152\n        /* \"@openzeppelin/contracts/access/Ownable.sol\":1531:1544  _checkOwner() */\n      jump\t// in\n    tag_213:\n      sub(shl(0xa0, 0x01), 0x01)\n        /* \"@openzeppelin/contracts/access/Ownable.sol\":2627:2649  newOwner == address(0) */\n      dup2\n      and\n        /* \"@openzeppelin/contracts/access/Ownable.sol\":2623:2714  if (newOwner == address(0)) {... */\n      tag_215\n      jumpi\n        /* \"@openzeppelin/contracts/access/Ownable.sol\":2672:2703  OwnableInvalidOwner(address(0)) */\n      mload(0x40)\n      0x1e4fbdf700000000000000000000000000000000000000000000000000000000\n      dup2\n      mstore\n        /* \"@openzeppelin/contracts/access/Ownable.sol\":2700:2701  0 */\n      0x00\n        /* \"@openzeppelin/contracts/access/Ownable.sol\":2672:2703  OwnableInvalidOwner(address(0)) */\n      0x04\n      dup3\n      add\n        /* \"#utility.yul\":8841:8915   */\n      mstore\n        /* \"#utility.yul\":8814:8832   */\n      0x24\n      add\n        /* \"@openzeppelin/contracts/access/Ownable.sol\":2672:2703  OwnableInvalidOwner(address(0)) */\n      tag_141\n        /* \"#utility.yul\":8695:8921   */\n      jump\n        /* \"@openzeppelin/contracts/access/Ownable.sol\":2623:2714  if (newOwner == address(0)) {... */\n    tag_215:\n        /* \"@openzeppelin/contracts/access/Ownable.sol\":2723:2751  _transferOwnership(newOwner) */\n      tag_217\n        /* \"@openzeppelin/contracts/access/Ownable.sol\":2742:2750  newOwner */\n      dup2\n        /* \"@openzeppelin/contracts/access/Ownable.sol\":2723:2741  _transferOwnership */\n      tag_197\n        /* \"@openzeppelin/contracts/access/Ownable.sol\":2723:2751  _transferOwnership(newOwner) */\n      jump\t// in\n    tag_217:\n        /* \"@openzeppelin/contracts/access/Ownable.sol\":2543:2758  function transferOwnership(address newOwner) public virtual onlyOwner {... */\n      pop\n      jump\t// out\n        /* \"module-3/ERC1155token.sol\":1289:1503  function burn(address from, uint256 id, uint256 amount) public {... */\n    tag_124:\n        /* \"module-3/ERC1155token.sol\":1370:1380  msg.sender */\n      caller\n      sub(shl(0xa0, 0x01), 0x01)\n        /* \"module-3/ERC1155token.sol\":1370:1388  msg.sender == from */\n      dup5\n      and\n      eq\n      dup1\n        /* \"module-3/ERC1155token.sol\":1370:1426  msg.sender == from || isApprovedForAll(from, msg.sender) */\n      tag_220\n      jumpi\n      pop\n      sub(shl(0xa0, 0x01), 0x01)\n        /* \"@openzeppelin/contracts/token/ERC1155/ERC1155.sol\":3480:3507  _operatorApprovals[account] */\n      dup4\n      and\n        /* \"@openzeppelin/contracts/token/ERC1155/ERC1155.sol\":3457:3461  bool */\n      0x00\n        /* \"@openzeppelin/contracts/token/ERC1155/ERC1155.sol\":3480:3507  _operatorApprovals[account] */\n      swap1\n      dup2\n      mstore\n        /* \"@openzeppelin/contracts/token/ERC1155/ERC1155.sol\":3480:3498  _operatorApprovals */\n      0x01\n        /* \"@openzeppelin/contracts/token/ERC1155/ERC1155.sol\":3480:3507  _operatorApprovals[account] */\n      0x20\n      swap1\n      dup2\n      mstore\n      0x40\n      dup1\n      dup4\n      keccak256\n        /* \"module-3/ERC1155token.sol\":1415:1425  msg.sender */\n      caller\n        /* \"@openzeppelin/contracts/token/ERC1155/ERC1155.sol\":3480:3517  _operatorApprovals[account][operator] */\n      dup5\n      mstore\n      swap1\n      swap2\n      mstore\n      swap1\n      keccak256\n      sload\n      0xff\n      and\n        /* \"module-3/ERC1155token.sol\":1392:1426  isApprovedForAll(from, msg.sender) */\n    tag_220:\n        /* \"module-3/ERC1155token.sol\":1362:1463  require(msg.sender == from || isApprovedForAll(from, msg.sender), \"Caller is not owner nor approved\") */\n      tag_221\n      jumpi\n      mload(0x40)\n      shl(0xe5, 0x461bcd)\n      dup2\n      mstore\n        /* \"#utility.yul\":13120:13122   */\n      0x20\n        /* \"module-3/ERC1155token.sol\":1362:1463  require(msg.sender == from || isApprovedForAll(from, msg.sender), \"Caller is not owner nor approved\") */\n      0x04\n      dup3\n      add\n        /* \"#utility.yul\":13102:13123   */\n      dup2\n      swap1\n      mstore\n        /* \"#utility.yul\":13139:13157   */\n      0x24\n      dup3\n      add\n        /* \"#utility.yul\":13132:13162   */\n      mstore\n        /* \"#utility.yul\":13198:13232   */\n      0x43616c6c6572206973206e6f74206f776e6572206e6f7220617070726f766564\n        /* \"#utility.yul\":13178:13196   */\n      0x44\n      dup3\n      add\n        /* \"#utility.yul\":13171:13233   */\n      mstore\n        /* \"#utility.yul\":13250:13268   */\n      0x64\n      add\n        /* \"module-3/ERC1155token.sol\":1362:1463  require(msg.sender == from || isApprovedForAll(from, msg.sender), \"Caller is not owner nor approved\") */\n      tag_141\n        /* \"#utility.yul\":12918:13274   */\n      jump\n        /* \"module-3/ERC1155token.sol\":1362:1463  require(msg.sender == from || isApprovedForAll(from, msg.sender), \"Caller is not owner nor approved\") */\n    tag_221:\n        /* \"module-3/ERC1155token.sol\":1473:1496  _burn(from, id, amount) */\n      tag_191\n        /* \"module-3/ERC1155token.sol\":1479:1483  from */\n      dup4\n        /* \"module-3/ERC1155token.sol\":1485:1487  id */\n      dup4\n        /* \"module-3/ERC1155token.sol\":1489:1495  amount */\n      dup4\n        /* \"module-3/ERC1155token.sol\":1473:1478  _burn */\n      tag_224\n        /* \"module-3/ERC1155token.sol\":1473:1496  _burn(from, id, amount) */\n      jump\t// in\n        /* \"@openzeppelin/contracts/token/ERC1155/ERC1155.sol\":2084:2187  function uri(uint256 /* id */) public view virtual returns (string memory) {... */\n    tag_133:\n        /* \"@openzeppelin/contracts/token/ERC1155/ERC1155.sol\":2144:2157  string memory */\n      0x60\n        /* \"@openzeppelin/contracts/token/ERC1155/ERC1155.sol\":2176:2180  _uri */\n      0x02\n        /* \"@openzeppelin/contracts/token/ERC1155/ERC1155.sol\":2169:2180  return _uri */\n      dup1\n      sload\n      tag_227\n      swap1\n      tag_228\n      jump\t// in\n    tag_227:\n      dup1\n      0x1f\n      add\n      0x20\n      dup1\n      swap2\n      div\n      mul\n      0x20\n      add\n      mload(0x40)\n      swap1\n      dup2\n      add\n      0x40\n      mstore\n      dup1\n      swap3\n      swap2\n      swap1\n      dup2\n      dup2\n      mstore\n      0x20\n      add\n      dup3\n      dup1\n      sload\n      tag_229\n      swap1\n      tag_228\n      jump\t// in\n    tag_229:\n      dup1\n      iszero\n      tag_230\n      jumpi\n      dup1\n      0x1f\n      lt\n      tag_231\n      jumpi\n      0x0100\n      dup1\n      dup4\n      sload\n      div\n      mul\n      dup4\n      mstore\n      swap2\n      0x20\n      add\n      swap2\n      jump(tag_230)\n    tag_231:\n      dup3\n      add\n      swap2\n      swap1\n      0x00\n      mstore\n      keccak256(0x00, 0x20)\n      swap1\n    tag_232:\n      dup2\n      sload\n      dup2\n      mstore\n      swap1\n      0x01\n      add\n      swap1\n      0x20\n      add\n      dup1\n      dup4\n      gt\n      tag_232\n      jumpi\n      dup3\n      swap1\n      sub\n      0x1f\n      and\n      dup3\n      add\n      swap2\n    tag_230:\n      pop\n      pop\n      pop\n      pop\n      pop\n      swap1\n      pop\n        /* \"@openzeppelin/contracts/token/ERC1155/ERC1155.sol\":2084:2187  function uri(uint256 /* id */) public view virtual returns (string memory) {... */\n      swap2\n      swap1\n      pop\n      jump\t// out\n        /* \"@openzeppelin/contracts/utils/Strings.sol\":637:1335  function toString(uint256 value) internal pure returns (string memory) {... */\n    tag_135:\n        /* \"@openzeppelin/contracts/utils/Strings.sol\":693:706  string memory */\n      0x60\n        /* \"@openzeppelin/contracts/utils/Strings.sol\":742:756  uint256 length */\n      0x00\n        /* \"@openzeppelin/contracts/utils/Strings.sol\":759:776  Math.log10(value) */\n      tag_234\n        /* \"@openzeppelin/contracts/utils/Strings.sol\":770:775  value */\n      dup4\n        /* \"@openzeppelin/contracts/utils/Strings.sol\":759:769  Math.log10 */\n      tag_235\n        /* \"@openzeppelin/contracts/utils/Strings.sol\":759:776  Math.log10(value) */\n      jump\t// in\n    tag_234:\n        /* \"@openzeppelin/contracts/utils/Strings.sol\":779:780  1 */\n      0x01\n        /* \"@openzeppelin/contracts/utils/Strings.sol\":759:780  Math.log10(value) + 1 */\n      add\n        /* \"@openzeppelin/contracts/utils/Strings.sol\":742:780  uint256 length = Math.log10(value) + 1 */\n      swap1\n      pop\n        /* \"@openzeppelin/contracts/utils/Strings.sol\":794:814  string memory buffer */\n      0x00\n        /* \"@openzeppelin/contracts/utils/Strings.sol\":828:834  length */\n      dup2\n        /* \"@openzeppelin/contracts/utils/Strings.sol\":817:835  new string(length) */\n      0xffffffffffffffff\n      dup2\n      gt\n      iszero\n      tag_237\n      jumpi\n      tag_237\n      tag_172\n      jump\t// in\n    tag_237:\n      mload(0x40)\n      swap1\n      dup1\n      dup3\n      mstore\n      dup1\n      0x1f\n      add\n      not(0x1f)\n      and\n      0x20\n      add\n      dup3\n      add\n      0x40\n      mstore\n      dup1\n      iszero\n      tag_238\n      jumpi\n      0x20\n      dup3\n      add\n      dup2\n      dup1\n      calldatasize\n      dup4\n      calldatacopy\n      add\n      swap1\n      pop\n    tag_238:\n      pop\n        /* \"@openzeppelin/contracts/utils/Strings.sol\":794:835  string memory buffer = new string(length) */\n      swap1\n      pop\n        /* \"@openzeppelin/contracts/utils/Strings.sol\":955:983  add(buffer, add(32, length)) */\n      dup2\n      dup2\n      add\n        /* \"@openzeppelin/contracts/utils/Strings.sol\":971:973  32 */\n      0x20\n        /* \"@openzeppelin/contracts/utils/Strings.sol\":955:983  add(buffer, add(32, length)) */\n      add\n        /* \"@openzeppelin/contracts/utils/Strings.sol\":1010:1292  while (true) {... */\n    tag_239:\n      not(0x00)\n        /* \"@openzeppelin/contracts/utils/Strings.sol\":1041:1046  ptr-- */\n      add\n        /* \"@openzeppelin/contracts/utils/Strings.sol\":1180:1190  HEX_DIGITS */\n      0x3031323334353637383961626364656600000000000000000000000000000000\n        /* \"@openzeppelin/contracts/utils/Strings.sol\":1175:1177  10 */\n      0x0a\n        /* \"@openzeppelin/contracts/utils/Strings.sol\":1164:1178  mod(value, 10) */\n      dup7\n      mod\n        /* \"@openzeppelin/contracts/utils/Strings.sol\":1159:1191  byte(mod(value, 10), HEX_DIGITS) */\n      byte\n        /* \"@openzeppelin/contracts/utils/Strings.sol\":1041:1046  ptr-- */\n      dup2\n        /* \"@openzeppelin/contracts/utils/Strings.sol\":1146:1192  mstore8(ptr, byte(mod(value, 10), HEX_DIGITS)) */\n      mstore8\n        /* \"@openzeppelin/contracts/utils/Strings.sol\":1236:1238  10 */\n      0x0a\n        /* \"@openzeppelin/contracts/utils/Strings.sol\":1227:1238  value /= 10 */\n      dup6\n      div\n      swap5\n      pop\n        /* \"@openzeppelin/contracts/utils/Strings.sol\":1256:1277  if (value == 0) break */\n      dup5\n        /* \"@openzeppelin/contracts/utils/Strings.sol\":1010:1292  while (true) {... */\n      tag_239\n        /* \"@openzeppelin/contracts/utils/Strings.sol\":1256:1277  if (value == 0) break */\n      jumpi\n      pop\n        /* \"@openzeppelin/contracts/utils/Strings.sol\":1312:1318  buffer */\n      swap4\n        /* \"@openzeppelin/contracts/utils/Strings.sol\":637:1335  function toString(uint256 value) internal pure returns (string memory) {... */\n      swap3\n      pop\n      pop\n      pop\n      jump\t// out\n        /* \"@openzeppelin/contracts/token/ERC1155/ERC1155.sol\":10746:11092  function _mint(address to, uint256 id, uint256 value, bytes memory data) internal {... */\n    tag_149:\n      sub(shl(0xa0, 0x01), 0x01)\n        /* \"@openzeppelin/contracts/token/ERC1155/ERC1155.sol\":10842:10858  to == address(0) */\n      dup5\n      and\n        /* \"@openzeppelin/contracts/token/ERC1155/ERC1155.sol\":10838:10926  if (to == address(0)) {... */\n      tag_246\n      jumpi\n        /* \"@openzeppelin/contracts/token/ERC1155/ERC1155.sol\":10881:10915  ERC1155InvalidReceiver(address(0)) */\n      mload(0x40)\n      shl(0xe1, 0x2bfa23e7)\n      dup2\n      mstore\n        /* \"@openzeppelin/contracts/token/ERC1155/ERC1155.sol\":10912:10913  0 */\n      0x00\n        /* \"@openzeppelin/contracts/token/ERC1155/ERC1155.sol\":10881:10915  ERC1155InvalidReceiver(address(0)) */\n      0x04\n      dup3\n      add\n        /* \"#utility.yul\":8841:8915   */\n      mstore\n        /* \"#utility.yul\":8814:8832   */\n      0x24\n      add\n        /* \"@openzeppelin/contracts/token/ERC1155/ERC1155.sol\":10881:10915  ERC1155InvalidReceiver(address(0)) */\n      tag_141\n        /* \"#utility.yul\":8695:8921   */\n      jump\n        /* \"@openzeppelin/contracts/token/ERC1155/ERC1155.sol\":10838:10926  if (to == address(0)) {... */\n    tag_246:\n        /* \"@openzeppelin/contracts/token/ERC1155/ERC1155.sol\":16374:16378  0x40 */\n      0x40\n        /* \"@openzeppelin/contracts/token/ERC1155/ERC1155.sol\":16368:16379  mload(0x40) */\n      dup1\n      mload\n        /* \"@openzeppelin/contracts/token/ERC1155/ERC1155.sol\":16444:16445  1 */\n      0x01\n        /* \"@openzeppelin/contracts/token/ERC1155/ERC1155.sol\":16429:16446  mstore(array1, 1) */\n      dup1\n      dup3\n      mstore\n        /* \"@openzeppelin/contracts/token/ERC1155/ERC1155.sol\":16575:16579  0x20 */\n      0x20\n        /* \"@openzeppelin/contracts/token/ERC1155/ERC1155.sol\":16563:16580  add(array1, 0x20) */\n      dup3\n      add\n        /* \"@openzeppelin/contracts/token/ERC1155/ERC1155.sol\":16556:16591  mstore(add(array1, 0x20), element1) */\n      dup7\n      swap1\n      mstore\n        /* \"@openzeppelin/contracts/token/ERC1155/ERC1155.sol\":16692:16709  add(array1, 0x40) */\n      dup2\n      dup4\n      add\n        /* \"@openzeppelin/contracts/token/ERC1155/ERC1155.sol\":16722:16739  mstore(array2, 1) */\n      swap1\n      dup2\n      mstore\n        /* \"@openzeppelin/contracts/token/ERC1155/ERC1155.sol\":16188:16211  uint256[] memory array1 */\n      0x60\n        /* \"@openzeppelin/contracts/token/ERC1155/ERC1155.sol\":16759:16776  add(array2, 0x20) */\n      dup3\n      add\n        /* \"@openzeppelin/contracts/token/ERC1155/ERC1155.sol\":16752:16787  mstore(add(array2, 0x20), element2) */\n      dup6\n      swap1\n      mstore\n        /* \"@openzeppelin/contracts/token/ERC1155/ERC1155.sol\":16895:16912  add(array2, 0x40) */\n      0x80\n      dup3\n      add\n        /* \"@openzeppelin/contracts/token/ERC1155/ERC1155.sol\":16882:16913  mstore(0x40, add(array2, 0x40)) */\n      swap1\n      swap3\n      mstore\n        /* \"@openzeppelin/contracts/token/ERC1155/ERC1155.sol\":16368:16379  mload(0x40) */\n      swap1\n        /* \"@openzeppelin/contracts/token/ERC1155/ERC1155.sol\":11024:11085  _updateWithAcceptanceCheck(address(0), to, ids, values, data) */\n      tag_164\n      0x00\n        /* \"@openzeppelin/contracts/token/ERC1155/ERC1155.sol\":11063:11065  to */\n      dup8\n        /* \"@openzeppelin/contracts/token/ERC1155/ERC1155.sol\":16368:16379  mload(0x40) */\n      dup5\n        /* \"@openzeppelin/contracts/token/ERC1155/ERC1155.sol\":16692:16709  add(array1, 0x40) */\n      dup5\n        /* \"@openzeppelin/contracts/token/ERC1155/ERC1155.sol\":11080:11084  data */\n      dup8\n        /* \"@openzeppelin/contracts/token/ERC1155/ERC1155.sol\":11024:11050  _updateWithAcceptanceCheck */\n      tag_251\n        /* \"@openzeppelin/contracts/token/ERC1155/ERC1155.sol\":11024:11085  _updateWithAcceptanceCheck(address(0), to, ids, values, data) */\n      jump\t// in\n        /* \"@openzeppelin/contracts/access/Ownable.sol\":1796:1958  function _checkOwner() internal view virtual {... */\n    tag_152:\n        /* \"@openzeppelin/contracts/access/Ownable.sol\":1710:1716  _owner */\n      and(sub(shl(0xa0, 0x01), 0x01), sload(0x03))\n        /* \"@openzeppelin/contracts/utils/Context.sol\":735:745  msg.sender */\n      caller\n        /* \"@openzeppelin/contracts/access/Ownable.sol\":1855:1878  owner() != _msgSender() */\n      eq\n        /* \"@openzeppelin/contracts/access/Ownable.sol\":1851:1952  if (owner() != _msgSender()) {... */\n      tag_196\n      jumpi\n        /* \"@openzeppelin/contracts/access/Ownable.sol\":1901:1941  OwnableUnauthorizedAccount(_msgSender()) */\n      mload(0x40)\n      0x118cdaa700000000000000000000000000000000000000000000000000000000\n      dup2\n      mstore\n        /* \"@openzeppelin/contracts/utils/Context.sol\":735:745  msg.sender */\n      caller\n        /* \"@openzeppelin/contracts/access/Ownable.sol\":1901:1941  OwnableUnauthorizedAccount(_msgSender()) */\n      0x04\n      dup3\n      add\n        /* \"#utility.yul\":8841:8915   */\n      mstore\n        /* \"#utility.yul\":8814:8832   */\n      0x24\n      add\n        /* \"@openzeppelin/contracts/access/Ownable.sol\":1901:1941  OwnableUnauthorizedAccount(_msgSender()) */\n      tag_141\n        /* \"#utility.yul\":8695:8921   */\n      jump\n        /* \"@openzeppelin/contracts/token/ERC1155/ERC1155.sol\":11523:11805  function _mintBatch(address to, uint256[] memory ids, uint256[] memory values, bytes memory data) internal {... */\n    tag_155:\n      sub(shl(0xa0, 0x01), 0x01)\n        /* \"@openzeppelin/contracts/token/ERC1155/ERC1155.sol\":11644:11660  to == address(0) */\n      dup5\n      and\n        /* \"@openzeppelin/contracts/token/ERC1155/ERC1155.sol\":11640:11728  if (to == address(0)) {... */\n      tag_259\n      jumpi\n        /* \"@openzeppelin/contracts/token/ERC1155/ERC1155.sol\":11683:11717  ERC1155InvalidReceiver(address(0)) */\n      mload(0x40)\n      shl(0xe1, 0x2bfa23e7)\n      dup2\n      mstore\n        /* \"@openzeppelin/contracts/token/ERC1155/ERC1155.sol\":11714:11715  0 */\n      0x00\n        /* \"@openzeppelin/contracts/token/ERC1155/ERC1155.sol\":11683:11717  ERC1155InvalidReceiver(address(0)) */\n      0x04\n      dup3\n      add\n        /* \"#utility.yul\":8841:8915   */\n      mstore\n        /* \"#utility.yul\":8814:8832   */\n      0x24\n      add\n        /* \"@openzeppelin/contracts/token/ERC1155/ERC1155.sol\":11683:11717  ERC1155InvalidReceiver(address(0)) */\n      tag_141\n        /* \"#utility.yul\":8695:8921   */\n      jump\n        /* \"@openzeppelin/contracts/token/ERC1155/ERC1155.sol\":11640:11728  if (to == address(0)) {... */\n    tag_259:\n        /* \"@openzeppelin/contracts/token/ERC1155/ERC1155.sol\":11737:11798  _updateWithAcceptanceCheck(address(0), to, ids, values, data) */\n      tag_154\n        /* \"@openzeppelin/contracts/token/ERC1155/ERC1155.sol\":11772:11773  0 */\n      0x00\n        /* \"@openzeppelin/contracts/token/ERC1155/ERC1155.sol\":11776:11778  to */\n      dup6\n        /* \"@openzeppelin/contracts/token/ERC1155/ERC1155.sol\":11780:11783  ids */\n      dup6\n        /* \"@openzeppelin/contracts/token/ERC1155/ERC1155.sol\":11785:11791  values */\n      dup6\n        /* \"@openzeppelin/contracts/token/ERC1155/ERC1155.sol\":11793:11797  data */\n      dup6\n        /* \"@openzeppelin/contracts/token/ERC1155/ERC1155.sol\":11737:11763  _updateWithAcceptanceCheck */\n      tag_251\n        /* \"@openzeppelin/contracts/token/ERC1155/ERC1155.sol\":11737:11798  _updateWithAcceptanceCheck(address(0), to, ids, values, data) */\n      jump\t// in\n        /* \"@openzeppelin/contracts/token/ERC1155/ERC1155.sol\":9015:9460  function _safeBatchTransferFrom(... */\n    tag_165:\n      sub(shl(0xa0, 0x01), 0x01)\n        /* \"@openzeppelin/contracts/token/ERC1155/ERC1155.sol\":9208:9224  to == address(0) */\n      dup5\n      and\n        /* \"@openzeppelin/contracts/token/ERC1155/ERC1155.sol\":9204:9292  if (to == address(0)) {... */\n      tag_264\n      jumpi\n        /* \"@openzeppelin/contracts/token/ERC1155/ERC1155.sol\":9247:9281  ERC1155InvalidReceiver(address(0)) */\n      mload(0x40)\n      shl(0xe1, 0x2bfa23e7)\n      dup2\n      mstore\n        /* \"@openzeppelin/contracts/token/ERC1155/ERC1155.sol\":9278:9279  0 */\n      0x00\n        /* \"@openzeppelin/contracts/token/ERC1155/ERC1155.sol\":9247:9281  ERC1155InvalidReceiver(address(0)) */\n      0x04\n      dup3\n      add\n        /* \"#utility.yul\":8841:8915   */\n      mstore\n        /* \"#utility.yul\":8814:8832   */\n      0x24\n      add\n        /* \"@openzeppelin/contracts/token/ERC1155/ERC1155.sol\":9247:9281  ERC1155InvalidReceiver(address(0)) */\n      tag_141\n        /* \"#utility.yul\":8695:8921   */\n      jump\n        /* \"@openzeppelin/contracts/token/ERC1155/ERC1155.sol\":9204:9292  if (to == address(0)) {... */\n    tag_264:\n      sub(shl(0xa0, 0x01), 0x01)\n        /* \"@openzeppelin/contracts/token/ERC1155/ERC1155.sol\":9305:9323  from == address(0) */\n      dup6\n      and\n        /* \"@openzeppelin/contracts/token/ERC1155/ERC1155.sol\":9301:9389  if (from == address(0)) {... */\n      tag_266\n      jumpi\n        /* \"@openzeppelin/contracts/token/ERC1155/ERC1155.sol\":9346:9378  ERC1155InvalidSender(address(0)) */\n      mload(0x40)\n      shl(0xe2, 0x6a0d45)\n      dup2\n      mstore\n        /* \"@openzeppelin/contracts/token/ERC1155/ERC1155.sol\":9375:9376  0 */\n      0x00\n        /* \"@openzeppelin/contracts/token/ERC1155/ERC1155.sol\":9346:9378  ERC1155InvalidSender(address(0)) */\n      0x04\n      dup3\n      add\n        /* \"#utility.yul\":8841:8915   */\n      mstore\n        /* \"#utility.yul\":8814:8832   */\n      0x24\n      add\n        /* \"@openzeppelin/contracts/token/ERC1155/ERC1155.sol\":9346:9378  ERC1155InvalidSender(address(0)) */\n      tag_141\n        /* \"#utility.yul\":8695:8921   */\n      jump\n        /* \"@openzeppelin/contracts/token/ERC1155/ERC1155.sol\":9301:9389  if (from == address(0)) {... */\n    tag_266:\n        /* \"@openzeppelin/contracts/token/ERC1155/ERC1155.sol\":9398:9453  _updateWithAcceptanceCheck(from, to, ids, values, data) */\n      tag_268\n        /* \"@openzeppelin/contracts/token/ERC1155/ERC1155.sol\":9425:9429  from */\n      dup6\n        /* \"@openzeppelin/contracts/token/ERC1155/ERC1155.sol\":9431:9433  to */\n      dup6\n        /* \"@openzeppelin/contracts/token/ERC1155/ERC1155.sol\":9435:9438  ids */\n      dup6\n        /* \"@openzeppelin/contracts/token/ERC1155/ERC1155.sol\":9440:9446  values */\n      dup6\n        /* \"@openzeppelin/contracts/token/ERC1155/ERC1155.sol\":9448:9452  data */\n      dup6\n        /* \"@openzeppelin/contracts/token/ERC1155/ERC1155.sol\":9398:9424  _updateWithAcceptanceCheck */\n      tag_251\n        /* \"@openzeppelin/contracts/token/ERC1155/ERC1155.sol\":9398:9453  _updateWithAcceptanceCheck(from, to, ids, values, data) */\n      jump\t// in\n    tag_268:\n        /* \"@openzeppelin/contracts/token/ERC1155/ERC1155.sol\":9015:9460  function _safeBatchTransferFrom(... */\n      pop\n      pop\n      pop\n      pop\n      pop\n      jump\t// out\n        /* \"@openzeppelin/contracts/token/ERC1155/ERC1155.sol\":12784:13049  function _burnBatch(address from, uint256[] memory ids, uint256[] memory values) internal {... */\n    tag_192:\n      sub(shl(0xa0, 0x01), 0x01)\n        /* \"@openzeppelin/contracts/token/ERC1155/ERC1155.sol\":12888:12906  from == address(0) */\n      dup4\n      and\n        /* \"@openzeppelin/contracts/token/ERC1155/ERC1155.sol\":12884:12972  if (from == address(0)) {... */\n      tag_272\n      jumpi\n        /* \"@openzeppelin/contracts/token/ERC1155/ERC1155.sol\":12929:12961  ERC1155InvalidSender(address(0)) */\n      mload(0x40)\n      shl(0xe2, 0x6a0d45)\n      dup2\n      mstore\n        /* \"@openzeppelin/contracts/token/ERC1155/ERC1155.sol\":12958:12959  0 */\n      0x00\n        /* \"@openzeppelin/contracts/token/ERC1155/ERC1155.sol\":12929:12961  ERC1155InvalidSender(address(0)) */\n      0x04\n      dup3\n      add\n        /* \"#utility.yul\":8841:8915   */\n      mstore\n        /* \"#utility.yul\":8814:8832   */\n      0x24\n      add\n        /* \"@openzeppelin/contracts/token/ERC1155/ERC1155.sol\":12929:12961  ERC1155InvalidSender(address(0)) */\n      tag_141\n        /* \"#utility.yul\":8695:8921   */\n      jump\n        /* \"@openzeppelin/contracts/token/ERC1155/ERC1155.sol\":12884:12972  if (from == address(0)) {... */\n    tag_272:\n        /* \"@openzeppelin/contracts/token/ERC1155/ERC1155.sol\":12981:13042  _updateWithAcceptanceCheck(from, address(0), ids, values, \"\") */\n      tag_191\n        /* \"@openzeppelin/contracts/token/ERC1155/ERC1155.sol\":13008:13012  from */\n      dup4\n        /* \"@openzeppelin/contracts/token/ERC1155/ERC1155.sol\":13022:13023  0 */\n      0x00\n        /* \"@openzeppelin/contracts/token/ERC1155/ERC1155.sol\":13026:13029  ids */\n      dup5\n        /* \"@openzeppelin/contracts/token/ERC1155/ERC1155.sol\":13031:13037  values */\n      dup5\n        /* \"@openzeppelin/contracts/token/ERC1155/ERC1155.sol\":12981:13042  _updateWithAcceptanceCheck(from, address(0), ids, values, \"\") */\n      mload(0x40)\n      dup1\n      0x20\n      add\n      0x40\n      mstore\n      dup1\n      0x00\n      dup2\n      mstore\n      pop\n        /* \"@openzeppelin/contracts/token/ERC1155/ERC1155.sol\":12981:13007  _updateWithAcceptanceCheck */\n      tag_251\n        /* \"@openzeppelin/contracts/token/ERC1155/ERC1155.sol\":12981:13042  _updateWithAcceptanceCheck(from, address(0), ids, values, \"\") */\n      jump\t// in\n        /* \"@openzeppelin/contracts/access/Ownable.sol\":2912:3099  function _transferOwnership(address newOwner) internal virtual {... */\n    tag_197:\n        /* \"@openzeppelin/contracts/access/Ownable.sol\":3004:3010  _owner */\n      0x03\n      dup1\n      sload\n      sub(shl(0xa0, 0x01), 0x01)\n        /* \"@openzeppelin/contracts/access/Ownable.sol\":3020:3037  _owner = newOwner */\n      dup4\n      dup2\n      and\n      0xffffffffffffffffffffffff0000000000000000000000000000000000000000\n      dup4\n      and\n      dup2\n      or\n      swap1\n      swap4\n      sstore\n        /* \"@openzeppelin/contracts/access/Ownable.sol\":3052:3092  OwnershipTransferred(oldOwner, newOwner) */\n      mload(0x40)\n        /* \"@openzeppelin/contracts/access/Ownable.sol\":3004:3010  _owner */\n      swap2\n      and\n      swap2\n        /* \"@openzeppelin/contracts/access/Ownable.sol\":3020:3037  _owner = newOwner */\n      swap1\n        /* \"@openzeppelin/contracts/access/Ownable.sol\":3004:3010  _owner */\n      dup3\n      swap1\n        /* \"@openzeppelin/contracts/access/Ownable.sol\":3052:3092  OwnershipTransferred(oldOwner, newOwner) */\n      0x8be0079c531659141344cd1fd0a4f28419497f9722a3daafe3b4186f6b6457e0\n      swap1\n        /* \"@openzeppelin/contracts/access/Ownable.sol\":2985:3001  address oldOwner */\n      0x00\n      swap1\n        /* \"@openzeppelin/contracts/access/Ownable.sol\":3052:3092  OwnershipTransferred(oldOwner, newOwner) */\n      log3\n        /* \"@openzeppelin/contracts/access/Ownable.sol\":2975:3099  {... */\n      pop\n        /* \"@openzeppelin/contracts/access/Ownable.sol\":2912:3099  function _transferOwnership(address newOwner) internal virtual {... */\n      pop\n      jump\t// out\n        /* \"@openzeppelin/contracts/token/ERC1155/ERC1155.sol\":13268:13583  function _setApprovalForAll(address owner, address operator, bool approved) internal virtual {... */\n    tag_202:\n      sub(shl(0xa0, 0x01), 0x01)\n        /* \"@openzeppelin/contracts/token/ERC1155/ERC1155.sol\":13375:13397  operator == address(0) */\n      dup3\n      and\n        /* \"@openzeppelin/contracts/token/ERC1155/ERC1155.sol\":13371:13465  if (operator == address(0)) {... */\n      tag_277\n      jumpi\n        /* \"@openzeppelin/contracts/token/ERC1155/ERC1155.sol\":13420:13454  ERC1155InvalidOperator(address(0)) */\n      mload(0x40)\n      0xced3e10000000000000000000000000000000000000000000000000000000000\n      dup2\n      mstore\n        /* \"@openzeppelin/contracts/token/ERC1155/ERC1155.sol\":13451:13452  0 */\n      0x00\n        /* \"@openzeppelin/contracts/token/ERC1155/ERC1155.sol\":13420:13454  ERC1155InvalidOperator(address(0)) */\n      0x04\n      dup3\n      add\n        /* \"#utility.yul\":8841:8915   */\n      mstore\n        /* \"#utility.yul\":8814:8832   */\n      0x24\n      add\n        /* \"@openzeppelin/contracts/token/ERC1155/ERC1155.sol\":13420:13454  ERC1155InvalidOperator(address(0)) */\n      tag_141\n        /* \"#utility.yul\":8695:8921   */\n      jump\n        /* \"@openzeppelin/contracts/token/ERC1155/ERC1155.sol\":13371:13465  if (operator == address(0)) {... */\n    tag_277:\n      sub(shl(0xa0, 0x01), 0x01)\n        /* \"@openzeppelin/contracts/token/ERC1155/ERC1155.sol\":13474:13499  _operatorApprovals[owner] */\n      dup4\n      dup2\n      and\n      0x00\n      dup2\n      dup2\n      mstore\n        /* \"@openzeppelin/contracts/token/ERC1155/ERC1155.sol\":13474:13492  _operatorApprovals */\n      0x01\n        /* \"@openzeppelin/contracts/token/ERC1155/ERC1155.sol\":13474:13499  _operatorApprovals[owner] */\n      0x20\n      swap1\n      dup2\n      mstore\n      0x40\n      dup1\n      dup4\n      keccak256\n        /* \"@openzeppelin/contracts/token/ERC1155/ERC1155.sol\":13474:13509  _operatorApprovals[owner][operator] */\n      swap5\n      dup8\n      and\n      dup1\n      dup5\n      mstore\n      swap5\n      dup3\n      mstore\n      swap2\n      dup3\n      swap1\n      keccak256\n        /* \"@openzeppelin/contracts/token/ERC1155/ERC1155.sol\":13474:13520  _operatorApprovals[owner][operator] = approved */\n      dup1\n      sload\n      not(0xff)\n      and\n      dup7\n      iszero\n      iszero\n      swap1\n      dup2\n      or\n      swap1\n      swap2\n      sstore\n        /* \"@openzeppelin/contracts/token/ERC1155/ERC1155.sol\":13535:13576  ApprovalForAll(owner, operator, approved) */\n      swap2\n      mload\n        /* \"#utility.yul\":1228:1269   */\n      swap2\n      dup3\n      mstore\n        /* \"@openzeppelin/contracts/token/ERC1155/ERC1155.sol\":13535:13576  ApprovalForAll(owner, operator, approved) */\n      0x17307eab39ab6107e8899845ad3d59bd9653f200f220920489ca2b5937696c31\n      swap2\n        /* \"#utility.yul\":1201:1219   */\n      add\n        /* \"@openzeppelin/contracts/token/ERC1155/ERC1155.sol\":13535:13576  ApprovalForAll(owner, operator, approved) */\n      mload(0x40)\n      dup1\n      swap2\n      sub\n      swap1\n      log3\n        /* \"@openzeppelin/contracts/token/ERC1155/ERC1155.sol\":13268:13583  function _setApprovalForAll(address owner, address operator, bool approved) internal virtual {... */\n      pop\n      pop\n      pop\n      jump\t// out\n        /* \"@openzeppelin/contracts/token/ERC1155/ERC1155.sol\":8151:8614  function _safeTransferFrom(address from, address to, uint256 id, uint256 value, bytes memory data) internal {... */\n    tag_211:\n      sub(shl(0xa0, 0x01), 0x01)\n        /* \"@openzeppelin/contracts/token/ERC1155/ERC1155.sol\":8273:8289  to == address(0) */\n      dup5\n      and\n        /* \"@openzeppelin/contracts/token/ERC1155/ERC1155.sol\":8269:8357  if (to == address(0)) {... */\n      tag_281\n      jumpi\n        /* \"@openzeppelin/contracts/token/ERC1155/ERC1155.sol\":8312:8346  ERC1155InvalidReceiver(address(0)) */\n      mload(0x40)\n      shl(0xe1, 0x2bfa23e7)\n      dup2\n      mstore\n        /* \"@openzeppelin/contracts/token/ERC1155/ERC1155.sol\":8343:8344  0 */\n      0x00\n        /* \"@openzeppelin/contracts/token/ERC1155/ERC1155.sol\":8312:8346  ERC1155InvalidReceiver(address(0)) */\n      0x04\n      dup3\n      add\n        /* \"#utility.yul\":8841:8915   */\n      mstore\n        /* \"#utility.yul\":8814:8832   */\n      0x24\n      add\n        /* \"@openzeppelin/contracts/token/ERC1155/ERC1155.sol\":8312:8346  ERC1155InvalidReceiver(address(0)) */\n      tag_141\n        /* \"#utility.yul\":8695:8921   */\n      jump\n        /* \"@openzeppelin/contracts/token/ERC1155/ERC1155.sol\":8269:8357  if (to == address(0)) {... */\n    tag_281:\n      sub(shl(0xa0, 0x01), 0x01)\n        /* \"@openzeppelin/contracts/token/ERC1155/ERC1155.sol\":8370:8388  from == address(0) */\n      dup6\n      and\n        /* \"@openzeppelin/contracts/token/ERC1155/ERC1155.sol\":8366:8454  if (from == address(0)) {... */\n      tag_283\n      jumpi\n        /* \"@openzeppelin/contracts/token/ERC1155/ERC1155.sol\":8411:8443  ERC1155InvalidSender(address(0)) */\n      mload(0x40)\n      shl(0xe2, 0x6a0d45)\n      dup2\n      mstore\n        /* \"@openzeppelin/contracts/token/ERC1155/ERC1155.sol\":8440:8441  0 */\n      0x00\n        /* \"@openzeppelin/contracts/token/ERC1155/ERC1155.sol\":8411:8443  ERC1155InvalidSender(address(0)) */\n      0x04\n      dup3\n      add\n        /* \"#utility.yul\":8841:8915   */\n      mstore\n        /* \"#utility.yul\":8814:8832   */\n      0x24\n      add\n        /* \"@openzeppelin/contracts/token/ERC1155/ERC1155.sol\":8411:8443  ERC1155InvalidSender(address(0)) */\n      tag_141\n        /* \"#utility.yul\":8695:8921   */\n      jump\n        /* \"@openzeppelin/contracts/token/ERC1155/ERC1155.sol\":8366:8454  if (from == address(0)) {... */\n    tag_283:\n        /* \"@openzeppelin/contracts/token/ERC1155/ERC1155.sol\":16374:16378  0x40 */\n      0x40\n        /* \"@openzeppelin/contracts/token/ERC1155/ERC1155.sol\":16368:16379  mload(0x40) */\n      dup1\n      mload\n        /* \"@openzeppelin/contracts/token/ERC1155/ERC1155.sol\":16444:16445  1 */\n      0x01\n        /* \"@openzeppelin/contracts/token/ERC1155/ERC1155.sol\":16429:16446  mstore(array1, 1) */\n      dup1\n      dup3\n      mstore\n        /* \"@openzeppelin/contracts/token/ERC1155/ERC1155.sol\":16575:16579  0x20 */\n      0x20\n        /* \"@openzeppelin/contracts/token/ERC1155/ERC1155.sol\":16563:16580  add(array1, 0x20) */\n      dup3\n      add\n        /* \"@openzeppelin/contracts/token/ERC1155/ERC1155.sol\":16556:16591  mstore(add(array1, 0x20), element1) */\n      dup7\n      swap1\n      mstore\n        /* \"@openzeppelin/contracts/token/ERC1155/ERC1155.sol\":16692:16709  add(array1, 0x40) */\n      dup2\n      dup4\n      add\n        /* \"@openzeppelin/contracts/token/ERC1155/ERC1155.sol\":16722:16739  mstore(array2, 1) */\n      swap1\n      dup2\n      mstore\n        /* \"@openzeppelin/contracts/token/ERC1155/ERC1155.sol\":16188:16211  uint256[] memory array1 */\n      0x60\n        /* \"@openzeppelin/contracts/token/ERC1155/ERC1155.sol\":16759:16776  add(array2, 0x20) */\n      dup3\n      add\n        /* \"@openzeppelin/contracts/token/ERC1155/ERC1155.sol\":16752:16787  mstore(add(array2, 0x20), element2) */\n      dup6\n      swap1\n      mstore\n        /* \"@openzeppelin/contracts/token/ERC1155/ERC1155.sol\":16895:16912  add(array2, 0x40) */\n      0x80\n      dup3\n      add\n        /* \"@openzeppelin/contracts/token/ERC1155/ERC1155.sol\":16882:16913  mstore(0x40, add(array2, 0x40)) */\n      swap1\n      swap3\n      mstore\n        /* \"@openzeppelin/contracts/token/ERC1155/ERC1155.sol\":16368:16379  mload(0x40) */\n      swap1\n        /* \"@openzeppelin/contracts/token/ERC1155/ERC1155.sol\":8552:8607  _updateWithAcceptanceCheck(from, to, ids, values, data) */\n      tag_286\n        /* \"@openzeppelin/contracts/token/ERC1155/ERC1155.sol\":8579:8583  from */\n      dup8\n        /* \"@openzeppelin/contracts/token/ERC1155/ERC1155.sol\":8585:8587  to */\n      dup8\n        /* \"@openzeppelin/contracts/token/ERC1155/ERC1155.sol\":16368:16379  mload(0x40) */\n      dup5\n        /* \"@openzeppelin/contracts/token/ERC1155/ERC1155.sol\":16692:16709  add(array1, 0x40) */\n      dup5\n        /* \"@openzeppelin/contracts/token/ERC1155/ERC1155.sol\":8602:8606  data */\n      dup8\n        /* \"@openzeppelin/contracts/token/ERC1155/ERC1155.sol\":8552:8578  _updateWithAcceptanceCheck */\n      tag_251\n        /* \"@openzeppelin/contracts/token/ERC1155/ERC1155.sol\":8552:8607  _updateWithAcceptanceCheck(from, to, ids, values, data) */\n      jump\t// in\n    tag_286:\n        /* \"@openzeppelin/contracts/token/ERC1155/ERC1155.sol\":8259:8614  {... */\n      pop\n      pop\n        /* \"@openzeppelin/contracts/token/ERC1155/ERC1155.sol\":8151:8614  function _safeTransferFrom(address from, address to, uint256 id, uint256 value, bytes memory data) internal {... */\n      pop\n      pop\n      pop\n      pop\n      pop\n      jump\t// out\n        /* \"@openzeppelin/contracts/token/ERC1155/ERC1155.sol\":12099:12428  function _burn(address from, uint256 id, uint256 value) internal {... */\n    tag_224:\n      sub(shl(0xa0, 0x01), 0x01)\n        /* \"@openzeppelin/contracts/token/ERC1155/ERC1155.sol\":12178:12196  from == address(0) */\n      dup4\n      and\n        /* \"@openzeppelin/contracts/token/ERC1155/ERC1155.sol\":12174:12262  if (from == address(0)) {... */\n      tag_288\n      jumpi\n        /* \"@openzeppelin/contracts/token/ERC1155/ERC1155.sol\":12219:12251  ERC1155InvalidSender(address(0)) */\n      mload(0x40)\n      shl(0xe2, 0x6a0d45)\n      dup2\n      mstore\n        /* \"@openzeppelin/contracts/token/ERC1155/ERC1155.sol\":12248:12249  0 */\n      0x00\n        /* \"@openzeppelin/contracts/token/ERC1155/ERC1155.sol\":12219:12251  ERC1155InvalidSender(address(0)) */\n      0x04\n      dup3\n      add\n        /* \"#utility.yul\":8841:8915   */\n      mstore\n        /* \"#utility.yul\":8814:8832   */\n      0x24\n      add\n        /* \"@openzeppelin/contracts/token/ERC1155/ERC1155.sol\":12219:12251  ERC1155InvalidSender(address(0)) */\n      tag_141\n        /* \"#utility.yul\":8695:8921   */\n      jump\n        /* \"@openzeppelin/contracts/token/ERC1155/ERC1155.sol\":12174:12262  if (from == address(0)) {... */\n    tag_288:\n        /* \"@openzeppelin/contracts/token/ERC1155/ERC1155.sol\":16374:16378  0x40 */\n      0x40\n        /* \"@openzeppelin/contracts/token/ERC1155/ERC1155.sol\":16368:16379  mload(0x40) */\n      dup1\n      mload\n        /* \"@openzeppelin/contracts/token/ERC1155/ERC1155.sol\":16444:16445  1 */\n      0x01\n        /* \"@openzeppelin/contracts/token/ERC1155/ERC1155.sol\":16429:16446  mstore(array1, 1) */\n      dup1\n      dup3\n      mstore\n        /* \"@openzeppelin/contracts/token/ERC1155/ERC1155.sol\":16575:16579  0x20 */\n      0x20\n        /* \"@openzeppelin/contracts/token/ERC1155/ERC1155.sol\":16563:16580  add(array1, 0x20) */\n      dup3\n      add\n        /* \"@openzeppelin/contracts/token/ERC1155/ERC1155.sol\":16556:16591  mstore(add(array1, 0x20), element1) */\n      dup6\n      swap1\n      mstore\n        /* \"@openzeppelin/contracts/token/ERC1155/ERC1155.sol\":16692:16709  add(array1, 0x40) */\n      dup2\n      dup4\n      add\n        /* \"@openzeppelin/contracts/token/ERC1155/ERC1155.sol\":16722:16739  mstore(array2, 1) */\n      swap1\n      dup2\n      mstore\n        /* \"@openzeppelin/contracts/token/ERC1155/ERC1155.sol\":16188:16211  uint256[] memory array1 */\n      0x60\n        /* \"@openzeppelin/contracts/token/ERC1155/ERC1155.sol\":16759:16776  add(array2, 0x20) */\n      dup3\n      add\n        /* \"@openzeppelin/contracts/token/ERC1155/ERC1155.sol\":16752:16787  mstore(add(array2, 0x20), element2) */\n      dup5\n      swap1\n      mstore\n        /* \"@openzeppelin/contracts/token/ERC1155/ERC1155.sol\":12360:12421  _updateWithAcceptanceCheck(from, address(0), ids, values, \"\") */\n      0xa0\n      dup3\n      add\n      swap1\n      swap3\n      mstore\n      0x00\n        /* \"@openzeppelin/contracts/token/ERC1155/ERC1155.sol\":16895:16912  add(array2, 0x40) */\n      0x80\n      dup3\n      add\n        /* \"@openzeppelin/contracts/token/ERC1155/ERC1155.sol\":12360:12421  _updateWithAcceptanceCheck(from, address(0), ids, values, \"\") */\n      dup2\n      dup2\n      mstore\n        /* \"@openzeppelin/contracts/token/ERC1155/ERC1155.sol\":16368:16379  mload(0x40) */\n      swap2\n      swap3\n        /* \"@openzeppelin/contracts/token/ERC1155/ERC1155.sol\":16692:16709  add(array1, 0x40) */\n      swap2\n        /* \"@openzeppelin/contracts/token/ERC1155/ERC1155.sol\":12360:12421  _updateWithAcceptanceCheck(from, address(0), ids, values, \"\") */\n      tag_268\n      swap2\n        /* \"@openzeppelin/contracts/token/ERC1155/ERC1155.sol\":12387:12391  from */\n      dup8\n      swap2\n        /* \"@openzeppelin/contracts/token/ERC1155/ERC1155.sol\":16368:16379  mload(0x40) */\n      dup6\n      swap1\n        /* \"@openzeppelin/contracts/token/ERC1155/ERC1155.sol\":16692:16709  add(array1, 0x40) */\n      dup6\n      swap1\n        /* \"@openzeppelin/contracts/token/ERC1155/ERC1155.sol\":12360:12386  _updateWithAcceptanceCheck */\n      tag_251\n        /* \"@openzeppelin/contracts/token/ERC1155/ERC1155.sol\":12360:12421  _updateWithAcceptanceCheck(from, address(0), ids, values, \"\") */\n      jump\t// in\n        /* \"@openzeppelin/contracts/utils/math/Math.sol\":12214:13130  function log10(uint256 value) internal pure returns (uint256) {... */\n    tag_235:\n        /* \"@openzeppelin/contracts/utils/math/Math.sol\":12267:12274  uint256 */\n      0x00\n      dup1\n        /* \"@openzeppelin/contracts/utils/math/Math.sol\":12351:12359  10 ** 64 */\n      0x184f03e93ff9f4daa797ed6e38ed64bf6a1f010000000000000000\n        /* \"@openzeppelin/contracts/utils/math/Math.sol\":12342:12359  value >= 10 ** 64 */\n      dup4\n      lt\n        /* \"@openzeppelin/contracts/utils/math/Math.sol\":12338:12441  if (value >= 10 ** 64) {... */\n      tag_293\n      jumpi\n        /* \"@openzeppelin/contracts/utils/math/Math.sol\":12388:12396  10 ** 64 */\n      0x184f03e93ff9f4daa797ed6e38ed64bf6a1f010000000000000000\n        /* \"@openzeppelin/contracts/utils/math/Math.sol\":12379:12396  value /= 10 ** 64 */\n      dup4\n      div\n      swap3\n      pop\n        /* \"@openzeppelin/contracts/utils/math/Math.sol\":12424:12426  64 */\n      0x40\n        /* \"@openzeppelin/contracts/utils/math/Math.sol\":12414:12426  result += 64 */\n      add\n        /* \"@openzeppelin/contracts/utils/math/Math.sol\":12338:12441  if (value >= 10 ** 64) {... */\n    tag_293:\n        /* \"@openzeppelin/contracts/utils/math/Math.sol\":12467:12475  10 ** 32 */\n      0x04ee2d6d415b85acef8100000000\n        /* \"@openzeppelin/contracts/utils/math/Math.sol\":12458:12463  value */\n      dup4\n        /* \"@openzeppelin/contracts/utils/math/Math.sol\":12458:12475  value >= 10 ** 32 */\n      lt\n        /* \"@openzeppelin/contracts/utils/math/Math.sol\":12454:12557  if (value >= 10 ** 32) {... */\n      tag_296\n      jumpi\n        /* \"@openzeppelin/contracts/utils/math/Math.sol\":12504:12512  10 ** 32 */\n      0x04ee2d6d415b85acef8100000000\n        /* \"@openzeppelin/contracts/utils/math/Math.sol\":12495:12512  value /= 10 ** 32 */\n      dup4\n      div\n      swap3\n      pop\n        /* \"@openzeppelin/contracts/utils/math/Math.sol\":12540:12542  32 */\n      0x20\n        /* \"@openzeppelin/contracts/utils/math/Math.sol\":12530:12542  result += 32 */\n      add\n        /* \"@openzeppelin/contracts/utils/math/Math.sol\":12454:12557  if (value >= 10 ** 32) {... */\n    tag_296:\n        /* \"@openzeppelin/contracts/utils/math/Math.sol\":12583:12591  10 ** 16 */\n      0x2386f26fc10000\n        /* \"@openzeppelin/contracts/utils/math/Math.sol\":12574:12579  value */\n      dup4\n        /* \"@openzeppelin/contracts/utils/math/Math.sol\":12574:12591  value >= 10 ** 16 */\n      lt\n        /* \"@openzeppelin/contracts/utils/math/Math.sol\":12570:12673  if (value >= 10 ** 16) {... */\n      tag_299\n      jumpi\n        /* \"@openzeppelin/contracts/utils/math/Math.sol\":12620:12628  10 ** 16 */\n      0x2386f26fc10000\n        /* \"@openzeppelin/contracts/utils/math/Math.sol\":12611:12628  value /= 10 ** 16 */\n      dup4\n      div\n      swap3\n      pop\n        /* \"@openzeppelin/contracts/utils/math/Math.sol\":12656:12658  16 */\n      0x10\n        /* \"@openzeppelin/contracts/utils/math/Math.sol\":12646:12658  result += 16 */\n      add\n        /* \"@openzeppelin/contracts/utils/math/Math.sol\":12570:12673  if (value >= 10 ** 16) {... */\n    tag_299:\n        /* \"@openzeppelin/contracts/utils/math/Math.sol\":12699:12706  10 ** 8 */\n      0x05f5e100\n        /* \"@openzeppelin/contracts/utils/math/Math.sol\":12690:12695  value */\n      dup4\n        /* \"@openzeppelin/contracts/utils/math/Math.sol\":12690:12706  value >= 10 ** 8 */\n      lt\n        /* \"@openzeppelin/contracts/utils/math/Math.sol\":12686:12786  if (value >= 10 ** 8) {... */\n      tag_302\n      jumpi\n        /* \"@openzeppelin/contracts/utils/math/Math.sol\":12735:12742  10 ** 8 */\n      0x05f5e100\n        /* \"@openzeppelin/contracts/utils/math/Math.sol\":12726:12742  value /= 10 ** 8 */\n      dup4\n      div\n      swap3\n      pop\n        /* \"@openzeppelin/contracts/utils/math/Math.sol\":12770:12771  8 */\n      0x08\n        /* \"@openzeppelin/contracts/utils/math/Math.sol\":12760:12771  result += 8 */\n      add\n        /* \"@openzeppelin/contracts/utils/math/Math.sol\":12686:12786  if (value >= 10 ** 8) {... */\n    tag_302:\n        /* \"@openzeppelin/contracts/utils/math/Math.sol\":12812:12819  10 ** 4 */\n      0x2710\n        /* \"@openzeppelin/contracts/utils/math/Math.sol\":12803:12808  value */\n      dup4\n        /* \"@openzeppelin/contracts/utils/math/Math.sol\":12803:12819  value >= 10 ** 4 */\n      lt\n        /* \"@openzeppelin/contracts/utils/math/Math.sol\":12799:12899  if (value >= 10 ** 4) {... */\n      tag_305\n      jumpi\n        /* \"@openzeppelin/contracts/utils/math/Math.sol\":12848:12855  10 ** 4 */\n      0x2710\n        /* \"@openzeppelin/contracts/utils/math/Math.sol\":12839:12855  value /= 10 ** 4 */\n      dup4\n      div\n      swap3\n      pop\n        /* \"@openzeppelin/contracts/utils/math/Math.sol\":12883:12884  4 */\n      0x04\n        /* \"@openzeppelin/contracts/utils/math/Math.sol\":12873:12884  result += 4 */\n      add\n        /* \"@openzeppelin/contracts/utils/math/Math.sol\":12799:12899  if (value >= 10 ** 4) {... */\n    tag_305:\n        /* \"@openzeppelin/contracts/utils/math/Math.sol\":12925:12932  10 ** 2 */\n      0x64\n        /* \"@openzeppelin/contracts/utils/math/Math.sol\":12916:12921  value */\n      dup4\n        /* \"@openzeppelin/contracts/utils/math/Math.sol\":12916:12932  value >= 10 ** 2 */\n      lt\n        /* \"@openzeppelin/contracts/utils/math/Math.sol\":12912:13012  if (value >= 10 ** 2) {... */\n      tag_308\n      jumpi\n        /* \"@openzeppelin/contracts/utils/math/Math.sol\":12961:12968  10 ** 2 */\n      0x64\n        /* \"@openzeppelin/contracts/utils/math/Math.sol\":12952:12968  value /= 10 ** 2 */\n      dup4\n      div\n      swap3\n      pop\n        /* \"@openzeppelin/contracts/utils/math/Math.sol\":12996:12997  2 */\n      0x02\n        /* \"@openzeppelin/contracts/utils/math/Math.sol\":12986:12997  result += 2 */\n      add\n        /* \"@openzeppelin/contracts/utils/math/Math.sol\":12912:13012  if (value >= 10 ** 2) {... */\n    tag_308:\n        /* \"@openzeppelin/contracts/utils/math/Math.sol\":13038:13045  10 ** 1 */\n      0x0a\n        /* \"@openzeppelin/contracts/utils/math/Math.sol\":13029:13034  value */\n      dup4\n        /* \"@openzeppelin/contracts/utils/math/Math.sol\":13029:13045  value >= 10 ** 1 */\n      lt\n        /* \"@openzeppelin/contracts/utils/math/Math.sol\":13025:13091  if (value >= 10 ** 1) {... */\n      tag_125\n      jumpi\n        /* \"@openzeppelin/contracts/utils/math/Math.sol\":13075:13076  1 */\n      0x01\n        /* \"@openzeppelin/contracts/utils/math/Math.sol\":13065:13076  result += 1 */\n      add\n        /* \"@openzeppelin/contracts/utils/math/Math.sol\":13117:13123  result */\n      swap3\n        /* \"@openzeppelin/contracts/utils/math/Math.sol\":12214:13130  function log10(uint256 value) internal pure returns (uint256) {... */\n      swap2\n      pop\n      pop\n      jump\t// out\n        /* \"@openzeppelin/contracts/token/ERC1155/ERC1155.sol\":7004:7694  function _updateWithAcceptanceCheck(... */\n    tag_251:\n        /* \"@openzeppelin/contracts/token/ERC1155/ERC1155.sol\":7205:7235  _update(from, to, ids, values) */\n      tag_314\n        /* \"@openzeppelin/contracts/token/ERC1155/ERC1155.sol\":7213:7217  from */\n      dup6\n        /* \"@openzeppelin/contracts/token/ERC1155/ERC1155.sol\":7219:7221  to */\n      dup6\n        /* \"@openzeppelin/contracts/token/ERC1155/ERC1155.sol\":7223:7226  ids */\n      dup6\n        /* \"@openzeppelin/contracts/token/ERC1155/ERC1155.sol\":7228:7234  values */\n      dup6\n        /* \"@openzeppelin/contracts/token/ERC1155/ERC1155.sol\":7205:7212  _update */\n      tag_315\n        /* \"@openzeppelin/contracts/token/ERC1155/ERC1155.sol\":7205:7235  _update(from, to, ids, values) */\n      jump\t// in\n    tag_314:\n      sub(shl(0xa0, 0x01), 0x01)\n        /* \"@openzeppelin/contracts/token/ERC1155/ERC1155.sol\":7249:7265  to != address(0) */\n      dup5\n      and\n      iszero\n        /* \"@openzeppelin/contracts/token/ERC1155/ERC1155.sol\":7245:7688  if (to != address(0)) {... */\n      tag_268\n      jumpi\n        /* \"@openzeppelin/contracts/token/ERC1155/ERC1155.sol\":7330:7340  ids.length */\n      dup3\n      mload\n        /* \"@openzeppelin/contracts/utils/Context.sol\":735:745  msg.sender */\n      caller\n      swap1\n        /* \"@openzeppelin/contracts/token/ERC1155/ERC1155.sol\":7344:7345  1 */\n      0x01\n        /* \"@openzeppelin/contracts/token/ERC1155/ERC1155.sol\":7330:7345  ids.length == 1 */\n      sub\n        /* \"@openzeppelin/contracts/token/ERC1155/ERC1155.sol\":7326:7678  if (ids.length == 1) {... */\n      tag_318\n      jumpi\n        /* \"@openzeppelin/contracts/utils/Arrays.sol\":4777:4781  0x20 */\n      0x20\n        /* \"@openzeppelin/contracts/utils/Arrays.sol\":4748:4783  add(add(arr, 0x20), mul(pos, 0x20)) */\n      dup5\n      dup2\n      add\n        /* \"@openzeppelin/contracts/utils/Arrays.sol\":4742:4784  mload(add(add(arr, 0x20), mul(pos, 0x20))) */\n      mload\n        /* \"@openzeppelin/contracts/utils/Arrays.sol\":4748:4783  add(add(arr, 0x20), mul(pos, 0x20)) */\n      swap1\n      dup5\n      add\n        /* \"@openzeppelin/contracts/utils/Arrays.sol\":4742:4784  mload(add(add(arr, 0x20), mul(pos, 0x20))) */\n      mload\n        /* \"@openzeppelin/contracts/token/ERC1155/ERC1155.sol\":7483:7550  _doSafeTransferAcceptanceCheck(operator, from, to, id, value, data) */\n      tag_321\n        /* \"@openzeppelin/contracts/token/ERC1155/ERC1155.sol\":7514:7522  operator */\n      dup4\n        /* \"@openzeppelin/contracts/token/ERC1155/ERC1155.sol\":7524:7528  from */\n      dup10\n        /* \"@openzeppelin/contracts/token/ERC1155/ERC1155.sol\":7530:7532  to */\n      dup10\n        /* \"@openzeppelin/contracts/utils/Arrays.sol\":4742:4784  mload(add(add(arr, 0x20), mul(pos, 0x20))) */\n      dup6\n      dup6\n        /* \"@openzeppelin/contracts/token/ERC1155/ERC1155.sol\":7545:7549  data */\n      dup10\n        /* \"@openzeppelin/contracts/token/ERC1155/ERC1155.sol\":7483:7513  _doSafeTransferAcceptanceCheck */\n      tag_322\n        /* \"@openzeppelin/contracts/token/ERC1155/ERC1155.sol\":7483:7550  _doSafeTransferAcceptanceCheck(operator, from, to, id, value, data) */\n      jump\t// in\n    tag_321:\n        /* \"@openzeppelin/contracts/token/ERC1155/ERC1155.sol\":7347:7565  {... */\n      pop\n      pop\n        /* \"@openzeppelin/contracts/token/ERC1155/ERC1155.sol\":7326:7678  if (ids.length == 1) {... */\n      jump(tag_164)\n    tag_318:\n        /* \"@openzeppelin/contracts/token/ERC1155/ERC1155.sol\":7589:7663  _doSafeBatchTransferAcceptanceCheck(operator, from, to, ids, values, data) */\n      tag_164\n        /* \"@openzeppelin/contracts/token/ERC1155/ERC1155.sol\":7625:7633  operator */\n      dup2\n        /* \"@openzeppelin/contracts/token/ERC1155/ERC1155.sol\":7635:7639  from */\n      dup8\n        /* \"@openzeppelin/contracts/token/ERC1155/ERC1155.sol\":7641:7643  to */\n      dup8\n        /* \"@openzeppelin/contracts/token/ERC1155/ERC1155.sol\":7645:7648  ids */\n      dup8\n        /* \"@openzeppelin/contracts/token/ERC1155/ERC1155.sol\":7650:7656  values */\n      dup8\n        /* \"@openzeppelin/contracts/token/ERC1155/ERC1155.sol\":7658:7662  data */\n      dup8\n        /* \"@openzeppelin/contracts/token/ERC1155/ERC1155.sol\":7589:7624  _doSafeBatchTransferAcceptanceCheck */\n      tag_325\n        /* \"@openzeppelin/contracts/token/ERC1155/ERC1155.sol\":7589:7663  _doSafeBatchTransferAcceptanceCheck(operator, from, to, ids, values, data) */\n      jump\t// in\n        /* \"@openzeppelin/contracts/token/ERC1155/ERC1155.sol\":5144:6425  function _update(address from, address to, uint256[] memory ids, uint256[] memory values) internal virtual {... */\n    tag_315:\n        /* \"@openzeppelin/contracts/token/ERC1155/ERC1155.sol\":5279:5285  values */\n      dup1\n        /* \"@openzeppelin/contracts/token/ERC1155/ERC1155.sol\":5279:5292  values.length */\n      mload\n        /* \"@openzeppelin/contracts/token/ERC1155/ERC1155.sol\":5265:5268  ids */\n      dup3\n        /* \"@openzeppelin/contracts/token/ERC1155/ERC1155.sol\":5265:5275  ids.length */\n      mload\n        /* \"@openzeppelin/contracts/token/ERC1155/ERC1155.sol\":5265:5292  ids.length != values.length */\n      eq\n        /* \"@openzeppelin/contracts/token/ERC1155/ERC1155.sol\":5261:5378  if (ids.length != values.length) {... */\n      tag_327\n      jumpi\n        /* \"@openzeppelin/contracts/token/ERC1155/ERC1155.sol\":5341:5351  ids.length */\n      dup2\n      mload\n        /* \"@openzeppelin/contracts/token/ERC1155/ERC1155.sol\":5353:5366  values.length */\n      dup2\n      mload\n        /* \"@openzeppelin/contracts/token/ERC1155/ERC1155.sol\":5315:5367  ERC1155InvalidArrayLength(ids.length, values.length) */\n      mload(0x40)\n      shl(0xe0, 0x5b059991)\n      dup2\n      mstore\n      0x04\n      dup2\n      add\n        /* \"#utility.yul\":12650:12675   */\n      swap3\n      swap1\n      swap3\n      mstore\n        /* \"#utility.yul\":12691:12709   */\n      0x24\n      dup3\n      add\n        /* \"#utility.yul\":12684:12718   */\n      mstore\n        /* \"#utility.yul\":12623:12641   */\n      0x44\n      add\n        /* \"@openzeppelin/contracts/token/ERC1155/ERC1155.sol\":5315:5367  ERC1155InvalidArrayLength(ids.length, values.length) */\n      tag_141\n        /* \"#utility.yul\":12476:12724   */\n      jump\n        /* \"@openzeppelin/contracts/token/ERC1155/ERC1155.sol\":5261:5378  if (ids.length != values.length) {... */\n    tag_327:\n        /* \"@openzeppelin/contracts/utils/Context.sol\":735:745  msg.sender */\n      caller\n        /* \"@openzeppelin/contracts/token/ERC1155/ERC1155.sol\":5388:5404  address operator */\n      0x00\n        /* \"@openzeppelin/contracts/token/ERC1155/ERC1155.sol\":5430:6121  for (uint256 i = 0; i < ids.length; ++i) {... */\n    tag_330:\n        /* \"@openzeppelin/contracts/token/ERC1155/ERC1155.sol\":5454:5457  ids */\n      dup4\n        /* \"@openzeppelin/contracts/token/ERC1155/ERC1155.sol\":5454:5464  ids.length */\n      mload\n        /* \"@openzeppelin/contracts/token/ERC1155/ERC1155.sol\":5450:5451  i */\n      dup2\n        /* \"@openzeppelin/contracts/token/ERC1155/ERC1155.sol\":5450:5464  i < ids.length */\n      lt\n        /* \"@openzeppelin/contracts/token/ERC1155/ERC1155.sol\":5430:6121  for (uint256 i = 0; i < ids.length; ++i) {... */\n      iszero\n      tag_331\n      jumpi\n        /* \"@openzeppelin/contracts/utils/Arrays.sol\":4777:4781  0x20 */\n      0x20\n        /* \"@openzeppelin/contracts/utils/Arrays.sol\":4768:4782  mul(pos, 0x20) */\n      dup2\n      dup2\n      mul\n        /* \"@openzeppelin/contracts/utils/Arrays.sol\":4748:4783  add(add(arr, 0x20), mul(pos, 0x20)) */\n      dup6\n      dup2\n      add\n      dup3\n      add\n        /* \"@openzeppelin/contracts/utils/Arrays.sol\":4742:4784  mload(add(add(arr, 0x20), mul(pos, 0x20))) */\n      mload\n        /* \"@openzeppelin/contracts/utils/Arrays.sol\":4748:4783  add(add(arr, 0x20), mul(pos, 0x20)) */\n      swap1\n      dup6\n      add\n      swap1\n      swap2\n      add\n        /* \"@openzeppelin/contracts/utils/Arrays.sol\":4742:4784  mload(add(add(arr, 0x20), mul(pos, 0x20))) */\n      mload\n      sub(shl(0xa0, 0x01), 0x01)\n        /* \"@openzeppelin/contracts/token/ERC1155/ERC1155.sol\":5600:5618  from != address(0) */\n      dup9\n      and\n      iszero\n        /* \"@openzeppelin/contracts/token/ERC1155/ERC1155.sol\":5596:6016  if (from != address(0)) {... */\n      tag_335\n      jumpi\n        /* \"@openzeppelin/contracts/token/ERC1155/ERC1155.sol\":5638:5657  uint256 fromBalance */\n      0x00\n        /* \"@openzeppelin/contracts/token/ERC1155/ERC1155.sol\":5660:5673  _balances[id] */\n      dup3\n      dup2\n      mstore\n      0x20\n      dup2\n      dup2\n      mstore\n      0x40\n      dup1\n      dup4\n      keccak256\n      sub(shl(0xa0, 0x01), 0x01)\n        /* \"@openzeppelin/contracts/token/ERC1155/ERC1155.sol\":5660:5679  _balances[id][from] */\n      dup13\n      and\n      dup5\n      mstore\n      swap1\n      swap2\n      mstore\n      swap1\n      keccak256\n      sload\n        /* \"@openzeppelin/contracts/token/ERC1155/ERC1155.sol\":5701:5720  fromBalance < value */\n      dup2\n      dup2\n      lt\n        /* \"@openzeppelin/contracts/token/ERC1155/ERC1155.sol\":5697:5826  if (fromBalance < value) {... */\n      iszero\n      tag_336\n      jumpi\n        /* \"@openzeppelin/contracts/token/ERC1155/ERC1155.sol\":5751:5807  ERC1155InsufficientBalance(from, fromBalance, value, id) */\n      mload(0x40)\n      0x03dee4c500000000000000000000000000000000000000000000000000000000\n      dup2\n      mstore\n      sub(shl(0xa0, 0x01), 0x01)\n        /* \"#utility.yul\":14159:14214   */\n      dup11\n      and\n        /* \"@openzeppelin/contracts/token/ERC1155/ERC1155.sol\":5751:5807  ERC1155InsufficientBalance(from, fromBalance, value, id) */\n      0x04\n      dup3\n      add\n        /* \"#utility.yul\":14141:14215   */\n      mstore\n        /* \"#utility.yul\":14231:14249   */\n      0x24\n      dup2\n      add\n        /* \"#utility.yul\":14224:14258   */\n      dup3\n      swap1\n      mstore\n        /* \"#utility.yul\":14274:14292   */\n      0x44\n      dup2\n      add\n        /* \"#utility.yul\":14267:14301   */\n      dup4\n      swap1\n      mstore\n        /* \"#utility.yul\":14317:14335   */\n      0x64\n      dup2\n      add\n        /* \"#utility.yul\":14310:14344   */\n      dup5\n      swap1\n      mstore\n        /* \"#utility.yul\":14113:14132   */\n      0x84\n      add\n        /* \"@openzeppelin/contracts/token/ERC1155/ERC1155.sol\":5751:5807  ERC1155InsufficientBalance(from, fromBalance, value, id) */\n      tag_141\n        /* \"#utility.yul\":13910:14350   */\n      jump\n        /* \"@openzeppelin/contracts/token/ERC1155/ERC1155.sol\":5697:5826  if (fromBalance < value) {... */\n    tag_336:\n        /* \"@openzeppelin/contracts/token/ERC1155/ERC1155.sol\":5942:5951  _balances */\n      0x00\n        /* \"@openzeppelin/contracts/token/ERC1155/ERC1155.sol\":5942:5955  _balances[id] */\n      dup4\n      dup2\n      mstore\n      0x20\n      dup2\n      dup2\n      mstore\n      0x40\n      dup1\n      dup4\n      keccak256\n      sub(shl(0xa0, 0x01), 0x01)\n        /* \"@openzeppelin/contracts/token/ERC1155/ERC1155.sol\":5942:5961  _balances[id][from] */\n      dup14\n      and\n      dup5\n      mstore\n      swap1\n      swap2\n      mstore\n      swap1\n      keccak256\n        /* \"@openzeppelin/contracts/token/ERC1155/ERC1155.sol\":5964:5983  fromBalance - value */\n      swap1\n      dup3\n      swap1\n      sub\n        /* \"@openzeppelin/contracts/token/ERC1155/ERC1155.sol\":5942:5983  _balances[id][from] = fromBalance - value */\n      swap1\n      sstore\n        /* \"@openzeppelin/contracts/token/ERC1155/ERC1155.sol\":5596:6016  if (from != address(0)) {... */\n    tag_335:\n      sub(shl(0xa0, 0x01), 0x01)\n        /* \"@openzeppelin/contracts/token/ERC1155/ERC1155.sol\":6034:6050  to != address(0) */\n      dup8\n      and\n      iszero\n        /* \"@openzeppelin/contracts/token/ERC1155/ERC1155.sol\":6030:6111  if (to != address(0)) {... */\n      tag_339\n      jumpi\n        /* \"@openzeppelin/contracts/token/ERC1155/ERC1155.sol\":6070:6079  _balances */\n      0x00\n        /* \"@openzeppelin/contracts/token/ERC1155/ERC1155.sol\":6070:6083  _balances[id] */\n      dup3\n      dup2\n      mstore\n      0x20\n      dup2\n      dup2\n      mstore\n      0x40\n      dup1\n      dup4\n      keccak256\n      sub(shl(0xa0, 0x01), 0x01)\n        /* \"@openzeppelin/contracts/token/ERC1155/ERC1155.sol\":6070:6087  _balances[id][to] */\n      dup12\n      and\n      dup5\n      mstore\n      swap1\n      swap2\n      mstore\n      dup2\n      keccak256\n        /* \"@openzeppelin/contracts/token/ERC1155/ERC1155.sol\":6070:6096  _balances[id][to] += value */\n      dup1\n      sload\n        /* \"@openzeppelin/contracts/token/ERC1155/ERC1155.sol\":6091:6096  value */\n      dup4\n      swap3\n        /* \"@openzeppelin/contracts/token/ERC1155/ERC1155.sol\":6070:6079  _balances */\n      swap1\n        /* \"@openzeppelin/contracts/token/ERC1155/ERC1155.sol\":6070:6096  _balances[id][to] += value */\n      tag_340\n      swap1\n        /* \"@openzeppelin/contracts/token/ERC1155/ERC1155.sol\":6091:6096  value */\n      dup5\n      swap1\n        /* \"@openzeppelin/contracts/token/ERC1155/ERC1155.sol\":6070:6096  _balances[id][to] += value */\n      tag_144\n      jump\t// in\n    tag_340:\n      swap1\n      swap2\n      sstore\n      pop\n      pop\n        /* \"@openzeppelin/contracts/token/ERC1155/ERC1155.sol\":6030:6111  if (to != address(0)) {... */\n    tag_339:\n      pop\n      pop\n        /* \"@openzeppelin/contracts/token/ERC1155/ERC1155.sol\":5466:5469  ++i */\n      0x01\n      add\n        /* \"@openzeppelin/contracts/token/ERC1155/ERC1155.sol\":5430:6121  for (uint256 i = 0; i < ids.length; ++i) {... */\n      jump(tag_330)\n    tag_331:\n      pop\n        /* \"@openzeppelin/contracts/token/ERC1155/ERC1155.sol\":6135:6138  ids */\n      dup3\n        /* \"@openzeppelin/contracts/token/ERC1155/ERC1155.sol\":6135:6145  ids.length */\n      mload\n        /* \"@openzeppelin/contracts/token/ERC1155/ERC1155.sol\":6149:6150  1 */\n      0x01\n        /* \"@openzeppelin/contracts/token/ERC1155/ERC1155.sol\":6135:6150  ids.length == 1 */\n      sub\n        /* \"@openzeppelin/contracts/token/ERC1155/ERC1155.sol\":6131:6419  if (ids.length == 1) {... */\n      tag_341\n      jumpi\n        /* \"@openzeppelin/contracts/utils/Arrays.sol\":4777:4781  0x20 */\n      0x20\n        /* \"@openzeppelin/contracts/utils/Arrays.sol\":4748:4783  add(add(arr, 0x20), mul(pos, 0x20)) */\n      dup4\n      add\n        /* \"@openzeppelin/contracts/utils/Arrays.sol\":4742:4784  mload(add(add(arr, 0x20), mul(pos, 0x20))) */\n      mload\n        /* \"@openzeppelin/contracts/token/ERC1155/ERC1155.sol\":6166:6176  uint256 id */\n      0x00\n      swap1\n        /* \"@openzeppelin/contracts/utils/Arrays.sol\":4777:4781  0x20 */\n      0x20\n        /* \"@openzeppelin/contracts/utils/Arrays.sol\":4748:4783  add(add(arr, 0x20), mul(pos, 0x20)) */\n      dup5\n      add\n        /* \"@openzeppelin/contracts/utils/Arrays.sol\":4742:4784  mload(add(add(arr, 0x20), mul(pos, 0x20))) */\n      mload\n        /* \"@openzeppelin/contracts/token/ERC1155/ERC1155.sol\":6166:6204  uint256 id = ids.unsafeMemoryAccess(0) */\n      swap1\n      swap2\n      pop\n        /* \"@openzeppelin/contracts/token/ERC1155/ERC1155.sol\":6312:6314  to */\n      dup6\n      sub(shl(0xa0, 0x01), 0x01)\n        /* \"@openzeppelin/contracts/token/ERC1155/ERC1155.sol\":6281:6326  TransferSingle(operator, from, to, id, value) */\n      and\n        /* \"@openzeppelin/contracts/token/ERC1155/ERC1155.sol\":6306:6310  from */\n      dup8\n      sub(shl(0xa0, 0x01), 0x01)\n        /* \"@openzeppelin/contracts/token/ERC1155/ERC1155.sol\":6281:6326  TransferSingle(operator, from, to, id, value) */\n      and\n        /* \"@openzeppelin/contracts/token/ERC1155/ERC1155.sol\":6296:6304  operator */\n      dup5\n      sub(shl(0xa0, 0x01), 0x01)\n        /* \"@openzeppelin/contracts/token/ERC1155/ERC1155.sol\":6281:6326  TransferSingle(operator, from, to, id, value) */\n      and\n      0xc3d58168c5ae7397731d063d5bbf3d657854427343f4c083240f7aacaa2d0f62\n        /* \"@openzeppelin/contracts/token/ERC1155/ERC1155.sol\":6316:6318  id */\n      dup6\n        /* \"@openzeppelin/contracts/token/ERC1155/ERC1155.sol\":6320:6325  value */\n      dup6\n        /* \"@openzeppelin/contracts/token/ERC1155/ERC1155.sol\":6281:6326  TransferSingle(operator, from, to, id, value) */\n      mload(0x40)\n      tag_344\n      swap3\n      swap2\n      swap1\n        /* \"#utility.yul\":12650:12675   */\n      swap2\n      dup3\n      mstore\n        /* \"#utility.yul\":12706:12708   */\n      0x20\n        /* \"#utility.yul\":12691:12709   */\n      dup3\n      add\n        /* \"#utility.yul\":12684:12718   */\n      mstore\n        /* \"#utility.yul\":12638:12640   */\n      0x40\n        /* \"#utility.yul\":12623:12641   */\n      add\n      swap1\n        /* \"#utility.yul\":12476:12724   */\n      jump\n        /* \"@openzeppelin/contracts/token/ERC1155/ERC1155.sol\":6281:6326  TransferSingle(operator, from, to, id, value) */\n    tag_344:\n      mload(0x40)\n      dup1\n      swap2\n      sub\n      swap1\n      log4\n        /* \"@openzeppelin/contracts/token/ERC1155/ERC1155.sol\":6152:6337  {... */\n      pop\n      pop\n        /* \"@openzeppelin/contracts/token/ERC1155/ERC1155.sol\":6131:6419  if (ids.length == 1) {... */\n      jump(tag_268)\n    tag_341:\n        /* \"@openzeppelin/contracts/token/ERC1155/ERC1155.sol\":6392:6394  to */\n      dup4\n      sub(shl(0xa0, 0x01), 0x01)\n        /* \"@openzeppelin/contracts/token/ERC1155/ERC1155.sol\":6362:6408  TransferBatch(operator, from, to, ids, values) */\n      and\n        /* \"@openzeppelin/contracts/token/ERC1155/ERC1155.sol\":6386:6390  from */\n      dup6\n      sub(shl(0xa0, 0x01), 0x01)\n        /* \"@openzeppelin/contracts/token/ERC1155/ERC1155.sol\":6362:6408  TransferBatch(operator, from, to, ids, values) */\n      and\n        /* \"@openzeppelin/contracts/token/ERC1155/ERC1155.sol\":6376:6384  operator */\n      dup3\n      sub(shl(0xa0, 0x01), 0x01)\n        /* \"@openzeppelin/contracts/token/ERC1155/ERC1155.sol\":6362:6408  TransferBatch(operator, from, to, ids, values) */\n      and\n      0x4a39dc06d4c0dbc64b70af90fd698a233a518aa5d07e595d983b8c0526c8f7fb\n        /* \"@openzeppelin/contracts/token/ERC1155/ERC1155.sol\":6396:6399  ids */\n      dup7\n        /* \"@openzeppelin/contracts/token/ERC1155/ERC1155.sol\":6401:6407  values */\n      dup7\n        /* \"@openzeppelin/contracts/token/ERC1155/ERC1155.sol\":6362:6408  TransferBatch(operator, from, to, ids, values) */\n      mload(0x40)\n      tag_346\n      swap3\n      swap2\n      swap1\n      tag_347\n      jump\t// in\n    tag_346:\n      mload(0x40)\n      dup1\n      swap2\n      sub\n      swap1\n      log4\n        /* \"@openzeppelin/contracts/token/ERC1155/ERC1155.sol\":5251:6425  {... */\n      pop\n        /* \"@openzeppelin/contracts/token/ERC1155/ERC1155.sol\":5144:6425  function _update(address from, address to, uint256[] memory ids, uint256[] memory values) internal virtual {... */\n      pop\n      pop\n      pop\n      pop\n      jump\t// out\n        /* \"@openzeppelin/contracts/token/ERC1155/ERC1155.sol\":13761:14735  function _doSafeTransferAcceptanceCheck(... */\n    tag_322:\n      sub(shl(0xa0, 0x01), 0x01)\n        /* \"@openzeppelin/contracts/token/ERC1155/ERC1155.sol\":13967:13981  to.code.length */\n      dup5\n      and\n      extcodesize\n        /* \"@openzeppelin/contracts/token/ERC1155/ERC1155.sol\":13967:13985  to.code.length > 0 */\n      iszero\n        /* \"@openzeppelin/contracts/token/ERC1155/ERC1155.sol\":13963:14729  if (to.code.length > 0) {... */\n      tag_164\n      jumpi\n        /* \"@openzeppelin/contracts/token/ERC1155/ERC1155.sol\":14005:14076  IERC1155Receiver(to).onERC1155Received(operator, from, id, value, data) */\n      mload(0x40)\n      shl(0xe0, 0xf23a6e61)\n      dup2\n      mstore\n      sub(shl(0xa0, 0x01), 0x01)\n        /* \"@openzeppelin/contracts/token/ERC1155/ERC1155.sol\":14005:14043  IERC1155Receiver(to).onERC1155Received */\n      dup6\n      and\n      swap1\n      0xf23a6e61\n      swap1\n        /* \"@openzeppelin/contracts/token/ERC1155/ERC1155.sol\":14005:14076  IERC1155Receiver(to).onERC1155Received(operator, from, id, value, data) */\n      tag_350\n      swap1\n        /* \"@openzeppelin/contracts/token/ERC1155/ERC1155.sol\":14044:14052  operator */\n      dup10\n      swap1\n        /* \"@openzeppelin/contracts/token/ERC1155/ERC1155.sol\":14054:14058  from */\n      dup10\n      swap1\n        /* \"@openzeppelin/contracts/token/ERC1155/ERC1155.sol\":14060:14062  id */\n      dup9\n      swap1\n        /* \"@openzeppelin/contracts/token/ERC1155/ERC1155.sol\":14064:14069  value */\n      dup9\n      swap1\n        /* \"@openzeppelin/contracts/token/ERC1155/ERC1155.sol\":14071:14075  data */\n      dup9\n      swap1\n        /* \"@openzeppelin/contracts/token/ERC1155/ERC1155.sol\":14005:14076  IERC1155Receiver(to).onERC1155Received(operator, from, id, value, data) */\n      0x04\n      add\n      tag_351\n      jump\t// in\n    tag_350:\n      0x20\n      mload(0x40)\n      dup1\n      dup4\n      sub\n      dup2\n      0x00\n      dup8\n      gas\n      call\n      swap3\n      pop\n      pop\n      pop\n      dup1\n      iszero\n      tag_352\n      jumpi\n      pop\n      0x40\n      dup1\n      mload\n      0x1f\n      returndatasize\n      swap1\n      dup2\n      add\n      not(0x1f)\n      and\n      dup3\n      add\n      swap1\n      swap3\n      mstore\n      tag_353\n      swap2\n      dup2\n      add\n      swap1\n      tag_354\n      jump\t// in\n    tag_353:\n      0x01\n    tag_352:\n        /* \"@openzeppelin/contracts/token/ERC1155/ERC1155.sol\":14001:14719  try IERC1155Receiver(to).onERC1155Received(operator, from, id, value, data) returns (bytes4 response) {... */\n      tag_355\n      jumpi\n      returndatasize\n      dup1\n      dup1\n      iszero\n      tag_360\n      jumpi\n      mload(0x40)\n      swap2\n      pop\n      and(add(returndatasize, 0x3f), not(0x1f))\n      dup3\n      add\n      0x40\n      mstore\n      returndatasize\n      dup3\n      mstore\n      returndatasize\n      0x00\n      0x20\n      dup5\n      add\n      returndatacopy\n      jump(tag_359)\n    tag_360:\n      0x60\n      swap2\n      pop\n    tag_359:\n      pop\n        /* \"@openzeppelin/contracts/token/ERC1155/ERC1155.sol\":14360:14366  reason */\n      dup1\n        /* \"@openzeppelin/contracts/token/ERC1155/ERC1155.sol\":14360:14373  reason.length */\n      mload\n        /* \"@openzeppelin/contracts/token/ERC1155/ERC1155.sol\":14377:14378  0 */\n      0x00\n        /* \"@openzeppelin/contracts/token/ERC1155/ERC1155.sol\":14360:14378  reason.length == 0 */\n      sub\n        /* \"@openzeppelin/contracts/token/ERC1155/ERC1155.sol\":14356:14705  if (reason.length == 0) {... */\n      tag_361\n      jumpi\n        /* \"@openzeppelin/contracts/token/ERC1155/ERC1155.sol\":14464:14490  ERC1155InvalidReceiver(to) */\n      mload(0x40)\n      shl(0xe1, 0x2bfa23e7)\n      dup2\n      mstore\n      sub(shl(0xa0, 0x01), 0x01)\n        /* \"#utility.yul\":8859:8914   */\n      dup7\n      and\n        /* \"@openzeppelin/contracts/token/ERC1155/ERC1155.sol\":14464:14490  ERC1155InvalidReceiver(to) */\n      0x04\n      dup3\n      add\n        /* \"#utility.yul\":8841:8915   */\n      mstore\n        /* \"#utility.yul\":8814:8832   */\n      0x24\n      add\n        /* \"@openzeppelin/contracts/token/ERC1155/ERC1155.sol\":14464:14490  ERC1155InvalidReceiver(to) */\n      tag_141\n        /* \"#utility.yul\":8695:8921   */\n      jump\n        /* \"@openzeppelin/contracts/token/ERC1155/ERC1155.sol\":14356:14705  if (reason.length == 0) {... */\n    tag_361:\n        /* \"@openzeppelin/contracts/token/ERC1155/ERC1155.sol\":14657:14663  reason */\n      dup1\n        /* \"@openzeppelin/contracts/token/ERC1155/ERC1155.sol\":14651:14664  mload(reason) */\n      mload\n        /* \"@openzeppelin/contracts/token/ERC1155/ERC1155.sol\":14642:14648  reason */\n      dup2\n        /* \"@openzeppelin/contracts/token/ERC1155/ERC1155.sol\":14638:14640  32 */\n      0x20\n        /* \"@openzeppelin/contracts/token/ERC1155/ERC1155.sol\":14634:14649  add(32, reason) */\n      add\n        /* \"@openzeppelin/contracts/token/ERC1155/ERC1155.sol\":14627:14665  revert(add(32, reason), mload(reason)) */\n      revert\n        /* \"@openzeppelin/contracts/token/ERC1155/ERC1155.sol\":14001:14719  try IERC1155Receiver(to).onERC1155Received(operator, from, id, value, data) returns (bytes4 response) {... */\n    tag_355:\n      not(sub(shl(0xe0, 0x01), 0x01))\n        /* \"@openzeppelin/contracts/token/ERC1155/ERC1155.sol\":14125:14180  response != IERC1155Receiver.onERC1155Received.selector */\n      dup2\n      and\n      shl(0xe0, 0xf23a6e61)\n      eq\n        /* \"@openzeppelin/contracts/token/ERC1155/ERC1155.sol\":14121:14295  if (response != IERC1155Receiver.onERC1155Received.selector) {... */\n      tag_286\n      jumpi\n        /* \"@openzeppelin/contracts/token/ERC1155/ERC1155.sol\":14250:14276  ERC1155InvalidReceiver(to) */\n      mload(0x40)\n      shl(0xe1, 0x2bfa23e7)\n      dup2\n      mstore\n      sub(shl(0xa0, 0x01), 0x01)\n        /* \"#utility.yul\":8859:8914   */\n      dup7\n      and\n        /* \"@openzeppelin/contracts/token/ERC1155/ERC1155.sol\":14250:14276  ERC1155InvalidReceiver(to) */\n      0x04\n      dup3\n      add\n        /* \"#utility.yul\":8841:8915   */\n      mstore\n        /* \"#utility.yul\":8814:8832   */\n      0x24\n      add\n        /* \"@openzeppelin/contracts/token/ERC1155/ERC1155.sol\":14250:14276  ERC1155InvalidReceiver(to) */\n      tag_141\n        /* \"#utility.yul\":8695:8921   */\n      jump\n        /* \"@openzeppelin/contracts/token/ERC1155/ERC1155.sol\":14923:15964  function _doSafeBatchTransferAcceptanceCheck(... */\n    tag_325:\n      sub(shl(0xa0, 0x01), 0x01)\n        /* \"@openzeppelin/contracts/token/ERC1155/ERC1155.sol\":15154:15168  to.code.length */\n      dup5\n      and\n      extcodesize\n        /* \"@openzeppelin/contracts/token/ERC1155/ERC1155.sol\":15154:15172  to.code.length > 0 */\n      iszero\n        /* \"@openzeppelin/contracts/token/ERC1155/ERC1155.sol\":15150:15958  if (to.code.length > 0) {... */\n      tag_164\n      jumpi\n        /* \"@openzeppelin/contracts/token/ERC1155/ERC1155.sol\":15192:15270  IERC1155Receiver(to).onERC1155BatchReceived(operator, from, ids, values, data) */\n      mload(0x40)\n      shl(0xe0, 0xbc197c81)\n      dup2\n      mstore\n      sub(shl(0xa0, 0x01), 0x01)\n        /* \"@openzeppelin/contracts/token/ERC1155/ERC1155.sol\":15192:15235  IERC1155Receiver(to).onERC1155BatchReceived */\n      dup6\n      and\n      swap1\n      0xbc197c81\n      swap1\n        /* \"@openzeppelin/contracts/token/ERC1155/ERC1155.sol\":15192:15270  IERC1155Receiver(to).onERC1155BatchReceived(operator, from, ids, values, data) */\n      tag_369\n      swap1\n        /* \"@openzeppelin/contracts/token/ERC1155/ERC1155.sol\":15236:15244  operator */\n      dup10\n      swap1\n        /* \"@openzeppelin/contracts/token/ERC1155/ERC1155.sol\":15246:15250  from */\n      dup10\n      swap1\n        /* \"@openzeppelin/contracts/token/ERC1155/ERC1155.sol\":15252:15255  ids */\n      dup9\n      swap1\n        /* \"@openzeppelin/contracts/token/ERC1155/ERC1155.sol\":15257:15263  values */\n      dup9\n      swap1\n        /* \"@openzeppelin/contracts/token/ERC1155/ERC1155.sol\":15265:15269  data */\n      dup9\n      swap1\n        /* \"@openzeppelin/contracts/token/ERC1155/ERC1155.sol\":15192:15270  IERC1155Receiver(to).onERC1155BatchReceived(operator, from, ids, values, data) */\n      0x04\n      add\n      tag_370\n      jump\t// in\n    tag_369:\n      0x20\n      mload(0x40)\n      dup1\n      dup4\n      sub\n      dup2\n      0x00\n      dup8\n      gas\n      call\n      swap3\n      pop\n      pop\n      pop\n      dup1\n      iszero\n      tag_371\n      jumpi\n      pop\n      0x40\n      dup1\n      mload\n      0x1f\n      returndatasize\n      swap1\n      dup2\n      add\n      not(0x1f)\n      and\n      dup3\n      add\n      swap1\n      swap3\n      mstore\n      tag_372\n      swap2\n      dup2\n      add\n      swap1\n      tag_354\n      jump\t// in\n    tag_372:\n      0x01\n    tag_371:\n        /* \"@openzeppelin/contracts/token/ERC1155/ERC1155.sol\":15188:15948  try IERC1155Receiver(to).onERC1155BatchReceived(operator, from, ids, values, data) returns (... */\n      tag_373\n      jumpi\n      returndatasize\n      dup1\n      dup1\n      iszero\n      tag_360\n      jumpi\n      mload(0x40)\n      swap2\n      pop\n      and(add(returndatasize, 0x3f), not(0x1f))\n      dup3\n      add\n      0x40\n      mstore\n      returndatasize\n      dup3\n      mstore\n      returndatasize\n      0x00\n      0x20\n      dup5\n      add\n      returndatacopy\n      jump(tag_359)\n    tag_373:\n      not(sub(shl(0xe0, 0x01), 0x01))\n        /* \"@openzeppelin/contracts/token/ERC1155/ERC1155.sol\":15349:15409  response != IERC1155Receiver.onERC1155BatchReceived.selector */\n      dup2\n      and\n      shl(0xe0, 0xbc197c81)\n      eq\n        /* \"@openzeppelin/contracts/token/ERC1155/ERC1155.sol\":15345:15524  if (response != IERC1155Receiver.onERC1155BatchReceived.selector) {... */\n      tag_286\n      jumpi\n        /* \"@openzeppelin/contracts/token/ERC1155/ERC1155.sol\":15479:15505  ERC1155InvalidReceiver(to) */\n      mload(0x40)\n      shl(0xe1, 0x2bfa23e7)\n      dup2\n      mstore\n      sub(shl(0xa0, 0x01), 0x01)\n        /* \"#utility.yul\":8859:8914   */\n      dup7\n      and\n        /* \"@openzeppelin/contracts/token/ERC1155/ERC1155.sol\":15479:15505  ERC1155InvalidReceiver(to) */\n      0x04\n      dup3\n      add\n        /* \"#utility.yul\":8841:8915   */\n      mstore\n        /* \"#utility.yul\":8814:8832   */\n      0x24\n      add\n        /* \"@openzeppelin/contracts/token/ERC1155/ERC1155.sol\":15479:15505  ERC1155InvalidReceiver(to) */\n      tag_141\n        /* \"#utility.yul\":8695:8921   */\n      jump\n        /* \"#utility.yul\":14:210   */\n    tag_385:\n        /* \"#utility.yul\":82:102   */\n      dup1\n      calldataload\n      sub(shl(0xa0, 0x01), 0x01)\n        /* \"#utility.yul\":131:185   */\n      dup2\n      and\n        /* \"#utility.yul\":121:186   */\n      dup2\n      eq\n        /* \"#utility.yul\":111:204   */\n      tag_396\n      jumpi\n        /* \"#utility.yul\":200:201   */\n      0x00\n        /* \"#utility.yul\":197:198   */\n      dup1\n        /* \"#utility.yul\":190:202   */\n      revert\n        /* \"#utility.yul\":111:204   */\n    tag_396:\n        /* \"#utility.yul\":14:210   */\n      swap2\n      swap1\n      pop\n      jump\t// out\n        /* \"#utility.yul\":215:469   */\n    tag_35:\n        /* \"#utility.yul\":283:289   */\n      0x00\n        /* \"#utility.yul\":291:297   */\n      dup1\n        /* \"#utility.yul\":344:346   */\n      0x40\n        /* \"#utility.yul\":332:341   */\n      dup4\n        /* \"#utility.yul\":323:330   */\n      dup6\n        /* \"#utility.yul\":319:342   */\n      sub\n        /* \"#utility.yul\":315:347   */\n      slt\n        /* \"#utility.yul\":312:364   */\n      iszero\n      tag_398\n      jumpi\n        /* \"#utility.yul\":360:361   */\n      0x00\n        /* \"#utility.yul\":357:358   */\n      dup1\n        /* \"#utility.yul\":350:362   */\n      revert\n        /* \"#utility.yul\":312:364   */\n    tag_398:\n        /* \"#utility.yul\":383:412   */\n      tag_399\n        /* \"#utility.yul\":402:411   */\n      dup4\n        /* \"#utility.yul\":383:412   */\n      tag_385\n      jump\t// in\n    tag_399:\n        /* \"#utility.yul\":373:412   */\n      swap5\n        /* \"#utility.yul\":459:461   */\n      0x20\n        /* \"#utility.yul\":444:462   */\n      swap4\n      swap1\n      swap4\n      add\n        /* \"#utility.yul\":431:463   */\n      calldataload\n      swap4\n      pop\n      pop\n      pop\n        /* \"#utility.yul\":215:469   */\n      jump\t// out\n        /* \"#utility.yul\":656:833   */\n    tag_386:\n      not(sub(shl(0xe0, 0x01), 0x01))\n        /* \"#utility.yul\":734:739   */\n      dup2\n        /* \"#utility.yul\":730:808   */\n      and\n        /* \"#utility.yul\":723:728   */\n      dup2\n        /* \"#utility.yul\":720:809   */\n      eq\n        /* \"#utility.yul\":710:827   */\n      tag_217\n      jumpi\n        /* \"#utility.yul\":823:824   */\n      0x00\n        /* \"#utility.yul\":820:821   */\n      dup1\n        /* \"#utility.yul\":813:825   */\n      revert\n        /* \"#utility.yul\":838:1083   */\n    tag_41:\n        /* \"#utility.yul\":896:902   */\n      0x00\n        /* \"#utility.yul\":949:951   */\n      0x20\n        /* \"#utility.yul\":937:946   */\n      dup3\n        /* \"#utility.yul\":928:935   */\n      dup5\n        /* \"#utility.yul\":924:947   */\n      sub\n        /* \"#utility.yul\":920:952   */\n      slt\n        /* \"#utility.yul\":917:969   */\n      iszero\n      tag_404\n      jumpi\n        /* \"#utility.yul\":965:966   */\n      0x00\n        /* \"#utility.yul\":962:963   */\n      dup1\n        /* \"#utility.yul\":955:967   */\n      revert\n        /* \"#utility.yul\":917:969   */\n    tag_404:\n        /* \"#utility.yul\":1004:1013   */\n      dup2\n        /* \"#utility.yul\":991:1014   */\n      calldataload\n        /* \"#utility.yul\":1023:1053   */\n      tag_405\n        /* \"#utility.yul\":1047:1052   */\n      dup2\n        /* \"#utility.yul\":1023:1053   */\n      tag_386\n      jump\t// in\n    tag_405:\n        /* \"#utility.yul\":1072:1077   */\n      swap4\n        /* \"#utility.yul\":838:1083   */\n      swap3\n      pop\n      pop\n      pop\n      jump\t// out\n        /* \"#utility.yul\":1280:1460   */\n    tag_54:\n        /* \"#utility.yul\":1339:1345   */\n      0x00\n        /* \"#utility.yul\":1392:1394   */\n      0x20\n        /* \"#utility.yul\":1380:1389   */\n      dup3\n        /* \"#utility.yul\":1371:1378   */\n      dup5\n        /* \"#utility.yul\":1367:1390   */\n      sub\n        /* \"#utility.yul\":1363:1395   */\n      slt\n        /* \"#utility.yul\":1360:1412   */\n      iszero\n      tag_408\n      jumpi\n        /* \"#utility.yul\":1408:1409   */\n      0x00\n        /* \"#utility.yul\":1405:1406   */\n      dup1\n        /* \"#utility.yul\":1398:1410   */\n      revert\n        /* \"#utility.yul\":1360:1412   */\n    tag_408:\n      pop\n        /* \"#utility.yul\":1431:1454   */\n      calldataload\n      swap2\n        /* \"#utility.yul\":1280:1460   */\n      swap1\n      pop\n      jump\t// out\n        /* \"#utility.yul\":1465:1715   */\n    tag_387:\n        /* \"#utility.yul\":1550:1551   */\n      0x00\n        /* \"#utility.yul\":1560:1673   */\n    tag_410:\n        /* \"#utility.yul\":1574:1580   */\n      dup4\n        /* \"#utility.yul\":1571:1572   */\n      dup2\n        /* \"#utility.yul\":1568:1581   */\n      lt\n        /* \"#utility.yul\":1560:1673   */\n      iszero\n      tag_412\n      jumpi\n        /* \"#utility.yul\":1650:1661   */\n      dup2\n      dup2\n      add\n        /* \"#utility.yul\":1644:1662   */\n      mload\n        /* \"#utility.yul\":1631:1642   */\n      dup4\n      dup3\n      add\n        /* \"#utility.yul\":1624:1663   */\n      mstore\n        /* \"#utility.yul\":1596:1598   */\n      0x20\n        /* \"#utility.yul\":1589:1599   */\n      add\n        /* \"#utility.yul\":1560:1673   */\n      jump(tag_410)\n    tag_412:\n      pop\n      pop\n        /* \"#utility.yul\":1707:1708   */\n      0x00\n        /* \"#utility.yul\":1689:1705   */\n      swap2\n      add\n        /* \"#utility.yul\":1682:1709   */\n      mstore\n        /* \"#utility.yul\":1465:1715   */\n      jump\t// out\n        /* \"#utility.yul\":1720:1991   */\n    tag_388:\n        /* \"#utility.yul\":1762:1765   */\n      0x00\n        /* \"#utility.yul\":1800:1805   */\n      dup2\n        /* \"#utility.yul\":1794:1806   */\n      mload\n        /* \"#utility.yul\":1827:1833   */\n      dup1\n        /* \"#utility.yul\":1822:1825   */\n      dup5\n        /* \"#utility.yul\":1815:1834   */\n      mstore\n        /* \"#utility.yul\":1843:1919   */\n      tag_414\n        /* \"#utility.yul\":1912:1918   */\n      dup2\n        /* \"#utility.yul\":1905:1909   */\n      0x20\n        /* \"#utility.yul\":1900:1903   */\n      dup7\n        /* \"#utility.yul\":1896:1910   */\n      add\n        /* \"#utility.yul\":1889:1893   */\n      0x20\n        /* \"#utility.yul\":1882:1887   */\n      dup7\n        /* \"#utility.yul\":1878:1894   */\n      add\n        /* \"#utility.yul\":1843:1919   */\n      tag_387\n      jump\t// in\n    tag_414:\n        /* \"#utility.yul\":1973:1975   */\n      0x1f\n        /* \"#utility.yul\":1952:1967   */\n      add\n      not(0x1f)\n        /* \"#utility.yul\":1948:1977   */\n      and\n        /* \"#utility.yul\":1939:1978   */\n      swap3\n      swap1\n      swap3\n      add\n        /* \"#utility.yul\":1980:1984   */\n      0x20\n        /* \"#utility.yul\":1935:1985   */\n      add\n      swap3\n        /* \"#utility.yul\":1720:1991   */\n      swap2\n      pop\n      pop\n      jump\t// out\n        /* \"#utility.yul\":1996:2216   */\n    tag_57:\n        /* \"#utility.yul\":2145:2147   */\n      0x20\n        /* \"#utility.yul\":2134:2143   */\n      dup2\n        /* \"#utility.yul\":2127:2148   */\n      mstore\n        /* \"#utility.yul\":2108:2112   */\n      0x00\n        /* \"#utility.yul\":2165:2210   */\n      tag_405\n        /* \"#utility.yul\":2206:2208   */\n      0x20\n        /* \"#utility.yul\":2195:2204   */\n      dup4\n        /* \"#utility.yul\":2191:2209   */\n      add\n        /* \"#utility.yul\":2183:2189   */\n      dup5\n        /* \"#utility.yul\":2165:2210   */\n      tag_388\n      jump\t// in\n        /* \"#utility.yul\":2221:2469   */\n    tag_60:\n        /* \"#utility.yul\":2289:2295   */\n      0x00\n        /* \"#utility.yul\":2297:2303   */\n      dup1\n        /* \"#utility.yul\":2350:2352   */\n      0x40\n        /* \"#utility.yul\":2338:2347   */\n      dup4\n        /* \"#utility.yul\":2329:2336   */\n      dup6\n        /* \"#utility.yul\":2325:2348   */\n      sub\n        /* \"#utility.yul\":2321:2353   */\n      slt\n        /* \"#utility.yul\":2318:2370   */\n      iszero\n      tag_418\n      jumpi\n        /* \"#utility.yul\":2366:2367   */\n      0x00\n        /* \"#utility.yul\":2363:2364   */\n      dup1\n        /* \"#utility.yul\":2356:2368   */\n      revert\n        /* \"#utility.yul\":2318:2370   */\n    tag_418:\n      pop\n      pop\n        /* \"#utility.yul\":2389:2412   */\n      dup1\n      calldataload\n      swap3\n        /* \"#utility.yul\":2459:2461   */\n      0x20\n        /* \"#utility.yul\":2444:2462   */\n      swap1\n      swap2\n      add\n        /* \"#utility.yul\":2431:2463   */\n      calldataload\n      swap2\n      pop\n        /* \"#utility.yul\":2221:2469   */\n      jump\t// out\n        /* \"#utility.yul\":2474:2658   */\n    tag_172:\n      shl(0xe0, 0x4e487b71)\n        /* \"#utility.yul\":2523:2524   */\n      0x00\n        /* \"#utility.yul\":2516:2604   */\n      mstore\n        /* \"#utility.yul\":2623:2627   */\n      0x41\n        /* \"#utility.yul\":2620:2621   */\n      0x04\n        /* \"#utility.yul\":2613:2628   */\n      mstore\n        /* \"#utility.yul\":2647:2651   */\n      0x24\n        /* \"#utility.yul\":2644:2645   */\n      0x00\n        /* \"#utility.yul\":2637:2652   */\n      revert\n        /* \"#utility.yul\":2663:2938   */\n    tag_389:\n        /* \"#utility.yul\":2734:2736   */\n      0x40\n        /* \"#utility.yul\":2728:2737   */\n      mload\n        /* \"#utility.yul\":2799:2801   */\n      0x1f\n        /* \"#utility.yul\":2780:2793   */\n      dup3\n      add\n      not(0x1f)\n        /* \"#utility.yul\":2776:2803   */\n      and\n        /* \"#utility.yul\":2764:2804   */\n      dup2\n      add\n        /* \"#utility.yul\":2834:2852   */\n      0xffffffffffffffff\n        /* \"#utility.yul\":2819:2853   */\n      dup2\n      gt\n        /* \"#utility.yul\":2855:2877   */\n      dup3\n      dup3\n      lt\n        /* \"#utility.yul\":2816:2878   */\n      or\n        /* \"#utility.yul\":2813:2901   */\n      iszero\n      tag_422\n      jumpi\n        /* \"#utility.yul\":2881:2899   */\n      tag_422\n      tag_172\n      jump\t// in\n    tag_422:\n        /* \"#utility.yul\":2917:2919   */\n      0x40\n        /* \"#utility.yul\":2910:2932   */\n      mstore\n        /* \"#utility.yul\":2663:2938   */\n      swap2\n      swap1\n      pop\n      jump\t// out\n        /* \"#utility.yul\":2943:3126   */\n    tag_390:\n        /* \"#utility.yul\":3003:3007   */\n      0x00\n        /* \"#utility.yul\":3036:3054   */\n      0xffffffffffffffff\n        /* \"#utility.yul\":3028:3034   */\n      dup3\n        /* \"#utility.yul\":3025:3055   */\n      gt\n        /* \"#utility.yul\":3022:3078   */\n      iszero\n      tag_425\n      jumpi\n        /* \"#utility.yul\":3058:3076   */\n      tag_425\n      tag_172\n      jump\t// in\n    tag_425:\n      pop\n        /* \"#utility.yul\":3103:3104   */\n      0x05\n        /* \"#utility.yul\":3099:3113   */\n      shl\n        /* \"#utility.yul\":3115:3119   */\n      0x20\n        /* \"#utility.yul\":3095:3120   */\n      add\n      swap1\n        /* \"#utility.yul\":2943:3126   */\n      jump\t// out\n        /* \"#utility.yul\":3131:3799   */\n    tag_391:\n        /* \"#utility.yul\":3185:3190   */\n      0x00\n        /* \"#utility.yul\":3238:3241   */\n      dup3\n        /* \"#utility.yul\":3231:3235   */\n      0x1f\n        /* \"#utility.yul\":3223:3229   */\n      dup4\n        /* \"#utility.yul\":3219:3236   */\n      add\n        /* \"#utility.yul\":3215:3242   */\n      slt\n        /* \"#utility.yul\":3205:3260   */\n      tag_427\n      jumpi\n        /* \"#utility.yul\":3256:3257   */\n      0x00\n        /* \"#utility.yul\":3253:3254   */\n      dup1\n        /* \"#utility.yul\":3246:3258   */\n      revert\n        /* \"#utility.yul\":3205:3260   */\n    tag_427:\n        /* \"#utility.yul\":3292:3298   */\n      dup2\n        /* \"#utility.yul\":3279:3299   */\n      calldataload\n        /* \"#utility.yul\":3318:3322   */\n      0x20\n        /* \"#utility.yul\":3342:3402   */\n      tag_428\n        /* \"#utility.yul\":3358:3401   */\n      tag_429\n        /* \"#utility.yul\":3398:3400   */\n      dup4\n        /* \"#utility.yul\":3358:3401   */\n      tag_390\n      jump\t// in\n    tag_429:\n        /* \"#utility.yul\":3342:3402   */\n      tag_389\n      jump\t// in\n    tag_428:\n        /* \"#utility.yul\":3424:3427   */\n      dup1\n        /* \"#utility.yul\":3448:3450   */\n      dup4\n        /* \"#utility.yul\":3443:3446   */\n      dup3\n        /* \"#utility.yul\":3436:3451   */\n      mstore\n        /* \"#utility.yul\":3476:3480   */\n      0x20\n        /* \"#utility.yul\":3471:3474   */\n      dup3\n        /* \"#utility.yul\":3467:3481   */\n      add\n        /* \"#utility.yul\":3460:3481   */\n      swap2\n      pop\n        /* \"#utility.yul\":3533:3537   */\n      0x20\n        /* \"#utility.yul\":3527:3529   */\n      dup5\n        /* \"#utility.yul\":3524:3525   */\n      0x05\n        /* \"#utility.yul\":3520:3530   */\n      shl\n        /* \"#utility.yul\":3512:3518   */\n      dup8\n        /* \"#utility.yul\":3508:3531   */\n      add\n        /* \"#utility.yul\":3504:3538   */\n      add\n        /* \"#utility.yul\":3490:3538   */\n      swap4\n      pop\n        /* \"#utility.yul\":3561:3564   */\n      dup7\n        /* \"#utility.yul\":3553:3559   */\n      dup5\n        /* \"#utility.yul\":3550:3565   */\n      gt\n        /* \"#utility.yul\":3547:3582   */\n      iszero\n      tag_430\n      jumpi\n        /* \"#utility.yul\":3578:3579   */\n      0x00\n        /* \"#utility.yul\":3575:3576   */\n      dup1\n        /* \"#utility.yul\":3568:3580   */\n      revert\n        /* \"#utility.yul\":3547:3582   */\n    tag_430:\n        /* \"#utility.yul\":3614:3618   */\n      0x20\n        /* \"#utility.yul\":3606:3612   */\n      dup7\n        /* \"#utility.yul\":3602:3619   */\n      add\n        /* \"#utility.yul\":3628:3770   */\n    tag_431:\n        /* \"#utility.yul\":3644:3650   */\n      dup5\n        /* \"#utility.yul\":3639:3642   */\n      dup2\n        /* \"#utility.yul\":3636:3651   */\n      lt\n        /* \"#utility.yul\":3628:3770   */\n      iszero\n      tag_433\n      jumpi\n        /* \"#utility.yul\":3710:3727   */\n      dup1\n      calldataload\n        /* \"#utility.yul\":3698:3728   */\n      dup4\n      mstore\n        /* \"#utility.yul\":3748:3760   */\n      swap2\n      dup4\n      add\n      swap2\n        /* \"#utility.yul\":3661:3673   */\n      dup4\n      add\n        /* \"#utility.yul\":3628:3770   */\n      jump(tag_431)\n    tag_433:\n      pop\n        /* \"#utility.yul\":3788:3793   */\n      swap7\n        /* \"#utility.yul\":3131:3799   */\n      swap6\n      pop\n      pop\n      pop\n      pop\n      pop\n      pop\n      jump\t// out\n        /* \"#utility.yul\":3804:4334   */\n    tag_392:\n        /* \"#utility.yul\":3846:3851   */\n      0x00\n        /* \"#utility.yul\":3899:3902   */\n      dup3\n        /* \"#utility.yul\":3892:3896   */\n      0x1f\n        /* \"#utility.yul\":3884:3890   */\n      dup4\n        /* \"#utility.yul\":3880:3897   */\n      add\n        /* \"#utility.yul\":3876:3903   */\n      slt\n        /* \"#utility.yul\":3866:3921   */\n      tag_435\n      jumpi\n        /* \"#utility.yul\":3917:3918   */\n      0x00\n        /* \"#utility.yul\":3914:3915   */\n      dup1\n        /* \"#utility.yul\":3907:3919   */\n      revert\n        /* \"#utility.yul\":3866:3921   */\n    tag_435:\n        /* \"#utility.yul\":3953:3959   */\n      dup2\n        /* \"#utility.yul\":3940:3960   */\n      calldataload\n        /* \"#utility.yul\":3979:3997   */\n      0xffffffffffffffff\n        /* \"#utility.yul\":3975:3977   */\n      dup2\n        /* \"#utility.yul\":3972:3998   */\n      gt\n        /* \"#utility.yul\":3969:4021   */\n      iszero\n      tag_437\n      jumpi\n        /* \"#utility.yul\":4001:4019   */\n      tag_437\n      tag_172\n      jump\t// in\n    tag_437:\n        /* \"#utility.yul\":4045:4100   */\n      tag_438\n        /* \"#utility.yul\":4088:4090   */\n      0x1f\n        /* \"#utility.yul\":4069:4082   */\n      dup3\n      add\n      not(0x1f)\n        /* \"#utility.yul\":4065:4092   */\n      and\n        /* \"#utility.yul\":4094:4098   */\n      0x20\n        /* \"#utility.yul\":4061:4099   */\n      add\n        /* \"#utility.yul\":4045:4100   */\n      tag_389\n      jump\t// in\n    tag_438:\n        /* \"#utility.yul\":4125:4127   */\n      dup2\n        /* \"#utility.yul\":4116:4123   */\n      dup2\n        /* \"#utility.yul\":4109:4128   */\n      mstore\n        /* \"#utility.yul\":4171:4174   */\n      dup5\n        /* \"#utility.yul\":4164:4168   */\n      0x20\n        /* \"#utility.yul\":4159:4161   */\n      dup4\n        /* \"#utility.yul\":4151:4157   */\n      dup7\n        /* \"#utility.yul\":4147:4162   */\n      add\n        /* \"#utility.yul\":4143:4169   */\n      add\n        /* \"#utility.yul\":4140:4175   */\n      gt\n        /* \"#utility.yul\":4137:4192   */\n      iszero\n      tag_439\n      jumpi\n        /* \"#utility.yul\":4188:4189   */\n      0x00\n        /* \"#utility.yul\":4185:4186   */\n      dup1\n        /* \"#utility.yul\":4178:4190   */\n      revert\n        /* \"#utility.yul\":4137:4192   */\n    tag_439:\n        /* \"#utility.yul\":4253:4255   */\n      dup2\n        /* \"#utility.yul\":4246:4250   */\n      0x20\n        /* \"#utility.yul\":4238:4244   */\n      dup6\n        /* \"#utility.yul\":4234:4251   */\n      add\n        /* \"#utility.yul\":4227:4231   */\n      0x20\n        /* \"#utility.yul\":4218:4225   */\n      dup4\n        /* \"#utility.yul\":4214:4232   */\n      add\n        /* \"#utility.yul\":4201:4256   */\n      calldatacopy\n        /* \"#utility.yul\":4301:4302   */\n      0x00\n        /* \"#utility.yul\":4276:4292   */\n      swap2\n      dup2\n      add\n        /* \"#utility.yul\":4294:4298   */\n      0x20\n        /* \"#utility.yul\":4272:4299   */\n      add\n        /* \"#utility.yul\":4265:4303   */\n      swap2\n      swap1\n      swap2\n      mstore\n        /* \"#utility.yul\":4280:4287   */\n      swap4\n        /* \"#utility.yul\":3804:4334   */\n      swap3\n      pop\n      pop\n      pop\n      jump\t// out\n        /* \"#utility.yul\":4339:5207   */\n    tag_64:\n        /* \"#utility.yul\":4484:4490   */\n      0x00\n        /* \"#utility.yul\":4492:4498   */\n      dup1\n        /* \"#utility.yul\":4500:4506   */\n      0x00\n        /* \"#utility.yul\":4508:4514   */\n      dup1\n        /* \"#utility.yul\":4561:4564   */\n      0x80\n        /* \"#utility.yul\":4549:4558   */\n      dup6\n        /* \"#utility.yul\":4540:4547   */\n      dup8\n        /* \"#utility.yul\":4536:4559   */\n      sub\n        /* \"#utility.yul\":4532:4565   */\n      slt\n        /* \"#utility.yul\":4529:4582   */\n      iszero\n      tag_441\n      jumpi\n        /* \"#utility.yul\":4578:4579   */\n      0x00\n        /* \"#utility.yul\":4575:4576   */\n      dup1\n        /* \"#utility.yul\":4568:4580   */\n      revert\n        /* \"#utility.yul\":4529:4582   */\n    tag_441:\n        /* \"#utility.yul\":4601:4630   */\n      tag_442\n        /* \"#utility.yul\":4620:4629   */\n      dup6\n        /* \"#utility.yul\":4601:4630   */\n      tag_385\n      jump\t// in\n    tag_442:\n        /* \"#utility.yul\":4591:4630   */\n      swap4\n      pop\n        /* \"#utility.yul\":4681:4683   */\n      0x20\n        /* \"#utility.yul\":4670:4679   */\n      dup6\n        /* \"#utility.yul\":4666:4684   */\n      add\n        /* \"#utility.yul\":4653:4685   */\n      calldataload\n        /* \"#utility.yul\":4704:4722   */\n      0xffffffffffffffff\n        /* \"#utility.yul\":4745:4747   */\n      dup1\n        /* \"#utility.yul\":4737:4743   */\n      dup3\n        /* \"#utility.yul\":4734:4748   */\n      gt\n        /* \"#utility.yul\":4731:4765   */\n      iszero\n      tag_443\n      jumpi\n        /* \"#utility.yul\":4761:4762   */\n      0x00\n        /* \"#utility.yul\":4758:4759   */\n      dup1\n        /* \"#utility.yul\":4751:4763   */\n      revert\n        /* \"#utility.yul\":4731:4765   */\n    tag_443:\n        /* \"#utility.yul\":4784:4845   */\n      tag_444\n        /* \"#utility.yul\":4837:4844   */\n      dup9\n        /* \"#utility.yul\":4828:4834   */\n      dup4\n        /* \"#utility.yul\":4817:4826   */\n      dup10\n        /* \"#utility.yul\":4813:4835   */\n      add\n        /* \"#utility.yul\":4784:4845   */\n      tag_391\n      jump\t// in\n    tag_444:\n        /* \"#utility.yul\":4774:4845   */\n      swap5\n      pop\n        /* \"#utility.yul\":4898:4900   */\n      0x40\n        /* \"#utility.yul\":4887:4896   */\n      dup8\n        /* \"#utility.yul\":4883:4901   */\n      add\n        /* \"#utility.yul\":4870:4902   */\n      calldataload\n        /* \"#utility.yul\":4854:4902   */\n      swap2\n      pop\n        /* \"#utility.yul\":4927:4929   */\n      dup1\n        /* \"#utility.yul\":4917:4925   */\n      dup3\n        /* \"#utility.yul\":4914:4930   */\n      gt\n        /* \"#utility.yul\":4911:4947   */\n      iszero\n      tag_445\n      jumpi\n        /* \"#utility.yul\":4943:4944   */\n      0x00\n        /* \"#utility.yul\":4940:4941   */\n      dup1\n        /* \"#utility.yul\":4933:4945   */\n      revert\n        /* \"#utility.yul\":4911:4947   */\n    tag_445:\n        /* \"#utility.yul\":4966:5029   */\n      tag_446\n        /* \"#utility.yul\":5021:5028   */\n      dup9\n        /* \"#utility.yul\":5010:5018   */\n      dup4\n        /* \"#utility.yul\":4999:5008   */\n      dup10\n        /* \"#utility.yul\":4995:5019   */\n      add\n        /* \"#utility.yul\":4966:5029   */\n      tag_391\n      jump\t// in\n    tag_446:\n        /* \"#utility.yul\":4956:5029   */\n      swap4\n      pop\n        /* \"#utility.yul\":5082:5084   */\n      0x60\n        /* \"#utility.yul\":5071:5080   */\n      dup8\n        /* \"#utility.yul\":5067:5085   */\n      add\n        /* \"#utility.yul\":5054:5086   */\n      calldataload\n        /* \"#utility.yul\":5038:5086   */\n      swap2\n      pop\n        /* \"#utility.yul\":5111:5113   */\n      dup1\n        /* \"#utility.yul\":5101:5109   */\n      dup3\n        /* \"#utility.yul\":5098:5114   */\n      gt\n        /* \"#utility.yul\":5095:5131   */\n      iszero\n      tag_447\n      jumpi\n        /* \"#utility.yul\":5127:5128   */\n      0x00\n        /* \"#utility.yul\":5124:5125   */\n      dup1\n        /* \"#utility.yul\":5117:5129   */\n      revert\n        /* \"#utility.yul\":5095:5131   */\n    tag_447:\n      pop\n        /* \"#utility.yul\":5150:5201   */\n      tag_448\n        /* \"#utility.yul\":5193:5200   */\n      dup8\n        /* \"#utility.yul\":5182:5190   */\n      dup3\n        /* \"#utility.yul\":5171:5180   */\n      dup9\n        /* \"#utility.yul\":5167:5191   */\n      add\n        /* \"#utility.yul\":5150:5201   */\n      tag_392\n      jump\t// in\n    tag_448:\n        /* \"#utility.yul\":5140:5201   */\n      swap2\n      pop\n      pop\n        /* \"#utility.yul\":4339:5207   */\n      swap3\n      swap6\n      swap2\n      swap5\n      pop\n      swap3\n      pop\n      jump\t// out\n        /* \"#utility.yul\":5212:6155   */\n    tag_68:\n        /* \"#utility.yul\":5366:5372   */\n      0x00\n        /* \"#utility.yul\":5374:5380   */\n      dup1\n        /* \"#utility.yul\":5382:5388   */\n      0x00\n        /* \"#utility.yul\":5390:5396   */\n      dup1\n        /* \"#utility.yul\":5398:5404   */\n      0x00\n        /* \"#utility.yul\":5451:5454   */\n      0xa0\n        /* \"#utility.yul\":5439:5448   */\n      dup7\n        /* \"#utility.yul\":5430:5437   */\n      dup9\n        /* \"#utility.yul\":5426:5449   */\n      sub\n        /* \"#utility.yul\":5422:5455   */\n      slt\n        /* \"#utility.yul\":5419:5472   */\n      iszero\n      tag_450\n      jumpi\n        /* \"#utility.yul\":5468:5469   */\n      0x00\n        /* \"#utility.yul\":5465:5466   */\n      dup1\n        /* \"#utility.yul\":5458:5470   */\n      revert\n        /* \"#utility.yul\":5419:5472   */\n    tag_450:\n        /* \"#utility.yul\":5491:5520   */\n      tag_451\n        /* \"#utility.yul\":5510:5519   */\n      dup7\n        /* \"#utility.yul\":5491:5520   */\n      tag_385\n      jump\t// in\n    tag_451:\n        /* \"#utility.yul\":5481:5520   */\n      swap5\n      pop\n        /* \"#utility.yul\":5539:5577   */\n      tag_452\n        /* \"#utility.yul\":5573:5575   */\n      0x20\n        /* \"#utility.yul\":5562:5571   */\n      dup8\n        /* \"#utility.yul\":5558:5576   */\n      add\n        /* \"#utility.yul\":5539:5577   */\n      tag_385\n      jump\t// in\n    tag_452:\n        /* \"#utility.yul\":5529:5577   */\n      swap4\n      pop\n        /* \"#utility.yul\":5628:5630   */\n      0x40\n        /* \"#utility.yul\":5617:5626   */\n      dup7\n        /* \"#utility.yul\":5613:5631   */\n      add\n        /* \"#utility.yul\":5600:5632   */\n      calldataload\n        /* \"#utility.yul\":5651:5669   */\n      0xffffffffffffffff\n        /* \"#utility.yul\":5692:5694   */\n      dup1\n        /* \"#utility.yul\":5684:5690   */\n      dup3\n        /* \"#utility.yul\":5681:5695   */\n      gt\n        /* \"#utility.yul\":5678:5712   */\n      iszero\n      tag_453\n      jumpi\n        /* \"#utility.yul\":5708:5709   */\n      0x00\n        /* \"#utility.yul\":5705:5706   */\n      dup1\n        /* \"#utility.yul\":5698:5710   */\n      revert\n        /* \"#utility.yul\":5678:5712   */\n    tag_453:\n        /* \"#utility.yul\":5731:5792   */\n      tag_454\n        /* \"#utility.yul\":5784:5791   */\n      dup10\n        /* \"#utility.yul\":5775:5781   */\n      dup4\n        /* \"#utility.yul\":5764:5773   */\n      dup11\n        /* \"#utility.yul\":5760:5782   */\n      add\n        /* \"#utility.yul\":5731:5792   */\n      tag_391\n      jump\t// in\n    tag_454:\n        /* \"#utility.yul\":5721:5792   */\n      swap5\n      pop\n        /* \"#utility.yul\":5845:5847   */\n      0x60\n        /* \"#utility.yul\":5834:5843   */\n      dup9\n        /* \"#utility.yul\":5830:5848   */\n      add\n        /* \"#utility.yul\":5817:5849   */\n      calldataload\n        /* \"#utility.yul\":5801:5849   */\n      swap2\n      pop\n        /* \"#utility.yul\":5874:5876   */\n      dup1\n        /* \"#utility.yul\":5864:5872   */\n      dup3\n        /* \"#utility.yul\":5861:5877   */\n      gt\n        /* \"#utility.yul\":5858:5894   */\n      iszero\n      tag_455\n      jumpi\n        /* \"#utility.yul\":5890:5891   */\n      0x00\n        /* \"#utility.yul\":5887:5888   */\n      dup1\n        /* \"#utility.yul\":5880:5892   */\n      revert\n        /* \"#utility.yul\":5858:5894   */\n    tag_455:\n        /* \"#utility.yul\":5913:5976   */\n      tag_456\n        /* \"#utility.yul\":5968:5975   */\n      dup10\n        /* \"#utility.yul\":5957:5965   */\n      dup4\n        /* \"#utility.yul\":5946:5955   */\n      dup11\n        /* \"#utility.yul\":5942:5966   */\n      add\n        /* \"#utility.yul\":5913:5976   */\n      tag_391\n      jump\t// in\n    tag_456:\n        /* \"#utility.yul\":5903:5976   */\n      swap4\n      pop\n        /* \"#utility.yul\":6029:6032   */\n      0x80\n        /* \"#utility.yul\":6018:6027   */\n      dup9\n        /* \"#utility.yul\":6014:6033   */\n      add\n        /* \"#utility.yul\":6001:6034   */\n      calldataload\n        /* \"#utility.yul\":5985:6034   */\n      swap2\n      pop\n        /* \"#utility.yul\":6059:6061   */\n      dup1\n        /* \"#utility.yul\":6049:6057   */\n      dup3\n        /* \"#utility.yul\":6046:6062   */\n      gt\n        /* \"#utility.yul\":6043:6079   */\n      iszero\n      tag_457\n      jumpi\n        /* \"#utility.yul\":6075:6076   */\n      0x00\n        /* \"#utility.yul\":6072:6073   */\n      dup1\n        /* \"#utility.yul\":6065:6077   */\n      revert\n        /* \"#utility.yul\":6043:6079   */\n    tag_457:\n      pop\n        /* \"#utility.yul\":6098:6149   */\n      tag_458\n        /* \"#utility.yul\":6141:6148   */\n      dup9\n        /* \"#utility.yul\":6130:6138   */\n      dup3\n        /* \"#utility.yul\":6119:6128   */\n      dup10\n        /* \"#utility.yul\":6115:6139   */\n      add\n        /* \"#utility.yul\":6098:6149   */\n      tag_392\n      jump\t// in\n    tag_458:\n        /* \"#utility.yul\":6088:6149   */\n      swap2\n      pop\n      pop\n        /* \"#utility.yul\":5212:6155   */\n      swap3\n      swap6\n      pop\n      swap3\n      swap6\n      swap1\n      swap4\n      pop\n      jump\t// out\n        /* \"#utility.yul\":6160:7306   */\n    tag_78:\n        /* \"#utility.yul\":6278:6284   */\n      0x00\n        /* \"#utility.yul\":6286:6292   */\n      dup1\n        /* \"#utility.yul\":6339:6341   */\n      0x40\n        /* \"#utility.yul\":6327:6336   */\n      dup4\n        /* \"#utility.yul\":6318:6325   */\n      dup6\n        /* \"#utility.yul\":6314:6337   */\n      sub\n        /* \"#utility.yul\":6310:6342   */\n      slt\n        /* \"#utility.yul\":6307:6359   */\n      iszero\n      tag_460\n      jumpi\n        /* \"#utility.yul\":6355:6356   */\n      0x00\n        /* \"#utility.yul\":6352:6353   */\n      dup1\n        /* \"#utility.yul\":6345:6357   */\n      revert\n        /* \"#utility.yul\":6307:6359   */\n    tag_460:\n        /* \"#utility.yul\":6395:6404   */\n      dup3\n        /* \"#utility.yul\":6382:6405   */\n      calldataload\n        /* \"#utility.yul\":6424:6442   */\n      0xffffffffffffffff\n        /* \"#utility.yul\":6465:6467   */\n      dup1\n        /* \"#utility.yul\":6457:6463   */\n      dup3\n        /* \"#utility.yul\":6454:6468   */\n      gt\n        /* \"#utility.yul\":6451:6485   */\n      iszero\n      tag_461\n      jumpi\n        /* \"#utility.yul\":6481:6482   */\n      0x00\n        /* \"#utility.yul\":6478:6479   */\n      dup1\n        /* \"#utility.yul\":6471:6483   */\n      revert\n        /* \"#utility.yul\":6451:6485   */\n    tag_461:\n        /* \"#utility.yul\":6519:6525   */\n      dup2\n        /* \"#utility.yul\":6508:6517   */\n      dup6\n        /* \"#utility.yul\":6504:6526   */\n      add\n        /* \"#utility.yul\":6494:6526   */\n      swap2\n      pop\n        /* \"#utility.yul\":6564:6571   */\n      dup6\n        /* \"#utility.yul\":6557:6561   */\n      0x1f\n        /* \"#utility.yul\":6553:6555   */\n      dup4\n        /* \"#utility.yul\":6549:6562   */\n      add\n        /* \"#utility.yul\":6545:6572   */\n      slt\n        /* \"#utility.yul\":6535:6590   */\n      tag_462\n      jumpi\n        /* \"#utility.yul\":6586:6587   */\n      0x00\n        /* \"#utility.yul\":6583:6584   */\n      dup1\n        /* \"#utility.yul\":6576:6588   */\n      revert\n        /* \"#utility.yul\":6535:6590   */\n    tag_462:\n        /* \"#utility.yul\":6622:6624   */\n      dup2\n        /* \"#utility.yul\":6609:6625   */\n      calldataload\n        /* \"#utility.yul\":6644:6648   */\n      0x20\n        /* \"#utility.yul\":6668:6728   */\n      tag_463\n        /* \"#utility.yul\":6684:6727   */\n      tag_429\n        /* \"#utility.yul\":6724:6726   */\n      dup4\n        /* \"#utility.yul\":6684:6727   */\n      tag_390\n      jump\t// in\n        /* \"#utility.yul\":6668:6728   */\n    tag_463:\n        /* \"#utility.yul\":6762:6777   */\n      dup3\n      dup2\n      mstore\n        /* \"#utility.yul\":6844:6845   */\n      0x05\n        /* \"#utility.yul\":6840:6850   */\n      swap3\n      swap1\n      swap3\n      shl\n        /* \"#utility.yul\":6832:6851   */\n      dup5\n      add\n        /* \"#utility.yul\":6828:6856   */\n      dup2\n      add\n      swap2\n        /* \"#utility.yul\":6793:6805   */\n      dup2\n      dup2\n      add\n      swap1\n        /* \"#utility.yul\":6868:6887   */\n      dup10\n      dup5\n      gt\n        /* \"#utility.yul\":6865:6904   */\n      iszero\n      tag_465\n      jumpi\n        /* \"#utility.yul\":6900:6901   */\n      0x00\n        /* \"#utility.yul\":6897:6898   */\n      dup1\n        /* \"#utility.yul\":6890:6902   */\n      revert\n        /* \"#utility.yul\":6865:6904   */\n    tag_465:\n        /* \"#utility.yul\":6924:6935   */\n      swap5\n      dup3\n      add\n      swap5\n        /* \"#utility.yul\":6944:7092   */\n    tag_466:\n        /* \"#utility.yul\":6960:6966   */\n      dup4\n        /* \"#utility.yul\":6955:6958   */\n      dup7\n        /* \"#utility.yul\":6952:6967   */\n      lt\n        /* \"#utility.yul\":6944:7092   */\n      iszero\n      tag_468\n      jumpi\n        /* \"#utility.yul\":7026:7049   */\n      tag_469\n        /* \"#utility.yul\":7045:7048   */\n      dup7\n        /* \"#utility.yul\":7026:7049   */\n      tag_385\n      jump\t// in\n    tag_469:\n        /* \"#utility.yul\":7014:7050   */\n      dup3\n      mstore\n        /* \"#utility.yul\":6977:6989   */\n      swap5\n      dup3\n      add\n      swap5\n        /* \"#utility.yul\":7070:7082   */\n      swap1\n      dup3\n      add\n      swap1\n        /* \"#utility.yul\":6944:7092   */\n      jump(tag_466)\n    tag_468:\n        /* \"#utility.yul\":7111:7116   */\n      swap7\n      pop\n      pop\n        /* \"#utility.yul\":7154:7172   */\n      dup7\n      add\n        /* \"#utility.yul\":7141:7173   */\n      calldataload\n      swap3\n      pop\n      pop\n        /* \"#utility.yul\":7185:7201   */\n      dup1\n      dup3\n      gt\n        /* \"#utility.yul\":7182:7218   */\n      iszero\n      tag_470\n      jumpi\n        /* \"#utility.yul\":7214:7215   */\n      0x00\n        /* \"#utility.yul\":7211:7212   */\n      dup1\n        /* \"#utility.yul\":7204:7216   */\n      revert\n        /* \"#utility.yul\":7182:7218   */\n    tag_470:\n      pop\n        /* \"#utility.yul\":7237:7300   */\n      tag_471\n        /* \"#utility.yul\":7292:7299   */\n      dup6\n        /* \"#utility.yul\":7281:7289   */\n      dup3\n        /* \"#utility.yul\":7270:7279   */\n      dup7\n        /* \"#utility.yul\":7266:7290   */\n      add\n        /* \"#utility.yul\":7237:7300   */\n      tag_391\n      jump\t// in\n    tag_471:\n        /* \"#utility.yul\":7227:7300   */\n      swap2\n      pop\n      pop\n        /* \"#utility.yul\":6160:7306   */\n      swap3\n      pop\n      swap3\n      swap1\n      pop\n      jump\t// out\n        /* \"#utility.yul\":7311:7750   */\n    tag_393:\n        /* \"#utility.yul\":7364:7367   */\n      0x00\n        /* \"#utility.yul\":7402:7407   */\n      dup2\n        /* \"#utility.yul\":7396:7408   */\n      mload\n        /* \"#utility.yul\":7429:7435   */\n      dup1\n        /* \"#utility.yul\":7424:7427   */\n      dup5\n        /* \"#utility.yul\":7417:7436   */\n      mstore\n        /* \"#utility.yul\":7455:7459   */\n      0x20\n        /* \"#utility.yul\":7484:7488   */\n      dup1\n        /* \"#utility.yul\":7479:7482   */\n      dup6\n        /* \"#utility.yul\":7475:7489   */\n      add\n        /* \"#utility.yul\":7468:7489   */\n      swap5\n      pop\n        /* \"#utility.yul\":7523:7527   */\n      0x20\n        /* \"#utility.yul\":7516:7521   */\n      dup5\n        /* \"#utility.yul\":7512:7528   */\n      add\n        /* \"#utility.yul\":7546:7547   */\n      0x00\n        /* \"#utility.yul\":7556:7725   */\n    tag_473:\n        /* \"#utility.yul\":7570:7576   */\n      dup4\n        /* \"#utility.yul\":7567:7568   */\n      dup2\n        /* \"#utility.yul\":7564:7577   */\n      lt\n        /* \"#utility.yul\":7556:7725   */\n      iszero\n      tag_475\n      jumpi\n        /* \"#utility.yul\":7631:7644   */\n      dup2\n      mload\n        /* \"#utility.yul\":7619:7645   */\n      dup8\n      mstore\n        /* \"#utility.yul\":7665:7677   */\n      swap6\n      dup3\n      add\n      swap6\n        /* \"#utility.yul\":7700:7715   */\n      swap1\n      dup3\n      add\n      swap1\n        /* \"#utility.yul\":7592:7593   */\n      0x01\n        /* \"#utility.yul\":7585:7594   */\n      add\n        /* \"#utility.yul\":7556:7725   */\n      jump(tag_473)\n    tag_475:\n      pop\n        /* \"#utility.yul\":7741:7744   */\n      swap5\n      swap6\n        /* \"#utility.yul\":7311:7750   */\n      swap5\n      pop\n      pop\n      pop\n      pop\n      pop\n      jump\t// out\n        /* \"#utility.yul\":7755:8016   */\n    tag_81:\n        /* \"#utility.yul\":7934:7936   */\n      0x20\n        /* \"#utility.yul\":7923:7932   */\n      dup2\n        /* \"#utility.yul\":7916:7937   */\n      mstore\n        /* \"#utility.yul\":7897:7901   */\n      0x00\n        /* \"#utility.yul\":7954:8010   */\n      tag_405\n        /* \"#utility.yul\":8006:8008   */\n      0x20\n        /* \"#utility.yul\":7995:8004   */\n      dup4\n        /* \"#utility.yul\":7991:8009   */\n      add\n        /* \"#utility.yul\":7983:7989   */\n      dup5\n        /* \"#utility.yul\":7954:8010   */\n      tag_393\n      jump\t// in\n        /* \"#utility.yul\":8021:8690   */\n    tag_84:\n        /* \"#utility.yul\":8148:8154   */\n      0x00\n        /* \"#utility.yul\":8156:8162   */\n      dup1\n        /* \"#utility.yul\":8164:8170   */\n      0x00\n        /* \"#utility.yul\":8217:8219   */\n      0x60\n        /* \"#utility.yul\":8205:8214   */\n      dup5\n        /* \"#utility.yul\":8196:8203   */\n      dup7\n        /* \"#utility.yul\":8192:8215   */\n      sub\n        /* \"#utility.yul\":8188:8220   */\n      slt\n        /* \"#utility.yul\":8185:8237   */\n      iszero\n      tag_479\n      jumpi\n        /* \"#utility.yul\":8233:8234   */\n      0x00\n        /* \"#utility.yul\":8230:8231   */\n      dup1\n        /* \"#utility.yul\":8223:8235   */\n      revert\n        /* \"#utility.yul\":8185:8237   */\n    tag_479:\n        /* \"#utility.yul\":8256:8285   */\n      tag_480\n        /* \"#utility.yul\":8275:8284   */\n      dup5\n        /* \"#utility.yul\":8256:8285   */\n      tag_385\n      jump\t// in\n    tag_480:\n        /* \"#utility.yul\":8246:8285   */\n      swap3\n      pop\n        /* \"#utility.yul\":8336:8338   */\n      0x20\n        /* \"#utility.yul\":8325:8334   */\n      dup5\n        /* \"#utility.yul\":8321:8339   */\n      add\n        /* \"#utility.yul\":8308:8340   */\n      calldataload\n        /* \"#utility.yul\":8359:8377   */\n      0xffffffffffffffff\n        /* \"#utility.yul\":8400:8402   */\n      dup1\n        /* \"#utility.yul\":8392:8398   */\n      dup3\n        /* \"#utility.yul\":8389:8403   */\n      gt\n        /* \"#utility.yul\":8386:8420   */\n      iszero\n      tag_481\n      jumpi\n        /* \"#utility.yul\":8416:8417   */\n      0x00\n        /* \"#utility.yul\":8413:8414   */\n      dup1\n        /* \"#utility.yul\":8406:8418   */\n      revert\n        /* \"#utility.yul\":8386:8420   */\n    tag_481:\n        /* \"#utility.yul\":8439:8500   */\n      tag_482\n        /* \"#utility.yul\":8492:8499   */\n      dup8\n        /* \"#utility.yul\":8483:8489   */\n      dup4\n        /* \"#utility.yul\":8472:8481   */\n      dup9\n        /* \"#utility.yul\":8468:8490   */\n      add\n        /* \"#utility.yul\":8439:8500   */\n      tag_391\n      jump\t// in\n    tag_482:\n        /* \"#utility.yul\":8429:8500   */\n      swap4\n      pop\n        /* \"#utility.yul\":8553:8555   */\n      0x40\n        /* \"#utility.yul\":8542:8551   */\n      dup7\n        /* \"#utility.yul\":8538:8556   */\n      add\n        /* \"#utility.yul\":8525:8557   */\n      calldataload\n        /* \"#utility.yul\":8509:8557   */\n      swap2\n      pop\n        /* \"#utility.yul\":8582:8584   */\n      dup1\n        /* \"#utility.yul\":8572:8580   */\n      dup3\n        /* \"#utility.yul\":8569:8585   */\n      gt\n        /* \"#utility.yul\":8566:8602   */\n      iszero\n      tag_483\n      jumpi\n        /* \"#utility.yul\":8598:8599   */\n      0x00\n        /* \"#utility.yul\":8595:8596   */\n      dup1\n        /* \"#utility.yul\":8588:8600   */\n      revert\n        /* \"#utility.yul\":8566:8602   */\n    tag_483:\n      pop\n        /* \"#utility.yul\":8621:8684   */\n      tag_484\n        /* \"#utility.yul\":8676:8683   */\n      dup7\n        /* \"#utility.yul\":8665:8673   */\n      dup3\n        /* \"#utility.yul\":8654:8663   */\n      dup8\n        /* \"#utility.yul\":8650:8674   */\n      add\n        /* \"#utility.yul\":8621:8684   */\n      tag_391\n      jump\t// in\n    tag_484:\n        /* \"#utility.yul\":8611:8684   */\n      swap2\n      pop\n      pop\n        /* \"#utility.yul\":8021:8690   */\n      swap3\n      pop\n      swap3\n      pop\n      swap3\n      jump\t// out\n        /* \"#utility.yul\":8926:9273   */\n    tag_97:\n        /* \"#utility.yul\":8991:8997   */\n      0x00\n        /* \"#utility.yul\":8999:9005   */\n      dup1\n        /* \"#utility.yul\":9052:9054   */\n      0x40\n        /* \"#utility.yul\":9040:9049   */\n      dup4\n        /* \"#utility.yul\":9031:9038   */\n      dup6\n        /* \"#utility.yul\":9027:9050   */\n      sub\n        /* \"#utility.yul\":9023:9055   */\n      slt\n        /* \"#utility.yul\":9020:9072   */\n      iszero\n      tag_487\n      jumpi\n        /* \"#utility.yul\":9068:9069   */\n      0x00\n        /* \"#utility.yul\":9065:9066   */\n      dup1\n        /* \"#utility.yul\":9058:9070   */\n      revert\n        /* \"#utility.yul\":9020:9072   */\n    tag_487:\n        /* \"#utility.yul\":9091:9120   */\n      tag_488\n        /* \"#utility.yul\":9110:9119   */\n      dup4\n        /* \"#utility.yul\":9091:9120   */\n      tag_385\n      jump\t// in\n    tag_488:\n        /* \"#utility.yul\":9081:9120   */\n      swap2\n      pop\n        /* \"#utility.yul\":9170:9172   */\n      0x20\n        /* \"#utility.yul\":9159:9168   */\n      dup4\n        /* \"#utility.yul\":9155:9173   */\n      add\n        /* \"#utility.yul\":9142:9174   */\n      calldataload\n        /* \"#utility.yul\":9217:9222   */\n      dup1\n        /* \"#utility.yul\":9210:9223   */\n      iszero\n        /* \"#utility.yul\":9203:9224   */\n      iszero\n        /* \"#utility.yul\":9196:9201   */\n      dup2\n        /* \"#utility.yul\":9193:9225   */\n      eq\n        /* \"#utility.yul\":9183:9243   */\n      tag_489\n      jumpi\n        /* \"#utility.yul\":9239:9240   */\n      0x00\n        /* \"#utility.yul\":9236:9237   */\n      dup1\n        /* \"#utility.yul\":9229:9241   */\n      revert\n        /* \"#utility.yul\":9183:9243   */\n    tag_489:\n        /* \"#utility.yul\":9262:9267   */\n      dup1\n        /* \"#utility.yul\":9252:9267   */\n      swap2\n      pop\n      pop\n        /* \"#utility.yul\":8926:9273   */\n      swap3\n      pop\n      swap3\n      swap1\n      pop\n      jump\t// out\n        /* \"#utility.yul\":9278:9538   */\n    tag_110:\n        /* \"#utility.yul\":9346:9352   */\n      0x00\n        /* \"#utility.yul\":9354:9360   */\n      dup1\n        /* \"#utility.yul\":9407:9409   */\n      0x40\n        /* \"#utility.yul\":9395:9404   */\n      dup4\n        /* \"#utility.yul\":9386:9393   */\n      dup6\n        /* \"#utility.yul\":9382:9405   */\n      sub\n        /* \"#utility.yul\":9378:9410   */\n      slt\n        /* \"#utility.yul\":9375:9427   */\n      iszero\n      tag_491\n      jumpi\n        /* \"#utility.yul\":9423:9424   */\n      0x00\n        /* \"#utility.yul\":9420:9421   */\n      dup1\n        /* \"#utility.yul\":9413:9425   */\n      revert\n        /* \"#utility.yul\":9375:9427   */\n    tag_491:\n        /* \"#utility.yul\":9446:9475   */\n      tag_492\n        /* \"#utility.yul\":9465:9474   */\n      dup4\n        /* \"#utility.yul\":9446:9475   */\n      tag_385\n      jump\t// in\n    tag_492:\n        /* \"#utility.yul\":9436:9475   */\n      swap2\n      pop\n        /* \"#utility.yul\":9494:9532   */\n      tag_493\n        /* \"#utility.yul\":9528:9530   */\n      0x20\n        /* \"#utility.yul\":9517:9526   */\n      dup5\n        /* \"#utility.yul\":9513:9531   */\n      add\n        /* \"#utility.yul\":9494:9532   */\n      tag_385\n      jump\t// in\n    tag_493:\n        /* \"#utility.yul\":9484:9532   */\n      swap1\n      pop\n        /* \"#utility.yul\":9278:9538   */\n      swap3\n      pop\n      swap3\n      swap1\n      pop\n      jump\t// out\n        /* \"#utility.yul\":9543:10149   */\n    tag_115:\n        /* \"#utility.yul\":9647:9653   */\n      0x00\n        /* \"#utility.yul\":9655:9661   */\n      dup1\n        /* \"#utility.yul\":9663:9669   */\n      0x00\n        /* \"#utility.yul\":9671:9677   */\n      dup1\n        /* \"#utility.yul\":9679:9685   */\n      0x00\n        /* \"#utility.yul\":9732:9735   */\n      0xa0\n        /* \"#utility.yul\":9720:9729   */\n      dup7\n        /* \"#utility.yul\":9711:9718   */\n      dup9\n        /* \"#utility.yul\":9707:9730   */\n      sub\n        /* \"#utility.yul\":9703:9736   */\n      slt\n        /* \"#utility.yul\":9700:9753   */\n      iszero\n      tag_495\n      jumpi\n        /* \"#utility.yul\":9749:9750   */\n      0x00\n        /* \"#utility.yul\":9746:9747   */\n      dup1\n        /* \"#utility.yul\":9739:9751   */\n      revert\n        /* \"#utility.yul\":9700:9753   */\n    tag_495:\n        /* \"#utility.yul\":9772:9801   */\n      tag_496\n        /* \"#utility.yul\":9791:9800   */\n      dup7\n        /* \"#utility.yul\":9772:9801   */\n      tag_385\n      jump\t// in\n    tag_496:\n        /* \"#utility.yul\":9762:9801   */\n      swap5\n      pop\n        /* \"#utility.yul\":9820:9858   */\n      tag_497\n        /* \"#utility.yul\":9854:9856   */\n      0x20\n        /* \"#utility.yul\":9843:9852   */\n      dup8\n        /* \"#utility.yul\":9839:9857   */\n      add\n        /* \"#utility.yul\":9820:9858   */\n      tag_385\n      jump\t// in\n    tag_497:\n        /* \"#utility.yul\":9810:9858   */\n      swap4\n      pop\n        /* \"#utility.yul\":9905:9907   */\n      0x40\n        /* \"#utility.yul\":9894:9903   */\n      dup7\n        /* \"#utility.yul\":9890:9908   */\n      add\n        /* \"#utility.yul\":9877:9909   */\n      calldataload\n        /* \"#utility.yul\":9867:9909   */\n      swap3\n      pop\n        /* \"#utility.yul\":9956:9958   */\n      0x60\n        /* \"#utility.yul\":9945:9954   */\n      dup7\n        /* \"#utility.yul\":9941:9959   */\n      add\n        /* \"#utility.yul\":9928:9960   */\n      calldataload\n        /* \"#utility.yul\":9918:9960   */\n      swap2\n      pop\n        /* \"#utility.yul\":10011:10014   */\n      0x80\n        /* \"#utility.yul\":10000:10009   */\n      dup7\n        /* \"#utility.yul\":9996:10015   */\n      add\n        /* \"#utility.yul\":9983:10016   */\n      calldataload\n        /* \"#utility.yul\":10039:10057   */\n      0xffffffffffffffff\n        /* \"#utility.yul\":10031:10037   */\n      dup2\n        /* \"#utility.yul\":10028:10058   */\n      gt\n        /* \"#utility.yul\":10025:10075   */\n      iszero\n      tag_498\n      jumpi\n        /* \"#utility.yul\":10071:10072   */\n      0x00\n        /* \"#utility.yul\":10068:10069   */\n      dup1\n        /* \"#utility.yul\":10061:10073   */\n      revert\n        /* \"#utility.yul\":10025:10075   */\n    tag_498:\n        /* \"#utility.yul\":10094:10143   */\n      tag_458\n        /* \"#utility.yul\":10135:10142   */\n      dup9\n        /* \"#utility.yul\":10126:10132   */\n      dup3\n        /* \"#utility.yul\":10115:10124   */\n      dup10\n        /* \"#utility.yul\":10111:10133   */\n      add\n        /* \"#utility.yul\":10094:10143   */\n      tag_392\n      jump\t// in\n        /* \"#utility.yul\":10154:10340   */\n    tag_119:\n        /* \"#utility.yul\":10213:10219   */\n      0x00\n        /* \"#utility.yul\":10266:10268   */\n      0x20\n        /* \"#utility.yul\":10254:10263   */\n      dup3\n        /* \"#utility.yul\":10245:10252   */\n      dup5\n        /* \"#utility.yul\":10241:10264   */\n      sub\n        /* \"#utility.yul\":10237:10269   */\n      slt\n        /* \"#utility.yul\":10234:10286   */\n      iszero\n      tag_501\n      jumpi\n        /* \"#utility.yul\":10282:10283   */\n      0x00\n        /* \"#utility.yul\":10279:10280   */\n      dup1\n        /* \"#utility.yul\":10272:10284   */\n      revert\n        /* \"#utility.yul\":10234:10286   */\n    tag_501:\n        /* \"#utility.yul\":10305:10334   */\n      tag_405\n        /* \"#utility.yul\":10324:10333   */\n      dup3\n        /* \"#utility.yul\":10305:10334   */\n      tag_385\n      jump\t// in\n        /* \"#utility.yul\":10345:10667   */\n    tag_123:\n        /* \"#utility.yul\":10422:10428   */\n      0x00\n        /* \"#utility.yul\":10430:10436   */\n      dup1\n        /* \"#utility.yul\":10438:10444   */\n      0x00\n        /* \"#utility.yul\":10491:10493   */\n      0x60\n        /* \"#utility.yul\":10479:10488   */\n      dup5\n        /* \"#utility.yul\":10470:10477   */\n      dup7\n        /* \"#utility.yul\":10466:10489   */\n      sub\n        /* \"#utility.yul\":10462:10494   */\n      slt\n        /* \"#utility.yul\":10459:10511   */\n      iszero\n      tag_504\n      jumpi\n        /* \"#utility.yul\":10507:10508   */\n      0x00\n        /* \"#utility.yul\":10504:10505   */\n      dup1\n        /* \"#utility.yul\":10497:10509   */\n      revert\n        /* \"#utility.yul\":10459:10511   */\n    tag_504:\n        /* \"#utility.yul\":10530:10559   */\n      tag_505\n        /* \"#utility.yul\":10549:10558   */\n      dup5\n        /* \"#utility.yul\":10530:10559   */\n      tag_385\n      jump\t// in\n    tag_505:\n        /* \"#utility.yul\":10520:10559   */\n      swap6\n        /* \"#utility.yul\":10606:10608   */\n      0x20\n        /* \"#utility.yul\":10591:10609   */\n      dup6\n      add\n        /* \"#utility.yul\":10578:10610   */\n      calldataload\n      swap6\n      pop\n        /* \"#utility.yul\":10657:10659   */\n      0x40\n        /* \"#utility.yul\":10642:10660   */\n      swap1\n      swap5\n      add\n        /* \"#utility.yul\":10629:10661   */\n      calldataload\n      swap4\n        /* \"#utility.yul\":10345:10667   */\n      swap3\n      pop\n      pop\n      pop\n      jump\t// out\n        /* \"#utility.yul\":10672:11168   */\n    tag_137:\n        /* \"#utility.yul\":10851:10854   */\n      0x00\n        /* \"#utility.yul\":10889:10895   */\n      dup4\n        /* \"#utility.yul\":10883:10896   */\n      mload\n        /* \"#utility.yul\":10905:10971   */\n      tag_507\n        /* \"#utility.yul\":10964:10970   */\n      dup2\n        /* \"#utility.yul\":10959:10962   */\n      dup5\n        /* \"#utility.yul\":10952:10956   */\n      0x20\n        /* \"#utility.yul\":10944:10950   */\n      dup9\n        /* \"#utility.yul\":10940:10957   */\n      add\n        /* \"#utility.yul\":10905:10971   */\n      tag_387\n      jump\t// in\n    tag_507:\n        /* \"#utility.yul\":11034:11047   */\n      dup4\n      mload\n        /* \"#utility.yul\":10993:11009   */\n      swap1\n      dup4\n      add\n      swap1\n        /* \"#utility.yul\":11056:11126   */\n      tag_508\n        /* \"#utility.yul\":11034:11047   */\n      dup2\n        /* \"#utility.yul\":10993:11009   */\n      dup4\n        /* \"#utility.yul\":11103:11107   */\n      0x20\n        /* \"#utility.yul\":11091:11108   */\n      dup9\n      add\n        /* \"#utility.yul\":11056:11126   */\n      tag_387\n      jump\t// in\n    tag_508:\n        /* \"#utility.yul\":11142:11162   */\n      add\n      swap5\n        /* \"#utility.yul\":10672:11168   */\n      swap4\n      pop\n      pop\n      pop\n      pop\n      jump\t// out\n        /* \"#utility.yul\":11518:11797   */\n    tag_144:\n        /* \"#utility.yul\":11583:11592   */\n      dup1\n      dup3\n      add\n        /* \"#utility.yul\":11604:11614   */\n      dup1\n      dup3\n      gt\n        /* \"#utility.yul\":11601:11791   */\n      iszero\n      tag_125\n      jumpi\n      shl(0xe0, 0x4e487b71)\n        /* \"#utility.yul\":11644:11645   */\n      0x00\n        /* \"#utility.yul\":11637:11725   */\n      mstore\n        /* \"#utility.yul\":11748:11752   */\n      0x11\n        /* \"#utility.yul\":11745:11746   */\n      0x04\n        /* \"#utility.yul\":11738:11753   */\n      mstore\n        /* \"#utility.yul\":11776:11780   */\n      0x24\n        /* \"#utility.yul\":11773:11774   */\n      0x00\n        /* \"#utility.yul\":11766:11781   */\n      revert\n        /* \"#utility.yul\":12729:12913   */\n    tag_184:\n      shl(0xe0, 0x4e487b71)\n        /* \"#utility.yul\":12778:12779   */\n      0x00\n        /* \"#utility.yul\":12771:12859   */\n      mstore\n        /* \"#utility.yul\":12878:12882   */\n      0x32\n        /* \"#utility.yul\":12875:12876   */\n      0x04\n        /* \"#utility.yul\":12868:12883   */\n      mstore\n        /* \"#utility.yul\":12902:12906   */\n      0x24\n        /* \"#utility.yul\":12899:12900   */\n      0x00\n        /* \"#utility.yul\":12892:12907   */\n      revert\n        /* \"#utility.yul\":13279:13716   */\n    tag_228:\n        /* \"#utility.yul\":13358:13359   */\n      0x01\n        /* \"#utility.yul\":13354:13366   */\n      dup2\n      dup2\n      shr\n      swap1\n        /* \"#utility.yul\":13401:13413   */\n      dup3\n      and\n      dup1\n        /* \"#utility.yul\":13422:13483   */\n      tag_518\n      jumpi\n        /* \"#utility.yul\":13476:13480   */\n      0x7f\n        /* \"#utility.yul\":13468:13474   */\n      dup3\n        /* \"#utility.yul\":13464:13481   */\n      and\n        /* \"#utility.yul\":13454:13481   */\n      swap2\n      pop\n        /* \"#utility.yul\":13422:13483   */\n    tag_518:\n        /* \"#utility.yul\":13529:13531   */\n      0x20\n        /* \"#utility.yul\":13521:13527   */\n      dup3\n        /* \"#utility.yul\":13518:13532   */\n      lt\n        /* \"#utility.yul\":13498:13516   */\n      dup2\n        /* \"#utility.yul\":13495:13533   */\n      sub\n        /* \"#utility.yul\":13492:13710   */\n      tag_519\n      jumpi\n      shl(0xe0, 0x4e487b71)\n        /* \"#utility.yul\":13563:13564   */\n      0x00\n        /* \"#utility.yul\":13556:13644   */\n      mstore\n        /* \"#utility.yul\":13667:13671   */\n      0x22\n        /* \"#utility.yul\":13664:13665   */\n      0x04\n        /* \"#utility.yul\":13657:13672   */\n      mstore\n        /* \"#utility.yul\":13695:13699   */\n      0x24\n        /* \"#utility.yul\":13692:13693   */\n      0x00\n        /* \"#utility.yul\":13685:13700   */\n      revert\n        /* \"#utility.yul\":13492:13710   */\n    tag_519:\n      pop\n        /* \"#utility.yul\":13279:13716   */\n      swap2\n      swap1\n      pop\n      jump\t// out\n        /* \"#utility.yul\":14355:14820   */\n    tag_347:\n        /* \"#utility.yul\":14612:14614   */\n      0x40\n        /* \"#utility.yul\":14601:14610   */\n      dup2\n        /* \"#utility.yul\":14594:14615   */\n      mstore\n        /* \"#utility.yul\":14575:14579   */\n      0x00\n        /* \"#utility.yul\":14638:14694   */\n      tag_523\n        /* \"#utility.yul\":14690:14692   */\n      0x40\n        /* \"#utility.yul\":14679:14688   */\n      dup4\n        /* \"#utility.yul\":14675:14693   */\n      add\n        /* \"#utility.yul\":14667:14673   */\n      dup6\n        /* \"#utility.yul\":14638:14694   */\n      tag_393\n      jump\t// in\n    tag_523:\n        /* \"#utility.yul\":14742:14751   */\n      dup3\n        /* \"#utility.yul\":14734:14740   */\n      dup2\n        /* \"#utility.yul\":14730:14752   */\n      sub\n        /* \"#utility.yul\":14725:14727   */\n      0x20\n        /* \"#utility.yul\":14714:14723   */\n      dup5\n        /* \"#utility.yul\":14710:14728   */\n      add\n        /* \"#utility.yul\":14703:14753   */\n      mstore\n        /* \"#utility.yul\":14770:14814   */\n      tag_524\n        /* \"#utility.yul\":14807:14813   */\n      dup2\n        /* \"#utility.yul\":14799:14805   */\n      dup6\n        /* \"#utility.yul\":14770:14814   */\n      tag_393\n      jump\t// in\n    tag_524:\n        /* \"#utility.yul\":14762:14814   */\n      swap6\n        /* \"#utility.yul\":14355:14820   */\n      swap5\n      pop\n      pop\n      pop\n      pop\n      pop\n      jump\t// out\n        /* \"#utility.yul\":14825:15409   */\n    tag_351:\n        /* \"#utility.yul\":15047:15051   */\n      0x00\n      sub(shl(0xa0, 0x01), 0x01)\n        /* \"#utility.yul\":15157:15159   */\n      dup1\n        /* \"#utility.yul\":15149:15155   */\n      dup9\n        /* \"#utility.yul\":15145:15160   */\n      and\n        /* \"#utility.yul\":15134:15143   */\n      dup4\n        /* \"#utility.yul\":15127:15161   */\n      mstore\n        /* \"#utility.yul\":15209:15211   */\n      dup1\n        /* \"#utility.yul\":15201:15207   */\n      dup8\n        /* \"#utility.yul\":15197:15212   */\n      and\n        /* \"#utility.yul\":15192:15194   */\n      0x20\n        /* \"#utility.yul\":15181:15190   */\n      dup5\n        /* \"#utility.yul\":15177:15195   */\n      add\n        /* \"#utility.yul\":15170:15213   */\n      mstore\n      pop\n        /* \"#utility.yul\":15249:15255   */\n      dup5\n        /* \"#utility.yul\":15244:15246   */\n      0x40\n        /* \"#utility.yul\":15233:15242   */\n      dup4\n        /* \"#utility.yul\":15229:15247   */\n      add\n        /* \"#utility.yul\":15222:15256   */\n      mstore\n        /* \"#utility.yul\":15292:15298   */\n      dup4\n        /* \"#utility.yul\":15287:15289   */\n      0x60\n        /* \"#utility.yul\":15276:15285   */\n      dup4\n        /* \"#utility.yul\":15272:15290   */\n      add\n        /* \"#utility.yul\":15265:15299   */\n      mstore\n        /* \"#utility.yul\":15336:15339   */\n      0xa0\n        /* \"#utility.yul\":15330:15333   */\n      0x80\n        /* \"#utility.yul\":15319:15328   */\n      dup4\n        /* \"#utility.yul\":15315:15334   */\n      add\n        /* \"#utility.yul\":15308:15340   */\n      mstore\n        /* \"#utility.yul\":15357:15403   */\n      tag_526\n        /* \"#utility.yul\":15398:15401   */\n      0xa0\n        /* \"#utility.yul\":15387:15396   */\n      dup4\n        /* \"#utility.yul\":15383:15402   */\n      add\n        /* \"#utility.yul\":15375:15381   */\n      dup5\n        /* \"#utility.yul\":15357:15403   */\n      tag_388\n      jump\t// in\n    tag_526:\n        /* \"#utility.yul\":15349:15403   */\n      swap8\n        /* \"#utility.yul\":14825:15409   */\n      swap7\n      pop\n      pop\n      pop\n      pop\n      pop\n      pop\n      pop\n      jump\t// out\n        /* \"#utility.yul\":15414:15663   */\n    tag_354:\n        /* \"#utility.yul\":15483:15489   */\n      0x00\n        /* \"#utility.yul\":15536:15538   */\n      0x20\n        /* \"#utility.yul\":15524:15533   */\n      dup3\n        /* \"#utility.yul\":15515:15522   */\n      dup5\n        /* \"#utility.yul\":15511:15534   */\n      sub\n        /* \"#utility.yul\":15507:15539   */\n      slt\n        /* \"#utility.yul\":15504:15556   */\n      iszero\n      tag_528\n      jumpi\n        /* \"#utility.yul\":15552:15553   */\n      0x00\n        /* \"#utility.yul\":15549:15550   */\n      dup1\n        /* \"#utility.yul\":15542:15554   */\n      revert\n        /* \"#utility.yul\":15504:15556   */\n    tag_528:\n        /* \"#utility.yul\":15584:15593   */\n      dup2\n        /* \"#utility.yul\":15578:15594   */\n      mload\n        /* \"#utility.yul\":15603:15633   */\n      tag_405\n        /* \"#utility.yul\":15627:15632   */\n      dup2\n        /* \"#utility.yul\":15603:15633   */\n      tag_386\n      jump\t// in\n        /* \"#utility.yul\":15668:16518   */\n    tag_370:\n        /* \"#utility.yul\":15990:15994   */\n      0x00\n      sub(shl(0xa0, 0x01), 0x01)\n        /* \"#utility.yul\":16100:16102   */\n      dup1\n        /* \"#utility.yul\":16092:16098   */\n      dup9\n        /* \"#utility.yul\":16088:16103   */\n      and\n        /* \"#utility.yul\":16077:16086   */\n      dup4\n        /* \"#utility.yul\":16070:16104   */\n      mstore\n        /* \"#utility.yul\":16152:16154   */\n      dup1\n        /* \"#utility.yul\":16144:16150   */\n      dup8\n        /* \"#utility.yul\":16140:16155   */\n      and\n        /* \"#utility.yul\":16135:16137   */\n      0x20\n        /* \"#utility.yul\":16124:16133   */\n      dup5\n        /* \"#utility.yul\":16120:16138   */\n      add\n        /* \"#utility.yul\":16113:16156   */\n      mstore\n      pop\n        /* \"#utility.yul\":16192:16195   */\n      0xa0\n        /* \"#utility.yul\":16187:16189   */\n      0x40\n        /* \"#utility.yul\":16176:16185   */\n      dup4\n        /* \"#utility.yul\":16172:16190   */\n      add\n        /* \"#utility.yul\":16165:16196   */\n      mstore\n        /* \"#utility.yul\":16219:16276   */\n      tag_531\n        /* \"#utility.yul\":16271:16274   */\n      0xa0\n        /* \"#utility.yul\":16260:16269   */\n      dup4\n        /* \"#utility.yul\":16256:16275   */\n      add\n        /* \"#utility.yul\":16248:16254   */\n      dup7\n        /* \"#utility.yul\":16219:16276   */\n      tag_393\n      jump\t// in\n    tag_531:\n        /* \"#utility.yul\":16324:16333   */\n      dup3\n        /* \"#utility.yul\":16316:16322   */\n      dup2\n        /* \"#utility.yul\":16312:16334   */\n      sub\n        /* \"#utility.yul\":16307:16309   */\n      0x60\n        /* \"#utility.yul\":16296:16305   */\n      dup5\n        /* \"#utility.yul\":16292:16310   */\n      add\n        /* \"#utility.yul\":16285:16335   */\n      mstore\n        /* \"#utility.yul\":16358:16402   */\n      tag_532\n        /* \"#utility.yul\":16395:16401   */\n      dup2\n        /* \"#utility.yul\":16387:16393   */\n      dup7\n        /* \"#utility.yul\":16358:16402   */\n      tag_393\n      jump\t// in\n    tag_532:\n        /* \"#utility.yul\":16344:16402   */\n      swap1\n      pop\n        /* \"#utility.yul\":16451:16460   */\n      dup3\n        /* \"#utility.yul\":16443:16449   */\n      dup2\n        /* \"#utility.yul\":16439:16461   */\n      sub\n        /* \"#utility.yul\":16433:16436   */\n      0x80\n        /* \"#utility.yul\":16422:16431   */\n      dup5\n        /* \"#utility.yul\":16418:16437   */\n      add\n        /* \"#utility.yul\":16411:16462   */\n      mstore\n        /* \"#utility.yul\":16479:16512   */\n      tag_533\n        /* \"#utility.yul\":16505:16511   */\n      dup2\n        /* \"#utility.yul\":16497:16503   */\n      dup6\n        /* \"#utility.yul\":16479:16512   */\n      tag_388\n      jump\t// in\n    tag_533:\n        /* \"#utility.yul\":16471:16512   */\n      swap9\n        /* \"#utility.yul\":15668:16518   */\n      swap8\n      pop\n      pop\n      pop\n      pop\n      pop\n      pop\n      pop\n      pop\n      jump\t// out\n\n    auxdata: 0xa2646970667358221220ef4c8abfd5824fac1b09cd44db62e4f8fa038482ab1dd67fff9ed70fd004a72e64736f6c63430008180033\n}\n",
				"bytecode": {
					"linkReferences": {},
					"object": "608060405234801562000010575f80fd5b503360405180608001604052806047815260200162001d1960479139620000378162000078565b506001600160a01b0381166200006657604051631e4fbdf760e01b81525f600482015260240160405180910390fd5b62000071816200008a565b5062000245565b600262000086828262000179565b5050565b600380546001600160a01b038381166001600160a01b0319831681179093556040519116919082907f8be0079c531659141344cd1fd0a4f28419497f9722a3daafe3b4186f6b6457e0905f90a35050565b634e487b7160e01b5f52604160045260245ffd5b600181811c908216806200010457607f821691505b6020821081036200012357634e487b7160e01b5f52602260045260245ffd5b50919050565b601f8211156200017457805f5260205f20601f840160051c81016020851015620001505750805b601f840160051c820191505b8181101562000171575f81556001016200015c565b50505b505050565b81516001600160401b03811115620001955762000195620000db565b620001ad81620001a68454620000ef565b8462000129565b602080601f831160018114620001e3575f8415620001cb5750858301515b5f19600386901b1c1916600185901b1785556200023d565b5f85815260208120601f198616915b828110156200021357888601518255948401946001909101908401620001f2565b50858210156200023157878501515f19600388901b60f8161c191681555b505060018460011b0185555b505050505050565b611ac680620002535f395ff3fe608060405234801561000f575f80fd5b5060043610610183575f3560e01c80636b20c454116100dd578063d99939a211610088578063f242432a11610063578063f242432a14610330578063f2fde38b14610343578063f5298aca14610356575f80fd5b8063d99939a2146102e6578063e74d3862146102ed578063e985e9c5146102f5575f80fd5b80638da5cb5b116100b85780638da5cb5b146102b0578063a22cb465146102cb578063a3cacc85146102de575f80fd5b80636b20c4541461028d578063715018a6146102a057806382c0fa30146102a8575f80fd5b80631b2ef1ca1161013d578063453f6a3211610118578063453f6a321461025d5780634a3268e4146102655780634e1273f41461026d575f80fd5b80631b2ef1ca146102225780631f7fdffa146102375780632eb2c2d61461024a575f80fd5b80630ce52e071161016d5780630ce52e07146101d05780630d9371ad146101fa5780630e89341c14610202575f80fd5b8062fdd58e1461018757806301ffc9a7146101ad575b5f80fd5b61019a61019536600461131d565b610369565b6040519081526020015b60405180910390f35b6101c06101bb36600461135a565b610390565b60405190151581526020016101a4565b61019a6101de36600461131d565b600460209081525f928352604080842090915290825290205481565b61019a600481565b61021561021036600461137c565b61042a565b6040516101a491906113e0565b6102356102303660046113f2565b610465565b005b610235610245366004611552565b610567565b6102356102583660046115e5565b610581565b61019a600381565b61019a600181565b61028061027b366004611688565b610606565b6040516101a4919061177c565b61023561029b36600461178e565b6106d1565b610235610766565b61019a600281565b6003546040516001600160a01b0390911681526020016101a4565b6102356102d93660046117fd565b610779565b61019a600681565b61019a5f81565b61019a600581565b6101c0610303366004611836565b6001600160a01b039182165f90815260016020908152604080832093909416825291909152205460ff1690565b61023561033e366004611867565b610784565b6102356103513660046118c7565b610801565b6102356103643660046118e0565b610857565b5f818152602081815260408083206001600160a01b03861684529091529020545b92915050565b5f6001600160e01b031982167fd9b67a260000000000000000000000000000000000000000000000000000000014806103f257506001600160e01b031982167f0e89341c00000000000000000000000000000000000000000000000000000000145b8061038a57507f01ffc9a7000000000000000000000000000000000000000000000000000000006001600160e01b031983161461038a565b6060610435826108e7565b61043e83610979565b60405160200161044f929190611910565b6040516020818303038152906040529050919050565b60028211156104bb5760405162461bcd60e51b815260206004820152601060248201527f496e76616c696420746f6b656e2049440000000000000000000000000000000060448201526064015b60405180910390fd5b335f9081526004602090815260408083208584529091529020546104e090603c61193e565b42101561052f5760405162461bcd60e51b815260206004820152600d60248201527f4d696e7420636f6f6c646f776e0000000000000000000000000000000000000060448201526064016104b2565b335f818152600460209081526040808320868452825280832042905580519182019052908152610563919084908490610a16565b5050565b61056f610a71565b61057b84848484610ab7565b50505050565b336001600160a01b03861681148015906105c057506001600160a01b038087165f9081526001602090815260408083209385168352929052205460ff16155b156105f15760405163711bec9160e11b81526001600160a01b038083166004830152871660248201526044016104b2565b6105fe8686868686610aed565b505050505050565b606081518351146106375781518351604051635b05999160e01b8152600481019290925260248201526044016104b2565b5f835167ffffffffffffffff81111561065257610652611412565b60405190808252806020026020018201604052801561067b578160200160208202803683370190505b5090505f5b84518110156106c9576020808202860101516106a490602080840287010151610369565b8282815181106106b6576106b661195d565b6020908102919091010152600101610680565b509392505050565b336001600160a01b038416148061070a57506001600160a01b0383165f90815260016020908152604080832033845290915290205460ff165b6107565760405162461bcd60e51b815260206004820181905260248201527f43616c6c6572206973206e6f74206f776e6572206e6f7220617070726f76656460448201526064016104b2565b610761838383610b52565b505050565b61076e610a71565b6107775f610b95565b565b610563338383610bfe565b336001600160a01b03861681148015906107c357506001600160a01b038087165f9081526001602090815260408083209385168352929052205460ff16155b156107f45760405163711bec9160e11b81526001600160a01b038083166004830152871660248201526044016104b2565b6105fe8686868686610cac565b610809610a71565b6001600160a01b03811661084b576040517f1e4fbdf70000000000000000000000000000000000000000000000000000000081525f60048201526024016104b2565b61085481610b95565b50565b336001600160a01b038416148061089057506001600160a01b0383165f90815260016020908152604080832033845290915290205460ff165b6108dc5760405162461bcd60e51b815260206004820181905260248201527f43616c6c6572206973206e6f74206f776e6572206e6f7220617070726f76656460448201526064016104b2565b610761838383610d38565b6060600280546108f690611971565b80601f016020809104026020016040519081016040528092919081815260200182805461092290611971565b801561096d5780601f106109445761010080835404028352916020019161096d565b820191905f5260205f20905b81548152906001019060200180831161095057829003601f168201915b50505050509050919050565b60605f61098583610d9e565b60010190505f8167ffffffffffffffff8111156109a4576109a4611412565b6040519080825280601f01601f1916602001820160405280156109ce576020820181803683370190505b5090508181016020015b5f19017f3031323334353637383961626364656600000000000000000000000000000000600a86061a8153600a85049450846109d857509392505050565b6001600160a01b038416610a3f57604051632bfa23e760e11b81525f60048201526024016104b2565b604080516001808252602082018690528183019081526060820185905260808201909252906105fe5f87848487610e7f565b6003546001600160a01b03163314610777576040517f118cdaa70000000000000000000000000000000000000000000000000000000081523360048201526024016104b2565b6001600160a01b038416610ae057604051632bfa23e760e11b81525f60048201526024016104b2565b61057b5f85858585610e7f565b6001600160a01b038416610b1657604051632bfa23e760e11b81525f60048201526024016104b2565b6001600160a01b038516610b3e57604051626a0d4560e21b81525f60048201526024016104b2565b610b4b8585858585610e7f565b5050505050565b6001600160a01b038316610b7a57604051626a0d4560e21b81525f60048201526024016104b2565b610761835f848460405180602001604052805f815250610e7f565b600380546001600160a01b038381167fffffffffffffffffffffffff0000000000000000000000000000000000000000831681179093556040519116919082907f8be0079c531659141344cd1fd0a4f28419497f9722a3daafe3b4186f6b6457e0905f90a35050565b6001600160a01b038216610c40576040517fced3e1000000000000000000000000000000000000000000000000000000000081525f60048201526024016104b2565b6001600160a01b038381165f81815260016020908152604080832094871680845294825291829020805460ff191686151590811790915591519182527f17307eab39ab6107e8899845ad3d59bd9653f200f220920489ca2b5937696c31910160405180910390a3505050565b6001600160a01b038416610cd557604051632bfa23e760e11b81525f60048201526024016104b2565b6001600160a01b038516610cfd57604051626a0d4560e21b81525f60048201526024016104b2565b60408051600180825260208201869052818301908152606082018590526080820190925290610d2f8787848487610e7f565b50505050505050565b6001600160a01b038316610d6057604051626a0d4560e21b81525f60048201526024016104b2565b604080516001808252602082018590528183019081526060820184905260a082019092525f60808201818152919291610b4b91879185908590610e7f565b5f807a184f03e93ff9f4daa797ed6e38ed64bf6a1f0100000000000000008310610de6577a184f03e93ff9f4daa797ed6e38ed64bf6a1f010000000000000000830492506040015b6d04ee2d6d415b85acef81000000008310610e12576d04ee2d6d415b85acef8100000000830492506020015b662386f26fc100008310610e3057662386f26fc10000830492506010015b6305f5e1008310610e48576305f5e100830492506008015b6127108310610e5c57612710830492506004015b60648310610e6e576064830492506002015b600a831061038a5760010192915050565b610e8b85858585610ed2565b6001600160a01b03841615610b4b5782513390600103610ec45760208481015190840151610ebd8389898585896110fa565b50506105fe565b6105fe81878787878761121b565b8051825114610f015781518151604051635b05999160e01b8152600481019290925260248201526044016104b2565b335f5b835181101561101c576020818102858101820151908501909101516001600160a01b03881615610fce575f828152602081815260408083206001600160a01b038c16845290915290205481811015610fa8576040517f03dee4c50000000000000000000000000000000000000000000000000000000081526001600160a01b038a1660048201526024810182905260448101839052606481018490526084016104b2565b5f838152602081815260408083206001600160a01b038d16845290915290209082900390555b6001600160a01b03871615611012575f828152602081815260408083206001600160a01b038b1684529091528120805483929061100c90849061193e565b90915550505b5050600101610f04565b50825160010361109c5760208301515f906020840151909150856001600160a01b0316876001600160a01b0316846001600160a01b03167fc3d58168c5ae7397731d063d5bbf3d657854427343f4c083240f7aacaa2d0f62858560405161108d929190918252602082015260400190565b60405180910390a45050610b4b565b836001600160a01b0316856001600160a01b0316826001600160a01b03167f4a39dc06d4c0dbc64b70af90fd698a233a518aa5d07e595d983b8c0526c8f7fb86866040516110eb9291906119a9565b60405180910390a45050505050565b6001600160a01b0384163b156105fe5760405163f23a6e6160e01b81526001600160a01b0385169063f23a6e619061113e90899089908890889088906004016119d6565b6020604051808303815f875af1925050508015611178575060408051601f3d908101601f1916820190925261117591810190611a18565b60015b6111df573d8080156111a5576040519150601f19603f3d011682016040523d82523d5f602084013e6111aa565b606091505b5080515f036111d757604051632bfa23e760e11b81526001600160a01b03861660048201526024016104b2565b805181602001fd5b6001600160e01b0319811663f23a6e6160e01b14610d2f57604051632bfa23e760e11b81526001600160a01b03861660048201526024016104b2565b6001600160a01b0384163b156105fe5760405163bc197c8160e01b81526001600160a01b0385169063bc197c819061125f9089908990889088908890600401611a33565b6020604051808303815f875af1925050508015611299575060408051601f3d908101601f1916820190925261129691810190611a18565b60015b6112c6573d8080156111a5576040519150601f19603f3d011682016040523d82523d5f602084013e6111aa565b6001600160e01b0319811663bc197c8160e01b14610d2f57604051632bfa23e760e11b81526001600160a01b03861660048201526024016104b2565b80356001600160a01b0381168114611318575f80fd5b919050565b5f806040838503121561132e575f80fd5b61133783611302565b946020939093013593505050565b6001600160e01b031981168114610854575f80fd5b5f6020828403121561136a575f80fd5b813561137581611345565b9392505050565b5f6020828403121561138c575f80fd5b5035919050565b5f5b838110156113ad578181015183820152602001611395565b50505f910152565b5f81518084526113cc816020860160208601611393565b601f01601f19169290920160200192915050565b602081525f61137560208301846113b5565b5f8060408385031215611403575f80fd5b50508035926020909101359150565b634e487b7160e01b5f52604160045260245ffd5b604051601f8201601f1916810167ffffffffffffffff8111828210171561144f5761144f611412565b604052919050565b5f67ffffffffffffffff82111561147057611470611412565b5060051b60200190565b5f82601f830112611489575f80fd5b8135602061149e61149983611457565b611426565b8083825260208201915060208460051b8701019350868411156114bf575f80fd5b602086015b848110156114db57803583529183019183016114c4565b509695505050505050565b5f82601f8301126114f5575f80fd5b813567ffffffffffffffff81111561150f5761150f611412565b611522601f8201601f1916602001611426565b818152846020838601011115611536575f80fd5b816020850160208301375f918101602001919091529392505050565b5f805f8060808587031215611565575f80fd5b61156e85611302565b9350602085013567ffffffffffffffff8082111561158a575f80fd5b6115968883890161147a565b945060408701359150808211156115ab575f80fd5b6115b78883890161147a565b935060608701359150808211156115cc575f80fd5b506115d9878288016114e6565b91505092959194509250565b5f805f805f60a086880312156115f9575f80fd5b61160286611302565b945061161060208701611302565b9350604086013567ffffffffffffffff8082111561162c575f80fd5b61163889838a0161147a565b9450606088013591508082111561164d575f80fd5b61165989838a0161147a565b9350608088013591508082111561166e575f80fd5b5061167b888289016114e6565b9150509295509295909350565b5f8060408385031215611699575f80fd5b823567ffffffffffffffff808211156116b0575f80fd5b818501915085601f8301126116c3575f80fd5b813560206116d361149983611457565b82815260059290921b840181019181810190898411156116f1575f80fd5b948201945b838610156117165761170786611302565b825294820194908201906116f6565b9650508601359250508082111561172b575f80fd5b506117388582860161147a565b9150509250929050565b5f815180845260208085019450602084015f5b8381101561177157815187529582019590820190600101611755565b509495945050505050565b602081525f6113756020830184611742565b5f805f606084860312156117a0575f80fd5b6117a984611302565b9250602084013567ffffffffffffffff808211156117c5575f80fd5b6117d18783880161147a565b935060408601359150808211156117e6575f80fd5b506117f38682870161147a565b9150509250925092565b5f806040838503121561180e575f80fd5b61181783611302565b91506020830135801515811461182b575f80fd5b809150509250929050565b5f8060408385031215611847575f80fd5b61185083611302565b915061185e60208401611302565b90509250929050565b5f805f805f60a0868803121561187b575f80fd5b61188486611302565b945061189260208701611302565b93506040860135925060608601359150608086013567ffffffffffffffff8111156118bb575f80fd5b61167b888289016114e6565b5f602082840312156118d7575f80fd5b61137582611302565b5f805f606084860312156118f2575f80fd5b6118fb84611302565b95602085013595506040909401359392505050565b5f8351611921818460208801611393565b835190830190611935818360208801611393565b01949350505050565b8082018082111561038a57634e487b7160e01b5f52601160045260245ffd5b634e487b7160e01b5f52603260045260245ffd5b600181811c9082168061198557607f821691505b6020821081036119a357634e487b7160e01b5f52602260045260245ffd5b50919050565b604081525f6119bb6040830185611742565b82810360208401526119cd8185611742565b95945050505050565b5f6001600160a01b03808816835280871660208401525084604083015283606083015260a06080830152611a0d60a08301846113b5565b979650505050505050565b5f60208284031215611a28575f80fd5b815161137581611345565b5f6001600160a01b03808816835280871660208401525060a06040830152611a5e60a0830186611742565b8281036060840152611a708186611742565b90508281036080840152611a8481856113b5565b9897505050505050505056fea2646970667358221220ef4c8abfd5824fac1b09cd44db62e4f8fa038482ab1dd67fff9ed70fd004a72e64736f6c63430008180033697066733a2f2f6261667962656968726b6c623232327367696f77726a6365673736726d7171707a716979756a6d6e75667633637135377373656d647862626534752f7b69647d",
					"opcodes": "PUSH1 0x80 PUSH1 0x40 MSTORE CALLVALUE DUP1 ISZERO PUSH3 0x10 JUMPI PUSH0 DUP1 REVERT JUMPDEST POP CALLER PUSH1 0x40 MLOAD DUP1 PUSH1 0x80 ADD PUSH1 0x40 MSTORE DUP1 PUSH1 0x47 DUP2 MSTORE PUSH1 0x20 ADD PUSH3 0x1D19 PUSH1 0x47 SWAP2 CODECOPY PUSH3 0x37 DUP2 PUSH3 0x78 JUMP JUMPDEST POP PUSH1 0x1 PUSH1 0x1 PUSH1 0xA0 SHL SUB DUP2 AND PUSH3 0x66 JUMPI PUSH1 0x40 MLOAD PUSH4 0x1E4FBDF7 PUSH1 0xE0 SHL DUP2 MSTORE PUSH0 PUSH1 0x4 DUP3 ADD MSTORE PUSH1 0x24 ADD PUSH1 0x40 MLOAD DUP1 SWAP2 SUB SWAP1 REVERT JUMPDEST PUSH3 0x71 DUP2 PUSH3 0x8A JUMP JUMPDEST POP PUSH3 0x245 JUMP JUMPDEST PUSH1 0x2 PUSH3 0x86 DUP3 DUP3 PUSH3 0x179 JUMP JUMPDEST POP POP JUMP JUMPDEST PUSH1 0x3 DUP1 SLOAD PUSH1 0x1 PUSH1 0x1 PUSH1 0xA0 SHL SUB DUP4 DUP2 AND PUSH1 0x1 PUSH1 0x1 PUSH1 0xA0 SHL SUB NOT DUP4 AND DUP2 OR SWAP1 SWAP4 SSTORE PUSH1 0x40 MLOAD SWAP2 AND SWAP2 SWAP1 DUP3 SWAP1 PUSH32 0x8BE0079C531659141344CD1FD0A4F28419497F9722A3DAAFE3B4186F6B6457E0 SWAP1 PUSH0 SWAP1 LOG3 POP POP JUMP JUMPDEST PUSH4 0x4E487B71 PUSH1 0xE0 SHL PUSH0 MSTORE PUSH1 0x41 PUSH1 0x4 MSTORE PUSH1 0x24 PUSH0 REVERT JUMPDEST PUSH1 0x1 DUP2 DUP2 SHR SWAP1 DUP3 AND DUP1 PUSH3 0x104 JUMPI PUSH1 0x7F DUP3 AND SWAP2 POP JUMPDEST PUSH1 0x20 DUP3 LT DUP2 SUB PUSH3 0x123 JUMPI PUSH4 0x4E487B71 PUSH1 0xE0 SHL PUSH0 MSTORE PUSH1 0x22 PUSH1 0x4 MSTORE PUSH1 0x24 PUSH0 REVERT JUMPDEST POP SWAP2 SWAP1 POP JUMP JUMPDEST PUSH1 0x1F DUP3 GT ISZERO PUSH3 0x174 JUMPI DUP1 PUSH0 MSTORE PUSH1 0x20 PUSH0 KECCAK256 PUSH1 0x1F DUP5 ADD PUSH1 0x5 SHR DUP2 ADD PUSH1 0x20 DUP6 LT ISZERO PUSH3 0x150 JUMPI POP DUP1 JUMPDEST PUSH1 0x1F DUP5 ADD PUSH1 0x5 SHR DUP3 ADD SWAP2 POP JUMPDEST DUP2 DUP2 LT ISZERO PUSH3 0x171 JUMPI PUSH0 DUP2 SSTORE PUSH1 0x1 ADD PUSH3 0x15C JUMP JUMPDEST POP POP JUMPDEST POP POP POP JUMP JUMPDEST DUP2 MLOAD PUSH1 0x1 PUSH1 0x1 PUSH1 0x40 SHL SUB DUP2 GT ISZERO PUSH3 0x195 JUMPI PUSH3 0x195 PUSH3 0xDB JUMP JUMPDEST PUSH3 0x1AD DUP2 PUSH3 0x1A6 DUP5 SLOAD PUSH3 0xEF JUMP JUMPDEST DUP5 PUSH3 0x129 JUMP JUMPDEST PUSH1 0x20 DUP1 PUSH1 0x1F DUP4 GT PUSH1 0x1 DUP2 EQ PUSH3 0x1E3 JUMPI PUSH0 DUP5 ISZERO PUSH3 0x1CB JUMPI POP DUP6 DUP4 ADD MLOAD JUMPDEST PUSH0 NOT PUSH1 0x3 DUP7 SWAP1 SHL SHR NOT AND PUSH1 0x1 DUP6 SWAP1 SHL OR DUP6 SSTORE PUSH3 0x23D JUMP JUMPDEST PUSH0 DUP6 DUP2 MSTORE PUSH1 0x20 DUP2 KECCAK256 PUSH1 0x1F NOT DUP7 AND SWAP2 JUMPDEST DUP3 DUP2 LT ISZERO PUSH3 0x213 JUMPI DUP9 DUP7 ADD MLOAD DUP3 SSTORE SWAP5 DUP5 ADD SWAP5 PUSH1 0x1 SWAP1 SWAP2 ADD SWAP1 DUP5 ADD PUSH3 0x1F2 JUMP JUMPDEST POP DUP6 DUP3 LT ISZERO PUSH3 0x231 JUMPI DUP8 DUP6 ADD MLOAD PUSH0 NOT PUSH1 0x3 DUP9 SWAP1 SHL PUSH1 0xF8 AND SHR NOT AND DUP2 SSTORE JUMPDEST POP POP PUSH1 0x1 DUP5 PUSH1 0x1 SHL ADD DUP6 SSTORE JUMPDEST POP POP POP POP POP POP JUMP JUMPDEST PUSH2 0x1AC6 DUP1 PUSH3 0x253 PUSH0 CODECOPY PUSH0 RETURN INVALID PUSH1 0x80 PUSH1 0x40 MSTORE CALLVALUE DUP1 ISZERO PUSH2 0xF JUMPI PUSH0 DUP1 REVERT JUMPDEST POP PUSH1 0x4 CALLDATASIZE LT PUSH2 0x183 JUMPI PUSH0 CALLDATALOAD PUSH1 0xE0 SHR DUP1 PUSH4 0x6B20C454 GT PUSH2 0xDD JUMPI DUP1 PUSH4 0xD99939A2 GT PUSH2 0x88 JUMPI DUP1 PUSH4 0xF242432A GT PUSH2 0x63 JUMPI DUP1 PUSH4 0xF242432A EQ PUSH2 0x330 JUMPI DUP1 PUSH4 0xF2FDE38B EQ PUSH2 0x343 JUMPI DUP1 PUSH4 0xF5298ACA EQ PUSH2 0x356 JUMPI PUSH0 DUP1 REVERT JUMPDEST DUP1 PUSH4 0xD99939A2 EQ PUSH2 0x2E6 JUMPI DUP1 PUSH4 0xE74D3862 EQ PUSH2 0x2ED JUMPI DUP1 PUSH4 0xE985E9C5 EQ PUSH2 0x2F5 JUMPI PUSH0 DUP1 REVERT JUMPDEST DUP1 PUSH4 0x8DA5CB5B GT PUSH2 0xB8 JUMPI DUP1 PUSH4 0x8DA5CB5B EQ PUSH2 0x2B0 JUMPI DUP1 PUSH4 0xA22CB465 EQ PUSH2 0x2CB JUMPI DUP1 PUSH4 0xA3CACC85 EQ PUSH2 0x2DE JUMPI PUSH0 DUP1 REVERT JUMPDEST DUP1 PUSH4 0x6B20C454 EQ PUSH2 0x28D JUMPI DUP1 PUSH4 0x715018A6 EQ PUSH2 0x2A0 JUMPI DUP1 PUSH4 0x82C0FA30 EQ PUSH2 0x2A8 JUMPI PUSH0 DUP1 REVERT JUMPDEST DUP1 PUSH4 0x1B2EF1CA GT PUSH2 0x13D JUMPI DUP1 PUSH4 0x453F6A32 GT PUSH2 0x118 JUMPI DUP1 PUSH4 0x453F6A32 EQ PUSH2 0x25D JUMPI DUP1 PUSH4 0x4A3268E4 EQ PUSH2 0x265 JUMPI DUP1 PUSH4 0x4E1273F4 EQ PUSH2 0x26D JUMPI PUSH0 DUP1 REVERT JUMPDEST DUP1 PUSH4 0x1B2EF1CA EQ PUSH2 0x222 JUMPI DUP1 PUSH4 0x1F7FDFFA EQ PUSH2 0x237 JUMPI DUP1 PUSH4 0x2EB2C2D6 EQ PUSH2 0x24A JUMPI PUSH0 DUP1 REVERT JUMPDEST DUP1 PUSH4 0xCE52E07 GT PUSH2 0x16D JUMPI DUP1 PUSH4 0xCE52E07 EQ PUSH2 0x1D0 JUMPI DUP1 PUSH4 0xD9371AD EQ PUSH2 0x1FA JUMPI DUP1 PUSH4 0xE89341C EQ PUSH2 0x202 JUMPI PUSH0 DUP1 REVERT JUMPDEST DUP1 PUSH3 0xFDD58E EQ PUSH2 0x187 JUMPI DUP1 PUSH4 0x1FFC9A7 EQ PUSH2 0x1AD JUMPI JUMPDEST PUSH0 DUP1 REVERT JUMPDEST PUSH2 0x19A PUSH2 0x195 CALLDATASIZE PUSH1 0x4 PUSH2 0x131D JUMP JUMPDEST PUSH2 0x369 JUMP JUMPDEST PUSH1 0x40 MLOAD SWAP1 DUP2 MSTORE PUSH1 0x20 ADD JUMPDEST PUSH1 0x40 MLOAD DUP1 SWAP2 SUB SWAP1 RETURN JUMPDEST PUSH2 0x1C0 PUSH2 0x1BB CALLDATASIZE PUSH1 0x4 PUSH2 0x135A JUMP JUMPDEST PUSH2 0x390 JUMP JUMPDEST PUSH1 0x40 MLOAD SWAP1 ISZERO ISZERO DUP2 MSTORE PUSH1 0x20 ADD PUSH2 0x1A4 JUMP JUMPDEST PUSH2 0x19A PUSH2 0x1DE CALLDATASIZE PUSH1 0x4 PUSH2 0x131D JUMP JUMPDEST PUSH1 0x4 PUSH1 0x20 SWAP1 DUP2 MSTORE PUSH0 SWAP3 DUP4 MSTORE PUSH1 0x40 DUP1 DUP5 KECCAK256 SWAP1 SWAP2 MSTORE SWAP1 DUP3 MSTORE SWAP1 KECCAK256 SLOAD DUP2 JUMP JUMPDEST PUSH2 0x19A PUSH1 0x4 DUP2 JUMP JUMPDEST PUSH2 0x215 PUSH2 0x210 CALLDATASIZE PUSH1 0x4 PUSH2 0x137C JUMP JUMPDEST PUSH2 0x42A JUMP JUMPDEST PUSH1 0x40 MLOAD PUSH2 0x1A4 SWAP2 SWAP1 PUSH2 0x13E0 JUMP JUMPDEST PUSH2 0x235 PUSH2 0x230 CALLDATASIZE PUSH1 0x4 PUSH2 0x13F2 JUMP JUMPDEST PUSH2 0x465 JUMP JUMPDEST STOP JUMPDEST PUSH2 0x235 PUSH2 0x245 CALLDATASIZE PUSH1 0x4 PUSH2 0x1552 JUMP JUMPDEST PUSH2 0x567 JUMP JUMPDEST PUSH2 0x235 PUSH2 0x258 CALLDATASIZE PUSH1 0x4 PUSH2 0x15E5 JUMP JUMPDEST PUSH2 0x581 JUMP JUMPDEST PUSH2 0x19A PUSH1 0x3 DUP2 JUMP JUMPDEST PUSH2 0x19A PUSH1 0x1 DUP2 JUMP JUMPDEST PUSH2 0x280 PUSH2 0x27B CALLDATASIZE PUSH1 0x4 PUSH2 0x1688 JUMP JUMPDEST PUSH2 0x606 JUMP JUMPDEST PUSH1 0x40 MLOAD PUSH2 0x1A4 SWAP2 SWAP1 PUSH2 0x177C JUMP JUMPDEST PUSH2 0x235 PUSH2 0x29B CALLDATASIZE PUSH1 0x4 PUSH2 0x178E JUMP JUMPDEST PUSH2 0x6D1 JUMP JUMPDEST PUSH2 0x235 PUSH2 0x766 JUMP JUMPDEST PUSH2 0x19A PUSH1 0x2 DUP2 JUMP JUMPDEST PUSH1 0x3 SLOAD PUSH1 0x40 MLOAD PUSH1 0x1 PUSH1 0x1 PUSH1 0xA0 SHL SUB SWAP1 SWAP2 AND DUP2 MSTORE PUSH1 0x20 ADD PUSH2 0x1A4 JUMP JUMPDEST PUSH2 0x235 PUSH2 0x2D9 CALLDATASIZE PUSH1 0x4 PUSH2 0x17FD JUMP JUMPDEST PUSH2 0x779 JUMP JUMPDEST PUSH2 0x19A PUSH1 0x6 DUP2 JUMP JUMPDEST PUSH2 0x19A PUSH0 DUP2 JUMP JUMPDEST PUSH2 0x19A PUSH1 0x5 DUP2 JUMP JUMPDEST PUSH2 0x1C0 PUSH2 0x303 CALLDATASIZE PUSH1 0x4 PUSH2 0x1836 JUMP JUMPDEST PUSH1 0x1 PUSH1 0x1 PUSH1 0xA0 SHL SUB SWAP2 DUP3 AND PUSH0 SWAP1 DUP2 MSTORE PUSH1 0x1 PUSH1 0x20 SWAP1 DUP2 MSTORE PUSH1 0x40 DUP1 DUP4 KECCAK256 SWAP4 SWAP1 SWAP5 AND DUP3 MSTORE SWAP2 SWAP1 SWAP2 MSTORE KECCAK256 SLOAD PUSH1 0xFF AND SWAP1 JUMP JUMPDEST PUSH2 0x235 PUSH2 0x33E CALLDATASIZE PUSH1 0x4 PUSH2 0x1867 JUMP JUMPDEST PUSH2 0x784 JUMP JUMPDEST PUSH2 0x235 PUSH2 0x351 CALLDATASIZE PUSH1 0x4 PUSH2 0x18C7 JUMP JUMPDEST PUSH2 0x801 JUMP JUMPDEST PUSH2 0x235 PUSH2 0x364 CALLDATASIZE PUSH1 0x4 PUSH2 0x18E0 JUMP JUMPDEST PUSH2 0x857 JUMP JUMPDEST PUSH0 DUP2 DUP2 MSTORE PUSH1 0x20 DUP2 DUP2 MSTORE PUSH1 0x40 DUP1 DUP4 KECCAK256 PUSH1 0x1 PUSH1 0x1 PUSH1 0xA0 SHL SUB DUP7 AND DUP5 MSTORE SWAP1 SWAP2 MSTORE SWAP1 KECCAK256 SLOAD JUMPDEST SWAP3 SWAP2 POP POP JUMP JUMPDEST PUSH0 PUSH1 0x1 PUSH1 0x1 PUSH1 0xE0 SHL SUB NOT DUP3 AND PUSH32 0xD9B67A2600000000000000000000000000000000000000000000000000000000 EQ DUP1 PUSH2 0x3F2 JUMPI POP PUSH1 0x1 PUSH1 0x1 PUSH1 0xE0 SHL SUB NOT DUP3 AND PUSH32 0xE89341C00000000000000000000000000000000000000000000000000000000 EQ JUMPDEST DUP1 PUSH2 0x38A JUMPI POP PUSH32 0x1FFC9A700000000000000000000000000000000000000000000000000000000 PUSH1 0x1 PUSH1 0x1 PUSH1 0xE0 SHL SUB NOT DUP4 AND EQ PUSH2 0x38A JUMP JUMPDEST PUSH1 0x60 PUSH2 0x435 DUP3 PUSH2 0x8E7 JUMP JUMPDEST PUSH2 0x43E DUP4 PUSH2 0x979 JUMP JUMPDEST PUSH1 0x40 MLOAD PUSH1 0x20 ADD PUSH2 0x44F SWAP3 SWAP2 SWAP1 PUSH2 0x1910 JUMP JUMPDEST PUSH1 0x40 MLOAD PUSH1 0x20 DUP2 DUP4 SUB SUB DUP2 MSTORE SWAP1 PUSH1 0x40 MSTORE SWAP1 POP SWAP2 SWAP1 POP JUMP JUMPDEST PUSH1 0x2 DUP3 GT ISZERO PUSH2 0x4BB JUMPI PUSH1 0x40 MLOAD PUSH3 0x461BCD PUSH1 0xE5 SHL DUP2 MSTORE PUSH1 0x20 PUSH1 0x4 DUP3 ADD MSTORE PUSH1 0x10 PUSH1 0x24 DUP3 ADD MSTORE PUSH32 0x496E76616C696420746F6B656E20494400000000000000000000000000000000 PUSH1 0x44 DUP3 ADD MSTORE PUSH1 0x64 ADD JUMPDEST PUSH1 0x40 MLOAD DUP1 SWAP2 SUB SWAP1 REVERT JUMPDEST CALLER PUSH0 SWAP1 DUP2 MSTORE PUSH1 0x4 PUSH1 0x20 SWAP1 DUP2 MSTORE PUSH1 0x40 DUP1 DUP4 KECCAK256 DUP6 DUP5 MSTORE SWAP1 SWAP2 MSTORE SWAP1 KECCAK256 SLOAD PUSH2 0x4E0 SWAP1 PUSH1 0x3C PUSH2 0x193E JUMP JUMPDEST TIMESTAMP LT ISZERO PUSH2 0x52F JUMPI PUSH1 0x40 MLOAD PUSH3 0x461BCD PUSH1 0xE5 SHL DUP2 MSTORE PUSH1 0x20 PUSH1 0x4 DUP3 ADD MSTORE PUSH1 0xD PUSH1 0x24 DUP3 ADD MSTORE PUSH32 0x4D696E7420636F6F6C646F776E00000000000000000000000000000000000000 PUSH1 0x44 DUP3 ADD MSTORE PUSH1 0x64 ADD PUSH2 0x4B2 JUMP JUMPDEST CALLER PUSH0 DUP2 DUP2 MSTORE PUSH1 0x4 PUSH1 0x20 SWAP1 DUP2 MSTORE PUSH1 0x40 DUP1 DUP4 KECCAK256 DUP7 DUP5 MSTORE DUP3 MSTORE DUP1 DUP4 KECCAK256 TIMESTAMP SWAP1 SSTORE DUP1 MLOAD SWAP2 DUP3 ADD SWAP1 MSTORE SWAP1 DUP2 MSTORE PUSH2 0x563 SWAP2 SWAP1 DUP5 SWAP1 DUP5 SWAP1 PUSH2 0xA16 JUMP JUMPDEST POP POP JUMP JUMPDEST PUSH2 0x56F PUSH2 0xA71 JUMP JUMPDEST PUSH2 0x57B DUP5 DUP5 DUP5 DUP5 PUSH2 0xAB7 JUMP JUMPDEST POP POP POP POP JUMP JUMPDEST CALLER PUSH1 0x1 PUSH1 0x1 PUSH1 0xA0 SHL SUB DUP7 AND DUP2 EQ DUP1 ISZERO SWAP1 PUSH2 0x5C0 JUMPI POP PUSH1 0x1 PUSH1 0x1 PUSH1 0xA0 SHL SUB DUP1 DUP8 AND PUSH0 SWAP1 DUP2 MSTORE PUSH1 0x1 PUSH1 0x20 SWAP1 DUP2 MSTORE PUSH1 0x40 DUP1 DUP4 KECCAK256 SWAP4 DUP6 AND DUP4 MSTORE SWAP3 SWAP1 MSTORE KECCAK256 SLOAD PUSH1 0xFF AND ISZERO JUMPDEST ISZERO PUSH2 0x5F1 JUMPI PUSH1 0x40 MLOAD PUSH4 0x711BEC91 PUSH1 0xE1 SHL DUP2 MSTORE PUSH1 0x1 PUSH1 0x1 PUSH1 0xA0 SHL SUB DUP1 DUP4 AND PUSH1 0x4 DUP4 ADD MSTORE DUP8 AND PUSH1 0x24 DUP3 ADD MSTORE PUSH1 0x44 ADD PUSH2 0x4B2 JUMP JUMPDEST PUSH2 0x5FE DUP7 DUP7 DUP7 DUP7 DUP7 PUSH2 0xAED JUMP JUMPDEST POP POP POP POP POP POP JUMP JUMPDEST PUSH1 0x60 DUP2 MLOAD DUP4 MLOAD EQ PUSH2 0x637 JUMPI DUP2 MLOAD DUP4 MLOAD PUSH1 0x40 MLOAD PUSH4 0x5B059991 PUSH1 0xE0 SHL DUP2 MSTORE PUSH1 0x4 DUP2 ADD SWAP3 SWAP1 SWAP3 MSTORE PUSH1 0x24 DUP3 ADD MSTORE PUSH1 0x44 ADD PUSH2 0x4B2 JUMP JUMPDEST PUSH0 DUP4 MLOAD PUSH8 0xFFFFFFFFFFFFFFFF DUP2 GT ISZERO PUSH2 0x652 JUMPI PUSH2 0x652 PUSH2 0x1412 JUMP JUMPDEST PUSH1 0x40 MLOAD SWAP1 DUP1 DUP3 MSTORE DUP1 PUSH1 0x20 MUL PUSH1 0x20 ADD DUP3 ADD PUSH1 0x40 MSTORE DUP1 ISZERO PUSH2 0x67B JUMPI DUP2 PUSH1 0x20 ADD PUSH1 0x20 DUP3 MUL DUP1 CALLDATASIZE DUP4 CALLDATACOPY ADD SWAP1 POP JUMPDEST POP SWAP1 POP PUSH0 JUMPDEST DUP5 MLOAD DUP2 LT ISZERO PUSH2 0x6C9 JUMPI PUSH1 0x20 DUP1 DUP3 MUL DUP7 ADD ADD MLOAD PUSH2 0x6A4 SWAP1 PUSH1 0x20 DUP1 DUP5 MUL DUP8 ADD ADD MLOAD PUSH2 0x369 JUMP JUMPDEST DUP3 DUP3 DUP2 MLOAD DUP2 LT PUSH2 0x6B6 JUMPI PUSH2 0x6B6 PUSH2 0x195D JUMP JUMPDEST PUSH1 0x20 SWAP1 DUP2 MUL SWAP2 SWAP1 SWAP2 ADD ADD MSTORE PUSH1 0x1 ADD PUSH2 0x680 JUMP JUMPDEST POP SWAP4 SWAP3 POP POP POP JUMP JUMPDEST CALLER PUSH1 0x1 PUSH1 0x1 PUSH1 0xA0 SHL SUB DUP5 AND EQ DUP1 PUSH2 0x70A JUMPI POP PUSH1 0x1 PUSH1 0x1 PUSH1 0xA0 SHL SUB DUP4 AND PUSH0 SWAP1 DUP2 MSTORE PUSH1 0x1 PUSH1 0x20 SWAP1 DUP2 MSTORE PUSH1 0x40 DUP1 DUP4 KECCAK256 CALLER DUP5 MSTORE SWAP1 SWAP2 MSTORE SWAP1 KECCAK256 SLOAD PUSH1 0xFF AND JUMPDEST PUSH2 0x756 JUMPI PUSH1 0x40 MLOAD PUSH3 0x461BCD PUSH1 0xE5 SHL DUP2 MSTORE PUSH1 0x20 PUSH1 0x4 DUP3 ADD DUP2 SWAP1 MSTORE PUSH1 0x24 DUP3 ADD MSTORE PUSH32 0x43616C6C6572206973206E6F74206F776E6572206E6F7220617070726F766564 PUSH1 0x44 DUP3 ADD MSTORE PUSH1 0x64 ADD PUSH2 0x4B2 JUMP JUMPDEST PUSH2 0x761 DUP4 DUP4 DUP4 PUSH2 0xB52 JUMP JUMPDEST POP POP POP JUMP JUMPDEST PUSH2 0x76E PUSH2 0xA71 JUMP JUMPDEST PUSH2 0x777 PUSH0 PUSH2 0xB95 JUMP JUMPDEST JUMP JUMPDEST PUSH2 0x563 CALLER DUP4 DUP4 PUSH2 0xBFE JUMP JUMPDEST CALLER PUSH1 0x1 PUSH1 0x1 PUSH1 0xA0 SHL SUB DUP7 AND DUP2 EQ DUP1 ISZERO SWAP1 PUSH2 0x7C3 JUMPI POP PUSH1 0x1 PUSH1 0x1 PUSH1 0xA0 SHL SUB DUP1 DUP8 AND PUSH0 SWAP1 DUP2 MSTORE PUSH1 0x1 PUSH1 0x20 SWAP1 DUP2 MSTORE PUSH1 0x40 DUP1 DUP4 KECCAK256 SWAP4 DUP6 AND DUP4 MSTORE SWAP3 SWAP1 MSTORE KECCAK256 SLOAD PUSH1 0xFF AND ISZERO JUMPDEST ISZERO PUSH2 0x7F4 JUMPI PUSH1 0x40 MLOAD PUSH4 0x711BEC91 PUSH1 0xE1 SHL DUP2 MSTORE PUSH1 0x1 PUSH1 0x1 PUSH1 0xA0 SHL SUB DUP1 DUP4 AND PUSH1 0x4 DUP4 ADD MSTORE DUP8 AND PUSH1 0x24 DUP3 ADD MSTORE PUSH1 0x44 ADD PUSH2 0x4B2 JUMP JUMPDEST PUSH2 0x5FE DUP7 DUP7 DUP7 DUP7 DUP7 PUSH2 0xCAC JUMP JUMPDEST PUSH2 0x809 PUSH2 0xA71 JUMP JUMPDEST PUSH1 0x1 PUSH1 0x1 PUSH1 0xA0 SHL SUB DUP2 AND PUSH2 0x84B JUMPI PUSH1 0x40 MLOAD PUSH32 0x1E4FBDF700000000000000000000000000000000000000000000000000000000 DUP2 MSTORE PUSH0 PUSH1 0x4 DUP3 ADD MSTORE PUSH1 0x24 ADD PUSH2 0x4B2 JUMP JUMPDEST PUSH2 0x854 DUP2 PUSH2 0xB95 JUMP JUMPDEST POP JUMP JUMPDEST CALLER PUSH1 0x1 PUSH1 0x1 PUSH1 0xA0 SHL SUB DUP5 AND EQ DUP1 PUSH2 0x890 JUMPI POP PUSH1 0x1 PUSH1 0x1 PUSH1 0xA0 SHL SUB DUP4 AND PUSH0 SWAP1 DUP2 MSTORE PUSH1 0x1 PUSH1 0x20 SWAP1 DUP2 MSTORE PUSH1 0x40 DUP1 DUP4 KECCAK256 CALLER DUP5 MSTORE SWAP1 SWAP2 MSTORE SWAP1 KECCAK256 SLOAD PUSH1 0xFF AND JUMPDEST PUSH2 0x8DC JUMPI PUSH1 0x40 MLOAD PUSH3 0x461BCD PUSH1 0xE5 SHL DUP2 MSTORE PUSH1 0x20 PUSH1 0x4 DUP3 ADD DUP2 SWAP1 MSTORE PUSH1 0x24 DUP3 ADD MSTORE PUSH32 0x43616C6C6572206973206E6F74206F776E6572206E6F7220617070726F766564 PUSH1 0x44 DUP3 ADD MSTORE PUSH1 0x64 ADD PUSH2 0x4B2 JUMP JUMPDEST PUSH2 0x761 DUP4 DUP4 DUP4 PUSH2 0xD38 JUMP JUMPDEST PUSH1 0x60 PUSH1 0x2 DUP1 SLOAD PUSH2 0x8F6 SWAP1 PUSH2 0x1971 JUMP JUMPDEST DUP1 PUSH1 0x1F ADD PUSH1 0x20 DUP1 SWAP2 DIV MUL PUSH1 0x20 ADD PUSH1 0x40 MLOAD SWAP1 DUP2 ADD PUSH1 0x40 MSTORE DUP1 SWAP3 SWAP2 SWAP1 DUP2 DUP2 MSTORE PUSH1 0x20 ADD DUP3 DUP1 SLOAD PUSH2 0x922 SWAP1 PUSH2 0x1971 JUMP JUMPDEST DUP1 ISZERO PUSH2 0x96D JUMPI DUP1 PUSH1 0x1F LT PUSH2 0x944 JUMPI PUSH2 0x100 DUP1 DUP4 SLOAD DIV MUL DUP4 MSTORE SWAP2 PUSH1 0x20 ADD SWAP2 PUSH2 0x96D JUMP JUMPDEST DUP3 ADD SWAP2 SWAP1 PUSH0 MSTORE PUSH1 0x20 PUSH0 KECCAK256 SWAP1 JUMPDEST DUP2 SLOAD DUP2 MSTORE SWAP1 PUSH1 0x1 ADD SWAP1 PUSH1 0x20 ADD DUP1 DUP4 GT PUSH2 0x950 JUMPI DUP3 SWAP1 SUB PUSH1 0x1F AND DUP3 ADD SWAP2 JUMPDEST POP POP POP POP POP SWAP1 POP SWAP2 SWAP1 POP JUMP JUMPDEST PUSH1 0x60 PUSH0 PUSH2 0x985 DUP4 PUSH2 0xD9E JUMP JUMPDEST PUSH1 0x1 ADD SWAP1 POP PUSH0 DUP2 PUSH8 0xFFFFFFFFFFFFFFFF DUP2 GT ISZERO PUSH2 0x9A4 JUMPI PUSH2 0x9A4 PUSH2 0x1412 JUMP JUMPDEST PUSH1 0x40 MLOAD SWAP1 DUP1 DUP3 MSTORE DUP1 PUSH1 0x1F ADD PUSH1 0x1F NOT AND PUSH1 0x20 ADD DUP3 ADD PUSH1 0x40 MSTORE DUP1 ISZERO PUSH2 0x9CE JUMPI PUSH1 0x20 DUP3 ADD DUP2 DUP1 CALLDATASIZE DUP4 CALLDATACOPY ADD SWAP1 POP JUMPDEST POP SWAP1 POP DUP2 DUP2 ADD PUSH1 0x20 ADD JUMPDEST PUSH0 NOT ADD PUSH32 0x3031323334353637383961626364656600000000000000000000000000000000 PUSH1 0xA DUP7 MOD BYTE DUP2 MSTORE8 PUSH1 0xA DUP6 DIV SWAP5 POP DUP5 PUSH2 0x9D8 JUMPI POP SWAP4 SWAP3 POP POP POP JUMP JUMPDEST PUSH1 0x1 PUSH1 0x1 PUSH1 0xA0 SHL SUB DUP5 AND PUSH2 0xA3F JUMPI PUSH1 0x40 MLOAD PUSH4 0x2BFA23E7 PUSH1 0xE1 SHL DUP2 MSTORE PUSH0 PUSH1 0x4 DUP3 ADD MSTORE PUSH1 0x24 ADD PUSH2 0x4B2 JUMP JUMPDEST PUSH1 0x40 DUP1 MLOAD PUSH1 0x1 DUP1 DUP3 MSTORE PUSH1 0x20 DUP3 ADD DUP7 SWAP1 MSTORE DUP2 DUP4 ADD SWAP1 DUP2 MSTORE PUSH1 0x60 DUP3 ADD DUP6 SWAP1 MSTORE PUSH1 0x80 DUP3 ADD SWAP1 SWAP3 MSTORE SWAP1 PUSH2 0x5FE PUSH0 DUP8 DUP5 DUP5 DUP8 PUSH2 0xE7F JUMP JUMPDEST PUSH1 0x3 SLOAD PUSH1 0x1 PUSH1 0x1 PUSH1 0xA0 SHL SUB AND CALLER EQ PUSH2 0x777 JUMPI PUSH1 0x40 MLOAD PUSH32 0x118CDAA700000000000000000000000000000000000000000000000000000000 DUP2 MSTORE CALLER PUSH1 0x4 DUP3 ADD MSTORE PUSH1 0x24 ADD PUSH2 0x4B2 JUMP JUMPDEST PUSH1 0x1 PUSH1 0x1 PUSH1 0xA0 SHL SUB DUP5 AND PUSH2 0xAE0 JUMPI PUSH1 0x40 MLOAD PUSH4 0x2BFA23E7 PUSH1 0xE1 SHL DUP2 MSTORE PUSH0 PUSH1 0x4 DUP3 ADD MSTORE PUSH1 0x24 ADD PUSH2 0x4B2 JUMP JUMPDEST PUSH2 0x57B PUSH0 DUP6 DUP6 DUP6 DUP6 PUSH2 0xE7F JUMP JUMPDEST PUSH1 0x1 PUSH1 0x1 PUSH1 0xA0 SHL SUB DUP5 AND PUSH2 0xB16 JUMPI PUSH1 0x40 MLOAD PUSH4 0x2BFA23E7 PUSH1 0xE1 SHL DUP2 MSTORE PUSH0 PUSH1 0x4 DUP3 ADD MSTORE PUSH1 0x24 ADD PUSH2 0x4B2 JUMP JUMPDEST PUSH1 0x1 PUSH1 0x1 PUSH1 0xA0 SHL SUB DUP6 AND PUSH2 0xB3E JUMPI PUSH1 0x40 MLOAD PUSH3 0x6A0D45 PUSH1 0xE2 SHL DUP2 MSTORE PUSH0 PUSH1 0x4 DUP3 ADD MSTORE PUSH1 0x24 ADD PUSH2 0x4B2 JUMP JUMPDEST PUSH2 0xB4B DUP6 DUP6 DUP6 DUP6 DUP6 PUSH2 0xE7F JUMP JUMPDEST POP POP POP POP POP JUMP JUMPDEST PUSH1 0x1 PUSH1 0x1 PUSH1 0xA0 SHL SUB DUP4 AND PUSH2 0xB7A JUMPI PUSH1 0x40 MLOAD PUSH3 0x6A0D45 PUSH1 0xE2 SHL DUP2 MSTORE PUSH0 PUSH1 0x4 DUP3 ADD MSTORE PUSH1 0x24 ADD PUSH2 0x4B2 JUMP JUMPDEST PUSH2 0x761 DUP4 PUSH0 DUP5 DUP5 PUSH1 0x40 MLOAD DUP1 PUSH1 0x20 ADD PUSH1 0x40 MSTORE DUP1 PUSH0 DUP2 MSTORE POP PUSH2 0xE7F JUMP JUMPDEST PUSH1 0x3 DUP1 SLOAD PUSH1 0x1 PUSH1 0x1 PUSH1 0xA0 SHL SUB DUP4 DUP2 AND PUSH32 0xFFFFFFFFFFFFFFFFFFFFFFFF0000000000000000000000000000000000000000 DUP4 AND DUP2 OR SWAP1 SWAP4 SSTORE PUSH1 0x40 MLOAD SWAP2 AND SWAP2 SWAP1 DUP3 SWAP1 PUSH32 0x8BE0079C531659141344CD1FD0A4F28419497F9722A3DAAFE3B4186F6B6457E0 SWAP1 PUSH0 SWAP1 LOG3 POP POP JUMP JUMPDEST PUSH1 0x1 PUSH1 0x1 PUSH1 0xA0 SHL SUB DUP3 AND PUSH2 0xC40 JUMPI PUSH1 0x40 MLOAD PUSH32 0xCED3E10000000000000000000000000000000000000000000000000000000000 DUP2 MSTORE PUSH0 PUSH1 0x4 DUP3 ADD MSTORE PUSH1 0x24 ADD PUSH2 0x4B2 JUMP JUMPDEST PUSH1 0x1 PUSH1 0x1 PUSH1 0xA0 SHL SUB DUP4 DUP2 AND PUSH0 DUP2 DUP2 MSTORE PUSH1 0x1 PUSH1 0x20 SWAP1 DUP2 MSTORE PUSH1 0x40 DUP1 DUP4 KECCAK256 SWAP5 DUP8 AND DUP1 DUP5 MSTORE SWAP5 DUP3 MSTORE SWAP2 DUP3 SWAP1 KECCAK256 DUP1 SLOAD PUSH1 0xFF NOT AND DUP7 ISZERO ISZERO SWAP1 DUP2 OR SWAP1 SWAP2 SSTORE SWAP2 MLOAD SWAP2 DUP3 MSTORE PUSH32 0x17307EAB39AB6107E8899845AD3D59BD9653F200F220920489CA2B5937696C31 SWAP2 ADD PUSH1 0x40 MLOAD DUP1 SWAP2 SUB SWAP1 LOG3 POP POP POP JUMP JUMPDEST PUSH1 0x1 PUSH1 0x1 PUSH1 0xA0 SHL SUB DUP5 AND PUSH2 0xCD5 JUMPI PUSH1 0x40 MLOAD PUSH4 0x2BFA23E7 PUSH1 0xE1 SHL DUP2 MSTORE PUSH0 PUSH1 0x4 DUP3 ADD MSTORE PUSH1 0x24 ADD PUSH2 0x4B2 JUMP JUMPDEST PUSH1 0x1 PUSH1 0x1 PUSH1 0xA0 SHL SUB DUP6 AND PUSH2 0xCFD JUMPI PUSH1 0x40 MLOAD PUSH3 0x6A0D45 PUSH1 0xE2 SHL DUP2 MSTORE PUSH0 PUSH1 0x4 DUP3 ADD MSTORE PUSH1 0x24 ADD PUSH2 0x4B2 JUMP JUMPDEST PUSH1 0x40 DUP1 MLOAD PUSH1 0x1 DUP1 DUP3 MSTORE PUSH1 0x20 DUP3 ADD DUP7 SWAP1 MSTORE DUP2 DUP4 ADD SWAP1 DUP2 MSTORE PUSH1 0x60 DUP3 ADD DUP6 SWAP1 MSTORE PUSH1 0x80 DUP3 ADD SWAP1 SWAP3 MSTORE SWAP1 PUSH2 0xD2F DUP8 DUP8 DUP5 DUP5 DUP8 PUSH2 0xE7F JUMP JUMPDEST POP POP POP POP POP POP POP JUMP JUMPDEST PUSH1 0x1 PUSH1 0x1 PUSH1 0xA0 SHL SUB DUP4 AND PUSH2 0xD60 JUMPI PUSH1 0x40 MLOAD PUSH3 0x6A0D45 PUSH1 0xE2 SHL DUP2 MSTORE PUSH0 PUSH1 0x4 DUP3 ADD MSTORE PUSH1 0x24 ADD PUSH2 0x4B2 JUMP JUMPDEST PUSH1 0x40 DUP1 MLOAD PUSH1 0x1 DUP1 DUP3 MSTORE PUSH1 0x20 DUP3 ADD DUP6 SWAP1 MSTORE DUP2 DUP4 ADD SWAP1 DUP2 MSTORE PUSH1 0x60 DUP3 ADD DUP5 SWAP1 MSTORE PUSH1 0xA0 DUP3 ADD SWAP1 SWAP3 MSTORE PUSH0 PUSH1 0x80 DUP3 ADD DUP2 DUP2 MSTORE SWAP2 SWAP3 SWAP2 PUSH2 0xB4B SWAP2 DUP8 SWAP2 DUP6 SWAP1 DUP6 SWAP1 PUSH2 0xE7F JUMP JUMPDEST PUSH0 DUP1 PUSH27 0x184F03E93FF9F4DAA797ED6E38ED64BF6A1F010000000000000000 DUP4 LT PUSH2 0xDE6 JUMPI PUSH27 0x184F03E93FF9F4DAA797ED6E38ED64BF6A1F010000000000000000 DUP4 DIV SWAP3 POP PUSH1 0x40 ADD JUMPDEST PUSH14 0x4EE2D6D415B85ACEF8100000000 DUP4 LT PUSH2 0xE12 JUMPI PUSH14 0x4EE2D6D415B85ACEF8100000000 DUP4 DIV SWAP3 POP PUSH1 0x20 ADD JUMPDEST PUSH7 0x2386F26FC10000 DUP4 LT PUSH2 0xE30 JUMPI PUSH7 0x2386F26FC10000 DUP4 DIV SWAP3 POP PUSH1 0x10 ADD JUMPDEST PUSH4 0x5F5E100 DUP4 LT PUSH2 0xE48 JUMPI PUSH4 0x5F5E100 DUP4 DIV SWAP3 POP PUSH1 0x8 ADD JUMPDEST PUSH2 0x2710 DUP4 LT PUSH2 0xE5C JUMPI PUSH2 0x2710 DUP4 DIV SWAP3 POP PUSH1 0x4 ADD JUMPDEST PUSH1 0x64 DUP4 LT PUSH2 0xE6E JUMPI PUSH1 0x64 DUP4 DIV SWAP3 POP PUSH1 0x2 ADD JUMPDEST PUSH1 0xA DUP4 LT PUSH2 0x38A JUMPI PUSH1 0x1 ADD SWAP3 SWAP2 POP POP JUMP JUMPDEST PUSH2 0xE8B DUP6 DUP6 DUP6 DUP6 PUSH2 0xED2 JUMP JUMPDEST PUSH1 0x1 PUSH1 0x1 PUSH1 0xA0 SHL SUB DUP5 AND ISZERO PUSH2 0xB4B JUMPI DUP3 MLOAD CALLER SWAP1 PUSH1 0x1 SUB PUSH2 0xEC4 JUMPI PUSH1 0x20 DUP5 DUP2 ADD MLOAD SWAP1 DUP5 ADD MLOAD PUSH2 0xEBD DUP4 DUP10 DUP10 DUP6 DUP6 DUP10 PUSH2 0x10FA JUMP JUMPDEST POP POP PUSH2 0x5FE JUMP JUMPDEST PUSH2 0x5FE DUP2 DUP8 DUP8 DUP8 DUP8 DUP8 PUSH2 0x121B JUMP JUMPDEST DUP1 MLOAD DUP3 MLOAD EQ PUSH2 0xF01 JUMPI DUP2 MLOAD DUP2 MLOAD PUSH1 0x40 MLOAD PUSH4 0x5B059991 PUSH1 0xE0 SHL DUP2 MSTORE PUSH1 0x4 DUP2 ADD SWAP3 SWAP1 SWAP3 MSTORE PUSH1 0x24 DUP3 ADD MSTORE PUSH1 0x44 ADD PUSH2 0x4B2 JUMP JUMPDEST CALLER PUSH0 JUMPDEST DUP4 MLOAD DUP2 LT ISZERO PUSH2 0x101C JUMPI PUSH1 0x20 DUP2 DUP2 MUL DUP6 DUP2 ADD DUP3 ADD MLOAD SWAP1 DUP6 ADD SWAP1 SWAP2 ADD MLOAD PUSH1 0x1 PUSH1 0x1 PUSH1 0xA0 SHL SUB DUP9 AND ISZERO PUSH2 0xFCE JUMPI PUSH0 DUP3 DUP2 MSTORE PUSH1 0x20 DUP2 DUP2 MSTORE PUSH1 0x40 DUP1 DUP4 KECCAK256 PUSH1 0x1 PUSH1 0x1 PUSH1 0xA0 SHL SUB DUP13 AND DUP5 MSTORE SWAP1 SWAP2 MSTORE SWAP1 KECCAK256 SLOAD DUP2 DUP2 LT ISZERO PUSH2 0xFA8 JUMPI PUSH1 0x40 MLOAD PUSH32 0x3DEE4C500000000000000000000000000000000000000000000000000000000 DUP2 MSTORE PUSH1 0x1 PUSH1 0x1 PUSH1 0xA0 SHL SUB DUP11 AND PUSH1 0x4 DUP3 ADD MSTORE PUSH1 0x24 DUP2 ADD DUP3 SWAP1 MSTORE PUSH1 0x44 DUP2 ADD DUP4 SWAP1 MSTORE PUSH1 0x64 DUP2 ADD DUP5 SWAP1 MSTORE PUSH1 0x84 ADD PUSH2 0x4B2 JUMP JUMPDEST PUSH0 DUP4 DUP2 MSTORE PUSH1 0x20 DUP2 DUP2 MSTORE PUSH1 0x40 DUP1 DUP4 KECCAK256 PUSH1 0x1 PUSH1 0x1 PUSH1 0xA0 SHL SUB DUP14 AND DUP5 MSTORE SWAP1 SWAP2 MSTORE SWAP1 KECCAK256 SWAP1 DUP3 SWAP1 SUB SWAP1 SSTORE JUMPDEST PUSH1 0x1 PUSH1 0x1 PUSH1 0xA0 SHL SUB DUP8 AND ISZERO PUSH2 0x1012 JUMPI PUSH0 DUP3 DUP2 MSTORE PUSH1 0x20 DUP2 DUP2 MSTORE PUSH1 0x40 DUP1 DUP4 KECCAK256 PUSH1 0x1 PUSH1 0x1 PUSH1 0xA0 SHL SUB DUP12 AND DUP5 MSTORE SWAP1 SWAP2 MSTORE DUP2 KECCAK256 DUP1 SLOAD DUP4 SWAP3 SWAP1 PUSH2 0x100C SWAP1 DUP5 SWAP1 PUSH2 0x193E JUMP JUMPDEST SWAP1 SWAP2 SSTORE POP POP JUMPDEST POP POP PUSH1 0x1 ADD PUSH2 0xF04 JUMP JUMPDEST POP DUP3 MLOAD PUSH1 0x1 SUB PUSH2 0x109C JUMPI PUSH1 0x20 DUP4 ADD MLOAD PUSH0 SWAP1 PUSH1 0x20 DUP5 ADD MLOAD SWAP1 SWAP2 POP DUP6 PUSH1 0x1 PUSH1 0x1 PUSH1 0xA0 SHL SUB AND DUP8 PUSH1 0x1 PUSH1 0x1 PUSH1 0xA0 SHL SUB AND DUP5 PUSH1 0x1 PUSH1 0x1 PUSH1 0xA0 SHL SUB AND PUSH32 0xC3D58168C5AE7397731D063D5BBF3D657854427343F4C083240F7AACAA2D0F62 DUP6 DUP6 PUSH1 0x40 MLOAD PUSH2 0x108D SWAP3 SWAP2 SWAP1 SWAP2 DUP3 MSTORE PUSH1 0x20 DUP3 ADD MSTORE PUSH1 0x40 ADD SWAP1 JUMP JUMPDEST PUSH1 0x40 MLOAD DUP1 SWAP2 SUB SWAP1 LOG4 POP POP PUSH2 0xB4B JUMP JUMPDEST DUP4 PUSH1 0x1 PUSH1 0x1 PUSH1 0xA0 SHL SUB AND DUP6 PUSH1 0x1 PUSH1 0x1 PUSH1 0xA0 SHL SUB AND DUP3 PUSH1 0x1 PUSH1 0x1 PUSH1 0xA0 SHL SUB AND PUSH32 0x4A39DC06D4C0DBC64B70AF90FD698A233A518AA5D07E595D983B8C0526C8F7FB DUP7 DUP7 PUSH1 0x40 MLOAD PUSH2 0x10EB SWAP3 SWAP2 SWAP1 PUSH2 0x19A9 JUMP JUMPDEST PUSH1 0x40 MLOAD DUP1 SWAP2 SUB SWAP1 LOG4 POP POP POP POP POP JUMP JUMPDEST PUSH1 0x1 PUSH1 0x1 PUSH1 0xA0 SHL SUB DUP5 AND EXTCODESIZE ISZERO PUSH2 0x5FE JUMPI PUSH1 0x40 MLOAD PUSH4 0xF23A6E61 PUSH1 0xE0 SHL DUP2 MSTORE PUSH1 0x1 PUSH1 0x1 PUSH1 0xA0 SHL SUB DUP6 AND SWAP1 PUSH4 0xF23A6E61 SWAP1 PUSH2 0x113E SWAP1 DUP10 SWAP1 DUP10 SWAP1 DUP9 SWAP1 DUP9 SWAP1 DUP9 SWAP1 PUSH1 0x4 ADD PUSH2 0x19D6 JUMP JUMPDEST PUSH1 0x20 PUSH1 0x40 MLOAD DUP1 DUP4 SUB DUP2 PUSH0 DUP8 GAS CALL SWAP3 POP POP POP DUP1 ISZERO PUSH2 0x1178 JUMPI POP PUSH1 0x40 DUP1 MLOAD PUSH1 0x1F RETURNDATASIZE SWAP1 DUP2 ADD PUSH1 0x1F NOT AND DUP3 ADD SWAP1 SWAP3 MSTORE PUSH2 0x1175 SWAP2 DUP2 ADD SWAP1 PUSH2 0x1A18 JUMP JUMPDEST PUSH1 0x1 JUMPDEST PUSH2 0x11DF JUMPI RETURNDATASIZE DUP1 DUP1 ISZERO PUSH2 0x11A5 JUMPI PUSH1 0x40 MLOAD SWAP2 POP PUSH1 0x1F NOT PUSH1 0x3F RETURNDATASIZE ADD AND DUP3 ADD PUSH1 0x40 MSTORE RETURNDATASIZE DUP3 MSTORE RETURNDATASIZE PUSH0 PUSH1 0x20 DUP5 ADD RETURNDATACOPY PUSH2 0x11AA JUMP JUMPDEST PUSH1 0x60 SWAP2 POP JUMPDEST POP DUP1 MLOAD PUSH0 SUB PUSH2 0x11D7 JUMPI PUSH1 0x40 MLOAD PUSH4 0x2BFA23E7 PUSH1 0xE1 SHL DUP2 MSTORE PUSH1 0x1 PUSH1 0x1 PUSH1 0xA0 SHL SUB DUP7 AND PUSH1 0x4 DUP3 ADD MSTORE PUSH1 0x24 ADD PUSH2 0x4B2 JUMP JUMPDEST DUP1 MLOAD DUP2 PUSH1 0x20 ADD REVERT JUMPDEST PUSH1 0x1 PUSH1 0x1 PUSH1 0xE0 SHL SUB NOT DUP2 AND PUSH4 0xF23A6E61 PUSH1 0xE0 SHL EQ PUSH2 0xD2F JUMPI PUSH1 0x40 MLOAD PUSH4 0x2BFA23E7 PUSH1 0xE1 SHL DUP2 MSTORE PUSH1 0x1 PUSH1 0x1 PUSH1 0xA0 SHL SUB DUP7 AND PUSH1 0x4 DUP3 ADD MSTORE PUSH1 0x24 ADD PUSH2 0x4B2 JUMP JUMPDEST PUSH1 0x1 PUSH1 0x1 PUSH1 0xA0 SHL SUB DUP5 AND EXTCODESIZE ISZERO PUSH2 0x5FE JUMPI PUSH1 0x40 MLOAD PUSH4 0xBC197C81 PUSH1 0xE0 SHL DUP2 MSTORE PUSH1 0x1 PUSH1 0x1 PUSH1 0xA0 SHL SUB DUP6 AND SWAP1 PUSH4 0xBC197C81 SWAP1 PUSH2 0x125F SWAP1 DUP10 SWAP1 DUP10 SWAP1 DUP9 SWAP1 DUP9 SWAP1 DUP9 SWAP1 PUSH1 0x4 ADD PUSH2 0x1A33 JUMP JUMPDEST PUSH1 0x20 PUSH1 0x40 MLOAD DUP1 DUP4 SUB DUP2 PUSH0 DUP8 GAS CALL SWAP3 POP POP POP DUP1 ISZERO PUSH2 0x1299 JUMPI POP PUSH1 0x40 DUP1 MLOAD PUSH1 0x1F RETURNDATASIZE SWAP1 DUP2 ADD PUSH1 0x1F NOT AND DUP3 ADD SWAP1 SWAP3 MSTORE PUSH2 0x1296 SWAP2 DUP2 ADD SWAP1 PUSH2 0x1A18 JUMP JUMPDEST PUSH1 0x1 JUMPDEST PUSH2 0x12C6 JUMPI RETURNDATASIZE DUP1 DUP1 ISZERO PUSH2 0x11A5 JUMPI PUSH1 0x40 MLOAD SWAP2 POP PUSH1 0x1F NOT PUSH1 0x3F RETURNDATASIZE ADD AND DUP3 ADD PUSH1 0x40 MSTORE RETURNDATASIZE DUP3 MSTORE RETURNDATASIZE PUSH0 PUSH1 0x20 DUP5 ADD RETURNDATACOPY PUSH2 0x11AA JUMP JUMPDEST PUSH1 0x1 PUSH1 0x1 PUSH1 0xE0 SHL SUB NOT DUP2 AND PUSH4 0xBC197C81 PUSH1 0xE0 SHL EQ PUSH2 0xD2F JUMPI PUSH1 0x40 MLOAD PUSH4 0x2BFA23E7 PUSH1 0xE1 SHL DUP2 MSTORE PUSH1 0x1 PUSH1 0x1 PUSH1 0xA0 SHL SUB DUP7 AND PUSH1 0x4 DUP3 ADD MSTORE PUSH1 0x24 ADD PUSH2 0x4B2 JUMP JUMPDEST DUP1 CALLDATALOAD PUSH1 0x1 PUSH1 0x1 PUSH1 0xA0 SHL SUB DUP2 AND DUP2 EQ PUSH2 0x1318 JUMPI PUSH0 DUP1 REVERT JUMPDEST SWAP2 SWAP1 POP JUMP JUMPDEST PUSH0 DUP1 PUSH1 0x40 DUP4 DUP6 SUB SLT ISZERO PUSH2 0x132E JUMPI PUSH0 DUP1 REVERT JUMPDEST PUSH2 0x1337 DUP4 PUSH2 0x1302 JUMP JUMPDEST SWAP5 PUSH1 0x20 SWAP4 SWAP1 SWAP4 ADD CALLDATALOAD SWAP4 POP POP POP JUMP JUMPDEST PUSH1 0x1 PUSH1 0x1 PUSH1 0xE0 SHL SUB NOT DUP2 AND DUP2 EQ PUSH2 0x854 JUMPI PUSH0 DUP1 REVERT JUMPDEST PUSH0 PUSH1 0x20 DUP3 DUP5 SUB SLT ISZERO PUSH2 0x136A JUMPI PUSH0 DUP1 REVERT JUMPDEST DUP2 CALLDATALOAD PUSH2 0x1375 DUP2 PUSH2 0x1345 JUMP JUMPDEST SWAP4 SWAP3 POP POP POP JUMP JUMPDEST PUSH0 PUSH1 0x20 DUP3 DUP5 SUB SLT ISZERO PUSH2 0x138C JUMPI PUSH0 DUP1 REVERT JUMPDEST POP CALLDATALOAD SWAP2 SWAP1 POP JUMP JUMPDEST PUSH0 JUMPDEST DUP4 DUP2 LT ISZERO PUSH2 0x13AD JUMPI DUP2 DUP2 ADD MLOAD DUP4 DUP3 ADD MSTORE PUSH1 0x20 ADD PUSH2 0x1395 JUMP JUMPDEST POP POP PUSH0 SWAP2 ADD MSTORE JUMP JUMPDEST PUSH0 DUP2 MLOAD DUP1 DUP5 MSTORE PUSH2 0x13CC DUP2 PUSH1 0x20 DUP7 ADD PUSH1 0x20 DUP7 ADD PUSH2 0x1393 JUMP JUMPDEST PUSH1 0x1F ADD PUSH1 0x1F NOT AND SWAP3 SWAP1 SWAP3 ADD PUSH1 0x20 ADD SWAP3 SWAP2 POP POP JUMP JUMPDEST PUSH1 0x20 DUP2 MSTORE PUSH0 PUSH2 0x1375 PUSH1 0x20 DUP4 ADD DUP5 PUSH2 0x13B5 JUMP JUMPDEST PUSH0 DUP1 PUSH1 0x40 DUP4 DUP6 SUB SLT ISZERO PUSH2 0x1403 JUMPI PUSH0 DUP1 REVERT JUMPDEST POP POP DUP1 CALLDATALOAD SWAP3 PUSH1 0x20 SWAP1 SWAP2 ADD CALLDATALOAD SWAP2 POP JUMP JUMPDEST PUSH4 0x4E487B71 PUSH1 0xE0 SHL PUSH0 MSTORE PUSH1 0x41 PUSH1 0x4 MSTORE PUSH1 0x24 PUSH0 REVERT JUMPDEST PUSH1 0x40 MLOAD PUSH1 0x1F DUP3 ADD PUSH1 0x1F NOT AND DUP2 ADD PUSH8 0xFFFFFFFFFFFFFFFF DUP2 GT DUP3 DUP3 LT OR ISZERO PUSH2 0x144F JUMPI PUSH2 0x144F PUSH2 0x1412 JUMP JUMPDEST PUSH1 0x40 MSTORE SWAP2 SWAP1 POP JUMP JUMPDEST PUSH0 PUSH8 0xFFFFFFFFFFFFFFFF DUP3 GT ISZERO PUSH2 0x1470 JUMPI PUSH2 0x1470 PUSH2 0x1412 JUMP JUMPDEST POP PUSH1 0x5 SHL PUSH1 0x20 ADD SWAP1 JUMP JUMPDEST PUSH0 DUP3 PUSH1 0x1F DUP4 ADD SLT PUSH2 0x1489 JUMPI PUSH0 DUP1 REVERT JUMPDEST DUP2 CALLDATALOAD PUSH1 0x20 PUSH2 0x149E PUSH2 0x1499 DUP4 PUSH2 0x1457 JUMP JUMPDEST PUSH2 0x1426 JUMP JUMPDEST DUP1 DUP4 DUP3 MSTORE PUSH1 0x20 DUP3 ADD SWAP2 POP PUSH1 0x20 DUP5 PUSH1 0x5 SHL DUP8 ADD ADD SWAP4 POP DUP7 DUP5 GT ISZERO PUSH2 0x14BF JUMPI PUSH0 DUP1 REVERT JUMPDEST PUSH1 0x20 DUP7 ADD JUMPDEST DUP5 DUP2 LT ISZERO PUSH2 0x14DB JUMPI DUP1 CALLDATALOAD DUP4 MSTORE SWAP2 DUP4 ADD SWAP2 DUP4 ADD PUSH2 0x14C4 JUMP JUMPDEST POP SWAP7 SWAP6 POP POP POP POP POP POP JUMP JUMPDEST PUSH0 DUP3 PUSH1 0x1F DUP4 ADD SLT PUSH2 0x14F5 JUMPI PUSH0 DUP1 REVERT JUMPDEST DUP2 CALLDATALOAD PUSH8 0xFFFFFFFFFFFFFFFF DUP2 GT ISZERO PUSH2 0x150F JUMPI PUSH2 0x150F PUSH2 0x1412 JUMP JUMPDEST PUSH2 0x1522 PUSH1 0x1F DUP3 ADD PUSH1 0x1F NOT AND PUSH1 0x20 ADD PUSH2 0x1426 JUMP JUMPDEST DUP2 DUP2 MSTORE DUP5 PUSH1 0x20 DUP4 DUP7 ADD ADD GT ISZERO PUSH2 0x1536 JUMPI PUSH0 DUP1 REVERT JUMPDEST DUP2 PUSH1 0x20 DUP6 ADD PUSH1 0x20 DUP4 ADD CALLDATACOPY PUSH0 SWAP2 DUP2 ADD PUSH1 0x20 ADD SWAP2 SWAP1 SWAP2 MSTORE SWAP4 SWAP3 POP POP POP JUMP JUMPDEST PUSH0 DUP1 PUSH0 DUP1 PUSH1 0x80 DUP6 DUP8 SUB SLT ISZERO PUSH2 0x1565 JUMPI PUSH0 DUP1 REVERT JUMPDEST PUSH2 0x156E DUP6 PUSH2 0x1302 JUMP JUMPDEST SWAP4 POP PUSH1 0x20 DUP6 ADD CALLDATALOAD PUSH8 0xFFFFFFFFFFFFFFFF DUP1 DUP3 GT ISZERO PUSH2 0x158A JUMPI PUSH0 DUP1 REVERT JUMPDEST PUSH2 0x1596 DUP9 DUP4 DUP10 ADD PUSH2 0x147A JUMP JUMPDEST SWAP5 POP PUSH1 0x40 DUP8 ADD CALLDATALOAD SWAP2 POP DUP1 DUP3 GT ISZERO PUSH2 0x15AB JUMPI PUSH0 DUP1 REVERT JUMPDEST PUSH2 0x15B7 DUP9 DUP4 DUP10 ADD PUSH2 0x147A JUMP JUMPDEST SWAP4 POP PUSH1 0x60 DUP8 ADD CALLDATALOAD SWAP2 POP DUP1 DUP3 GT ISZERO PUSH2 0x15CC JUMPI PUSH0 DUP1 REVERT JUMPDEST POP PUSH2 0x15D9 DUP8 DUP3 DUP9 ADD PUSH2 0x14E6 JUMP JUMPDEST SWAP2 POP POP SWAP3 SWAP6 SWAP2 SWAP5 POP SWAP3 POP JUMP JUMPDEST PUSH0 DUP1 PUSH0 DUP1 PUSH0 PUSH1 0xA0 DUP7 DUP9 SUB SLT ISZERO PUSH2 0x15F9 JUMPI PUSH0 DUP1 REVERT JUMPDEST PUSH2 0x1602 DUP7 PUSH2 0x1302 JUMP JUMPDEST SWAP5 POP PUSH2 0x1610 PUSH1 0x20 DUP8 ADD PUSH2 0x1302 JUMP JUMPDEST SWAP4 POP PUSH1 0x40 DUP7 ADD CALLDATALOAD PUSH8 0xFFFFFFFFFFFFFFFF DUP1 DUP3 GT ISZERO PUSH2 0x162C JUMPI PUSH0 DUP1 REVERT JUMPDEST PUSH2 0x1638 DUP10 DUP4 DUP11 ADD PUSH2 0x147A JUMP JUMPDEST SWAP5 POP PUSH1 0x60 DUP9 ADD CALLDATALOAD SWAP2 POP DUP1 DUP3 GT ISZERO PUSH2 0x164D JUMPI PUSH0 DUP1 REVERT JUMPDEST PUSH2 0x1659 DUP10 DUP4 DUP11 ADD PUSH2 0x147A JUMP JUMPDEST SWAP4 POP PUSH1 0x80 DUP9 ADD CALLDATALOAD SWAP2 POP DUP1 DUP3 GT ISZERO PUSH2 0x166E JUMPI PUSH0 DUP1 REVERT JUMPDEST POP PUSH2 0x167B DUP9 DUP3 DUP10 ADD PUSH2 0x14E6 JUMP JUMPDEST SWAP2 POP POP SWAP3 SWAP6 POP SWAP3 SWAP6 SWAP1 SWAP4 POP JUMP JUMPDEST PUSH0 DUP1 PUSH1 0x40 DUP4 DUP6 SUB SLT ISZERO PUSH2 0x1699 JUMPI PUSH0 DUP1 REVERT JUMPDEST DUP3 CALLDATALOAD PUSH8 0xFFFFFFFFFFFFFFFF DUP1 DUP3 GT ISZERO PUSH2 0x16B0 JUMPI PUSH0 DUP1 REVERT JUMPDEST DUP2 DUP6 ADD SWAP2 POP DUP6 PUSH1 0x1F DUP4 ADD SLT PUSH2 0x16C3 JUMPI PUSH0 DUP1 REVERT JUMPDEST DUP2 CALLDATALOAD PUSH1 0x20 PUSH2 0x16D3 PUSH2 0x1499 DUP4 PUSH2 0x1457 JUMP JUMPDEST DUP3 DUP2 MSTORE PUSH1 0x5 SWAP3 SWAP1 SWAP3 SHL DUP5 ADD DUP2 ADD SWAP2 DUP2 DUP2 ADD SWAP1 DUP10 DUP5 GT ISZERO PUSH2 0x16F1 JUMPI PUSH0 DUP1 REVERT JUMPDEST SWAP5 DUP3 ADD SWAP5 JUMPDEST DUP4 DUP7 LT ISZERO PUSH2 0x1716 JUMPI PUSH2 0x1707 DUP7 PUSH2 0x1302 JUMP JUMPDEST DUP3 MSTORE SWAP5 DUP3 ADD SWAP5 SWAP1 DUP3 ADD SWAP1 PUSH2 0x16F6 JUMP JUMPDEST SWAP7 POP POP DUP7 ADD CALLDATALOAD SWAP3 POP POP DUP1 DUP3 GT ISZERO PUSH2 0x172B JUMPI PUSH0 DUP1 REVERT JUMPDEST POP PUSH2 0x1738 DUP6 DUP3 DUP7 ADD PUSH2 0x147A JUMP JUMPDEST SWAP2 POP POP SWAP3 POP SWAP3 SWAP1 POP JUMP JUMPDEST PUSH0 DUP2 MLOAD DUP1 DUP5 MSTORE PUSH1 0x20 DUP1 DUP6 ADD SWAP5 POP PUSH1 0x20 DUP5 ADD PUSH0 JUMPDEST DUP4 DUP2 LT ISZERO PUSH2 0x1771 JUMPI DUP2 MLOAD DUP8 MSTORE SWAP6 DUP3 ADD SWAP6 SWAP1 DUP3 ADD SWAP1 PUSH1 0x1 ADD PUSH2 0x1755 JUMP JUMPDEST POP SWAP5 SWAP6 SWAP5 POP POP POP POP POP JUMP JUMPDEST PUSH1 0x20 DUP2 MSTORE PUSH0 PUSH2 0x1375 PUSH1 0x20 DUP4 ADD DUP5 PUSH2 0x1742 JUMP JUMPDEST PUSH0 DUP1 PUSH0 PUSH1 0x60 DUP5 DUP7 SUB SLT ISZERO PUSH2 0x17A0 JUMPI PUSH0 DUP1 REVERT JUMPDEST PUSH2 0x17A9 DUP5 PUSH2 0x1302 JUMP JUMPDEST SWAP3 POP PUSH1 0x20 DUP5 ADD CALLDATALOAD PUSH8 0xFFFFFFFFFFFFFFFF DUP1 DUP3 GT ISZERO PUSH2 0x17C5 JUMPI PUSH0 DUP1 REVERT JUMPDEST PUSH2 0x17D1 DUP8 DUP4 DUP9 ADD PUSH2 0x147A JUMP JUMPDEST SWAP4 POP PUSH1 0x40 DUP7 ADD CALLDATALOAD SWAP2 POP DUP1 DUP3 GT ISZERO PUSH2 0x17E6 JUMPI PUSH0 DUP1 REVERT JUMPDEST POP PUSH2 0x17F3 DUP7 DUP3 DUP8 ADD PUSH2 0x147A JUMP JUMPDEST SWAP2 POP POP SWAP3 POP SWAP3 POP SWAP3 JUMP JUMPDEST PUSH0 DUP1 PUSH1 0x40 DUP4 DUP6 SUB SLT ISZERO PUSH2 0x180E JUMPI PUSH0 DUP1 REVERT JUMPDEST PUSH2 0x1817 DUP4 PUSH2 0x1302 JUMP JUMPDEST SWAP2 POP PUSH1 0x20 DUP4 ADD CALLDATALOAD DUP1 ISZERO ISZERO DUP2 EQ PUSH2 0x182B JUMPI PUSH0 DUP1 REVERT JUMPDEST DUP1 SWAP2 POP POP SWAP3 POP SWAP3 SWAP1 POP JUMP JUMPDEST PUSH0 DUP1 PUSH1 0x40 DUP4 DUP6 SUB SLT ISZERO PUSH2 0x1847 JUMPI PUSH0 DUP1 REVERT JUMPDEST PUSH2 0x1850 DUP4 PUSH2 0x1302 JUMP JUMPDEST SWAP2 POP PUSH2 0x185E PUSH1 0x20 DUP5 ADD PUSH2 0x1302 JUMP JUMPDEST SWAP1 POP SWAP3 POP SWAP3 SWAP1 POP JUMP JUMPDEST PUSH0 DUP1 PUSH0 DUP1 PUSH0 PUSH1 0xA0 DUP7 DUP9 SUB SLT ISZERO PUSH2 0x187B JUMPI PUSH0 DUP1 REVERT JUMPDEST PUSH2 0x1884 DUP7 PUSH2 0x1302 JUMP JUMPDEST SWAP5 POP PUSH2 0x1892 PUSH1 0x20 DUP8 ADD PUSH2 0x1302 JUMP JUMPDEST SWAP4 POP PUSH1 0x40 DUP7 ADD CALLDATALOAD SWAP3 POP PUSH1 0x60 DUP7 ADD CALLDATALOAD SWAP2 POP PUSH1 0x80 DUP7 ADD CALLDATALOAD PUSH8 0xFFFFFFFFFFFFFFFF DUP2 GT ISZERO PUSH2 0x18BB JUMPI PUSH0 DUP1 REVERT JUMPDEST PUSH2 0x167B DUP9 DUP3 DUP10 ADD PUSH2 0x14E6 JUMP JUMPDEST PUSH0 PUSH1 0x20 DUP3 DUP5 SUB SLT ISZERO PUSH2 0x18D7 JUMPI PUSH0 DUP1 REVERT JUMPDEST PUSH2 0x1375 DUP3 PUSH2 0x1302 JUMP JUMPDEST PUSH0 DUP1 PUSH0 PUSH1 0x60 DUP5 DUP7 SUB SLT ISZERO PUSH2 0x18F2 JUMPI PUSH0 DUP1 REVERT JUMPDEST PUSH2 0x18FB DUP5 PUSH2 0x1302 JUMP JUMPDEST SWAP6 PUSH1 0x20 DUP6 ADD CALLDATALOAD SWAP6 POP PUSH1 0x40 SWAP1 SWAP5 ADD CALLDATALOAD SWAP4 SWAP3 POP POP POP JUMP JUMPDEST PUSH0 DUP4 MLOAD PUSH2 0x1921 DUP2 DUP5 PUSH1 0x20 DUP9 ADD PUSH2 0x1393 JUMP JUMPDEST DUP4 MLOAD SWAP1 DUP4 ADD SWAP1 PUSH2 0x1935 DUP2 DUP4 PUSH1 0x20 DUP9 ADD PUSH2 0x1393 JUMP JUMPDEST ADD SWAP5 SWAP4 POP POP POP POP JUMP JUMPDEST DUP1 DUP3 ADD DUP1 DUP3 GT ISZERO PUSH2 0x38A JUMPI PUSH4 0x4E487B71 PUSH1 0xE0 SHL PUSH0 MSTORE PUSH1 0x11 PUSH1 0x4 MSTORE PUSH1 0x24 PUSH0 REVERT JUMPDEST PUSH4 0x4E487B71 PUSH1 0xE0 SHL PUSH0 MSTORE PUSH1 0x32 PUSH1 0x4 MSTORE PUSH1 0x24 PUSH0 REVERT JUMPDEST PUSH1 0x1 DUP2 DUP2 SHR SWAP1 DUP3 AND DUP1 PUSH2 0x1985 JUMPI PUSH1 0x7F DUP3 AND SWAP2 POP JUMPDEST PUSH1 0x20 DUP3 LT DUP2 SUB PUSH2 0x19A3 JUMPI PUSH4 0x4E487B71 PUSH1 0xE0 SHL PUSH0 MSTORE PUSH1 0x22 PUSH1 0x4 MSTORE PUSH1 0x24 PUSH0 REVERT JUMPDEST POP SWAP2 SWAP1 POP JUMP JUMPDEST PUSH1 0x40 DUP2 MSTORE PUSH0 PUSH2 0x19BB PUSH1 0x40 DUP4 ADD DUP6 PUSH2 0x1742 JUMP JUMPDEST DUP3 DUP2 SUB PUSH1 0x20 DUP5 ADD MSTORE PUSH2 0x19CD DUP2 DUP6 PUSH2 0x1742 JUMP JUMPDEST SWAP6 SWAP5 POP POP POP POP POP JUMP JUMPDEST PUSH0 PUSH1 0x1 PUSH1 0x1 PUSH1 0xA0 SHL SUB DUP1 DUP9 AND DUP4 MSTORE DUP1 DUP8 AND PUSH1 0x20 DUP5 ADD MSTORE POP DUP5 PUSH1 0x40 DUP4 ADD MSTORE DUP4 PUSH1 0x60 DUP4 ADD MSTORE PUSH1 0xA0 PUSH1 0x80 DUP4 ADD MSTORE PUSH2 0x1A0D PUSH1 0xA0 DUP4 ADD DUP5 PUSH2 0x13B5 JUMP JUMPDEST SWAP8 SWAP7 POP POP POP POP POP POP POP JUMP JUMPDEST PUSH0 PUSH1 0x20 DUP3 DUP5 SUB SLT ISZERO PUSH2 0x1A28 JUMPI PUSH0 DUP1 REVERT JUMPDEST DUP2 MLOAD PUSH2 0x1375 DUP2 PUSH2 0x1345 JUMP JUMPDEST PUSH0 PUSH1 0x1 PUSH1 0x1 PUSH1 0xA0 SHL SUB DUP1 DUP9 AND DUP4 MSTORE DUP1 DUP8 AND PUSH1 0x20 DUP5 ADD MSTORE POP PUSH1 0xA0 PUSH1 0x40 DUP4 ADD MSTORE PUSH2 0x1A5E PUSH1 0xA0 DUP4 ADD DUP7 PUSH2 0x1742 JUMP JUMPDEST DUP3 DUP2 SUB PUSH1 0x60 DUP5 ADD MSTORE PUSH2 0x1A70 DUP2 DUP7 PUSH2 0x1742 JUMP JUMPDEST SWAP1 POP DUP3 DUP2 SUB PUSH1 0x80 DUP5 ADD MSTORE PUSH2 0x1A84 DUP2 DUP6 PUSH2 0x13B5 JUMP JUMPDEST SWAP9 SWAP8 POP POP POP POP POP POP POP POP JUMP INVALID LOG2 PUSH5 0x6970667358 0x22 SLT KECCAK256 0xEF 0x4C DUP11 0xBF 0xD5 DUP3 0x4F 0xAC SHL MULMOD 0xCD PREVRANDAO 0xDB PUSH3 0xE4F8FA SUB DUP5 DUP3 0xAB SAR 0xD6 PUSH32 0xFF9ED70FD004A72E64736F6C63430008180033697066733A2F2F626166796265 PUSH10 0x68726B6C623232327367 PUSH10 0x6F77726A636567373672 PUSH14 0x7171707A716979756A6D6E756676 CALLER PUSH4 0x71353773 PUSH20 0x656D647862626534752F7B69647D000000000000 "
				},
				"gasEstimates": {
					"creation": {
						"codeDepositCost": "1370800",
						"executionCost": "infinite",
						"totalCost": "infinite"
					},
					"external": {
						"TOKEN_0()": "227",
						"TOKEN_1()": "250",
						"TOKEN_2()": "273",
						"TOKEN_3()": "228",
						"TOKEN_4()": "251",
						"TOKEN_5()": "250",
						"TOKEN_6()": "272",
						"balanceOf(address,uint256)": "2680",
						"balanceOfBatch(address[],uint256[])": "infinite",
						"burn(address,uint256,uint256)": "infinite",
						"burnBatch(address,uint256[],uint256[])": "infinite",
						"isApprovedForAll(address,address)": "infinite",
						"lastMintTime(address,uint256)": "2644",
						"mint(uint256,uint256)": "infinite",
						"mintBatch(address,uint256[],uint256[],bytes)": "infinite",
						"owner()": "2345",
						"renounceOwnership()": "infinite",
						"safeBatchTransferFrom(address,address,uint256[],uint256[],bytes)": "infinite",
						"safeTransferFrom(address,address,uint256,uint256,bytes)": "infinite",
						"setApprovalForAll(address,bool)": "26723",
						"supportsInterface(bytes4)": "580",
						"transferOwnership(address)": "28384",
						"uri(uint256)": "infinite"
					}
				},
				"methodIdentifiers": {
					"TOKEN_0()": "d99939a2",
					"TOKEN_1()": "4a3268e4",
					"TOKEN_2()": "82c0fa30",
					"TOKEN_3()": "453f6a32",
					"TOKEN_4()": "0d9371ad",
					"TOKEN_5()": "e74d3862",
					"TOKEN_6()": "a3cacc85",
					"balanceOf(address,uint256)": "00fdd58e",
					"balanceOfBatch(address[],uint256[])": "4e1273f4",
					"burn(address,uint256,uint256)": "f5298aca",
					"burnBatch(address,uint256[],uint256[])": "6b20c454",
					"isApprovedForAll(address,address)": "e985e9c5",
					"lastMintTime(address,uint256)": "0ce52e07",
					"mint(uint256,uint256)": "1b2ef1ca",
					"mintBatch(address,uint256[],uint256[],bytes)": "1f7fdffa",
					"owner()": "8da5cb5b",
					"renounceOwnership()": "715018a6",
					"safeBatchTransferFrom(address,address,uint256[],uint256[],bytes)": "2eb2c2d6",
					"safeTransferFrom(address,address,uint256,uint256,bytes)": "f242432a",
					"setApprovalForAll(address,bool)": "a22cb465",
					"supportsInterface(bytes4)": "01ffc9a7",
					"transferOwnership(address)": "f2fde38b",
					"uri(uint256)": "0e89341c"
				}
			},
			"storageLayout": {
				"storage": [
					{
						"astId": 326,
						"contract": "module-3/ERC1155token.sol:MyERC1155Token",
						"label": "_balances",
						"offset": 0,
						"slot": "0",
						"type": "t_mapping(t_uint256,t_mapping(t_address,t_uint256))"
					},
					{
						"astId": 332,
						"contract": "module-3/ERC1155token.sol:MyERC1155Token",
						"label": "_operatorApprovals",
						"offset": 0,
						"slot": "1",
						"type": "t_mapping(t_address,t_mapping(t_address,t_bool))"
					},
					{
						"astId": 334,
						"contract": "module-3/ERC1155token.sol:MyERC1155Token",
						"label": "_uri",
						"offset": 0,
						"slot": "2",
						"type": "t_string_storage"
					},
					{
						"astId": 8,
						"contract": "module-3/ERC1155token.sol:MyERC1155Token",
						"label": "_owner",
						"offset": 0,
						"slot": "3",
						"type": "t_address"
					},
					{
						"astId": 3328,
						"contract": "module-3/ERC1155token.sol:MyERC1155Token",
						"label": "lastMintTime",
						"offset": 0,
						"slot": "4",
						"type": "t_mapping(t_address,t_mapping(t_uint256,t_uint256))"
					}
				],
				"types": {
					"t_address": {
						"encoding": "inplace",
						"label": "address",
						"numberOfBytes": "20"
					},
					"t_bool": {
						"encoding": "inplace",
						"label": "bool",
						"numberOfBytes": "1"
					},
					"t_mapping(t_address,t_bool)": {
						"encoding": "mapping",
						"key": "t_address",
						"label": "mapping(address => bool)",
						"numberOfBytes": "32",
						"value": "t_bool"
					},
					"t_mapping(t_address,t_mapping(t_address,t_bool))": {
						"encoding": "mapping",
						"key": "t_address",
						"label": "mapping(address => mapping(address => bool))",
						"numberOfBytes": "32",
						"value": "t_mapping(t_address,t_bool)"
					},
					"t_mapping(t_address,t_mapping(t_uint256,t_uint256))": {
						"encoding": "mapping",
						"key": "t_address",
						"label": "mapping(address => mapping(uint256 => uint256))",
						"numberOfBytes": "32",
						"value": "t_mapping(t_uint256,t_uint256)"
					},
					"t_mapping(t_address,t_uint256)": {
						"encoding": "mapping",
						"key": "t_address",
						"label": "mapping(address => uint256)",
						"numberOfBytes": "32",
						"value": "t_uint256"
					},
					"t_mapping(t_uint256,t_mapping(t_address,t_uint256))": {
						"encoding": "mapping",
						"key": "t_uint256",
						"label": "mapping(uint256 => mapping(address => uint256))",
						"numberOfBytes": "32",
						"value": "t_mapping(t_address,t_uint256)"
					},
					"t_mapping(t_uint256,t_uint256)": {
						"encoding": "mapping",
						"key": "t_uint256",
						"label": "mapping(uint256 => uint256)",
						"numberOfBytes": "32",
						"value": "t_uint256"
					},
					"t_string_storage": {
						"encoding": "bytes",
						"label": "string",
						"numberOfBytes": "32"
					},
					"t_uint256": {
						"encoding": "inplace",
						"label": "uint256",
						"numberOfBytes": "32"
					}
				}
			},
			"userdoc": {
				"kind": "user",
				"methods": {},
				"version": 1
			}
		}
	}
}