{
	"module-3/ERC1155token.sol": {
		"MyERC1155Token": {
			"abi": [
				{
					"inputs": [],
					"stateMutability": "nonpayable",
					"type": "constructor"
				},
				{
					"inputs": [
						{
							"internalType": "address",
							"name": "sender",
							"type": "address"
						},
						{
							"internalType": "uint256",
							"name": "balance",
							"type": "uint256"
						},
						{
							"internalType": "uint256",
							"name": "needed",
							"type": "uint256"
						},
						{
							"internalType": "uint256",
							"name": "tokenId",
							"type": "uint256"
						}
					],
					"name": "ERC1155InsufficientBalance",
					"type": "error"
				},
				{
					"inputs": [
						{
							"internalType": "address",
							"name": "approver",
							"type": "address"
						}
					],
					"name": "ERC1155InvalidApprover",
					"type": "error"
				},
				{
					"inputs": [
						{
							"internalType": "uint256",
							"name": "idsLength",
							"type": "uint256"
						},
						{
							"internalType": "uint256",
							"name": "valuesLength",
							"type": "uint256"
						}
					],
					"name": "ERC1155InvalidArrayLength",
					"type": "error"
				},
				{
					"inputs": [
						{
							"internalType": "address",
							"name": "operator",
							"type": "address"
						}
					],
					"name": "ERC1155InvalidOperator",
					"type": "error"
				},
				{
					"inputs": [
						{
							"internalType": "address",
							"name": "receiver",
							"type": "address"
						}
					],
					"name": "ERC1155InvalidReceiver",
					"type": "error"
				},
				{
					"inputs": [
						{
							"internalType": "address",
							"name": "sender",
							"type": "address"
						}
					],
					"name": "ERC1155InvalidSender",
					"type": "error"
				},
				{
					"inputs": [
						{
							"internalType": "address",
							"name": "operator",
							"type": "address"
						},
						{
							"internalType": "address",
							"name": "owner",
							"type": "address"
						}
					],
					"name": "ERC1155MissingApprovalForAll",
					"type": "error"
				},
				{
					"inputs": [
						{
							"internalType": "address",
							"name": "owner",
							"type": "address"
						}
					],
					"name": "OwnableInvalidOwner",
					"type": "error"
				},
				{
					"inputs": [
						{
							"internalType": "address",
							"name": "account",
							"type": "address"
						}
					],
					"name": "OwnableUnauthorizedAccount",
					"type": "error"
				},
				{
					"anonymous": false,
					"inputs": [
						{
							"indexed": true,
							"internalType": "address",
							"name": "account",
							"type": "address"
						},
						{
							"indexed": true,
							"internalType": "address",
							"name": "operator",
							"type": "address"
						},
						{
							"indexed": false,
							"internalType": "bool",
							"name": "approved",
							"type": "bool"
						}
					],
					"name": "ApprovalForAll",
					"type": "event"
				},
				{
					"anonymous": false,
					"inputs": [
						{
							"indexed": true,
							"internalType": "address",
							"name": "previousOwner",
							"type": "address"
						},
						{
							"indexed": true,
							"internalType": "address",
							"name": "newOwner",
							"type": "address"
						}
					],
					"name": "OwnershipTransferred",
					"type": "event"
				},
				{
					"anonymous": false,
					"inputs": [
						{
							"indexed": true,
							"internalType": "address",
							"name": "operator",
							"type": "address"
						},
						{
							"indexed": true,
							"internalType": "address",
							"name": "from",
							"type": "address"
						},
						{
							"indexed": true,
							"internalType": "address",
							"name": "to",
							"type": "address"
						},
						{
							"indexed": false,
							"internalType": "uint256[]",
							"name": "ids",
							"type": "uint256[]"
						},
						{
							"indexed": false,
							"internalType": "uint256[]",
							"name": "values",
							"type": "uint256[]"
						}
					],
					"name": "TransferBatch",
					"type": "event"
				},
				{
					"anonymous": false,
					"inputs": [
						{
							"indexed": true,
							"internalType": "address",
							"name": "operator",
							"type": "address"
						},
						{
							"indexed": true,
							"internalType": "address",
							"name": "from",
							"type": "address"
						},
						{
							"indexed": true,
							"internalType": "address",
							"name": "to",
							"type": "address"
						},
						{
							"indexed": false,
							"internalType": "uint256",
							"name": "id",
							"type": "uint256"
						},
						{
							"indexed": false,
							"internalType": "uint256",
							"name": "value",
							"type": "uint256"
						}
					],
					"name": "TransferSingle",
					"type": "event"
				},
				{
					"anonymous": false,
					"inputs": [
						{
							"indexed": false,
							"internalType": "string",
							"name": "value",
							"type": "string"
						},
						{
							"indexed": true,
							"internalType": "uint256",
							"name": "id",
							"type": "uint256"
						}
					],
					"name": "URI",
					"type": "event"
				},
				{
					"inputs": [],
					"name": "TOKEN_0",
					"outputs": [
						{
							"internalType": "uint256",
							"name": "",
							"type": "uint256"
						}
					],
					"stateMutability": "view",
					"type": "function"
				},
				{
					"inputs": [],
					"name": "TOKEN_1",
					"outputs": [
						{
							"internalType": "uint256",
							"name": "",
							"type": "uint256"
						}
					],
					"stateMutability": "view",
					"type": "function"
				},
				{
					"inputs": [],
					"name": "TOKEN_2",
					"outputs": [
						{
							"internalType": "uint256",
							"name": "",
							"type": "uint256"
						}
					],
					"stateMutability": "view",
					"type": "function"
				},
				{
					"inputs": [],
					"name": "TOKEN_3",
					"outputs": [
						{
							"internalType": "uint256",
							"name": "",
							"type": "uint256"
						}
					],
					"stateMutability": "view",
					"type": "function"
				},
				{
					"inputs": [],
					"name": "TOKEN_4",
					"outputs": [
						{
							"internalType": "uint256",
							"name": "",
							"type": "uint256"
						}
					],
					"stateMutability": "view",
					"type": "function"
				},
				{
					"inputs": [],
					"name": "TOKEN_5",
					"outputs": [
						{
							"internalType": "uint256",
							"name": "",
							"type": "uint256"
						}
					],
					"stateMutability": "view",
					"type": "function"
				},
				{
					"inputs": [],
					"name": "TOKEN_6",
					"outputs": [
						{
							"internalType": "uint256",
							"name": "",
							"type": "uint256"
						}
					],
					"stateMutability": "view",
					"type": "function"
				},
				{
					"inputs": [
						{
							"internalType": "address",
							"name": "account",
							"type": "address"
						},
						{
							"internalType": "uint256",
							"name": "id",
							"type": "uint256"
						}
					],
					"name": "balanceOf",
					"outputs": [
						{
							"internalType": "uint256",
							"name": "",
							"type": "uint256"
						}
					],
					"stateMutability": "view",
					"type": "function"
				},
				{
					"inputs": [
						{
							"internalType": "address[]",
							"name": "accounts",
							"type": "address[]"
						},
						{
							"internalType": "uint256[]",
							"name": "ids",
							"type": "uint256[]"
						}
					],
					"name": "balanceOfBatch",
					"outputs": [
						{
							"internalType": "uint256[]",
							"name": "",
							"type": "uint256[]"
						}
					],
					"stateMutability": "view",
					"type": "function"
				},
				{
					"inputs": [
						{
							"internalType": "address",
							"name": "from",
							"type": "address"
						},
						{
							"internalType": "uint256",
							"name": "id",
							"type": "uint256"
						},
						{
							"internalType": "uint256",
							"name": "amount",
							"type": "uint256"
						}
					],
					"name": "burn",
					"outputs": [],
					"stateMutability": "nonpayable",
					"type": "function"
				},
				{
					"inputs": [
						{
							"internalType": "address",
							"name": "account",
							"type": "address"
						},
						{
							"internalType": "address",
							"name": "operator",
							"type": "address"
						}
					],
					"name": "isApprovedForAll",
					"outputs": [
						{
							"internalType": "bool",
							"name": "",
							"type": "bool"
						}
					],
					"stateMutability": "view",
					"type": "function"
				},
				{
					"inputs": [
						{
							"internalType": "address",
							"name": "",
							"type": "address"
						},
						{
							"internalType": "uint256",
							"name": "",
							"type": "uint256"
						}
					],
					"name": "lastMintTime",
					"outputs": [
						{
							"internalType": "uint256",
							"name": "",
							"type": "uint256"
						}
					],
					"stateMutability": "view",
					"type": "function"
				},
				{
					"inputs": [
						{
							"internalType": "uint256",
							"name": "id",
							"type": "uint256"
						},
						{
							"internalType": "uint256",
							"name": "amount",
							"type": "uint256"
						}
					],
					"name": "mint",
					"outputs": [],
					"stateMutability": "nonpayable",
					"type": "function"
				},
				{
					"inputs": [],
					"name": "owner",
					"outputs": [
						{
							"internalType": "address",
							"name": "",
							"type": "address"
						}
					],
					"stateMutability": "view",
					"type": "function"
				},
				{
					"inputs": [],
					"name": "renounceOwnership",
					"outputs": [],
					"stateMutability": "nonpayable",
					"type": "function"
				},
				{
					"inputs": [
						{
							"internalType": "address",
							"name": "from",
							"type": "address"
						},
						{
							"internalType": "address",
							"name": "to",
							"type": "address"
						},
						{
							"internalType": "uint256[]",
							"name": "ids",
							"type": "uint256[]"
						},
						{
							"internalType": "uint256[]",
							"name": "values",
							"type": "uint256[]"
						},
						{
							"internalType": "bytes",
							"name": "data",
							"type": "bytes"
						}
					],
					"name": "safeBatchTransferFrom",
					"outputs": [],
					"stateMutability": "nonpayable",
					"type": "function"
				},
				{
					"inputs": [
						{
							"internalType": "address",
							"name": "from",
							"type": "address"
						},
						{
							"internalType": "address",
							"name": "to",
							"type": "address"
						},
						{
							"internalType": "uint256",
							"name": "id",
							"type": "uint256"
						},
						{
							"internalType": "uint256",
							"name": "value",
							"type": "uint256"
						},
						{
							"internalType": "bytes",
							"name": "data",
							"type": "bytes"
						}
					],
					"name": "safeTransferFrom",
					"outputs": [],
					"stateMutability": "nonpayable",
					"type": "function"
				},
				{
					"inputs": [
						{
							"internalType": "address",
							"name": "operator",
							"type": "address"
						},
						{
							"internalType": "bool",
							"name": "approved",
							"type": "bool"
						}
					],
					"name": "setApprovalForAll",
					"outputs": [],
					"stateMutability": "nonpayable",
					"type": "function"
				},
				{
					"inputs": [
						{
							"internalType": "bytes4",
							"name": "interfaceId",
							"type": "bytes4"
						}
					],
					"name": "supportsInterface",
					"outputs": [
						{
							"internalType": "bool",
							"name": "",
							"type": "bool"
						}
					],
					"stateMutability": "view",
					"type": "function"
				},
				{
					"inputs": [
						{
							"internalType": "address",
							"name": "newOwner",
							"type": "address"
						}
					],
					"name": "transferOwnership",
					"outputs": [],
					"stateMutability": "nonpayable",
					"type": "function"
				},
				{
					"inputs": [
						{
							"internalType": "uint256",
							"name": "id",
							"type": "uint256"
						}
					],
					"name": "uri",
					"outputs": [
						{
							"internalType": "string",
							"name": "",
							"type": "string"
						}
					],
					"stateMutability": "view",
					"type": "function"
				}
			],
			"devdoc": {
				"errors": {
					"ERC1155InsufficientBalance(address,uint256,uint256,uint256)": [
						{
							"details": "Indicates an error related to the current `balance` of a `sender`. Used in transfers.",
							"params": {
								"balance": "Current balance for the interacting account.",
								"needed": "Minimum amount required to perform a transfer.",
								"sender": "Address whose tokens are being transferred.",
								"tokenId": "Identifier number of a token."
							}
						}
					],
					"ERC1155InvalidApprover(address)": [
						{
							"details": "Indicates a failure with the `approver` of a token to be approved. Used in approvals.",
							"params": {
								"approver": "Address initiating an approval operation."
							}
						}
					],
					"ERC1155InvalidArrayLength(uint256,uint256)": [
						{
							"details": "Indicates an array length mismatch between ids and values in a safeBatchTransferFrom operation. Used in batch transfers.",
							"params": {
								"idsLength": "Length of the array of token identifiers",
								"valuesLength": "Length of the array of token amounts"
							}
						}
					],
					"ERC1155InvalidOperator(address)": [
						{
							"details": "Indicates a failure with the `operator` to be approved. Used in approvals.",
							"params": {
								"operator": "Address that may be allowed to operate on tokens without being their owner."
							}
						}
					],
					"ERC1155InvalidReceiver(address)": [
						{
							"details": "Indicates a failure with the token `receiver`. Used in transfers.",
							"params": {
								"receiver": "Address to which tokens are being transferred."
							}
						}
					],
					"ERC1155InvalidSender(address)": [
						{
							"details": "Indicates a failure with the token `sender`. Used in transfers.",
							"params": {
								"sender": "Address whose tokens are being transferred."
							}
						}
					],
					"ERC1155MissingApprovalForAll(address,address)": [
						{
							"details": "Indicates a failure with the `operator`’s approval. Used in transfers.",
							"params": {
								"operator": "Address that may be allowed to operate on tokens without being their owner.",
								"owner": "Address of the current owner of a token."
							}
						}
					],
					"OwnableInvalidOwner(address)": [
						{
							"details": "The owner is not a valid owner account. (eg. `address(0)`)"
						}
					],
					"OwnableUnauthorizedAccount(address)": [
						{
							"details": "The caller account is not authorized to perform an operation."
						}
					]
				},
				"events": {
					"ApprovalForAll(address,address,bool)": {
						"details": "Emitted when `account` grants or revokes permission to `operator` to transfer their tokens, according to `approved`."
					},
					"TransferBatch(address,address,address,uint256[],uint256[])": {
						"details": "Equivalent to multiple {TransferSingle} events, where `operator`, `from` and `to` are the same for all transfers."
					},
					"TransferSingle(address,address,address,uint256,uint256)": {
						"details": "Emitted when `value` amount of tokens of type `id` are transferred from `from` to `to` by `operator`."
					},
					"URI(string,uint256)": {
						"details": "Emitted when the URI for token type `id` changes to `value`, if it is a non-programmatic URI. If an {URI} event was emitted for `id`, the standard https://eips.ethereum.org/EIPS/eip-1155#metadata-extensions[guarantees] that `value` will equal the value returned by {IERC1155MetadataURI-uri}."
					}
				},
				"kind": "dev",
				"methods": {
					"balanceOf(address,uint256)": {
						"details": "See {IERC1155-balanceOf}."
					},
					"balanceOfBatch(address[],uint256[])": {
						"details": "See {IERC1155-balanceOfBatch}. Requirements: - `accounts` and `ids` must have the same length."
					},
					"isApprovedForAll(address,address)": {
						"details": "See {IERC1155-isApprovedForAll}."
					},
					"owner()": {
						"details": "Returns the address of the current owner."
					},
					"renounceOwnership()": {
						"details": "Leaves the contract without owner. It will not be possible to call `onlyOwner` functions. Can only be called by the current owner. NOTE: Renouncing ownership will leave the contract without an owner, thereby disabling any functionality that is only available to the owner."
					},
					"safeBatchTransferFrom(address,address,uint256[],uint256[],bytes)": {
						"details": "See {IERC1155-safeBatchTransferFrom}."
					},
					"safeTransferFrom(address,address,uint256,uint256,bytes)": {
						"details": "See {IERC1155-safeTransferFrom}."
					},
					"setApprovalForAll(address,bool)": {
						"details": "See {IERC1155-setApprovalForAll}."
					},
					"supportsInterface(bytes4)": {
						"details": "See {IERC165-supportsInterface}."
					},
					"transferOwnership(address)": {
						"details": "Transfers ownership of the contract to a new account (`newOwner`). Can only be called by the current owner."
					}
				},
				"version": 1
			},
			"evm": {
				"assembly": "    /* \"module-3/ERC1155token.sol\":223:1486  contract MyERC1155Token is ERC1155,Ownable  {... */\n  mstore(0x40, 0x80)\n    /* \"module-3/ERC1155token.sol\":667:785  constructor() ERC1155(\"ipfs://bafybeihrklb222sgiowrjceg76rmqqpzqiyujmnufv3cq57ssemdxbbe4u/{id}\") Ownable(msg.sender){} */\n  callvalue\n  dup1\n  iszero\n  tag_1\n  jumpi\n  0x00\n  dup1\n  revert\ntag_1:\n  pop\n    /* \"module-3/ERC1155token.sol\":772:782  msg.sender */\n  caller\n    /* \"@openzeppelin/contracts/token/ERC1155/ERC1155.sol\":1251:1313  constructor(string memory uri_) {... */\n  mload(0x40)\n  dup1\n  0x80\n  add\n  0x40\n  mstore\n  dup1\n  0x47\n  dup2\n  mstore\n  0x20\n  add\n  data_3a101464a4e84a7d1a807d584bce9e27324494de0a05dedef590e97c5130cc4d\n  0x47\n  swap2\n  codecopy\n    /* \"@openzeppelin/contracts/token/ERC1155/ERC1155.sol\":1293:1306  _setURI(uri_) */\n  tag_6\n    /* \"@openzeppelin/contracts/token/ERC1155/ERC1155.sol\":1301:1305  uri_ */\n  dup2\n    /* \"@openzeppelin/contracts/token/ERC1155/ERC1155.sol\":1293:1300  _setURI */\n  shl(0x20, tag_7)\n    /* \"@openzeppelin/contracts/token/ERC1155/ERC1155.sol\":1293:1306  _setURI(uri_) */\n  0x20\n  shr\n  jump\t// in\ntag_6:\n    /* \"@openzeppelin/contracts/token/ERC1155/ERC1155.sol\":1251:1313  constructor(string memory uri_) {... */\n  pop\n    /* \"@openzeppelin/contracts/access/Ownable.sol\":1297:1298  0 */\n  0x00\n    /* \"@openzeppelin/contracts/access/Ownable.sol\":1273:1299  initialOwner == address(0) */\n  0xffffffffffffffffffffffffffffffffffffffff\n  and\n    /* \"@openzeppelin/contracts/access/Ownable.sol\":1273:1285  initialOwner */\n  dup2\n    /* \"@openzeppelin/contracts/access/Ownable.sol\":1273:1299  initialOwner == address(0) */\n  0xffffffffffffffffffffffffffffffffffffffff\n  and\n  sub\n    /* \"@openzeppelin/contracts/access/Ownable.sol\":1269:1364  if (initialOwner == address(0)) {... */\n  tag_9\n  jumpi\n    /* \"@openzeppelin/contracts/access/Ownable.sol\":1350:1351  0 */\n  0x00\n    /* \"@openzeppelin/contracts/access/Ownable.sol\":1322:1353  OwnableInvalidOwner(address(0)) */\n  mload(0x40)\n  0x1e4fbdf700000000000000000000000000000000000000000000000000000000\n  dup2\n  mstore\n  0x04\n  add\n  tag_10\n  swap2\n  swap1\n  tag_11\n  jump\t// in\ntag_10:\n  mload(0x40)\n  dup1\n  swap2\n  sub\n  swap1\n  revert\n    /* \"@openzeppelin/contracts/access/Ownable.sol\":1269:1364  if (initialOwner == address(0)) {... */\ntag_9:\n    /* \"@openzeppelin/contracts/access/Ownable.sol\":1373:1405  _transferOwnership(initialOwner) */\n  tag_12\n    /* \"@openzeppelin/contracts/access/Ownable.sol\":1392:1404  initialOwner */\n  dup2\n    /* \"@openzeppelin/contracts/access/Ownable.sol\":1373:1391  _transferOwnership */\n  shl(0x20, tag_13)\n    /* \"@openzeppelin/contracts/access/Ownable.sol\":1373:1405  _transferOwnership(initialOwner) */\n  0x20\n  shr\n  jump\t// in\ntag_12:\n    /* \"@openzeppelin/contracts/access/Ownable.sol\":1225:1412  constructor(address initialOwner) {... */\n  pop\n    /* \"module-3/ERC1155token.sol\":223:1486  contract MyERC1155Token is ERC1155,Ownable  {... */\n  jump(tag_15)\n    /* \"@openzeppelin/contracts/token/ERC1155/ERC1155.sol\":10282:10368  function _setURI(string memory newuri) internal virtual {... */\ntag_7:\n    /* \"@openzeppelin/contracts/token/ERC1155/ERC1155.sol\":10355:10361  newuri */\n  dup1\n    /* \"@openzeppelin/contracts/token/ERC1155/ERC1155.sol\":10348:10352  _uri */\n  0x02\n    /* \"@openzeppelin/contracts/token/ERC1155/ERC1155.sol\":10348:10361  _uri = newuri */\n  swap1\n  dup2\n  tag_17\n  swap2\n  swap1\n  tag_18\n  jump\t// in\ntag_17:\n  pop\n    /* \"@openzeppelin/contracts/token/ERC1155/ERC1155.sol\":10282:10368  function _setURI(string memory newuri) internal virtual {... */\n  pop\n  jump\t// out\n    /* \"@openzeppelin/contracts/access/Ownable.sol\":2912:3099  function _transferOwnership(address newOwner) internal virtual {... */\ntag_13:\n    /* \"@openzeppelin/contracts/access/Ownable.sol\":2985:3001  address oldOwner */\n  0x00\n    /* \"@openzeppelin/contracts/access/Ownable.sol\":3004:3010  _owner */\n  0x03\n  0x00\n  swap1\n  sload\n  swap1\n  0x0100\n  exp\n  swap1\n  div\n  0xffffffffffffffffffffffffffffffffffffffff\n  and\n    /* \"@openzeppelin/contracts/access/Ownable.sol\":2985:3010  address oldOwner = _owner */\n  swap1\n  pop\n    /* \"@openzeppelin/contracts/access/Ownable.sol\":3029:3037  newOwner */\n  dup2\n    /* \"@openzeppelin/contracts/access/Ownable.sol\":3020:3026  _owner */\n  0x03\n  0x00\n    /* \"@openzeppelin/contracts/access/Ownable.sol\":3020:3037  _owner = newOwner */\n  0x0100\n  exp\n  dup2\n  sload\n  dup2\n  0xffffffffffffffffffffffffffffffffffffffff\n  mul\n  not\n  and\n  swap1\n  dup4\n  0xffffffffffffffffffffffffffffffffffffffff\n  and\n  mul\n  or\n  swap1\n  sstore\n  pop\n    /* \"@openzeppelin/contracts/access/Ownable.sol\":3083:3091  newOwner */\n  dup2\n    /* \"@openzeppelin/contracts/access/Ownable.sol\":3052:3092  OwnershipTransferred(oldOwner, newOwner) */\n  0xffffffffffffffffffffffffffffffffffffffff\n  and\n    /* \"@openzeppelin/contracts/access/Ownable.sol\":3073:3081  oldOwner */\n  dup2\n    /* \"@openzeppelin/contracts/access/Ownable.sol\":3052:3092  OwnershipTransferred(oldOwner, newOwner) */\n  0xffffffffffffffffffffffffffffffffffffffff\n  and\n  0x8be0079c531659141344cd1fd0a4f28419497f9722a3daafe3b4186f6b6457e0\n  mload(0x40)\n  mload(0x40)\n  dup1\n  swap2\n  sub\n  swap1\n  log3\n    /* \"@openzeppelin/contracts/access/Ownable.sol\":2975:3099  {... */\n  pop\n    /* \"@openzeppelin/contracts/access/Ownable.sol\":2912:3099  function _transferOwnership(address newOwner) internal virtual {... */\n  pop\n  jump\t// out\n    /* \"#utility.yul\":7:133   */\ntag_20:\n    /* \"#utility.yul\":44:51   */\n  0x00\n    /* \"#utility.yul\":84:126   */\n  0xffffffffffffffffffffffffffffffffffffffff\n    /* \"#utility.yul\":77:82   */\n  dup3\n    /* \"#utility.yul\":73:127   */\n  and\n    /* \"#utility.yul\":62:127   */\n  swap1\n  pop\n    /* \"#utility.yul\":7:133   */\n  swap2\n  swap1\n  pop\n  jump\t// out\n    /* \"#utility.yul\":139:235   */\ntag_21:\n    /* \"#utility.yul\":176:183   */\n  0x00\n    /* \"#utility.yul\":205:229   */\n  tag_46\n    /* \"#utility.yul\":223:228   */\n  dup3\n    /* \"#utility.yul\":205:229   */\n  tag_20\n  jump\t// in\ntag_46:\n    /* \"#utility.yul\":194:229   */\n  swap1\n  pop\n    /* \"#utility.yul\":139:235   */\n  swap2\n  swap1\n  pop\n  jump\t// out\n    /* \"#utility.yul\":241:359   */\ntag_22:\n    /* \"#utility.yul\":328:352   */\n  tag_48\n    /* \"#utility.yul\":346:351   */\n  dup2\n    /* \"#utility.yul\":328:352   */\n  tag_21\n  jump\t// in\ntag_48:\n    /* \"#utility.yul\":323:326   */\n  dup3\n    /* \"#utility.yul\":316:353   */\n  mstore\n    /* \"#utility.yul\":241:359   */\n  pop\n  pop\n  jump\t// out\n    /* \"#utility.yul\":365:587   */\ntag_11:\n    /* \"#utility.yul\":458:462   */\n  0x00\n    /* \"#utility.yul\":496:498   */\n  0x20\n    /* \"#utility.yul\":485:494   */\n  dup3\n    /* \"#utility.yul\":481:499   */\n  add\n    /* \"#utility.yul\":473:499   */\n  swap1\n  pop\n    /* \"#utility.yul\":509:580   */\n  tag_50\n    /* \"#utility.yul\":577:578   */\n  0x00\n    /* \"#utility.yul\":566:575   */\n  dup4\n    /* \"#utility.yul\":562:579   */\n  add\n    /* \"#utility.yul\":553:559   */\n  dup5\n    /* \"#utility.yul\":509:580   */\n  tag_22\n  jump\t// in\ntag_50:\n    /* \"#utility.yul\":365:587   */\n  swap3\n  swap2\n  pop\n  pop\n  jump\t// out\n    /* \"#utility.yul\":593:692   */\ntag_23:\n    /* \"#utility.yul\":645:651   */\n  0x00\n    /* \"#utility.yul\":679:684   */\n  dup2\n    /* \"#utility.yul\":673:685   */\n  mload\n    /* \"#utility.yul\":663:685   */\n  swap1\n  pop\n    /* \"#utility.yul\":593:692   */\n  swap2\n  swap1\n  pop\n  jump\t// out\n    /* \"#utility.yul\":698:878   */\ntag_24:\n    /* \"#utility.yul\":746:823   */\n  0x4e487b7100000000000000000000000000000000000000000000000000000000\n    /* \"#utility.yul\":743:744   */\n  0x00\n    /* \"#utility.yul\":736:824   */\n  mstore\n    /* \"#utility.yul\":843:847   */\n  0x41\n    /* \"#utility.yul\":840:841   */\n  0x04\n    /* \"#utility.yul\":833:848   */\n  mstore\n    /* \"#utility.yul\":867:871   */\n  0x24\n    /* \"#utility.yul\":864:865   */\n  0x00\n    /* \"#utility.yul\":857:872   */\n  revert\n    /* \"#utility.yul\":884:1064   */\ntag_25:\n    /* \"#utility.yul\":932:1009   */\n  0x4e487b7100000000000000000000000000000000000000000000000000000000\n    /* \"#utility.yul\":929:930   */\n  0x00\n    /* \"#utility.yul\":922:1010   */\n  mstore\n    /* \"#utility.yul\":1029:1033   */\n  0x22\n    /* \"#utility.yul\":1026:1027   */\n  0x04\n    /* \"#utility.yul\":1019:1034   */\n  mstore\n    /* \"#utility.yul\":1053:1057   */\n  0x24\n    /* \"#utility.yul\":1050:1051   */\n  0x00\n    /* \"#utility.yul\":1043:1058   */\n  revert\n    /* \"#utility.yul\":1070:1390   */\ntag_26:\n    /* \"#utility.yul\":1114:1120   */\n  0x00\n    /* \"#utility.yul\":1151:1152   */\n  0x02\n    /* \"#utility.yul\":1145:1149   */\n  dup3\n    /* \"#utility.yul\":1141:1153   */\n  div\n    /* \"#utility.yul\":1131:1153   */\n  swap1\n  pop\n    /* \"#utility.yul\":1198:1199   */\n  0x01\n    /* \"#utility.yul\":1192:1196   */\n  dup3\n    /* \"#utility.yul\":1188:1200   */\n  and\n    /* \"#utility.yul\":1219:1237   */\n  dup1\n    /* \"#utility.yul\":1209:1290   */\n  tag_55\n  jumpi\n    /* \"#utility.yul\":1275:1279   */\n  0x7f\n    /* \"#utility.yul\":1267:1273   */\n  dup3\n    /* \"#utility.yul\":1263:1280   */\n  and\n    /* \"#utility.yul\":1253:1280   */\n  swap2\n  pop\n    /* \"#utility.yul\":1209:1290   */\ntag_55:\n    /* \"#utility.yul\":1337:1339   */\n  0x20\n    /* \"#utility.yul\":1329:1335   */\n  dup3\n    /* \"#utility.yul\":1326:1340   */\n  lt\n    /* \"#utility.yul\":1306:1324   */\n  dup2\n    /* \"#utility.yul\":1303:1341   */\n  sub\n    /* \"#utility.yul\":1300:1384   */\n  tag_56\n  jumpi\n    /* \"#utility.yul\":1356:1374   */\n  tag_57\n  tag_25\n  jump\t// in\ntag_57:\n    /* \"#utility.yul\":1300:1384   */\ntag_56:\n    /* \"#utility.yul\":1121:1390   */\n  pop\n    /* \"#utility.yul\":1070:1390   */\n  swap2\n  swap1\n  pop\n  jump\t// out\n    /* \"#utility.yul\":1396:1537   */\ntag_27:\n    /* \"#utility.yul\":1445:1449   */\n  0x00\n    /* \"#utility.yul\":1468:1471   */\n  dup2\n    /* \"#utility.yul\":1460:1471   */\n  swap1\n  pop\n    /* \"#utility.yul\":1491:1494   */\n  dup2\n    /* \"#utility.yul\":1488:1489   */\n  0x00\n    /* \"#utility.yul\":1481:1495   */\n  mstore\n    /* \"#utility.yul\":1525:1529   */\n  0x20\n    /* \"#utility.yul\":1522:1523   */\n  0x00\n    /* \"#utility.yul\":1512:1530   */\n  keccak256\n    /* \"#utility.yul\":1504:1530   */\n  swap1\n  pop\n    /* \"#utility.yul\":1396:1537   */\n  swap2\n  swap1\n  pop\n  jump\t// out\n    /* \"#utility.yul\":1543:1636   */\ntag_28:\n    /* \"#utility.yul\":1580:1586   */\n  0x00\n    /* \"#utility.yul\":1627:1629   */\n  0x20\n    /* \"#utility.yul\":1622:1624   */\n  0x1f\n    /* \"#utility.yul\":1615:1620   */\n  dup4\n    /* \"#utility.yul\":1611:1625   */\n  add\n    /* \"#utility.yul\":1607:1630   */\n  div\n    /* \"#utility.yul\":1597:1630   */\n  swap1\n  pop\n    /* \"#utility.yul\":1543:1636   */\n  swap2\n  swap1\n  pop\n  jump\t// out\n    /* \"#utility.yul\":1642:1749   */\ntag_29:\n    /* \"#utility.yul\":1686:1694   */\n  0x00\n    /* \"#utility.yul\":1736:1741   */\n  dup3\n    /* \"#utility.yul\":1730:1734   */\n  dup3\n    /* \"#utility.yul\":1726:1742   */\n  shl\n    /* \"#utility.yul\":1705:1742   */\n  swap1\n  pop\n    /* \"#utility.yul\":1642:1749   */\n  swap3\n  swap2\n  pop\n  pop\n  jump\t// out\n    /* \"#utility.yul\":1755:2148   */\ntag_30:\n    /* \"#utility.yul\":1824:1830   */\n  0x00\n    /* \"#utility.yul\":1874:1875   */\n  0x08\n    /* \"#utility.yul\":1862:1872   */\n  dup4\n    /* \"#utility.yul\":1858:1876   */\n  mul\n    /* \"#utility.yul\":1897:1994   */\n  tag_62\n    /* \"#utility.yul\":1927:1993   */\n  0xffffffffffffffffffffffffffffffffffffffffffffffffffffffffffffffff\n    /* \"#utility.yul\":1916:1925   */\n  dup3\n    /* \"#utility.yul\":1897:1994   */\n  tag_29\n  jump\t// in\ntag_62:\n    /* \"#utility.yul\":2015:2054   */\n  tag_63\n    /* \"#utility.yul\":2045:2053   */\n  dup7\n    /* \"#utility.yul\":2034:2043   */\n  dup4\n    /* \"#utility.yul\":2015:2054   */\n  tag_29\n  jump\t// in\ntag_63:\n    /* \"#utility.yul\":2003:2054   */\n  swap6\n  pop\n    /* \"#utility.yul\":2087:2091   */\n  dup1\n    /* \"#utility.yul\":2083:2092   */\n  not\n    /* \"#utility.yul\":2076:2081   */\n  dup5\n    /* \"#utility.yul\":2072:2093   */\n  and\n    /* \"#utility.yul\":2063:2093   */\n  swap4\n  pop\n    /* \"#utility.yul\":2136:2140   */\n  dup1\n    /* \"#utility.yul\":2126:2134   */\n  dup7\n    /* \"#utility.yul\":2122:2141   */\n  and\n    /* \"#utility.yul\":2115:2120   */\n  dup5\n    /* \"#utility.yul\":2112:2142   */\n  or\n    /* \"#utility.yul\":2102:2142   */\n  swap3\n  pop\n    /* \"#utility.yul\":1831:2148   */\n  pop\n  pop\n    /* \"#utility.yul\":1755:2148   */\n  swap4\n  swap3\n  pop\n  pop\n  pop\n  jump\t// out\n    /* \"#utility.yul\":2154:2231   */\ntag_31:\n    /* \"#utility.yul\":2191:2198   */\n  0x00\n    /* \"#utility.yul\":2220:2225   */\n  dup2\n    /* \"#utility.yul\":2209:2225   */\n  swap1\n  pop\n    /* \"#utility.yul\":2154:2231   */\n  swap2\n  swap1\n  pop\n  jump\t// out\n    /* \"#utility.yul\":2237:2297   */\ntag_32:\n    /* \"#utility.yul\":2265:2268   */\n  0x00\n    /* \"#utility.yul\":2286:2291   */\n  dup2\n    /* \"#utility.yul\":2279:2291   */\n  swap1\n  pop\n    /* \"#utility.yul\":2237:2297   */\n  swap2\n  swap1\n  pop\n  jump\t// out\n    /* \"#utility.yul\":2303:2445   */\ntag_33:\n    /* \"#utility.yul\":2353:2362   */\n  0x00\n    /* \"#utility.yul\":2386:2439   */\n  tag_67\n    /* \"#utility.yul\":2404:2438   */\n  tag_68\n    /* \"#utility.yul\":2413:2437   */\n  tag_69\n    /* \"#utility.yul\":2431:2436   */\n  dup5\n    /* \"#utility.yul\":2413:2437   */\n  tag_31\n  jump\t// in\ntag_69:\n    /* \"#utility.yul\":2404:2438   */\n  tag_32\n  jump\t// in\ntag_68:\n    /* \"#utility.yul\":2386:2439   */\n  tag_31\n  jump\t// in\ntag_67:\n    /* \"#utility.yul\":2373:2439   */\n  swap1\n  pop\n    /* \"#utility.yul\":2303:2445   */\n  swap2\n  swap1\n  pop\n  jump\t// out\n    /* \"#utility.yul\":2451:2526   */\ntag_34:\n    /* \"#utility.yul\":2494:2497   */\n  0x00\n    /* \"#utility.yul\":2515:2520   */\n  dup2\n    /* \"#utility.yul\":2508:2520   */\n  swap1\n  pop\n    /* \"#utility.yul\":2451:2526   */\n  swap2\n  swap1\n  pop\n  jump\t// out\n    /* \"#utility.yul\":2532:2801   */\ntag_35:\n    /* \"#utility.yul\":2642:2681   */\n  tag_72\n    /* \"#utility.yul\":2673:2680   */\n  dup4\n    /* \"#utility.yul\":2642:2681   */\n  tag_33\n  jump\t// in\ntag_72:\n    /* \"#utility.yul\":2703:2794   */\n  tag_73\n    /* \"#utility.yul\":2752:2793   */\n  tag_74\n    /* \"#utility.yul\":2776:2792   */\n  dup3\n    /* \"#utility.yul\":2752:2793   */\n  tag_34\n  jump\t// in\ntag_74:\n    /* \"#utility.yul\":2744:2750   */\n  dup5\n    /* \"#utility.yul\":2737:2741   */\n  dup5\n    /* \"#utility.yul\":2731:2742   */\n  sload\n    /* \"#utility.yul\":2703:2794   */\n  tag_30\n  jump\t// in\ntag_73:\n    /* \"#utility.yul\":2697:2701   */\n  dup3\n    /* \"#utility.yul\":2690:2795   */\n  sstore\n    /* \"#utility.yul\":2608:2801   */\n  pop\n    /* \"#utility.yul\":2532:2801   */\n  pop\n  pop\n  pop\n  jump\t// out\n    /* \"#utility.yul\":2807:2880   */\ntag_36:\n    /* \"#utility.yul\":2852:2855   */\n  0x00\n    /* \"#utility.yul\":2807:2880   */\n  swap1\n  jump\t// out\n    /* \"#utility.yul\":2886:3075   */\ntag_37:\n    /* \"#utility.yul\":2963:2995   */\n  tag_77\n  tag_36\n  jump\t// in\ntag_77:\n    /* \"#utility.yul\":3004:3069   */\n  tag_78\n    /* \"#utility.yul\":3062:3068   */\n  dup2\n    /* \"#utility.yul\":3054:3060   */\n  dup5\n    /* \"#utility.yul\":3048:3052   */\n  dup5\n    /* \"#utility.yul\":3004:3069   */\n  tag_35\n  jump\t// in\ntag_78:\n    /* \"#utility.yul\":2939:3075   */\n  pop\n    /* \"#utility.yul\":2886:3075   */\n  pop\n  pop\n  jump\t// out\n    /* \"#utility.yul\":3081:3267   */\ntag_38:\n    /* \"#utility.yul\":3141:3261   */\ntag_80:\n    /* \"#utility.yul\":3158:3161   */\n  dup2\n    /* \"#utility.yul\":3151:3156   */\n  dup2\n    /* \"#utility.yul\":3148:3162   */\n  lt\n    /* \"#utility.yul\":3141:3261   */\n  iszero\n  tag_82\n  jumpi\n    /* \"#utility.yul\":3212:3251   */\n  tag_83\n    /* \"#utility.yul\":3249:3250   */\n  0x00\n    /* \"#utility.yul\":3242:3247   */\n  dup3\n    /* \"#utility.yul\":3212:3251   */\n  tag_37\n  jump\t// in\ntag_83:\n    /* \"#utility.yul\":3185:3186   */\n  0x01\n    /* \"#utility.yul\":3178:3183   */\n  dup2\n    /* \"#utility.yul\":3174:3187   */\n  add\n    /* \"#utility.yul\":3165:3187   */\n  swap1\n  pop\n    /* \"#utility.yul\":3141:3261   */\n  jump(tag_80)\ntag_82:\n    /* \"#utility.yul\":3081:3267   */\n  pop\n  pop\n  jump\t// out\n    /* \"#utility.yul\":3273:3816   */\ntag_39:\n    /* \"#utility.yul\":3374:3376   */\n  0x1f\n    /* \"#utility.yul\":3369:3372   */\n  dup3\n    /* \"#utility.yul\":3366:3377   */\n  gt\n    /* \"#utility.yul\":3363:3809   */\n  iszero\n  tag_85\n  jumpi\n    /* \"#utility.yul\":3408:3446   */\n  tag_86\n    /* \"#utility.yul\":3440:3445   */\n  dup2\n    /* \"#utility.yul\":3408:3446   */\n  tag_27\n  jump\t// in\ntag_86:\n    /* \"#utility.yul\":3492:3521   */\n  tag_87\n    /* \"#utility.yul\":3510:3520   */\n  dup5\n    /* \"#utility.yul\":3492:3521   */\n  tag_28\n  jump\t// in\ntag_87:\n    /* \"#utility.yul\":3482:3490   */\n  dup2\n    /* \"#utility.yul\":3478:3522   */\n  add\n    /* \"#utility.yul\":3675:3677   */\n  0x20\n    /* \"#utility.yul\":3663:3673   */\n  dup6\n    /* \"#utility.yul\":3660:3678   */\n  lt\n    /* \"#utility.yul\":3657:3706   */\n  iszero\n  tag_88\n  jumpi\n    /* \"#utility.yul\":3696:3704   */\n  dup2\n    /* \"#utility.yul\":3681:3704   */\n  swap1\n  pop\n    /* \"#utility.yul\":3657:3706   */\ntag_88:\n    /* \"#utility.yul\":3719:3799   */\n  tag_89\n    /* \"#utility.yul\":3775:3797   */\n  tag_90\n    /* \"#utility.yul\":3793:3796   */\n  dup6\n    /* \"#utility.yul\":3775:3797   */\n  tag_28\n  jump\t// in\ntag_90:\n    /* \"#utility.yul\":3765:3773   */\n  dup4\n    /* \"#utility.yul\":3761:3798   */\n  add\n    /* \"#utility.yul\":3748:3759   */\n  dup3\n    /* \"#utility.yul\":3719:3799   */\n  tag_38\n  jump\t// in\ntag_89:\n    /* \"#utility.yul\":3378:3809   */\n  pop\n  pop\n    /* \"#utility.yul\":3363:3809   */\ntag_85:\n    /* \"#utility.yul\":3273:3816   */\n  pop\n  pop\n  pop\n  jump\t// out\n    /* \"#utility.yul\":3822:3939   */\ntag_40:\n    /* \"#utility.yul\":3876:3884   */\n  0x00\n    /* \"#utility.yul\":3926:3931   */\n  dup3\n    /* \"#utility.yul\":3920:3924   */\n  dup3\n    /* \"#utility.yul\":3916:3932   */\n  shr\n    /* \"#utility.yul\":3895:3932   */\n  swap1\n  pop\n    /* \"#utility.yul\":3822:3939   */\n  swap3\n  swap2\n  pop\n  pop\n  jump\t// out\n    /* \"#utility.yul\":3945:4114   */\ntag_41:\n    /* \"#utility.yul\":3989:3995   */\n  0x00\n    /* \"#utility.yul\":4022:4073   */\n  tag_93\n    /* \"#utility.yul\":4070:4071   */\n  0x00\n    /* \"#utility.yul\":4066:4072   */\n  not\n    /* \"#utility.yul\":4058:4063   */\n  dup5\n    /* \"#utility.yul\":4055:4056   */\n  0x08\n    /* \"#utility.yul\":4051:4064   */\n  mul\n    /* \"#utility.yul\":4022:4073   */\n  tag_40\n  jump\t// in\ntag_93:\n    /* \"#utility.yul\":4018:4074   */\n  not\n    /* \"#utility.yul\":4103:4107   */\n  dup1\n    /* \"#utility.yul\":4097:4101   */\n  dup4\n    /* \"#utility.yul\":4093:4108   */\n  and\n    /* \"#utility.yul\":4083:4108   */\n  swap2\n  pop\n    /* \"#utility.yul\":3996:4114   */\n  pop\n    /* \"#utility.yul\":3945:4114   */\n  swap3\n  swap2\n  pop\n  pop\n  jump\t// out\n    /* \"#utility.yul\":4119:4414   */\ntag_42:\n    /* \"#utility.yul\":4195:4199   */\n  0x00\n    /* \"#utility.yul\":4341:4370   */\n  tag_95\n    /* \"#utility.yul\":4366:4369   */\n  dup4\n    /* \"#utility.yul\":4360:4364   */\n  dup4\n    /* \"#utility.yul\":4341:4370   */\n  tag_41\n  jump\t// in\ntag_95:\n    /* \"#utility.yul\":4333:4370   */\n  swap2\n  pop\n    /* \"#utility.yul\":4403:4406   */\n  dup3\n    /* \"#utility.yul\":4400:4401   */\n  0x02\n    /* \"#utility.yul\":4396:4407   */\n  mul\n    /* \"#utility.yul\":4390:4394   */\n  dup3\n    /* \"#utility.yul\":4387:4408   */\n  or\n    /* \"#utility.yul\":4379:4408   */\n  swap1\n  pop\n    /* \"#utility.yul\":4119:4414   */\n  swap3\n  swap2\n  pop\n  pop\n  jump\t// out\n    /* \"#utility.yul\":4419:5814   */\ntag_18:\n    /* \"#utility.yul\":4536:4573   */\n  tag_97\n    /* \"#utility.yul\":4569:4572   */\n  dup3\n    /* \"#utility.yul\":4536:4573   */\n  tag_23\n  jump\t// in\ntag_97:\n    /* \"#utility.yul\":4638:4656   */\n  0xffffffffffffffff\n    /* \"#utility.yul\":4630:4636   */\n  dup2\n    /* \"#utility.yul\":4627:4657   */\n  gt\n    /* \"#utility.yul\":4624:4680   */\n  iszero\n  tag_98\n  jumpi\n    /* \"#utility.yul\":4660:4678   */\n  tag_99\n  tag_24\n  jump\t// in\ntag_99:\n    /* \"#utility.yul\":4624:4680   */\ntag_98:\n    /* \"#utility.yul\":4704:4742   */\n  tag_100\n    /* \"#utility.yul\":4736:4740   */\n  dup3\n    /* \"#utility.yul\":4730:4741   */\n  sload\n    /* \"#utility.yul\":4704:4742   */\n  tag_26\n  jump\t// in\ntag_100:\n    /* \"#utility.yul\":4789:4856   */\n  tag_101\n    /* \"#utility.yul\":4849:4855   */\n  dup3\n    /* \"#utility.yul\":4841:4847   */\n  dup3\n    /* \"#utility.yul\":4835:4839   */\n  dup6\n    /* \"#utility.yul\":4789:4856   */\n  tag_39\n  jump\t// in\ntag_101:\n    /* \"#utility.yul\":4883:4884   */\n  0x00\n    /* \"#utility.yul\":4907:4911   */\n  0x20\n    /* \"#utility.yul\":4894:4911   */\n  swap1\n  pop\n    /* \"#utility.yul\":4939:4941   */\n  0x1f\n    /* \"#utility.yul\":4931:4937   */\n  dup4\n    /* \"#utility.yul\":4928:4942   */\n  gt\n    /* \"#utility.yul\":4956:4957   */\n  0x01\n    /* \"#utility.yul\":4951:5569   */\n  dup2\n  eq\n  tag_103\n  jumpi\n    /* \"#utility.yul\":5613:5614   */\n  0x00\n    /* \"#utility.yul\":5630:5636   */\n  dup5\n    /* \"#utility.yul\":5627:5704   */\n  iszero\n  tag_104\n  jumpi\n    /* \"#utility.yul\":5679:5688   */\n  dup3\n    /* \"#utility.yul\":5674:5677   */\n  dup8\n    /* \"#utility.yul\":5670:5689   */\n  add\n    /* \"#utility.yul\":5664:5690   */\n  mload\n    /* \"#utility.yul\":5655:5690   */\n  swap1\n  pop\n    /* \"#utility.yul\":5627:5704   */\ntag_104:\n    /* \"#utility.yul\":5730:5797   */\n  tag_105\n    /* \"#utility.yul\":5790:5796   */\n  dup6\n    /* \"#utility.yul\":5783:5788   */\n  dup3\n    /* \"#utility.yul\":5730:5797   */\n  tag_42\n  jump\t// in\ntag_105:\n    /* \"#utility.yul\":5724:5728   */\n  dup7\n    /* \"#utility.yul\":5717:5798   */\n  sstore\n    /* \"#utility.yul\":5586:5808   */\n  pop\n    /* \"#utility.yul\":4921:5808   */\n  jump(tag_102)\n    /* \"#utility.yul\":4951:5569   */\ntag_103:\n    /* \"#utility.yul\":5003:5007   */\n  0x1f\n    /* \"#utility.yul\":4999:5008   */\n  not\n    /* \"#utility.yul\":4991:4997   */\n  dup5\n    /* \"#utility.yul\":4987:5009   */\n  and\n    /* \"#utility.yul\":5037:5074   */\n  tag_106\n    /* \"#utility.yul\":5069:5073   */\n  dup7\n    /* \"#utility.yul\":5037:5074   */\n  tag_27\n  jump\t// in\ntag_106:\n    /* \"#utility.yul\":5096:5097   */\n  0x00\n    /* \"#utility.yul\":5110:5318   */\ntag_107:\n    /* \"#utility.yul\":5124:5131   */\n  dup3\n    /* \"#utility.yul\":5121:5122   */\n  dup2\n    /* \"#utility.yul\":5118:5132   */\n  lt\n    /* \"#utility.yul\":5110:5318   */\n  iszero\n  tag_109\n  jumpi\n    /* \"#utility.yul\":5203:5212   */\n  dup5\n    /* \"#utility.yul\":5198:5201   */\n  dup10\n    /* \"#utility.yul\":5194:5213   */\n  add\n    /* \"#utility.yul\":5188:5214   */\n  mload\n    /* \"#utility.yul\":5180:5186   */\n  dup3\n    /* \"#utility.yul\":5173:5215   */\n  sstore\n    /* \"#utility.yul\":5254:5255   */\n  0x01\n    /* \"#utility.yul\":5246:5252   */\n  dup3\n    /* \"#utility.yul\":5242:5256   */\n  add\n    /* \"#utility.yul\":5232:5256   */\n  swap2\n  pop\n    /* \"#utility.yul\":5301:5303   */\n  0x20\n    /* \"#utility.yul\":5290:5299   */\n  dup6\n    /* \"#utility.yul\":5286:5304   */\n  add\n    /* \"#utility.yul\":5273:5304   */\n  swap5\n  pop\n    /* \"#utility.yul\":5147:5151   */\n  0x20\n    /* \"#utility.yul\":5144:5145   */\n  dup2\n    /* \"#utility.yul\":5140:5152   */\n  add\n    /* \"#utility.yul\":5135:5152   */\n  swap1\n  pop\n    /* \"#utility.yul\":5110:5318   */\n  jump(tag_107)\ntag_109:\n    /* \"#utility.yul\":5346:5352   */\n  dup7\n    /* \"#utility.yul\":5337:5344   */\n  dup4\n    /* \"#utility.yul\":5334:5353   */\n  lt\n    /* \"#utility.yul\":5331:5510   */\n  iszero\n  tag_110\n  jumpi\n    /* \"#utility.yul\":5404:5413   */\n  dup5\n    /* \"#utility.yul\":5399:5402   */\n  dup10\n    /* \"#utility.yul\":5395:5414   */\n  add\n    /* \"#utility.yul\":5389:5415   */\n  mload\n    /* \"#utility.yul\":5447:5495   */\n  tag_111\n    /* \"#utility.yul\":5489:5493   */\n  0x1f\n    /* \"#utility.yul\":5481:5487   */\n  dup10\n    /* \"#utility.yul\":5477:5494   */\n  and\n    /* \"#utility.yul\":5466:5475   */\n  dup3\n    /* \"#utility.yul\":5447:5495   */\n  tag_41\n  jump\t// in\ntag_111:\n    /* \"#utility.yul\":5439:5445   */\n  dup4\n    /* \"#utility.yul\":5432:5496   */\n  sstore\n    /* \"#utility.yul\":5354:5510   */\n  pop\n    /* \"#utility.yul\":5331:5510   */\ntag_110:\n    /* \"#utility.yul\":5556:5557   */\n  0x01\n    /* \"#utility.yul\":5552:5553   */\n  0x02\n    /* \"#utility.yul\":5544:5550   */\n  dup9\n    /* \"#utility.yul\":5540:5554   */\n  mul\n    /* \"#utility.yul\":5536:5558   */\n  add\n    /* \"#utility.yul\":5530:5534   */\n  dup9\n    /* \"#utility.yul\":5523:5559   */\n  sstore\n    /* \"#utility.yul\":4958:5569   */\n  pop\n  pop\n  pop\n    /* \"#utility.yul\":4921:5808   */\ntag_102:\n  pop\n    /* \"#utility.yul\":4511:5814   */\n  pop\n  pop\n  pop\n    /* \"#utility.yul\":4419:5814   */\n  pop\n  pop\n  jump\t// out\n    /* \"module-3/ERC1155token.sol\":223:1486  contract MyERC1155Token is ERC1155,Ownable  {... */\ntag_15:\n  dataSize(sub_0)\n  dup1\n  dataOffset(sub_0)\n  0x00\n  codecopy\n  0x00\n  return\nstop\ndata_3a101464a4e84a7d1a807d584bce9e27324494de0a05dedef590e97c5130cc4d 697066733a2f2f6261667962656968726b6c623232327367696f77726a6365673736726d7171707a716979756a6d6e75667633637135377373656d647862626534752f7b69647d\n\nsub_0: assembly {\n        /* \"module-3/ERC1155token.sol\":223:1486  contract MyERC1155Token is ERC1155,Ownable  {... */\n      mstore(0x40, 0x80)\n      callvalue\n      dup1\n      iszero\n      tag_1\n      jumpi\n      0x00\n      dup1\n      revert\n    tag_1:\n      pop\n      jumpi(tag_2, lt(calldatasize, 0x04))\n      shr(0xe0, calldataload(0x00))\n      dup1\n      0x715018a6\n      gt\n      tag_24\n      jumpi\n      dup1\n      0xd99939a2\n      gt\n      tag_25\n      jumpi\n      dup1\n      0xd99939a2\n      eq\n      tag_18\n      jumpi\n      dup1\n      0xe74d3862\n      eq\n      tag_19\n      jumpi\n      dup1\n      0xe985e9c5\n      eq\n      tag_20\n      jumpi\n      dup1\n      0xf242432a\n      eq\n      tag_21\n      jumpi\n      dup1\n      0xf2fde38b\n      eq\n      tag_22\n      jumpi\n      dup1\n      0xf5298aca\n      eq\n      tag_23\n      jumpi\n      jump(tag_2)\n    tag_25:\n      dup1\n      0x715018a6\n      eq\n      tag_13\n      jumpi\n      dup1\n      0x82c0fa30\n      eq\n      tag_14\n      jumpi\n      dup1\n      0x8da5cb5b\n      eq\n      tag_15\n      jumpi\n      dup1\n      0xa22cb465\n      eq\n      tag_16\n      jumpi\n      dup1\n      0xa3cacc85\n      eq\n      tag_17\n      jumpi\n      jump(tag_2)\n    tag_24:\n      dup1\n      0x1b2ef1ca\n      gt\n      tag_26\n      jumpi\n      dup1\n      0x1b2ef1ca\n      eq\n      tag_8\n      jumpi\n      dup1\n      0x2eb2c2d6\n      eq\n      tag_9\n      jumpi\n      dup1\n      0x453f6a32\n      eq\n      tag_10\n      jumpi\n      dup1\n      0x4a3268e4\n      eq\n      tag_11\n      jumpi\n      dup1\n      0x4e1273f4\n      eq\n      tag_12\n      jumpi\n      jump(tag_2)\n    tag_26:\n      dup1\n      0xfdd58e\n      eq\n      tag_3\n      jumpi\n      dup1\n      0x01ffc9a7\n      eq\n      tag_4\n      jumpi\n      dup1\n      0x0ce52e07\n      eq\n      tag_5\n      jumpi\n      dup1\n      0x0d9371ad\n      eq\n      tag_6\n      jumpi\n      dup1\n      0x0e89341c\n      eq\n      tag_7\n      jumpi\n    tag_2:\n      0x00\n      dup1\n      revert\n        /* \"@openzeppelin/contracts/token/ERC1155/ERC1155.sol\":2247:2379  function balanceOf(address account, uint256 id) public view virtual returns (uint256) {... */\n    tag_3:\n      tag_27\n      0x04\n      dup1\n      calldatasize\n      sub\n      dup2\n      add\n      swap1\n      tag_28\n      swap2\n      swap1\n      tag_29\n      jump\t// in\n    tag_28:\n      tag_30\n      jump\t// in\n    tag_27:\n      mload(0x40)\n      tag_31\n      swap2\n      swap1\n      tag_32\n      jump\t// in\n    tag_31:\n      mload(0x40)\n      dup1\n      swap2\n      sub\n      swap1\n      return\n        /* \"@openzeppelin/contracts/token/ERC1155/ERC1155.sol\":1380:1685  function supportsInterface(bytes4 interfaceId) public view virtual override(ERC165, IERC165) returns (bool) {... */\n    tag_4:\n      tag_33\n      0x04\n      dup1\n      calldatasize\n      sub\n      dup2\n      add\n      swap1\n      tag_34\n      swap2\n      swap1\n      tag_35\n      jump\t// in\n    tag_34:\n      tag_36\n      jump\t// in\n    tag_33:\n      mload(0x40)\n      tag_37\n      swap2\n      swap1\n      tag_38\n      jump\t// in\n    tag_37:\n      mload(0x40)\n      dup1\n      swap2\n      sub\n      swap1\n      return\n        /* \"module-3/ERC1155token.sol\":593:660  mapping(address => mapping(uint256 => uint256)) public lastMintTime */\n    tag_5:\n      tag_39\n      0x04\n      dup1\n      calldatasize\n      sub\n      dup2\n      add\n      swap1\n      tag_40\n      swap2\n      swap1\n      tag_29\n      jump\t// in\n    tag_40:\n      tag_41\n      jump\t// in\n    tag_39:\n      mload(0x40)\n      tag_42\n      swap2\n      swap1\n      tag_32\n      jump\t// in\n    tag_42:\n      mload(0x40)\n      dup1\n      swap2\n      sub\n      swap1\n      return\n        /* \"module-3/ERC1155token.sol\":469:504  uint256 public constant TOKEN_4 = 4 */\n    tag_6:\n      tag_43\n      tag_44\n      jump\t// in\n    tag_43:\n      mload(0x40)\n      tag_45\n      swap2\n      swap1\n      tag_32\n      jump\t// in\n    tag_45:\n      mload(0x40)\n      dup1\n      swap2\n      sub\n      swap1\n      return\n        /* \"module-3/ERC1155token.sol\":1344:1483  function uri(uint256 id) public view override returns (string memory) {... */\n    tag_7:\n      tag_46\n      0x04\n      dup1\n      calldatasize\n      sub\n      dup2\n      add\n      swap1\n      tag_47\n      swap2\n      swap1\n      tag_48\n      jump\t// in\n    tag_47:\n      tag_49\n      jump\t// in\n    tag_46:\n      mload(0x40)\n      tag_50\n      swap2\n      swap1\n      tag_51\n      jump\t// in\n    tag_50:\n      mload(0x40)\n      dup1\n      swap2\n      sub\n      swap1\n      return\n        /* \"module-3/ERC1155token.sol\":791:1111  function mint(uint256 id, uint256 amount) public {... */\n    tag_8:\n      tag_52\n      0x04\n      dup1\n      calldatasize\n      sub\n      dup2\n      add\n      swap1\n      tag_53\n      swap2\n      swap1\n      tag_54\n      jump\t// in\n    tag_53:\n      tag_55\n      jump\t// in\n    tag_52:\n      stop\n        /* \"@openzeppelin/contracts/token/ERC1155/ERC1155.sol\":4014:4443  function safeBatchTransferFrom(... */\n    tag_9:\n      tag_56\n      0x04\n      dup1\n      calldatasize\n      sub\n      dup2\n      add\n      swap1\n      tag_57\n      swap2\n      swap1\n      tag_58\n      jump\t// in\n    tag_57:\n      tag_59\n      jump\t// in\n    tag_56:\n      stop\n        /* \"module-3/ERC1155token.sol\":428:463  uint256 public constant TOKEN_3 = 3 */\n    tag_10:\n      tag_60\n      tag_61\n      jump\t// in\n    tag_60:\n      mload(0x40)\n      tag_62\n      swap2\n      swap1\n      tag_32\n      jump\t// in\n    tag_62:\n      mload(0x40)\n      dup1\n      swap2\n      sub\n      swap1\n      return\n        /* \"module-3/ERC1155token.sol\":346:381  uint256 public constant TOKEN_1 = 1 */\n    tag_11:\n      tag_63\n      tag_64\n      jump\t// in\n    tag_63:\n      mload(0x40)\n      tag_65\n      swap2\n      swap1\n      tag_32\n      jump\t// in\n    tag_65:\n      mload(0x40)\n      dup1\n      swap2\n      sub\n      swap1\n      return\n        /* \"@openzeppelin/contracts/token/ERC1155/ERC1155.sol\":2536:3088  function balanceOfBatch(... */\n    tag_12:\n      tag_66\n      0x04\n      dup1\n      calldatasize\n      sub\n      dup2\n      add\n      swap1\n      tag_67\n      swap2\n      swap1\n      tag_68\n      jump\t// in\n    tag_67:\n      tag_69\n      jump\t// in\n    tag_66:\n      mload(0x40)\n      tag_70\n      swap2\n      swap1\n      tag_71\n      jump\t// in\n    tag_70:\n      mload(0x40)\n      dup1\n      swap2\n      sub\n      swap1\n      return\n        /* \"@openzeppelin/contracts/access/Ownable.sol\":2293:2394  function renounceOwnership() public virtual onlyOwner {... */\n    tag_13:\n      tag_72\n      tag_73\n      jump\t// in\n    tag_72:\n      stop\n        /* \"module-3/ERC1155token.sol\":387:422  uint256 public constant TOKEN_2 = 2 */\n    tag_14:\n      tag_74\n      tag_75\n      jump\t// in\n    tag_74:\n      mload(0x40)\n      tag_76\n      swap2\n      swap1\n      tag_32\n      jump\t// in\n    tag_76:\n      mload(0x40)\n      dup1\n      swap2\n      sub\n      swap1\n      return\n        /* \"@openzeppelin/contracts/access/Ownable.sol\":1638:1723  function owner() public view virtual returns (address) {... */\n    tag_15:\n      tag_77\n      tag_78\n      jump\t// in\n    tag_77:\n      mload(0x40)\n      tag_79\n      swap2\n      swap1\n      tag_80\n      jump\t// in\n    tag_79:\n      mload(0x40)\n      dup1\n      swap2\n      sub\n      swap1\n      return\n        /* \"@openzeppelin/contracts/token/ERC1155/ERC1155.sol\":3156:3300  function setApprovalForAll(address operator, bool approved) public virtual {... */\n    tag_16:\n      tag_81\n      0x04\n      dup1\n      calldatasize\n      sub\n      dup2\n      add\n      swap1\n      tag_82\n      swap2\n      swap1\n      tag_83\n      jump\t// in\n    tag_82:\n      tag_84\n      jump\t// in\n    tag_81:\n      stop\n        /* \"module-3/ERC1155token.sol\":551:586  uint256 public constant TOKEN_6 = 6 */\n    tag_17:\n      tag_85\n      tag_86\n      jump\t// in\n    tag_85:\n      mload(0x40)\n      tag_87\n      swap2\n      swap1\n      tag_32\n      jump\t// in\n    tag_87:\n      mload(0x40)\n      dup1\n      swap2\n      sub\n      swap1\n      return\n        /* \"module-3/ERC1155token.sol\":305:340  uint256 public constant TOKEN_0 = 0 */\n    tag_18:\n      tag_88\n      tag_89\n      jump\t// in\n    tag_88:\n      mload(0x40)\n      tag_90\n      swap2\n      swap1\n      tag_32\n      jump\t// in\n    tag_90:\n      mload(0x40)\n      dup1\n      swap2\n      sub\n      swap1\n      return\n        /* \"module-3/ERC1155token.sol\":510:545  uint256 public constant TOKEN_5 = 5 */\n    tag_19:\n      tag_91\n      tag_92\n      jump\t// in\n    tag_91:\n      mload(0x40)\n      tag_93\n      swap2\n      swap1\n      tag_32\n      jump\t// in\n    tag_93:\n      mload(0x40)\n      dup1\n      swap2\n      sub\n      swap1\n      return\n        /* \"@openzeppelin/contracts/token/ERC1155/ERC1155.sol\":3367:3524  function isApprovedForAll(address account, address operator) public view virtual returns (bool) {... */\n    tag_20:\n      tag_94\n      0x04\n      dup1\n      calldatasize\n      sub\n      dup2\n      add\n      swap1\n      tag_95\n      swap2\n      swap1\n      tag_96\n      jump\t// in\n    tag_95:\n      tag_97\n      jump\t// in\n    tag_94:\n      mload(0x40)\n      tag_98\n      swap2\n      swap1\n      tag_38\n      jump\t// in\n    tag_98:\n      mload(0x40)\n      dup1\n      swap2\n      sub\n      swap1\n      return\n        /* \"@openzeppelin/contracts/token/ERC1155/ERC1155.sol\":3591:3942  function safeTransferFrom(address from, address to, uint256 id, uint256 value, bytes memory data) public virtual {... */\n    tag_21:\n      tag_99\n      0x04\n      dup1\n      calldatasize\n      sub\n      dup2\n      add\n      swap1\n      tag_100\n      swap2\n      swap1\n      tag_101\n      jump\t// in\n    tag_100:\n      tag_102\n      jump\t// in\n    tag_99:\n      stop\n        /* \"@openzeppelin/contracts/access/Ownable.sol\":2543:2758  function transferOwnership(address newOwner) public virtual onlyOwner {... */\n    tag_22:\n      tag_103\n      0x04\n      dup1\n      calldatasize\n      sub\n      dup2\n      add\n      swap1\n      tag_104\n      swap2\n      swap1\n      tag_105\n      jump\t// in\n    tag_104:\n      tag_106\n      jump\t// in\n    tag_103:\n      stop\n        /* \"module-3/ERC1155token.sol\":1118:1332  function burn(address from, uint256 id, uint256 amount) public {... */\n    tag_23:\n      tag_107\n      0x04\n      dup1\n      calldatasize\n      sub\n      dup2\n      add\n      swap1\n      tag_108\n      swap2\n      swap1\n      tag_109\n      jump\t// in\n    tag_108:\n      tag_110\n      jump\t// in\n    tag_107:\n      stop\n        /* \"@openzeppelin/contracts/token/ERC1155/ERC1155.sol\":2247:2379  function balanceOf(address account, uint256 id) public view virtual returns (uint256) {... */\n    tag_30:\n        /* \"@openzeppelin/contracts/token/ERC1155/ERC1155.sol\":2324:2331  uint256 */\n      0x00\n        /* \"@openzeppelin/contracts/token/ERC1155/ERC1155.sol\":2350:2359  _balances */\n      dup1\n        /* \"@openzeppelin/contracts/token/ERC1155/ERC1155.sol\":2350:2363  _balances[id] */\n      0x00\n        /* \"@openzeppelin/contracts/token/ERC1155/ERC1155.sol\":2360:2362  id */\n      dup4\n        /* \"@openzeppelin/contracts/token/ERC1155/ERC1155.sol\":2350:2363  _balances[id] */\n      dup2\n      mstore\n      0x20\n      add\n      swap1\n      dup2\n      mstore\n      0x20\n      add\n      0x00\n      keccak256\n        /* \"@openzeppelin/contracts/token/ERC1155/ERC1155.sol\":2350:2372  _balances[id][account] */\n      0x00\n        /* \"@openzeppelin/contracts/token/ERC1155/ERC1155.sol\":2364:2371  account */\n      dup5\n        /* \"@openzeppelin/contracts/token/ERC1155/ERC1155.sol\":2350:2372  _balances[id][account] */\n      0xffffffffffffffffffffffffffffffffffffffff\n      and\n      0xffffffffffffffffffffffffffffffffffffffff\n      and\n      dup2\n      mstore\n      0x20\n      add\n      swap1\n      dup2\n      mstore\n      0x20\n      add\n      0x00\n      keccak256\n      sload\n        /* \"@openzeppelin/contracts/token/ERC1155/ERC1155.sol\":2343:2372  return _balances[id][account] */\n      swap1\n      pop\n        /* \"@openzeppelin/contracts/token/ERC1155/ERC1155.sol\":2247:2379  function balanceOf(address account, uint256 id) public view virtual returns (uint256) {... */\n      swap3\n      swap2\n      pop\n      pop\n      jump\t// out\n        /* \"@openzeppelin/contracts/token/ERC1155/ERC1155.sol\":1380:1685  function supportsInterface(bytes4 interfaceId) public view virtual override(ERC165, IERC165) returns (bool) {... */\n    tag_36:\n        /* \"@openzeppelin/contracts/token/ERC1155/ERC1155.sol\":1482:1486  bool */\n      0x00\n        /* \"@openzeppelin/contracts/token/ERC1155/ERC1155.sol\":1532:1558  type(IERC1155).interfaceId */\n      0xd9b67a2600000000000000000000000000000000000000000000000000000000\n        /* \"@openzeppelin/contracts/token/ERC1155/ERC1155.sol\":1517:1558  interfaceId == type(IERC1155).interfaceId */\n      not(0xffffffffffffffffffffffffffffffffffffffffffffffffffffffff)\n      and\n        /* \"@openzeppelin/contracts/token/ERC1155/ERC1155.sol\":1517:1528  interfaceId */\n      dup3\n        /* \"@openzeppelin/contracts/token/ERC1155/ERC1155.sol\":1517:1558  interfaceId == type(IERC1155).interfaceId */\n      not(0xffffffffffffffffffffffffffffffffffffffffffffffffffffffff)\n      and\n      eq\n        /* \"@openzeppelin/contracts/token/ERC1155/ERC1155.sol\":1517:1626  interfaceId == type(IERC1155).interfaceId ||... */\n      dup1\n      tag_113\n      jumpi\n      pop\n        /* \"@openzeppelin/contracts/token/ERC1155/ERC1155.sol\":1589:1626  type(IERC1155MetadataURI).interfaceId */\n      0x0e89341c00000000000000000000000000000000000000000000000000000000\n        /* \"@openzeppelin/contracts/token/ERC1155/ERC1155.sol\":1574:1626  interfaceId == type(IERC1155MetadataURI).interfaceId */\n      not(0xffffffffffffffffffffffffffffffffffffffffffffffffffffffff)\n      and\n        /* \"@openzeppelin/contracts/token/ERC1155/ERC1155.sol\":1574:1585  interfaceId */\n      dup3\n        /* \"@openzeppelin/contracts/token/ERC1155/ERC1155.sol\":1574:1626  interfaceId == type(IERC1155MetadataURI).interfaceId */\n      not(0xffffffffffffffffffffffffffffffffffffffffffffffffffffffff)\n      and\n      eq\n        /* \"@openzeppelin/contracts/token/ERC1155/ERC1155.sol\":1517:1626  interfaceId == type(IERC1155).interfaceId ||... */\n    tag_113:\n        /* \"@openzeppelin/contracts/token/ERC1155/ERC1155.sol\":1517:1678  interfaceId == type(IERC1155).interfaceId ||... */\n      dup1\n      tag_114\n      jumpi\n      pop\n        /* \"@openzeppelin/contracts/token/ERC1155/ERC1155.sol\":1642:1678  super.supportsInterface(interfaceId) */\n      tag_115\n        /* \"@openzeppelin/contracts/token/ERC1155/ERC1155.sol\":1666:1677  interfaceId */\n      dup3\n        /* \"@openzeppelin/contracts/token/ERC1155/ERC1155.sol\":1642:1665  super.supportsInterface */\n      tag_116\n        /* \"@openzeppelin/contracts/token/ERC1155/ERC1155.sol\":1642:1678  super.supportsInterface(interfaceId) */\n      jump\t// in\n    tag_115:\n        /* \"@openzeppelin/contracts/token/ERC1155/ERC1155.sol\":1517:1678  interfaceId == type(IERC1155).interfaceId ||... */\n    tag_114:\n        /* \"@openzeppelin/contracts/token/ERC1155/ERC1155.sol\":1498:1678  return... */\n      swap1\n      pop\n        /* \"@openzeppelin/contracts/token/ERC1155/ERC1155.sol\":1380:1685  function supportsInterface(bytes4 interfaceId) public view virtual override(ERC165, IERC165) returns (bool) {... */\n      swap2\n      swap1\n      pop\n      jump\t// out\n        /* \"module-3/ERC1155token.sol\":593:660  mapping(address => mapping(uint256 => uint256)) public lastMintTime */\n    tag_41:\n      mstore(0x20, 0x04)\n      dup2\n      0x00\n      mstore\n      mstore(0x20, keccak256(0x00, 0x40))\n      dup1\n      0x00\n      mstore\n      keccak256(0x00, 0x40)\n      0x00\n      swap2\n      pop\n      swap2\n      pop\n      pop\n      sload\n      dup2\n      jump\t// out\n        /* \"module-3/ERC1155token.sol\":469:504  uint256 public constant TOKEN_4 = 4 */\n    tag_44:\n        /* \"module-3/ERC1155token.sol\":503:504  4 */\n      0x04\n        /* \"module-3/ERC1155token.sol\":469:504  uint256 public constant TOKEN_4 = 4 */\n      dup2\n      jump\t// out\n        /* \"module-3/ERC1155token.sol\":1344:1483  function uri(uint256 id) public view override returns (string memory) {... */\n    tag_49:\n        /* \"module-3/ERC1155token.sol\":1399:1412  string memory */\n      0x60\n        /* \"module-3/ERC1155token.sol\":1451:1464  super.uri(id) */\n      tag_118\n        /* \"module-3/ERC1155token.sol\":1461:1463  id */\n      dup3\n        /* \"module-3/ERC1155token.sol\":1451:1460  super.uri */\n      tag_119\n        /* \"module-3/ERC1155token.sol\":1451:1464  super.uri(id) */\n      jump\t// in\n    tag_118:\n        /* \"module-3/ERC1155token.sol\":1465:1478  id.toString() */\n      tag_120\n        /* \"module-3/ERC1155token.sol\":1465:1467  id */\n      dup4\n        /* \"module-3/ERC1155token.sol\":1465:1476  id.toString */\n      tag_121\n        /* \"module-3/ERC1155token.sol\":1465:1478  id.toString() */\n      jump\t// in\n    tag_120:\n        /* \"module-3/ERC1155token.sol\":1434:1479  abi.encodePacked(super.uri(id),id.toString()) */\n      add(0x20, mload(0x40))\n      tag_122\n      swap3\n      swap2\n      swap1\n      tag_123\n      jump\t// in\n    tag_122:\n      mload(0x40)\n      0x20\n      dup2\n      dup4\n      sub\n      sub\n      dup2\n      mstore\n      swap1\n      0x40\n      mstore\n        /* \"module-3/ERC1155token.sol\":1420:1480  return string(abi.encodePacked(super.uri(id),id.toString())) */\n      swap1\n      pop\n        /* \"module-3/ERC1155token.sol\":1344:1483  function uri(uint256 id) public view override returns (string memory) {... */\n      swap2\n      swap1\n      pop\n      jump\t// out\n        /* \"module-3/ERC1155token.sol\":791:1111  function mint(uint256 id, uint256 amount) public {... */\n    tag_55:\n        /* \"module-3/ERC1155token.sol\":339:340  0 */\n      0x00\n        /* \"module-3/ERC1155token.sol\":858:860  id */\n      dup3\n        /* \"module-3/ERC1155token.sol\":858:871  id >= TOKEN_0 */\n      lt\n      iszero\n        /* \"module-3/ERC1155token.sol\":858:888  id >= TOKEN_0 && id <= TOKEN_2 */\n      dup1\n      iszero\n      tag_125\n      jumpi\n      pop\n        /* \"module-3/ERC1155token.sol\":421:422  2 */\n      0x02\n        /* \"module-3/ERC1155token.sol\":875:877  id */\n      dup3\n        /* \"module-3/ERC1155token.sol\":875:888  id <= TOKEN_2 */\n      gt\n      iszero\n        /* \"module-3/ERC1155token.sol\":858:888  id >= TOKEN_0 && id <= TOKEN_2 */\n    tag_125:\n        /* \"module-3/ERC1155token.sol\":850:909  require(id >= TOKEN_0 && id <= TOKEN_2, \"Invalid token ID\") */\n      tag_126\n      jumpi\n      mload(0x40)\n      0x08c379a000000000000000000000000000000000000000000000000000000000\n      dup2\n      mstore\n      0x04\n      add\n      tag_127\n      swap1\n      tag_128\n      jump\t// in\n    tag_127:\n      mload(0x40)\n      dup1\n      swap2\n      sub\n      swap1\n      revert\n    tag_126:\n        /* \"module-3/ERC1155token.sol\":977:986  1 minutes */\n      0x3c\n        /* \"module-3/ERC1155token.sol\":946:958  lastMintTime */\n      0x04\n        /* \"module-3/ERC1155token.sol\":946:970  lastMintTime[msg.sender] */\n      0x00\n        /* \"module-3/ERC1155token.sol\":959:969  msg.sender */\n      caller\n        /* \"module-3/ERC1155token.sol\":946:970  lastMintTime[msg.sender] */\n      0xffffffffffffffffffffffffffffffffffffffff\n      and\n      0xffffffffffffffffffffffffffffffffffffffff\n      and\n      dup2\n      mstore\n      0x20\n      add\n      swap1\n      dup2\n      mstore\n      0x20\n      add\n      0x00\n      keccak256\n        /* \"module-3/ERC1155token.sol\":946:974  lastMintTime[msg.sender][id] */\n      0x00\n        /* \"module-3/ERC1155token.sol\":971:973  id */\n      dup5\n        /* \"module-3/ERC1155token.sol\":946:974  lastMintTime[msg.sender][id] */\n      dup2\n      mstore\n      0x20\n      add\n      swap1\n      dup2\n      mstore\n      0x20\n      add\n      0x00\n      keccak256\n      sload\n        /* \"module-3/ERC1155token.sol\":946:986  lastMintTime[msg.sender][id] + 1 minutes */\n      tag_129\n      swap2\n      swap1\n      tag_130\n      jump\t// in\n    tag_129:\n        /* \"module-3/ERC1155token.sol\":927:942  block.timestamp */\n      timestamp\n        /* \"module-3/ERC1155token.sol\":927:986  block.timestamp >= lastMintTime[msg.sender][id] + 1 minutes */\n      lt\n      iszero\n        /* \"module-3/ERC1155token.sol\":919:1004  require(block.timestamp >= lastMintTime[msg.sender][id] + 1 minutes, \"Mint cooldown\") */\n      tag_131\n      jumpi\n      mload(0x40)\n      0x08c379a000000000000000000000000000000000000000000000000000000000\n      dup2\n      mstore\n      0x04\n      add\n      tag_132\n      swap1\n      tag_133\n      jump\t// in\n    tag_132:\n      mload(0x40)\n      dup1\n      swap2\n      sub\n      swap1\n      revert\n    tag_131:\n        /* \"module-3/ERC1155token.sol\":1046:1061  block.timestamp */\n      timestamp\n        /* \"module-3/ERC1155token.sol\":1015:1027  lastMintTime */\n      0x04\n        /* \"module-3/ERC1155token.sol\":1015:1039  lastMintTime[msg.sender] */\n      0x00\n        /* \"module-3/ERC1155token.sol\":1028:1038  msg.sender */\n      caller\n        /* \"module-3/ERC1155token.sol\":1015:1039  lastMintTime[msg.sender] */\n      0xffffffffffffffffffffffffffffffffffffffff\n      and\n      0xffffffffffffffffffffffffffffffffffffffff\n      and\n      dup2\n      mstore\n      0x20\n      add\n      swap1\n      dup2\n      mstore\n      0x20\n      add\n      0x00\n      keccak256\n        /* \"module-3/ERC1155token.sol\":1015:1043  lastMintTime[msg.sender][id] */\n      0x00\n        /* \"module-3/ERC1155token.sol\":1040:1042  id */\n      dup5\n        /* \"module-3/ERC1155token.sol\":1015:1043  lastMintTime[msg.sender][id] */\n      dup2\n      mstore\n      0x20\n      add\n      swap1\n      dup2\n      mstore\n      0x20\n      add\n      0x00\n      keccak256\n        /* \"module-3/ERC1155token.sol\":1015:1061  lastMintTime[msg.sender][id] = block.timestamp */\n      dup2\n      swap1\n      sstore\n      pop\n        /* \"module-3/ERC1155token.sol\":1071:1104  _mint(msg.sender, id, amount, \"\") */\n      tag_134\n        /* \"module-3/ERC1155token.sol\":1077:1087  msg.sender */\n      caller\n        /* \"module-3/ERC1155token.sol\":1089:1091  id */\n      dup4\n        /* \"module-3/ERC1155token.sol\":1093:1099  amount */\n      dup4\n        /* \"module-3/ERC1155token.sol\":1071:1104  _mint(msg.sender, id, amount, \"\") */\n      mload(0x40)\n      dup1\n      0x20\n      add\n      0x40\n      mstore\n      dup1\n      0x00\n      dup2\n      mstore\n      pop\n        /* \"module-3/ERC1155token.sol\":1071:1076  _mint */\n      tag_135\n        /* \"module-3/ERC1155token.sol\":1071:1104  _mint(msg.sender, id, amount, \"\") */\n      jump\t// in\n    tag_134:\n        /* \"module-3/ERC1155token.sol\":791:1111  function mint(uint256 id, uint256 amount) public {... */\n      pop\n      pop\n      jump\t// out\n        /* \"@openzeppelin/contracts/token/ERC1155/ERC1155.sol\":4014:4443  function safeBatchTransferFrom(... */\n    tag_59:\n        /* \"@openzeppelin/contracts/token/ERC1155/ERC1155.sol\":4208:4222  address sender */\n      0x00\n        /* \"@openzeppelin/contracts/token/ERC1155/ERC1155.sol\":4225:4237  _msgSender() */\n      tag_137\n        /* \"@openzeppelin/contracts/token/ERC1155/ERC1155.sol\":4225:4235  _msgSender */\n      tag_138\n        /* \"@openzeppelin/contracts/token/ERC1155/ERC1155.sol\":4225:4237  _msgSender() */\n      jump\t// in\n    tag_137:\n        /* \"@openzeppelin/contracts/token/ERC1155/ERC1155.sol\":4208:4237  address sender = _msgSender() */\n      swap1\n      pop\n        /* \"@openzeppelin/contracts/token/ERC1155/ERC1155.sol\":4259:4265  sender */\n      dup1\n        /* \"@openzeppelin/contracts/token/ERC1155/ERC1155.sol\":4251:4265  from != sender */\n      0xffffffffffffffffffffffffffffffffffffffff\n      and\n        /* \"@openzeppelin/contracts/token/ERC1155/ERC1155.sol\":4251:4255  from */\n      dup7\n        /* \"@openzeppelin/contracts/token/ERC1155/ERC1155.sol\":4251:4265  from != sender */\n      0xffffffffffffffffffffffffffffffffffffffff\n      and\n      eq\n      iszero\n        /* \"@openzeppelin/contracts/token/ERC1155/ERC1155.sol\":4251:4300  from != sender && !isApprovedForAll(from, sender) */\n      dup1\n      iszero\n      tag_139\n      jumpi\n      pop\n        /* \"@openzeppelin/contracts/token/ERC1155/ERC1155.sol\":4270:4300  isApprovedForAll(from, sender) */\n      tag_140\n        /* \"@openzeppelin/contracts/token/ERC1155/ERC1155.sol\":4287:4291  from */\n      dup7\n        /* \"@openzeppelin/contracts/token/ERC1155/ERC1155.sol\":4293:4299  sender */\n      dup3\n        /* \"@openzeppelin/contracts/token/ERC1155/ERC1155.sol\":4270:4286  isApprovedForAll */\n      tag_97\n        /* \"@openzeppelin/contracts/token/ERC1155/ERC1155.sol\":4270:4300  isApprovedForAll(from, sender) */\n      jump\t// in\n    tag_140:\n        /* \"@openzeppelin/contracts/token/ERC1155/ERC1155.sol\":4269:4300  !isApprovedForAll(from, sender) */\n      iszero\n        /* \"@openzeppelin/contracts/token/ERC1155/ERC1155.sol\":4251:4300  from != sender && !isApprovedForAll(from, sender) */\n    tag_139:\n        /* \"@openzeppelin/contracts/token/ERC1155/ERC1155.sol\":4247:4376  if (from != sender && !isApprovedForAll(from, sender)) {... */\n      iszero\n      tag_141\n      jumpi\n        /* \"@openzeppelin/contracts/token/ERC1155/ERC1155.sol\":4352:4358  sender */\n      dup1\n        /* \"@openzeppelin/contracts/token/ERC1155/ERC1155.sol\":4360:4364  from */\n      dup7\n        /* \"@openzeppelin/contracts/token/ERC1155/ERC1155.sol\":4323:4365  ERC1155MissingApprovalForAll(sender, from) */\n      mload(0x40)\n      0xe237d92200000000000000000000000000000000000000000000000000000000\n      dup2\n      mstore\n      0x04\n      add\n      tag_142\n      swap3\n      swap2\n      swap1\n      tag_143\n      jump\t// in\n    tag_142:\n      mload(0x40)\n      dup1\n      swap2\n      sub\n      swap1\n      revert\n        /* \"@openzeppelin/contracts/token/ERC1155/ERC1155.sol\":4247:4376  if (from != sender && !isApprovedForAll(from, sender)) {... */\n    tag_141:\n        /* \"@openzeppelin/contracts/token/ERC1155/ERC1155.sol\":4385:4436  _safeBatchTransferFrom(from, to, ids, values, data) */\n      tag_144\n        /* \"@openzeppelin/contracts/token/ERC1155/ERC1155.sol\":4408:4412  from */\n      dup7\n        /* \"@openzeppelin/contracts/token/ERC1155/ERC1155.sol\":4414:4416  to */\n      dup7\n        /* \"@openzeppelin/contracts/token/ERC1155/ERC1155.sol\":4418:4421  ids */\n      dup7\n        /* \"@openzeppelin/contracts/token/ERC1155/ERC1155.sol\":4423:4429  values */\n      dup7\n        /* \"@openzeppelin/contracts/token/ERC1155/ERC1155.sol\":4431:4435  data */\n      dup7\n        /* \"@openzeppelin/contracts/token/ERC1155/ERC1155.sol\":4385:4407  _safeBatchTransferFrom */\n      tag_145\n        /* \"@openzeppelin/contracts/token/ERC1155/ERC1155.sol\":4385:4436  _safeBatchTransferFrom(from, to, ids, values, data) */\n      jump\t// in\n    tag_144:\n        /* \"@openzeppelin/contracts/token/ERC1155/ERC1155.sol\":4198:4443  {... */\n      pop\n        /* \"@openzeppelin/contracts/token/ERC1155/ERC1155.sol\":4014:4443  function safeBatchTransferFrom(... */\n      pop\n      pop\n      pop\n      pop\n      pop\n      jump\t// out\n        /* \"module-3/ERC1155token.sol\":428:463  uint256 public constant TOKEN_3 = 3 */\n    tag_61:\n        /* \"module-3/ERC1155token.sol\":462:463  3 */\n      0x03\n        /* \"module-3/ERC1155token.sol\":428:463  uint256 public constant TOKEN_3 = 3 */\n      dup2\n      jump\t// out\n        /* \"module-3/ERC1155token.sol\":346:381  uint256 public constant TOKEN_1 = 1 */\n    tag_64:\n        /* \"module-3/ERC1155token.sol\":380:381  1 */\n      0x01\n        /* \"module-3/ERC1155token.sol\":346:381  uint256 public constant TOKEN_1 = 1 */\n      dup2\n      jump\t// out\n        /* \"@openzeppelin/contracts/token/ERC1155/ERC1155.sol\":2536:3088  function balanceOfBatch(... */\n    tag_69:\n        /* \"@openzeppelin/contracts/token/ERC1155/ERC1155.sol\":2660:2676  uint256[] memory */\n      0x60\n        /* \"@openzeppelin/contracts/token/ERC1155/ERC1155.sol\":2711:2714  ids */\n      dup2\n        /* \"@openzeppelin/contracts/token/ERC1155/ERC1155.sol\":2711:2721  ids.length */\n      mload\n        /* \"@openzeppelin/contracts/token/ERC1155/ERC1155.sol\":2692:2700  accounts */\n      dup4\n        /* \"@openzeppelin/contracts/token/ERC1155/ERC1155.sol\":2692:2707  accounts.length */\n      mload\n        /* \"@openzeppelin/contracts/token/ERC1155/ERC1155.sol\":2692:2721  accounts.length != ids.length */\n      eq\n        /* \"@openzeppelin/contracts/token/ERC1155/ERC1155.sol\":2688:2809  if (accounts.length != ids.length) {... */\n      tag_147\n      jumpi\n        /* \"@openzeppelin/contracts/token/ERC1155/ERC1155.sol\":2770:2773  ids */\n      dup2\n        /* \"@openzeppelin/contracts/token/ERC1155/ERC1155.sol\":2770:2780  ids.length */\n      mload\n        /* \"@openzeppelin/contracts/token/ERC1155/ERC1155.sol\":2782:2790  accounts */\n      dup4\n        /* \"@openzeppelin/contracts/token/ERC1155/ERC1155.sol\":2782:2797  accounts.length */\n      mload\n        /* \"@openzeppelin/contracts/token/ERC1155/ERC1155.sol\":2744:2798  ERC1155InvalidArrayLength(ids.length, accounts.length) */\n      mload(0x40)\n      0x5b05999100000000000000000000000000000000000000000000000000000000\n      dup2\n      mstore\n      0x04\n      add\n      tag_148\n      swap3\n      swap2\n      swap1\n      tag_149\n      jump\t// in\n    tag_148:\n      mload(0x40)\n      dup1\n      swap2\n      sub\n      swap1\n      revert\n        /* \"@openzeppelin/contracts/token/ERC1155/ERC1155.sol\":2688:2809  if (accounts.length != ids.length) {... */\n    tag_147:\n        /* \"@openzeppelin/contracts/token/ERC1155/ERC1155.sol\":2819:2849  uint256[] memory batchBalances */\n      0x00\n        /* \"@openzeppelin/contracts/token/ERC1155/ERC1155.sol\":2866:2874  accounts */\n      dup4\n        /* \"@openzeppelin/contracts/token/ERC1155/ERC1155.sol\":2866:2881  accounts.length */\n      mload\n        /* \"@openzeppelin/contracts/token/ERC1155/ERC1155.sol\":2852:2882  new uint256[](accounts.length) */\n      0xffffffffffffffff\n      dup2\n      gt\n      iszero\n      tag_150\n      jumpi\n      tag_151\n      tag_152\n      jump\t// in\n    tag_151:\n    tag_150:\n      mload(0x40)\n      swap1\n      dup1\n      dup3\n      mstore\n      dup1\n      0x20\n      mul\n      0x20\n      add\n      dup3\n      add\n      0x40\n      mstore\n      dup1\n      iszero\n      tag_153\n      jumpi\n      dup2\n      0x20\n      add\n      0x20\n      dup3\n      mul\n      dup1\n      calldatasize\n      dup4\n      calldatacopy\n      dup1\n      dup3\n      add\n      swap2\n      pop\n      pop\n      swap1\n      pop\n    tag_153:\n      pop\n        /* \"@openzeppelin/contracts/token/ERC1155/ERC1155.sol\":2819:2882  uint256[] memory batchBalances = new uint256[](accounts.length) */\n      swap1\n      pop\n        /* \"@openzeppelin/contracts/token/ERC1155/ERC1155.sol\":2898:2907  uint256 i */\n      0x00\n        /* \"@openzeppelin/contracts/token/ERC1155/ERC1155.sol\":2893:3051  for (uint256 i = 0; i < accounts.length; ++i) {... */\n    tag_154:\n        /* \"@openzeppelin/contracts/token/ERC1155/ERC1155.sol\":2917:2925  accounts */\n      dup5\n        /* \"@openzeppelin/contracts/token/ERC1155/ERC1155.sol\":2917:2932  accounts.length */\n      mload\n        /* \"@openzeppelin/contracts/token/ERC1155/ERC1155.sol\":2913:2914  i */\n      dup2\n        /* \"@openzeppelin/contracts/token/ERC1155/ERC1155.sol\":2913:2932  i < accounts.length */\n      lt\n        /* \"@openzeppelin/contracts/token/ERC1155/ERC1155.sol\":2893:3051  for (uint256 i = 0; i < accounts.length; ++i) {... */\n      iszero\n      tag_155\n      jumpi\n        /* \"@openzeppelin/contracts/token/ERC1155/ERC1155.sol\":2972:3040  balanceOf(accounts.unsafeMemoryAccess(i), ids.unsafeMemoryAccess(i)) */\n      tag_157\n        /* \"@openzeppelin/contracts/token/ERC1155/ERC1155.sol\":2982:3012  accounts.unsafeMemoryAccess(i) */\n      tag_158\n        /* \"@openzeppelin/contracts/token/ERC1155/ERC1155.sol\":3010:3011  i */\n      dup3\n        /* \"@openzeppelin/contracts/token/ERC1155/ERC1155.sol\":2982:2990  accounts */\n      dup8\n        /* \"@openzeppelin/contracts/token/ERC1155/ERC1155.sol\":2982:3009  accounts.unsafeMemoryAccess */\n      tag_159\n      swap1\n        /* \"@openzeppelin/contracts/token/ERC1155/ERC1155.sol\":2982:3012  accounts.unsafeMemoryAccess(i) */\n      swap2\n      swap1\n      0xffffffff\n      and\n      jump\t// in\n    tag_158:\n        /* \"@openzeppelin/contracts/token/ERC1155/ERC1155.sol\":3014:3039  ids.unsafeMemoryAccess(i) */\n      tag_160\n        /* \"@openzeppelin/contracts/token/ERC1155/ERC1155.sol\":3037:3038  i */\n      dup4\n        /* \"@openzeppelin/contracts/token/ERC1155/ERC1155.sol\":3014:3017  ids */\n      dup8\n        /* \"@openzeppelin/contracts/token/ERC1155/ERC1155.sol\":3014:3036  ids.unsafeMemoryAccess */\n      tag_161\n      swap1\n        /* \"@openzeppelin/contracts/token/ERC1155/ERC1155.sol\":3014:3039  ids.unsafeMemoryAccess(i) */\n      swap2\n      swap1\n      0xffffffff\n      and\n      jump\t// in\n    tag_160:\n        /* \"@openzeppelin/contracts/token/ERC1155/ERC1155.sol\":2972:2981  balanceOf */\n      tag_30\n        /* \"@openzeppelin/contracts/token/ERC1155/ERC1155.sol\":2972:3040  balanceOf(accounts.unsafeMemoryAccess(i), ids.unsafeMemoryAccess(i)) */\n      jump\t// in\n    tag_157:\n        /* \"@openzeppelin/contracts/token/ERC1155/ERC1155.sol\":2953:2966  batchBalances */\n      dup3\n        /* \"@openzeppelin/contracts/token/ERC1155/ERC1155.sol\":2967:2968  i */\n      dup3\n        /* \"@openzeppelin/contracts/token/ERC1155/ERC1155.sol\":2953:2969  batchBalances[i] */\n      dup2\n      mload\n      dup2\n      lt\n      tag_162\n      jumpi\n      tag_163\n      tag_164\n      jump\t// in\n    tag_163:\n    tag_162:\n      0x20\n      mul\n      0x20\n      add\n      add\n        /* \"@openzeppelin/contracts/token/ERC1155/ERC1155.sol\":2953:3040  batchBalances[i] = balanceOf(accounts.unsafeMemoryAccess(i), ids.unsafeMemoryAccess(i)) */\n      dup2\n      dup2\n      mstore\n      pop\n      pop\n        /* \"@openzeppelin/contracts/token/ERC1155/ERC1155.sol\":2934:2937  ++i */\n      dup1\n      0x01\n      add\n      swap1\n      pop\n        /* \"@openzeppelin/contracts/token/ERC1155/ERC1155.sol\":2893:3051  for (uint256 i = 0; i < accounts.length; ++i) {... */\n      jump(tag_154)\n    tag_155:\n      pop\n        /* \"@openzeppelin/contracts/token/ERC1155/ERC1155.sol\":3068:3081  batchBalances */\n      dup1\n        /* \"@openzeppelin/contracts/token/ERC1155/ERC1155.sol\":3061:3081  return batchBalances */\n      swap2\n      pop\n      pop\n        /* \"@openzeppelin/contracts/token/ERC1155/ERC1155.sol\":2536:3088  function balanceOfBatch(... */\n      swap3\n      swap2\n      pop\n      pop\n      jump\t// out\n        /* \"@openzeppelin/contracts/access/Ownable.sol\":2293:2394  function renounceOwnership() public virtual onlyOwner {... */\n    tag_73:\n        /* \"@openzeppelin/contracts/access/Ownable.sol\":1531:1544  _checkOwner() */\n      tag_166\n        /* \"@openzeppelin/contracts/access/Ownable.sol\":1531:1542  _checkOwner */\n      tag_167\n        /* \"@openzeppelin/contracts/access/Ownable.sol\":1531:1544  _checkOwner() */\n      jump\t// in\n    tag_166:\n        /* \"@openzeppelin/contracts/access/Ownable.sol\":2357:2387  _transferOwnership(address(0)) */\n      tag_169\n        /* \"@openzeppelin/contracts/access/Ownable.sol\":2384:2385  0 */\n      0x00\n        /* \"@openzeppelin/contracts/access/Ownable.sol\":2357:2375  _transferOwnership */\n      tag_170\n        /* \"@openzeppelin/contracts/access/Ownable.sol\":2357:2387  _transferOwnership(address(0)) */\n      jump\t// in\n    tag_169:\n        /* \"@openzeppelin/contracts/access/Ownable.sol\":2293:2394  function renounceOwnership() public virtual onlyOwner {... */\n      jump\t// out\n        /* \"module-3/ERC1155token.sol\":387:422  uint256 public constant TOKEN_2 = 2 */\n    tag_75:\n        /* \"module-3/ERC1155token.sol\":421:422  2 */\n      0x02\n        /* \"module-3/ERC1155token.sol\":387:422  uint256 public constant TOKEN_2 = 2 */\n      dup2\n      jump\t// out\n        /* \"@openzeppelin/contracts/access/Ownable.sol\":1638:1723  function owner() public view virtual returns (address) {... */\n    tag_78:\n        /* \"@openzeppelin/contracts/access/Ownable.sol\":1684:1691  address */\n      0x00\n        /* \"@openzeppelin/contracts/access/Ownable.sol\":1710:1716  _owner */\n      0x03\n      0x00\n      swap1\n      sload\n      swap1\n      0x0100\n      exp\n      swap1\n      div\n      0xffffffffffffffffffffffffffffffffffffffff\n      and\n        /* \"@openzeppelin/contracts/access/Ownable.sol\":1703:1716  return _owner */\n      swap1\n      pop\n        /* \"@openzeppelin/contracts/access/Ownable.sol\":1638:1723  function owner() public view virtual returns (address) {... */\n      swap1\n      jump\t// out\n        /* \"@openzeppelin/contracts/token/ERC1155/ERC1155.sol\":3156:3300  function setApprovalForAll(address operator, bool approved) public virtual {... */\n    tag_84:\n        /* \"@openzeppelin/contracts/token/ERC1155/ERC1155.sol\":3241:3293  _setApprovalForAll(_msgSender(), operator, approved) */\n      tag_173\n        /* \"@openzeppelin/contracts/token/ERC1155/ERC1155.sol\":3260:3272  _msgSender() */\n      tag_174\n        /* \"@openzeppelin/contracts/token/ERC1155/ERC1155.sol\":3260:3270  _msgSender */\n      tag_138\n        /* \"@openzeppelin/contracts/token/ERC1155/ERC1155.sol\":3260:3272  _msgSender() */\n      jump\t// in\n    tag_174:\n        /* \"@openzeppelin/contracts/token/ERC1155/ERC1155.sol\":3274:3282  operator */\n      dup4\n        /* \"@openzeppelin/contracts/token/ERC1155/ERC1155.sol\":3284:3292  approved */\n      dup4\n        /* \"@openzeppelin/contracts/token/ERC1155/ERC1155.sol\":3241:3259  _setApprovalForAll */\n      tag_175\n        /* \"@openzeppelin/contracts/token/ERC1155/ERC1155.sol\":3241:3293  _setApprovalForAll(_msgSender(), operator, approved) */\n      jump\t// in\n    tag_173:\n        /* \"@openzeppelin/contracts/token/ERC1155/ERC1155.sol\":3156:3300  function setApprovalForAll(address operator, bool approved) public virtual {... */\n      pop\n      pop\n      jump\t// out\n        /* \"module-3/ERC1155token.sol\":551:586  uint256 public constant TOKEN_6 = 6 */\n    tag_86:\n        /* \"module-3/ERC1155token.sol\":585:586  6 */\n      0x06\n        /* \"module-3/ERC1155token.sol\":551:586  uint256 public constant TOKEN_6 = 6 */\n      dup2\n      jump\t// out\n        /* \"module-3/ERC1155token.sol\":305:340  uint256 public constant TOKEN_0 = 0 */\n    tag_89:\n        /* \"module-3/ERC1155token.sol\":339:340  0 */\n      0x00\n        /* \"module-3/ERC1155token.sol\":305:340  uint256 public constant TOKEN_0 = 0 */\n      dup2\n      jump\t// out\n        /* \"module-3/ERC1155token.sol\":510:545  uint256 public constant TOKEN_5 = 5 */\n    tag_92:\n        /* \"module-3/ERC1155token.sol\":544:545  5 */\n      0x05\n        /* \"module-3/ERC1155token.sol\":510:545  uint256 public constant TOKEN_5 = 5 */\n      dup2\n      jump\t// out\n        /* \"@openzeppelin/contracts/token/ERC1155/ERC1155.sol\":3367:3524  function isApprovedForAll(address account, address operator) public view virtual returns (bool) {... */\n    tag_97:\n        /* \"@openzeppelin/contracts/token/ERC1155/ERC1155.sol\":3457:3461  bool */\n      0x00\n        /* \"@openzeppelin/contracts/token/ERC1155/ERC1155.sol\":3480:3498  _operatorApprovals */\n      0x01\n        /* \"@openzeppelin/contracts/token/ERC1155/ERC1155.sol\":3480:3507  _operatorApprovals[account] */\n      0x00\n        /* \"@openzeppelin/contracts/token/ERC1155/ERC1155.sol\":3499:3506  account */\n      dup5\n        /* \"@openzeppelin/contracts/token/ERC1155/ERC1155.sol\":3480:3507  _operatorApprovals[account] */\n      0xffffffffffffffffffffffffffffffffffffffff\n      and\n      0xffffffffffffffffffffffffffffffffffffffff\n      and\n      dup2\n      mstore\n      0x20\n      add\n      swap1\n      dup2\n      mstore\n      0x20\n      add\n      0x00\n      keccak256\n        /* \"@openzeppelin/contracts/token/ERC1155/ERC1155.sol\":3480:3517  _operatorApprovals[account][operator] */\n      0x00\n        /* \"@openzeppelin/contracts/token/ERC1155/ERC1155.sol\":3508:3516  operator */\n      dup4\n        /* \"@openzeppelin/contracts/token/ERC1155/ERC1155.sol\":3480:3517  _operatorApprovals[account][operator] */\n      0xffffffffffffffffffffffffffffffffffffffff\n      and\n      0xffffffffffffffffffffffffffffffffffffffff\n      and\n      dup2\n      mstore\n      0x20\n      add\n      swap1\n      dup2\n      mstore\n      0x20\n      add\n      0x00\n      keccak256\n      0x00\n      swap1\n      sload\n      swap1\n      0x0100\n      exp\n      swap1\n      div\n      0xff\n      and\n        /* \"@openzeppelin/contracts/token/ERC1155/ERC1155.sol\":3473:3517  return _operatorApprovals[account][operator] */\n      swap1\n      pop\n        /* \"@openzeppelin/contracts/token/ERC1155/ERC1155.sol\":3367:3524  function isApprovedForAll(address account, address operator) public view virtual returns (bool) {... */\n      swap3\n      swap2\n      pop\n      pop\n      jump\t// out\n        /* \"@openzeppelin/contracts/token/ERC1155/ERC1155.sol\":3591:3942  function safeTransferFrom(address from, address to, uint256 id, uint256 value, bytes memory data) public virtual {... */\n    tag_102:\n        /* \"@openzeppelin/contracts/token/ERC1155/ERC1155.sol\":3714:3728  address sender */\n      0x00\n        /* \"@openzeppelin/contracts/token/ERC1155/ERC1155.sol\":3731:3743  _msgSender() */\n      tag_178\n        /* \"@openzeppelin/contracts/token/ERC1155/ERC1155.sol\":3731:3741  _msgSender */\n      tag_138\n        /* \"@openzeppelin/contracts/token/ERC1155/ERC1155.sol\":3731:3743  _msgSender() */\n      jump\t// in\n    tag_178:\n        /* \"@openzeppelin/contracts/token/ERC1155/ERC1155.sol\":3714:3743  address sender = _msgSender() */\n      swap1\n      pop\n        /* \"@openzeppelin/contracts/token/ERC1155/ERC1155.sol\":3765:3771  sender */\n      dup1\n        /* \"@openzeppelin/contracts/token/ERC1155/ERC1155.sol\":3757:3771  from != sender */\n      0xffffffffffffffffffffffffffffffffffffffff\n      and\n        /* \"@openzeppelin/contracts/token/ERC1155/ERC1155.sol\":3757:3761  from */\n      dup7\n        /* \"@openzeppelin/contracts/token/ERC1155/ERC1155.sol\":3757:3771  from != sender */\n      0xffffffffffffffffffffffffffffffffffffffff\n      and\n      eq\n      iszero\n        /* \"@openzeppelin/contracts/token/ERC1155/ERC1155.sol\":3757:3806  from != sender && !isApprovedForAll(from, sender) */\n      dup1\n      iszero\n      tag_179\n      jumpi\n      pop\n        /* \"@openzeppelin/contracts/token/ERC1155/ERC1155.sol\":3776:3806  isApprovedForAll(from, sender) */\n      tag_180\n        /* \"@openzeppelin/contracts/token/ERC1155/ERC1155.sol\":3793:3797  from */\n      dup7\n        /* \"@openzeppelin/contracts/token/ERC1155/ERC1155.sol\":3799:3805  sender */\n      dup3\n        /* \"@openzeppelin/contracts/token/ERC1155/ERC1155.sol\":3776:3792  isApprovedForAll */\n      tag_97\n        /* \"@openzeppelin/contracts/token/ERC1155/ERC1155.sol\":3776:3806  isApprovedForAll(from, sender) */\n      jump\t// in\n    tag_180:\n        /* \"@openzeppelin/contracts/token/ERC1155/ERC1155.sol\":3775:3806  !isApprovedForAll(from, sender) */\n      iszero\n        /* \"@openzeppelin/contracts/token/ERC1155/ERC1155.sol\":3757:3806  from != sender && !isApprovedForAll(from, sender) */\n    tag_179:\n        /* \"@openzeppelin/contracts/token/ERC1155/ERC1155.sol\":3753:3882  if (from != sender && !isApprovedForAll(from, sender)) {... */\n      iszero\n      tag_181\n      jumpi\n        /* \"@openzeppelin/contracts/token/ERC1155/ERC1155.sol\":3858:3864  sender */\n      dup1\n        /* \"@openzeppelin/contracts/token/ERC1155/ERC1155.sol\":3866:3870  from */\n      dup7\n        /* \"@openzeppelin/contracts/token/ERC1155/ERC1155.sol\":3829:3871  ERC1155MissingApprovalForAll(sender, from) */\n      mload(0x40)\n      0xe237d92200000000000000000000000000000000000000000000000000000000\n      dup2\n      mstore\n      0x04\n      add\n      tag_182\n      swap3\n      swap2\n      swap1\n      tag_143\n      jump\t// in\n    tag_182:\n      mload(0x40)\n      dup1\n      swap2\n      sub\n      swap1\n      revert\n        /* \"@openzeppelin/contracts/token/ERC1155/ERC1155.sol\":3753:3882  if (from != sender && !isApprovedForAll(from, sender)) {... */\n    tag_181:\n        /* \"@openzeppelin/contracts/token/ERC1155/ERC1155.sol\":3891:3935  _safeTransferFrom(from, to, id, value, data) */\n      tag_183\n        /* \"@openzeppelin/contracts/token/ERC1155/ERC1155.sol\":3909:3913  from */\n      dup7\n        /* \"@openzeppelin/contracts/token/ERC1155/ERC1155.sol\":3915:3917  to */\n      dup7\n        /* \"@openzeppelin/contracts/token/ERC1155/ERC1155.sol\":3919:3921  id */\n      dup7\n        /* \"@openzeppelin/contracts/token/ERC1155/ERC1155.sol\":3923:3928  value */\n      dup7\n        /* \"@openzeppelin/contracts/token/ERC1155/ERC1155.sol\":3930:3934  data */\n      dup7\n        /* \"@openzeppelin/contracts/token/ERC1155/ERC1155.sol\":3891:3908  _safeTransferFrom */\n      tag_184\n        /* \"@openzeppelin/contracts/token/ERC1155/ERC1155.sol\":3891:3935  _safeTransferFrom(from, to, id, value, data) */\n      jump\t// in\n    tag_183:\n        /* \"@openzeppelin/contracts/token/ERC1155/ERC1155.sol\":3704:3942  {... */\n      pop\n        /* \"@openzeppelin/contracts/token/ERC1155/ERC1155.sol\":3591:3942  function safeTransferFrom(address from, address to, uint256 id, uint256 value, bytes memory data) public virtual {... */\n      pop\n      pop\n      pop\n      pop\n      pop\n      jump\t// out\n        /* \"@openzeppelin/contracts/access/Ownable.sol\":2543:2758  function transferOwnership(address newOwner) public virtual onlyOwner {... */\n    tag_106:\n        /* \"@openzeppelin/contracts/access/Ownable.sol\":1531:1544  _checkOwner() */\n      tag_186\n        /* \"@openzeppelin/contracts/access/Ownable.sol\":1531:1542  _checkOwner */\n      tag_167\n        /* \"@openzeppelin/contracts/access/Ownable.sol\":1531:1544  _checkOwner() */\n      jump\t// in\n    tag_186:\n        /* \"@openzeppelin/contracts/access/Ownable.sol\":2647:2648  0 */\n      0x00\n        /* \"@openzeppelin/contracts/access/Ownable.sol\":2627:2649  newOwner == address(0) */\n      0xffffffffffffffffffffffffffffffffffffffff\n      and\n        /* \"@openzeppelin/contracts/access/Ownable.sol\":2627:2635  newOwner */\n      dup2\n        /* \"@openzeppelin/contracts/access/Ownable.sol\":2627:2649  newOwner == address(0) */\n      0xffffffffffffffffffffffffffffffffffffffff\n      and\n      sub\n        /* \"@openzeppelin/contracts/access/Ownable.sol\":2623:2714  if (newOwner == address(0)) {... */\n      tag_188\n      jumpi\n        /* \"@openzeppelin/contracts/access/Ownable.sol\":2700:2701  0 */\n      0x00\n        /* \"@openzeppelin/contracts/access/Ownable.sol\":2672:2703  OwnableInvalidOwner(address(0)) */\n      mload(0x40)\n      0x1e4fbdf700000000000000000000000000000000000000000000000000000000\n      dup2\n      mstore\n      0x04\n      add\n      tag_189\n      swap2\n      swap1\n      tag_80\n      jump\t// in\n    tag_189:\n      mload(0x40)\n      dup1\n      swap2\n      sub\n      swap1\n      revert\n        /* \"@openzeppelin/contracts/access/Ownable.sol\":2623:2714  if (newOwner == address(0)) {... */\n    tag_188:\n        /* \"@openzeppelin/contracts/access/Ownable.sol\":2723:2751  _transferOwnership(newOwner) */\n      tag_190\n        /* \"@openzeppelin/contracts/access/Ownable.sol\":2742:2750  newOwner */\n      dup2\n        /* \"@openzeppelin/contracts/access/Ownable.sol\":2723:2741  _transferOwnership */\n      tag_170\n        /* \"@openzeppelin/contracts/access/Ownable.sol\":2723:2751  _transferOwnership(newOwner) */\n      jump\t// in\n    tag_190:\n        /* \"@openzeppelin/contracts/access/Ownable.sol\":2543:2758  function transferOwnership(address newOwner) public virtual onlyOwner {... */\n      pop\n      jump\t// out\n        /* \"module-3/ERC1155token.sol\":1118:1332  function burn(address from, uint256 id, uint256 amount) public {... */\n    tag_110:\n        /* \"module-3/ERC1155token.sol\":1213:1217  from */\n      dup3\n        /* \"module-3/ERC1155token.sol\":1199:1217  msg.sender == from */\n      0xffffffffffffffffffffffffffffffffffffffff\n      and\n        /* \"module-3/ERC1155token.sol\":1199:1209  msg.sender */\n      caller\n        /* \"module-3/ERC1155token.sol\":1199:1217  msg.sender == from */\n      0xffffffffffffffffffffffffffffffffffffffff\n      and\n      eq\n        /* \"module-3/ERC1155token.sol\":1199:1255  msg.sender == from || isApprovedForAll(from, msg.sender) */\n      dup1\n      tag_192\n      jumpi\n      pop\n        /* \"module-3/ERC1155token.sol\":1221:1255  isApprovedForAll(from, msg.sender) */\n      tag_193\n        /* \"module-3/ERC1155token.sol\":1238:1242  from */\n      dup4\n        /* \"module-3/ERC1155token.sol\":1244:1254  msg.sender */\n      caller\n        /* \"module-3/ERC1155token.sol\":1221:1237  isApprovedForAll */\n      tag_97\n        /* \"module-3/ERC1155token.sol\":1221:1255  isApprovedForAll(from, msg.sender) */\n      jump\t// in\n    tag_193:\n        /* \"module-3/ERC1155token.sol\":1199:1255  msg.sender == from || isApprovedForAll(from, msg.sender) */\n    tag_192:\n        /* \"module-3/ERC1155token.sol\":1191:1292  require(msg.sender == from || isApprovedForAll(from, msg.sender), \"Caller is not owner nor approved\") */\n      tag_194\n      jumpi\n      mload(0x40)\n      0x08c379a000000000000000000000000000000000000000000000000000000000\n      dup2\n      mstore\n      0x04\n      add\n      tag_195\n      swap1\n      tag_196\n      jump\t// in\n    tag_195:\n      mload(0x40)\n      dup1\n      swap2\n      sub\n      swap1\n      revert\n    tag_194:\n        /* \"module-3/ERC1155token.sol\":1302:1325  _burn(from, id, amount) */\n      tag_197\n        /* \"module-3/ERC1155token.sol\":1308:1312  from */\n      dup4\n        /* \"module-3/ERC1155token.sol\":1314:1316  id */\n      dup4\n        /* \"module-3/ERC1155token.sol\":1318:1324  amount */\n      dup4\n        /* \"module-3/ERC1155token.sol\":1302:1307  _burn */\n      tag_198\n        /* \"module-3/ERC1155token.sol\":1302:1325  _burn(from, id, amount) */\n      jump\t// in\n    tag_197:\n        /* \"module-3/ERC1155token.sol\":1118:1332  function burn(address from, uint256 id, uint256 amount) public {... */\n      pop\n      pop\n      pop\n      jump\t// out\n        /* \"@openzeppelin/contracts/utils/introspection/ERC165.sol\":762:908  function supportsInterface(bytes4 interfaceId) public view virtual returns (bool) {... */\n    tag_116:\n        /* \"@openzeppelin/contracts/utils/introspection/ERC165.sol\":838:842  bool */\n      0x00\n        /* \"@openzeppelin/contracts/utils/introspection/ERC165.sol\":876:901  type(IERC165).interfaceId */\n      0x01ffc9a700000000000000000000000000000000000000000000000000000000\n        /* \"@openzeppelin/contracts/utils/introspection/ERC165.sol\":861:901  interfaceId == type(IERC165).interfaceId */\n      not(0xffffffffffffffffffffffffffffffffffffffffffffffffffffffff)\n      and\n        /* \"@openzeppelin/contracts/utils/introspection/ERC165.sol\":861:872  interfaceId */\n      dup3\n        /* \"@openzeppelin/contracts/utils/introspection/ERC165.sol\":861:901  interfaceId == type(IERC165).interfaceId */\n      not(0xffffffffffffffffffffffffffffffffffffffffffffffffffffffff)\n      and\n      eq\n        /* \"@openzeppelin/contracts/utils/introspection/ERC165.sol\":854:901  return interfaceId == type(IERC165).interfaceId */\n      swap1\n      pop\n        /* \"@openzeppelin/contracts/utils/introspection/ERC165.sol\":762:908  function supportsInterface(bytes4 interfaceId) public view virtual returns (bool) {... */\n      swap2\n      swap1\n      pop\n      jump\t// out\n        /* \"@openzeppelin/contracts/token/ERC1155/ERC1155.sol\":2084:2187  function uri(uint256 /* id */) public view virtual returns (string memory) {... */\n    tag_119:\n        /* \"@openzeppelin/contracts/token/ERC1155/ERC1155.sol\":2144:2157  string memory */\n      0x60\n        /* \"@openzeppelin/contracts/token/ERC1155/ERC1155.sol\":2176:2180  _uri */\n      0x02\n        /* \"@openzeppelin/contracts/token/ERC1155/ERC1155.sol\":2169:2180  return _uri */\n      dup1\n      sload\n      tag_201\n      swap1\n      tag_202\n      jump\t// in\n    tag_201:\n      dup1\n      0x1f\n      add\n      0x20\n      dup1\n      swap2\n      div\n      mul\n      0x20\n      add\n      mload(0x40)\n      swap1\n      dup2\n      add\n      0x40\n      mstore\n      dup1\n      swap3\n      swap2\n      swap1\n      dup2\n      dup2\n      mstore\n      0x20\n      add\n      dup3\n      dup1\n      sload\n      tag_203\n      swap1\n      tag_202\n      jump\t// in\n    tag_203:\n      dup1\n      iszero\n      tag_204\n      jumpi\n      dup1\n      0x1f\n      lt\n      tag_205\n      jumpi\n      0x0100\n      dup1\n      dup4\n      sload\n      div\n      mul\n      dup4\n      mstore\n      swap2\n      0x20\n      add\n      swap2\n      jump(tag_204)\n    tag_205:\n      dup3\n      add\n      swap2\n      swap1\n      0x00\n      mstore\n      keccak256(0x00, 0x20)\n      swap1\n    tag_206:\n      dup2\n      sload\n      dup2\n      mstore\n      swap1\n      0x01\n      add\n      swap1\n      0x20\n      add\n      dup1\n      dup4\n      gt\n      tag_206\n      jumpi\n      dup3\n      swap1\n      sub\n      0x1f\n      and\n      dup3\n      add\n      swap2\n    tag_204:\n      pop\n      pop\n      pop\n      pop\n      pop\n      swap1\n      pop\n        /* \"@openzeppelin/contracts/token/ERC1155/ERC1155.sol\":2084:2187  function uri(uint256 /* id */) public view virtual returns (string memory) {... */\n      swap2\n      swap1\n      pop\n      jump\t// out\n        /* \"@openzeppelin/contracts/utils/Strings.sol\":637:1335  function toString(uint256 value) internal pure returns (string memory) {... */\n    tag_121:\n        /* \"@openzeppelin/contracts/utils/Strings.sol\":693:706  string memory */\n      0x60\n        /* \"@openzeppelin/contracts/utils/Strings.sol\":742:756  uint256 length */\n      0x00\n        /* \"@openzeppelin/contracts/utils/Strings.sol\":779:780  1 */\n      0x01\n        /* \"@openzeppelin/contracts/utils/Strings.sol\":759:776  Math.log10(value) */\n      tag_208\n        /* \"@openzeppelin/contracts/utils/Strings.sol\":770:775  value */\n      dup5\n        /* \"@openzeppelin/contracts/utils/Strings.sol\":759:769  Math.log10 */\n      tag_209\n        /* \"@openzeppelin/contracts/utils/Strings.sol\":759:776  Math.log10(value) */\n      jump\t// in\n    tag_208:\n        /* \"@openzeppelin/contracts/utils/Strings.sol\":759:780  Math.log10(value) + 1 */\n      add\n        /* \"@openzeppelin/contracts/utils/Strings.sol\":742:780  uint256 length = Math.log10(value) + 1 */\n      swap1\n      pop\n        /* \"@openzeppelin/contracts/utils/Strings.sol\":794:814  string memory buffer */\n      0x00\n        /* \"@openzeppelin/contracts/utils/Strings.sol\":828:834  length */\n      dup2\n        /* \"@openzeppelin/contracts/utils/Strings.sol\":817:835  new string(length) */\n      0xffffffffffffffff\n      dup2\n      gt\n      iszero\n      tag_210\n      jumpi\n      tag_211\n      tag_152\n      jump\t// in\n    tag_211:\n    tag_210:\n      mload(0x40)\n      swap1\n      dup1\n      dup3\n      mstore\n      dup1\n      0x1f\n      add\n      not(0x1f)\n      and\n      0x20\n      add\n      dup3\n      add\n      0x40\n      mstore\n      dup1\n      iszero\n      tag_212\n      jumpi\n      dup2\n      0x20\n      add\n      0x01\n      dup3\n      mul\n      dup1\n      calldatasize\n      dup4\n      calldatacopy\n      dup1\n      dup3\n      add\n      swap2\n      pop\n      pop\n      swap1\n      pop\n    tag_212:\n      pop\n        /* \"@openzeppelin/contracts/utils/Strings.sol\":794:835  string memory buffer = new string(length) */\n      swap1\n      pop\n        /* \"@openzeppelin/contracts/utils/Strings.sol\":849:860  uint256 ptr */\n      0x00\n        /* \"@openzeppelin/contracts/utils/Strings.sol\":975:981  length */\n      dup3\n        /* \"@openzeppelin/contracts/utils/Strings.sol\":971:973  32 */\n      0x20\n        /* \"@openzeppelin/contracts/utils/Strings.sol\":967:982  add(32, length) */\n      add\n        /* \"@openzeppelin/contracts/utils/Strings.sol\":959:965  buffer */\n      dup3\n        /* \"@openzeppelin/contracts/utils/Strings.sol\":955:983  add(buffer, add(32, length)) */\n      add\n        /* \"@openzeppelin/contracts/utils/Strings.sol\":948:983  ptr := add(buffer, add(32, length)) */\n      swap1\n      pop\n        /* \"@openzeppelin/contracts/utils/Strings.sol\":1010:1292  while (true) {... */\n    tag_213:\n        /* \"@openzeppelin/contracts/utils/Strings.sol\":1017:1021  true */\n      0x01\n        /* \"@openzeppelin/contracts/utils/Strings.sol\":1010:1292  while (true) {... */\n      iszero\n      tag_214\n      jumpi\n        /* \"@openzeppelin/contracts/utils/Strings.sol\":1041:1046  ptr-- */\n      dup1\n      dup1\n      0x01\n      swap1\n      sub\n      swap2\n      pop\n      pop\n        /* \"@openzeppelin/contracts/utils/Strings.sol\":1180:1190  HEX_DIGITS */\n      0x3031323334353637383961626364656600000000000000000000000000000000\n        /* \"@openzeppelin/contracts/utils/Strings.sol\":1175:1177  10 */\n      0x0a\n        /* \"@openzeppelin/contracts/utils/Strings.sol\":1168:1173  value */\n      dup7\n        /* \"@openzeppelin/contracts/utils/Strings.sol\":1164:1178  mod(value, 10) */\n      mod\n        /* \"@openzeppelin/contracts/utils/Strings.sol\":1159:1191  byte(mod(value, 10), HEX_DIGITS) */\n      byte\n        /* \"@openzeppelin/contracts/utils/Strings.sol\":1154:1157  ptr */\n      dup2\n        /* \"@openzeppelin/contracts/utils/Strings.sol\":1146:1192  mstore8(ptr, byte(mod(value, 10), HEX_DIGITS)) */\n      mstore8\n        /* \"@openzeppelin/contracts/utils/Strings.sol\":1236:1238  10 */\n      0x0a\n        /* \"@openzeppelin/contracts/utils/Strings.sol\":1227:1238  value /= 10 */\n      dup6\n      dup2\n      tag_215\n      jumpi\n      tag_216\n      tag_217\n      jump\t// in\n    tag_216:\n    tag_215:\n      div\n      swap5\n      pop\n        /* \"@openzeppelin/contracts/utils/Strings.sol\":1269:1270  0 */\n      0x00\n        /* \"@openzeppelin/contracts/utils/Strings.sol\":1260:1265  value */\n      dup6\n        /* \"@openzeppelin/contracts/utils/Strings.sol\":1260:1270  value == 0 */\n      sub\n        /* \"@openzeppelin/contracts/utils/Strings.sol\":1010:1292  while (true) {... */\n      tag_213\n        /* \"@openzeppelin/contracts/utils/Strings.sol\":1256:1277  if (value == 0) break */\n      jumpi\n        /* \"@openzeppelin/contracts/utils/Strings.sol\":1010:1292  while (true) {... */\n    tag_214:\n        /* \"@openzeppelin/contracts/utils/Strings.sol\":1312:1318  buffer */\n      dup2\n        /* \"@openzeppelin/contracts/utils/Strings.sol\":1305:1318  return buffer */\n      swap4\n      pop\n      pop\n      pop\n      pop\n        /* \"@openzeppelin/contracts/utils/Strings.sol\":637:1335  function toString(uint256 value) internal pure returns (string memory) {... */\n      swap2\n      swap1\n      pop\n      jump\t// out\n        /* \"@openzeppelin/contracts/token/ERC1155/ERC1155.sol\":10746:11092  function _mint(address to, uint256 id, uint256 value, bytes memory data) internal {... */\n    tag_135:\n        /* \"@openzeppelin/contracts/token/ERC1155/ERC1155.sol\":10856:10857  0 */\n      0x00\n        /* \"@openzeppelin/contracts/token/ERC1155/ERC1155.sol\":10842:10858  to == address(0) */\n      0xffffffffffffffffffffffffffffffffffffffff\n      and\n        /* \"@openzeppelin/contracts/token/ERC1155/ERC1155.sol\":10842:10844  to */\n      dup5\n        /* \"@openzeppelin/contracts/token/ERC1155/ERC1155.sol\":10842:10858  to == address(0) */\n      0xffffffffffffffffffffffffffffffffffffffff\n      and\n      sub\n        /* \"@openzeppelin/contracts/token/ERC1155/ERC1155.sol\":10838:10926  if (to == address(0)) {... */\n      tag_220\n      jumpi\n        /* \"@openzeppelin/contracts/token/ERC1155/ERC1155.sol\":10912:10913  0 */\n      0x00\n        /* \"@openzeppelin/contracts/token/ERC1155/ERC1155.sol\":10881:10915  ERC1155InvalidReceiver(address(0)) */\n      mload(0x40)\n      0x57f447ce00000000000000000000000000000000000000000000000000000000\n      dup2\n      mstore\n      0x04\n      add\n      tag_221\n      swap2\n      swap1\n      tag_80\n      jump\t// in\n    tag_221:\n      mload(0x40)\n      dup1\n      swap2\n      sub\n      swap1\n      revert\n        /* \"@openzeppelin/contracts/token/ERC1155/ERC1155.sol\":10838:10926  if (to == address(0)) {... */\n    tag_220:\n        /* \"@openzeppelin/contracts/token/ERC1155/ERC1155.sol\":10936:10956  uint256[] memory ids */\n      0x00\n        /* \"@openzeppelin/contracts/token/ERC1155/ERC1155.sol\":10958:10981  uint256[] memory values */\n      dup1\n        /* \"@openzeppelin/contracts/token/ERC1155/ERC1155.sol\":10985:11014  _asSingletonArrays(id, value) */\n      tag_222\n        /* \"@openzeppelin/contracts/token/ERC1155/ERC1155.sol\":11004:11006  id */\n      dup6\n        /* \"@openzeppelin/contracts/token/ERC1155/ERC1155.sol\":11008:11013  value */\n      dup6\n        /* \"@openzeppelin/contracts/token/ERC1155/ERC1155.sol\":10985:11003  _asSingletonArrays */\n      tag_223\n        /* \"@openzeppelin/contracts/token/ERC1155/ERC1155.sol\":10985:11014  _asSingletonArrays(id, value) */\n      jump\t// in\n    tag_222:\n        /* \"@openzeppelin/contracts/token/ERC1155/ERC1155.sol\":10935:11014  (uint256[] memory ids, uint256[] memory values) = _asSingletonArrays(id, value) */\n      swap2\n      pop\n      swap2\n      pop\n        /* \"@openzeppelin/contracts/token/ERC1155/ERC1155.sol\":11024:11085  _updateWithAcceptanceCheck(address(0), to, ids, values, data) */\n      tag_224\n        /* \"@openzeppelin/contracts/token/ERC1155/ERC1155.sol\":11059:11060  0 */\n      0x00\n        /* \"@openzeppelin/contracts/token/ERC1155/ERC1155.sol\":11063:11065  to */\n      dup8\n        /* \"@openzeppelin/contracts/token/ERC1155/ERC1155.sol\":11067:11070  ids */\n      dup5\n        /* \"@openzeppelin/contracts/token/ERC1155/ERC1155.sol\":11072:11078  values */\n      dup5\n        /* \"@openzeppelin/contracts/token/ERC1155/ERC1155.sol\":11080:11084  data */\n      dup8\n        /* \"@openzeppelin/contracts/token/ERC1155/ERC1155.sol\":11024:11050  _updateWithAcceptanceCheck */\n      tag_225\n        /* \"@openzeppelin/contracts/token/ERC1155/ERC1155.sol\":11024:11085  _updateWithAcceptanceCheck(address(0), to, ids, values, data) */\n      jump\t// in\n    tag_224:\n        /* \"@openzeppelin/contracts/token/ERC1155/ERC1155.sol\":10828:11092  {... */\n      pop\n      pop\n        /* \"@openzeppelin/contracts/token/ERC1155/ERC1155.sol\":10746:11092  function _mint(address to, uint256 id, uint256 value, bytes memory data) internal {... */\n      pop\n      pop\n      pop\n      pop\n      jump\t// out\n        /* \"@openzeppelin/contracts/utils/Context.sol\":656:752  function _msgSender() internal view virtual returns (address) {... */\n    tag_138:\n        /* \"@openzeppelin/contracts/utils/Context.sol\":709:716  address */\n      0x00\n        /* \"@openzeppelin/contracts/utils/Context.sol\":735:745  msg.sender */\n      caller\n        /* \"@openzeppelin/contracts/utils/Context.sol\":728:745  return msg.sender */\n      swap1\n      pop\n        /* \"@openzeppelin/contracts/utils/Context.sol\":656:752  function _msgSender() internal view virtual returns (address) {... */\n      swap1\n      jump\t// out\n        /* \"@openzeppelin/contracts/token/ERC1155/ERC1155.sol\":9015:9460  function _safeBatchTransferFrom(... */\n    tag_145:\n        /* \"@openzeppelin/contracts/token/ERC1155/ERC1155.sol\":9222:9223  0 */\n      0x00\n        /* \"@openzeppelin/contracts/token/ERC1155/ERC1155.sol\":9208:9224  to == address(0) */\n      0xffffffffffffffffffffffffffffffffffffffff\n      and\n        /* \"@openzeppelin/contracts/token/ERC1155/ERC1155.sol\":9208:9210  to */\n      dup5\n        /* \"@openzeppelin/contracts/token/ERC1155/ERC1155.sol\":9208:9224  to == address(0) */\n      0xffffffffffffffffffffffffffffffffffffffff\n      and\n      sub\n        /* \"@openzeppelin/contracts/token/ERC1155/ERC1155.sol\":9204:9292  if (to == address(0)) {... */\n      tag_228\n      jumpi\n        /* \"@openzeppelin/contracts/token/ERC1155/ERC1155.sol\":9278:9279  0 */\n      0x00\n        /* \"@openzeppelin/contracts/token/ERC1155/ERC1155.sol\":9247:9281  ERC1155InvalidReceiver(address(0)) */\n      mload(0x40)\n      0x57f447ce00000000000000000000000000000000000000000000000000000000\n      dup2\n      mstore\n      0x04\n      add\n      tag_229\n      swap2\n      swap1\n      tag_80\n      jump\t// in\n    tag_229:\n      mload(0x40)\n      dup1\n      swap2\n      sub\n      swap1\n      revert\n        /* \"@openzeppelin/contracts/token/ERC1155/ERC1155.sol\":9204:9292  if (to == address(0)) {... */\n    tag_228:\n        /* \"@openzeppelin/contracts/token/ERC1155/ERC1155.sol\":9321:9322  0 */\n      0x00\n        /* \"@openzeppelin/contracts/token/ERC1155/ERC1155.sol\":9305:9323  from == address(0) */\n      0xffffffffffffffffffffffffffffffffffffffff\n      and\n        /* \"@openzeppelin/contracts/token/ERC1155/ERC1155.sol\":9305:9309  from */\n      dup6\n        /* \"@openzeppelin/contracts/token/ERC1155/ERC1155.sol\":9305:9323  from == address(0) */\n      0xffffffffffffffffffffffffffffffffffffffff\n      and\n      sub\n        /* \"@openzeppelin/contracts/token/ERC1155/ERC1155.sol\":9301:9389  if (from == address(0)) {... */\n      tag_230\n      jumpi\n        /* \"@openzeppelin/contracts/token/ERC1155/ERC1155.sol\":9375:9376  0 */\n      0x00\n        /* \"@openzeppelin/contracts/token/ERC1155/ERC1155.sol\":9346:9378  ERC1155InvalidSender(address(0)) */\n      mload(0x40)\n      0x01a8351400000000000000000000000000000000000000000000000000000000\n      dup2\n      mstore\n      0x04\n      add\n      tag_231\n      swap2\n      swap1\n      tag_80\n      jump\t// in\n    tag_231:\n      mload(0x40)\n      dup1\n      swap2\n      sub\n      swap1\n      revert\n        /* \"@openzeppelin/contracts/token/ERC1155/ERC1155.sol\":9301:9389  if (from == address(0)) {... */\n    tag_230:\n        /* \"@openzeppelin/contracts/token/ERC1155/ERC1155.sol\":9398:9453  _updateWithAcceptanceCheck(from, to, ids, values, data) */\n      tag_232\n        /* \"@openzeppelin/contracts/token/ERC1155/ERC1155.sol\":9425:9429  from */\n      dup6\n        /* \"@openzeppelin/contracts/token/ERC1155/ERC1155.sol\":9431:9433  to */\n      dup6\n        /* \"@openzeppelin/contracts/token/ERC1155/ERC1155.sol\":9435:9438  ids */\n      dup6\n        /* \"@openzeppelin/contracts/token/ERC1155/ERC1155.sol\":9440:9446  values */\n      dup6\n        /* \"@openzeppelin/contracts/token/ERC1155/ERC1155.sol\":9448:9452  data */\n      dup6\n        /* \"@openzeppelin/contracts/token/ERC1155/ERC1155.sol\":9398:9424  _updateWithAcceptanceCheck */\n      tag_225\n        /* \"@openzeppelin/contracts/token/ERC1155/ERC1155.sol\":9398:9453  _updateWithAcceptanceCheck(from, to, ids, values, data) */\n      jump\t// in\n    tag_232:\n        /* \"@openzeppelin/contracts/token/ERC1155/ERC1155.sol\":9015:9460  function _safeBatchTransferFrom(... */\n      pop\n      pop\n      pop\n      pop\n      pop\n      jump\t// out\n        /* \"@openzeppelin/contracts/utils/Arrays.sol\":4603:4800  function unsafeMemoryAccess(address[] memory arr, uint256 pos) internal pure returns (address res) {... */\n    tag_159:\n        /* \"@openzeppelin/contracts/utils/Arrays.sol\":4689:4700  address res */\n      0x00\n        /* \"@openzeppelin/contracts/utils/Arrays.sol\":4777:4781  0x20 */\n      0x20\n        /* \"@openzeppelin/contracts/utils/Arrays.sol\":4772:4775  pos */\n      dup3\n        /* \"@openzeppelin/contracts/utils/Arrays.sol\":4768:4782  mul(pos, 0x20) */\n      mul\n        /* \"@openzeppelin/contracts/utils/Arrays.sol\":4761:4765  0x20 */\n      0x20\n        /* \"@openzeppelin/contracts/utils/Arrays.sol\":4756:4759  arr */\n      dup5\n        /* \"@openzeppelin/contracts/utils/Arrays.sol\":4752:4766  add(arr, 0x20) */\n      add\n        /* \"@openzeppelin/contracts/utils/Arrays.sol\":4748:4783  add(add(arr, 0x20), mul(pos, 0x20)) */\n      add\n        /* \"@openzeppelin/contracts/utils/Arrays.sol\":4742:4784  mload(add(add(arr, 0x20), mul(pos, 0x20))) */\n      mload\n        /* \"@openzeppelin/contracts/utils/Arrays.sol\":4735:4784  res := mload(add(add(arr, 0x20), mul(pos, 0x20))) */\n      swap1\n      pop\n        /* \"@openzeppelin/contracts/utils/Arrays.sol\":4603:4800  function unsafeMemoryAccess(address[] memory arr, uint256 pos) internal pure returns (address res) {... */\n      swap3\n      swap2\n      pop\n      pop\n      jump\t// out\n        /* \"@openzeppelin/contracts/utils/Arrays.sol\":4204:4401  function unsafeMemoryAccess(uint256[] memory arr, uint256 pos) internal pure returns (uint256 res) {... */\n    tag_161:\n        /* \"@openzeppelin/contracts/utils/Arrays.sol\":4290:4301  uint256 res */\n      0x00\n        /* \"@openzeppelin/contracts/utils/Arrays.sol\":4378:4382  0x20 */\n      0x20\n        /* \"@openzeppelin/contracts/utils/Arrays.sol\":4373:4376  pos */\n      dup3\n        /* \"@openzeppelin/contracts/utils/Arrays.sol\":4369:4383  mul(pos, 0x20) */\n      mul\n        /* \"@openzeppelin/contracts/utils/Arrays.sol\":4362:4366  0x20 */\n      0x20\n        /* \"@openzeppelin/contracts/utils/Arrays.sol\":4357:4360  arr */\n      dup5\n        /* \"@openzeppelin/contracts/utils/Arrays.sol\":4353:4367  add(arr, 0x20) */\n      add\n        /* \"@openzeppelin/contracts/utils/Arrays.sol\":4349:4384  add(add(arr, 0x20), mul(pos, 0x20)) */\n      add\n        /* \"@openzeppelin/contracts/utils/Arrays.sol\":4343:4385  mload(add(add(arr, 0x20), mul(pos, 0x20))) */\n      mload\n        /* \"@openzeppelin/contracts/utils/Arrays.sol\":4336:4385  res := mload(add(add(arr, 0x20), mul(pos, 0x20))) */\n      swap1\n      pop\n        /* \"@openzeppelin/contracts/utils/Arrays.sol\":4204:4401  function unsafeMemoryAccess(uint256[] memory arr, uint256 pos) internal pure returns (uint256 res) {... */\n      swap3\n      swap2\n      pop\n      pop\n      jump\t// out\n        /* \"@openzeppelin/contracts/access/Ownable.sol\":1796:1958  function _checkOwner() internal view virtual {... */\n    tag_167:\n        /* \"@openzeppelin/contracts/access/Ownable.sol\":1866:1878  _msgSender() */\n      tag_236\n        /* \"@openzeppelin/contracts/access/Ownable.sol\":1866:1876  _msgSender */\n      tag_138\n        /* \"@openzeppelin/contracts/access/Ownable.sol\":1866:1878  _msgSender() */\n      jump\t// in\n    tag_236:\n        /* \"@openzeppelin/contracts/access/Ownable.sol\":1855:1878  owner() != _msgSender() */\n      0xffffffffffffffffffffffffffffffffffffffff\n      and\n        /* \"@openzeppelin/contracts/access/Ownable.sol\":1855:1862  owner() */\n      tag_237\n        /* \"@openzeppelin/contracts/access/Ownable.sol\":1855:1860  owner */\n      tag_78\n        /* \"@openzeppelin/contracts/access/Ownable.sol\":1855:1862  owner() */\n      jump\t// in\n    tag_237:\n        /* \"@openzeppelin/contracts/access/Ownable.sol\":1855:1878  owner() != _msgSender() */\n      0xffffffffffffffffffffffffffffffffffffffff\n      and\n      eq\n        /* \"@openzeppelin/contracts/access/Ownable.sol\":1851:1952  if (owner() != _msgSender()) {... */\n      tag_238\n      jumpi\n        /* \"@openzeppelin/contracts/access/Ownable.sol\":1928:1940  _msgSender() */\n      tag_239\n        /* \"@openzeppelin/contracts/access/Ownable.sol\":1928:1938  _msgSender */\n      tag_138\n        /* \"@openzeppelin/contracts/access/Ownable.sol\":1928:1940  _msgSender() */\n      jump\t// in\n    tag_239:\n        /* \"@openzeppelin/contracts/access/Ownable.sol\":1901:1941  OwnableUnauthorizedAccount(_msgSender()) */\n      mload(0x40)\n      0x118cdaa700000000000000000000000000000000000000000000000000000000\n      dup2\n      mstore\n      0x04\n      add\n      tag_240\n      swap2\n      swap1\n      tag_80\n      jump\t// in\n    tag_240:\n      mload(0x40)\n      dup1\n      swap2\n      sub\n      swap1\n      revert\n        /* \"@openzeppelin/contracts/access/Ownable.sol\":1851:1952  if (owner() != _msgSender()) {... */\n    tag_238:\n        /* \"@openzeppelin/contracts/access/Ownable.sol\":1796:1958  function _checkOwner() internal view virtual {... */\n      jump\t// out\n        /* \"@openzeppelin/contracts/access/Ownable.sol\":2912:3099  function _transferOwnership(address newOwner) internal virtual {... */\n    tag_170:\n        /* \"@openzeppelin/contracts/access/Ownable.sol\":2985:3001  address oldOwner */\n      0x00\n        /* \"@openzeppelin/contracts/access/Ownable.sol\":3004:3010  _owner */\n      0x03\n      0x00\n      swap1\n      sload\n      swap1\n      0x0100\n      exp\n      swap1\n      div\n      0xffffffffffffffffffffffffffffffffffffffff\n      and\n        /* \"@openzeppelin/contracts/access/Ownable.sol\":2985:3010  address oldOwner = _owner */\n      swap1\n      pop\n        /* \"@openzeppelin/contracts/access/Ownable.sol\":3029:3037  newOwner */\n      dup2\n        /* \"@openzeppelin/contracts/access/Ownable.sol\":3020:3026  _owner */\n      0x03\n      0x00\n        /* \"@openzeppelin/contracts/access/Ownable.sol\":3020:3037  _owner = newOwner */\n      0x0100\n      exp\n      dup2\n      sload\n      dup2\n      0xffffffffffffffffffffffffffffffffffffffff\n      mul\n      not\n      and\n      swap1\n      dup4\n      0xffffffffffffffffffffffffffffffffffffffff\n      and\n      mul\n      or\n      swap1\n      sstore\n      pop\n        /* \"@openzeppelin/contracts/access/Ownable.sol\":3083:3091  newOwner */\n      dup2\n        /* \"@openzeppelin/contracts/access/Ownable.sol\":3052:3092  OwnershipTransferred(oldOwner, newOwner) */\n      0xffffffffffffffffffffffffffffffffffffffff\n      and\n        /* \"@openzeppelin/contracts/access/Ownable.sol\":3073:3081  oldOwner */\n      dup2\n        /* \"@openzeppelin/contracts/access/Ownable.sol\":3052:3092  OwnershipTransferred(oldOwner, newOwner) */\n      0xffffffffffffffffffffffffffffffffffffffff\n      and\n      0x8be0079c531659141344cd1fd0a4f28419497f9722a3daafe3b4186f6b6457e0\n      mload(0x40)\n      mload(0x40)\n      dup1\n      swap2\n      sub\n      swap1\n      log3\n        /* \"@openzeppelin/contracts/access/Ownable.sol\":2975:3099  {... */\n      pop\n        /* \"@openzeppelin/contracts/access/Ownable.sol\":2912:3099  function _transferOwnership(address newOwner) internal virtual {... */\n      pop\n      jump\t// out\n        /* \"@openzeppelin/contracts/token/ERC1155/ERC1155.sol\":13268:13583  function _setApprovalForAll(address owner, address operator, bool approved) internal virtual {... */\n    tag_175:\n        /* \"@openzeppelin/contracts/token/ERC1155/ERC1155.sol\":13395:13396  0 */\n      0x00\n        /* \"@openzeppelin/contracts/token/ERC1155/ERC1155.sol\":13375:13397  operator == address(0) */\n      0xffffffffffffffffffffffffffffffffffffffff\n      and\n        /* \"@openzeppelin/contracts/token/ERC1155/ERC1155.sol\":13375:13383  operator */\n      dup3\n        /* \"@openzeppelin/contracts/token/ERC1155/ERC1155.sol\":13375:13397  operator == address(0) */\n      0xffffffffffffffffffffffffffffffffffffffff\n      and\n      sub\n        /* \"@openzeppelin/contracts/token/ERC1155/ERC1155.sol\":13371:13465  if (operator == address(0)) {... */\n      tag_243\n      jumpi\n        /* \"@openzeppelin/contracts/token/ERC1155/ERC1155.sol\":13451:13452  0 */\n      0x00\n        /* \"@openzeppelin/contracts/token/ERC1155/ERC1155.sol\":13420:13454  ERC1155InvalidOperator(address(0)) */\n      mload(0x40)\n      0xced3e10000000000000000000000000000000000000000000000000000000000\n      dup2\n      mstore\n      0x04\n      add\n      tag_244\n      swap2\n      swap1\n      tag_80\n      jump\t// in\n    tag_244:\n      mload(0x40)\n      dup1\n      swap2\n      sub\n      swap1\n      revert\n        /* \"@openzeppelin/contracts/token/ERC1155/ERC1155.sol\":13371:13465  if (operator == address(0)) {... */\n    tag_243:\n        /* \"@openzeppelin/contracts/token/ERC1155/ERC1155.sol\":13512:13520  approved */\n      dup1\n        /* \"@openzeppelin/contracts/token/ERC1155/ERC1155.sol\":13474:13492  _operatorApprovals */\n      0x01\n        /* \"@openzeppelin/contracts/token/ERC1155/ERC1155.sol\":13474:13499  _operatorApprovals[owner] */\n      0x00\n        /* \"@openzeppelin/contracts/token/ERC1155/ERC1155.sol\":13493:13498  owner */\n      dup6\n        /* \"@openzeppelin/contracts/token/ERC1155/ERC1155.sol\":13474:13499  _operatorApprovals[owner] */\n      0xffffffffffffffffffffffffffffffffffffffff\n      and\n      0xffffffffffffffffffffffffffffffffffffffff\n      and\n      dup2\n      mstore\n      0x20\n      add\n      swap1\n      dup2\n      mstore\n      0x20\n      add\n      0x00\n      keccak256\n        /* \"@openzeppelin/contracts/token/ERC1155/ERC1155.sol\":13474:13509  _operatorApprovals[owner][operator] */\n      0x00\n        /* \"@openzeppelin/contracts/token/ERC1155/ERC1155.sol\":13500:13508  operator */\n      dup5\n        /* \"@openzeppelin/contracts/token/ERC1155/ERC1155.sol\":13474:13509  _operatorApprovals[owner][operator] */\n      0xffffffffffffffffffffffffffffffffffffffff\n      and\n      0xffffffffffffffffffffffffffffffffffffffff\n      and\n      dup2\n      mstore\n      0x20\n      add\n      swap1\n      dup2\n      mstore\n      0x20\n      add\n      0x00\n      keccak256\n      0x00\n        /* \"@openzeppelin/contracts/token/ERC1155/ERC1155.sol\":13474:13520  _operatorApprovals[owner][operator] = approved */\n      0x0100\n      exp\n      dup2\n      sload\n      dup2\n      0xff\n      mul\n      not\n      and\n      swap1\n      dup4\n      iszero\n      iszero\n      mul\n      or\n      swap1\n      sstore\n      pop\n        /* \"@openzeppelin/contracts/token/ERC1155/ERC1155.sol\":13557:13565  operator */\n      dup2\n        /* \"@openzeppelin/contracts/token/ERC1155/ERC1155.sol\":13535:13576  ApprovalForAll(owner, operator, approved) */\n      0xffffffffffffffffffffffffffffffffffffffff\n      and\n        /* \"@openzeppelin/contracts/token/ERC1155/ERC1155.sol\":13550:13555  owner */\n      dup4\n        /* \"@openzeppelin/contracts/token/ERC1155/ERC1155.sol\":13535:13576  ApprovalForAll(owner, operator, approved) */\n      0xffffffffffffffffffffffffffffffffffffffff\n      and\n      0x17307eab39ab6107e8899845ad3d59bd9653f200f220920489ca2b5937696c31\n        /* \"@openzeppelin/contracts/token/ERC1155/ERC1155.sol\":13567:13575  approved */\n      dup4\n        /* \"@openzeppelin/contracts/token/ERC1155/ERC1155.sol\":13535:13576  ApprovalForAll(owner, operator, approved) */\n      mload(0x40)\n      tag_245\n      swap2\n      swap1\n      tag_38\n      jump\t// in\n    tag_245:\n      mload(0x40)\n      dup1\n      swap2\n      sub\n      swap1\n      log3\n        /* \"@openzeppelin/contracts/token/ERC1155/ERC1155.sol\":13268:13583  function _setApprovalForAll(address owner, address operator, bool approved) internal virtual {... */\n      pop\n      pop\n      pop\n      jump\t// out\n        /* \"@openzeppelin/contracts/token/ERC1155/ERC1155.sol\":8151:8614  function _safeTransferFrom(address from, address to, uint256 id, uint256 value, bytes memory data) internal {... */\n    tag_184:\n        /* \"@openzeppelin/contracts/token/ERC1155/ERC1155.sol\":8287:8288  0 */\n      0x00\n        /* \"@openzeppelin/contracts/token/ERC1155/ERC1155.sol\":8273:8289  to == address(0) */\n      0xffffffffffffffffffffffffffffffffffffffff\n      and\n        /* \"@openzeppelin/contracts/token/ERC1155/ERC1155.sol\":8273:8275  to */\n      dup5\n        /* \"@openzeppelin/contracts/token/ERC1155/ERC1155.sol\":8273:8289  to == address(0) */\n      0xffffffffffffffffffffffffffffffffffffffff\n      and\n      sub\n        /* \"@openzeppelin/contracts/token/ERC1155/ERC1155.sol\":8269:8357  if (to == address(0)) {... */\n      tag_247\n      jumpi\n        /* \"@openzeppelin/contracts/token/ERC1155/ERC1155.sol\":8343:8344  0 */\n      0x00\n        /* \"@openzeppelin/contracts/token/ERC1155/ERC1155.sol\":8312:8346  ERC1155InvalidReceiver(address(0)) */\n      mload(0x40)\n      0x57f447ce00000000000000000000000000000000000000000000000000000000\n      dup2\n      mstore\n      0x04\n      add\n      tag_248\n      swap2\n      swap1\n      tag_80\n      jump\t// in\n    tag_248:\n      mload(0x40)\n      dup1\n      swap2\n      sub\n      swap1\n      revert\n        /* \"@openzeppelin/contracts/token/ERC1155/ERC1155.sol\":8269:8357  if (to == address(0)) {... */\n    tag_247:\n        /* \"@openzeppelin/contracts/token/ERC1155/ERC1155.sol\":8386:8387  0 */\n      0x00\n        /* \"@openzeppelin/contracts/token/ERC1155/ERC1155.sol\":8370:8388  from == address(0) */\n      0xffffffffffffffffffffffffffffffffffffffff\n      and\n        /* \"@openzeppelin/contracts/token/ERC1155/ERC1155.sol\":8370:8374  from */\n      dup6\n        /* \"@openzeppelin/contracts/token/ERC1155/ERC1155.sol\":8370:8388  from == address(0) */\n      0xffffffffffffffffffffffffffffffffffffffff\n      and\n      sub\n        /* \"@openzeppelin/contracts/token/ERC1155/ERC1155.sol\":8366:8454  if (from == address(0)) {... */\n      tag_249\n      jumpi\n        /* \"@openzeppelin/contracts/token/ERC1155/ERC1155.sol\":8440:8441  0 */\n      0x00\n        /* \"@openzeppelin/contracts/token/ERC1155/ERC1155.sol\":8411:8443  ERC1155InvalidSender(address(0)) */\n      mload(0x40)\n      0x01a8351400000000000000000000000000000000000000000000000000000000\n      dup2\n      mstore\n      0x04\n      add\n      tag_250\n      swap2\n      swap1\n      tag_80\n      jump\t// in\n    tag_250:\n      mload(0x40)\n      dup1\n      swap2\n      sub\n      swap1\n      revert\n        /* \"@openzeppelin/contracts/token/ERC1155/ERC1155.sol\":8366:8454  if (from == address(0)) {... */\n    tag_249:\n        /* \"@openzeppelin/contracts/token/ERC1155/ERC1155.sol\":8464:8484  uint256[] memory ids */\n      0x00\n        /* \"@openzeppelin/contracts/token/ERC1155/ERC1155.sol\":8486:8509  uint256[] memory values */\n      dup1\n        /* \"@openzeppelin/contracts/token/ERC1155/ERC1155.sol\":8513:8542  _asSingletonArrays(id, value) */\n      tag_251\n        /* \"@openzeppelin/contracts/token/ERC1155/ERC1155.sol\":8532:8534  id */\n      dup6\n        /* \"@openzeppelin/contracts/token/ERC1155/ERC1155.sol\":8536:8541  value */\n      dup6\n        /* \"@openzeppelin/contracts/token/ERC1155/ERC1155.sol\":8513:8531  _asSingletonArrays */\n      tag_223\n        /* \"@openzeppelin/contracts/token/ERC1155/ERC1155.sol\":8513:8542  _asSingletonArrays(id, value) */\n      jump\t// in\n    tag_251:\n        /* \"@openzeppelin/contracts/token/ERC1155/ERC1155.sol\":8463:8542  (uint256[] memory ids, uint256[] memory values) = _asSingletonArrays(id, value) */\n      swap2\n      pop\n      swap2\n      pop\n        /* \"@openzeppelin/contracts/token/ERC1155/ERC1155.sol\":8552:8607  _updateWithAcceptanceCheck(from, to, ids, values, data) */\n      tag_252\n        /* \"@openzeppelin/contracts/token/ERC1155/ERC1155.sol\":8579:8583  from */\n      dup8\n        /* \"@openzeppelin/contracts/token/ERC1155/ERC1155.sol\":8585:8587  to */\n      dup8\n        /* \"@openzeppelin/contracts/token/ERC1155/ERC1155.sol\":8589:8592  ids */\n      dup5\n        /* \"@openzeppelin/contracts/token/ERC1155/ERC1155.sol\":8594:8600  values */\n      dup5\n        /* \"@openzeppelin/contracts/token/ERC1155/ERC1155.sol\":8602:8606  data */\n      dup8\n        /* \"@openzeppelin/contracts/token/ERC1155/ERC1155.sol\":8552:8578  _updateWithAcceptanceCheck */\n      tag_225\n        /* \"@openzeppelin/contracts/token/ERC1155/ERC1155.sol\":8552:8607  _updateWithAcceptanceCheck(from, to, ids, values, data) */\n      jump\t// in\n    tag_252:\n        /* \"@openzeppelin/contracts/token/ERC1155/ERC1155.sol\":8259:8614  {... */\n      pop\n      pop\n        /* \"@openzeppelin/contracts/token/ERC1155/ERC1155.sol\":8151:8614  function _safeTransferFrom(address from, address to, uint256 id, uint256 value, bytes memory data) internal {... */\n      pop\n      pop\n      pop\n      pop\n      pop\n      jump\t// out\n        /* \"@openzeppelin/contracts/token/ERC1155/ERC1155.sol\":12099:12428  function _burn(address from, uint256 id, uint256 value) internal {... */\n    tag_198:\n        /* \"@openzeppelin/contracts/token/ERC1155/ERC1155.sol\":12194:12195  0 */\n      0x00\n        /* \"@openzeppelin/contracts/token/ERC1155/ERC1155.sol\":12178:12196  from == address(0) */\n      0xffffffffffffffffffffffffffffffffffffffff\n      and\n        /* \"@openzeppelin/contracts/token/ERC1155/ERC1155.sol\":12178:12182  from */\n      dup4\n        /* \"@openzeppelin/contracts/token/ERC1155/ERC1155.sol\":12178:12196  from == address(0) */\n      0xffffffffffffffffffffffffffffffffffffffff\n      and\n      sub\n        /* \"@openzeppelin/contracts/token/ERC1155/ERC1155.sol\":12174:12262  if (from == address(0)) {... */\n      tag_254\n      jumpi\n        /* \"@openzeppelin/contracts/token/ERC1155/ERC1155.sol\":12248:12249  0 */\n      0x00\n        /* \"@openzeppelin/contracts/token/ERC1155/ERC1155.sol\":12219:12251  ERC1155InvalidSender(address(0)) */\n      mload(0x40)\n      0x01a8351400000000000000000000000000000000000000000000000000000000\n      dup2\n      mstore\n      0x04\n      add\n      tag_255\n      swap2\n      swap1\n      tag_80\n      jump\t// in\n    tag_255:\n      mload(0x40)\n      dup1\n      swap2\n      sub\n      swap1\n      revert\n        /* \"@openzeppelin/contracts/token/ERC1155/ERC1155.sol\":12174:12262  if (from == address(0)) {... */\n    tag_254:\n        /* \"@openzeppelin/contracts/token/ERC1155/ERC1155.sol\":12272:12292  uint256[] memory ids */\n      0x00\n        /* \"@openzeppelin/contracts/token/ERC1155/ERC1155.sol\":12294:12317  uint256[] memory values */\n      dup1\n        /* \"@openzeppelin/contracts/token/ERC1155/ERC1155.sol\":12321:12350  _asSingletonArrays(id, value) */\n      tag_256\n        /* \"@openzeppelin/contracts/token/ERC1155/ERC1155.sol\":12340:12342  id */\n      dup5\n        /* \"@openzeppelin/contracts/token/ERC1155/ERC1155.sol\":12344:12349  value */\n      dup5\n        /* \"@openzeppelin/contracts/token/ERC1155/ERC1155.sol\":12321:12339  _asSingletonArrays */\n      tag_223\n        /* \"@openzeppelin/contracts/token/ERC1155/ERC1155.sol\":12321:12350  _asSingletonArrays(id, value) */\n      jump\t// in\n    tag_256:\n        /* \"@openzeppelin/contracts/token/ERC1155/ERC1155.sol\":12271:12350  (uint256[] memory ids, uint256[] memory values) = _asSingletonArrays(id, value) */\n      swap2\n      pop\n      swap2\n      pop\n        /* \"@openzeppelin/contracts/token/ERC1155/ERC1155.sol\":12360:12421  _updateWithAcceptanceCheck(from, address(0), ids, values, \"\") */\n      tag_257\n        /* \"@openzeppelin/contracts/token/ERC1155/ERC1155.sol\":12387:12391  from */\n      dup6\n        /* \"@openzeppelin/contracts/token/ERC1155/ERC1155.sol\":12401:12402  0 */\n      0x00\n        /* \"@openzeppelin/contracts/token/ERC1155/ERC1155.sol\":12405:12408  ids */\n      dup5\n        /* \"@openzeppelin/contracts/token/ERC1155/ERC1155.sol\":12410:12416  values */\n      dup5\n        /* \"@openzeppelin/contracts/token/ERC1155/ERC1155.sol\":12360:12421  _updateWithAcceptanceCheck(from, address(0), ids, values, \"\") */\n      mload(0x40)\n      dup1\n      0x20\n      add\n      0x40\n      mstore\n      dup1\n      0x00\n      dup2\n      mstore\n      pop\n        /* \"@openzeppelin/contracts/token/ERC1155/ERC1155.sol\":12360:12386  _updateWithAcceptanceCheck */\n      tag_225\n        /* \"@openzeppelin/contracts/token/ERC1155/ERC1155.sol\":12360:12421  _updateWithAcceptanceCheck(from, address(0), ids, values, \"\") */\n      jump\t// in\n    tag_257:\n        /* \"@openzeppelin/contracts/token/ERC1155/ERC1155.sol\":12164:12428  {... */\n      pop\n      pop\n        /* \"@openzeppelin/contracts/token/ERC1155/ERC1155.sol\":12099:12428  function _burn(address from, uint256 id, uint256 value) internal {... */\n      pop\n      pop\n      pop\n      jump\t// out\n        /* \"@openzeppelin/contracts/utils/math/Math.sol\":12214:13130  function log10(uint256 value) internal pure returns (uint256) {... */\n    tag_209:\n        /* \"@openzeppelin/contracts/utils/math/Math.sol\":12267:12274  uint256 */\n      0x00\n        /* \"@openzeppelin/contracts/utils/math/Math.sol\":12286:12300  uint256 result */\n      dup1\n        /* \"@openzeppelin/contracts/utils/math/Math.sol\":12303:12304  0 */\n      0x00\n        /* \"@openzeppelin/contracts/utils/math/Math.sol\":12286:12304  uint256 result = 0 */\n      swap1\n      pop\n        /* \"@openzeppelin/contracts/utils/math/Math.sol\":12351:12359  10 ** 64 */\n      0x184f03e93ff9f4daa797ed6e38ed64bf6a1f010000000000000000\n        /* \"@openzeppelin/contracts/utils/math/Math.sol\":12342:12347  value */\n      dup4\n        /* \"@openzeppelin/contracts/utils/math/Math.sol\":12342:12359  value >= 10 ** 64 */\n      lt\n        /* \"@openzeppelin/contracts/utils/math/Math.sol\":12338:12441  if (value >= 10 ** 64) {... */\n      tag_259\n      jumpi\n        /* \"@openzeppelin/contracts/utils/math/Math.sol\":12388:12396  10 ** 64 */\n      0x184f03e93ff9f4daa797ed6e38ed64bf6a1f010000000000000000\n        /* \"@openzeppelin/contracts/utils/math/Math.sol\":12379:12396  value /= 10 ** 64 */\n      dup4\n      dup2\n      tag_260\n      jumpi\n      tag_261\n      tag_217\n      jump\t// in\n    tag_261:\n    tag_260:\n      div\n      swap3\n      pop\n        /* \"@openzeppelin/contracts/utils/math/Math.sol\":12424:12426  64 */\n      0x40\n        /* \"@openzeppelin/contracts/utils/math/Math.sol\":12414:12426  result += 64 */\n      dup2\n      add\n      swap1\n      pop\n        /* \"@openzeppelin/contracts/utils/math/Math.sol\":12338:12441  if (value >= 10 ** 64) {... */\n    tag_259:\n        /* \"@openzeppelin/contracts/utils/math/Math.sol\":12467:12475  10 ** 32 */\n      0x04ee2d6d415b85acef8100000000\n        /* \"@openzeppelin/contracts/utils/math/Math.sol\":12458:12463  value */\n      dup4\n        /* \"@openzeppelin/contracts/utils/math/Math.sol\":12458:12475  value >= 10 ** 32 */\n      lt\n        /* \"@openzeppelin/contracts/utils/math/Math.sol\":12454:12557  if (value >= 10 ** 32) {... */\n      tag_262\n      jumpi\n        /* \"@openzeppelin/contracts/utils/math/Math.sol\":12504:12512  10 ** 32 */\n      0x04ee2d6d415b85acef8100000000\n        /* \"@openzeppelin/contracts/utils/math/Math.sol\":12495:12512  value /= 10 ** 32 */\n      dup4\n      dup2\n      tag_263\n      jumpi\n      tag_264\n      tag_217\n      jump\t// in\n    tag_264:\n    tag_263:\n      div\n      swap3\n      pop\n        /* \"@openzeppelin/contracts/utils/math/Math.sol\":12540:12542  32 */\n      0x20\n        /* \"@openzeppelin/contracts/utils/math/Math.sol\":12530:12542  result += 32 */\n      dup2\n      add\n      swap1\n      pop\n        /* \"@openzeppelin/contracts/utils/math/Math.sol\":12454:12557  if (value >= 10 ** 32) {... */\n    tag_262:\n        /* \"@openzeppelin/contracts/utils/math/Math.sol\":12583:12591  10 ** 16 */\n      0x2386f26fc10000\n        /* \"@openzeppelin/contracts/utils/math/Math.sol\":12574:12579  value */\n      dup4\n        /* \"@openzeppelin/contracts/utils/math/Math.sol\":12574:12591  value >= 10 ** 16 */\n      lt\n        /* \"@openzeppelin/contracts/utils/math/Math.sol\":12570:12673  if (value >= 10 ** 16) {... */\n      tag_265\n      jumpi\n        /* \"@openzeppelin/contracts/utils/math/Math.sol\":12620:12628  10 ** 16 */\n      0x2386f26fc10000\n        /* \"@openzeppelin/contracts/utils/math/Math.sol\":12611:12628  value /= 10 ** 16 */\n      dup4\n      dup2\n      tag_266\n      jumpi\n      tag_267\n      tag_217\n      jump\t// in\n    tag_267:\n    tag_266:\n      div\n      swap3\n      pop\n        /* \"@openzeppelin/contracts/utils/math/Math.sol\":12656:12658  16 */\n      0x10\n        /* \"@openzeppelin/contracts/utils/math/Math.sol\":12646:12658  result += 16 */\n      dup2\n      add\n      swap1\n      pop\n        /* \"@openzeppelin/contracts/utils/math/Math.sol\":12570:12673  if (value >= 10 ** 16) {... */\n    tag_265:\n        /* \"@openzeppelin/contracts/utils/math/Math.sol\":12699:12706  10 ** 8 */\n      0x05f5e100\n        /* \"@openzeppelin/contracts/utils/math/Math.sol\":12690:12695  value */\n      dup4\n        /* \"@openzeppelin/contracts/utils/math/Math.sol\":12690:12706  value >= 10 ** 8 */\n      lt\n        /* \"@openzeppelin/contracts/utils/math/Math.sol\":12686:12786  if (value >= 10 ** 8) {... */\n      tag_268\n      jumpi\n        /* \"@openzeppelin/contracts/utils/math/Math.sol\":12735:12742  10 ** 8 */\n      0x05f5e100\n        /* \"@openzeppelin/contracts/utils/math/Math.sol\":12726:12742  value /= 10 ** 8 */\n      dup4\n      dup2\n      tag_269\n      jumpi\n      tag_270\n      tag_217\n      jump\t// in\n    tag_270:\n    tag_269:\n      div\n      swap3\n      pop\n        /* \"@openzeppelin/contracts/utils/math/Math.sol\":12770:12771  8 */\n      0x08\n        /* \"@openzeppelin/contracts/utils/math/Math.sol\":12760:12771  result += 8 */\n      dup2\n      add\n      swap1\n      pop\n        /* \"@openzeppelin/contracts/utils/math/Math.sol\":12686:12786  if (value >= 10 ** 8) {... */\n    tag_268:\n        /* \"@openzeppelin/contracts/utils/math/Math.sol\":12812:12819  10 ** 4 */\n      0x2710\n        /* \"@openzeppelin/contracts/utils/math/Math.sol\":12803:12808  value */\n      dup4\n        /* \"@openzeppelin/contracts/utils/math/Math.sol\":12803:12819  value >= 10 ** 4 */\n      lt\n        /* \"@openzeppelin/contracts/utils/math/Math.sol\":12799:12899  if (value >= 10 ** 4) {... */\n      tag_271\n      jumpi\n        /* \"@openzeppelin/contracts/utils/math/Math.sol\":12848:12855  10 ** 4 */\n      0x2710\n        /* \"@openzeppelin/contracts/utils/math/Math.sol\":12839:12855  value /= 10 ** 4 */\n      dup4\n      dup2\n      tag_272\n      jumpi\n      tag_273\n      tag_217\n      jump\t// in\n    tag_273:\n    tag_272:\n      div\n      swap3\n      pop\n        /* \"@openzeppelin/contracts/utils/math/Math.sol\":12883:12884  4 */\n      0x04\n        /* \"@openzeppelin/contracts/utils/math/Math.sol\":12873:12884  result += 4 */\n      dup2\n      add\n      swap1\n      pop\n        /* \"@openzeppelin/contracts/utils/math/Math.sol\":12799:12899  if (value >= 10 ** 4) {... */\n    tag_271:\n        /* \"@openzeppelin/contracts/utils/math/Math.sol\":12925:12932  10 ** 2 */\n      0x64\n        /* \"@openzeppelin/contracts/utils/math/Math.sol\":12916:12921  value */\n      dup4\n        /* \"@openzeppelin/contracts/utils/math/Math.sol\":12916:12932  value >= 10 ** 2 */\n      lt\n        /* \"@openzeppelin/contracts/utils/math/Math.sol\":12912:13012  if (value >= 10 ** 2) {... */\n      tag_274\n      jumpi\n        /* \"@openzeppelin/contracts/utils/math/Math.sol\":12961:12968  10 ** 2 */\n      0x64\n        /* \"@openzeppelin/contracts/utils/math/Math.sol\":12952:12968  value /= 10 ** 2 */\n      dup4\n      dup2\n      tag_275\n      jumpi\n      tag_276\n      tag_217\n      jump\t// in\n    tag_276:\n    tag_275:\n      div\n      swap3\n      pop\n        /* \"@openzeppelin/contracts/utils/math/Math.sol\":12996:12997  2 */\n      0x02\n        /* \"@openzeppelin/contracts/utils/math/Math.sol\":12986:12997  result += 2 */\n      dup2\n      add\n      swap1\n      pop\n        /* \"@openzeppelin/contracts/utils/math/Math.sol\":12912:13012  if (value >= 10 ** 2) {... */\n    tag_274:\n        /* \"@openzeppelin/contracts/utils/math/Math.sol\":13038:13045  10 ** 1 */\n      0x0a\n        /* \"@openzeppelin/contracts/utils/math/Math.sol\":13029:13034  value */\n      dup4\n        /* \"@openzeppelin/contracts/utils/math/Math.sol\":13029:13045  value >= 10 ** 1 */\n      lt\n        /* \"@openzeppelin/contracts/utils/math/Math.sol\":13025:13091  if (value >= 10 ** 1) {... */\n      tag_277\n      jumpi\n        /* \"@openzeppelin/contracts/utils/math/Math.sol\":13075:13076  1 */\n      0x01\n        /* \"@openzeppelin/contracts/utils/math/Math.sol\":13065:13076  result += 1 */\n      dup2\n      add\n      swap1\n      pop\n        /* \"@openzeppelin/contracts/utils/math/Math.sol\":13025:13091  if (value >= 10 ** 1) {... */\n    tag_277:\n        /* \"@openzeppelin/contracts/utils/math/Math.sol\":13117:13123  result */\n      dup1\n        /* \"@openzeppelin/contracts/utils/math/Math.sol\":13110:13123  return result */\n      swap2\n      pop\n      pop\n        /* \"@openzeppelin/contracts/utils/math/Math.sol\":12214:13130  function log10(uint256 value) internal pure returns (uint256) {... */\n      swap2\n      swap1\n      pop\n      jump\t// out\n        /* \"@openzeppelin/contracts/token/ERC1155/ERC1155.sol\":16080:16929  function _asSingletonArrays(... */\n    tag_223:\n        /* \"@openzeppelin/contracts/token/ERC1155/ERC1155.sol\":16188:16211  uint256[] memory array1 */\n      0x60\n        /* \"@openzeppelin/contracts/token/ERC1155/ERC1155.sol\":16213:16236  uint256[] memory array2 */\n      dup1\n        /* \"@openzeppelin/contracts/token/ERC1155/ERC1155.sol\":16374:16378  0x40 */\n      0x40\n        /* \"@openzeppelin/contracts/token/ERC1155/ERC1155.sol\":16368:16379  mload(0x40) */\n      mload\n        /* \"@openzeppelin/contracts/token/ERC1155/ERC1155.sol\":16358:16379  array1 := mload(0x40) */\n      swap2\n      pop\n        /* \"@openzeppelin/contracts/token/ERC1155/ERC1155.sol\":16444:16445  1 */\n      0x01\n        /* \"@openzeppelin/contracts/token/ERC1155/ERC1155.sol\":16436:16442  array1 */\n      dup3\n        /* \"@openzeppelin/contracts/token/ERC1155/ERC1155.sol\":16429:16446  mstore(array1, 1) */\n      mstore\n        /* \"@openzeppelin/contracts/token/ERC1155/ERC1155.sol\":16582:16590  element1 */\n      dup4\n        /* \"@openzeppelin/contracts/token/ERC1155/ERC1155.sol\":16575:16579  0x20 */\n      0x20\n        /* \"@openzeppelin/contracts/token/ERC1155/ERC1155.sol\":16567:16573  array1 */\n      dup4\n        /* \"@openzeppelin/contracts/token/ERC1155/ERC1155.sol\":16563:16580  add(array1, 0x20) */\n      add\n        /* \"@openzeppelin/contracts/token/ERC1155/ERC1155.sol\":16556:16591  mstore(add(array1, 0x20), element1) */\n      mstore\n        /* \"@openzeppelin/contracts/token/ERC1155/ERC1155.sol\":16704:16708  0x40 */\n      0x40\n        /* \"@openzeppelin/contracts/token/ERC1155/ERC1155.sol\":16696:16702  array1 */\n      dup3\n        /* \"@openzeppelin/contracts/token/ERC1155/ERC1155.sol\":16692:16709  add(array1, 0x40) */\n      add\n        /* \"@openzeppelin/contracts/token/ERC1155/ERC1155.sol\":16682:16709  array2 := add(array1, 0x40) */\n      swap1\n      pop\n        /* \"@openzeppelin/contracts/token/ERC1155/ERC1155.sol\":16737:16738  1 */\n      0x01\n        /* \"@openzeppelin/contracts/token/ERC1155/ERC1155.sol\":16729:16735  array2 */\n      dup2\n        /* \"@openzeppelin/contracts/token/ERC1155/ERC1155.sol\":16722:16739  mstore(array2, 1) */\n      mstore\n        /* \"@openzeppelin/contracts/token/ERC1155/ERC1155.sol\":16778:16786  element2 */\n      dup3\n        /* \"@openzeppelin/contracts/token/ERC1155/ERC1155.sol\":16771:16775  0x20 */\n      0x20\n        /* \"@openzeppelin/contracts/token/ERC1155/ERC1155.sol\":16763:16769  array2 */\n      dup3\n        /* \"@openzeppelin/contracts/token/ERC1155/ERC1155.sol\":16759:16776  add(array2, 0x20) */\n      add\n        /* \"@openzeppelin/contracts/token/ERC1155/ERC1155.sol\":16752:16787  mstore(add(array2, 0x20), element2) */\n      mstore\n        /* \"@openzeppelin/contracts/token/ERC1155/ERC1155.sol\":16907:16911  0x40 */\n      0x40\n        /* \"@openzeppelin/contracts/token/ERC1155/ERC1155.sol\":16899:16905  array2 */\n      dup2\n        /* \"@openzeppelin/contracts/token/ERC1155/ERC1155.sol\":16895:16912  add(array2, 0x40) */\n      add\n        /* \"@openzeppelin/contracts/token/ERC1155/ERC1155.sol\":16889:16893  0x40 */\n      0x40\n        /* \"@openzeppelin/contracts/token/ERC1155/ERC1155.sol\":16882:16913  mstore(0x40, add(array2, 0x40)) */\n      mstore\n        /* \"@openzeppelin/contracts/token/ERC1155/ERC1155.sol\":16080:16929  function _asSingletonArrays(... */\n      swap3\n      pop\n      swap3\n      swap1\n      pop\n      jump\t// out\n        /* \"@openzeppelin/contracts/token/ERC1155/ERC1155.sol\":7004:7694  function _updateWithAcceptanceCheck(... */\n    tag_225:\n        /* \"@openzeppelin/contracts/token/ERC1155/ERC1155.sol\":7205:7235  _update(from, to, ids, values) */\n      tag_280\n        /* \"@openzeppelin/contracts/token/ERC1155/ERC1155.sol\":7213:7217  from */\n      dup6\n        /* \"@openzeppelin/contracts/token/ERC1155/ERC1155.sol\":7219:7221  to */\n      dup6\n        /* \"@openzeppelin/contracts/token/ERC1155/ERC1155.sol\":7223:7226  ids */\n      dup6\n        /* \"@openzeppelin/contracts/token/ERC1155/ERC1155.sol\":7228:7234  values */\n      dup6\n        /* \"@openzeppelin/contracts/token/ERC1155/ERC1155.sol\":7205:7212  _update */\n      tag_281\n        /* \"@openzeppelin/contracts/token/ERC1155/ERC1155.sol\":7205:7235  _update(from, to, ids, values) */\n      jump\t// in\n    tag_280:\n        /* \"@openzeppelin/contracts/token/ERC1155/ERC1155.sol\":7263:7264  0 */\n      0x00\n        /* \"@openzeppelin/contracts/token/ERC1155/ERC1155.sol\":7249:7265  to != address(0) */\n      0xffffffffffffffffffffffffffffffffffffffff\n      and\n        /* \"@openzeppelin/contracts/token/ERC1155/ERC1155.sol\":7249:7251  to */\n      dup5\n        /* \"@openzeppelin/contracts/token/ERC1155/ERC1155.sol\":7249:7265  to != address(0) */\n      0xffffffffffffffffffffffffffffffffffffffff\n      and\n      eq\n        /* \"@openzeppelin/contracts/token/ERC1155/ERC1155.sol\":7245:7688  if (to != address(0)) {... */\n      tag_282\n      jumpi\n        /* \"@openzeppelin/contracts/token/ERC1155/ERC1155.sol\":7281:7297  address operator */\n      0x00\n        /* \"@openzeppelin/contracts/token/ERC1155/ERC1155.sol\":7300:7312  _msgSender() */\n      tag_283\n        /* \"@openzeppelin/contracts/token/ERC1155/ERC1155.sol\":7300:7310  _msgSender */\n      tag_138\n        /* \"@openzeppelin/contracts/token/ERC1155/ERC1155.sol\":7300:7312  _msgSender() */\n      jump\t// in\n    tag_283:\n        /* \"@openzeppelin/contracts/token/ERC1155/ERC1155.sol\":7281:7312  address operator = _msgSender() */\n      swap1\n      pop\n        /* \"@openzeppelin/contracts/token/ERC1155/ERC1155.sol\":7344:7345  1 */\n      0x01\n        /* \"@openzeppelin/contracts/token/ERC1155/ERC1155.sol\":7330:7333  ids */\n      dup5\n        /* \"@openzeppelin/contracts/token/ERC1155/ERC1155.sol\":7330:7340  ids.length */\n      mload\n        /* \"@openzeppelin/contracts/token/ERC1155/ERC1155.sol\":7330:7345  ids.length == 1 */\n      sub\n        /* \"@openzeppelin/contracts/token/ERC1155/ERC1155.sol\":7326:7678  if (ids.length == 1) {... */\n      tag_284\n      jumpi\n        /* \"@openzeppelin/contracts/token/ERC1155/ERC1155.sol\":7365:7375  uint256 id */\n      0x00\n        /* \"@openzeppelin/contracts/token/ERC1155/ERC1155.sol\":7378:7403  ids.unsafeMemoryAccess(0) */\n      tag_285\n        /* \"@openzeppelin/contracts/token/ERC1155/ERC1155.sol\":7401:7402  0 */\n      0x00\n        /* \"@openzeppelin/contracts/token/ERC1155/ERC1155.sol\":7378:7381  ids */\n      dup7\n        /* \"@openzeppelin/contracts/token/ERC1155/ERC1155.sol\":7378:7400  ids.unsafeMemoryAccess */\n      tag_161\n      swap1\n        /* \"@openzeppelin/contracts/token/ERC1155/ERC1155.sol\":7378:7403  ids.unsafeMemoryAccess(0) */\n      swap2\n      swap1\n      0xffffffff\n      and\n      jump\t// in\n    tag_285:\n        /* \"@openzeppelin/contracts/token/ERC1155/ERC1155.sol\":7365:7403  uint256 id = ids.unsafeMemoryAccess(0) */\n      swap1\n      pop\n        /* \"@openzeppelin/contracts/token/ERC1155/ERC1155.sol\":7421:7434  uint256 value */\n      0x00\n        /* \"@openzeppelin/contracts/token/ERC1155/ERC1155.sol\":7437:7465  values.unsafeMemoryAccess(0) */\n      tag_286\n        /* \"@openzeppelin/contracts/token/ERC1155/ERC1155.sol\":7463:7464  0 */\n      0x00\n        /* \"@openzeppelin/contracts/token/ERC1155/ERC1155.sol\":7437:7443  values */\n      dup7\n        /* \"@openzeppelin/contracts/token/ERC1155/ERC1155.sol\":7437:7462  values.unsafeMemoryAccess */\n      tag_161\n      swap1\n        /* \"@openzeppelin/contracts/token/ERC1155/ERC1155.sol\":7437:7465  values.unsafeMemoryAccess(0) */\n      swap2\n      swap1\n      0xffffffff\n      and\n      jump\t// in\n    tag_286:\n        /* \"@openzeppelin/contracts/token/ERC1155/ERC1155.sol\":7421:7465  uint256 value = values.unsafeMemoryAccess(0) */\n      swap1\n      pop\n        /* \"@openzeppelin/contracts/token/ERC1155/ERC1155.sol\":7483:7550  _doSafeTransferAcceptanceCheck(operator, from, to, id, value, data) */\n      tag_287\n        /* \"@openzeppelin/contracts/token/ERC1155/ERC1155.sol\":7514:7522  operator */\n      dup4\n        /* \"@openzeppelin/contracts/token/ERC1155/ERC1155.sol\":7524:7528  from */\n      dup10\n        /* \"@openzeppelin/contracts/token/ERC1155/ERC1155.sol\":7530:7532  to */\n      dup10\n        /* \"@openzeppelin/contracts/token/ERC1155/ERC1155.sol\":7534:7536  id */\n      dup6\n        /* \"@openzeppelin/contracts/token/ERC1155/ERC1155.sol\":7538:7543  value */\n      dup6\n        /* \"@openzeppelin/contracts/token/ERC1155/ERC1155.sol\":7545:7549  data */\n      dup10\n        /* \"@openzeppelin/contracts/token/ERC1155/ERC1155.sol\":7483:7513  _doSafeTransferAcceptanceCheck */\n      tag_288\n        /* \"@openzeppelin/contracts/token/ERC1155/ERC1155.sol\":7483:7550  _doSafeTransferAcceptanceCheck(operator, from, to, id, value, data) */\n      jump\t// in\n    tag_287:\n        /* \"@openzeppelin/contracts/token/ERC1155/ERC1155.sol\":7347:7565  {... */\n      pop\n      pop\n        /* \"@openzeppelin/contracts/token/ERC1155/ERC1155.sol\":7326:7678  if (ids.length == 1) {... */\n      jump(tag_289)\n    tag_284:\n        /* \"@openzeppelin/contracts/token/ERC1155/ERC1155.sol\":7589:7663  _doSafeBatchTransferAcceptanceCheck(operator, from, to, ids, values, data) */\n      tag_290\n        /* \"@openzeppelin/contracts/token/ERC1155/ERC1155.sol\":7625:7633  operator */\n      dup2\n        /* \"@openzeppelin/contracts/token/ERC1155/ERC1155.sol\":7635:7639  from */\n      dup8\n        /* \"@openzeppelin/contracts/token/ERC1155/ERC1155.sol\":7641:7643  to */\n      dup8\n        /* \"@openzeppelin/contracts/token/ERC1155/ERC1155.sol\":7645:7648  ids */\n      dup8\n        /* \"@openzeppelin/contracts/token/ERC1155/ERC1155.sol\":7650:7656  values */\n      dup8\n        /* \"@openzeppelin/contracts/token/ERC1155/ERC1155.sol\":7658:7662  data */\n      dup8\n        /* \"@openzeppelin/contracts/token/ERC1155/ERC1155.sol\":7589:7624  _doSafeBatchTransferAcceptanceCheck */\n      tag_291\n        /* \"@openzeppelin/contracts/token/ERC1155/ERC1155.sol\":7589:7663  _doSafeBatchTransferAcceptanceCheck(operator, from, to, ids, values, data) */\n      jump\t// in\n    tag_290:\n        /* \"@openzeppelin/contracts/token/ERC1155/ERC1155.sol\":7326:7678  if (ids.length == 1) {... */\n    tag_289:\n        /* \"@openzeppelin/contracts/token/ERC1155/ERC1155.sol\":7267:7688  {... */\n      pop\n        /* \"@openzeppelin/contracts/token/ERC1155/ERC1155.sol\":7245:7688  if (to != address(0)) {... */\n    tag_282:\n        /* \"@openzeppelin/contracts/token/ERC1155/ERC1155.sol\":7004:7694  function _updateWithAcceptanceCheck(... */\n      pop\n      pop\n      pop\n      pop\n      pop\n      jump\t// out\n        /* \"@openzeppelin/contracts/token/ERC1155/ERC1155.sol\":5144:6425  function _update(address from, address to, uint256[] memory ids, uint256[] memory values) internal virtual {... */\n    tag_281:\n        /* \"@openzeppelin/contracts/token/ERC1155/ERC1155.sol\":5279:5285  values */\n      dup1\n        /* \"@openzeppelin/contracts/token/ERC1155/ERC1155.sol\":5279:5292  values.length */\n      mload\n        /* \"@openzeppelin/contracts/token/ERC1155/ERC1155.sol\":5265:5268  ids */\n      dup3\n        /* \"@openzeppelin/contracts/token/ERC1155/ERC1155.sol\":5265:5275  ids.length */\n      mload\n        /* \"@openzeppelin/contracts/token/ERC1155/ERC1155.sol\":5265:5292  ids.length != values.length */\n      eq\n        /* \"@openzeppelin/contracts/token/ERC1155/ERC1155.sol\":5261:5378  if (ids.length != values.length) {... */\n      tag_293\n      jumpi\n        /* \"@openzeppelin/contracts/token/ERC1155/ERC1155.sol\":5341:5344  ids */\n      dup2\n        /* \"@openzeppelin/contracts/token/ERC1155/ERC1155.sol\":5341:5351  ids.length */\n      mload\n        /* \"@openzeppelin/contracts/token/ERC1155/ERC1155.sol\":5353:5359  values */\n      dup2\n        /* \"@openzeppelin/contracts/token/ERC1155/ERC1155.sol\":5353:5366  values.length */\n      mload\n        /* \"@openzeppelin/contracts/token/ERC1155/ERC1155.sol\":5315:5367  ERC1155InvalidArrayLength(ids.length, values.length) */\n      mload(0x40)\n      0x5b05999100000000000000000000000000000000000000000000000000000000\n      dup2\n      mstore\n      0x04\n      add\n      tag_294\n      swap3\n      swap2\n      swap1\n      tag_149\n      jump\t// in\n    tag_294:\n      mload(0x40)\n      dup1\n      swap2\n      sub\n      swap1\n      revert\n        /* \"@openzeppelin/contracts/token/ERC1155/ERC1155.sol\":5261:5378  if (ids.length != values.length) {... */\n    tag_293:\n        /* \"@openzeppelin/contracts/token/ERC1155/ERC1155.sol\":5388:5404  address operator */\n      0x00\n        /* \"@openzeppelin/contracts/token/ERC1155/ERC1155.sol\":5407:5419  _msgSender() */\n      tag_295\n        /* \"@openzeppelin/contracts/token/ERC1155/ERC1155.sol\":5407:5417  _msgSender */\n      tag_138\n        /* \"@openzeppelin/contracts/token/ERC1155/ERC1155.sol\":5407:5419  _msgSender() */\n      jump\t// in\n    tag_295:\n        /* \"@openzeppelin/contracts/token/ERC1155/ERC1155.sol\":5388:5419  address operator = _msgSender() */\n      swap1\n      pop\n        /* \"@openzeppelin/contracts/token/ERC1155/ERC1155.sol\":5435:5444  uint256 i */\n      0x00\n        /* \"@openzeppelin/contracts/token/ERC1155/ERC1155.sol\":5430:6121  for (uint256 i = 0; i < ids.length; ++i) {... */\n    tag_296:\n        /* \"@openzeppelin/contracts/token/ERC1155/ERC1155.sol\":5454:5457  ids */\n      dup4\n        /* \"@openzeppelin/contracts/token/ERC1155/ERC1155.sol\":5454:5464  ids.length */\n      mload\n        /* \"@openzeppelin/contracts/token/ERC1155/ERC1155.sol\":5450:5451  i */\n      dup2\n        /* \"@openzeppelin/contracts/token/ERC1155/ERC1155.sol\":5450:5464  i < ids.length */\n      lt\n        /* \"@openzeppelin/contracts/token/ERC1155/ERC1155.sol\":5430:6121  for (uint256 i = 0; i < ids.length; ++i) {... */\n      iszero\n      tag_297\n      jumpi\n        /* \"@openzeppelin/contracts/token/ERC1155/ERC1155.sol\":5485:5495  uint256 id */\n      0x00\n        /* \"@openzeppelin/contracts/token/ERC1155/ERC1155.sol\":5498:5523  ids.unsafeMemoryAccess(i) */\n      tag_299\n        /* \"@openzeppelin/contracts/token/ERC1155/ERC1155.sol\":5521:5522  i */\n      dup3\n        /* \"@openzeppelin/contracts/token/ERC1155/ERC1155.sol\":5498:5501  ids */\n      dup7\n        /* \"@openzeppelin/contracts/token/ERC1155/ERC1155.sol\":5498:5520  ids.unsafeMemoryAccess */\n      tag_161\n      swap1\n        /* \"@openzeppelin/contracts/token/ERC1155/ERC1155.sol\":5498:5523  ids.unsafeMemoryAccess(i) */\n      swap2\n      swap1\n      0xffffffff\n      and\n      jump\t// in\n    tag_299:\n        /* \"@openzeppelin/contracts/token/ERC1155/ERC1155.sol\":5485:5523  uint256 id = ids.unsafeMemoryAccess(i) */\n      swap1\n      pop\n        /* \"@openzeppelin/contracts/token/ERC1155/ERC1155.sol\":5537:5550  uint256 value */\n      0x00\n        /* \"@openzeppelin/contracts/token/ERC1155/ERC1155.sol\":5553:5581  values.unsafeMemoryAccess(i) */\n      tag_300\n        /* \"@openzeppelin/contracts/token/ERC1155/ERC1155.sol\":5579:5580  i */\n      dup4\n        /* \"@openzeppelin/contracts/token/ERC1155/ERC1155.sol\":5553:5559  values */\n      dup7\n        /* \"@openzeppelin/contracts/token/ERC1155/ERC1155.sol\":5553:5578  values.unsafeMemoryAccess */\n      tag_161\n      swap1\n        /* \"@openzeppelin/contracts/token/ERC1155/ERC1155.sol\":5553:5581  values.unsafeMemoryAccess(i) */\n      swap2\n      swap1\n      0xffffffff\n      and\n      jump\t// in\n    tag_300:\n        /* \"@openzeppelin/contracts/token/ERC1155/ERC1155.sol\":5537:5581  uint256 value = values.unsafeMemoryAccess(i) */\n      swap1\n      pop\n        /* \"@openzeppelin/contracts/token/ERC1155/ERC1155.sol\":5616:5617  0 */\n      0x00\n        /* \"@openzeppelin/contracts/token/ERC1155/ERC1155.sol\":5600:5618  from != address(0) */\n      0xffffffffffffffffffffffffffffffffffffffff\n      and\n        /* \"@openzeppelin/contracts/token/ERC1155/ERC1155.sol\":5600:5604  from */\n      dup9\n        /* \"@openzeppelin/contracts/token/ERC1155/ERC1155.sol\":5600:5618  from != address(0) */\n      0xffffffffffffffffffffffffffffffffffffffff\n      and\n      eq\n        /* \"@openzeppelin/contracts/token/ERC1155/ERC1155.sol\":5596:6016  if (from != address(0)) {... */\n      tag_301\n      jumpi\n        /* \"@openzeppelin/contracts/token/ERC1155/ERC1155.sol\":5638:5657  uint256 fromBalance */\n      0x00\n        /* \"@openzeppelin/contracts/token/ERC1155/ERC1155.sol\":5660:5669  _balances */\n      dup1\n        /* \"@openzeppelin/contracts/token/ERC1155/ERC1155.sol\":5660:5673  _balances[id] */\n      0x00\n        /* \"@openzeppelin/contracts/token/ERC1155/ERC1155.sol\":5670:5672  id */\n      dup5\n        /* \"@openzeppelin/contracts/token/ERC1155/ERC1155.sol\":5660:5673  _balances[id] */\n      dup2\n      mstore\n      0x20\n      add\n      swap1\n      dup2\n      mstore\n      0x20\n      add\n      0x00\n      keccak256\n        /* \"@openzeppelin/contracts/token/ERC1155/ERC1155.sol\":5660:5679  _balances[id][from] */\n      0x00\n        /* \"@openzeppelin/contracts/token/ERC1155/ERC1155.sol\":5674:5678  from */\n      dup11\n        /* \"@openzeppelin/contracts/token/ERC1155/ERC1155.sol\":5660:5679  _balances[id][from] */\n      0xffffffffffffffffffffffffffffffffffffffff\n      and\n      0xffffffffffffffffffffffffffffffffffffffff\n      and\n      dup2\n      mstore\n      0x20\n      add\n      swap1\n      dup2\n      mstore\n      0x20\n      add\n      0x00\n      keccak256\n      sload\n        /* \"@openzeppelin/contracts/token/ERC1155/ERC1155.sol\":5638:5679  uint256 fromBalance = _balances[id][from] */\n      swap1\n      pop\n        /* \"@openzeppelin/contracts/token/ERC1155/ERC1155.sol\":5715:5720  value */\n      dup2\n        /* \"@openzeppelin/contracts/token/ERC1155/ERC1155.sol\":5701:5712  fromBalance */\n      dup2\n        /* \"@openzeppelin/contracts/token/ERC1155/ERC1155.sol\":5701:5720  fromBalance < value */\n      lt\n        /* \"@openzeppelin/contracts/token/ERC1155/ERC1155.sol\":5697:5826  if (fromBalance < value) {... */\n      iszero\n      tag_302\n      jumpi\n        /* \"@openzeppelin/contracts/token/ERC1155/ERC1155.sol\":5778:5782  from */\n      dup9\n        /* \"@openzeppelin/contracts/token/ERC1155/ERC1155.sol\":5784:5795  fromBalance */\n      dup2\n        /* \"@openzeppelin/contracts/token/ERC1155/ERC1155.sol\":5797:5802  value */\n      dup4\n        /* \"@openzeppelin/contracts/token/ERC1155/ERC1155.sol\":5804:5806  id */\n      dup6\n        /* \"@openzeppelin/contracts/token/ERC1155/ERC1155.sol\":5751:5807  ERC1155InsufficientBalance(from, fromBalance, value, id) */\n      mload(0x40)\n      0x03dee4c500000000000000000000000000000000000000000000000000000000\n      dup2\n      mstore\n      0x04\n      add\n      tag_303\n      swap5\n      swap4\n      swap3\n      swap2\n      swap1\n      tag_304\n      jump\t// in\n    tag_303:\n      mload(0x40)\n      dup1\n      swap2\n      sub\n      swap1\n      revert\n        /* \"@openzeppelin/contracts/token/ERC1155/ERC1155.sol\":5697:5826  if (fromBalance < value) {... */\n    tag_302:\n        /* \"@openzeppelin/contracts/token/ERC1155/ERC1155.sol\":5978:5983  value */\n      dup2\n        /* \"@openzeppelin/contracts/token/ERC1155/ERC1155.sol\":5964:5975  fromBalance */\n      dup2\n        /* \"@openzeppelin/contracts/token/ERC1155/ERC1155.sol\":5964:5983  fromBalance - value */\n      sub\n        /* \"@openzeppelin/contracts/token/ERC1155/ERC1155.sol\":5942:5951  _balances */\n      0x00\n        /* \"@openzeppelin/contracts/token/ERC1155/ERC1155.sol\":5942:5955  _balances[id] */\n      dup1\n        /* \"@openzeppelin/contracts/token/ERC1155/ERC1155.sol\":5952:5954  id */\n      dup6\n        /* \"@openzeppelin/contracts/token/ERC1155/ERC1155.sol\":5942:5955  _balances[id] */\n      dup2\n      mstore\n      0x20\n      add\n      swap1\n      dup2\n      mstore\n      0x20\n      add\n      0x00\n      keccak256\n        /* \"@openzeppelin/contracts/token/ERC1155/ERC1155.sol\":5942:5961  _balances[id][from] */\n      0x00\n        /* \"@openzeppelin/contracts/token/ERC1155/ERC1155.sol\":5956:5960  from */\n      dup12\n        /* \"@openzeppelin/contracts/token/ERC1155/ERC1155.sol\":5942:5961  _balances[id][from] */\n      0xffffffffffffffffffffffffffffffffffffffff\n      and\n      0xffffffffffffffffffffffffffffffffffffffff\n      and\n      dup2\n      mstore\n      0x20\n      add\n      swap1\n      dup2\n      mstore\n      0x20\n      add\n      0x00\n      keccak256\n        /* \"@openzeppelin/contracts/token/ERC1155/ERC1155.sol\":5942:5983  _balances[id][from] = fromBalance - value */\n      dup2\n      swap1\n      sstore\n      pop\n        /* \"@openzeppelin/contracts/token/ERC1155/ERC1155.sol\":5620:6016  {... */\n      pop\n        /* \"@openzeppelin/contracts/token/ERC1155/ERC1155.sol\":5596:6016  if (from != address(0)) {... */\n    tag_301:\n        /* \"@openzeppelin/contracts/token/ERC1155/ERC1155.sol\":6048:6049  0 */\n      0x00\n        /* \"@openzeppelin/contracts/token/ERC1155/ERC1155.sol\":6034:6050  to != address(0) */\n      0xffffffffffffffffffffffffffffffffffffffff\n      and\n        /* \"@openzeppelin/contracts/token/ERC1155/ERC1155.sol\":6034:6036  to */\n      dup8\n        /* \"@openzeppelin/contracts/token/ERC1155/ERC1155.sol\":6034:6050  to != address(0) */\n      0xffffffffffffffffffffffffffffffffffffffff\n      and\n      eq\n        /* \"@openzeppelin/contracts/token/ERC1155/ERC1155.sol\":6030:6111  if (to != address(0)) {... */\n      tag_305\n      jumpi\n        /* \"@openzeppelin/contracts/token/ERC1155/ERC1155.sol\":6091:6096  value */\n      dup1\n        /* \"@openzeppelin/contracts/token/ERC1155/ERC1155.sol\":6070:6079  _balances */\n      0x00\n        /* \"@openzeppelin/contracts/token/ERC1155/ERC1155.sol\":6070:6083  _balances[id] */\n      dup1\n        /* \"@openzeppelin/contracts/token/ERC1155/ERC1155.sol\":6080:6082  id */\n      dup5\n        /* \"@openzeppelin/contracts/token/ERC1155/ERC1155.sol\":6070:6083  _balances[id] */\n      dup2\n      mstore\n      0x20\n      add\n      swap1\n      dup2\n      mstore\n      0x20\n      add\n      0x00\n      keccak256\n        /* \"@openzeppelin/contracts/token/ERC1155/ERC1155.sol\":6070:6087  _balances[id][to] */\n      0x00\n        /* \"@openzeppelin/contracts/token/ERC1155/ERC1155.sol\":6084:6086  to */\n      dup10\n        /* \"@openzeppelin/contracts/token/ERC1155/ERC1155.sol\":6070:6087  _balances[id][to] */\n      0xffffffffffffffffffffffffffffffffffffffff\n      and\n      0xffffffffffffffffffffffffffffffffffffffff\n      and\n      dup2\n      mstore\n      0x20\n      add\n      swap1\n      dup2\n      mstore\n      0x20\n      add\n      0x00\n      keccak256\n      0x00\n        /* \"@openzeppelin/contracts/token/ERC1155/ERC1155.sol\":6070:6096  _balances[id][to] += value */\n      dup3\n      dup3\n      sload\n      tag_306\n      swap2\n      swap1\n      tag_130\n      jump\t// in\n    tag_306:\n      swap3\n      pop\n      pop\n      dup2\n      swap1\n      sstore\n      pop\n        /* \"@openzeppelin/contracts/token/ERC1155/ERC1155.sol\":6030:6111  if (to != address(0)) {... */\n    tag_305:\n        /* \"@openzeppelin/contracts/token/ERC1155/ERC1155.sol\":5471:6121  {... */\n      pop\n      pop\n        /* \"@openzeppelin/contracts/token/ERC1155/ERC1155.sol\":5466:5469  ++i */\n      dup1\n      0x01\n      add\n      swap1\n      pop\n        /* \"@openzeppelin/contracts/token/ERC1155/ERC1155.sol\":5430:6121  for (uint256 i = 0; i < ids.length; ++i) {... */\n      jump(tag_296)\n    tag_297:\n      pop\n        /* \"@openzeppelin/contracts/token/ERC1155/ERC1155.sol\":6149:6150  1 */\n      0x01\n        /* \"@openzeppelin/contracts/token/ERC1155/ERC1155.sol\":6135:6138  ids */\n      dup4\n        /* \"@openzeppelin/contracts/token/ERC1155/ERC1155.sol\":6135:6145  ids.length */\n      mload\n        /* \"@openzeppelin/contracts/token/ERC1155/ERC1155.sol\":6135:6150  ids.length == 1 */\n      sub\n        /* \"@openzeppelin/contracts/token/ERC1155/ERC1155.sol\":6131:6419  if (ids.length == 1) {... */\n      tag_307\n      jumpi\n        /* \"@openzeppelin/contracts/token/ERC1155/ERC1155.sol\":6166:6176  uint256 id */\n      0x00\n        /* \"@openzeppelin/contracts/token/ERC1155/ERC1155.sol\":6179:6204  ids.unsafeMemoryAccess(0) */\n      tag_308\n        /* \"@openzeppelin/contracts/token/ERC1155/ERC1155.sol\":6202:6203  0 */\n      0x00\n        /* \"@openzeppelin/contracts/token/ERC1155/ERC1155.sol\":6179:6182  ids */\n      dup6\n        /* \"@openzeppelin/contracts/token/ERC1155/ERC1155.sol\":6179:6201  ids.unsafeMemoryAccess */\n      tag_161\n      swap1\n        /* \"@openzeppelin/contracts/token/ERC1155/ERC1155.sol\":6179:6204  ids.unsafeMemoryAccess(0) */\n      swap2\n      swap1\n      0xffffffff\n      and\n      jump\t// in\n    tag_308:\n        /* \"@openzeppelin/contracts/token/ERC1155/ERC1155.sol\":6166:6204  uint256 id = ids.unsafeMemoryAccess(0) */\n      swap1\n      pop\n        /* \"@openzeppelin/contracts/token/ERC1155/ERC1155.sol\":6218:6231  uint256 value */\n      0x00\n        /* \"@openzeppelin/contracts/token/ERC1155/ERC1155.sol\":6234:6262  values.unsafeMemoryAccess(0) */\n      tag_309\n        /* \"@openzeppelin/contracts/token/ERC1155/ERC1155.sol\":6260:6261  0 */\n      0x00\n        /* \"@openzeppelin/contracts/token/ERC1155/ERC1155.sol\":6234:6240  values */\n      dup6\n        /* \"@openzeppelin/contracts/token/ERC1155/ERC1155.sol\":6234:6259  values.unsafeMemoryAccess */\n      tag_161\n      swap1\n        /* \"@openzeppelin/contracts/token/ERC1155/ERC1155.sol\":6234:6262  values.unsafeMemoryAccess(0) */\n      swap2\n      swap1\n      0xffffffff\n      and\n      jump\t// in\n    tag_309:\n        /* \"@openzeppelin/contracts/token/ERC1155/ERC1155.sol\":6218:6262  uint256 value = values.unsafeMemoryAccess(0) */\n      swap1\n      pop\n        /* \"@openzeppelin/contracts/token/ERC1155/ERC1155.sol\":6312:6314  to */\n      dup6\n        /* \"@openzeppelin/contracts/token/ERC1155/ERC1155.sol\":6281:6326  TransferSingle(operator, from, to, id, value) */\n      0xffffffffffffffffffffffffffffffffffffffff\n      and\n        /* \"@openzeppelin/contracts/token/ERC1155/ERC1155.sol\":6306:6310  from */\n      dup8\n        /* \"@openzeppelin/contracts/token/ERC1155/ERC1155.sol\":6281:6326  TransferSingle(operator, from, to, id, value) */\n      0xffffffffffffffffffffffffffffffffffffffff\n      and\n        /* \"@openzeppelin/contracts/token/ERC1155/ERC1155.sol\":6296:6304  operator */\n      dup5\n        /* \"@openzeppelin/contracts/token/ERC1155/ERC1155.sol\":6281:6326  TransferSingle(operator, from, to, id, value) */\n      0xffffffffffffffffffffffffffffffffffffffff\n      and\n      0xc3d58168c5ae7397731d063d5bbf3d657854427343f4c083240f7aacaa2d0f62\n        /* \"@openzeppelin/contracts/token/ERC1155/ERC1155.sol\":6316:6318  id */\n      dup6\n        /* \"@openzeppelin/contracts/token/ERC1155/ERC1155.sol\":6320:6325  value */\n      dup6\n        /* \"@openzeppelin/contracts/token/ERC1155/ERC1155.sol\":6281:6326  TransferSingle(operator, from, to, id, value) */\n      mload(0x40)\n      tag_310\n      swap3\n      swap2\n      swap1\n      tag_149\n      jump\t// in\n    tag_310:\n      mload(0x40)\n      dup1\n      swap2\n      sub\n      swap1\n      log4\n        /* \"@openzeppelin/contracts/token/ERC1155/ERC1155.sol\":6152:6337  {... */\n      pop\n      pop\n        /* \"@openzeppelin/contracts/token/ERC1155/ERC1155.sol\":6131:6419  if (ids.length == 1) {... */\n      jump(tag_311)\n    tag_307:\n        /* \"@openzeppelin/contracts/token/ERC1155/ERC1155.sol\":6392:6394  to */\n      dup4\n        /* \"@openzeppelin/contracts/token/ERC1155/ERC1155.sol\":6362:6408  TransferBatch(operator, from, to, ids, values) */\n      0xffffffffffffffffffffffffffffffffffffffff\n      and\n        /* \"@openzeppelin/contracts/token/ERC1155/ERC1155.sol\":6386:6390  from */\n      dup6\n        /* \"@openzeppelin/contracts/token/ERC1155/ERC1155.sol\":6362:6408  TransferBatch(operator, from, to, ids, values) */\n      0xffffffffffffffffffffffffffffffffffffffff\n      and\n        /* \"@openzeppelin/contracts/token/ERC1155/ERC1155.sol\":6376:6384  operator */\n      dup3\n        /* \"@openzeppelin/contracts/token/ERC1155/ERC1155.sol\":6362:6408  TransferBatch(operator, from, to, ids, values) */\n      0xffffffffffffffffffffffffffffffffffffffff\n      and\n      0x4a39dc06d4c0dbc64b70af90fd698a233a518aa5d07e595d983b8c0526c8f7fb\n        /* \"@openzeppelin/contracts/token/ERC1155/ERC1155.sol\":6396:6399  ids */\n      dup7\n        /* \"@openzeppelin/contracts/token/ERC1155/ERC1155.sol\":6401:6407  values */\n      dup7\n        /* \"@openzeppelin/contracts/token/ERC1155/ERC1155.sol\":6362:6408  TransferBatch(operator, from, to, ids, values) */\n      mload(0x40)\n      tag_312\n      swap3\n      swap2\n      swap1\n      tag_313\n      jump\t// in\n    tag_312:\n      mload(0x40)\n      dup1\n      swap2\n      sub\n      swap1\n      log4\n        /* \"@openzeppelin/contracts/token/ERC1155/ERC1155.sol\":6131:6419  if (ids.length == 1) {... */\n    tag_311:\n        /* \"@openzeppelin/contracts/token/ERC1155/ERC1155.sol\":5251:6425  {... */\n      pop\n        /* \"@openzeppelin/contracts/token/ERC1155/ERC1155.sol\":5144:6425  function _update(address from, address to, uint256[] memory ids, uint256[] memory values) internal virtual {... */\n      pop\n      pop\n      pop\n      pop\n      jump\t// out\n        /* \"@openzeppelin/contracts/token/ERC1155/ERC1155.sol\":13761:14735  function _doSafeTransferAcceptanceCheck(... */\n    tag_288:\n        /* \"@openzeppelin/contracts/token/ERC1155/ERC1155.sol\":13984:13985  0 */\n      0x00\n        /* \"@openzeppelin/contracts/token/ERC1155/ERC1155.sol\":13967:13969  to */\n      dup5\n        /* \"@openzeppelin/contracts/token/ERC1155/ERC1155.sol\":13967:13981  to.code.length */\n      0xffffffffffffffffffffffffffffffffffffffff\n      and\n      extcodesize\n        /* \"@openzeppelin/contracts/token/ERC1155/ERC1155.sol\":13967:13985  to.code.length > 0 */\n      gt\n        /* \"@openzeppelin/contracts/token/ERC1155/ERC1155.sol\":13963:14729  if (to.code.length > 0) {... */\n      iszero\n      tag_315\n      jumpi\n        /* \"@openzeppelin/contracts/token/ERC1155/ERC1155.sol\":14022:14024  to */\n      dup4\n        /* \"@openzeppelin/contracts/token/ERC1155/ERC1155.sol\":14005:14043  IERC1155Receiver(to).onERC1155Received */\n      0xffffffffffffffffffffffffffffffffffffffff\n      and\n      0xf23a6e61\n        /* \"@openzeppelin/contracts/token/ERC1155/ERC1155.sol\":14044:14052  operator */\n      dup8\n        /* \"@openzeppelin/contracts/token/ERC1155/ERC1155.sol\":14054:14058  from */\n      dup8\n        /* \"@openzeppelin/contracts/token/ERC1155/ERC1155.sol\":14060:14062  id */\n      dup7\n        /* \"@openzeppelin/contracts/token/ERC1155/ERC1155.sol\":14064:14069  value */\n      dup7\n        /* \"@openzeppelin/contracts/token/ERC1155/ERC1155.sol\":14071:14075  data */\n      dup7\n        /* \"@openzeppelin/contracts/token/ERC1155/ERC1155.sol\":14005:14076  IERC1155Receiver(to).onERC1155Received(operator, from, id, value, data) */\n      mload(0x40)\n      dup7\n      0xffffffff\n      and\n      0xe0\n      shl\n      dup2\n      mstore\n      0x04\n      add\n      tag_316\n      swap6\n      swap5\n      swap4\n      swap3\n      swap2\n      swap1\n      tag_317\n      jump\t// in\n    tag_316:\n      0x20\n      mload(0x40)\n      dup1\n      dup4\n      sub\n      dup2\n      0x00\n      dup8\n      gas\n      call\n      swap3\n      pop\n      pop\n      pop\n      dup1\n      iszero\n      tag_318\n      jumpi\n      pop\n      mload(0x40)\n      returndatasize\n      not(0x1f)\n      0x1f\n      dup3\n      add\n      and\n      dup3\n      add\n      dup1\n      0x40\n      mstore\n      pop\n      dup2\n      add\n      swap1\n      tag_319\n      swap2\n      swap1\n      tag_320\n      jump\t// in\n    tag_319:\n      0x01\n    tag_318:\n        /* \"@openzeppelin/contracts/token/ERC1155/ERC1155.sol\":14001:14719  try IERC1155Receiver(to).onERC1155Received(operator, from, id, value, data) returns (bytes4 response) {... */\n      tag_321\n      jumpi\n      returndatasize\n      dup1\n      0x00\n      dup2\n      eq\n      tag_326\n      jumpi\n      mload(0x40)\n      swap2\n      pop\n      and(add(returndatasize, 0x3f), not(0x1f))\n      dup3\n      add\n      0x40\n      mstore\n      returndatasize\n      dup3\n      mstore\n      returndatasize\n      0x00\n      0x20\n      dup5\n      add\n      returndatacopy\n      jump(tag_325)\n    tag_326:\n      0x60\n      swap2\n      pop\n    tag_325:\n      pop\n        /* \"@openzeppelin/contracts/token/ERC1155/ERC1155.sol\":14377:14378  0 */\n      0x00\n        /* \"@openzeppelin/contracts/token/ERC1155/ERC1155.sol\":14360:14366  reason */\n      dup2\n        /* \"@openzeppelin/contracts/token/ERC1155/ERC1155.sol\":14360:14373  reason.length */\n      mload\n        /* \"@openzeppelin/contracts/token/ERC1155/ERC1155.sol\":14360:14378  reason.length == 0 */\n      sub\n        /* \"@openzeppelin/contracts/token/ERC1155/ERC1155.sol\":14356:14705  if (reason.length == 0) {... */\n      tag_327\n      jumpi\n        /* \"@openzeppelin/contracts/token/ERC1155/ERC1155.sol\":14487:14489  to */\n      dup5\n        /* \"@openzeppelin/contracts/token/ERC1155/ERC1155.sol\":14464:14490  ERC1155InvalidReceiver(to) */\n      mload(0x40)\n      0x57f447ce00000000000000000000000000000000000000000000000000000000\n      dup2\n      mstore\n      0x04\n      add\n      tag_328\n      swap2\n      swap1\n      tag_80\n      jump\t// in\n    tag_328:\n      mload(0x40)\n      dup1\n      swap2\n      sub\n      swap1\n      revert\n        /* \"@openzeppelin/contracts/token/ERC1155/ERC1155.sol\":14356:14705  if (reason.length == 0) {... */\n    tag_327:\n        /* \"@openzeppelin/contracts/token/ERC1155/ERC1155.sol\":14657:14663  reason */\n      dup1\n        /* \"@openzeppelin/contracts/token/ERC1155/ERC1155.sol\":14651:14664  mload(reason) */\n      mload\n        /* \"@openzeppelin/contracts/token/ERC1155/ERC1155.sol\":14642:14648  reason */\n      dup2\n        /* \"@openzeppelin/contracts/token/ERC1155/ERC1155.sol\":14638:14640  32 */\n      0x20\n        /* \"@openzeppelin/contracts/token/ERC1155/ERC1155.sol\":14634:14649  add(32, reason) */\n      add\n        /* \"@openzeppelin/contracts/token/ERC1155/ERC1155.sol\":14627:14665  revert(add(32, reason), mload(reason)) */\n      revert\n        /* \"@openzeppelin/contracts/token/ERC1155/ERC1155.sol\":14001:14719  try IERC1155Receiver(to).onERC1155Received(operator, from, id, value, data) returns (bytes4 response) {... */\n    tag_321:\n        /* \"@openzeppelin/contracts/token/ERC1155/ERC1155.sol\":14137:14180  IERC1155Receiver.onERC1155Received.selector */\n      shl(0xe0, 0xf23a6e61)\n        /* \"@openzeppelin/contracts/token/ERC1155/ERC1155.sol\":14125:14180  response != IERC1155Receiver.onERC1155Received.selector */\n      not(0xffffffffffffffffffffffffffffffffffffffffffffffffffffffff)\n      and\n        /* \"@openzeppelin/contracts/token/ERC1155/ERC1155.sol\":14125:14133  response */\n      dup2\n        /* \"@openzeppelin/contracts/token/ERC1155/ERC1155.sol\":14125:14180  response != IERC1155Receiver.onERC1155Received.selector */\n      not(0xffffffffffffffffffffffffffffffffffffffffffffffffffffffff)\n      and\n      eq\n        /* \"@openzeppelin/contracts/token/ERC1155/ERC1155.sol\":14121:14295  if (response != IERC1155Receiver.onERC1155Received.selector) {... */\n      tag_331\n      jumpi\n        /* \"@openzeppelin/contracts/token/ERC1155/ERC1155.sol\":14273:14275  to */\n      dup5\n        /* \"@openzeppelin/contracts/token/ERC1155/ERC1155.sol\":14250:14276  ERC1155InvalidReceiver(to) */\n      mload(0x40)\n      0x57f447ce00000000000000000000000000000000000000000000000000000000\n      dup2\n      mstore\n      0x04\n      add\n      tag_332\n      swap2\n      swap1\n      tag_80\n      jump\t// in\n    tag_332:\n      mload(0x40)\n      dup1\n      swap2\n      sub\n      swap1\n      revert\n        /* \"@openzeppelin/contracts/token/ERC1155/ERC1155.sol\":14121:14295  if (response != IERC1155Receiver.onERC1155Received.selector) {... */\n    tag_331:\n        /* \"@openzeppelin/contracts/token/ERC1155/ERC1155.sol\":14077:14309  returns (bytes4 response) {... */\n      pop\n        /* \"@openzeppelin/contracts/token/ERC1155/ERC1155.sol\":13963:14729  if (to.code.length > 0) {... */\n    tag_315:\n        /* \"@openzeppelin/contracts/token/ERC1155/ERC1155.sol\":13761:14735  function _doSafeTransferAcceptanceCheck(... */\n      pop\n      pop\n      pop\n      pop\n      pop\n      pop\n      jump\t// out\n        /* \"@openzeppelin/contracts/token/ERC1155/ERC1155.sol\":14923:15964  function _doSafeBatchTransferAcceptanceCheck(... */\n    tag_291:\n        /* \"@openzeppelin/contracts/token/ERC1155/ERC1155.sol\":15171:15172  0 */\n      0x00\n        /* \"@openzeppelin/contracts/token/ERC1155/ERC1155.sol\":15154:15156  to */\n      dup5\n        /* \"@openzeppelin/contracts/token/ERC1155/ERC1155.sol\":15154:15168  to.code.length */\n      0xffffffffffffffffffffffffffffffffffffffff\n      and\n      extcodesize\n        /* \"@openzeppelin/contracts/token/ERC1155/ERC1155.sol\":15154:15172  to.code.length > 0 */\n      gt\n        /* \"@openzeppelin/contracts/token/ERC1155/ERC1155.sol\":15150:15958  if (to.code.length > 0) {... */\n      iszero\n      tag_334\n      jumpi\n        /* \"@openzeppelin/contracts/token/ERC1155/ERC1155.sol\":15209:15211  to */\n      dup4\n        /* \"@openzeppelin/contracts/token/ERC1155/ERC1155.sol\":15192:15235  IERC1155Receiver(to).onERC1155BatchReceived */\n      0xffffffffffffffffffffffffffffffffffffffff\n      and\n      0xbc197c81\n        /* \"@openzeppelin/contracts/token/ERC1155/ERC1155.sol\":15236:15244  operator */\n      dup8\n        /* \"@openzeppelin/contracts/token/ERC1155/ERC1155.sol\":15246:15250  from */\n      dup8\n        /* \"@openzeppelin/contracts/token/ERC1155/ERC1155.sol\":15252:15255  ids */\n      dup7\n        /* \"@openzeppelin/contracts/token/ERC1155/ERC1155.sol\":15257:15263  values */\n      dup7\n        /* \"@openzeppelin/contracts/token/ERC1155/ERC1155.sol\":15265:15269  data */\n      dup7\n        /* \"@openzeppelin/contracts/token/ERC1155/ERC1155.sol\":15192:15270  IERC1155Receiver(to).onERC1155BatchReceived(operator, from, ids, values, data) */\n      mload(0x40)\n      dup7\n      0xffffffff\n      and\n      0xe0\n      shl\n      dup2\n      mstore\n      0x04\n      add\n      tag_335\n      swap6\n      swap5\n      swap4\n      swap3\n      swap2\n      swap1\n      tag_336\n      jump\t// in\n    tag_335:\n      0x20\n      mload(0x40)\n      dup1\n      dup4\n      sub\n      dup2\n      0x00\n      dup8\n      gas\n      call\n      swap3\n      pop\n      pop\n      pop\n      dup1\n      iszero\n      tag_337\n      jumpi\n      pop\n      mload(0x40)\n      returndatasize\n      not(0x1f)\n      0x1f\n      dup3\n      add\n      and\n      dup3\n      add\n      dup1\n      0x40\n      mstore\n      pop\n      dup2\n      add\n      swap1\n      tag_338\n      swap2\n      swap1\n      tag_320\n      jump\t// in\n    tag_338:\n      0x01\n    tag_337:\n        /* \"@openzeppelin/contracts/token/ERC1155/ERC1155.sol\":15188:15948  try IERC1155Receiver(to).onERC1155BatchReceived(operator, from, ids, values, data) returns (... */\n      tag_339\n      jumpi\n      returndatasize\n      dup1\n      0x00\n      dup2\n      eq\n      tag_344\n      jumpi\n      mload(0x40)\n      swap2\n      pop\n      and(add(returndatasize, 0x3f), not(0x1f))\n      dup3\n      add\n      0x40\n      mstore\n      returndatasize\n      dup3\n      mstore\n      returndatasize\n      0x00\n      0x20\n      dup5\n      add\n      returndatacopy\n      jump(tag_343)\n    tag_344:\n      0x60\n      swap2\n      pop\n    tag_343:\n      pop\n        /* \"@openzeppelin/contracts/token/ERC1155/ERC1155.sol\":15606:15607  0 */\n      0x00\n        /* \"@openzeppelin/contracts/token/ERC1155/ERC1155.sol\":15589:15595  reason */\n      dup2\n        /* \"@openzeppelin/contracts/token/ERC1155/ERC1155.sol\":15589:15602  reason.length */\n      mload\n        /* \"@openzeppelin/contracts/token/ERC1155/ERC1155.sol\":15589:15607  reason.length == 0 */\n      sub\n        /* \"@openzeppelin/contracts/token/ERC1155/ERC1155.sol\":15585:15934  if (reason.length == 0) {... */\n      tag_345\n      jumpi\n        /* \"@openzeppelin/contracts/token/ERC1155/ERC1155.sol\":15716:15718  to */\n      dup5\n        /* \"@openzeppelin/contracts/token/ERC1155/ERC1155.sol\":15693:15719  ERC1155InvalidReceiver(to) */\n      mload(0x40)\n      0x57f447ce00000000000000000000000000000000000000000000000000000000\n      dup2\n      mstore\n      0x04\n      add\n      tag_346\n      swap2\n      swap1\n      tag_80\n      jump\t// in\n    tag_346:\n      mload(0x40)\n      dup1\n      swap2\n      sub\n      swap1\n      revert\n        /* \"@openzeppelin/contracts/token/ERC1155/ERC1155.sol\":15585:15934  if (reason.length == 0) {... */\n    tag_345:\n        /* \"@openzeppelin/contracts/token/ERC1155/ERC1155.sol\":15886:15892  reason */\n      dup1\n        /* \"@openzeppelin/contracts/token/ERC1155/ERC1155.sol\":15880:15893  mload(reason) */\n      mload\n        /* \"@openzeppelin/contracts/token/ERC1155/ERC1155.sol\":15871:15877  reason */\n      dup2\n        /* \"@openzeppelin/contracts/token/ERC1155/ERC1155.sol\":15867:15869  32 */\n      0x20\n        /* \"@openzeppelin/contracts/token/ERC1155/ERC1155.sol\":15863:15878  add(32, reason) */\n      add\n        /* \"@openzeppelin/contracts/token/ERC1155/ERC1155.sol\":15856:15894  revert(add(32, reason), mload(reason)) */\n      revert\n        /* \"@openzeppelin/contracts/token/ERC1155/ERC1155.sol\":15188:15948  try IERC1155Receiver(to).onERC1155BatchReceived(operator, from, ids, values, data) returns (... */\n    tag_339:\n        /* \"@openzeppelin/contracts/token/ERC1155/ERC1155.sol\":15361:15409  IERC1155Receiver.onERC1155BatchReceived.selector */\n      shl(0xe0, 0xbc197c81)\n        /* \"@openzeppelin/contracts/token/ERC1155/ERC1155.sol\":15349:15409  response != IERC1155Receiver.onERC1155BatchReceived.selector */\n      not(0xffffffffffffffffffffffffffffffffffffffffffffffffffffffff)\n      and\n        /* \"@openzeppelin/contracts/token/ERC1155/ERC1155.sol\":15349:15357  response */\n      dup2\n        /* \"@openzeppelin/contracts/token/ERC1155/ERC1155.sol\":15349:15409  response != IERC1155Receiver.onERC1155BatchReceived.selector */\n      not(0xffffffffffffffffffffffffffffffffffffffffffffffffffffffff)\n      and\n      eq\n        /* \"@openzeppelin/contracts/token/ERC1155/ERC1155.sol\":15345:15524  if (response != IERC1155Receiver.onERC1155BatchReceived.selector) {... */\n      tag_349\n      jumpi\n        /* \"@openzeppelin/contracts/token/ERC1155/ERC1155.sol\":15502:15504  to */\n      dup5\n        /* \"@openzeppelin/contracts/token/ERC1155/ERC1155.sol\":15479:15505  ERC1155InvalidReceiver(to) */\n      mload(0x40)\n      0x57f447ce00000000000000000000000000000000000000000000000000000000\n      dup2\n      mstore\n      0x04\n      add\n      tag_350\n      swap2\n      swap1\n      tag_80\n      jump\t// in\n    tag_350:\n      mload(0x40)\n      dup1\n      swap2\n      sub\n      swap1\n      revert\n        /* \"@openzeppelin/contracts/token/ERC1155/ERC1155.sol\":15345:15524  if (response != IERC1155Receiver.onERC1155BatchReceived.selector) {... */\n    tag_349:\n        /* \"@openzeppelin/contracts/token/ERC1155/ERC1155.sol\":15271:15538  returns (... */\n      pop\n        /* \"@openzeppelin/contracts/token/ERC1155/ERC1155.sol\":15150:15958  if (to.code.length > 0) {... */\n    tag_334:\n        /* \"@openzeppelin/contracts/token/ERC1155/ERC1155.sol\":14923:15964  function _doSafeBatchTransferAcceptanceCheck(... */\n      pop\n      pop\n      pop\n      pop\n      pop\n      pop\n      jump\t// out\n        /* \"#utility.yul\":7:82   */\n    tag_351:\n        /* \"#utility.yul\":40:46   */\n      0x00\n        /* \"#utility.yul\":73:75   */\n      0x40\n        /* \"#utility.yul\":67:76   */\n      mload\n        /* \"#utility.yul\":57:76   */\n      swap1\n      pop\n        /* \"#utility.yul\":7:82   */\n      swap1\n      jump\t// out\n        /* \"#utility.yul\":88:205   */\n    tag_352:\n        /* \"#utility.yul\":197:198   */\n      0x00\n        /* \"#utility.yul\":194:195   */\n      dup1\n        /* \"#utility.yul\":187:199   */\n      revert\n        /* \"#utility.yul\":211:328   */\n    tag_353:\n        /* \"#utility.yul\":320:321   */\n      0x00\n        /* \"#utility.yul\":317:318   */\n      dup1\n        /* \"#utility.yul\":310:322   */\n      revert\n        /* \"#utility.yul\":334:460   */\n    tag_354:\n        /* \"#utility.yul\":371:378   */\n      0x00\n        /* \"#utility.yul\":411:453   */\n      0xffffffffffffffffffffffffffffffffffffffff\n        /* \"#utility.yul\":404:409   */\n      dup3\n        /* \"#utility.yul\":400:454   */\n      and\n        /* \"#utility.yul\":389:454   */\n      swap1\n      pop\n        /* \"#utility.yul\":334:460   */\n      swap2\n      swap1\n      pop\n      jump\t// out\n        /* \"#utility.yul\":466:562   */\n    tag_355:\n        /* \"#utility.yul\":503:510   */\n      0x00\n        /* \"#utility.yul\":532:556   */\n      tag_417\n        /* \"#utility.yul\":550:555   */\n      dup3\n        /* \"#utility.yul\":532:556   */\n      tag_354\n      jump\t// in\n    tag_417:\n        /* \"#utility.yul\":521:556   */\n      swap1\n      pop\n        /* \"#utility.yul\":466:562   */\n      swap2\n      swap1\n      pop\n      jump\t// out\n        /* \"#utility.yul\":568:690   */\n    tag_356:\n        /* \"#utility.yul\":641:665   */\n      tag_419\n        /* \"#utility.yul\":659:664   */\n      dup2\n        /* \"#utility.yul\":641:665   */\n      tag_355\n      jump\t// in\n    tag_419:\n        /* \"#utility.yul\":634:639   */\n      dup2\n        /* \"#utility.yul\":631:666   */\n      eq\n        /* \"#utility.yul\":621:684   */\n      tag_420\n      jumpi\n        /* \"#utility.yul\":680:681   */\n      0x00\n        /* \"#utility.yul\":677:678   */\n      dup1\n        /* \"#utility.yul\":670:682   */\n      revert\n        /* \"#utility.yul\":621:684   */\n    tag_420:\n        /* \"#utility.yul\":568:690   */\n      pop\n      jump\t// out\n        /* \"#utility.yul\":696:835   */\n    tag_357:\n        /* \"#utility.yul\":742:747   */\n      0x00\n        /* \"#utility.yul\":780:786   */\n      dup2\n        /* \"#utility.yul\":767:787   */\n      calldataload\n        /* \"#utility.yul\":758:787   */\n      swap1\n      pop\n        /* \"#utility.yul\":796:829   */\n      tag_422\n        /* \"#utility.yul\":823:828   */\n      dup2\n        /* \"#utility.yul\":796:829   */\n      tag_356\n      jump\t// in\n    tag_422:\n        /* \"#utility.yul\":696:835   */\n      swap3\n      swap2\n      pop\n      pop\n      jump\t// out\n        /* \"#utility.yul\":841:918   */\n    tag_358:\n        /* \"#utility.yul\":878:885   */\n      0x00\n        /* \"#utility.yul\":907:912   */\n      dup2\n        /* \"#utility.yul\":896:912   */\n      swap1\n      pop\n        /* \"#utility.yul\":841:918   */\n      swap2\n      swap1\n      pop\n      jump\t// out\n        /* \"#utility.yul\":924:1046   */\n    tag_359:\n        /* \"#utility.yul\":997:1021   */\n      tag_425\n        /* \"#utility.yul\":1015:1020   */\n      dup2\n        /* \"#utility.yul\":997:1021   */\n      tag_358\n      jump\t// in\n    tag_425:\n        /* \"#utility.yul\":990:995   */\n      dup2\n        /* \"#utility.yul\":987:1022   */\n      eq\n        /* \"#utility.yul\":977:1040   */\n      tag_426\n      jumpi\n        /* \"#utility.yul\":1036:1037   */\n      0x00\n        /* \"#utility.yul\":1033:1034   */\n      dup1\n        /* \"#utility.yul\":1026:1038   */\n      revert\n        /* \"#utility.yul\":977:1040   */\n    tag_426:\n        /* \"#utility.yul\":924:1046   */\n      pop\n      jump\t// out\n        /* \"#utility.yul\":1052:1191   */\n    tag_360:\n        /* \"#utility.yul\":1098:1103   */\n      0x00\n        /* \"#utility.yul\":1136:1142   */\n      dup2\n        /* \"#utility.yul\":1123:1143   */\n      calldataload\n        /* \"#utility.yul\":1114:1143   */\n      swap1\n      pop\n        /* \"#utility.yul\":1152:1185   */\n      tag_428\n        /* \"#utility.yul\":1179:1184   */\n      dup2\n        /* \"#utility.yul\":1152:1185   */\n      tag_359\n      jump\t// in\n    tag_428:\n        /* \"#utility.yul\":1052:1191   */\n      swap3\n      swap2\n      pop\n      pop\n      jump\t// out\n        /* \"#utility.yul\":1197:1671   */\n    tag_29:\n        /* \"#utility.yul\":1265:1271   */\n      0x00\n        /* \"#utility.yul\":1273:1279   */\n      dup1\n        /* \"#utility.yul\":1322:1324   */\n      0x40\n        /* \"#utility.yul\":1310:1319   */\n      dup4\n        /* \"#utility.yul\":1301:1308   */\n      dup6\n        /* \"#utility.yul\":1297:1320   */\n      sub\n        /* \"#utility.yul\":1293:1325   */\n      slt\n        /* \"#utility.yul\":1290:1409   */\n      iszero\n      tag_430\n      jumpi\n        /* \"#utility.yul\":1328:1407   */\n      tag_431\n      tag_352\n      jump\t// in\n    tag_431:\n        /* \"#utility.yul\":1290:1409   */\n    tag_430:\n        /* \"#utility.yul\":1448:1449   */\n      0x00\n        /* \"#utility.yul\":1473:1526   */\n      tag_432\n        /* \"#utility.yul\":1518:1525   */\n      dup6\n        /* \"#utility.yul\":1509:1515   */\n      dup3\n        /* \"#utility.yul\":1498:1507   */\n      dup7\n        /* \"#utility.yul\":1494:1516   */\n      add\n        /* \"#utility.yul\":1473:1526   */\n      tag_357\n      jump\t// in\n    tag_432:\n        /* \"#utility.yul\":1463:1526   */\n      swap3\n      pop\n        /* \"#utility.yul\":1419:1536   */\n      pop\n        /* \"#utility.yul\":1575:1577   */\n      0x20\n        /* \"#utility.yul\":1601:1654   */\n      tag_433\n        /* \"#utility.yul\":1646:1653   */\n      dup6\n        /* \"#utility.yul\":1637:1643   */\n      dup3\n        /* \"#utility.yul\":1626:1635   */\n      dup7\n        /* \"#utility.yul\":1622:1644   */\n      add\n        /* \"#utility.yul\":1601:1654   */\n      tag_360\n      jump\t// in\n    tag_433:\n        /* \"#utility.yul\":1591:1654   */\n      swap2\n      pop\n        /* \"#utility.yul\":1546:1664   */\n      pop\n        /* \"#utility.yul\":1197:1671   */\n      swap3\n      pop\n      swap3\n      swap1\n      pop\n      jump\t// out\n        /* \"#utility.yul\":1677:1795   */\n    tag_361:\n        /* \"#utility.yul\":1764:1788   */\n      tag_435\n        /* \"#utility.yul\":1782:1787   */\n      dup2\n        /* \"#utility.yul\":1764:1788   */\n      tag_358\n      jump\t// in\n    tag_435:\n        /* \"#utility.yul\":1759:1762   */\n      dup3\n        /* \"#utility.yul\":1752:1789   */\n      mstore\n        /* \"#utility.yul\":1677:1795   */\n      pop\n      pop\n      jump\t// out\n        /* \"#utility.yul\":1801:2023   */\n    tag_32:\n        /* \"#utility.yul\":1894:1898   */\n      0x00\n        /* \"#utility.yul\":1932:1934   */\n      0x20\n        /* \"#utility.yul\":1921:1930   */\n      dup3\n        /* \"#utility.yul\":1917:1935   */\n      add\n        /* \"#utility.yul\":1909:1935   */\n      swap1\n      pop\n        /* \"#utility.yul\":1945:2016   */\n      tag_437\n        /* \"#utility.yul\":2013:2014   */\n      0x00\n        /* \"#utility.yul\":2002:2011   */\n      dup4\n        /* \"#utility.yul\":1998:2015   */\n      add\n        /* \"#utility.yul\":1989:1995   */\n      dup5\n        /* \"#utility.yul\":1945:2016   */\n      tag_361\n      jump\t// in\n    tag_437:\n        /* \"#utility.yul\":1801:2023   */\n      swap3\n      swap2\n      pop\n      pop\n      jump\t// out\n        /* \"#utility.yul\":2029:2178   */\n    tag_362:\n        /* \"#utility.yul\":2065:2072   */\n      0x00\n        /* \"#utility.yul\":2105:2171   */\n      0xffffffff00000000000000000000000000000000000000000000000000000000\n        /* \"#utility.yul\":2098:2103   */\n      dup3\n        /* \"#utility.yul\":2094:2172   */\n      and\n        /* \"#utility.yul\":2083:2172   */\n      swap1\n      pop\n        /* \"#utility.yul\":2029:2178   */\n      swap2\n      swap1\n      pop\n      jump\t// out\n        /* \"#utility.yul\":2184:2304   */\n    tag_363:\n        /* \"#utility.yul\":2256:2279   */\n      tag_440\n        /* \"#utility.yul\":2273:2278   */\n      dup2\n        /* \"#utility.yul\":2256:2279   */\n      tag_362\n      jump\t// in\n    tag_440:\n        /* \"#utility.yul\":2249:2254   */\n      dup2\n        /* \"#utility.yul\":2246:2280   */\n      eq\n        /* \"#utility.yul\":2236:2298   */\n      tag_441\n      jumpi\n        /* \"#utility.yul\":2294:2295   */\n      0x00\n        /* \"#utility.yul\":2291:2292   */\n      dup1\n        /* \"#utility.yul\":2284:2296   */\n      revert\n        /* \"#utility.yul\":2236:2298   */\n    tag_441:\n        /* \"#utility.yul\":2184:2304   */\n      pop\n      jump\t// out\n        /* \"#utility.yul\":2310:2447   */\n    tag_364:\n        /* \"#utility.yul\":2355:2360   */\n      0x00\n        /* \"#utility.yul\":2393:2399   */\n      dup2\n        /* \"#utility.yul\":2380:2400   */\n      calldataload\n        /* \"#utility.yul\":2371:2400   */\n      swap1\n      pop\n        /* \"#utility.yul\":2409:2441   */\n      tag_443\n        /* \"#utility.yul\":2435:2440   */\n      dup2\n        /* \"#utility.yul\":2409:2441   */\n      tag_363\n      jump\t// in\n    tag_443:\n        /* \"#utility.yul\":2310:2447   */\n      swap3\n      swap2\n      pop\n      pop\n      jump\t// out\n        /* \"#utility.yul\":2453:2780   */\n    tag_35:\n        /* \"#utility.yul\":2511:2517   */\n      0x00\n        /* \"#utility.yul\":2560:2562   */\n      0x20\n        /* \"#utility.yul\":2548:2557   */\n      dup3\n        /* \"#utility.yul\":2539:2546   */\n      dup5\n        /* \"#utility.yul\":2535:2558   */\n      sub\n        /* \"#utility.yul\":2531:2563   */\n      slt\n        /* \"#utility.yul\":2528:2647   */\n      iszero\n      tag_445\n      jumpi\n        /* \"#utility.yul\":2566:2645   */\n      tag_446\n      tag_352\n      jump\t// in\n    tag_446:\n        /* \"#utility.yul\":2528:2647   */\n    tag_445:\n        /* \"#utility.yul\":2686:2687   */\n      0x00\n        /* \"#utility.yul\":2711:2763   */\n      tag_447\n        /* \"#utility.yul\":2755:2762   */\n      dup5\n        /* \"#utility.yul\":2746:2752   */\n      dup3\n        /* \"#utility.yul\":2735:2744   */\n      dup6\n        /* \"#utility.yul\":2731:2753   */\n      add\n        /* \"#utility.yul\":2711:2763   */\n      tag_364\n      jump\t// in\n    tag_447:\n        /* \"#utility.yul\":2701:2763   */\n      swap2\n      pop\n        /* \"#utility.yul\":2657:2773   */\n      pop\n        /* \"#utility.yul\":2453:2780   */\n      swap3\n      swap2\n      pop\n      pop\n      jump\t// out\n        /* \"#utility.yul\":2786:2876   */\n    tag_365:\n        /* \"#utility.yul\":2820:2827   */\n      0x00\n        /* \"#utility.yul\":2863:2868   */\n      dup2\n        /* \"#utility.yul\":2856:2869   */\n      iszero\n        /* \"#utility.yul\":2849:2870   */\n      iszero\n        /* \"#utility.yul\":2838:2870   */\n      swap1\n      pop\n        /* \"#utility.yul\":2786:2876   */\n      swap2\n      swap1\n      pop\n      jump\t// out\n        /* \"#utility.yul\":2882:2991   */\n    tag_366:\n        /* \"#utility.yul\":2963:2984   */\n      tag_450\n        /* \"#utility.yul\":2978:2983   */\n      dup2\n        /* \"#utility.yul\":2963:2984   */\n      tag_365\n      jump\t// in\n    tag_450:\n        /* \"#utility.yul\":2958:2961   */\n      dup3\n        /* \"#utility.yul\":2951:2985   */\n      mstore\n        /* \"#utility.yul\":2882:2991   */\n      pop\n      pop\n      jump\t// out\n        /* \"#utility.yul\":2997:3207   */\n    tag_38:\n        /* \"#utility.yul\":3084:3088   */\n      0x00\n        /* \"#utility.yul\":3122:3124   */\n      0x20\n        /* \"#utility.yul\":3111:3120   */\n      dup3\n        /* \"#utility.yul\":3107:3125   */\n      add\n        /* \"#utility.yul\":3099:3125   */\n      swap1\n      pop\n        /* \"#utility.yul\":3135:3200   */\n      tag_452\n        /* \"#utility.yul\":3197:3198   */\n      0x00\n        /* \"#utility.yul\":3186:3195   */\n      dup4\n        /* \"#utility.yul\":3182:3199   */\n      add\n        /* \"#utility.yul\":3173:3179   */\n      dup5\n        /* \"#utility.yul\":3135:3200   */\n      tag_366\n      jump\t// in\n    tag_452:\n        /* \"#utility.yul\":2997:3207   */\n      swap3\n      swap2\n      pop\n      pop\n      jump\t// out\n        /* \"#utility.yul\":3213:3542   */\n    tag_48:\n        /* \"#utility.yul\":3272:3278   */\n      0x00\n        /* \"#utility.yul\":3321:3323   */\n      0x20\n        /* \"#utility.yul\":3309:3318   */\n      dup3\n        /* \"#utility.yul\":3300:3307   */\n      dup5\n        /* \"#utility.yul\":3296:3319   */\n      sub\n        /* \"#utility.yul\":3292:3324   */\n      slt\n        /* \"#utility.yul\":3289:3408   */\n      iszero\n      tag_454\n      jumpi\n        /* \"#utility.yul\":3327:3406   */\n      tag_455\n      tag_352\n      jump\t// in\n    tag_455:\n        /* \"#utility.yul\":3289:3408   */\n    tag_454:\n        /* \"#utility.yul\":3447:3448   */\n      0x00\n        /* \"#utility.yul\":3472:3525   */\n      tag_456\n        /* \"#utility.yul\":3517:3524   */\n      dup5\n        /* \"#utility.yul\":3508:3514   */\n      dup3\n        /* \"#utility.yul\":3497:3506   */\n      dup6\n        /* \"#utility.yul\":3493:3515   */\n      add\n        /* \"#utility.yul\":3472:3525   */\n      tag_360\n      jump\t// in\n    tag_456:\n        /* \"#utility.yul\":3462:3525   */\n      swap2\n      pop\n        /* \"#utility.yul\":3418:3535   */\n      pop\n        /* \"#utility.yul\":3213:3542   */\n      swap3\n      swap2\n      pop\n      pop\n      jump\t// out\n        /* \"#utility.yul\":3548:3647   */\n    tag_367:\n        /* \"#utility.yul\":3600:3606   */\n      0x00\n        /* \"#utility.yul\":3634:3639   */\n      dup2\n        /* \"#utility.yul\":3628:3640   */\n      mload\n        /* \"#utility.yul\":3618:3640   */\n      swap1\n      pop\n        /* \"#utility.yul\":3548:3647   */\n      swap2\n      swap1\n      pop\n      jump\t// out\n        /* \"#utility.yul\":3653:3822   */\n    tag_368:\n        /* \"#utility.yul\":3737:3748   */\n      0x00\n        /* \"#utility.yul\":3771:3777   */\n      dup3\n        /* \"#utility.yul\":3766:3769   */\n      dup3\n        /* \"#utility.yul\":3759:3778   */\n      mstore\n        /* \"#utility.yul\":3811:3815   */\n      0x20\n        /* \"#utility.yul\":3806:3809   */\n      dup3\n        /* \"#utility.yul\":3802:3816   */\n      add\n        /* \"#utility.yul\":3787:3816   */\n      swap1\n      pop\n        /* \"#utility.yul\":3653:3822   */\n      swap3\n      swap2\n      pop\n      pop\n      jump\t// out\n        /* \"#utility.yul\":3828:4074   */\n    tag_369:\n        /* \"#utility.yul\":3909:3910   */\n      0x00\n        /* \"#utility.yul\":3919:4032   */\n    tag_460:\n        /* \"#utility.yul\":3933:3939   */\n      dup4\n        /* \"#utility.yul\":3930:3931   */\n      dup2\n        /* \"#utility.yul\":3927:3940   */\n      lt\n        /* \"#utility.yul\":3919:4032   */\n      iszero\n      tag_462\n      jumpi\n        /* \"#utility.yul\":4018:4019   */\n      dup1\n        /* \"#utility.yul\":4013:4016   */\n      dup3\n        /* \"#utility.yul\":4009:4020   */\n      add\n        /* \"#utility.yul\":4003:4021   */\n      mload\n        /* \"#utility.yul\":3999:4000   */\n      dup2\n        /* \"#utility.yul\":3994:3997   */\n      dup5\n        /* \"#utility.yul\":3990:4001   */\n      add\n        /* \"#utility.yul\":3983:4022   */\n      mstore\n        /* \"#utility.yul\":3955:3957   */\n      0x20\n        /* \"#utility.yul\":3952:3953   */\n      dup2\n        /* \"#utility.yul\":3948:3958   */\n      add\n        /* \"#utility.yul\":3943:3958   */\n      swap1\n      pop\n        /* \"#utility.yul\":3919:4032   */\n      jump(tag_460)\n    tag_462:\n        /* \"#utility.yul\":4066:4067   */\n      0x00\n        /* \"#utility.yul\":4057:4063   */\n      dup5\n        /* \"#utility.yul\":4052:4055   */\n      dup5\n        /* \"#utility.yul\":4048:4064   */\n      add\n        /* \"#utility.yul\":4041:4068   */\n      mstore\n        /* \"#utility.yul\":3890:4074   */\n      pop\n        /* \"#utility.yul\":3828:4074   */\n      pop\n      pop\n      pop\n      jump\t// out\n        /* \"#utility.yul\":4080:4182   */\n    tag_370:\n        /* \"#utility.yul\":4121:4127   */\n      0x00\n        /* \"#utility.yul\":4172:4174   */\n      0x1f\n        /* \"#utility.yul\":4168:4175   */\n      not\n        /* \"#utility.yul\":4163:4165   */\n      0x1f\n        /* \"#utility.yul\":4156:4161   */\n      dup4\n        /* \"#utility.yul\":4152:4166   */\n      add\n        /* \"#utility.yul\":4148:4176   */\n      and\n        /* \"#utility.yul\":4138:4176   */\n      swap1\n      pop\n        /* \"#utility.yul\":4080:4182   */\n      swap2\n      swap1\n      pop\n      jump\t// out\n        /* \"#utility.yul\":4188:4565   */\n    tag_371:\n        /* \"#utility.yul\":4276:4279   */\n      0x00\n        /* \"#utility.yul\":4304:4343   */\n      tag_465\n        /* \"#utility.yul\":4337:4342   */\n      dup3\n        /* \"#utility.yul\":4304:4343   */\n      tag_367\n      jump\t// in\n    tag_465:\n        /* \"#utility.yul\":4359:4430   */\n      tag_466\n        /* \"#utility.yul\":4423:4429   */\n      dup2\n        /* \"#utility.yul\":4418:4421   */\n      dup6\n        /* \"#utility.yul\":4359:4430   */\n      tag_368\n      jump\t// in\n    tag_466:\n        /* \"#utility.yul\":4352:4430   */\n      swap4\n      pop\n        /* \"#utility.yul\":4439:4504   */\n      tag_467\n        /* \"#utility.yul\":4497:4503   */\n      dup2\n        /* \"#utility.yul\":4492:4495   */\n      dup6\n        /* \"#utility.yul\":4485:4489   */\n      0x20\n        /* \"#utility.yul\":4478:4483   */\n      dup7\n        /* \"#utility.yul\":4474:4490   */\n      add\n        /* \"#utility.yul\":4439:4504   */\n      tag_369\n      jump\t// in\n    tag_467:\n        /* \"#utility.yul\":4529:4558   */\n      tag_468\n        /* \"#utility.yul\":4551:4557   */\n      dup2\n        /* \"#utility.yul\":4529:4558   */\n      tag_370\n      jump\t// in\n    tag_468:\n        /* \"#utility.yul\":4524:4527   */\n      dup5\n        /* \"#utility.yul\":4520:4559   */\n      add\n        /* \"#utility.yul\":4513:4559   */\n      swap2\n      pop\n        /* \"#utility.yul\":4280:4565   */\n      pop\n        /* \"#utility.yul\":4188:4565   */\n      swap3\n      swap2\n      pop\n      pop\n      jump\t// out\n        /* \"#utility.yul\":4571:4884   */\n    tag_51:\n        /* \"#utility.yul\":4684:4688   */\n      0x00\n        /* \"#utility.yul\":4722:4724   */\n      0x20\n        /* \"#utility.yul\":4711:4720   */\n      dup3\n        /* \"#utility.yul\":4707:4725   */\n      add\n        /* \"#utility.yul\":4699:4725   */\n      swap1\n      pop\n        /* \"#utility.yul\":4771:4780   */\n      dup2\n        /* \"#utility.yul\":4765:4769   */\n      dup2\n        /* \"#utility.yul\":4761:4781   */\n      sub\n        /* \"#utility.yul\":4757:4758   */\n      0x00\n        /* \"#utility.yul\":4746:4755   */\n      dup4\n        /* \"#utility.yul\":4742:4759   */\n      add\n        /* \"#utility.yul\":4735:4782   */\n      mstore\n        /* \"#utility.yul\":4799:4877   */\n      tag_470\n        /* \"#utility.yul\":4872:4876   */\n      dup2\n        /* \"#utility.yul\":4863:4869   */\n      dup5\n        /* \"#utility.yul\":4799:4877   */\n      tag_371\n      jump\t// in\n    tag_470:\n        /* \"#utility.yul\":4791:4877   */\n      swap1\n      pop\n        /* \"#utility.yul\":4571:4884   */\n      swap3\n      swap2\n      pop\n      pop\n      jump\t// out\n        /* \"#utility.yul\":4890:5364   */\n    tag_54:\n        /* \"#utility.yul\":4958:4964   */\n      0x00\n        /* \"#utility.yul\":4966:4972   */\n      dup1\n        /* \"#utility.yul\":5015:5017   */\n      0x40\n        /* \"#utility.yul\":5003:5012   */\n      dup4\n        /* \"#utility.yul\":4994:5001   */\n      dup6\n        /* \"#utility.yul\":4990:5013   */\n      sub\n        /* \"#utility.yul\":4986:5018   */\n      slt\n        /* \"#utility.yul\":4983:5102   */\n      iszero\n      tag_472\n      jumpi\n        /* \"#utility.yul\":5021:5100   */\n      tag_473\n      tag_352\n      jump\t// in\n    tag_473:\n        /* \"#utility.yul\":4983:5102   */\n    tag_472:\n        /* \"#utility.yul\":5141:5142   */\n      0x00\n        /* \"#utility.yul\":5166:5219   */\n      tag_474\n        /* \"#utility.yul\":5211:5218   */\n      dup6\n        /* \"#utility.yul\":5202:5208   */\n      dup3\n        /* \"#utility.yul\":5191:5200   */\n      dup7\n        /* \"#utility.yul\":5187:5209   */\n      add\n        /* \"#utility.yul\":5166:5219   */\n      tag_360\n      jump\t// in\n    tag_474:\n        /* \"#utility.yul\":5156:5219   */\n      swap3\n      pop\n        /* \"#utility.yul\":5112:5229   */\n      pop\n        /* \"#utility.yul\":5268:5270   */\n      0x20\n        /* \"#utility.yul\":5294:5347   */\n      tag_475\n        /* \"#utility.yul\":5339:5346   */\n      dup6\n        /* \"#utility.yul\":5330:5336   */\n      dup3\n        /* \"#utility.yul\":5319:5328   */\n      dup7\n        /* \"#utility.yul\":5315:5337   */\n      add\n        /* \"#utility.yul\":5294:5347   */\n      tag_360\n      jump\t// in\n    tag_475:\n        /* \"#utility.yul\":5284:5347   */\n      swap2\n      pop\n        /* \"#utility.yul\":5239:5357   */\n      pop\n        /* \"#utility.yul\":4890:5364   */\n      swap3\n      pop\n      swap3\n      swap1\n      pop\n      jump\t// out\n        /* \"#utility.yul\":5370:5487   */\n    tag_372:\n        /* \"#utility.yul\":5479:5480   */\n      0x00\n        /* \"#utility.yul\":5476:5477   */\n      dup1\n        /* \"#utility.yul\":5469:5481   */\n      revert\n        /* \"#utility.yul\":5493:5673   */\n    tag_152:\n        /* \"#utility.yul\":5541:5618   */\n      0x4e487b7100000000000000000000000000000000000000000000000000000000\n        /* \"#utility.yul\":5538:5539   */\n      0x00\n        /* \"#utility.yul\":5531:5619   */\n      mstore\n        /* \"#utility.yul\":5638:5642   */\n      0x41\n        /* \"#utility.yul\":5635:5636   */\n      0x04\n        /* \"#utility.yul\":5628:5643   */\n      mstore\n        /* \"#utility.yul\":5662:5666   */\n      0x24\n        /* \"#utility.yul\":5659:5660   */\n      0x00\n        /* \"#utility.yul\":5652:5667   */\n      revert\n        /* \"#utility.yul\":5679:5960   */\n    tag_373:\n        /* \"#utility.yul\":5762:5789   */\n      tag_479\n        /* \"#utility.yul\":5784:5788   */\n      dup3\n        /* \"#utility.yul\":5762:5789   */\n      tag_370\n      jump\t// in\n    tag_479:\n        /* \"#utility.yul\":5754:5760   */\n      dup2\n        /* \"#utility.yul\":5750:5790   */\n      add\n        /* \"#utility.yul\":5892:5898   */\n      dup2\n        /* \"#utility.yul\":5880:5890   */\n      dup2\n        /* \"#utility.yul\":5877:5899   */\n      lt\n        /* \"#utility.yul\":5856:5874   */\n      0xffffffffffffffff\n        /* \"#utility.yul\":5844:5854   */\n      dup3\n        /* \"#utility.yul\":5841:5875   */\n      gt\n        /* \"#utility.yul\":5838:5900   */\n      or\n        /* \"#utility.yul\":5835:5923   */\n      iszero\n      tag_480\n      jumpi\n        /* \"#utility.yul\":5903:5921   */\n      tag_481\n      tag_152\n      jump\t// in\n    tag_481:\n        /* \"#utility.yul\":5835:5923   */\n    tag_480:\n        /* \"#utility.yul\":5943:5953   */\n      dup1\n        /* \"#utility.yul\":5939:5941   */\n      0x40\n        /* \"#utility.yul\":5932:5954   */\n      mstore\n        /* \"#utility.yul\":5722:5960   */\n      pop\n        /* \"#utility.yul\":5679:5960   */\n      pop\n      pop\n      jump\t// out\n        /* \"#utility.yul\":5966:6095   */\n    tag_374:\n        /* \"#utility.yul\":6000:6006   */\n      0x00\n        /* \"#utility.yul\":6027:6047   */\n      tag_483\n      tag_351\n      jump\t// in\n    tag_483:\n        /* \"#utility.yul\":6017:6047   */\n      swap1\n      pop\n        /* \"#utility.yul\":6056:6089   */\n      tag_484\n        /* \"#utility.yul\":6084:6088   */\n      dup3\n        /* \"#utility.yul\":6076:6082   */\n      dup3\n        /* \"#utility.yul\":6056:6089   */\n      tag_373\n      jump\t// in\n    tag_484:\n        /* \"#utility.yul\":5966:6095   */\n      swap2\n      swap1\n      pop\n      jump\t// out\n        /* \"#utility.yul\":6101:6412   */\n    tag_375:\n        /* \"#utility.yul\":6178:6182   */\n      0x00\n        /* \"#utility.yul\":6268:6286   */\n      0xffffffffffffffff\n        /* \"#utility.yul\":6260:6266   */\n      dup3\n        /* \"#utility.yul\":6257:6287   */\n      gt\n        /* \"#utility.yul\":6254:6310   */\n      iszero\n      tag_486\n      jumpi\n        /* \"#utility.yul\":6290:6308   */\n      tag_487\n      tag_152\n      jump\t// in\n    tag_487:\n        /* \"#utility.yul\":6254:6310   */\n    tag_486:\n        /* \"#utility.yul\":6340:6344   */\n      0x20\n        /* \"#utility.yul\":6332:6338   */\n      dup3\n        /* \"#utility.yul\":6328:6345   */\n      mul\n        /* \"#utility.yul\":6320:6345   */\n      swap1\n      pop\n        /* \"#utility.yul\":6400:6404   */\n      0x20\n        /* \"#utility.yul\":6394:6398   */\n      dup2\n        /* \"#utility.yul\":6390:6405   */\n      add\n        /* \"#utility.yul\":6382:6405   */\n      swap1\n      pop\n        /* \"#utility.yul\":6101:6412   */\n      swap2\n      swap1\n      pop\n      jump\t// out\n        /* \"#utility.yul\":6418:6535   */\n    tag_376:\n        /* \"#utility.yul\":6527:6528   */\n      0x00\n        /* \"#utility.yul\":6524:6525   */\n      dup1\n        /* \"#utility.yul\":6517:6529   */\n      revert\n        /* \"#utility.yul\":6558:7268   */\n    tag_377:\n        /* \"#utility.yul\":6654:6659   */\n      0x00\n        /* \"#utility.yul\":6679:6760   */\n      tag_490\n        /* \"#utility.yul\":6695:6759   */\n      tag_491\n        /* \"#utility.yul\":6752:6758   */\n      dup5\n        /* \"#utility.yul\":6695:6759   */\n      tag_375\n      jump\t// in\n    tag_491:\n        /* \"#utility.yul\":6679:6760   */\n      tag_374\n      jump\t// in\n    tag_490:\n        /* \"#utility.yul\":6670:6760   */\n      swap1\n      pop\n        /* \"#utility.yul\":6780:6785   */\n      dup1\n        /* \"#utility.yul\":6809:6815   */\n      dup4\n        /* \"#utility.yul\":6802:6807   */\n      dup3\n        /* \"#utility.yul\":6795:6816   */\n      mstore\n        /* \"#utility.yul\":6843:6847   */\n      0x20\n        /* \"#utility.yul\":6836:6841   */\n      dup3\n        /* \"#utility.yul\":6832:6848   */\n      add\n        /* \"#utility.yul\":6825:6848   */\n      swap1\n      pop\n        /* \"#utility.yul\":6896:6900   */\n      0x20\n        /* \"#utility.yul\":6888:6894   */\n      dup5\n        /* \"#utility.yul\":6884:6901   */\n      mul\n        /* \"#utility.yul\":6876:6882   */\n      dup4\n        /* \"#utility.yul\":6872:6902   */\n      add\n        /* \"#utility.yul\":6925:6928   */\n      dup6\n        /* \"#utility.yul\":6917:6923   */\n      dup2\n        /* \"#utility.yul\":6914:6929   */\n      gt\n        /* \"#utility.yul\":6911:7033   */\n      iszero\n      tag_492\n      jumpi\n        /* \"#utility.yul\":6944:7023   */\n      tag_493\n      tag_376\n      jump\t// in\n    tag_493:\n        /* \"#utility.yul\":6911:7033   */\n    tag_492:\n        /* \"#utility.yul\":7059:7065   */\n      dup4\n        /* \"#utility.yul\":7042:7262   */\n    tag_494:\n        /* \"#utility.yul\":7076:7082   */\n      dup2\n        /* \"#utility.yul\":7071:7074   */\n      dup2\n        /* \"#utility.yul\":7068:7083   */\n      lt\n        /* \"#utility.yul\":7042:7262   */\n      iszero\n      tag_496\n      jumpi\n        /* \"#utility.yul\":7151:7154   */\n      dup1\n        /* \"#utility.yul\":7180:7217   */\n      tag_497\n        /* \"#utility.yul\":7213:7216   */\n      dup9\n        /* \"#utility.yul\":7201:7211   */\n      dup3\n        /* \"#utility.yul\":7180:7217   */\n      tag_360\n      jump\t// in\n    tag_497:\n        /* \"#utility.yul\":7175:7178   */\n      dup5\n        /* \"#utility.yul\":7168:7218   */\n      mstore\n        /* \"#utility.yul\":7247:7251   */\n      0x20\n        /* \"#utility.yul\":7242:7245   */\n      dup5\n        /* \"#utility.yul\":7238:7252   */\n      add\n        /* \"#utility.yul\":7231:7252   */\n      swap4\n      pop\n        /* \"#utility.yul\":7118:7262   */\n      pop\n        /* \"#utility.yul\":7102:7106   */\n      0x20\n        /* \"#utility.yul\":7097:7100   */\n      dup2\n        /* \"#utility.yul\":7093:7107   */\n      add\n        /* \"#utility.yul\":7086:7107   */\n      swap1\n      pop\n        /* \"#utility.yul\":7042:7262   */\n      jump(tag_494)\n    tag_496:\n        /* \"#utility.yul\":7046:7067   */\n      pop\n        /* \"#utility.yul\":6660:7268   */\n      pop\n      pop\n        /* \"#utility.yul\":6558:7268   */\n      swap4\n      swap3\n      pop\n      pop\n      pop\n      jump\t// out\n        /* \"#utility.yul\":7291:7661   */\n    tag_378:\n        /* \"#utility.yul\":7362:7367   */\n      0x00\n        /* \"#utility.yul\":7411:7414   */\n      dup3\n        /* \"#utility.yul\":7404:7408   */\n      0x1f\n        /* \"#utility.yul\":7396:7402   */\n      dup4\n        /* \"#utility.yul\":7392:7409   */\n      add\n        /* \"#utility.yul\":7388:7415   */\n      slt\n        /* \"#utility.yul\":7378:7500   */\n      tag_499\n      jumpi\n        /* \"#utility.yul\":7419:7498   */\n      tag_500\n      tag_372\n      jump\t// in\n    tag_500:\n        /* \"#utility.yul\":7378:7500   */\n    tag_499:\n        /* \"#utility.yul\":7536:7542   */\n      dup2\n        /* \"#utility.yul\":7523:7543   */\n      calldataload\n        /* \"#utility.yul\":7561:7655   */\n      tag_501\n        /* \"#utility.yul\":7651:7654   */\n      dup5\n        /* \"#utility.yul\":7643:7649   */\n      dup3\n        /* \"#utility.yul\":7636:7640   */\n      0x20\n        /* \"#utility.yul\":7628:7634   */\n      dup7\n        /* \"#utility.yul\":7624:7641   */\n      add\n        /* \"#utility.yul\":7561:7655   */\n      tag_377\n      jump\t// in\n    tag_501:\n        /* \"#utility.yul\":7552:7655   */\n      swap2\n      pop\n        /* \"#utility.yul\":7368:7661   */\n      pop\n        /* \"#utility.yul\":7291:7661   */\n      swap3\n      swap2\n      pop\n      pop\n      jump\t// out\n        /* \"#utility.yul\":7667:7784   */\n    tag_379:\n        /* \"#utility.yul\":7776:7777   */\n      0x00\n        /* \"#utility.yul\":7773:7774   */\n      dup1\n        /* \"#utility.yul\":7766:7778   */\n      revert\n        /* \"#utility.yul\":7790:8097   */\n    tag_380:\n        /* \"#utility.yul\":7851:7855   */\n      0x00\n        /* \"#utility.yul\":7941:7959   */\n      0xffffffffffffffff\n        /* \"#utility.yul\":7933:7939   */\n      dup3\n        /* \"#utility.yul\":7930:7960   */\n      gt\n        /* \"#utility.yul\":7927:7983   */\n      iszero\n      tag_504\n      jumpi\n        /* \"#utility.yul\":7963:7981   */\n      tag_505\n      tag_152\n      jump\t// in\n    tag_505:\n        /* \"#utility.yul\":7927:7983   */\n    tag_504:\n        /* \"#utility.yul\":8001:8030   */\n      tag_506\n        /* \"#utility.yul\":8023:8029   */\n      dup3\n        /* \"#utility.yul\":8001:8030   */\n      tag_370\n      jump\t// in\n    tag_506:\n        /* \"#utility.yul\":7993:8030   */\n      swap1\n      pop\n        /* \"#utility.yul\":8085:8089   */\n      0x20\n        /* \"#utility.yul\":8079:8083   */\n      dup2\n        /* \"#utility.yul\":8075:8090   */\n      add\n        /* \"#utility.yul\":8067:8090   */\n      swap1\n      pop\n        /* \"#utility.yul\":7790:8097   */\n      swap2\n      swap1\n      pop\n      jump\t// out\n        /* \"#utility.yul\":8103:8249   */\n    tag_381:\n        /* \"#utility.yul\":8200:8206   */\n      dup3\n        /* \"#utility.yul\":8195:8198   */\n      dup2\n        /* \"#utility.yul\":8190:8193   */\n      dup4\n        /* \"#utility.yul\":8177:8207   */\n      calldatacopy\n        /* \"#utility.yul\":8241:8242   */\n      0x00\n        /* \"#utility.yul\":8232:8238   */\n      dup4\n        /* \"#utility.yul\":8227:8230   */\n      dup4\n        /* \"#utility.yul\":8223:8239   */\n      add\n        /* \"#utility.yul\":8216:8243   */\n      mstore\n        /* \"#utility.yul\":8103:8249   */\n      pop\n      pop\n      pop\n      jump\t// out\n        /* \"#utility.yul\":8255:8678   */\n    tag_382:\n        /* \"#utility.yul\":8332:8337   */\n      0x00\n        /* \"#utility.yul\":8357:8422   */\n      tag_509\n        /* \"#utility.yul\":8373:8421   */\n      tag_510\n        /* \"#utility.yul\":8414:8420   */\n      dup5\n        /* \"#utility.yul\":8373:8421   */\n      tag_380\n      jump\t// in\n    tag_510:\n        /* \"#utility.yul\":8357:8422   */\n      tag_374\n      jump\t// in\n    tag_509:\n        /* \"#utility.yul\":8348:8422   */\n      swap1\n      pop\n        /* \"#utility.yul\":8445:8451   */\n      dup3\n        /* \"#utility.yul\":8438:8443   */\n      dup2\n        /* \"#utility.yul\":8431:8452   */\n      mstore\n        /* \"#utility.yul\":8483:8487   */\n      0x20\n        /* \"#utility.yul\":8476:8481   */\n      dup2\n        /* \"#utility.yul\":8472:8488   */\n      add\n        /* \"#utility.yul\":8521:8524   */\n      dup5\n        /* \"#utility.yul\":8512:8518   */\n      dup5\n        /* \"#utility.yul\":8507:8510   */\n      dup5\n        /* \"#utility.yul\":8503:8519   */\n      add\n        /* \"#utility.yul\":8500:8525   */\n      gt\n        /* \"#utility.yul\":8497:8609   */\n      iszero\n      tag_511\n      jumpi\n        /* \"#utility.yul\":8528:8607   */\n      tag_512\n      tag_379\n      jump\t// in\n    tag_512:\n        /* \"#utility.yul\":8497:8609   */\n    tag_511:\n        /* \"#utility.yul\":8618:8672   */\n      tag_513\n        /* \"#utility.yul\":8665:8671   */\n      dup5\n        /* \"#utility.yul\":8660:8663   */\n      dup3\n        /* \"#utility.yul\":8655:8658   */\n      dup6\n        /* \"#utility.yul\":8618:8672   */\n      tag_381\n      jump\t// in\n    tag_513:\n        /* \"#utility.yul\":8338:8678   */\n      pop\n        /* \"#utility.yul\":8255:8678   */\n      swap4\n      swap3\n      pop\n      pop\n      pop\n      jump\t// out\n        /* \"#utility.yul\":8697:9035   */\n    tag_383:\n        /* \"#utility.yul\":8752:8757   */\n      0x00\n        /* \"#utility.yul\":8801:8804   */\n      dup3\n        /* \"#utility.yul\":8794:8798   */\n      0x1f\n        /* \"#utility.yul\":8786:8792   */\n      dup4\n        /* \"#utility.yul\":8782:8799   */\n      add\n        /* \"#utility.yul\":8778:8805   */\n      slt\n        /* \"#utility.yul\":8768:8890   */\n      tag_515\n      jumpi\n        /* \"#utility.yul\":8809:8888   */\n      tag_516\n      tag_372\n      jump\t// in\n    tag_516:\n        /* \"#utility.yul\":8768:8890   */\n    tag_515:\n        /* \"#utility.yul\":8926:8932   */\n      dup2\n        /* \"#utility.yul\":8913:8933   */\n      calldataload\n        /* \"#utility.yul\":8951:9029   */\n      tag_517\n        /* \"#utility.yul\":9025:9028   */\n      dup5\n        /* \"#utility.yul\":9017:9023   */\n      dup3\n        /* \"#utility.yul\":9010:9014   */\n      0x20\n        /* \"#utility.yul\":9002:9008   */\n      dup7\n        /* \"#utility.yul\":8998:9015   */\n      add\n        /* \"#utility.yul\":8951:9029   */\n      tag_382\n      jump\t// in\n    tag_517:\n        /* \"#utility.yul\":8942:9029   */\n      swap2\n      pop\n        /* \"#utility.yul\":8758:9035   */\n      pop\n        /* \"#utility.yul\":8697:9035   */\n      swap3\n      swap2\n      pop\n      pop\n      jump\t// out\n        /* \"#utility.yul\":9041:10550   */\n    tag_58:\n        /* \"#utility.yul\":9195:9201   */\n      0x00\n        /* \"#utility.yul\":9203:9209   */\n      dup1\n        /* \"#utility.yul\":9211:9217   */\n      0x00\n        /* \"#utility.yul\":9219:9225   */\n      dup1\n        /* \"#utility.yul\":9227:9233   */\n      0x00\n        /* \"#utility.yul\":9276:9279   */\n      0xa0\n        /* \"#utility.yul\":9264:9273   */\n      dup7\n        /* \"#utility.yul\":9255:9262   */\n      dup9\n        /* \"#utility.yul\":9251:9274   */\n      sub\n        /* \"#utility.yul\":9247:9280   */\n      slt\n        /* \"#utility.yul\":9244:9364   */\n      iszero\n      tag_519\n      jumpi\n        /* \"#utility.yul\":9283:9362   */\n      tag_520\n      tag_352\n      jump\t// in\n    tag_520:\n        /* \"#utility.yul\":9244:9364   */\n    tag_519:\n        /* \"#utility.yul\":9403:9404   */\n      0x00\n        /* \"#utility.yul\":9428:9481   */\n      tag_521\n        /* \"#utility.yul\":9473:9480   */\n      dup9\n        /* \"#utility.yul\":9464:9470   */\n      dup3\n        /* \"#utility.yul\":9453:9462   */\n      dup10\n        /* \"#utility.yul\":9449:9471   */\n      add\n        /* \"#utility.yul\":9428:9481   */\n      tag_357\n      jump\t// in\n    tag_521:\n        /* \"#utility.yul\":9418:9481   */\n      swap6\n      pop\n        /* \"#utility.yul\":9374:9491   */\n      pop\n        /* \"#utility.yul\":9530:9532   */\n      0x20\n        /* \"#utility.yul\":9556:9609   */\n      tag_522\n        /* \"#utility.yul\":9601:9608   */\n      dup9\n        /* \"#utility.yul\":9592:9598   */\n      dup3\n        /* \"#utility.yul\":9581:9590   */\n      dup10\n        /* \"#utility.yul\":9577:9599   */\n      add\n        /* \"#utility.yul\":9556:9609   */\n      tag_357\n      jump\t// in\n    tag_522:\n        /* \"#utility.yul\":9546:9609   */\n      swap5\n      pop\n        /* \"#utility.yul\":9501:9619   */\n      pop\n        /* \"#utility.yul\":9686:9688   */\n      0x40\n        /* \"#utility.yul\":9675:9684   */\n      dup7\n        /* \"#utility.yul\":9671:9689   */\n      add\n        /* \"#utility.yul\":9658:9690   */\n      calldataload\n        /* \"#utility.yul\":9717:9735   */\n      0xffffffffffffffff\n        /* \"#utility.yul\":9709:9715   */\n      dup2\n        /* \"#utility.yul\":9706:9736   */\n      gt\n        /* \"#utility.yul\":9703:9820   */\n      iszero\n      tag_523\n      jumpi\n        /* \"#utility.yul\":9739:9818   */\n      tag_524\n      tag_353\n      jump\t// in\n    tag_524:\n        /* \"#utility.yul\":9703:9820   */\n    tag_523:\n        /* \"#utility.yul\":9844:9922   */\n      tag_525\n        /* \"#utility.yul\":9914:9921   */\n      dup9\n        /* \"#utility.yul\":9905:9911   */\n      dup3\n        /* \"#utility.yul\":9894:9903   */\n      dup10\n        /* \"#utility.yul\":9890:9912   */\n      add\n        /* \"#utility.yul\":9844:9922   */\n      tag_378\n      jump\t// in\n    tag_525:\n        /* \"#utility.yul\":9834:9922   */\n      swap4\n      pop\n        /* \"#utility.yul\":9629:9932   */\n      pop\n        /* \"#utility.yul\":9999:10001   */\n      0x60\n        /* \"#utility.yul\":9988:9997   */\n      dup7\n        /* \"#utility.yul\":9984:10002   */\n      add\n        /* \"#utility.yul\":9971:10003   */\n      calldataload\n        /* \"#utility.yul\":10030:10048   */\n      0xffffffffffffffff\n        /* \"#utility.yul\":10022:10028   */\n      dup2\n        /* \"#utility.yul\":10019:10049   */\n      gt\n        /* \"#utility.yul\":10016:10133   */\n      iszero\n      tag_526\n      jumpi\n        /* \"#utility.yul\":10052:10131   */\n      tag_527\n      tag_353\n      jump\t// in\n    tag_527:\n        /* \"#utility.yul\":10016:10133   */\n    tag_526:\n        /* \"#utility.yul\":10157:10235   */\n      tag_528\n        /* \"#utility.yul\":10227:10234   */\n      dup9\n        /* \"#utility.yul\":10218:10224   */\n      dup3\n        /* \"#utility.yul\":10207:10216   */\n      dup10\n        /* \"#utility.yul\":10203:10225   */\n      add\n        /* \"#utility.yul\":10157:10235   */\n      tag_378\n      jump\t// in\n    tag_528:\n        /* \"#utility.yul\":10147:10235   */\n      swap3\n      pop\n        /* \"#utility.yul\":9942:10245   */\n      pop\n        /* \"#utility.yul\":10312:10315   */\n      0x80\n        /* \"#utility.yul\":10301:10310   */\n      dup7\n        /* \"#utility.yul\":10297:10316   */\n      add\n        /* \"#utility.yul\":10284:10317   */\n      calldataload\n        /* \"#utility.yul\":10344:10362   */\n      0xffffffffffffffff\n        /* \"#utility.yul\":10336:10342   */\n      dup2\n        /* \"#utility.yul\":10333:10363   */\n      gt\n        /* \"#utility.yul\":10330:10447   */\n      iszero\n      tag_529\n      jumpi\n        /* \"#utility.yul\":10366:10445   */\n      tag_530\n      tag_353\n      jump\t// in\n    tag_530:\n        /* \"#utility.yul\":10330:10447   */\n    tag_529:\n        /* \"#utility.yul\":10471:10533   */\n      tag_531\n        /* \"#utility.yul\":10525:10532   */\n      dup9\n        /* \"#utility.yul\":10516:10522   */\n      dup3\n        /* \"#utility.yul\":10505:10514   */\n      dup10\n        /* \"#utility.yul\":10501:10523   */\n      add\n        /* \"#utility.yul\":10471:10533   */\n      tag_383\n      jump\t// in\n    tag_531:\n        /* \"#utility.yul\":10461:10533   */\n      swap2\n      pop\n        /* \"#utility.yul\":10255:10543   */\n      pop\n        /* \"#utility.yul\":9041:10550   */\n      swap3\n      swap6\n      pop\n      swap3\n      swap6\n      swap1\n      swap4\n      pop\n      jump\t// out\n        /* \"#utility.yul\":10556:10867   */\n    tag_384:\n        /* \"#utility.yul\":10633:10637   */\n      0x00\n        /* \"#utility.yul\":10723:10741   */\n      0xffffffffffffffff\n        /* \"#utility.yul\":10715:10721   */\n      dup3\n        /* \"#utility.yul\":10712:10742   */\n      gt\n        /* \"#utility.yul\":10709:10765   */\n      iszero\n      tag_533\n      jumpi\n        /* \"#utility.yul\":10745:10763   */\n      tag_534\n      tag_152\n      jump\t// in\n    tag_534:\n        /* \"#utility.yul\":10709:10765   */\n    tag_533:\n        /* \"#utility.yul\":10795:10799   */\n      0x20\n        /* \"#utility.yul\":10787:10793   */\n      dup3\n        /* \"#utility.yul\":10783:10800   */\n      mul\n        /* \"#utility.yul\":10775:10800   */\n      swap1\n      pop\n        /* \"#utility.yul\":10855:10859   */\n      0x20\n        /* \"#utility.yul\":10849:10853   */\n      dup2\n        /* \"#utility.yul\":10845:10860   */\n      add\n        /* \"#utility.yul\":10837:10860   */\n      swap1\n      pop\n        /* \"#utility.yul\":10556:10867   */\n      swap2\n      swap1\n      pop\n      jump\t// out\n        /* \"#utility.yul\":10890:11600   */\n    tag_385:\n        /* \"#utility.yul\":10986:10991   */\n      0x00\n        /* \"#utility.yul\":11011:11092   */\n      tag_536\n        /* \"#utility.yul\":11027:11091   */\n      tag_537\n        /* \"#utility.yul\":11084:11090   */\n      dup5\n        /* \"#utility.yul\":11027:11091   */\n      tag_384\n      jump\t// in\n    tag_537:\n        /* \"#utility.yul\":11011:11092   */\n      tag_374\n      jump\t// in\n    tag_536:\n        /* \"#utility.yul\":11002:11092   */\n      swap1\n      pop\n        /* \"#utility.yul\":11112:11117   */\n      dup1\n        /* \"#utility.yul\":11141:11147   */\n      dup4\n        /* \"#utility.yul\":11134:11139   */\n      dup3\n        /* \"#utility.yul\":11127:11148   */\n      mstore\n        /* \"#utility.yul\":11175:11179   */\n      0x20\n        /* \"#utility.yul\":11168:11173   */\n      dup3\n        /* \"#utility.yul\":11164:11180   */\n      add\n        /* \"#utility.yul\":11157:11180   */\n      swap1\n      pop\n        /* \"#utility.yul\":11228:11232   */\n      0x20\n        /* \"#utility.yul\":11220:11226   */\n      dup5\n        /* \"#utility.yul\":11216:11233   */\n      mul\n        /* \"#utility.yul\":11208:11214   */\n      dup4\n        /* \"#utility.yul\":11204:11234   */\n      add\n        /* \"#utility.yul\":11257:11260   */\n      dup6\n        /* \"#utility.yul\":11249:11255   */\n      dup2\n        /* \"#utility.yul\":11246:11261   */\n      gt\n        /* \"#utility.yul\":11243:11365   */\n      iszero\n      tag_538\n      jumpi\n        /* \"#utility.yul\":11276:11355   */\n      tag_539\n      tag_376\n      jump\t// in\n    tag_539:\n        /* \"#utility.yul\":11243:11365   */\n    tag_538:\n        /* \"#utility.yul\":11391:11397   */\n      dup4\n        /* \"#utility.yul\":11374:11594   */\n    tag_540:\n        /* \"#utility.yul\":11408:11414   */\n      dup2\n        /* \"#utility.yul\":11403:11406   */\n      dup2\n        /* \"#utility.yul\":11400:11415   */\n      lt\n        /* \"#utility.yul\":11374:11594   */\n      iszero\n      tag_542\n      jumpi\n        /* \"#utility.yul\":11483:11486   */\n      dup1\n        /* \"#utility.yul\":11512:11549   */\n      tag_543\n        /* \"#utility.yul\":11545:11548   */\n      dup9\n        /* \"#utility.yul\":11533:11543   */\n      dup3\n        /* \"#utility.yul\":11512:11549   */\n      tag_357\n      jump\t// in\n    tag_543:\n        /* \"#utility.yul\":11507:11510   */\n      dup5\n        /* \"#utility.yul\":11500:11550   */\n      mstore\n        /* \"#utility.yul\":11579:11583   */\n      0x20\n        /* \"#utility.yul\":11574:11577   */\n      dup5\n        /* \"#utility.yul\":11570:11584   */\n      add\n        /* \"#utility.yul\":11563:11584   */\n      swap4\n      pop\n        /* \"#utility.yul\":11450:11594   */\n      pop\n        /* \"#utility.yul\":11434:11438   */\n      0x20\n        /* \"#utility.yul\":11429:11432   */\n      dup2\n        /* \"#utility.yul\":11425:11439   */\n      add\n        /* \"#utility.yul\":11418:11439   */\n      swap1\n      pop\n        /* \"#utility.yul\":11374:11594   */\n      jump(tag_540)\n    tag_542:\n        /* \"#utility.yul\":11378:11399   */\n      pop\n        /* \"#utility.yul\":10992:11600   */\n      pop\n      pop\n        /* \"#utility.yul\":10890:11600   */\n      swap4\n      swap3\n      pop\n      pop\n      pop\n      jump\t// out\n        /* \"#utility.yul\":11623:11993   */\n    tag_386:\n        /* \"#utility.yul\":11694:11699   */\n      0x00\n        /* \"#utility.yul\":11743:11746   */\n      dup3\n        /* \"#utility.yul\":11736:11740   */\n      0x1f\n        /* \"#utility.yul\":11728:11734   */\n      dup4\n        /* \"#utility.yul\":11724:11741   */\n      add\n        /* \"#utility.yul\":11720:11747   */\n      slt\n        /* \"#utility.yul\":11710:11832   */\n      tag_545\n      jumpi\n        /* \"#utility.yul\":11751:11830   */\n      tag_546\n      tag_372\n      jump\t// in\n    tag_546:\n        /* \"#utility.yul\":11710:11832   */\n    tag_545:\n        /* \"#utility.yul\":11868:11874   */\n      dup2\n        /* \"#utility.yul\":11855:11875   */\n      calldataload\n        /* \"#utility.yul\":11893:11987   */\n      tag_547\n        /* \"#utility.yul\":11983:11986   */\n      dup5\n        /* \"#utility.yul\":11975:11981   */\n      dup3\n        /* \"#utility.yul\":11968:11972   */\n      0x20\n        /* \"#utility.yul\":11960:11966   */\n      dup7\n        /* \"#utility.yul\":11956:11973   */\n      add\n        /* \"#utility.yul\":11893:11987   */\n      tag_385\n      jump\t// in\n    tag_547:\n        /* \"#utility.yul\":11884:11987   */\n      swap2\n      pop\n        /* \"#utility.yul\":11700:11993   */\n      pop\n        /* \"#utility.yul\":11623:11993   */\n      swap3\n      swap2\n      pop\n      pop\n      jump\t// out\n        /* \"#utility.yul\":11999:12893   */\n    tag_68:\n        /* \"#utility.yul\":12117:12123   */\n      0x00\n        /* \"#utility.yul\":12125:12131   */\n      dup1\n        /* \"#utility.yul\":12174:12176   */\n      0x40\n        /* \"#utility.yul\":12162:12171   */\n      dup4\n        /* \"#utility.yul\":12153:12160   */\n      dup6\n        /* \"#utility.yul\":12149:12172   */\n      sub\n        /* \"#utility.yul\":12145:12177   */\n      slt\n        /* \"#utility.yul\":12142:12261   */\n      iszero\n      tag_549\n      jumpi\n        /* \"#utility.yul\":12180:12259   */\n      tag_550\n      tag_352\n      jump\t// in\n    tag_550:\n        /* \"#utility.yul\":12142:12261   */\n    tag_549:\n        /* \"#utility.yul\":12328:12329   */\n      0x00\n        /* \"#utility.yul\":12317:12326   */\n      dup4\n        /* \"#utility.yul\":12313:12330   */\n      add\n        /* \"#utility.yul\":12300:12331   */\n      calldataload\n        /* \"#utility.yul\":12358:12376   */\n      0xffffffffffffffff\n        /* \"#utility.yul\":12350:12356   */\n      dup2\n        /* \"#utility.yul\":12347:12377   */\n      gt\n        /* \"#utility.yul\":12344:12461   */\n      iszero\n      tag_551\n      jumpi\n        /* \"#utility.yul\":12380:12459   */\n      tag_552\n      tag_353\n      jump\t// in\n    tag_552:\n        /* \"#utility.yul\":12344:12461   */\n    tag_551:\n        /* \"#utility.yul\":12485:12563   */\n      tag_553\n        /* \"#utility.yul\":12555:12562   */\n      dup6\n        /* \"#utility.yul\":12546:12552   */\n      dup3\n        /* \"#utility.yul\":12535:12544   */\n      dup7\n        /* \"#utility.yul\":12531:12553   */\n      add\n        /* \"#utility.yul\":12485:12563   */\n      tag_386\n      jump\t// in\n    tag_553:\n        /* \"#utility.yul\":12475:12563   */\n      swap3\n      pop\n        /* \"#utility.yul\":12271:12573   */\n      pop\n        /* \"#utility.yul\":12640:12642   */\n      0x20\n        /* \"#utility.yul\":12629:12638   */\n      dup4\n        /* \"#utility.yul\":12625:12643   */\n      add\n        /* \"#utility.yul\":12612:12644   */\n      calldataload\n        /* \"#utility.yul\":12671:12689   */\n      0xffffffffffffffff\n        /* \"#utility.yul\":12663:12669   */\n      dup2\n        /* \"#utility.yul\":12660:12690   */\n      gt\n        /* \"#utility.yul\":12657:12774   */\n      iszero\n      tag_554\n      jumpi\n        /* \"#utility.yul\":12693:12772   */\n      tag_555\n      tag_353\n      jump\t// in\n    tag_555:\n        /* \"#utility.yul\":12657:12774   */\n    tag_554:\n        /* \"#utility.yul\":12798:12876   */\n      tag_556\n        /* \"#utility.yul\":12868:12875   */\n      dup6\n        /* \"#utility.yul\":12859:12865   */\n      dup3\n        /* \"#utility.yul\":12848:12857   */\n      dup7\n        /* \"#utility.yul\":12844:12866   */\n      add\n        /* \"#utility.yul\":12798:12876   */\n      tag_378\n      jump\t// in\n    tag_556:\n        /* \"#utility.yul\":12788:12876   */\n      swap2\n      pop\n        /* \"#utility.yul\":12583:12886   */\n      pop\n        /* \"#utility.yul\":11999:12893   */\n      swap3\n      pop\n      swap3\n      swap1\n      pop\n      jump\t// out\n        /* \"#utility.yul\":12899:13013   */\n    tag_387:\n        /* \"#utility.yul\":12966:12972   */\n      0x00\n        /* \"#utility.yul\":13000:13005   */\n      dup2\n        /* \"#utility.yul\":12994:13006   */\n      mload\n        /* \"#utility.yul\":12984:13006   */\n      swap1\n      pop\n        /* \"#utility.yul\":12899:13013   */\n      swap2\n      swap1\n      pop\n      jump\t// out\n        /* \"#utility.yul\":13019:13203   */\n    tag_388:\n        /* \"#utility.yul\":13118:13129   */\n      0x00\n        /* \"#utility.yul\":13152:13158   */\n      dup3\n        /* \"#utility.yul\":13147:13150   */\n      dup3\n        /* \"#utility.yul\":13140:13159   */\n      mstore\n        /* \"#utility.yul\":13192:13196   */\n      0x20\n        /* \"#utility.yul\":13187:13190   */\n      dup3\n        /* \"#utility.yul\":13183:13197   */\n      add\n        /* \"#utility.yul\":13168:13197   */\n      swap1\n      pop\n        /* \"#utility.yul\":13019:13203   */\n      swap3\n      swap2\n      pop\n      pop\n      jump\t// out\n        /* \"#utility.yul\":13209:13341   */\n    tag_389:\n        /* \"#utility.yul\":13276:13280   */\n      0x00\n        /* \"#utility.yul\":13299:13302   */\n      dup2\n        /* \"#utility.yul\":13291:13302   */\n      swap1\n      pop\n        /* \"#utility.yul\":13329:13333   */\n      0x20\n        /* \"#utility.yul\":13324:13327   */\n      dup3\n        /* \"#utility.yul\":13320:13334   */\n      add\n        /* \"#utility.yul\":13312:13334   */\n      swap1\n      pop\n        /* \"#utility.yul\":13209:13341   */\n      swap2\n      swap1\n      pop\n      jump\t// out\n        /* \"#utility.yul\":13347:13455   */\n    tag_390:\n        /* \"#utility.yul\":13424:13448   */\n      tag_561\n        /* \"#utility.yul\":13442:13447   */\n      dup2\n        /* \"#utility.yul\":13424:13448   */\n      tag_358\n      jump\t// in\n    tag_561:\n        /* \"#utility.yul\":13419:13422   */\n      dup3\n        /* \"#utility.yul\":13412:13449   */\n      mstore\n        /* \"#utility.yul\":13347:13455   */\n      pop\n      pop\n      jump\t// out\n        /* \"#utility.yul\":13461:13640   */\n    tag_391:\n        /* \"#utility.yul\":13530:13540   */\n      0x00\n        /* \"#utility.yul\":13551:13597   */\n      tag_563\n        /* \"#utility.yul\":13593:13596   */\n      dup4\n        /* \"#utility.yul\":13585:13591   */\n      dup4\n        /* \"#utility.yul\":13551:13597   */\n      tag_390\n      jump\t// in\n    tag_563:\n        /* \"#utility.yul\":13629:13633   */\n      0x20\n        /* \"#utility.yul\":13624:13627   */\n      dup4\n        /* \"#utility.yul\":13620:13634   */\n      add\n        /* \"#utility.yul\":13606:13634   */\n      swap1\n      pop\n        /* \"#utility.yul\":13461:13640   */\n      swap3\n      swap2\n      pop\n      pop\n      jump\t// out\n        /* \"#utility.yul\":13646:13759   */\n    tag_392:\n        /* \"#utility.yul\":13716:13720   */\n      0x00\n        /* \"#utility.yul\":13748:13752   */\n      0x20\n        /* \"#utility.yul\":13743:13746   */\n      dup3\n        /* \"#utility.yul\":13739:13753   */\n      add\n        /* \"#utility.yul\":13731:13753   */\n      swap1\n      pop\n        /* \"#utility.yul\":13646:13759   */\n      swap2\n      swap1\n      pop\n      jump\t// out\n        /* \"#utility.yul\":13795:14527   */\n    tag_393:\n        /* \"#utility.yul\":13914:13917   */\n      0x00\n        /* \"#utility.yul\":13943:13997   */\n      tag_566\n        /* \"#utility.yul\":13991:13996   */\n      dup3\n        /* \"#utility.yul\":13943:13997   */\n      tag_387\n      jump\t// in\n    tag_566:\n        /* \"#utility.yul\":14013:14099   */\n      tag_567\n        /* \"#utility.yul\":14092:14098   */\n      dup2\n        /* \"#utility.yul\":14087:14090   */\n      dup6\n        /* \"#utility.yul\":14013:14099   */\n      tag_388\n      jump\t// in\n    tag_567:\n        /* \"#utility.yul\":14006:14099   */\n      swap4\n      pop\n        /* \"#utility.yul\":14123:14179   */\n      tag_568\n        /* \"#utility.yul\":14173:14178   */\n      dup4\n        /* \"#utility.yul\":14123:14179   */\n      tag_389\n      jump\t// in\n    tag_568:\n        /* \"#utility.yul\":14202:14209   */\n      dup1\n        /* \"#utility.yul\":14233:14234   */\n      0x00\n        /* \"#utility.yul\":14218:14502   */\n    tag_569:\n        /* \"#utility.yul\":14243:14249   */\n      dup4\n        /* \"#utility.yul\":14240:14241   */\n      dup2\n        /* \"#utility.yul\":14237:14250   */\n      lt\n        /* \"#utility.yul\":14218:14502   */\n      iszero\n      tag_571\n      jumpi\n        /* \"#utility.yul\":14319:14325   */\n      dup2\n        /* \"#utility.yul\":14313:14326   */\n      mload\n        /* \"#utility.yul\":14346:14409   */\n      tag_572\n        /* \"#utility.yul\":14405:14408   */\n      dup9\n        /* \"#utility.yul\":14390:14403   */\n      dup3\n        /* \"#utility.yul\":14346:14409   */\n      tag_391\n      jump\t// in\n    tag_572:\n        /* \"#utility.yul\":14339:14409   */\n      swap8\n      pop\n        /* \"#utility.yul\":14432:14492   */\n      tag_573\n        /* \"#utility.yul\":14485:14491   */\n      dup4\n        /* \"#utility.yul\":14432:14492   */\n      tag_392\n      jump\t// in\n    tag_573:\n        /* \"#utility.yul\":14422:14492   */\n      swap3\n      pop\n        /* \"#utility.yul\":14278:14502   */\n      pop\n        /* \"#utility.yul\":14265:14266   */\n      0x01\n        /* \"#utility.yul\":14262:14263   */\n      dup2\n        /* \"#utility.yul\":14258:14267   */\n      add\n        /* \"#utility.yul\":14253:14267   */\n      swap1\n      pop\n        /* \"#utility.yul\":14218:14502   */\n      jump(tag_569)\n    tag_571:\n        /* \"#utility.yul\":14222:14236   */\n      pop\n        /* \"#utility.yul\":14518:14521   */\n      dup6\n        /* \"#utility.yul\":14511:14521   */\n      swap4\n      pop\n        /* \"#utility.yul\":13919:14527   */\n      pop\n      pop\n      pop\n        /* \"#utility.yul\":13795:14527   */\n      swap3\n      swap2\n      pop\n      pop\n      jump\t// out\n        /* \"#utility.yul\":14533:14906   */\n    tag_71:\n        /* \"#utility.yul\":14676:14680   */\n      0x00\n        /* \"#utility.yul\":14714:14716   */\n      0x20\n        /* \"#utility.yul\":14703:14712   */\n      dup3\n        /* \"#utility.yul\":14699:14717   */\n      add\n        /* \"#utility.yul\":14691:14717   */\n      swap1\n      pop\n        /* \"#utility.yul\":14763:14772   */\n      dup2\n        /* \"#utility.yul\":14757:14761   */\n      dup2\n        /* \"#utility.yul\":14753:14773   */\n      sub\n        /* \"#utility.yul\":14749:14750   */\n      0x00\n        /* \"#utility.yul\":14738:14747   */\n      dup4\n        /* \"#utility.yul\":14734:14751   */\n      add\n        /* \"#utility.yul\":14727:14774   */\n      mstore\n        /* \"#utility.yul\":14791:14899   */\n      tag_575\n        /* \"#utility.yul\":14894:14898   */\n      dup2\n        /* \"#utility.yul\":14885:14891   */\n      dup5\n        /* \"#utility.yul\":14791:14899   */\n      tag_393\n      jump\t// in\n    tag_575:\n        /* \"#utility.yul\":14783:14899   */\n      swap1\n      pop\n        /* \"#utility.yul\":14533:14906   */\n      swap3\n      swap2\n      pop\n      pop\n      jump\t// out\n        /* \"#utility.yul\":14912:15030   */\n    tag_394:\n        /* \"#utility.yul\":14999:15023   */\n      tag_577\n        /* \"#utility.yul\":15017:15022   */\n      dup2\n        /* \"#utility.yul\":14999:15023   */\n      tag_355\n      jump\t// in\n    tag_577:\n        /* \"#utility.yul\":14994:14997   */\n      dup3\n        /* \"#utility.yul\":14987:15024   */\n      mstore\n        /* \"#utility.yul\":14912:15030   */\n      pop\n      pop\n      jump\t// out\n        /* \"#utility.yul\":15036:15258   */\n    tag_80:\n        /* \"#utility.yul\":15129:15133   */\n      0x00\n        /* \"#utility.yul\":15167:15169   */\n      0x20\n        /* \"#utility.yul\":15156:15165   */\n      dup3\n        /* \"#utility.yul\":15152:15170   */\n      add\n        /* \"#utility.yul\":15144:15170   */\n      swap1\n      pop\n        /* \"#utility.yul\":15180:15251   */\n      tag_579\n        /* \"#utility.yul\":15248:15249   */\n      0x00\n        /* \"#utility.yul\":15237:15246   */\n      dup4\n        /* \"#utility.yul\":15233:15250   */\n      add\n        /* \"#utility.yul\":15224:15230   */\n      dup5\n        /* \"#utility.yul\":15180:15251   */\n      tag_394\n      jump\t// in\n    tag_579:\n        /* \"#utility.yul\":15036:15258   */\n      swap3\n      swap2\n      pop\n      pop\n      jump\t// out\n        /* \"#utility.yul\":15264:15380   */\n    tag_395:\n        /* \"#utility.yul\":15334:15355   */\n      tag_581\n        /* \"#utility.yul\":15349:15354   */\n      dup2\n        /* \"#utility.yul\":15334:15355   */\n      tag_365\n      jump\t// in\n    tag_581:\n        /* \"#utility.yul\":15327:15332   */\n      dup2\n        /* \"#utility.yul\":15324:15356   */\n      eq\n        /* \"#utility.yul\":15314:15374   */\n      tag_582\n      jumpi\n        /* \"#utility.yul\":15370:15371   */\n      0x00\n        /* \"#utility.yul\":15367:15368   */\n      dup1\n        /* \"#utility.yul\":15360:15372   */\n      revert\n        /* \"#utility.yul\":15314:15374   */\n    tag_582:\n        /* \"#utility.yul\":15264:15380   */\n      pop\n      jump\t// out\n        /* \"#utility.yul\":15386:15519   */\n    tag_396:\n        /* \"#utility.yul\":15429:15434   */\n      0x00\n        /* \"#utility.yul\":15467:15473   */\n      dup2\n        /* \"#utility.yul\":15454:15474   */\n      calldataload\n        /* \"#utility.yul\":15445:15474   */\n      swap1\n      pop\n        /* \"#utility.yul\":15483:15513   */\n      tag_584\n        /* \"#utility.yul\":15507:15512   */\n      dup2\n        /* \"#utility.yul\":15483:15513   */\n      tag_395\n      jump\t// in\n    tag_584:\n        /* \"#utility.yul\":15386:15519   */\n      swap3\n      swap2\n      pop\n      pop\n      jump\t// out\n        /* \"#utility.yul\":15525:15993   */\n    tag_83:\n        /* \"#utility.yul\":15590:15596   */\n      0x00\n        /* \"#utility.yul\":15598:15604   */\n      dup1\n        /* \"#utility.yul\":15647:15649   */\n      0x40\n        /* \"#utility.yul\":15635:15644   */\n      dup4\n        /* \"#utility.yul\":15626:15633   */\n      dup6\n        /* \"#utility.yul\":15622:15645   */\n      sub\n        /* \"#utility.yul\":15618:15650   */\n      slt\n        /* \"#utility.yul\":15615:15734   */\n      iszero\n      tag_586\n      jumpi\n        /* \"#utility.yul\":15653:15732   */\n      tag_587\n      tag_352\n      jump\t// in\n    tag_587:\n        /* \"#utility.yul\":15615:15734   */\n    tag_586:\n        /* \"#utility.yul\":15773:15774   */\n      0x00\n        /* \"#utility.yul\":15798:15851   */\n      tag_588\n        /* \"#utility.yul\":15843:15850   */\n      dup6\n        /* \"#utility.yul\":15834:15840   */\n      dup3\n        /* \"#utility.yul\":15823:15832   */\n      dup7\n        /* \"#utility.yul\":15819:15841   */\n      add\n        /* \"#utility.yul\":15798:15851   */\n      tag_357\n      jump\t// in\n    tag_588:\n        /* \"#utility.yul\":15788:15851   */\n      swap3\n      pop\n        /* \"#utility.yul\":15744:15861   */\n      pop\n        /* \"#utility.yul\":15900:15902   */\n      0x20\n        /* \"#utility.yul\":15926:15976   */\n      tag_589\n        /* \"#utility.yul\":15968:15975   */\n      dup6\n        /* \"#utility.yul\":15959:15965   */\n      dup3\n        /* \"#utility.yul\":15948:15957   */\n      dup7\n        /* \"#utility.yul\":15944:15966   */\n      add\n        /* \"#utility.yul\":15926:15976   */\n      tag_396\n      jump\t// in\n    tag_589:\n        /* \"#utility.yul\":15916:15976   */\n      swap2\n      pop\n        /* \"#utility.yul\":15871:15986   */\n      pop\n        /* \"#utility.yul\":15525:15993   */\n      swap3\n      pop\n      swap3\n      swap1\n      pop\n      jump\t// out\n        /* \"#utility.yul\":15999:16473   */\n    tag_96:\n        /* \"#utility.yul\":16067:16073   */\n      0x00\n        /* \"#utility.yul\":16075:16081   */\n      dup1\n        /* \"#utility.yul\":16124:16126   */\n      0x40\n        /* \"#utility.yul\":16112:16121   */\n      dup4\n        /* \"#utility.yul\":16103:16110   */\n      dup6\n        /* \"#utility.yul\":16099:16122   */\n      sub\n        /* \"#utility.yul\":16095:16127   */\n      slt\n        /* \"#utility.yul\":16092:16211   */\n      iszero\n      tag_591\n      jumpi\n        /* \"#utility.yul\":16130:16209   */\n      tag_592\n      tag_352\n      jump\t// in\n    tag_592:\n        /* \"#utility.yul\":16092:16211   */\n    tag_591:\n        /* \"#utility.yul\":16250:16251   */\n      0x00\n        /* \"#utility.yul\":16275:16328   */\n      tag_593\n        /* \"#utility.yul\":16320:16327   */\n      dup6\n        /* \"#utility.yul\":16311:16317   */\n      dup3\n        /* \"#utility.yul\":16300:16309   */\n      dup7\n        /* \"#utility.yul\":16296:16318   */\n      add\n        /* \"#utility.yul\":16275:16328   */\n      tag_357\n      jump\t// in\n    tag_593:\n        /* \"#utility.yul\":16265:16328   */\n      swap3\n      pop\n        /* \"#utility.yul\":16221:16338   */\n      pop\n        /* \"#utility.yul\":16377:16379   */\n      0x20\n        /* \"#utility.yul\":16403:16456   */\n      tag_594\n        /* \"#utility.yul\":16448:16455   */\n      dup6\n        /* \"#utility.yul\":16439:16445   */\n      dup3\n        /* \"#utility.yul\":16428:16437   */\n      dup7\n        /* \"#utility.yul\":16424:16446   */\n      add\n        /* \"#utility.yul\":16403:16456   */\n      tag_357\n      jump\t// in\n    tag_594:\n        /* \"#utility.yul\":16393:16456   */\n      swap2\n      pop\n        /* \"#utility.yul\":16348:16466   */\n      pop\n        /* \"#utility.yul\":15999:16473   */\n      swap3\n      pop\n      swap3\n      swap1\n      pop\n      jump\t// out\n        /* \"#utility.yul\":16479:17568   */\n    tag_101:\n        /* \"#utility.yul\":16583:16589   */\n      0x00\n        /* \"#utility.yul\":16591:16597   */\n      dup1\n        /* \"#utility.yul\":16599:16605   */\n      0x00\n        /* \"#utility.yul\":16607:16613   */\n      dup1\n        /* \"#utility.yul\":16615:16621   */\n      0x00\n        /* \"#utility.yul\":16664:16667   */\n      0xa0\n        /* \"#utility.yul\":16652:16661   */\n      dup7\n        /* \"#utility.yul\":16643:16650   */\n      dup9\n        /* \"#utility.yul\":16639:16662   */\n      sub\n        /* \"#utility.yul\":16635:16668   */\n      slt\n        /* \"#utility.yul\":16632:16752   */\n      iszero\n      tag_596\n      jumpi\n        /* \"#utility.yul\":16671:16750   */\n      tag_597\n      tag_352\n      jump\t// in\n    tag_597:\n        /* \"#utility.yul\":16632:16752   */\n    tag_596:\n        /* \"#utility.yul\":16791:16792   */\n      0x00\n        /* \"#utility.yul\":16816:16869   */\n      tag_598\n        /* \"#utility.yul\":16861:16868   */\n      dup9\n        /* \"#utility.yul\":16852:16858   */\n      dup3\n        /* \"#utility.yul\":16841:16850   */\n      dup10\n        /* \"#utility.yul\":16837:16859   */\n      add\n        /* \"#utility.yul\":16816:16869   */\n      tag_357\n      jump\t// in\n    tag_598:\n        /* \"#utility.yul\":16806:16869   */\n      swap6\n      pop\n        /* \"#utility.yul\":16762:16879   */\n      pop\n        /* \"#utility.yul\":16918:16920   */\n      0x20\n        /* \"#utility.yul\":16944:16997   */\n      tag_599\n        /* \"#utility.yul\":16989:16996   */\n      dup9\n        /* \"#utility.yul\":16980:16986   */\n      dup3\n        /* \"#utility.yul\":16969:16978   */\n      dup10\n        /* \"#utility.yul\":16965:16987   */\n      add\n        /* \"#utility.yul\":16944:16997   */\n      tag_357\n      jump\t// in\n    tag_599:\n        /* \"#utility.yul\":16934:16997   */\n      swap5\n      pop\n        /* \"#utility.yul\":16889:17007   */\n      pop\n        /* \"#utility.yul\":17046:17048   */\n      0x40\n        /* \"#utility.yul\":17072:17125   */\n      tag_600\n        /* \"#utility.yul\":17117:17124   */\n      dup9\n        /* \"#utility.yul\":17108:17114   */\n      dup3\n        /* \"#utility.yul\":17097:17106   */\n      dup10\n        /* \"#utility.yul\":17093:17115   */\n      add\n        /* \"#utility.yul\":17072:17125   */\n      tag_360\n      jump\t// in\n    tag_600:\n        /* \"#utility.yul\":17062:17125   */\n      swap4\n      pop\n        /* \"#utility.yul\":17017:17135   */\n      pop\n        /* \"#utility.yul\":17174:17176   */\n      0x60\n        /* \"#utility.yul\":17200:17253   */\n      tag_601\n        /* \"#utility.yul\":17245:17252   */\n      dup9\n        /* \"#utility.yul\":17236:17242   */\n      dup3\n        /* \"#utility.yul\":17225:17234   */\n      dup10\n        /* \"#utility.yul\":17221:17243   */\n      add\n        /* \"#utility.yul\":17200:17253   */\n      tag_360\n      jump\t// in\n    tag_601:\n        /* \"#utility.yul\":17190:17253   */\n      swap3\n      pop\n        /* \"#utility.yul\":17145:17263   */\n      pop\n        /* \"#utility.yul\":17330:17333   */\n      0x80\n        /* \"#utility.yul\":17319:17328   */\n      dup7\n        /* \"#utility.yul\":17315:17334   */\n      add\n        /* \"#utility.yul\":17302:17335   */\n      calldataload\n        /* \"#utility.yul\":17362:17380   */\n      0xffffffffffffffff\n        /* \"#utility.yul\":17354:17360   */\n      dup2\n        /* \"#utility.yul\":17351:17381   */\n      gt\n        /* \"#utility.yul\":17348:17465   */\n      iszero\n      tag_602\n      jumpi\n        /* \"#utility.yul\":17384:17463   */\n      tag_603\n      tag_353\n      jump\t// in\n    tag_603:\n        /* \"#utility.yul\":17348:17465   */\n    tag_602:\n        /* \"#utility.yul\":17489:17551   */\n      tag_604\n        /* \"#utility.yul\":17543:17550   */\n      dup9\n        /* \"#utility.yul\":17534:17540   */\n      dup3\n        /* \"#utility.yul\":17523:17532   */\n      dup10\n        /* \"#utility.yul\":17519:17541   */\n      add\n        /* \"#utility.yul\":17489:17551   */\n      tag_383\n      jump\t// in\n    tag_604:\n        /* \"#utility.yul\":17479:17551   */\n      swap2\n      pop\n        /* \"#utility.yul\":17273:17561   */\n      pop\n        /* \"#utility.yul\":16479:17568   */\n      swap3\n      swap6\n      pop\n      swap3\n      swap6\n      swap1\n      swap4\n      pop\n      jump\t// out\n        /* \"#utility.yul\":17574:17903   */\n    tag_105:\n        /* \"#utility.yul\":17633:17639   */\n      0x00\n        /* \"#utility.yul\":17682:17684   */\n      0x20\n        /* \"#utility.yul\":17670:17679   */\n      dup3\n        /* \"#utility.yul\":17661:17668   */\n      dup5\n        /* \"#utility.yul\":17657:17680   */\n      sub\n        /* \"#utility.yul\":17653:17685   */\n      slt\n        /* \"#utility.yul\":17650:17769   */\n      iszero\n      tag_606\n      jumpi\n        /* \"#utility.yul\":17688:17767   */\n      tag_607\n      tag_352\n      jump\t// in\n    tag_607:\n        /* \"#utility.yul\":17650:17769   */\n    tag_606:\n        /* \"#utility.yul\":17808:17809   */\n      0x00\n        /* \"#utility.yul\":17833:17886   */\n      tag_608\n        /* \"#utility.yul\":17878:17885   */\n      dup5\n        /* \"#utility.yul\":17869:17875   */\n      dup3\n        /* \"#utility.yul\":17858:17867   */\n      dup6\n        /* \"#utility.yul\":17854:17876   */\n      add\n        /* \"#utility.yul\":17833:17886   */\n      tag_357\n      jump\t// in\n    tag_608:\n        /* \"#utility.yul\":17823:17886   */\n      swap2\n      pop\n        /* \"#utility.yul\":17779:17896   */\n      pop\n        /* \"#utility.yul\":17574:17903   */\n      swap3\n      swap2\n      pop\n      pop\n      jump\t// out\n        /* \"#utility.yul\":17909:18528   */\n    tag_109:\n        /* \"#utility.yul\":17986:17992   */\n      0x00\n        /* \"#utility.yul\":17994:18000   */\n      dup1\n        /* \"#utility.yul\":18002:18008   */\n      0x00\n        /* \"#utility.yul\":18051:18053   */\n      0x60\n        /* \"#utility.yul\":18039:18048   */\n      dup5\n        /* \"#utility.yul\":18030:18037   */\n      dup7\n        /* \"#utility.yul\":18026:18049   */\n      sub\n        /* \"#utility.yul\":18022:18054   */\n      slt\n        /* \"#utility.yul\":18019:18138   */\n      iszero\n      tag_610\n      jumpi\n        /* \"#utility.yul\":18057:18136   */\n      tag_611\n      tag_352\n      jump\t// in\n    tag_611:\n        /* \"#utility.yul\":18019:18138   */\n    tag_610:\n        /* \"#utility.yul\":18177:18178   */\n      0x00\n        /* \"#utility.yul\":18202:18255   */\n      tag_612\n        /* \"#utility.yul\":18247:18254   */\n      dup7\n        /* \"#utility.yul\":18238:18244   */\n      dup3\n        /* \"#utility.yul\":18227:18236   */\n      dup8\n        /* \"#utility.yul\":18223:18245   */\n      add\n        /* \"#utility.yul\":18202:18255   */\n      tag_357\n      jump\t// in\n    tag_612:\n        /* \"#utility.yul\":18192:18255   */\n      swap4\n      pop\n        /* \"#utility.yul\":18148:18265   */\n      pop\n        /* \"#utility.yul\":18304:18306   */\n      0x20\n        /* \"#utility.yul\":18330:18383   */\n      tag_613\n        /* \"#utility.yul\":18375:18382   */\n      dup7\n        /* \"#utility.yul\":18366:18372   */\n      dup3\n        /* \"#utility.yul\":18355:18364   */\n      dup8\n        /* \"#utility.yul\":18351:18373   */\n      add\n        /* \"#utility.yul\":18330:18383   */\n      tag_360\n      jump\t// in\n    tag_613:\n        /* \"#utility.yul\":18320:18383   */\n      swap3\n      pop\n        /* \"#utility.yul\":18275:18393   */\n      pop\n        /* \"#utility.yul\":18432:18434   */\n      0x40\n        /* \"#utility.yul\":18458:18511   */\n      tag_614\n        /* \"#utility.yul\":18503:18510   */\n      dup7\n        /* \"#utility.yul\":18494:18500   */\n      dup3\n        /* \"#utility.yul\":18483:18492   */\n      dup8\n        /* \"#utility.yul\":18479:18501   */\n      add\n        /* \"#utility.yul\":18458:18511   */\n      tag_360\n      jump\t// in\n    tag_614:\n        /* \"#utility.yul\":18448:18511   */\n      swap2\n      pop\n        /* \"#utility.yul\":18403:18521   */\n      pop\n        /* \"#utility.yul\":17909:18528   */\n      swap3\n      pop\n      swap3\n      pop\n      swap3\n      jump\t// out\n        /* \"#utility.yul\":18534:18682   */\n    tag_397:\n        /* \"#utility.yul\":18636:18647   */\n      0x00\n        /* \"#utility.yul\":18673:18676   */\n      dup2\n        /* \"#utility.yul\":18658:18676   */\n      swap1\n      pop\n        /* \"#utility.yul\":18534:18682   */\n      swap3\n      swap2\n      pop\n      pop\n      jump\t// out\n        /* \"#utility.yul\":18688:19078   */\n    tag_398:\n        /* \"#utility.yul\":18794:18797   */\n      0x00\n        /* \"#utility.yul\":18822:18861   */\n      tag_617\n        /* \"#utility.yul\":18855:18860   */\n      dup3\n        /* \"#utility.yul\":18822:18861   */\n      tag_367\n      jump\t// in\n    tag_617:\n        /* \"#utility.yul\":18877:18966   */\n      tag_618\n        /* \"#utility.yul\":18959:18965   */\n      dup2\n        /* \"#utility.yul\":18954:18957   */\n      dup6\n        /* \"#utility.yul\":18877:18966   */\n      tag_397\n      jump\t// in\n    tag_618:\n        /* \"#utility.yul\":18870:18966   */\n      swap4\n      pop\n        /* \"#utility.yul\":18975:19040   */\n      tag_619\n        /* \"#utility.yul\":19033:19039   */\n      dup2\n        /* \"#utility.yul\":19028:19031   */\n      dup6\n        /* \"#utility.yul\":19021:19025   */\n      0x20\n        /* \"#utility.yul\":19014:19019   */\n      dup7\n        /* \"#utility.yul\":19010:19026   */\n      add\n        /* \"#utility.yul\":18975:19040   */\n      tag_369\n      jump\t// in\n    tag_619:\n        /* \"#utility.yul\":19065:19071   */\n      dup1\n        /* \"#utility.yul\":19060:19063   */\n      dup5\n        /* \"#utility.yul\":19056:19072   */\n      add\n        /* \"#utility.yul\":19049:19072   */\n      swap2\n      pop\n        /* \"#utility.yul\":18798:19078   */\n      pop\n        /* \"#utility.yul\":18688:19078   */\n      swap3\n      swap2\n      pop\n      pop\n      jump\t// out\n        /* \"#utility.yul\":19084:19519   */\n    tag_123:\n        /* \"#utility.yul\":19264:19267   */\n      0x00\n        /* \"#utility.yul\":19286:19381   */\n      tag_621\n        /* \"#utility.yul\":19377:19380   */\n      dup3\n        /* \"#utility.yul\":19368:19374   */\n      dup6\n        /* \"#utility.yul\":19286:19381   */\n      tag_398\n      jump\t// in\n    tag_621:\n        /* \"#utility.yul\":19279:19381   */\n      swap2\n      pop\n        /* \"#utility.yul\":19398:19493   */\n      tag_622\n        /* \"#utility.yul\":19489:19492   */\n      dup3\n        /* \"#utility.yul\":19480:19486   */\n      dup5\n        /* \"#utility.yul\":19398:19493   */\n      tag_398\n      jump\t// in\n    tag_622:\n        /* \"#utility.yul\":19391:19493   */\n      swap2\n      pop\n        /* \"#utility.yul\":19510:19513   */\n      dup2\n        /* \"#utility.yul\":19503:19513   */\n      swap1\n      pop\n        /* \"#utility.yul\":19084:19519   */\n      swap4\n      swap3\n      pop\n      pop\n      pop\n      jump\t// out\n        /* \"#utility.yul\":19525:19691   */\n    tag_399:\n        /* \"#utility.yul\":19665:19683   */\n      0x496e76616c696420746f6b656e20494400000000000000000000000000000000\n        /* \"#utility.yul\":19661:19662   */\n      0x00\n        /* \"#utility.yul\":19653:19659   */\n      dup3\n        /* \"#utility.yul\":19649:19663   */\n      add\n        /* \"#utility.yul\":19642:19684   */\n      mstore\n        /* \"#utility.yul\":19525:19691   */\n      pop\n      jump\t// out\n        /* \"#utility.yul\":19697:20063   */\n    tag_400:\n        /* \"#utility.yul\":19839:19842   */\n      0x00\n        /* \"#utility.yul\":19860:19927   */\n      tag_625\n        /* \"#utility.yul\":19924:19926   */\n      0x10\n        /* \"#utility.yul\":19919:19922   */\n      dup4\n        /* \"#utility.yul\":19860:19927   */\n      tag_368\n      jump\t// in\n    tag_625:\n        /* \"#utility.yul\":19853:19927   */\n      swap2\n      pop\n        /* \"#utility.yul\":19936:20029   */\n      tag_626\n        /* \"#utility.yul\":20025:20028   */\n      dup3\n        /* \"#utility.yul\":19936:20029   */\n      tag_399\n      jump\t// in\n    tag_626:\n        /* \"#utility.yul\":20054:20056   */\n      0x20\n        /* \"#utility.yul\":20049:20052   */\n      dup3\n        /* \"#utility.yul\":20045:20057   */\n      add\n        /* \"#utility.yul\":20038:20057   */\n      swap1\n      pop\n        /* \"#utility.yul\":19697:20063   */\n      swap2\n      swap1\n      pop\n      jump\t// out\n        /* \"#utility.yul\":20069:20488   */\n    tag_128:\n        /* \"#utility.yul\":20235:20239   */\n      0x00\n        /* \"#utility.yul\":20273:20275   */\n      0x20\n        /* \"#utility.yul\":20262:20271   */\n      dup3\n        /* \"#utility.yul\":20258:20276   */\n      add\n        /* \"#utility.yul\":20250:20276   */\n      swap1\n      pop\n        /* \"#utility.yul\":20322:20331   */\n      dup2\n        /* \"#utility.yul\":20316:20320   */\n      dup2\n        /* \"#utility.yul\":20312:20332   */\n      sub\n        /* \"#utility.yul\":20308:20309   */\n      0x00\n        /* \"#utility.yul\":20297:20306   */\n      dup4\n        /* \"#utility.yul\":20293:20310   */\n      add\n        /* \"#utility.yul\":20286:20333   */\n      mstore\n        /* \"#utility.yul\":20350:20481   */\n      tag_628\n        /* \"#utility.yul\":20476:20480   */\n      dup2\n        /* \"#utility.yul\":20350:20481   */\n      tag_400\n      jump\t// in\n    tag_628:\n        /* \"#utility.yul\":20342:20481   */\n      swap1\n      pop\n        /* \"#utility.yul\":20069:20488   */\n      swap2\n      swap1\n      pop\n      jump\t// out\n        /* \"#utility.yul\":20494:20674   */\n    tag_401:\n        /* \"#utility.yul\":20542:20619   */\n      0x4e487b7100000000000000000000000000000000000000000000000000000000\n        /* \"#utility.yul\":20539:20540   */\n      0x00\n        /* \"#utility.yul\":20532:20620   */\n      mstore\n        /* \"#utility.yul\":20639:20643   */\n      0x11\n        /* \"#utility.yul\":20636:20637   */\n      0x04\n        /* \"#utility.yul\":20629:20644   */\n      mstore\n        /* \"#utility.yul\":20663:20667   */\n      0x24\n        /* \"#utility.yul\":20660:20661   */\n      0x00\n        /* \"#utility.yul\":20653:20668   */\n      revert\n        /* \"#utility.yul\":20680:20871   */\n    tag_130:\n        /* \"#utility.yul\":20720:20723   */\n      0x00\n        /* \"#utility.yul\":20739:20759   */\n      tag_631\n        /* \"#utility.yul\":20757:20758   */\n      dup3\n        /* \"#utility.yul\":20739:20759   */\n      tag_358\n      jump\t// in\n    tag_631:\n        /* \"#utility.yul\":20734:20759   */\n      swap2\n      pop\n        /* \"#utility.yul\":20773:20793   */\n      tag_632\n        /* \"#utility.yul\":20791:20792   */\n      dup4\n        /* \"#utility.yul\":20773:20793   */\n      tag_358\n      jump\t// in\n    tag_632:\n        /* \"#utility.yul\":20768:20793   */\n      swap3\n      pop\n        /* \"#utility.yul\":20816:20817   */\n      dup3\n        /* \"#utility.yul\":20813:20814   */\n      dup3\n        /* \"#utility.yul\":20809:20818   */\n      add\n        /* \"#utility.yul\":20802:20818   */\n      swap1\n      pop\n        /* \"#utility.yul\":20837:20840   */\n      dup1\n        /* \"#utility.yul\":20834:20835   */\n      dup3\n        /* \"#utility.yul\":20831:20841   */\n      gt\n        /* \"#utility.yul\":20828:20864   */\n      iszero\n      tag_633\n      jumpi\n        /* \"#utility.yul\":20844:20862   */\n      tag_634\n      tag_401\n      jump\t// in\n    tag_634:\n        /* \"#utility.yul\":20828:20864   */\n    tag_633:\n        /* \"#utility.yul\":20680:20871   */\n      swap3\n      swap2\n      pop\n      pop\n      jump\t// out\n        /* \"#utility.yul\":20877:21040   */\n    tag_402:\n        /* \"#utility.yul\":21017:21032   */\n      0x4d696e7420636f6f6c646f776e00000000000000000000000000000000000000\n        /* \"#utility.yul\":21013:21014   */\n      0x00\n        /* \"#utility.yul\":21005:21011   */\n      dup3\n        /* \"#utility.yul\":21001:21015   */\n      add\n        /* \"#utility.yul\":20994:21033   */\n      mstore\n        /* \"#utility.yul\":20877:21040   */\n      pop\n      jump\t// out\n        /* \"#utility.yul\":21046:21412   */\n    tag_403:\n        /* \"#utility.yul\":21188:21191   */\n      0x00\n        /* \"#utility.yul\":21209:21276   */\n      tag_637\n        /* \"#utility.yul\":21273:21275   */\n      0x0d\n        /* \"#utility.yul\":21268:21271   */\n      dup4\n        /* \"#utility.yul\":21209:21276   */\n      tag_368\n      jump\t// in\n    tag_637:\n        /* \"#utility.yul\":21202:21276   */\n      swap2\n      pop\n        /* \"#utility.yul\":21285:21378   */\n      tag_638\n        /* \"#utility.yul\":21374:21377   */\n      dup3\n        /* \"#utility.yul\":21285:21378   */\n      tag_402\n      jump\t// in\n    tag_638:\n        /* \"#utility.yul\":21403:21405   */\n      0x20\n        /* \"#utility.yul\":21398:21401   */\n      dup3\n        /* \"#utility.yul\":21394:21406   */\n      add\n        /* \"#utility.yul\":21387:21406   */\n      swap1\n      pop\n        /* \"#utility.yul\":21046:21412   */\n      swap2\n      swap1\n      pop\n      jump\t// out\n        /* \"#utility.yul\":21418:21837   */\n    tag_133:\n        /* \"#utility.yul\":21584:21588   */\n      0x00\n        /* \"#utility.yul\":21622:21624   */\n      0x20\n        /* \"#utility.yul\":21611:21620   */\n      dup3\n        /* \"#utility.yul\":21607:21625   */\n      add\n        /* \"#utility.yul\":21599:21625   */\n      swap1\n      pop\n        /* \"#utility.yul\":21671:21680   */\n      dup2\n        /* \"#utility.yul\":21665:21669   */\n      dup2\n        /* \"#utility.yul\":21661:21681   */\n      sub\n        /* \"#utility.yul\":21657:21658   */\n      0x00\n        /* \"#utility.yul\":21646:21655   */\n      dup4\n        /* \"#utility.yul\":21642:21659   */\n      add\n        /* \"#utility.yul\":21635:21682   */\n      mstore\n        /* \"#utility.yul\":21699:21830   */\n      tag_640\n        /* \"#utility.yul\":21825:21829   */\n      dup2\n        /* \"#utility.yul\":21699:21830   */\n      tag_403\n      jump\t// in\n    tag_640:\n        /* \"#utility.yul\":21691:21830   */\n      swap1\n      pop\n        /* \"#utility.yul\":21418:21837   */\n      swap2\n      swap1\n      pop\n      jump\t// out\n        /* \"#utility.yul\":21843:22175   */\n    tag_143:\n        /* \"#utility.yul\":21964:21968   */\n      0x00\n        /* \"#utility.yul\":22002:22004   */\n      0x40\n        /* \"#utility.yul\":21991:22000   */\n      dup3\n        /* \"#utility.yul\":21987:22005   */\n      add\n        /* \"#utility.yul\":21979:22005   */\n      swap1\n      pop\n        /* \"#utility.yul\":22015:22086   */\n      tag_642\n        /* \"#utility.yul\":22083:22084   */\n      0x00\n        /* \"#utility.yul\":22072:22081   */\n      dup4\n        /* \"#utility.yul\":22068:22085   */\n      add\n        /* \"#utility.yul\":22059:22065   */\n      dup6\n        /* \"#utility.yul\":22015:22086   */\n      tag_394\n      jump\t// in\n    tag_642:\n        /* \"#utility.yul\":22096:22168   */\n      tag_643\n        /* \"#utility.yul\":22164:22166   */\n      0x20\n        /* \"#utility.yul\":22153:22162   */\n      dup4\n        /* \"#utility.yul\":22149:22167   */\n      add\n        /* \"#utility.yul\":22140:22146   */\n      dup5\n        /* \"#utility.yul\":22096:22168   */\n      tag_394\n      jump\t// in\n    tag_643:\n        /* \"#utility.yul\":21843:22175   */\n      swap4\n      swap3\n      pop\n      pop\n      pop\n      jump\t// out\n        /* \"#utility.yul\":22181:22513   */\n    tag_149:\n        /* \"#utility.yul\":22302:22306   */\n      0x00\n        /* \"#utility.yul\":22340:22342   */\n      0x40\n        /* \"#utility.yul\":22329:22338   */\n      dup3\n        /* \"#utility.yul\":22325:22343   */\n      add\n        /* \"#utility.yul\":22317:22343   */\n      swap1\n      pop\n        /* \"#utility.yul\":22353:22424   */\n      tag_645\n        /* \"#utility.yul\":22421:22422   */\n      0x00\n        /* \"#utility.yul\":22410:22419   */\n      dup4\n        /* \"#utility.yul\":22406:22423   */\n      add\n        /* \"#utility.yul\":22397:22403   */\n      dup6\n        /* \"#utility.yul\":22353:22424   */\n      tag_361\n      jump\t// in\n    tag_645:\n        /* \"#utility.yul\":22434:22506   */\n      tag_646\n        /* \"#utility.yul\":22502:22504   */\n      0x20\n        /* \"#utility.yul\":22491:22500   */\n      dup4\n        /* \"#utility.yul\":22487:22505   */\n      add\n        /* \"#utility.yul\":22478:22484   */\n      dup5\n        /* \"#utility.yul\":22434:22506   */\n      tag_361\n      jump\t// in\n    tag_646:\n        /* \"#utility.yul\":22181:22513   */\n      swap4\n      swap3\n      pop\n      pop\n      pop\n      jump\t// out\n        /* \"#utility.yul\":22519:22699   */\n    tag_164:\n        /* \"#utility.yul\":22567:22644   */\n      0x4e487b7100000000000000000000000000000000000000000000000000000000\n        /* \"#utility.yul\":22564:22565   */\n      0x00\n        /* \"#utility.yul\":22557:22645   */\n      mstore\n        /* \"#utility.yul\":22664:22668   */\n      0x32\n        /* \"#utility.yul\":22661:22662   */\n      0x04\n        /* \"#utility.yul\":22654:22669   */\n      mstore\n        /* \"#utility.yul\":22688:22692   */\n      0x24\n        /* \"#utility.yul\":22685:22686   */\n      0x00\n        /* \"#utility.yul\":22678:22693   */\n      revert\n        /* \"#utility.yul\":22705:22887   */\n    tag_404:\n        /* \"#utility.yul\":22845:22879   */\n      0x43616c6c6572206973206e6f74206f776e6572206e6f7220617070726f766564\n        /* \"#utility.yul\":22841:22842   */\n      0x00\n        /* \"#utility.yul\":22833:22839   */\n      dup3\n        /* \"#utility.yul\":22829:22843   */\n      add\n        /* \"#utility.yul\":22822:22880   */\n      mstore\n        /* \"#utility.yul\":22705:22887   */\n      pop\n      jump\t// out\n        /* \"#utility.yul\":22893:23259   */\n    tag_405:\n        /* \"#utility.yul\":23035:23038   */\n      0x00\n        /* \"#utility.yul\":23056:23123   */\n      tag_650\n        /* \"#utility.yul\":23120:23122   */\n      0x20\n        /* \"#utility.yul\":23115:23118   */\n      dup4\n        /* \"#utility.yul\":23056:23123   */\n      tag_368\n      jump\t// in\n    tag_650:\n        /* \"#utility.yul\":23049:23123   */\n      swap2\n      pop\n        /* \"#utility.yul\":23132:23225   */\n      tag_651\n        /* \"#utility.yul\":23221:23224   */\n      dup3\n        /* \"#utility.yul\":23132:23225   */\n      tag_404\n      jump\t// in\n    tag_651:\n        /* \"#utility.yul\":23250:23252   */\n      0x20\n        /* \"#utility.yul\":23245:23248   */\n      dup3\n        /* \"#utility.yul\":23241:23253   */\n      add\n        /* \"#utility.yul\":23234:23253   */\n      swap1\n      pop\n        /* \"#utility.yul\":22893:23259   */\n      swap2\n      swap1\n      pop\n      jump\t// out\n        /* \"#utility.yul\":23265:23684   */\n    tag_196:\n        /* \"#utility.yul\":23431:23435   */\n      0x00\n        /* \"#utility.yul\":23469:23471   */\n      0x20\n        /* \"#utility.yul\":23458:23467   */\n      dup3\n        /* \"#utility.yul\":23454:23472   */\n      add\n        /* \"#utility.yul\":23446:23472   */\n      swap1\n      pop\n        /* \"#utility.yul\":23518:23527   */\n      dup2\n        /* \"#utility.yul\":23512:23516   */\n      dup2\n        /* \"#utility.yul\":23508:23528   */\n      sub\n        /* \"#utility.yul\":23504:23505   */\n      0x00\n        /* \"#utility.yul\":23493:23502   */\n      dup4\n        /* \"#utility.yul\":23489:23506   */\n      add\n        /* \"#utility.yul\":23482:23529   */\n      mstore\n        /* \"#utility.yul\":23546:23677   */\n      tag_653\n        /* \"#utility.yul\":23672:23676   */\n      dup2\n        /* \"#utility.yul\":23546:23677   */\n      tag_405\n      jump\t// in\n    tag_653:\n        /* \"#utility.yul\":23538:23677   */\n      swap1\n      pop\n        /* \"#utility.yul\":23265:23684   */\n      swap2\n      swap1\n      pop\n      jump\t// out\n        /* \"#utility.yul\":23690:23870   */\n    tag_406:\n        /* \"#utility.yul\":23738:23815   */\n      0x4e487b7100000000000000000000000000000000000000000000000000000000\n        /* \"#utility.yul\":23735:23736   */\n      0x00\n        /* \"#utility.yul\":23728:23816   */\n      mstore\n        /* \"#utility.yul\":23835:23839   */\n      0x22\n        /* \"#utility.yul\":23832:23833   */\n      0x04\n        /* \"#utility.yul\":23825:23840   */\n      mstore\n        /* \"#utility.yul\":23859:23863   */\n      0x24\n        /* \"#utility.yul\":23856:23857   */\n      0x00\n        /* \"#utility.yul\":23849:23864   */\n      revert\n        /* \"#utility.yul\":23876:24196   */\n    tag_202:\n        /* \"#utility.yul\":23920:23926   */\n      0x00\n        /* \"#utility.yul\":23957:23958   */\n      0x02\n        /* \"#utility.yul\":23951:23955   */\n      dup3\n        /* \"#utility.yul\":23947:23959   */\n      div\n        /* \"#utility.yul\":23937:23959   */\n      swap1\n      pop\n        /* \"#utility.yul\":24004:24005   */\n      0x01\n        /* \"#utility.yul\":23998:24002   */\n      dup3\n        /* \"#utility.yul\":23994:24006   */\n      and\n        /* \"#utility.yul\":24025:24043   */\n      dup1\n        /* \"#utility.yul\":24015:24096   */\n      tag_656\n      jumpi\n        /* \"#utility.yul\":24081:24085   */\n      0x7f\n        /* \"#utility.yul\":24073:24079   */\n      dup3\n        /* \"#utility.yul\":24069:24086   */\n      and\n        /* \"#utility.yul\":24059:24086   */\n      swap2\n      pop\n        /* \"#utility.yul\":24015:24096   */\n    tag_656:\n        /* \"#utility.yul\":24143:24145   */\n      0x20\n        /* \"#utility.yul\":24135:24141   */\n      dup3\n        /* \"#utility.yul\":24132:24146   */\n      lt\n        /* \"#utility.yul\":24112:24130   */\n      dup2\n        /* \"#utility.yul\":24109:24147   */\n      sub\n        /* \"#utility.yul\":24106:24190   */\n      tag_657\n      jumpi\n        /* \"#utility.yul\":24162:24180   */\n      tag_658\n      tag_406\n      jump\t// in\n    tag_658:\n        /* \"#utility.yul\":24106:24190   */\n    tag_657:\n        /* \"#utility.yul\":23927:24196   */\n      pop\n        /* \"#utility.yul\":23876:24196   */\n      swap2\n      swap1\n      pop\n      jump\t// out\n        /* \"#utility.yul\":24202:24382   */\n    tag_217:\n        /* \"#utility.yul\":24250:24327   */\n      0x4e487b7100000000000000000000000000000000000000000000000000000000\n        /* \"#utility.yul\":24247:24248   */\n      0x00\n        /* \"#utility.yul\":24240:24328   */\n      mstore\n        /* \"#utility.yul\":24347:24351   */\n      0x12\n        /* \"#utility.yul\":24344:24345   */\n      0x04\n        /* \"#utility.yul\":24337:24352   */\n      mstore\n        /* \"#utility.yul\":24371:24375   */\n      0x24\n        /* \"#utility.yul\":24368:24369   */\n      0x00\n        /* \"#utility.yul\":24361:24376   */\n      revert\n        /* \"#utility.yul\":24388:24941   */\n    tag_304:\n        /* \"#utility.yul\":24565:24569   */\n      0x00\n        /* \"#utility.yul\":24603:24606   */\n      0x80\n        /* \"#utility.yul\":24592:24601   */\n      dup3\n        /* \"#utility.yul\":24588:24607   */\n      add\n        /* \"#utility.yul\":24580:24607   */\n      swap1\n      pop\n        /* \"#utility.yul\":24617:24688   */\n      tag_661\n        /* \"#utility.yul\":24685:24686   */\n      0x00\n        /* \"#utility.yul\":24674:24683   */\n      dup4\n        /* \"#utility.yul\":24670:24687   */\n      add\n        /* \"#utility.yul\":24661:24667   */\n      dup8\n        /* \"#utility.yul\":24617:24688   */\n      tag_394\n      jump\t// in\n    tag_661:\n        /* \"#utility.yul\":24698:24770   */\n      tag_662\n        /* \"#utility.yul\":24766:24768   */\n      0x20\n        /* \"#utility.yul\":24755:24764   */\n      dup4\n        /* \"#utility.yul\":24751:24769   */\n      add\n        /* \"#utility.yul\":24742:24748   */\n      dup7\n        /* \"#utility.yul\":24698:24770   */\n      tag_361\n      jump\t// in\n    tag_662:\n        /* \"#utility.yul\":24780:24852   */\n      tag_663\n        /* \"#utility.yul\":24848:24850   */\n      0x40\n        /* \"#utility.yul\":24837:24846   */\n      dup4\n        /* \"#utility.yul\":24833:24851   */\n      add\n        /* \"#utility.yul\":24824:24830   */\n      dup6\n        /* \"#utility.yul\":24780:24852   */\n      tag_361\n      jump\t// in\n    tag_663:\n        /* \"#utility.yul\":24862:24934   */\n      tag_664\n        /* \"#utility.yul\":24930:24932   */\n      0x60\n        /* \"#utility.yul\":24919:24928   */\n      dup4\n        /* \"#utility.yul\":24915:24933   */\n      add\n        /* \"#utility.yul\":24906:24912   */\n      dup5\n        /* \"#utility.yul\":24862:24934   */\n      tag_361\n      jump\t// in\n    tag_664:\n        /* \"#utility.yul\":24388:24941   */\n      swap6\n      swap5\n      pop\n      pop\n      pop\n      pop\n      pop\n      jump\t// out\n        /* \"#utility.yul\":24947:25581   */\n    tag_313:\n        /* \"#utility.yul\":25168:25172   */\n      0x00\n        /* \"#utility.yul\":25206:25208   */\n      0x40\n        /* \"#utility.yul\":25195:25204   */\n      dup3\n        /* \"#utility.yul\":25191:25209   */\n      add\n        /* \"#utility.yul\":25183:25209   */\n      swap1\n      pop\n        /* \"#utility.yul\":25255:25264   */\n      dup2\n        /* \"#utility.yul\":25249:25253   */\n      dup2\n        /* \"#utility.yul\":25245:25265   */\n      sub\n        /* \"#utility.yul\":25241:25242   */\n      0x00\n        /* \"#utility.yul\":25230:25239   */\n      dup4\n        /* \"#utility.yul\":25226:25243   */\n      add\n        /* \"#utility.yul\":25219:25266   */\n      mstore\n        /* \"#utility.yul\":25283:25391   */\n      tag_666\n        /* \"#utility.yul\":25386:25390   */\n      dup2\n        /* \"#utility.yul\":25377:25383   */\n      dup6\n        /* \"#utility.yul\":25283:25391   */\n      tag_393\n      jump\t// in\n    tag_666:\n        /* \"#utility.yul\":25275:25391   */\n      swap1\n      pop\n        /* \"#utility.yul\":25438:25447   */\n      dup2\n        /* \"#utility.yul\":25432:25436   */\n      dup2\n        /* \"#utility.yul\":25428:25448   */\n      sub\n        /* \"#utility.yul\":25423:25425   */\n      0x20\n        /* \"#utility.yul\":25412:25421   */\n      dup4\n        /* \"#utility.yul\":25408:25426   */\n      add\n        /* \"#utility.yul\":25401:25449   */\n      mstore\n        /* \"#utility.yul\":25466:25574   */\n      tag_667\n        /* \"#utility.yul\":25569:25573   */\n      dup2\n        /* \"#utility.yul\":25560:25566   */\n      dup5\n        /* \"#utility.yul\":25466:25574   */\n      tag_393\n      jump\t// in\n    tag_667:\n        /* \"#utility.yul\":25458:25574   */\n      swap1\n      pop\n        /* \"#utility.yul\":24947:25581   */\n      swap4\n      swap3\n      pop\n      pop\n      pop\n      jump\t// out\n        /* \"#utility.yul\":25587:25685   */\n    tag_407:\n        /* \"#utility.yul\":25638:25644   */\n      0x00\n        /* \"#utility.yul\":25672:25677   */\n      dup2\n        /* \"#utility.yul\":25666:25678   */\n      mload\n        /* \"#utility.yul\":25656:25678   */\n      swap1\n      pop\n        /* \"#utility.yul\":25587:25685   */\n      swap2\n      swap1\n      pop\n      jump\t// out\n        /* \"#utility.yul\":25691:25859   */\n    tag_408:\n        /* \"#utility.yul\":25774:25785   */\n      0x00\n        /* \"#utility.yul\":25808:25814   */\n      dup3\n        /* \"#utility.yul\":25803:25806   */\n      dup3\n        /* \"#utility.yul\":25796:25815   */\n      mstore\n        /* \"#utility.yul\":25848:25852   */\n      0x20\n        /* \"#utility.yul\":25843:25846   */\n      dup3\n        /* \"#utility.yul\":25839:25853   */\n      add\n        /* \"#utility.yul\":25824:25853   */\n      swap1\n      pop\n        /* \"#utility.yul\":25691:25859   */\n      swap3\n      swap2\n      pop\n      pop\n      jump\t// out\n        /* \"#utility.yul\":25865:26238   */\n    tag_409:\n        /* \"#utility.yul\":25951:25954   */\n      0x00\n        /* \"#utility.yul\":25979:26017   */\n      tag_671\n        /* \"#utility.yul\":26011:26016   */\n      dup3\n        /* \"#utility.yul\":25979:26017   */\n      tag_407\n      jump\t// in\n    tag_671:\n        /* \"#utility.yul\":26033:26103   */\n      tag_672\n        /* \"#utility.yul\":26096:26102   */\n      dup2\n        /* \"#utility.yul\":26091:26094   */\n      dup6\n        /* \"#utility.yul\":26033:26103   */\n      tag_408\n      jump\t// in\n    tag_672:\n        /* \"#utility.yul\":26026:26103   */\n      swap4\n      pop\n        /* \"#utility.yul\":26112:26177   */\n      tag_673\n        /* \"#utility.yul\":26170:26176   */\n      dup2\n        /* \"#utility.yul\":26165:26168   */\n      dup6\n        /* \"#utility.yul\":26158:26162   */\n      0x20\n        /* \"#utility.yul\":26151:26156   */\n      dup7\n        /* \"#utility.yul\":26147:26163   */\n      add\n        /* \"#utility.yul\":26112:26177   */\n      tag_369\n      jump\t// in\n    tag_673:\n        /* \"#utility.yul\":26202:26231   */\n      tag_674\n        /* \"#utility.yul\":26224:26230   */\n      dup2\n        /* \"#utility.yul\":26202:26231   */\n      tag_370\n      jump\t// in\n    tag_674:\n        /* \"#utility.yul\":26197:26200   */\n      dup5\n        /* \"#utility.yul\":26193:26232   */\n      add\n        /* \"#utility.yul\":26186:26232   */\n      swap2\n      pop\n        /* \"#utility.yul\":25955:26238   */\n      pop\n        /* \"#utility.yul\":25865:26238   */\n      swap3\n      swap2\n      pop\n      pop\n      jump\t// out\n        /* \"#utility.yul\":26244:26995   */\n    tag_317:\n        /* \"#utility.yul\":26467:26471   */\n      0x00\n        /* \"#utility.yul\":26505:26508   */\n      0xa0\n        /* \"#utility.yul\":26494:26503   */\n      dup3\n        /* \"#utility.yul\":26490:26509   */\n      add\n        /* \"#utility.yul\":26482:26509   */\n      swap1\n      pop\n        /* \"#utility.yul\":26519:26590   */\n      tag_676\n        /* \"#utility.yul\":26587:26588   */\n      0x00\n        /* \"#utility.yul\":26576:26585   */\n      dup4\n        /* \"#utility.yul\":26572:26589   */\n      add\n        /* \"#utility.yul\":26563:26569   */\n      dup9\n        /* \"#utility.yul\":26519:26590   */\n      tag_394\n      jump\t// in\n    tag_676:\n        /* \"#utility.yul\":26600:26672   */\n      tag_677\n        /* \"#utility.yul\":26668:26670   */\n      0x20\n        /* \"#utility.yul\":26657:26666   */\n      dup4\n        /* \"#utility.yul\":26653:26671   */\n      add\n        /* \"#utility.yul\":26644:26650   */\n      dup8\n        /* \"#utility.yul\":26600:26672   */\n      tag_394\n      jump\t// in\n    tag_677:\n        /* \"#utility.yul\":26682:26754   */\n      tag_678\n        /* \"#utility.yul\":26750:26752   */\n      0x40\n        /* \"#utility.yul\":26739:26748   */\n      dup4\n        /* \"#utility.yul\":26735:26753   */\n      add\n        /* \"#utility.yul\":26726:26732   */\n      dup7\n        /* \"#utility.yul\":26682:26754   */\n      tag_361\n      jump\t// in\n    tag_678:\n        /* \"#utility.yul\":26764:26836   */\n      tag_679\n        /* \"#utility.yul\":26832:26834   */\n      0x60\n        /* \"#utility.yul\":26821:26830   */\n      dup4\n        /* \"#utility.yul\":26817:26835   */\n      add\n        /* \"#utility.yul\":26808:26814   */\n      dup6\n        /* \"#utility.yul\":26764:26836   */\n      tag_361\n      jump\t// in\n    tag_679:\n        /* \"#utility.yul\":26884:26893   */\n      dup2\n        /* \"#utility.yul\":26878:26882   */\n      dup2\n        /* \"#utility.yul\":26874:26894   */\n      sub\n        /* \"#utility.yul\":26868:26871   */\n      0x80\n        /* \"#utility.yul\":26857:26866   */\n      dup4\n        /* \"#utility.yul\":26853:26872   */\n      add\n        /* \"#utility.yul\":26846:26895   */\n      mstore\n        /* \"#utility.yul\":26912:26988   */\n      tag_680\n        /* \"#utility.yul\":26983:26987   */\n      dup2\n        /* \"#utility.yul\":26974:26980   */\n      dup5\n        /* \"#utility.yul\":26912:26988   */\n      tag_409\n      jump\t// in\n    tag_680:\n        /* \"#utility.yul\":26904:26988   */\n      swap1\n      pop\n        /* \"#utility.yul\":26244:26995   */\n      swap7\n      swap6\n      pop\n      pop\n      pop\n      pop\n      pop\n      pop\n      jump\t// out\n        /* \"#utility.yul\":27001:27142   */\n    tag_410:\n        /* \"#utility.yul\":27057:27062   */\n      0x00\n        /* \"#utility.yul\":27088:27094   */\n      dup2\n        /* \"#utility.yul\":27082:27095   */\n      mload\n        /* \"#utility.yul\":27073:27095   */\n      swap1\n      pop\n        /* \"#utility.yul\":27104:27136   */\n      tag_682\n        /* \"#utility.yul\":27130:27135   */\n      dup2\n        /* \"#utility.yul\":27104:27136   */\n      tag_363\n      jump\t// in\n    tag_682:\n        /* \"#utility.yul\":27001:27142   */\n      swap3\n      swap2\n      pop\n      pop\n      jump\t// out\n        /* \"#utility.yul\":27148:27497   */\n    tag_320:\n        /* \"#utility.yul\":27217:27223   */\n      0x00\n        /* \"#utility.yul\":27266:27268   */\n      0x20\n        /* \"#utility.yul\":27254:27263   */\n      dup3\n        /* \"#utility.yul\":27245:27252   */\n      dup5\n        /* \"#utility.yul\":27241:27264   */\n      sub\n        /* \"#utility.yul\":27237:27269   */\n      slt\n        /* \"#utility.yul\":27234:27353   */\n      iszero\n      tag_684\n      jumpi\n        /* \"#utility.yul\":27272:27351   */\n      tag_685\n      tag_352\n      jump\t// in\n    tag_685:\n        /* \"#utility.yul\":27234:27353   */\n    tag_684:\n        /* \"#utility.yul\":27392:27393   */\n      0x00\n        /* \"#utility.yul\":27417:27480   */\n      tag_686\n        /* \"#utility.yul\":27472:27479   */\n      dup5\n        /* \"#utility.yul\":27463:27469   */\n      dup3\n        /* \"#utility.yul\":27452:27461   */\n      dup6\n        /* \"#utility.yul\":27448:27470   */\n      add\n        /* \"#utility.yul\":27417:27480   */\n      tag_410\n      jump\t// in\n    tag_686:\n        /* \"#utility.yul\":27407:27480   */\n      swap2\n      pop\n        /* \"#utility.yul\":27363:27490   */\n      pop\n        /* \"#utility.yul\":27148:27497   */\n      swap3\n      swap2\n      pop\n      pop\n      jump\t// out\n        /* \"#utility.yul\":27503:28556   */\n    tag_336:\n        /* \"#utility.yul\":27826:27830   */\n      0x00\n        /* \"#utility.yul\":27864:27867   */\n      0xa0\n        /* \"#utility.yul\":27853:27862   */\n      dup3\n        /* \"#utility.yul\":27849:27868   */\n      add\n        /* \"#utility.yul\":27841:27868   */\n      swap1\n      pop\n        /* \"#utility.yul\":27878:27949   */\n      tag_688\n        /* \"#utility.yul\":27946:27947   */\n      0x00\n        /* \"#utility.yul\":27935:27944   */\n      dup4\n        /* \"#utility.yul\":27931:27948   */\n      add\n        /* \"#utility.yul\":27922:27928   */\n      dup9\n        /* \"#utility.yul\":27878:27949   */\n      tag_394\n      jump\t// in\n    tag_688:\n        /* \"#utility.yul\":27959:28031   */\n      tag_689\n        /* \"#utility.yul\":28027:28029   */\n      0x20\n        /* \"#utility.yul\":28016:28025   */\n      dup4\n        /* \"#utility.yul\":28012:28030   */\n      add\n        /* \"#utility.yul\":28003:28009   */\n      dup8\n        /* \"#utility.yul\":27959:28031   */\n      tag_394\n      jump\t// in\n    tag_689:\n        /* \"#utility.yul\":28078:28087   */\n      dup2\n        /* \"#utility.yul\":28072:28076   */\n      dup2\n        /* \"#utility.yul\":28068:28088   */\n      sub\n        /* \"#utility.yul\":28063:28065   */\n      0x40\n        /* \"#utility.yul\":28052:28061   */\n      dup4\n        /* \"#utility.yul\":28048:28066   */\n      add\n        /* \"#utility.yul\":28041:28089   */\n      mstore\n        /* \"#utility.yul\":28106:28214   */\n      tag_690\n        /* \"#utility.yul\":28209:28213   */\n      dup2\n        /* \"#utility.yul\":28200:28206   */\n      dup7\n        /* \"#utility.yul\":28106:28214   */\n      tag_393\n      jump\t// in\n    tag_690:\n        /* \"#utility.yul\":28098:28214   */\n      swap1\n      pop\n        /* \"#utility.yul\":28261:28270   */\n      dup2\n        /* \"#utility.yul\":28255:28259   */\n      dup2\n        /* \"#utility.yul\":28251:28271   */\n      sub\n        /* \"#utility.yul\":28246:28248   */\n      0x60\n        /* \"#utility.yul\":28235:28244   */\n      dup4\n        /* \"#utility.yul\":28231:28249   */\n      add\n        /* \"#utility.yul\":28224:28272   */\n      mstore\n        /* \"#utility.yul\":28289:28397   */\n      tag_691\n        /* \"#utility.yul\":28392:28396   */\n      dup2\n        /* \"#utility.yul\":28383:28389   */\n      dup6\n        /* \"#utility.yul\":28289:28397   */\n      tag_393\n      jump\t// in\n    tag_691:\n        /* \"#utility.yul\":28281:28397   */\n      swap1\n      pop\n        /* \"#utility.yul\":28445:28454   */\n      dup2\n        /* \"#utility.yul\":28439:28443   */\n      dup2\n        /* \"#utility.yul\":28435:28455   */\n      sub\n        /* \"#utility.yul\":28429:28432   */\n      0x80\n        /* \"#utility.yul\":28418:28427   */\n      dup4\n        /* \"#utility.yul\":28414:28433   */\n      add\n        /* \"#utility.yul\":28407:28456   */\n      mstore\n        /* \"#utility.yul\":28473:28549   */\n      tag_692\n        /* \"#utility.yul\":28544:28548   */\n      dup2\n        /* \"#utility.yul\":28535:28541   */\n      dup5\n        /* \"#utility.yul\":28473:28549   */\n      tag_409\n      jump\t// in\n    tag_692:\n        /* \"#utility.yul\":28465:28549   */\n      swap1\n      pop\n        /* \"#utility.yul\":27503:28556   */\n      swap7\n      swap6\n      pop\n      pop\n      pop\n      pop\n      pop\n      pop\n      jump\t// out\n\n    auxdata: 0xa2646970667358221220348846a00702791d67b48ca2ded2cfc7c713284813c9036f67541f34ebb6f25664736f6c63430008180033\n}\n",
				"bytecode": {
					"linkReferences": {},
					"object": "608060405234801562000010575f80fd5b503360405180608001604052806047815260200162002ff9604791396200003d81620000c960201b60201c565b505f73ffffffffffffffffffffffffffffffffffffffff168173ffffffffffffffffffffffffffffffffffffffff1603620000b1575f6040517f1e4fbdf7000000000000000000000000000000000000000000000000000000008152600401620000a89190620001e4565b60405180910390fd5b620000c281620000de60201b60201c565b5062000547565b8060029081620000da919062000463565b5050565b5f60035f9054906101000a900473ffffffffffffffffffffffffffffffffffffffff1690508160035f6101000a81548173ffffffffffffffffffffffffffffffffffffffff021916908373ffffffffffffffffffffffffffffffffffffffff1602179055508173ffffffffffffffffffffffffffffffffffffffff168173ffffffffffffffffffffffffffffffffffffffff167f8be0079c531659141344cd1fd0a4f28419497f9722a3daafe3b4186f6b6457e060405160405180910390a35050565b5f73ffffffffffffffffffffffffffffffffffffffff82169050919050565b5f620001cc82620001a1565b9050919050565b620001de81620001c0565b82525050565b5f602082019050620001f95f830184620001d3565b92915050565b5f81519050919050565b7f4e487b71000000000000000000000000000000000000000000000000000000005f52604160045260245ffd5b7f4e487b71000000000000000000000000000000000000000000000000000000005f52602260045260245ffd5b5f60028204905060018216806200027b57607f821691505b60208210810362000291576200029062000236565b5b50919050565b5f819050815f5260205f209050919050565b5f6020601f8301049050919050565b5f82821b905092915050565b5f60088302620002f57fffffffffffffffffffffffffffffffffffffffffffffffffffffffffffffffff82620002b8565b620003018683620002b8565b95508019841693508086168417925050509392505050565b5f819050919050565b5f819050919050565b5f6200034b620003456200033f8462000319565b62000322565b62000319565b9050919050565b5f819050919050565b62000366836200032b565b6200037e620003758262000352565b848454620002c4565b825550505050565b5f90565b6200039462000386565b620003a18184846200035b565b505050565b5b81811015620003c857620003bc5f826200038a565b600181019050620003a7565b5050565b601f8211156200041757620003e18162000297565b620003ec84620002a9565b81016020851015620003fc578190505b620004146200040b85620002a9565b830182620003a6565b50505b505050565b5f82821c905092915050565b5f620004395f19846008026200041c565b1980831691505092915050565b5f62000453838362000428565b9150826002028217905092915050565b6200046e82620001ff565b67ffffffffffffffff8111156200048a576200048962000209565b5b62000496825462000263565b620004a3828285620003cc565b5f60209050601f831160018114620004d9575f8415620004c4578287015190505b620004d0858262000446565b8655506200053f565b601f198416620004e98662000297565b5f5b828110156200051257848901518255600182019150602085019450602081019050620004eb565b868310156200053257848901516200052e601f89168262000428565b8355505b6001600288020188555050505b505050505050565b612aa480620005555f395ff3fe608060405234801561000f575f80fd5b5060043610610134575f3560e01c8063715018a6116100b6578063d99939a21161007a578063d99939a21461033a578063e74d386214610358578063e985e9c514610376578063f242432a146103a6578063f2fde38b146103c2578063f5298aca146103de57610134565b8063715018a6146102ba57806382c0fa30146102c45780638da5cb5b146102e2578063a22cb46514610300578063a3cacc851461031c57610134565b80631b2ef1ca116100fd5780631b2ef1ca146102165780632eb2c2d614610232578063453f6a321461024e5780634a3268e41461026c5780634e1273f41461028a57610134565b8062fdd58e1461013857806301ffc9a7146101685780630ce52e07146101985780630d9371ad146101c85780630e89341c146101e6575b5f80fd5b610152600480360381019061014d9190611cdd565b6103fa565b60405161015f9190611d2a565b60405180910390f35b610182600480360381019061017d9190611d98565b61044f565b60405161018f9190611ddd565b60405180910390f35b6101b260048036038101906101ad9190611cdd565b610530565b6040516101bf9190611d2a565b60405180910390f35b6101d0610550565b6040516101dd9190611d2a565b60405180910390f35b61020060048036038101906101fb9190611df6565b610555565b60405161020d9190611eab565b60405180910390f35b610230600480360381019061022b9190611ecb565b610590565b005b61024c600480360381019061024791906120f9565b6106ea565b005b610256610791565b6040516102639190611d2a565b60405180910390f35b610274610796565b6040516102819190611d2a565b60405180910390f35b6102a4600480360381019061029f9190612284565b61079b565b6040516102b191906123b1565b60405180910390f35b6102c26108a2565b005b6102cc6108b5565b6040516102d99190611d2a565b60405180910390f35b6102ea6108ba565b6040516102f791906123e0565b60405180910390f35b61031a60048036038101906103159190612423565b6108e2565b005b6103246108f8565b6040516103319190611d2a565b60405180910390f35b6103426108fd565b60405161034f9190611d2a565b60405180910390f35b610360610901565b60405161036d9190611d2a565b60405180910390f35b610390600480360381019061038b9190612461565b610906565b60405161039d9190611ddd565b60405180910390f35b6103c060048036038101906103bb919061249f565b610994565b005b6103dc60048036038101906103d79190612532565b610a3b565b005b6103f860048036038101906103f3919061255d565b610abf565b005b5f805f8381526020019081526020015f205f8473ffffffffffffffffffffffffffffffffffffffff1673ffffffffffffffffffffffffffffffffffffffff1681526020019081526020015f2054905092915050565b5f7fd9b67a26000000000000000000000000000000000000000000000000000000007bffffffffffffffffffffffffffffffffffffffffffffffffffffffff1916827bffffffffffffffffffffffffffffffffffffffffffffffffffffffff1916148061051957507f0e89341c000000000000000000000000000000000000000000000000000000007bffffffffffffffffffffffffffffffffffffffffffffffffffffffff1916827bffffffffffffffffffffffffffffffffffffffffffffffffffffffff1916145b80610529575061052882610b4e565b5b9050919050565b6004602052815f5260405f20602052805f5260405f205f91509150505481565b600481565b606061056082610bb7565b61056983610c49565b60405160200161057a9291906125e7565b6040516020818303038152906040529050919050565b5f82101580156105a1575060028211155b6105e0576040517f08c379a00000000000000000000000000000000000000000000000000000000081526004016105d790612654565b60405180910390fd5b603c60045f3373ffffffffffffffffffffffffffffffffffffffff1673ffffffffffffffffffffffffffffffffffffffff1681526020019081526020015f205f8481526020019081526020015f2054610639919061269f565b42101561067b576040517f08c379a00000000000000000000000000000000000000000000000000000000081526004016106729061271c565b60405180910390fd5b4260045f3373ffffffffffffffffffffffffffffffffffffffff1673ffffffffffffffffffffffffffffffffffffffff1681526020019081526020015f205f8481526020019081526020015f20819055506106e633838360405180602001604052805f815250610d13565b5050565b5f6106f3610da8565b90508073ffffffffffffffffffffffffffffffffffffffff168673ffffffffffffffffffffffffffffffffffffffff161415801561073857506107368682610906565b155b1561077c5780866040517fe237d92200000000000000000000000000000000000000000000000000000000815260040161077392919061273a565b60405180910390fd5b6107898686868686610daf565b505050505050565b600381565b600181565b606081518351146107e757815183516040517f5b0599910000000000000000000000000000000000000000000000000000000081526004016107de929190612761565b60405180910390fd5b5f835167ffffffffffffffff81111561080357610802611f0d565b5b6040519080825280602002602001820160405280156108315781602001602082028036833780820191505090505b5090505f5b84518110156108975761086d6108558287610ea390919063ffffffff16565b6108688387610eb690919063ffffffff16565b6103fa565b8282815181106108805761087f612788565b5b602002602001018181525050806001019050610836565b508091505092915050565b6108aa610ec9565b6108b35f610f50565b565b600281565b5f60035f9054906101000a900473ffffffffffffffffffffffffffffffffffffffff16905090565b6108f46108ed610da8565b8383611013565b5050565b600681565b5f81565b600581565b5f60015f8473ffffffffffffffffffffffffffffffffffffffff1673ffffffffffffffffffffffffffffffffffffffff1681526020019081526020015f205f8373ffffffffffffffffffffffffffffffffffffffff1673ffffffffffffffffffffffffffffffffffffffff1681526020019081526020015f205f9054906101000a900460ff16905092915050565b5f61099d610da8565b90508073ffffffffffffffffffffffffffffffffffffffff168673ffffffffffffffffffffffffffffffffffffffff16141580156109e257506109e08682610906565b155b15610a265780866040517fe237d922000000000000000000000000000000000000000000000000000000008152600401610a1d92919061273a565b60405180910390fd5b610a33868686868661117c565b505050505050565b610a43610ec9565b5f73ffffffffffffffffffffffffffffffffffffffff168173ffffffffffffffffffffffffffffffffffffffff1603610ab3575f6040517f1e4fbdf7000000000000000000000000000000000000000000000000000000008152600401610aaa91906123e0565b60405180910390fd5b610abc81610f50565b50565b8273ffffffffffffffffffffffffffffffffffffffff163373ffffffffffffffffffffffffffffffffffffffff161480610aff5750610afe8333610906565b5b610b3e576040517f08c379a0000000000000000000000000000000000000000000000000000000008152600401610b35906127ff565b60405180910390fd5b610b49838383611282565b505050565b5f7f01ffc9a7000000000000000000000000000000000000000000000000000000007bffffffffffffffffffffffffffffffffffffffffffffffffffffffff1916827bffffffffffffffffffffffffffffffffffffffffffffffffffffffff1916149050919050565b606060028054610bc69061284a565b80601f0160208091040260200160405190810160405280929190818152602001828054610bf29061284a565b8015610c3d5780601f10610c1457610100808354040283529160200191610c3d565b820191905f5260205f20905b815481529060010190602001808311610c2057829003601f168201915b50505050509050919050565b60605f6001610c5784611324565b0190505f8167ffffffffffffffff811115610c7557610c74611f0d565b5b6040519080825280601f01601f191660200182016040528015610ca75781602001600182028036833780820191505090505b5090505f82602001820190505b600115610d08578080600190039150507f3031323334353637383961626364656600000000000000000000000000000000600a86061a8153600a8581610cfd57610cfc61287a565b5b0494505f8503610cb4575b819350505050919050565b5f73ffffffffffffffffffffffffffffffffffffffff168473ffffffffffffffffffffffffffffffffffffffff1603610d83575f6040517f57f447ce000000000000000000000000000000000000000000000000000000008152600401610d7a91906123e0565b60405180910390fd5b5f80610d8f8585611475565b91509150610da05f878484876114a5565b505050505050565b5f33905090565b5f73ffffffffffffffffffffffffffffffffffffffff168473ffffffffffffffffffffffffffffffffffffffff1603610e1f575f6040517f57f447ce000000000000000000000000000000000000000000000000000000008152600401610e1691906123e0565b60405180910390fd5b5f73ffffffffffffffffffffffffffffffffffffffff168573ffffffffffffffffffffffffffffffffffffffff1603610e8f575f6040517f01a83514000000000000000000000000000000000000000000000000000000008152600401610e8691906123e0565b60405180910390fd5b610e9c85858585856114a5565b5050505050565b5f60208202602084010151905092915050565b5f60208202602084010151905092915050565b610ed1610da8565b73ffffffffffffffffffffffffffffffffffffffff16610eef6108ba565b73ffffffffffffffffffffffffffffffffffffffff1614610f4e57610f12610da8565b6040517f118cdaa7000000000000000000000000000000000000000000000000000000008152600401610f4591906123e0565b60405180910390fd5b565b5f60035f9054906101000a900473ffffffffffffffffffffffffffffffffffffffff1690508160035f6101000a81548173ffffffffffffffffffffffffffffffffffffffff021916908373ffffffffffffffffffffffffffffffffffffffff1602179055508173ffffffffffffffffffffffffffffffffffffffff168173ffffffffffffffffffffffffffffffffffffffff167f8be0079c531659141344cd1fd0a4f28419497f9722a3daafe3b4186f6b6457e060405160405180910390a35050565b5f73ffffffffffffffffffffffffffffffffffffffff168273ffffffffffffffffffffffffffffffffffffffff1603611083575f6040517fced3e10000000000000000000000000000000000000000000000000000000000815260040161107a91906123e0565b60405180910390fd5b8060015f8573ffffffffffffffffffffffffffffffffffffffff1673ffffffffffffffffffffffffffffffffffffffff1681526020019081526020015f205f8473ffffffffffffffffffffffffffffffffffffffff1673ffffffffffffffffffffffffffffffffffffffff1681526020019081526020015f205f6101000a81548160ff0219169083151502179055508173ffffffffffffffffffffffffffffffffffffffff168373ffffffffffffffffffffffffffffffffffffffff167f17307eab39ab6107e8899845ad3d59bd9653f200f220920489ca2b5937696c318360405161116f9190611ddd565b60405180910390a3505050565b5f73ffffffffffffffffffffffffffffffffffffffff168473ffffffffffffffffffffffffffffffffffffffff16036111ec575f6040517f57f447ce0000000000000000000000000000000000000000000000000000000081526004016111e391906123e0565b60405180910390fd5b5f73ffffffffffffffffffffffffffffffffffffffff168573ffffffffffffffffffffffffffffffffffffffff160361125c575f6040517f01a8351400000000000000000000000000000000000000000000000000000000815260040161125391906123e0565b60405180910390fd5b5f806112688585611475565b9150915061127987878484876114a5565b50505050505050565b5f73ffffffffffffffffffffffffffffffffffffffff168373ffffffffffffffffffffffffffffffffffffffff16036112f2575f6040517f01a835140000000000000000000000000000000000000000000000000000000081526004016112e991906123e0565b60405180910390fd5b5f806112fe8484611475565b9150915061131d855f848460405180602001604052805f8152506114a5565b5050505050565b5f805f90507a184f03e93ff9f4daa797ed6e38ed64bf6a1f0100000000000000008310611380577a184f03e93ff9f4daa797ed6e38ed64bf6a1f01000000000000000083816113765761137561287a565b5b0492506040810190505b6d04ee2d6d415b85acef810000000083106113bd576d04ee2d6d415b85acef810000000083816113b3576113b261287a565b5b0492506020810190505b662386f26fc1000083106113ec57662386f26fc1000083816113e2576113e161287a565b5b0492506010810190505b6305f5e1008310611415576305f5e100838161140b5761140a61287a565b5b0492506008810190505b612710831061143a5761271083816114305761142f61287a565b5b0492506004810190505b6064831061145d57606483816114535761145261287a565b5b0492506002810190505b600a831061146c576001810190505b80915050919050565b60608060405191506001825283602083015260408201905060018152826020820152604081016040529250929050565b6114b185858585611551565b5f73ffffffffffffffffffffffffffffffffffffffff168473ffffffffffffffffffffffffffffffffffffffff161461154a575f6114ed610da8565b90506001845103611539575f61150c5f86610eb690919063ffffffff16565b90505f6115225f86610eb690919063ffffffff16565b90506115328389898585896118e1565b5050611548565b611547818787878787611a90565b5b505b5050505050565b805182511461159b57815181516040517f5b059991000000000000000000000000000000000000000000000000000000008152600401611592929190612761565b60405180910390fd5b5f6115a4610da8565b90505f5b83518110156117a0575f6115c58286610eb690919063ffffffff16565b90505f6115db8386610eb690919063ffffffff16565b90505f73ffffffffffffffffffffffffffffffffffffffff168873ffffffffffffffffffffffffffffffffffffffff16146116fe575f805f8481526020019081526020015f205f8a73ffffffffffffffffffffffffffffffffffffffff1673ffffffffffffffffffffffffffffffffffffffff1681526020019081526020015f20549050818110156116aa57888183856040517f03dee4c50000000000000000000000000000000000000000000000000000000081526004016116a194939291906128a7565b60405180910390fd5b8181035f808581526020019081526020015f205f8b73ffffffffffffffffffffffffffffffffffffffff1673ffffffffffffffffffffffffffffffffffffffff1681526020019081526020015f2081905550505b5f73ffffffffffffffffffffffffffffffffffffffff168773ffffffffffffffffffffffffffffffffffffffff161461179357805f808481526020019081526020015f205f8973ffffffffffffffffffffffffffffffffffffffff1673ffffffffffffffffffffffffffffffffffffffff1681526020019081526020015f205f82825461178b919061269f565b925050819055505b50508060010190506115a8565b50600183510361185b575f6117be5f85610eb690919063ffffffff16565b90505f6117d45f85610eb690919063ffffffff16565b90508573ffffffffffffffffffffffffffffffffffffffff168773ffffffffffffffffffffffffffffffffffffffff168473ffffffffffffffffffffffffffffffffffffffff167fc3d58168c5ae7397731d063d5bbf3d657854427343f4c083240f7aacaa2d0f62858560405161184c929190612761565b60405180910390a450506118da565b8373ffffffffffffffffffffffffffffffffffffffff168573ffffffffffffffffffffffffffffffffffffffff168273ffffffffffffffffffffffffffffffffffffffff167f4a39dc06d4c0dbc64b70af90fd698a233a518aa5d07e595d983b8c0526c8f7fb86866040516118d19291906128ea565b60405180910390a45b5050505050565b5f8473ffffffffffffffffffffffffffffffffffffffff163b1115611a88578373ffffffffffffffffffffffffffffffffffffffff1663f23a6e6187878686866040518663ffffffff1660e01b8152600401611941959493929190612971565b6020604051808303815f875af192505050801561197c57506040513d601f19601f8201168201806040525081019061197991906129dd565b60015b6119fd573d805f81146119aa576040519150601f19603f3d011682016040523d82523d5f602084013e6119af565b606091505b505f8151036119f557846040517f57f447ce0000000000000000000000000000000000000000000000000000000081526004016119ec91906123e0565b60405180910390fd5b805181602001fd5b63f23a6e6160e01b7bffffffffffffffffffffffffffffffffffffffffffffffffffffffff1916817bffffffffffffffffffffffffffffffffffffffffffffffffffffffff191614611a8657846040517f57f447ce000000000000000000000000000000000000000000000000000000008152600401611a7d91906123e0565b60405180910390fd5b505b505050505050565b5f8473ffffffffffffffffffffffffffffffffffffffff163b1115611c37578373ffffffffffffffffffffffffffffffffffffffff1663bc197c8187878686866040518663ffffffff1660e01b8152600401611af0959493929190612a08565b6020604051808303815f875af1925050508015611b2b57506040513d601f19601f82011682018060405250810190611b2891906129dd565b60015b611bac573d805f8114611b59576040519150601f19603f3d011682016040523d82523d5f602084013e611b5e565b606091505b505f815103611ba457846040517f57f447ce000000000000000000000000000000000000000000000000000000008152600401611b9b91906123e0565b60405180910390fd5b805181602001fd5b63bc197c8160e01b7bffffffffffffffffffffffffffffffffffffffffffffffffffffffff1916817bffffffffffffffffffffffffffffffffffffffffffffffffffffffff191614611c3557846040517f57f447ce000000000000000000000000000000000000000000000000000000008152600401611c2c91906123e0565b60405180910390fd5b505b505050505050565b5f604051905090565b5f80fd5b5f80fd5b5f73ffffffffffffffffffffffffffffffffffffffff82169050919050565b5f611c7982611c50565b9050919050565b611c8981611c6f565b8114611c93575f80fd5b50565b5f81359050611ca481611c80565b92915050565b5f819050919050565b611cbc81611caa565b8114611cc6575f80fd5b50565b5f81359050611cd781611cb3565b92915050565b5f8060408385031215611cf357611cf2611c48565b5b5f611d0085828601611c96565b9250506020611d1185828601611cc9565b9150509250929050565b611d2481611caa565b82525050565b5f602082019050611d3d5f830184611d1b565b92915050565b5f7fffffffff0000000000000000000000000000000000000000000000000000000082169050919050565b611d7781611d43565b8114611d81575f80fd5b50565b5f81359050611d9281611d6e565b92915050565b5f60208284031215611dad57611dac611c48565b5b5f611dba84828501611d84565b91505092915050565b5f8115159050919050565b611dd781611dc3565b82525050565b5f602082019050611df05f830184611dce565b92915050565b5f60208284031215611e0b57611e0a611c48565b5b5f611e1884828501611cc9565b91505092915050565b5f81519050919050565b5f82825260208201905092915050565b5f5b83811015611e58578082015181840152602081019050611e3d565b5f8484015250505050565b5f601f19601f8301169050919050565b5f611e7d82611e21565b611e878185611e2b565b9350611e97818560208601611e3b565b611ea081611e63565b840191505092915050565b5f6020820190508181035f830152611ec38184611e73565b905092915050565b5f8060408385031215611ee157611ee0611c48565b5b5f611eee85828601611cc9565b9250506020611eff85828601611cc9565b9150509250929050565b5f80fd5b7f4e487b71000000000000000000000000000000000000000000000000000000005f52604160045260245ffd5b611f4382611e63565b810181811067ffffffffffffffff82111715611f6257611f61611f0d565b5b80604052505050565b5f611f74611c3f565b9050611f808282611f3a565b919050565b5f67ffffffffffffffff821115611f9f57611f9e611f0d565b5b602082029050602081019050919050565b5f80fd5b5f611fc6611fc184611f85565b611f6b565b90508083825260208201905060208402830185811115611fe957611fe8611fb0565b5b835b818110156120125780611ffe8882611cc9565b845260208401935050602081019050611feb565b5050509392505050565b5f82601f8301126120305761202f611f09565b5b8135612040848260208601611fb4565b91505092915050565b5f80fd5b5f67ffffffffffffffff82111561206757612066611f0d565b5b61207082611e63565b9050602081019050919050565b828183375f83830152505050565b5f61209d6120988461204d565b611f6b565b9050828152602081018484840111156120b9576120b8612049565b5b6120c484828561207d565b509392505050565b5f82601f8301126120e0576120df611f09565b5b81356120f084826020860161208b565b91505092915050565b5f805f805f60a0868803121561211257612111611c48565b5b5f61211f88828901611c96565b955050602061213088828901611c96565b945050604086013567ffffffffffffffff81111561215157612150611c4c565b5b61215d8882890161201c565b935050606086013567ffffffffffffffff81111561217e5761217d611c4c565b5b61218a8882890161201c565b925050608086013567ffffffffffffffff8111156121ab576121aa611c4c565b5b6121b7888289016120cc565b9150509295509295909350565b5f67ffffffffffffffff8211156121de576121dd611f0d565b5b602082029050602081019050919050565b5f6122016121fc846121c4565b611f6b565b9050808382526020820190506020840283018581111561222457612223611fb0565b5b835b8181101561224d57806122398882611c96565b845260208401935050602081019050612226565b5050509392505050565b5f82601f83011261226b5761226a611f09565b5b813561227b8482602086016121ef565b91505092915050565b5f806040838503121561229a57612299611c48565b5b5f83013567ffffffffffffffff8111156122b7576122b6611c4c565b5b6122c385828601612257565b925050602083013567ffffffffffffffff8111156122e4576122e3611c4c565b5b6122f08582860161201c565b9150509250929050565b5f81519050919050565b5f82825260208201905092915050565b5f819050602082019050919050565b61232c81611caa565b82525050565b5f61233d8383612323565b60208301905092915050565b5f602082019050919050565b5f61235f826122fa565b6123698185612304565b935061237483612314565b805f5b838110156123a457815161238b8882612332565b975061239683612349565b925050600181019050612377565b5085935050505092915050565b5f6020820190508181035f8301526123c98184612355565b905092915050565b6123da81611c6f565b82525050565b5f6020820190506123f35f8301846123d1565b92915050565b61240281611dc3565b811461240c575f80fd5b50565b5f8135905061241d816123f9565b92915050565b5f806040838503121561243957612438611c48565b5b5f61244685828601611c96565b92505060206124578582860161240f565b9150509250929050565b5f806040838503121561247757612476611c48565b5b5f61248485828601611c96565b925050602061249585828601611c96565b9150509250929050565b5f805f805f60a086880312156124b8576124b7611c48565b5b5f6124c588828901611c96565b95505060206124d688828901611c96565b94505060406124e788828901611cc9565b93505060606124f888828901611cc9565b925050608086013567ffffffffffffffff81111561251957612518611c4c565b5b612525888289016120cc565b9150509295509295909350565b5f6020828403121561254757612546611c48565b5b5f61255484828501611c96565b91505092915050565b5f805f6060848603121561257457612573611c48565b5b5f61258186828701611c96565b935050602061259286828701611cc9565b92505060406125a386828701611cc9565b9150509250925092565b5f81905092915050565b5f6125c182611e21565b6125cb81856125ad565b93506125db818560208601611e3b565b80840191505092915050565b5f6125f282856125b7565b91506125fe82846125b7565b91508190509392505050565b7f496e76616c696420746f6b656e204944000000000000000000000000000000005f82015250565b5f61263e601083611e2b565b91506126498261260a565b602082019050919050565b5f6020820190508181035f83015261266b81612632565b9050919050565b7f4e487b71000000000000000000000000000000000000000000000000000000005f52601160045260245ffd5b5f6126a982611caa565b91506126b483611caa565b92508282019050808211156126cc576126cb612672565b5b92915050565b7f4d696e7420636f6f6c646f776e000000000000000000000000000000000000005f82015250565b5f612706600d83611e2b565b9150612711826126d2565b602082019050919050565b5f6020820190508181035f830152612733816126fa565b9050919050565b5f60408201905061274d5f8301856123d1565b61275a60208301846123d1565b9392505050565b5f6040820190506127745f830185611d1b565b6127816020830184611d1b565b9392505050565b7f4e487b71000000000000000000000000000000000000000000000000000000005f52603260045260245ffd5b7f43616c6c6572206973206e6f74206f776e6572206e6f7220617070726f7665645f82015250565b5f6127e9602083611e2b565b91506127f4826127b5565b602082019050919050565b5f6020820190508181035f830152612816816127dd565b9050919050565b7f4e487b71000000000000000000000000000000000000000000000000000000005f52602260045260245ffd5b5f600282049050600182168061286157607f821691505b6020821081036128745761287361281d565b5b50919050565b7f4e487b71000000000000000000000000000000000000000000000000000000005f52601260045260245ffd5b5f6080820190506128ba5f8301876123d1565b6128c76020830186611d1b565b6128d46040830185611d1b565b6128e16060830184611d1b565b95945050505050565b5f6040820190508181035f8301526129028185612355565b905081810360208301526129168184612355565b90509392505050565b5f81519050919050565b5f82825260208201905092915050565b5f6129438261291f565b61294d8185612929565b935061295d818560208601611e3b565b61296681611e63565b840191505092915050565b5f60a0820190506129845f8301886123d1565b61299160208301876123d1565b61299e6040830186611d1b565b6129ab6060830185611d1b565b81810360808301526129bd8184612939565b90509695505050505050565b5f815190506129d781611d6e565b92915050565b5f602082840312156129f2576129f1611c48565b5b5f6129ff848285016129c9565b91505092915050565b5f60a082019050612a1b5f8301886123d1565b612a2860208301876123d1565b8181036040830152612a3a8186612355565b90508181036060830152612a4e8185612355565b90508181036080830152612a628184612939565b9050969550505050505056fea2646970667358221220348846a00702791d67b48ca2ded2cfc7c713284813c9036f67541f34ebb6f25664736f6c63430008180033697066733a2f2f6261667962656968726b6c623232327367696f77726a6365673736726d7171707a716979756a6d6e75667633637135377373656d647862626534752f7b69647d",
					"opcodes": "PUSH1 0x80 PUSH1 0x40 MSTORE CALLVALUE DUP1 ISZERO PUSH3 0x10 JUMPI PUSH0 DUP1 REVERT JUMPDEST POP CALLER PUSH1 0x40 MLOAD DUP1 PUSH1 0x80 ADD PUSH1 0x40 MSTORE DUP1 PUSH1 0x47 DUP2 MSTORE PUSH1 0x20 ADD PUSH3 0x2FF9 PUSH1 0x47 SWAP2 CODECOPY PUSH3 0x3D DUP2 PUSH3 0xC9 PUSH1 0x20 SHL PUSH1 0x20 SHR JUMP JUMPDEST POP PUSH0 PUSH20 0xFFFFFFFFFFFFFFFFFFFFFFFFFFFFFFFFFFFFFFFF AND DUP2 PUSH20 0xFFFFFFFFFFFFFFFFFFFFFFFFFFFFFFFFFFFFFFFF AND SUB PUSH3 0xB1 JUMPI PUSH0 PUSH1 0x40 MLOAD PUSH32 0x1E4FBDF700000000000000000000000000000000000000000000000000000000 DUP2 MSTORE PUSH1 0x4 ADD PUSH3 0xA8 SWAP2 SWAP1 PUSH3 0x1E4 JUMP JUMPDEST PUSH1 0x40 MLOAD DUP1 SWAP2 SUB SWAP1 REVERT JUMPDEST PUSH3 0xC2 DUP2 PUSH3 0xDE PUSH1 0x20 SHL PUSH1 0x20 SHR JUMP JUMPDEST POP PUSH3 0x547 JUMP JUMPDEST DUP1 PUSH1 0x2 SWAP1 DUP2 PUSH3 0xDA SWAP2 SWAP1 PUSH3 0x463 JUMP JUMPDEST POP POP JUMP JUMPDEST PUSH0 PUSH1 0x3 PUSH0 SWAP1 SLOAD SWAP1 PUSH2 0x100 EXP SWAP1 DIV PUSH20 0xFFFFFFFFFFFFFFFFFFFFFFFFFFFFFFFFFFFFFFFF AND SWAP1 POP DUP2 PUSH1 0x3 PUSH0 PUSH2 0x100 EXP DUP2 SLOAD DUP2 PUSH20 0xFFFFFFFFFFFFFFFFFFFFFFFFFFFFFFFFFFFFFFFF MUL NOT AND SWAP1 DUP4 PUSH20 0xFFFFFFFFFFFFFFFFFFFFFFFFFFFFFFFFFFFFFFFF AND MUL OR SWAP1 SSTORE POP DUP2 PUSH20 0xFFFFFFFFFFFFFFFFFFFFFFFFFFFFFFFFFFFFFFFF AND DUP2 PUSH20 0xFFFFFFFFFFFFFFFFFFFFFFFFFFFFFFFFFFFFFFFF AND PUSH32 0x8BE0079C531659141344CD1FD0A4F28419497F9722A3DAAFE3B4186F6B6457E0 PUSH1 0x40 MLOAD PUSH1 0x40 MLOAD DUP1 SWAP2 SUB SWAP1 LOG3 POP POP JUMP JUMPDEST PUSH0 PUSH20 0xFFFFFFFFFFFFFFFFFFFFFFFFFFFFFFFFFFFFFFFF DUP3 AND SWAP1 POP SWAP2 SWAP1 POP JUMP JUMPDEST PUSH0 PUSH3 0x1CC DUP3 PUSH3 0x1A1 JUMP JUMPDEST SWAP1 POP SWAP2 SWAP1 POP JUMP JUMPDEST PUSH3 0x1DE DUP2 PUSH3 0x1C0 JUMP JUMPDEST DUP3 MSTORE POP POP JUMP JUMPDEST PUSH0 PUSH1 0x20 DUP3 ADD SWAP1 POP PUSH3 0x1F9 PUSH0 DUP4 ADD DUP5 PUSH3 0x1D3 JUMP JUMPDEST SWAP3 SWAP2 POP POP JUMP JUMPDEST PUSH0 DUP2 MLOAD SWAP1 POP SWAP2 SWAP1 POP JUMP JUMPDEST PUSH32 0x4E487B7100000000000000000000000000000000000000000000000000000000 PUSH0 MSTORE PUSH1 0x41 PUSH1 0x4 MSTORE PUSH1 0x24 PUSH0 REVERT JUMPDEST PUSH32 0x4E487B7100000000000000000000000000000000000000000000000000000000 PUSH0 MSTORE PUSH1 0x22 PUSH1 0x4 MSTORE PUSH1 0x24 PUSH0 REVERT JUMPDEST PUSH0 PUSH1 0x2 DUP3 DIV SWAP1 POP PUSH1 0x1 DUP3 AND DUP1 PUSH3 0x27B JUMPI PUSH1 0x7F DUP3 AND SWAP2 POP JUMPDEST PUSH1 0x20 DUP3 LT DUP2 SUB PUSH3 0x291 JUMPI PUSH3 0x290 PUSH3 0x236 JUMP JUMPDEST JUMPDEST POP SWAP2 SWAP1 POP JUMP JUMPDEST PUSH0 DUP2 SWAP1 POP DUP2 PUSH0 MSTORE PUSH1 0x20 PUSH0 KECCAK256 SWAP1 POP SWAP2 SWAP1 POP JUMP JUMPDEST PUSH0 PUSH1 0x20 PUSH1 0x1F DUP4 ADD DIV SWAP1 POP SWAP2 SWAP1 POP JUMP JUMPDEST PUSH0 DUP3 DUP3 SHL SWAP1 POP SWAP3 SWAP2 POP POP JUMP JUMPDEST PUSH0 PUSH1 0x8 DUP4 MUL PUSH3 0x2F5 PUSH32 0xFFFFFFFFFFFFFFFFFFFFFFFFFFFFFFFFFFFFFFFFFFFFFFFFFFFFFFFFFFFFFFFF DUP3 PUSH3 0x2B8 JUMP JUMPDEST PUSH3 0x301 DUP7 DUP4 PUSH3 0x2B8 JUMP JUMPDEST SWAP6 POP DUP1 NOT DUP5 AND SWAP4 POP DUP1 DUP7 AND DUP5 OR SWAP3 POP POP POP SWAP4 SWAP3 POP POP POP JUMP JUMPDEST PUSH0 DUP2 SWAP1 POP SWAP2 SWAP1 POP JUMP JUMPDEST PUSH0 DUP2 SWAP1 POP SWAP2 SWAP1 POP JUMP JUMPDEST PUSH0 PUSH3 0x34B PUSH3 0x345 PUSH3 0x33F DUP5 PUSH3 0x319 JUMP JUMPDEST PUSH3 0x322 JUMP JUMPDEST PUSH3 0x319 JUMP JUMPDEST SWAP1 POP SWAP2 SWAP1 POP JUMP JUMPDEST PUSH0 DUP2 SWAP1 POP SWAP2 SWAP1 POP JUMP JUMPDEST PUSH3 0x366 DUP4 PUSH3 0x32B JUMP JUMPDEST PUSH3 0x37E PUSH3 0x375 DUP3 PUSH3 0x352 JUMP JUMPDEST DUP5 DUP5 SLOAD PUSH3 0x2C4 JUMP JUMPDEST DUP3 SSTORE POP POP POP POP JUMP JUMPDEST PUSH0 SWAP1 JUMP JUMPDEST PUSH3 0x394 PUSH3 0x386 JUMP JUMPDEST PUSH3 0x3A1 DUP2 DUP5 DUP5 PUSH3 0x35B JUMP JUMPDEST POP POP POP JUMP JUMPDEST JUMPDEST DUP2 DUP2 LT ISZERO PUSH3 0x3C8 JUMPI PUSH3 0x3BC PUSH0 DUP3 PUSH3 0x38A JUMP JUMPDEST PUSH1 0x1 DUP2 ADD SWAP1 POP PUSH3 0x3A7 JUMP JUMPDEST POP POP JUMP JUMPDEST PUSH1 0x1F DUP3 GT ISZERO PUSH3 0x417 JUMPI PUSH3 0x3E1 DUP2 PUSH3 0x297 JUMP JUMPDEST PUSH3 0x3EC DUP5 PUSH3 0x2A9 JUMP JUMPDEST DUP2 ADD PUSH1 0x20 DUP6 LT ISZERO PUSH3 0x3FC JUMPI DUP2 SWAP1 POP JUMPDEST PUSH3 0x414 PUSH3 0x40B DUP6 PUSH3 0x2A9 JUMP JUMPDEST DUP4 ADD DUP3 PUSH3 0x3A6 JUMP JUMPDEST POP POP JUMPDEST POP POP POP JUMP JUMPDEST PUSH0 DUP3 DUP3 SHR SWAP1 POP SWAP3 SWAP2 POP POP JUMP JUMPDEST PUSH0 PUSH3 0x439 PUSH0 NOT DUP5 PUSH1 0x8 MUL PUSH3 0x41C JUMP JUMPDEST NOT DUP1 DUP4 AND SWAP2 POP POP SWAP3 SWAP2 POP POP JUMP JUMPDEST PUSH0 PUSH3 0x453 DUP4 DUP4 PUSH3 0x428 JUMP JUMPDEST SWAP2 POP DUP3 PUSH1 0x2 MUL DUP3 OR SWAP1 POP SWAP3 SWAP2 POP POP JUMP JUMPDEST PUSH3 0x46E DUP3 PUSH3 0x1FF JUMP JUMPDEST PUSH8 0xFFFFFFFFFFFFFFFF DUP2 GT ISZERO PUSH3 0x48A JUMPI PUSH3 0x489 PUSH3 0x209 JUMP JUMPDEST JUMPDEST PUSH3 0x496 DUP3 SLOAD PUSH3 0x263 JUMP JUMPDEST PUSH3 0x4A3 DUP3 DUP3 DUP6 PUSH3 0x3CC JUMP JUMPDEST PUSH0 PUSH1 0x20 SWAP1 POP PUSH1 0x1F DUP4 GT PUSH1 0x1 DUP2 EQ PUSH3 0x4D9 JUMPI PUSH0 DUP5 ISZERO PUSH3 0x4C4 JUMPI DUP3 DUP8 ADD MLOAD SWAP1 POP JUMPDEST PUSH3 0x4D0 DUP6 DUP3 PUSH3 0x446 JUMP JUMPDEST DUP7 SSTORE POP PUSH3 0x53F JUMP JUMPDEST PUSH1 0x1F NOT DUP5 AND PUSH3 0x4E9 DUP7 PUSH3 0x297 JUMP JUMPDEST PUSH0 JUMPDEST DUP3 DUP2 LT ISZERO PUSH3 0x512 JUMPI DUP5 DUP10 ADD MLOAD DUP3 SSTORE PUSH1 0x1 DUP3 ADD SWAP2 POP PUSH1 0x20 DUP6 ADD SWAP5 POP PUSH1 0x20 DUP2 ADD SWAP1 POP PUSH3 0x4EB JUMP JUMPDEST DUP7 DUP4 LT ISZERO PUSH3 0x532 JUMPI DUP5 DUP10 ADD MLOAD PUSH3 0x52E PUSH1 0x1F DUP10 AND DUP3 PUSH3 0x428 JUMP JUMPDEST DUP4 SSTORE POP JUMPDEST PUSH1 0x1 PUSH1 0x2 DUP9 MUL ADD DUP9 SSTORE POP POP POP JUMPDEST POP POP POP POP POP POP JUMP JUMPDEST PUSH2 0x2AA4 DUP1 PUSH3 0x555 PUSH0 CODECOPY PUSH0 RETURN INVALID PUSH1 0x80 PUSH1 0x40 MSTORE CALLVALUE DUP1 ISZERO PUSH2 0xF JUMPI PUSH0 DUP1 REVERT JUMPDEST POP PUSH1 0x4 CALLDATASIZE LT PUSH2 0x134 JUMPI PUSH0 CALLDATALOAD PUSH1 0xE0 SHR DUP1 PUSH4 0x715018A6 GT PUSH2 0xB6 JUMPI DUP1 PUSH4 0xD99939A2 GT PUSH2 0x7A JUMPI DUP1 PUSH4 0xD99939A2 EQ PUSH2 0x33A JUMPI DUP1 PUSH4 0xE74D3862 EQ PUSH2 0x358 JUMPI DUP1 PUSH4 0xE985E9C5 EQ PUSH2 0x376 JUMPI DUP1 PUSH4 0xF242432A EQ PUSH2 0x3A6 JUMPI DUP1 PUSH4 0xF2FDE38B EQ PUSH2 0x3C2 JUMPI DUP1 PUSH4 0xF5298ACA EQ PUSH2 0x3DE JUMPI PUSH2 0x134 JUMP JUMPDEST DUP1 PUSH4 0x715018A6 EQ PUSH2 0x2BA JUMPI DUP1 PUSH4 0x82C0FA30 EQ PUSH2 0x2C4 JUMPI DUP1 PUSH4 0x8DA5CB5B EQ PUSH2 0x2E2 JUMPI DUP1 PUSH4 0xA22CB465 EQ PUSH2 0x300 JUMPI DUP1 PUSH4 0xA3CACC85 EQ PUSH2 0x31C JUMPI PUSH2 0x134 JUMP JUMPDEST DUP1 PUSH4 0x1B2EF1CA GT PUSH2 0xFD JUMPI DUP1 PUSH4 0x1B2EF1CA EQ PUSH2 0x216 JUMPI DUP1 PUSH4 0x2EB2C2D6 EQ PUSH2 0x232 JUMPI DUP1 PUSH4 0x453F6A32 EQ PUSH2 0x24E JUMPI DUP1 PUSH4 0x4A3268E4 EQ PUSH2 0x26C JUMPI DUP1 PUSH4 0x4E1273F4 EQ PUSH2 0x28A JUMPI PUSH2 0x134 JUMP JUMPDEST DUP1 PUSH3 0xFDD58E EQ PUSH2 0x138 JUMPI DUP1 PUSH4 0x1FFC9A7 EQ PUSH2 0x168 JUMPI DUP1 PUSH4 0xCE52E07 EQ PUSH2 0x198 JUMPI DUP1 PUSH4 0xD9371AD EQ PUSH2 0x1C8 JUMPI DUP1 PUSH4 0xE89341C EQ PUSH2 0x1E6 JUMPI JUMPDEST PUSH0 DUP1 REVERT JUMPDEST PUSH2 0x152 PUSH1 0x4 DUP1 CALLDATASIZE SUB DUP2 ADD SWAP1 PUSH2 0x14D SWAP2 SWAP1 PUSH2 0x1CDD JUMP JUMPDEST PUSH2 0x3FA JUMP JUMPDEST PUSH1 0x40 MLOAD PUSH2 0x15F SWAP2 SWAP1 PUSH2 0x1D2A JUMP JUMPDEST PUSH1 0x40 MLOAD DUP1 SWAP2 SUB SWAP1 RETURN JUMPDEST PUSH2 0x182 PUSH1 0x4 DUP1 CALLDATASIZE SUB DUP2 ADD SWAP1 PUSH2 0x17D SWAP2 SWAP1 PUSH2 0x1D98 JUMP JUMPDEST PUSH2 0x44F JUMP JUMPDEST PUSH1 0x40 MLOAD PUSH2 0x18F SWAP2 SWAP1 PUSH2 0x1DDD JUMP JUMPDEST PUSH1 0x40 MLOAD DUP1 SWAP2 SUB SWAP1 RETURN JUMPDEST PUSH2 0x1B2 PUSH1 0x4 DUP1 CALLDATASIZE SUB DUP2 ADD SWAP1 PUSH2 0x1AD SWAP2 SWAP1 PUSH2 0x1CDD JUMP JUMPDEST PUSH2 0x530 JUMP JUMPDEST PUSH1 0x40 MLOAD PUSH2 0x1BF SWAP2 SWAP1 PUSH2 0x1D2A JUMP JUMPDEST PUSH1 0x40 MLOAD DUP1 SWAP2 SUB SWAP1 RETURN JUMPDEST PUSH2 0x1D0 PUSH2 0x550 JUMP JUMPDEST PUSH1 0x40 MLOAD PUSH2 0x1DD SWAP2 SWAP1 PUSH2 0x1D2A JUMP JUMPDEST PUSH1 0x40 MLOAD DUP1 SWAP2 SUB SWAP1 RETURN JUMPDEST PUSH2 0x200 PUSH1 0x4 DUP1 CALLDATASIZE SUB DUP2 ADD SWAP1 PUSH2 0x1FB SWAP2 SWAP1 PUSH2 0x1DF6 JUMP JUMPDEST PUSH2 0x555 JUMP JUMPDEST PUSH1 0x40 MLOAD PUSH2 0x20D SWAP2 SWAP1 PUSH2 0x1EAB JUMP JUMPDEST PUSH1 0x40 MLOAD DUP1 SWAP2 SUB SWAP1 RETURN JUMPDEST PUSH2 0x230 PUSH1 0x4 DUP1 CALLDATASIZE SUB DUP2 ADD SWAP1 PUSH2 0x22B SWAP2 SWAP1 PUSH2 0x1ECB JUMP JUMPDEST PUSH2 0x590 JUMP JUMPDEST STOP JUMPDEST PUSH2 0x24C PUSH1 0x4 DUP1 CALLDATASIZE SUB DUP2 ADD SWAP1 PUSH2 0x247 SWAP2 SWAP1 PUSH2 0x20F9 JUMP JUMPDEST PUSH2 0x6EA JUMP JUMPDEST STOP JUMPDEST PUSH2 0x256 PUSH2 0x791 JUMP JUMPDEST PUSH1 0x40 MLOAD PUSH2 0x263 SWAP2 SWAP1 PUSH2 0x1D2A JUMP JUMPDEST PUSH1 0x40 MLOAD DUP1 SWAP2 SUB SWAP1 RETURN JUMPDEST PUSH2 0x274 PUSH2 0x796 JUMP JUMPDEST PUSH1 0x40 MLOAD PUSH2 0x281 SWAP2 SWAP1 PUSH2 0x1D2A JUMP JUMPDEST PUSH1 0x40 MLOAD DUP1 SWAP2 SUB SWAP1 RETURN JUMPDEST PUSH2 0x2A4 PUSH1 0x4 DUP1 CALLDATASIZE SUB DUP2 ADD SWAP1 PUSH2 0x29F SWAP2 SWAP1 PUSH2 0x2284 JUMP JUMPDEST PUSH2 0x79B JUMP JUMPDEST PUSH1 0x40 MLOAD PUSH2 0x2B1 SWAP2 SWAP1 PUSH2 0x23B1 JUMP JUMPDEST PUSH1 0x40 MLOAD DUP1 SWAP2 SUB SWAP1 RETURN JUMPDEST PUSH2 0x2C2 PUSH2 0x8A2 JUMP JUMPDEST STOP JUMPDEST PUSH2 0x2CC PUSH2 0x8B5 JUMP JUMPDEST PUSH1 0x40 MLOAD PUSH2 0x2D9 SWAP2 SWAP1 PUSH2 0x1D2A JUMP JUMPDEST PUSH1 0x40 MLOAD DUP1 SWAP2 SUB SWAP1 RETURN JUMPDEST PUSH2 0x2EA PUSH2 0x8BA JUMP JUMPDEST PUSH1 0x40 MLOAD PUSH2 0x2F7 SWAP2 SWAP1 PUSH2 0x23E0 JUMP JUMPDEST PUSH1 0x40 MLOAD DUP1 SWAP2 SUB SWAP1 RETURN JUMPDEST PUSH2 0x31A PUSH1 0x4 DUP1 CALLDATASIZE SUB DUP2 ADD SWAP1 PUSH2 0x315 SWAP2 SWAP1 PUSH2 0x2423 JUMP JUMPDEST PUSH2 0x8E2 JUMP JUMPDEST STOP JUMPDEST PUSH2 0x324 PUSH2 0x8F8 JUMP JUMPDEST PUSH1 0x40 MLOAD PUSH2 0x331 SWAP2 SWAP1 PUSH2 0x1D2A JUMP JUMPDEST PUSH1 0x40 MLOAD DUP1 SWAP2 SUB SWAP1 RETURN JUMPDEST PUSH2 0x342 PUSH2 0x8FD JUMP JUMPDEST PUSH1 0x40 MLOAD PUSH2 0x34F SWAP2 SWAP1 PUSH2 0x1D2A JUMP JUMPDEST PUSH1 0x40 MLOAD DUP1 SWAP2 SUB SWAP1 RETURN JUMPDEST PUSH2 0x360 PUSH2 0x901 JUMP JUMPDEST PUSH1 0x40 MLOAD PUSH2 0x36D SWAP2 SWAP1 PUSH2 0x1D2A JUMP JUMPDEST PUSH1 0x40 MLOAD DUP1 SWAP2 SUB SWAP1 RETURN JUMPDEST PUSH2 0x390 PUSH1 0x4 DUP1 CALLDATASIZE SUB DUP2 ADD SWAP1 PUSH2 0x38B SWAP2 SWAP1 PUSH2 0x2461 JUMP JUMPDEST PUSH2 0x906 JUMP JUMPDEST PUSH1 0x40 MLOAD PUSH2 0x39D SWAP2 SWAP1 PUSH2 0x1DDD JUMP JUMPDEST PUSH1 0x40 MLOAD DUP1 SWAP2 SUB SWAP1 RETURN JUMPDEST PUSH2 0x3C0 PUSH1 0x4 DUP1 CALLDATASIZE SUB DUP2 ADD SWAP1 PUSH2 0x3BB SWAP2 SWAP1 PUSH2 0x249F JUMP JUMPDEST PUSH2 0x994 JUMP JUMPDEST STOP JUMPDEST PUSH2 0x3DC PUSH1 0x4 DUP1 CALLDATASIZE SUB DUP2 ADD SWAP1 PUSH2 0x3D7 SWAP2 SWAP1 PUSH2 0x2532 JUMP JUMPDEST PUSH2 0xA3B JUMP JUMPDEST STOP JUMPDEST PUSH2 0x3F8 PUSH1 0x4 DUP1 CALLDATASIZE SUB DUP2 ADD SWAP1 PUSH2 0x3F3 SWAP2 SWAP1 PUSH2 0x255D JUMP JUMPDEST PUSH2 0xABF JUMP JUMPDEST STOP JUMPDEST PUSH0 DUP1 PUSH0 DUP4 DUP2 MSTORE PUSH1 0x20 ADD SWAP1 DUP2 MSTORE PUSH1 0x20 ADD PUSH0 KECCAK256 PUSH0 DUP5 PUSH20 0xFFFFFFFFFFFFFFFFFFFFFFFFFFFFFFFFFFFFFFFF AND PUSH20 0xFFFFFFFFFFFFFFFFFFFFFFFFFFFFFFFFFFFFFFFF AND DUP2 MSTORE PUSH1 0x20 ADD SWAP1 DUP2 MSTORE PUSH1 0x20 ADD PUSH0 KECCAK256 SLOAD SWAP1 POP SWAP3 SWAP2 POP POP JUMP JUMPDEST PUSH0 PUSH32 0xD9B67A2600000000000000000000000000000000000000000000000000000000 PUSH28 0xFFFFFFFFFFFFFFFFFFFFFFFFFFFFFFFFFFFFFFFFFFFFFFFFFFFFFFFF NOT AND DUP3 PUSH28 0xFFFFFFFFFFFFFFFFFFFFFFFFFFFFFFFFFFFFFFFFFFFFFFFFFFFFFFFF NOT AND EQ DUP1 PUSH2 0x519 JUMPI POP PUSH32 0xE89341C00000000000000000000000000000000000000000000000000000000 PUSH28 0xFFFFFFFFFFFFFFFFFFFFFFFFFFFFFFFFFFFFFFFFFFFFFFFFFFFFFFFF NOT AND DUP3 PUSH28 0xFFFFFFFFFFFFFFFFFFFFFFFFFFFFFFFFFFFFFFFFFFFFFFFFFFFFFFFF NOT AND EQ JUMPDEST DUP1 PUSH2 0x529 JUMPI POP PUSH2 0x528 DUP3 PUSH2 0xB4E JUMP JUMPDEST JUMPDEST SWAP1 POP SWAP2 SWAP1 POP JUMP JUMPDEST PUSH1 0x4 PUSH1 0x20 MSTORE DUP2 PUSH0 MSTORE PUSH1 0x40 PUSH0 KECCAK256 PUSH1 0x20 MSTORE DUP1 PUSH0 MSTORE PUSH1 0x40 PUSH0 KECCAK256 PUSH0 SWAP2 POP SWAP2 POP POP SLOAD DUP2 JUMP JUMPDEST PUSH1 0x4 DUP2 JUMP JUMPDEST PUSH1 0x60 PUSH2 0x560 DUP3 PUSH2 0xBB7 JUMP JUMPDEST PUSH2 0x569 DUP4 PUSH2 0xC49 JUMP JUMPDEST PUSH1 0x40 MLOAD PUSH1 0x20 ADD PUSH2 0x57A SWAP3 SWAP2 SWAP1 PUSH2 0x25E7 JUMP JUMPDEST PUSH1 0x40 MLOAD PUSH1 0x20 DUP2 DUP4 SUB SUB DUP2 MSTORE SWAP1 PUSH1 0x40 MSTORE SWAP1 POP SWAP2 SWAP1 POP JUMP JUMPDEST PUSH0 DUP3 LT ISZERO DUP1 ISZERO PUSH2 0x5A1 JUMPI POP PUSH1 0x2 DUP3 GT ISZERO JUMPDEST PUSH2 0x5E0 JUMPI PUSH1 0x40 MLOAD PUSH32 0x8C379A000000000000000000000000000000000000000000000000000000000 DUP2 MSTORE PUSH1 0x4 ADD PUSH2 0x5D7 SWAP1 PUSH2 0x2654 JUMP JUMPDEST PUSH1 0x40 MLOAD DUP1 SWAP2 SUB SWAP1 REVERT JUMPDEST PUSH1 0x3C PUSH1 0x4 PUSH0 CALLER PUSH20 0xFFFFFFFFFFFFFFFFFFFFFFFFFFFFFFFFFFFFFFFF AND PUSH20 0xFFFFFFFFFFFFFFFFFFFFFFFFFFFFFFFFFFFFFFFF AND DUP2 MSTORE PUSH1 0x20 ADD SWAP1 DUP2 MSTORE PUSH1 0x20 ADD PUSH0 KECCAK256 PUSH0 DUP5 DUP2 MSTORE PUSH1 0x20 ADD SWAP1 DUP2 MSTORE PUSH1 0x20 ADD PUSH0 KECCAK256 SLOAD PUSH2 0x639 SWAP2 SWAP1 PUSH2 0x269F JUMP JUMPDEST TIMESTAMP LT ISZERO PUSH2 0x67B JUMPI PUSH1 0x40 MLOAD PUSH32 0x8C379A000000000000000000000000000000000000000000000000000000000 DUP2 MSTORE PUSH1 0x4 ADD PUSH2 0x672 SWAP1 PUSH2 0x271C JUMP JUMPDEST PUSH1 0x40 MLOAD DUP1 SWAP2 SUB SWAP1 REVERT JUMPDEST TIMESTAMP PUSH1 0x4 PUSH0 CALLER PUSH20 0xFFFFFFFFFFFFFFFFFFFFFFFFFFFFFFFFFFFFFFFF AND PUSH20 0xFFFFFFFFFFFFFFFFFFFFFFFFFFFFFFFFFFFFFFFF AND DUP2 MSTORE PUSH1 0x20 ADD SWAP1 DUP2 MSTORE PUSH1 0x20 ADD PUSH0 KECCAK256 PUSH0 DUP5 DUP2 MSTORE PUSH1 0x20 ADD SWAP1 DUP2 MSTORE PUSH1 0x20 ADD PUSH0 KECCAK256 DUP2 SWAP1 SSTORE POP PUSH2 0x6E6 CALLER DUP4 DUP4 PUSH1 0x40 MLOAD DUP1 PUSH1 0x20 ADD PUSH1 0x40 MSTORE DUP1 PUSH0 DUP2 MSTORE POP PUSH2 0xD13 JUMP JUMPDEST POP POP JUMP JUMPDEST PUSH0 PUSH2 0x6F3 PUSH2 0xDA8 JUMP JUMPDEST SWAP1 POP DUP1 PUSH20 0xFFFFFFFFFFFFFFFFFFFFFFFFFFFFFFFFFFFFFFFF AND DUP7 PUSH20 0xFFFFFFFFFFFFFFFFFFFFFFFFFFFFFFFFFFFFFFFF AND EQ ISZERO DUP1 ISZERO PUSH2 0x738 JUMPI POP PUSH2 0x736 DUP7 DUP3 PUSH2 0x906 JUMP JUMPDEST ISZERO JUMPDEST ISZERO PUSH2 0x77C JUMPI DUP1 DUP7 PUSH1 0x40 MLOAD PUSH32 0xE237D92200000000000000000000000000000000000000000000000000000000 DUP2 MSTORE PUSH1 0x4 ADD PUSH2 0x773 SWAP3 SWAP2 SWAP1 PUSH2 0x273A JUMP JUMPDEST PUSH1 0x40 MLOAD DUP1 SWAP2 SUB SWAP1 REVERT JUMPDEST PUSH2 0x789 DUP7 DUP7 DUP7 DUP7 DUP7 PUSH2 0xDAF JUMP JUMPDEST POP POP POP POP POP POP JUMP JUMPDEST PUSH1 0x3 DUP2 JUMP JUMPDEST PUSH1 0x1 DUP2 JUMP JUMPDEST PUSH1 0x60 DUP2 MLOAD DUP4 MLOAD EQ PUSH2 0x7E7 JUMPI DUP2 MLOAD DUP4 MLOAD PUSH1 0x40 MLOAD PUSH32 0x5B05999100000000000000000000000000000000000000000000000000000000 DUP2 MSTORE PUSH1 0x4 ADD PUSH2 0x7DE SWAP3 SWAP2 SWAP1 PUSH2 0x2761 JUMP JUMPDEST PUSH1 0x40 MLOAD DUP1 SWAP2 SUB SWAP1 REVERT JUMPDEST PUSH0 DUP4 MLOAD PUSH8 0xFFFFFFFFFFFFFFFF DUP2 GT ISZERO PUSH2 0x803 JUMPI PUSH2 0x802 PUSH2 0x1F0D JUMP JUMPDEST JUMPDEST PUSH1 0x40 MLOAD SWAP1 DUP1 DUP3 MSTORE DUP1 PUSH1 0x20 MUL PUSH1 0x20 ADD DUP3 ADD PUSH1 0x40 MSTORE DUP1 ISZERO PUSH2 0x831 JUMPI DUP2 PUSH1 0x20 ADD PUSH1 0x20 DUP3 MUL DUP1 CALLDATASIZE DUP4 CALLDATACOPY DUP1 DUP3 ADD SWAP2 POP POP SWAP1 POP JUMPDEST POP SWAP1 POP PUSH0 JUMPDEST DUP5 MLOAD DUP2 LT ISZERO PUSH2 0x897 JUMPI PUSH2 0x86D PUSH2 0x855 DUP3 DUP8 PUSH2 0xEA3 SWAP1 SWAP2 SWAP1 PUSH4 0xFFFFFFFF AND JUMP JUMPDEST PUSH2 0x868 DUP4 DUP8 PUSH2 0xEB6 SWAP1 SWAP2 SWAP1 PUSH4 0xFFFFFFFF AND JUMP JUMPDEST PUSH2 0x3FA JUMP JUMPDEST DUP3 DUP3 DUP2 MLOAD DUP2 LT PUSH2 0x880 JUMPI PUSH2 0x87F PUSH2 0x2788 JUMP JUMPDEST JUMPDEST PUSH1 0x20 MUL PUSH1 0x20 ADD ADD DUP2 DUP2 MSTORE POP POP DUP1 PUSH1 0x1 ADD SWAP1 POP PUSH2 0x836 JUMP JUMPDEST POP DUP1 SWAP2 POP POP SWAP3 SWAP2 POP POP JUMP JUMPDEST PUSH2 0x8AA PUSH2 0xEC9 JUMP JUMPDEST PUSH2 0x8B3 PUSH0 PUSH2 0xF50 JUMP JUMPDEST JUMP JUMPDEST PUSH1 0x2 DUP2 JUMP JUMPDEST PUSH0 PUSH1 0x3 PUSH0 SWAP1 SLOAD SWAP1 PUSH2 0x100 EXP SWAP1 DIV PUSH20 0xFFFFFFFFFFFFFFFFFFFFFFFFFFFFFFFFFFFFFFFF AND SWAP1 POP SWAP1 JUMP JUMPDEST PUSH2 0x8F4 PUSH2 0x8ED PUSH2 0xDA8 JUMP JUMPDEST DUP4 DUP4 PUSH2 0x1013 JUMP JUMPDEST POP POP JUMP JUMPDEST PUSH1 0x6 DUP2 JUMP JUMPDEST PUSH0 DUP2 JUMP JUMPDEST PUSH1 0x5 DUP2 JUMP JUMPDEST PUSH0 PUSH1 0x1 PUSH0 DUP5 PUSH20 0xFFFFFFFFFFFFFFFFFFFFFFFFFFFFFFFFFFFFFFFF AND PUSH20 0xFFFFFFFFFFFFFFFFFFFFFFFFFFFFFFFFFFFFFFFF AND DUP2 MSTORE PUSH1 0x20 ADD SWAP1 DUP2 MSTORE PUSH1 0x20 ADD PUSH0 KECCAK256 PUSH0 DUP4 PUSH20 0xFFFFFFFFFFFFFFFFFFFFFFFFFFFFFFFFFFFFFFFF AND PUSH20 0xFFFFFFFFFFFFFFFFFFFFFFFFFFFFFFFFFFFFFFFF AND DUP2 MSTORE PUSH1 0x20 ADD SWAP1 DUP2 MSTORE PUSH1 0x20 ADD PUSH0 KECCAK256 PUSH0 SWAP1 SLOAD SWAP1 PUSH2 0x100 EXP SWAP1 DIV PUSH1 0xFF AND SWAP1 POP SWAP3 SWAP2 POP POP JUMP JUMPDEST PUSH0 PUSH2 0x99D PUSH2 0xDA8 JUMP JUMPDEST SWAP1 POP DUP1 PUSH20 0xFFFFFFFFFFFFFFFFFFFFFFFFFFFFFFFFFFFFFFFF AND DUP7 PUSH20 0xFFFFFFFFFFFFFFFFFFFFFFFFFFFFFFFFFFFFFFFF AND EQ ISZERO DUP1 ISZERO PUSH2 0x9E2 JUMPI POP PUSH2 0x9E0 DUP7 DUP3 PUSH2 0x906 JUMP JUMPDEST ISZERO JUMPDEST ISZERO PUSH2 0xA26 JUMPI DUP1 DUP7 PUSH1 0x40 MLOAD PUSH32 0xE237D92200000000000000000000000000000000000000000000000000000000 DUP2 MSTORE PUSH1 0x4 ADD PUSH2 0xA1D SWAP3 SWAP2 SWAP1 PUSH2 0x273A JUMP JUMPDEST PUSH1 0x40 MLOAD DUP1 SWAP2 SUB SWAP1 REVERT JUMPDEST PUSH2 0xA33 DUP7 DUP7 DUP7 DUP7 DUP7 PUSH2 0x117C JUMP JUMPDEST POP POP POP POP POP POP JUMP JUMPDEST PUSH2 0xA43 PUSH2 0xEC9 JUMP JUMPDEST PUSH0 PUSH20 0xFFFFFFFFFFFFFFFFFFFFFFFFFFFFFFFFFFFFFFFF AND DUP2 PUSH20 0xFFFFFFFFFFFFFFFFFFFFFFFFFFFFFFFFFFFFFFFF AND SUB PUSH2 0xAB3 JUMPI PUSH0 PUSH1 0x40 MLOAD PUSH32 0x1E4FBDF700000000000000000000000000000000000000000000000000000000 DUP2 MSTORE PUSH1 0x4 ADD PUSH2 0xAAA SWAP2 SWAP1 PUSH2 0x23E0 JUMP JUMPDEST PUSH1 0x40 MLOAD DUP1 SWAP2 SUB SWAP1 REVERT JUMPDEST PUSH2 0xABC DUP2 PUSH2 0xF50 JUMP JUMPDEST POP JUMP JUMPDEST DUP3 PUSH20 0xFFFFFFFFFFFFFFFFFFFFFFFFFFFFFFFFFFFFFFFF AND CALLER PUSH20 0xFFFFFFFFFFFFFFFFFFFFFFFFFFFFFFFFFFFFFFFF AND EQ DUP1 PUSH2 0xAFF JUMPI POP PUSH2 0xAFE DUP4 CALLER PUSH2 0x906 JUMP JUMPDEST JUMPDEST PUSH2 0xB3E JUMPI PUSH1 0x40 MLOAD PUSH32 0x8C379A000000000000000000000000000000000000000000000000000000000 DUP2 MSTORE PUSH1 0x4 ADD PUSH2 0xB35 SWAP1 PUSH2 0x27FF JUMP JUMPDEST PUSH1 0x40 MLOAD DUP1 SWAP2 SUB SWAP1 REVERT JUMPDEST PUSH2 0xB49 DUP4 DUP4 DUP4 PUSH2 0x1282 JUMP JUMPDEST POP POP POP JUMP JUMPDEST PUSH0 PUSH32 0x1FFC9A700000000000000000000000000000000000000000000000000000000 PUSH28 0xFFFFFFFFFFFFFFFFFFFFFFFFFFFFFFFFFFFFFFFFFFFFFFFFFFFFFFFF NOT AND DUP3 PUSH28 0xFFFFFFFFFFFFFFFFFFFFFFFFFFFFFFFFFFFFFFFFFFFFFFFFFFFFFFFF NOT AND EQ SWAP1 POP SWAP2 SWAP1 POP JUMP JUMPDEST PUSH1 0x60 PUSH1 0x2 DUP1 SLOAD PUSH2 0xBC6 SWAP1 PUSH2 0x284A JUMP JUMPDEST DUP1 PUSH1 0x1F ADD PUSH1 0x20 DUP1 SWAP2 DIV MUL PUSH1 0x20 ADD PUSH1 0x40 MLOAD SWAP1 DUP2 ADD PUSH1 0x40 MSTORE DUP1 SWAP3 SWAP2 SWAP1 DUP2 DUP2 MSTORE PUSH1 0x20 ADD DUP3 DUP1 SLOAD PUSH2 0xBF2 SWAP1 PUSH2 0x284A JUMP JUMPDEST DUP1 ISZERO PUSH2 0xC3D JUMPI DUP1 PUSH1 0x1F LT PUSH2 0xC14 JUMPI PUSH2 0x100 DUP1 DUP4 SLOAD DIV MUL DUP4 MSTORE SWAP2 PUSH1 0x20 ADD SWAP2 PUSH2 0xC3D JUMP JUMPDEST DUP3 ADD SWAP2 SWAP1 PUSH0 MSTORE PUSH1 0x20 PUSH0 KECCAK256 SWAP1 JUMPDEST DUP2 SLOAD DUP2 MSTORE SWAP1 PUSH1 0x1 ADD SWAP1 PUSH1 0x20 ADD DUP1 DUP4 GT PUSH2 0xC20 JUMPI DUP3 SWAP1 SUB PUSH1 0x1F AND DUP3 ADD SWAP2 JUMPDEST POP POP POP POP POP SWAP1 POP SWAP2 SWAP1 POP JUMP JUMPDEST PUSH1 0x60 PUSH0 PUSH1 0x1 PUSH2 0xC57 DUP5 PUSH2 0x1324 JUMP JUMPDEST ADD SWAP1 POP PUSH0 DUP2 PUSH8 0xFFFFFFFFFFFFFFFF DUP2 GT ISZERO PUSH2 0xC75 JUMPI PUSH2 0xC74 PUSH2 0x1F0D JUMP JUMPDEST JUMPDEST PUSH1 0x40 MLOAD SWAP1 DUP1 DUP3 MSTORE DUP1 PUSH1 0x1F ADD PUSH1 0x1F NOT AND PUSH1 0x20 ADD DUP3 ADD PUSH1 0x40 MSTORE DUP1 ISZERO PUSH2 0xCA7 JUMPI DUP2 PUSH1 0x20 ADD PUSH1 0x1 DUP3 MUL DUP1 CALLDATASIZE DUP4 CALLDATACOPY DUP1 DUP3 ADD SWAP2 POP POP SWAP1 POP JUMPDEST POP SWAP1 POP PUSH0 DUP3 PUSH1 0x20 ADD DUP3 ADD SWAP1 POP JUMPDEST PUSH1 0x1 ISZERO PUSH2 0xD08 JUMPI DUP1 DUP1 PUSH1 0x1 SWAP1 SUB SWAP2 POP POP PUSH32 0x3031323334353637383961626364656600000000000000000000000000000000 PUSH1 0xA DUP7 MOD BYTE DUP2 MSTORE8 PUSH1 0xA DUP6 DUP2 PUSH2 0xCFD JUMPI PUSH2 0xCFC PUSH2 0x287A JUMP JUMPDEST JUMPDEST DIV SWAP5 POP PUSH0 DUP6 SUB PUSH2 0xCB4 JUMPI JUMPDEST DUP2 SWAP4 POP POP POP POP SWAP2 SWAP1 POP JUMP JUMPDEST PUSH0 PUSH20 0xFFFFFFFFFFFFFFFFFFFFFFFFFFFFFFFFFFFFFFFF AND DUP5 PUSH20 0xFFFFFFFFFFFFFFFFFFFFFFFFFFFFFFFFFFFFFFFF AND SUB PUSH2 0xD83 JUMPI PUSH0 PUSH1 0x40 MLOAD PUSH32 0x57F447CE00000000000000000000000000000000000000000000000000000000 DUP2 MSTORE PUSH1 0x4 ADD PUSH2 0xD7A SWAP2 SWAP1 PUSH2 0x23E0 JUMP JUMPDEST PUSH1 0x40 MLOAD DUP1 SWAP2 SUB SWAP1 REVERT JUMPDEST PUSH0 DUP1 PUSH2 0xD8F DUP6 DUP6 PUSH2 0x1475 JUMP JUMPDEST SWAP2 POP SWAP2 POP PUSH2 0xDA0 PUSH0 DUP8 DUP5 DUP5 DUP8 PUSH2 0x14A5 JUMP JUMPDEST POP POP POP POP POP POP JUMP JUMPDEST PUSH0 CALLER SWAP1 POP SWAP1 JUMP JUMPDEST PUSH0 PUSH20 0xFFFFFFFFFFFFFFFFFFFFFFFFFFFFFFFFFFFFFFFF AND DUP5 PUSH20 0xFFFFFFFFFFFFFFFFFFFFFFFFFFFFFFFFFFFFFFFF AND SUB PUSH2 0xE1F JUMPI PUSH0 PUSH1 0x40 MLOAD PUSH32 0x57F447CE00000000000000000000000000000000000000000000000000000000 DUP2 MSTORE PUSH1 0x4 ADD PUSH2 0xE16 SWAP2 SWAP1 PUSH2 0x23E0 JUMP JUMPDEST PUSH1 0x40 MLOAD DUP1 SWAP2 SUB SWAP1 REVERT JUMPDEST PUSH0 PUSH20 0xFFFFFFFFFFFFFFFFFFFFFFFFFFFFFFFFFFFFFFFF AND DUP6 PUSH20 0xFFFFFFFFFFFFFFFFFFFFFFFFFFFFFFFFFFFFFFFF AND SUB PUSH2 0xE8F JUMPI PUSH0 PUSH1 0x40 MLOAD PUSH32 0x1A8351400000000000000000000000000000000000000000000000000000000 DUP2 MSTORE PUSH1 0x4 ADD PUSH2 0xE86 SWAP2 SWAP1 PUSH2 0x23E0 JUMP JUMPDEST PUSH1 0x40 MLOAD DUP1 SWAP2 SUB SWAP1 REVERT JUMPDEST PUSH2 0xE9C DUP6 DUP6 DUP6 DUP6 DUP6 PUSH2 0x14A5 JUMP JUMPDEST POP POP POP POP POP JUMP JUMPDEST PUSH0 PUSH1 0x20 DUP3 MUL PUSH1 0x20 DUP5 ADD ADD MLOAD SWAP1 POP SWAP3 SWAP2 POP POP JUMP JUMPDEST PUSH0 PUSH1 0x20 DUP3 MUL PUSH1 0x20 DUP5 ADD ADD MLOAD SWAP1 POP SWAP3 SWAP2 POP POP JUMP JUMPDEST PUSH2 0xED1 PUSH2 0xDA8 JUMP JUMPDEST PUSH20 0xFFFFFFFFFFFFFFFFFFFFFFFFFFFFFFFFFFFFFFFF AND PUSH2 0xEEF PUSH2 0x8BA JUMP JUMPDEST PUSH20 0xFFFFFFFFFFFFFFFFFFFFFFFFFFFFFFFFFFFFFFFF AND EQ PUSH2 0xF4E JUMPI PUSH2 0xF12 PUSH2 0xDA8 JUMP JUMPDEST PUSH1 0x40 MLOAD PUSH32 0x118CDAA700000000000000000000000000000000000000000000000000000000 DUP2 MSTORE PUSH1 0x4 ADD PUSH2 0xF45 SWAP2 SWAP1 PUSH2 0x23E0 JUMP JUMPDEST PUSH1 0x40 MLOAD DUP1 SWAP2 SUB SWAP1 REVERT JUMPDEST JUMP JUMPDEST PUSH0 PUSH1 0x3 PUSH0 SWAP1 SLOAD SWAP1 PUSH2 0x100 EXP SWAP1 DIV PUSH20 0xFFFFFFFFFFFFFFFFFFFFFFFFFFFFFFFFFFFFFFFF AND SWAP1 POP DUP2 PUSH1 0x3 PUSH0 PUSH2 0x100 EXP DUP2 SLOAD DUP2 PUSH20 0xFFFFFFFFFFFFFFFFFFFFFFFFFFFFFFFFFFFFFFFF MUL NOT AND SWAP1 DUP4 PUSH20 0xFFFFFFFFFFFFFFFFFFFFFFFFFFFFFFFFFFFFFFFF AND MUL OR SWAP1 SSTORE POP DUP2 PUSH20 0xFFFFFFFFFFFFFFFFFFFFFFFFFFFFFFFFFFFFFFFF AND DUP2 PUSH20 0xFFFFFFFFFFFFFFFFFFFFFFFFFFFFFFFFFFFFFFFF AND PUSH32 0x8BE0079C531659141344CD1FD0A4F28419497F9722A3DAAFE3B4186F6B6457E0 PUSH1 0x40 MLOAD PUSH1 0x40 MLOAD DUP1 SWAP2 SUB SWAP1 LOG3 POP POP JUMP JUMPDEST PUSH0 PUSH20 0xFFFFFFFFFFFFFFFFFFFFFFFFFFFFFFFFFFFFFFFF AND DUP3 PUSH20 0xFFFFFFFFFFFFFFFFFFFFFFFFFFFFFFFFFFFFFFFF AND SUB PUSH2 0x1083 JUMPI PUSH0 PUSH1 0x40 MLOAD PUSH32 0xCED3E10000000000000000000000000000000000000000000000000000000000 DUP2 MSTORE PUSH1 0x4 ADD PUSH2 0x107A SWAP2 SWAP1 PUSH2 0x23E0 JUMP JUMPDEST PUSH1 0x40 MLOAD DUP1 SWAP2 SUB SWAP1 REVERT JUMPDEST DUP1 PUSH1 0x1 PUSH0 DUP6 PUSH20 0xFFFFFFFFFFFFFFFFFFFFFFFFFFFFFFFFFFFFFFFF AND PUSH20 0xFFFFFFFFFFFFFFFFFFFFFFFFFFFFFFFFFFFFFFFF AND DUP2 MSTORE PUSH1 0x20 ADD SWAP1 DUP2 MSTORE PUSH1 0x20 ADD PUSH0 KECCAK256 PUSH0 DUP5 PUSH20 0xFFFFFFFFFFFFFFFFFFFFFFFFFFFFFFFFFFFFFFFF AND PUSH20 0xFFFFFFFFFFFFFFFFFFFFFFFFFFFFFFFFFFFFFFFF AND DUP2 MSTORE PUSH1 0x20 ADD SWAP1 DUP2 MSTORE PUSH1 0x20 ADD PUSH0 KECCAK256 PUSH0 PUSH2 0x100 EXP DUP2 SLOAD DUP2 PUSH1 0xFF MUL NOT AND SWAP1 DUP4 ISZERO ISZERO MUL OR SWAP1 SSTORE POP DUP2 PUSH20 0xFFFFFFFFFFFFFFFFFFFFFFFFFFFFFFFFFFFFFFFF AND DUP4 PUSH20 0xFFFFFFFFFFFFFFFFFFFFFFFFFFFFFFFFFFFFFFFF AND PUSH32 0x17307EAB39AB6107E8899845AD3D59BD9653F200F220920489CA2B5937696C31 DUP4 PUSH1 0x40 MLOAD PUSH2 0x116F SWAP2 SWAP1 PUSH2 0x1DDD JUMP JUMPDEST PUSH1 0x40 MLOAD DUP1 SWAP2 SUB SWAP1 LOG3 POP POP POP JUMP JUMPDEST PUSH0 PUSH20 0xFFFFFFFFFFFFFFFFFFFFFFFFFFFFFFFFFFFFFFFF AND DUP5 PUSH20 0xFFFFFFFFFFFFFFFFFFFFFFFFFFFFFFFFFFFFFFFF AND SUB PUSH2 0x11EC JUMPI PUSH0 PUSH1 0x40 MLOAD PUSH32 0x57F447CE00000000000000000000000000000000000000000000000000000000 DUP2 MSTORE PUSH1 0x4 ADD PUSH2 0x11E3 SWAP2 SWAP1 PUSH2 0x23E0 JUMP JUMPDEST PUSH1 0x40 MLOAD DUP1 SWAP2 SUB SWAP1 REVERT JUMPDEST PUSH0 PUSH20 0xFFFFFFFFFFFFFFFFFFFFFFFFFFFFFFFFFFFFFFFF AND DUP6 PUSH20 0xFFFFFFFFFFFFFFFFFFFFFFFFFFFFFFFFFFFFFFFF AND SUB PUSH2 0x125C JUMPI PUSH0 PUSH1 0x40 MLOAD PUSH32 0x1A8351400000000000000000000000000000000000000000000000000000000 DUP2 MSTORE PUSH1 0x4 ADD PUSH2 0x1253 SWAP2 SWAP1 PUSH2 0x23E0 JUMP JUMPDEST PUSH1 0x40 MLOAD DUP1 SWAP2 SUB SWAP1 REVERT JUMPDEST PUSH0 DUP1 PUSH2 0x1268 DUP6 DUP6 PUSH2 0x1475 JUMP JUMPDEST SWAP2 POP SWAP2 POP PUSH2 0x1279 DUP8 DUP8 DUP5 DUP5 DUP8 PUSH2 0x14A5 JUMP JUMPDEST POP POP POP POP POP POP POP JUMP JUMPDEST PUSH0 PUSH20 0xFFFFFFFFFFFFFFFFFFFFFFFFFFFFFFFFFFFFFFFF AND DUP4 PUSH20 0xFFFFFFFFFFFFFFFFFFFFFFFFFFFFFFFFFFFFFFFF AND SUB PUSH2 0x12F2 JUMPI PUSH0 PUSH1 0x40 MLOAD PUSH32 0x1A8351400000000000000000000000000000000000000000000000000000000 DUP2 MSTORE PUSH1 0x4 ADD PUSH2 0x12E9 SWAP2 SWAP1 PUSH2 0x23E0 JUMP JUMPDEST PUSH1 0x40 MLOAD DUP1 SWAP2 SUB SWAP1 REVERT JUMPDEST PUSH0 DUP1 PUSH2 0x12FE DUP5 DUP5 PUSH2 0x1475 JUMP JUMPDEST SWAP2 POP SWAP2 POP PUSH2 0x131D DUP6 PUSH0 DUP5 DUP5 PUSH1 0x40 MLOAD DUP1 PUSH1 0x20 ADD PUSH1 0x40 MSTORE DUP1 PUSH0 DUP2 MSTORE POP PUSH2 0x14A5 JUMP JUMPDEST POP POP POP POP POP JUMP JUMPDEST PUSH0 DUP1 PUSH0 SWAP1 POP PUSH27 0x184F03E93FF9F4DAA797ED6E38ED64BF6A1F010000000000000000 DUP4 LT PUSH2 0x1380 JUMPI PUSH27 0x184F03E93FF9F4DAA797ED6E38ED64BF6A1F010000000000000000 DUP4 DUP2 PUSH2 0x1376 JUMPI PUSH2 0x1375 PUSH2 0x287A JUMP JUMPDEST JUMPDEST DIV SWAP3 POP PUSH1 0x40 DUP2 ADD SWAP1 POP JUMPDEST PUSH14 0x4EE2D6D415B85ACEF8100000000 DUP4 LT PUSH2 0x13BD JUMPI PUSH14 0x4EE2D6D415B85ACEF8100000000 DUP4 DUP2 PUSH2 0x13B3 JUMPI PUSH2 0x13B2 PUSH2 0x287A JUMP JUMPDEST JUMPDEST DIV SWAP3 POP PUSH1 0x20 DUP2 ADD SWAP1 POP JUMPDEST PUSH7 0x2386F26FC10000 DUP4 LT PUSH2 0x13EC JUMPI PUSH7 0x2386F26FC10000 DUP4 DUP2 PUSH2 0x13E2 JUMPI PUSH2 0x13E1 PUSH2 0x287A JUMP JUMPDEST JUMPDEST DIV SWAP3 POP PUSH1 0x10 DUP2 ADD SWAP1 POP JUMPDEST PUSH4 0x5F5E100 DUP4 LT PUSH2 0x1415 JUMPI PUSH4 0x5F5E100 DUP4 DUP2 PUSH2 0x140B JUMPI PUSH2 0x140A PUSH2 0x287A JUMP JUMPDEST JUMPDEST DIV SWAP3 POP PUSH1 0x8 DUP2 ADD SWAP1 POP JUMPDEST PUSH2 0x2710 DUP4 LT PUSH2 0x143A JUMPI PUSH2 0x2710 DUP4 DUP2 PUSH2 0x1430 JUMPI PUSH2 0x142F PUSH2 0x287A JUMP JUMPDEST JUMPDEST DIV SWAP3 POP PUSH1 0x4 DUP2 ADD SWAP1 POP JUMPDEST PUSH1 0x64 DUP4 LT PUSH2 0x145D JUMPI PUSH1 0x64 DUP4 DUP2 PUSH2 0x1453 JUMPI PUSH2 0x1452 PUSH2 0x287A JUMP JUMPDEST JUMPDEST DIV SWAP3 POP PUSH1 0x2 DUP2 ADD SWAP1 POP JUMPDEST PUSH1 0xA DUP4 LT PUSH2 0x146C JUMPI PUSH1 0x1 DUP2 ADD SWAP1 POP JUMPDEST DUP1 SWAP2 POP POP SWAP2 SWAP1 POP JUMP JUMPDEST PUSH1 0x60 DUP1 PUSH1 0x40 MLOAD SWAP2 POP PUSH1 0x1 DUP3 MSTORE DUP4 PUSH1 0x20 DUP4 ADD MSTORE PUSH1 0x40 DUP3 ADD SWAP1 POP PUSH1 0x1 DUP2 MSTORE DUP3 PUSH1 0x20 DUP3 ADD MSTORE PUSH1 0x40 DUP2 ADD PUSH1 0x40 MSTORE SWAP3 POP SWAP3 SWAP1 POP JUMP JUMPDEST PUSH2 0x14B1 DUP6 DUP6 DUP6 DUP6 PUSH2 0x1551 JUMP JUMPDEST PUSH0 PUSH20 0xFFFFFFFFFFFFFFFFFFFFFFFFFFFFFFFFFFFFFFFF AND DUP5 PUSH20 0xFFFFFFFFFFFFFFFFFFFFFFFFFFFFFFFFFFFFFFFF AND EQ PUSH2 0x154A JUMPI PUSH0 PUSH2 0x14ED PUSH2 0xDA8 JUMP JUMPDEST SWAP1 POP PUSH1 0x1 DUP5 MLOAD SUB PUSH2 0x1539 JUMPI PUSH0 PUSH2 0x150C PUSH0 DUP7 PUSH2 0xEB6 SWAP1 SWAP2 SWAP1 PUSH4 0xFFFFFFFF AND JUMP JUMPDEST SWAP1 POP PUSH0 PUSH2 0x1522 PUSH0 DUP7 PUSH2 0xEB6 SWAP1 SWAP2 SWAP1 PUSH4 0xFFFFFFFF AND JUMP JUMPDEST SWAP1 POP PUSH2 0x1532 DUP4 DUP10 DUP10 DUP6 DUP6 DUP10 PUSH2 0x18E1 JUMP JUMPDEST POP POP PUSH2 0x1548 JUMP JUMPDEST PUSH2 0x1547 DUP2 DUP8 DUP8 DUP8 DUP8 DUP8 PUSH2 0x1A90 JUMP JUMPDEST JUMPDEST POP JUMPDEST POP POP POP POP POP JUMP JUMPDEST DUP1 MLOAD DUP3 MLOAD EQ PUSH2 0x159B JUMPI DUP2 MLOAD DUP2 MLOAD PUSH1 0x40 MLOAD PUSH32 0x5B05999100000000000000000000000000000000000000000000000000000000 DUP2 MSTORE PUSH1 0x4 ADD PUSH2 0x1592 SWAP3 SWAP2 SWAP1 PUSH2 0x2761 JUMP JUMPDEST PUSH1 0x40 MLOAD DUP1 SWAP2 SUB SWAP1 REVERT JUMPDEST PUSH0 PUSH2 0x15A4 PUSH2 0xDA8 JUMP JUMPDEST SWAP1 POP PUSH0 JUMPDEST DUP4 MLOAD DUP2 LT ISZERO PUSH2 0x17A0 JUMPI PUSH0 PUSH2 0x15C5 DUP3 DUP7 PUSH2 0xEB6 SWAP1 SWAP2 SWAP1 PUSH4 0xFFFFFFFF AND JUMP JUMPDEST SWAP1 POP PUSH0 PUSH2 0x15DB DUP4 DUP7 PUSH2 0xEB6 SWAP1 SWAP2 SWAP1 PUSH4 0xFFFFFFFF AND JUMP JUMPDEST SWAP1 POP PUSH0 PUSH20 0xFFFFFFFFFFFFFFFFFFFFFFFFFFFFFFFFFFFFFFFF AND DUP9 PUSH20 0xFFFFFFFFFFFFFFFFFFFFFFFFFFFFFFFFFFFFFFFF AND EQ PUSH2 0x16FE JUMPI PUSH0 DUP1 PUSH0 DUP5 DUP2 MSTORE PUSH1 0x20 ADD SWAP1 DUP2 MSTORE PUSH1 0x20 ADD PUSH0 KECCAK256 PUSH0 DUP11 PUSH20 0xFFFFFFFFFFFFFFFFFFFFFFFFFFFFFFFFFFFFFFFF AND PUSH20 0xFFFFFFFFFFFFFFFFFFFFFFFFFFFFFFFFFFFFFFFF AND DUP2 MSTORE PUSH1 0x20 ADD SWAP1 DUP2 MSTORE PUSH1 0x20 ADD PUSH0 KECCAK256 SLOAD SWAP1 POP DUP2 DUP2 LT ISZERO PUSH2 0x16AA JUMPI DUP9 DUP2 DUP4 DUP6 PUSH1 0x40 MLOAD PUSH32 0x3DEE4C500000000000000000000000000000000000000000000000000000000 DUP2 MSTORE PUSH1 0x4 ADD PUSH2 0x16A1 SWAP5 SWAP4 SWAP3 SWAP2 SWAP1 PUSH2 0x28A7 JUMP JUMPDEST PUSH1 0x40 MLOAD DUP1 SWAP2 SUB SWAP1 REVERT JUMPDEST DUP2 DUP2 SUB PUSH0 DUP1 DUP6 DUP2 MSTORE PUSH1 0x20 ADD SWAP1 DUP2 MSTORE PUSH1 0x20 ADD PUSH0 KECCAK256 PUSH0 DUP12 PUSH20 0xFFFFFFFFFFFFFFFFFFFFFFFFFFFFFFFFFFFFFFFF AND PUSH20 0xFFFFFFFFFFFFFFFFFFFFFFFFFFFFFFFFFFFFFFFF AND DUP2 MSTORE PUSH1 0x20 ADD SWAP1 DUP2 MSTORE PUSH1 0x20 ADD PUSH0 KECCAK256 DUP2 SWAP1 SSTORE POP POP JUMPDEST PUSH0 PUSH20 0xFFFFFFFFFFFFFFFFFFFFFFFFFFFFFFFFFFFFFFFF AND DUP8 PUSH20 0xFFFFFFFFFFFFFFFFFFFFFFFFFFFFFFFFFFFFFFFF AND EQ PUSH2 0x1793 JUMPI DUP1 PUSH0 DUP1 DUP5 DUP2 MSTORE PUSH1 0x20 ADD SWAP1 DUP2 MSTORE PUSH1 0x20 ADD PUSH0 KECCAK256 PUSH0 DUP10 PUSH20 0xFFFFFFFFFFFFFFFFFFFFFFFFFFFFFFFFFFFFFFFF AND PUSH20 0xFFFFFFFFFFFFFFFFFFFFFFFFFFFFFFFFFFFFFFFF AND DUP2 MSTORE PUSH1 0x20 ADD SWAP1 DUP2 MSTORE PUSH1 0x20 ADD PUSH0 KECCAK256 PUSH0 DUP3 DUP3 SLOAD PUSH2 0x178B SWAP2 SWAP1 PUSH2 0x269F JUMP JUMPDEST SWAP3 POP POP DUP2 SWAP1 SSTORE POP JUMPDEST POP POP DUP1 PUSH1 0x1 ADD SWAP1 POP PUSH2 0x15A8 JUMP JUMPDEST POP PUSH1 0x1 DUP4 MLOAD SUB PUSH2 0x185B JUMPI PUSH0 PUSH2 0x17BE PUSH0 DUP6 PUSH2 0xEB6 SWAP1 SWAP2 SWAP1 PUSH4 0xFFFFFFFF AND JUMP JUMPDEST SWAP1 POP PUSH0 PUSH2 0x17D4 PUSH0 DUP6 PUSH2 0xEB6 SWAP1 SWAP2 SWAP1 PUSH4 0xFFFFFFFF AND JUMP JUMPDEST SWAP1 POP DUP6 PUSH20 0xFFFFFFFFFFFFFFFFFFFFFFFFFFFFFFFFFFFFFFFF AND DUP8 PUSH20 0xFFFFFFFFFFFFFFFFFFFFFFFFFFFFFFFFFFFFFFFF AND DUP5 PUSH20 0xFFFFFFFFFFFFFFFFFFFFFFFFFFFFFFFFFFFFFFFF AND PUSH32 0xC3D58168C5AE7397731D063D5BBF3D657854427343F4C083240F7AACAA2D0F62 DUP6 DUP6 PUSH1 0x40 MLOAD PUSH2 0x184C SWAP3 SWAP2 SWAP1 PUSH2 0x2761 JUMP JUMPDEST PUSH1 0x40 MLOAD DUP1 SWAP2 SUB SWAP1 LOG4 POP POP PUSH2 0x18DA JUMP JUMPDEST DUP4 PUSH20 0xFFFFFFFFFFFFFFFFFFFFFFFFFFFFFFFFFFFFFFFF AND DUP6 PUSH20 0xFFFFFFFFFFFFFFFFFFFFFFFFFFFFFFFFFFFFFFFF AND DUP3 PUSH20 0xFFFFFFFFFFFFFFFFFFFFFFFFFFFFFFFFFFFFFFFF AND PUSH32 0x4A39DC06D4C0DBC64B70AF90FD698A233A518AA5D07E595D983B8C0526C8F7FB DUP7 DUP7 PUSH1 0x40 MLOAD PUSH2 0x18D1 SWAP3 SWAP2 SWAP1 PUSH2 0x28EA JUMP JUMPDEST PUSH1 0x40 MLOAD DUP1 SWAP2 SUB SWAP1 LOG4 JUMPDEST POP POP POP POP POP JUMP JUMPDEST PUSH0 DUP5 PUSH20 0xFFFFFFFFFFFFFFFFFFFFFFFFFFFFFFFFFFFFFFFF AND EXTCODESIZE GT ISZERO PUSH2 0x1A88 JUMPI DUP4 PUSH20 0xFFFFFFFFFFFFFFFFFFFFFFFFFFFFFFFFFFFFFFFF AND PUSH4 0xF23A6E61 DUP8 DUP8 DUP7 DUP7 DUP7 PUSH1 0x40 MLOAD DUP7 PUSH4 0xFFFFFFFF AND PUSH1 0xE0 SHL DUP2 MSTORE PUSH1 0x4 ADD PUSH2 0x1941 SWAP6 SWAP5 SWAP4 SWAP3 SWAP2 SWAP1 PUSH2 0x2971 JUMP JUMPDEST PUSH1 0x20 PUSH1 0x40 MLOAD DUP1 DUP4 SUB DUP2 PUSH0 DUP8 GAS CALL SWAP3 POP POP POP DUP1 ISZERO PUSH2 0x197C JUMPI POP PUSH1 0x40 MLOAD RETURNDATASIZE PUSH1 0x1F NOT PUSH1 0x1F DUP3 ADD AND DUP3 ADD DUP1 PUSH1 0x40 MSTORE POP DUP2 ADD SWAP1 PUSH2 0x1979 SWAP2 SWAP1 PUSH2 0x29DD JUMP JUMPDEST PUSH1 0x1 JUMPDEST PUSH2 0x19FD JUMPI RETURNDATASIZE DUP1 PUSH0 DUP2 EQ PUSH2 0x19AA JUMPI PUSH1 0x40 MLOAD SWAP2 POP PUSH1 0x1F NOT PUSH1 0x3F RETURNDATASIZE ADD AND DUP3 ADD PUSH1 0x40 MSTORE RETURNDATASIZE DUP3 MSTORE RETURNDATASIZE PUSH0 PUSH1 0x20 DUP5 ADD RETURNDATACOPY PUSH2 0x19AF JUMP JUMPDEST PUSH1 0x60 SWAP2 POP JUMPDEST POP PUSH0 DUP2 MLOAD SUB PUSH2 0x19F5 JUMPI DUP5 PUSH1 0x40 MLOAD PUSH32 0x57F447CE00000000000000000000000000000000000000000000000000000000 DUP2 MSTORE PUSH1 0x4 ADD PUSH2 0x19EC SWAP2 SWAP1 PUSH2 0x23E0 JUMP JUMPDEST PUSH1 0x40 MLOAD DUP1 SWAP2 SUB SWAP1 REVERT JUMPDEST DUP1 MLOAD DUP2 PUSH1 0x20 ADD REVERT JUMPDEST PUSH4 0xF23A6E61 PUSH1 0xE0 SHL PUSH28 0xFFFFFFFFFFFFFFFFFFFFFFFFFFFFFFFFFFFFFFFFFFFFFFFFFFFFFFFF NOT AND DUP2 PUSH28 0xFFFFFFFFFFFFFFFFFFFFFFFFFFFFFFFFFFFFFFFFFFFFFFFFFFFFFFFF NOT AND EQ PUSH2 0x1A86 JUMPI DUP5 PUSH1 0x40 MLOAD PUSH32 0x57F447CE00000000000000000000000000000000000000000000000000000000 DUP2 MSTORE PUSH1 0x4 ADD PUSH2 0x1A7D SWAP2 SWAP1 PUSH2 0x23E0 JUMP JUMPDEST PUSH1 0x40 MLOAD DUP1 SWAP2 SUB SWAP1 REVERT JUMPDEST POP JUMPDEST POP POP POP POP POP POP JUMP JUMPDEST PUSH0 DUP5 PUSH20 0xFFFFFFFFFFFFFFFFFFFFFFFFFFFFFFFFFFFFFFFF AND EXTCODESIZE GT ISZERO PUSH2 0x1C37 JUMPI DUP4 PUSH20 0xFFFFFFFFFFFFFFFFFFFFFFFFFFFFFFFFFFFFFFFF AND PUSH4 0xBC197C81 DUP8 DUP8 DUP7 DUP7 DUP7 PUSH1 0x40 MLOAD DUP7 PUSH4 0xFFFFFFFF AND PUSH1 0xE0 SHL DUP2 MSTORE PUSH1 0x4 ADD PUSH2 0x1AF0 SWAP6 SWAP5 SWAP4 SWAP3 SWAP2 SWAP1 PUSH2 0x2A08 JUMP JUMPDEST PUSH1 0x20 PUSH1 0x40 MLOAD DUP1 DUP4 SUB DUP2 PUSH0 DUP8 GAS CALL SWAP3 POP POP POP DUP1 ISZERO PUSH2 0x1B2B JUMPI POP PUSH1 0x40 MLOAD RETURNDATASIZE PUSH1 0x1F NOT PUSH1 0x1F DUP3 ADD AND DUP3 ADD DUP1 PUSH1 0x40 MSTORE POP DUP2 ADD SWAP1 PUSH2 0x1B28 SWAP2 SWAP1 PUSH2 0x29DD JUMP JUMPDEST PUSH1 0x1 JUMPDEST PUSH2 0x1BAC JUMPI RETURNDATASIZE DUP1 PUSH0 DUP2 EQ PUSH2 0x1B59 JUMPI PUSH1 0x40 MLOAD SWAP2 POP PUSH1 0x1F NOT PUSH1 0x3F RETURNDATASIZE ADD AND DUP3 ADD PUSH1 0x40 MSTORE RETURNDATASIZE DUP3 MSTORE RETURNDATASIZE PUSH0 PUSH1 0x20 DUP5 ADD RETURNDATACOPY PUSH2 0x1B5E JUMP JUMPDEST PUSH1 0x60 SWAP2 POP JUMPDEST POP PUSH0 DUP2 MLOAD SUB PUSH2 0x1BA4 JUMPI DUP5 PUSH1 0x40 MLOAD PUSH32 0x57F447CE00000000000000000000000000000000000000000000000000000000 DUP2 MSTORE PUSH1 0x4 ADD PUSH2 0x1B9B SWAP2 SWAP1 PUSH2 0x23E0 JUMP JUMPDEST PUSH1 0x40 MLOAD DUP1 SWAP2 SUB SWAP1 REVERT JUMPDEST DUP1 MLOAD DUP2 PUSH1 0x20 ADD REVERT JUMPDEST PUSH4 0xBC197C81 PUSH1 0xE0 SHL PUSH28 0xFFFFFFFFFFFFFFFFFFFFFFFFFFFFFFFFFFFFFFFFFFFFFFFFFFFFFFFF NOT AND DUP2 PUSH28 0xFFFFFFFFFFFFFFFFFFFFFFFFFFFFFFFFFFFFFFFFFFFFFFFFFFFFFFFF NOT AND EQ PUSH2 0x1C35 JUMPI DUP5 PUSH1 0x40 MLOAD PUSH32 0x57F447CE00000000000000000000000000000000000000000000000000000000 DUP2 MSTORE PUSH1 0x4 ADD PUSH2 0x1C2C SWAP2 SWAP1 PUSH2 0x23E0 JUMP JUMPDEST PUSH1 0x40 MLOAD DUP1 SWAP2 SUB SWAP1 REVERT JUMPDEST POP JUMPDEST POP POP POP POP POP POP JUMP JUMPDEST PUSH0 PUSH1 0x40 MLOAD SWAP1 POP SWAP1 JUMP JUMPDEST PUSH0 DUP1 REVERT JUMPDEST PUSH0 DUP1 REVERT JUMPDEST PUSH0 PUSH20 0xFFFFFFFFFFFFFFFFFFFFFFFFFFFFFFFFFFFFFFFF DUP3 AND SWAP1 POP SWAP2 SWAP1 POP JUMP JUMPDEST PUSH0 PUSH2 0x1C79 DUP3 PUSH2 0x1C50 JUMP JUMPDEST SWAP1 POP SWAP2 SWAP1 POP JUMP JUMPDEST PUSH2 0x1C89 DUP2 PUSH2 0x1C6F JUMP JUMPDEST DUP2 EQ PUSH2 0x1C93 JUMPI PUSH0 DUP1 REVERT JUMPDEST POP JUMP JUMPDEST PUSH0 DUP2 CALLDATALOAD SWAP1 POP PUSH2 0x1CA4 DUP2 PUSH2 0x1C80 JUMP JUMPDEST SWAP3 SWAP2 POP POP JUMP JUMPDEST PUSH0 DUP2 SWAP1 POP SWAP2 SWAP1 POP JUMP JUMPDEST PUSH2 0x1CBC DUP2 PUSH2 0x1CAA JUMP JUMPDEST DUP2 EQ PUSH2 0x1CC6 JUMPI PUSH0 DUP1 REVERT JUMPDEST POP JUMP JUMPDEST PUSH0 DUP2 CALLDATALOAD SWAP1 POP PUSH2 0x1CD7 DUP2 PUSH2 0x1CB3 JUMP JUMPDEST SWAP3 SWAP2 POP POP JUMP JUMPDEST PUSH0 DUP1 PUSH1 0x40 DUP4 DUP6 SUB SLT ISZERO PUSH2 0x1CF3 JUMPI PUSH2 0x1CF2 PUSH2 0x1C48 JUMP JUMPDEST JUMPDEST PUSH0 PUSH2 0x1D00 DUP6 DUP3 DUP7 ADD PUSH2 0x1C96 JUMP JUMPDEST SWAP3 POP POP PUSH1 0x20 PUSH2 0x1D11 DUP6 DUP3 DUP7 ADD PUSH2 0x1CC9 JUMP JUMPDEST SWAP2 POP POP SWAP3 POP SWAP3 SWAP1 POP JUMP JUMPDEST PUSH2 0x1D24 DUP2 PUSH2 0x1CAA JUMP JUMPDEST DUP3 MSTORE POP POP JUMP JUMPDEST PUSH0 PUSH1 0x20 DUP3 ADD SWAP1 POP PUSH2 0x1D3D PUSH0 DUP4 ADD DUP5 PUSH2 0x1D1B JUMP JUMPDEST SWAP3 SWAP2 POP POP JUMP JUMPDEST PUSH0 PUSH32 0xFFFFFFFF00000000000000000000000000000000000000000000000000000000 DUP3 AND SWAP1 POP SWAP2 SWAP1 POP JUMP JUMPDEST PUSH2 0x1D77 DUP2 PUSH2 0x1D43 JUMP JUMPDEST DUP2 EQ PUSH2 0x1D81 JUMPI PUSH0 DUP1 REVERT JUMPDEST POP JUMP JUMPDEST PUSH0 DUP2 CALLDATALOAD SWAP1 POP PUSH2 0x1D92 DUP2 PUSH2 0x1D6E JUMP JUMPDEST SWAP3 SWAP2 POP POP JUMP JUMPDEST PUSH0 PUSH1 0x20 DUP3 DUP5 SUB SLT ISZERO PUSH2 0x1DAD JUMPI PUSH2 0x1DAC PUSH2 0x1C48 JUMP JUMPDEST JUMPDEST PUSH0 PUSH2 0x1DBA DUP5 DUP3 DUP6 ADD PUSH2 0x1D84 JUMP JUMPDEST SWAP2 POP POP SWAP3 SWAP2 POP POP JUMP JUMPDEST PUSH0 DUP2 ISZERO ISZERO SWAP1 POP SWAP2 SWAP1 POP JUMP JUMPDEST PUSH2 0x1DD7 DUP2 PUSH2 0x1DC3 JUMP JUMPDEST DUP3 MSTORE POP POP JUMP JUMPDEST PUSH0 PUSH1 0x20 DUP3 ADD SWAP1 POP PUSH2 0x1DF0 PUSH0 DUP4 ADD DUP5 PUSH2 0x1DCE JUMP JUMPDEST SWAP3 SWAP2 POP POP JUMP JUMPDEST PUSH0 PUSH1 0x20 DUP3 DUP5 SUB SLT ISZERO PUSH2 0x1E0B JUMPI PUSH2 0x1E0A PUSH2 0x1C48 JUMP JUMPDEST JUMPDEST PUSH0 PUSH2 0x1E18 DUP5 DUP3 DUP6 ADD PUSH2 0x1CC9 JUMP JUMPDEST SWAP2 POP POP SWAP3 SWAP2 POP POP JUMP JUMPDEST PUSH0 DUP2 MLOAD SWAP1 POP SWAP2 SWAP1 POP JUMP JUMPDEST PUSH0 DUP3 DUP3 MSTORE PUSH1 0x20 DUP3 ADD SWAP1 POP SWAP3 SWAP2 POP POP JUMP JUMPDEST PUSH0 JUMPDEST DUP4 DUP2 LT ISZERO PUSH2 0x1E58 JUMPI DUP1 DUP3 ADD MLOAD DUP2 DUP5 ADD MSTORE PUSH1 0x20 DUP2 ADD SWAP1 POP PUSH2 0x1E3D JUMP JUMPDEST PUSH0 DUP5 DUP5 ADD MSTORE POP POP POP POP JUMP JUMPDEST PUSH0 PUSH1 0x1F NOT PUSH1 0x1F DUP4 ADD AND SWAP1 POP SWAP2 SWAP1 POP JUMP JUMPDEST PUSH0 PUSH2 0x1E7D DUP3 PUSH2 0x1E21 JUMP JUMPDEST PUSH2 0x1E87 DUP2 DUP6 PUSH2 0x1E2B JUMP JUMPDEST SWAP4 POP PUSH2 0x1E97 DUP2 DUP6 PUSH1 0x20 DUP7 ADD PUSH2 0x1E3B JUMP JUMPDEST PUSH2 0x1EA0 DUP2 PUSH2 0x1E63 JUMP JUMPDEST DUP5 ADD SWAP2 POP POP SWAP3 SWAP2 POP POP JUMP JUMPDEST PUSH0 PUSH1 0x20 DUP3 ADD SWAP1 POP DUP2 DUP2 SUB PUSH0 DUP4 ADD MSTORE PUSH2 0x1EC3 DUP2 DUP5 PUSH2 0x1E73 JUMP JUMPDEST SWAP1 POP SWAP3 SWAP2 POP POP JUMP JUMPDEST PUSH0 DUP1 PUSH1 0x40 DUP4 DUP6 SUB SLT ISZERO PUSH2 0x1EE1 JUMPI PUSH2 0x1EE0 PUSH2 0x1C48 JUMP JUMPDEST JUMPDEST PUSH0 PUSH2 0x1EEE DUP6 DUP3 DUP7 ADD PUSH2 0x1CC9 JUMP JUMPDEST SWAP3 POP POP PUSH1 0x20 PUSH2 0x1EFF DUP6 DUP3 DUP7 ADD PUSH2 0x1CC9 JUMP JUMPDEST SWAP2 POP POP SWAP3 POP SWAP3 SWAP1 POP JUMP JUMPDEST PUSH0 DUP1 REVERT JUMPDEST PUSH32 0x4E487B7100000000000000000000000000000000000000000000000000000000 PUSH0 MSTORE PUSH1 0x41 PUSH1 0x4 MSTORE PUSH1 0x24 PUSH0 REVERT JUMPDEST PUSH2 0x1F43 DUP3 PUSH2 0x1E63 JUMP JUMPDEST DUP2 ADD DUP2 DUP2 LT PUSH8 0xFFFFFFFFFFFFFFFF DUP3 GT OR ISZERO PUSH2 0x1F62 JUMPI PUSH2 0x1F61 PUSH2 0x1F0D JUMP JUMPDEST JUMPDEST DUP1 PUSH1 0x40 MSTORE POP POP POP JUMP JUMPDEST PUSH0 PUSH2 0x1F74 PUSH2 0x1C3F JUMP JUMPDEST SWAP1 POP PUSH2 0x1F80 DUP3 DUP3 PUSH2 0x1F3A JUMP JUMPDEST SWAP2 SWAP1 POP JUMP JUMPDEST PUSH0 PUSH8 0xFFFFFFFFFFFFFFFF DUP3 GT ISZERO PUSH2 0x1F9F JUMPI PUSH2 0x1F9E PUSH2 0x1F0D JUMP JUMPDEST JUMPDEST PUSH1 0x20 DUP3 MUL SWAP1 POP PUSH1 0x20 DUP2 ADD SWAP1 POP SWAP2 SWAP1 POP JUMP JUMPDEST PUSH0 DUP1 REVERT JUMPDEST PUSH0 PUSH2 0x1FC6 PUSH2 0x1FC1 DUP5 PUSH2 0x1F85 JUMP JUMPDEST PUSH2 0x1F6B JUMP JUMPDEST SWAP1 POP DUP1 DUP4 DUP3 MSTORE PUSH1 0x20 DUP3 ADD SWAP1 POP PUSH1 0x20 DUP5 MUL DUP4 ADD DUP6 DUP2 GT ISZERO PUSH2 0x1FE9 JUMPI PUSH2 0x1FE8 PUSH2 0x1FB0 JUMP JUMPDEST JUMPDEST DUP4 JUMPDEST DUP2 DUP2 LT ISZERO PUSH2 0x2012 JUMPI DUP1 PUSH2 0x1FFE DUP9 DUP3 PUSH2 0x1CC9 JUMP JUMPDEST DUP5 MSTORE PUSH1 0x20 DUP5 ADD SWAP4 POP POP PUSH1 0x20 DUP2 ADD SWAP1 POP PUSH2 0x1FEB JUMP JUMPDEST POP POP POP SWAP4 SWAP3 POP POP POP JUMP JUMPDEST PUSH0 DUP3 PUSH1 0x1F DUP4 ADD SLT PUSH2 0x2030 JUMPI PUSH2 0x202F PUSH2 0x1F09 JUMP JUMPDEST JUMPDEST DUP2 CALLDATALOAD PUSH2 0x2040 DUP5 DUP3 PUSH1 0x20 DUP7 ADD PUSH2 0x1FB4 JUMP JUMPDEST SWAP2 POP POP SWAP3 SWAP2 POP POP JUMP JUMPDEST PUSH0 DUP1 REVERT JUMPDEST PUSH0 PUSH8 0xFFFFFFFFFFFFFFFF DUP3 GT ISZERO PUSH2 0x2067 JUMPI PUSH2 0x2066 PUSH2 0x1F0D JUMP JUMPDEST JUMPDEST PUSH2 0x2070 DUP3 PUSH2 0x1E63 JUMP JUMPDEST SWAP1 POP PUSH1 0x20 DUP2 ADD SWAP1 POP SWAP2 SWAP1 POP JUMP JUMPDEST DUP3 DUP2 DUP4 CALLDATACOPY PUSH0 DUP4 DUP4 ADD MSTORE POP POP POP JUMP JUMPDEST PUSH0 PUSH2 0x209D PUSH2 0x2098 DUP5 PUSH2 0x204D JUMP JUMPDEST PUSH2 0x1F6B JUMP JUMPDEST SWAP1 POP DUP3 DUP2 MSTORE PUSH1 0x20 DUP2 ADD DUP5 DUP5 DUP5 ADD GT ISZERO PUSH2 0x20B9 JUMPI PUSH2 0x20B8 PUSH2 0x2049 JUMP JUMPDEST JUMPDEST PUSH2 0x20C4 DUP5 DUP3 DUP6 PUSH2 0x207D JUMP JUMPDEST POP SWAP4 SWAP3 POP POP POP JUMP JUMPDEST PUSH0 DUP3 PUSH1 0x1F DUP4 ADD SLT PUSH2 0x20E0 JUMPI PUSH2 0x20DF PUSH2 0x1F09 JUMP JUMPDEST JUMPDEST DUP2 CALLDATALOAD PUSH2 0x20F0 DUP5 DUP3 PUSH1 0x20 DUP7 ADD PUSH2 0x208B JUMP JUMPDEST SWAP2 POP POP SWAP3 SWAP2 POP POP JUMP JUMPDEST PUSH0 DUP1 PUSH0 DUP1 PUSH0 PUSH1 0xA0 DUP7 DUP9 SUB SLT ISZERO PUSH2 0x2112 JUMPI PUSH2 0x2111 PUSH2 0x1C48 JUMP JUMPDEST JUMPDEST PUSH0 PUSH2 0x211F DUP9 DUP3 DUP10 ADD PUSH2 0x1C96 JUMP JUMPDEST SWAP6 POP POP PUSH1 0x20 PUSH2 0x2130 DUP9 DUP3 DUP10 ADD PUSH2 0x1C96 JUMP JUMPDEST SWAP5 POP POP PUSH1 0x40 DUP7 ADD CALLDATALOAD PUSH8 0xFFFFFFFFFFFFFFFF DUP2 GT ISZERO PUSH2 0x2151 JUMPI PUSH2 0x2150 PUSH2 0x1C4C JUMP JUMPDEST JUMPDEST PUSH2 0x215D DUP9 DUP3 DUP10 ADD PUSH2 0x201C JUMP JUMPDEST SWAP4 POP POP PUSH1 0x60 DUP7 ADD CALLDATALOAD PUSH8 0xFFFFFFFFFFFFFFFF DUP2 GT ISZERO PUSH2 0x217E JUMPI PUSH2 0x217D PUSH2 0x1C4C JUMP JUMPDEST JUMPDEST PUSH2 0x218A DUP9 DUP3 DUP10 ADD PUSH2 0x201C JUMP JUMPDEST SWAP3 POP POP PUSH1 0x80 DUP7 ADD CALLDATALOAD PUSH8 0xFFFFFFFFFFFFFFFF DUP2 GT ISZERO PUSH2 0x21AB JUMPI PUSH2 0x21AA PUSH2 0x1C4C JUMP JUMPDEST JUMPDEST PUSH2 0x21B7 DUP9 DUP3 DUP10 ADD PUSH2 0x20CC JUMP JUMPDEST SWAP2 POP POP SWAP3 SWAP6 POP SWAP3 SWAP6 SWAP1 SWAP4 POP JUMP JUMPDEST PUSH0 PUSH8 0xFFFFFFFFFFFFFFFF DUP3 GT ISZERO PUSH2 0x21DE JUMPI PUSH2 0x21DD PUSH2 0x1F0D JUMP JUMPDEST JUMPDEST PUSH1 0x20 DUP3 MUL SWAP1 POP PUSH1 0x20 DUP2 ADD SWAP1 POP SWAP2 SWAP1 POP JUMP JUMPDEST PUSH0 PUSH2 0x2201 PUSH2 0x21FC DUP5 PUSH2 0x21C4 JUMP JUMPDEST PUSH2 0x1F6B JUMP JUMPDEST SWAP1 POP DUP1 DUP4 DUP3 MSTORE PUSH1 0x20 DUP3 ADD SWAP1 POP PUSH1 0x20 DUP5 MUL DUP4 ADD DUP6 DUP2 GT ISZERO PUSH2 0x2224 JUMPI PUSH2 0x2223 PUSH2 0x1FB0 JUMP JUMPDEST JUMPDEST DUP4 JUMPDEST DUP2 DUP2 LT ISZERO PUSH2 0x224D JUMPI DUP1 PUSH2 0x2239 DUP9 DUP3 PUSH2 0x1C96 JUMP JUMPDEST DUP5 MSTORE PUSH1 0x20 DUP5 ADD SWAP4 POP POP PUSH1 0x20 DUP2 ADD SWAP1 POP PUSH2 0x2226 JUMP JUMPDEST POP POP POP SWAP4 SWAP3 POP POP POP JUMP JUMPDEST PUSH0 DUP3 PUSH1 0x1F DUP4 ADD SLT PUSH2 0x226B JUMPI PUSH2 0x226A PUSH2 0x1F09 JUMP JUMPDEST JUMPDEST DUP2 CALLDATALOAD PUSH2 0x227B DUP5 DUP3 PUSH1 0x20 DUP7 ADD PUSH2 0x21EF JUMP JUMPDEST SWAP2 POP POP SWAP3 SWAP2 POP POP JUMP JUMPDEST PUSH0 DUP1 PUSH1 0x40 DUP4 DUP6 SUB SLT ISZERO PUSH2 0x229A JUMPI PUSH2 0x2299 PUSH2 0x1C48 JUMP JUMPDEST JUMPDEST PUSH0 DUP4 ADD CALLDATALOAD PUSH8 0xFFFFFFFFFFFFFFFF DUP2 GT ISZERO PUSH2 0x22B7 JUMPI PUSH2 0x22B6 PUSH2 0x1C4C JUMP JUMPDEST JUMPDEST PUSH2 0x22C3 DUP6 DUP3 DUP7 ADD PUSH2 0x2257 JUMP JUMPDEST SWAP3 POP POP PUSH1 0x20 DUP4 ADD CALLDATALOAD PUSH8 0xFFFFFFFFFFFFFFFF DUP2 GT ISZERO PUSH2 0x22E4 JUMPI PUSH2 0x22E3 PUSH2 0x1C4C JUMP JUMPDEST JUMPDEST PUSH2 0x22F0 DUP6 DUP3 DUP7 ADD PUSH2 0x201C JUMP JUMPDEST SWAP2 POP POP SWAP3 POP SWAP3 SWAP1 POP JUMP JUMPDEST PUSH0 DUP2 MLOAD SWAP1 POP SWAP2 SWAP1 POP JUMP JUMPDEST PUSH0 DUP3 DUP3 MSTORE PUSH1 0x20 DUP3 ADD SWAP1 POP SWAP3 SWAP2 POP POP JUMP JUMPDEST PUSH0 DUP2 SWAP1 POP PUSH1 0x20 DUP3 ADD SWAP1 POP SWAP2 SWAP1 POP JUMP JUMPDEST PUSH2 0x232C DUP2 PUSH2 0x1CAA JUMP JUMPDEST DUP3 MSTORE POP POP JUMP JUMPDEST PUSH0 PUSH2 0x233D DUP4 DUP4 PUSH2 0x2323 JUMP JUMPDEST PUSH1 0x20 DUP4 ADD SWAP1 POP SWAP3 SWAP2 POP POP JUMP JUMPDEST PUSH0 PUSH1 0x20 DUP3 ADD SWAP1 POP SWAP2 SWAP1 POP JUMP JUMPDEST PUSH0 PUSH2 0x235F DUP3 PUSH2 0x22FA JUMP JUMPDEST PUSH2 0x2369 DUP2 DUP6 PUSH2 0x2304 JUMP JUMPDEST SWAP4 POP PUSH2 0x2374 DUP4 PUSH2 0x2314 JUMP JUMPDEST DUP1 PUSH0 JUMPDEST DUP4 DUP2 LT ISZERO PUSH2 0x23A4 JUMPI DUP2 MLOAD PUSH2 0x238B DUP9 DUP3 PUSH2 0x2332 JUMP JUMPDEST SWAP8 POP PUSH2 0x2396 DUP4 PUSH2 0x2349 JUMP JUMPDEST SWAP3 POP POP PUSH1 0x1 DUP2 ADD SWAP1 POP PUSH2 0x2377 JUMP JUMPDEST POP DUP6 SWAP4 POP POP POP POP SWAP3 SWAP2 POP POP JUMP JUMPDEST PUSH0 PUSH1 0x20 DUP3 ADD SWAP1 POP DUP2 DUP2 SUB PUSH0 DUP4 ADD MSTORE PUSH2 0x23C9 DUP2 DUP5 PUSH2 0x2355 JUMP JUMPDEST SWAP1 POP SWAP3 SWAP2 POP POP JUMP JUMPDEST PUSH2 0x23DA DUP2 PUSH2 0x1C6F JUMP JUMPDEST DUP3 MSTORE POP POP JUMP JUMPDEST PUSH0 PUSH1 0x20 DUP3 ADD SWAP1 POP PUSH2 0x23F3 PUSH0 DUP4 ADD DUP5 PUSH2 0x23D1 JUMP JUMPDEST SWAP3 SWAP2 POP POP JUMP JUMPDEST PUSH2 0x2402 DUP2 PUSH2 0x1DC3 JUMP JUMPDEST DUP2 EQ PUSH2 0x240C JUMPI PUSH0 DUP1 REVERT JUMPDEST POP JUMP JUMPDEST PUSH0 DUP2 CALLDATALOAD SWAP1 POP PUSH2 0x241D DUP2 PUSH2 0x23F9 JUMP JUMPDEST SWAP3 SWAP2 POP POP JUMP JUMPDEST PUSH0 DUP1 PUSH1 0x40 DUP4 DUP6 SUB SLT ISZERO PUSH2 0x2439 JUMPI PUSH2 0x2438 PUSH2 0x1C48 JUMP JUMPDEST JUMPDEST PUSH0 PUSH2 0x2446 DUP6 DUP3 DUP7 ADD PUSH2 0x1C96 JUMP JUMPDEST SWAP3 POP POP PUSH1 0x20 PUSH2 0x2457 DUP6 DUP3 DUP7 ADD PUSH2 0x240F JUMP JUMPDEST SWAP2 POP POP SWAP3 POP SWAP3 SWAP1 POP JUMP JUMPDEST PUSH0 DUP1 PUSH1 0x40 DUP4 DUP6 SUB SLT ISZERO PUSH2 0x2477 JUMPI PUSH2 0x2476 PUSH2 0x1C48 JUMP JUMPDEST JUMPDEST PUSH0 PUSH2 0x2484 DUP6 DUP3 DUP7 ADD PUSH2 0x1C96 JUMP JUMPDEST SWAP3 POP POP PUSH1 0x20 PUSH2 0x2495 DUP6 DUP3 DUP7 ADD PUSH2 0x1C96 JUMP JUMPDEST SWAP2 POP POP SWAP3 POP SWAP3 SWAP1 POP JUMP JUMPDEST PUSH0 DUP1 PUSH0 DUP1 PUSH0 PUSH1 0xA0 DUP7 DUP9 SUB SLT ISZERO PUSH2 0x24B8 JUMPI PUSH2 0x24B7 PUSH2 0x1C48 JUMP JUMPDEST JUMPDEST PUSH0 PUSH2 0x24C5 DUP9 DUP3 DUP10 ADD PUSH2 0x1C96 JUMP JUMPDEST SWAP6 POP POP PUSH1 0x20 PUSH2 0x24D6 DUP9 DUP3 DUP10 ADD PUSH2 0x1C96 JUMP JUMPDEST SWAP5 POP POP PUSH1 0x40 PUSH2 0x24E7 DUP9 DUP3 DUP10 ADD PUSH2 0x1CC9 JUMP JUMPDEST SWAP4 POP POP PUSH1 0x60 PUSH2 0x24F8 DUP9 DUP3 DUP10 ADD PUSH2 0x1CC9 JUMP JUMPDEST SWAP3 POP POP PUSH1 0x80 DUP7 ADD CALLDATALOAD PUSH8 0xFFFFFFFFFFFFFFFF DUP2 GT ISZERO PUSH2 0x2519 JUMPI PUSH2 0x2518 PUSH2 0x1C4C JUMP JUMPDEST JUMPDEST PUSH2 0x2525 DUP9 DUP3 DUP10 ADD PUSH2 0x20CC JUMP JUMPDEST SWAP2 POP POP SWAP3 SWAP6 POP SWAP3 SWAP6 SWAP1 SWAP4 POP JUMP JUMPDEST PUSH0 PUSH1 0x20 DUP3 DUP5 SUB SLT ISZERO PUSH2 0x2547 JUMPI PUSH2 0x2546 PUSH2 0x1C48 JUMP JUMPDEST JUMPDEST PUSH0 PUSH2 0x2554 DUP5 DUP3 DUP6 ADD PUSH2 0x1C96 JUMP JUMPDEST SWAP2 POP POP SWAP3 SWAP2 POP POP JUMP JUMPDEST PUSH0 DUP1 PUSH0 PUSH1 0x60 DUP5 DUP7 SUB SLT ISZERO PUSH2 0x2574 JUMPI PUSH2 0x2573 PUSH2 0x1C48 JUMP JUMPDEST JUMPDEST PUSH0 PUSH2 0x2581 DUP7 DUP3 DUP8 ADD PUSH2 0x1C96 JUMP JUMPDEST SWAP4 POP POP PUSH1 0x20 PUSH2 0x2592 DUP7 DUP3 DUP8 ADD PUSH2 0x1CC9 JUMP JUMPDEST SWAP3 POP POP PUSH1 0x40 PUSH2 0x25A3 DUP7 DUP3 DUP8 ADD PUSH2 0x1CC9 JUMP JUMPDEST SWAP2 POP POP SWAP3 POP SWAP3 POP SWAP3 JUMP JUMPDEST PUSH0 DUP2 SWAP1 POP SWAP3 SWAP2 POP POP JUMP JUMPDEST PUSH0 PUSH2 0x25C1 DUP3 PUSH2 0x1E21 JUMP JUMPDEST PUSH2 0x25CB DUP2 DUP6 PUSH2 0x25AD JUMP JUMPDEST SWAP4 POP PUSH2 0x25DB DUP2 DUP6 PUSH1 0x20 DUP7 ADD PUSH2 0x1E3B JUMP JUMPDEST DUP1 DUP5 ADD SWAP2 POP POP SWAP3 SWAP2 POP POP JUMP JUMPDEST PUSH0 PUSH2 0x25F2 DUP3 DUP6 PUSH2 0x25B7 JUMP JUMPDEST SWAP2 POP PUSH2 0x25FE DUP3 DUP5 PUSH2 0x25B7 JUMP JUMPDEST SWAP2 POP DUP2 SWAP1 POP SWAP4 SWAP3 POP POP POP JUMP JUMPDEST PUSH32 0x496E76616C696420746F6B656E20494400000000000000000000000000000000 PUSH0 DUP3 ADD MSTORE POP JUMP JUMPDEST PUSH0 PUSH2 0x263E PUSH1 0x10 DUP4 PUSH2 0x1E2B JUMP JUMPDEST SWAP2 POP PUSH2 0x2649 DUP3 PUSH2 0x260A JUMP JUMPDEST PUSH1 0x20 DUP3 ADD SWAP1 POP SWAP2 SWAP1 POP JUMP JUMPDEST PUSH0 PUSH1 0x20 DUP3 ADD SWAP1 POP DUP2 DUP2 SUB PUSH0 DUP4 ADD MSTORE PUSH2 0x266B DUP2 PUSH2 0x2632 JUMP JUMPDEST SWAP1 POP SWAP2 SWAP1 POP JUMP JUMPDEST PUSH32 0x4E487B7100000000000000000000000000000000000000000000000000000000 PUSH0 MSTORE PUSH1 0x11 PUSH1 0x4 MSTORE PUSH1 0x24 PUSH0 REVERT JUMPDEST PUSH0 PUSH2 0x26A9 DUP3 PUSH2 0x1CAA JUMP JUMPDEST SWAP2 POP PUSH2 0x26B4 DUP4 PUSH2 0x1CAA JUMP JUMPDEST SWAP3 POP DUP3 DUP3 ADD SWAP1 POP DUP1 DUP3 GT ISZERO PUSH2 0x26CC JUMPI PUSH2 0x26CB PUSH2 0x2672 JUMP JUMPDEST JUMPDEST SWAP3 SWAP2 POP POP JUMP JUMPDEST PUSH32 0x4D696E7420636F6F6C646F776E00000000000000000000000000000000000000 PUSH0 DUP3 ADD MSTORE POP JUMP JUMPDEST PUSH0 PUSH2 0x2706 PUSH1 0xD DUP4 PUSH2 0x1E2B JUMP JUMPDEST SWAP2 POP PUSH2 0x2711 DUP3 PUSH2 0x26D2 JUMP JUMPDEST PUSH1 0x20 DUP3 ADD SWAP1 POP SWAP2 SWAP1 POP JUMP JUMPDEST PUSH0 PUSH1 0x20 DUP3 ADD SWAP1 POP DUP2 DUP2 SUB PUSH0 DUP4 ADD MSTORE PUSH2 0x2733 DUP2 PUSH2 0x26FA JUMP JUMPDEST SWAP1 POP SWAP2 SWAP1 POP JUMP JUMPDEST PUSH0 PUSH1 0x40 DUP3 ADD SWAP1 POP PUSH2 0x274D PUSH0 DUP4 ADD DUP6 PUSH2 0x23D1 JUMP JUMPDEST PUSH2 0x275A PUSH1 0x20 DUP4 ADD DUP5 PUSH2 0x23D1 JUMP JUMPDEST SWAP4 SWAP3 POP POP POP JUMP JUMPDEST PUSH0 PUSH1 0x40 DUP3 ADD SWAP1 POP PUSH2 0x2774 PUSH0 DUP4 ADD DUP6 PUSH2 0x1D1B JUMP JUMPDEST PUSH2 0x2781 PUSH1 0x20 DUP4 ADD DUP5 PUSH2 0x1D1B JUMP JUMPDEST SWAP4 SWAP3 POP POP POP JUMP JUMPDEST PUSH32 0x4E487B7100000000000000000000000000000000000000000000000000000000 PUSH0 MSTORE PUSH1 0x32 PUSH1 0x4 MSTORE PUSH1 0x24 PUSH0 REVERT JUMPDEST PUSH32 0x43616C6C6572206973206E6F74206F776E6572206E6F7220617070726F766564 PUSH0 DUP3 ADD MSTORE POP JUMP JUMPDEST PUSH0 PUSH2 0x27E9 PUSH1 0x20 DUP4 PUSH2 0x1E2B JUMP JUMPDEST SWAP2 POP PUSH2 0x27F4 DUP3 PUSH2 0x27B5 JUMP JUMPDEST PUSH1 0x20 DUP3 ADD SWAP1 POP SWAP2 SWAP1 POP JUMP JUMPDEST PUSH0 PUSH1 0x20 DUP3 ADD SWAP1 POP DUP2 DUP2 SUB PUSH0 DUP4 ADD MSTORE PUSH2 0x2816 DUP2 PUSH2 0x27DD JUMP JUMPDEST SWAP1 POP SWAP2 SWAP1 POP JUMP JUMPDEST PUSH32 0x4E487B7100000000000000000000000000000000000000000000000000000000 PUSH0 MSTORE PUSH1 0x22 PUSH1 0x4 MSTORE PUSH1 0x24 PUSH0 REVERT JUMPDEST PUSH0 PUSH1 0x2 DUP3 DIV SWAP1 POP PUSH1 0x1 DUP3 AND DUP1 PUSH2 0x2861 JUMPI PUSH1 0x7F DUP3 AND SWAP2 POP JUMPDEST PUSH1 0x20 DUP3 LT DUP2 SUB PUSH2 0x2874 JUMPI PUSH2 0x2873 PUSH2 0x281D JUMP JUMPDEST JUMPDEST POP SWAP2 SWAP1 POP JUMP JUMPDEST PUSH32 0x4E487B7100000000000000000000000000000000000000000000000000000000 PUSH0 MSTORE PUSH1 0x12 PUSH1 0x4 MSTORE PUSH1 0x24 PUSH0 REVERT JUMPDEST PUSH0 PUSH1 0x80 DUP3 ADD SWAP1 POP PUSH2 0x28BA PUSH0 DUP4 ADD DUP8 PUSH2 0x23D1 JUMP JUMPDEST PUSH2 0x28C7 PUSH1 0x20 DUP4 ADD DUP7 PUSH2 0x1D1B JUMP JUMPDEST PUSH2 0x28D4 PUSH1 0x40 DUP4 ADD DUP6 PUSH2 0x1D1B JUMP JUMPDEST PUSH2 0x28E1 PUSH1 0x60 DUP4 ADD DUP5 PUSH2 0x1D1B JUMP JUMPDEST SWAP6 SWAP5 POP POP POP POP POP JUMP JUMPDEST PUSH0 PUSH1 0x40 DUP3 ADD SWAP1 POP DUP2 DUP2 SUB PUSH0 DUP4 ADD MSTORE PUSH2 0x2902 DUP2 DUP6 PUSH2 0x2355 JUMP JUMPDEST SWAP1 POP DUP2 DUP2 SUB PUSH1 0x20 DUP4 ADD MSTORE PUSH2 0x2916 DUP2 DUP5 PUSH2 0x2355 JUMP JUMPDEST SWAP1 POP SWAP4 SWAP3 POP POP POP JUMP JUMPDEST PUSH0 DUP2 MLOAD SWAP1 POP SWAP2 SWAP1 POP JUMP JUMPDEST PUSH0 DUP3 DUP3 MSTORE PUSH1 0x20 DUP3 ADD SWAP1 POP SWAP3 SWAP2 POP POP JUMP JUMPDEST PUSH0 PUSH2 0x2943 DUP3 PUSH2 0x291F JUMP JUMPDEST PUSH2 0x294D DUP2 DUP6 PUSH2 0x2929 JUMP JUMPDEST SWAP4 POP PUSH2 0x295D DUP2 DUP6 PUSH1 0x20 DUP7 ADD PUSH2 0x1E3B JUMP JUMPDEST PUSH2 0x2966 DUP2 PUSH2 0x1E63 JUMP JUMPDEST DUP5 ADD SWAP2 POP POP SWAP3 SWAP2 POP POP JUMP JUMPDEST PUSH0 PUSH1 0xA0 DUP3 ADD SWAP1 POP PUSH2 0x2984 PUSH0 DUP4 ADD DUP9 PUSH2 0x23D1 JUMP JUMPDEST PUSH2 0x2991 PUSH1 0x20 DUP4 ADD DUP8 PUSH2 0x23D1 JUMP JUMPDEST PUSH2 0x299E PUSH1 0x40 DUP4 ADD DUP7 PUSH2 0x1D1B JUMP JUMPDEST PUSH2 0x29AB PUSH1 0x60 DUP4 ADD DUP6 PUSH2 0x1D1B JUMP JUMPDEST DUP2 DUP2 SUB PUSH1 0x80 DUP4 ADD MSTORE PUSH2 0x29BD DUP2 DUP5 PUSH2 0x2939 JUMP JUMPDEST SWAP1 POP SWAP7 SWAP6 POP POP POP POP POP POP JUMP JUMPDEST PUSH0 DUP2 MLOAD SWAP1 POP PUSH2 0x29D7 DUP2 PUSH2 0x1D6E JUMP JUMPDEST SWAP3 SWAP2 POP POP JUMP JUMPDEST PUSH0 PUSH1 0x20 DUP3 DUP5 SUB SLT ISZERO PUSH2 0x29F2 JUMPI PUSH2 0x29F1 PUSH2 0x1C48 JUMP JUMPDEST JUMPDEST PUSH0 PUSH2 0x29FF DUP5 DUP3 DUP6 ADD PUSH2 0x29C9 JUMP JUMPDEST SWAP2 POP POP SWAP3 SWAP2 POP POP JUMP JUMPDEST PUSH0 PUSH1 0xA0 DUP3 ADD SWAP1 POP PUSH2 0x2A1B PUSH0 DUP4 ADD DUP9 PUSH2 0x23D1 JUMP JUMPDEST PUSH2 0x2A28 PUSH1 0x20 DUP4 ADD DUP8 PUSH2 0x23D1 JUMP JUMPDEST DUP2 DUP2 SUB PUSH1 0x40 DUP4 ADD MSTORE PUSH2 0x2A3A DUP2 DUP7 PUSH2 0x2355 JUMP JUMPDEST SWAP1 POP DUP2 DUP2 SUB PUSH1 0x60 DUP4 ADD MSTORE PUSH2 0x2A4E DUP2 DUP6 PUSH2 0x2355 JUMP JUMPDEST SWAP1 POP DUP2 DUP2 SUB PUSH1 0x80 DUP4 ADD MSTORE PUSH2 0x2A62 DUP2 DUP5 PUSH2 0x2939 JUMP JUMPDEST SWAP1 POP SWAP7 SWAP6 POP POP POP POP POP POP JUMP INVALID LOG2 PUSH5 0x6970667358 0x22 SLT KECCAK256 CALLVALUE DUP9 CHAINID LOG0 SMOD MUL PUSH26 0x1D67B48CA2DED2CFC7C713284813C9036F67541F34EBB6F25664 PUSH20 0x6F6C63430008180033697066733A2F2F62616679 PUSH3 0x656968 PUSH19 0x6B6C623232327367696F77726A636567373672 PUSH14 0x7171707A716979756A6D6E756676 CALLER PUSH4 0x71353773 PUSH20 0x656D647862626534752F7B69647D000000000000 "
				},
				"gasEstimates": {
					"creation": {
						"codeDepositCost": "2183200",
						"executionCost": "infinite",
						"totalCost": "infinite"
					},
					"external": {
						"TOKEN_0()": "346",
						"TOKEN_1()": "414",
						"TOKEN_2()": "370",
						"TOKEN_3()": "392",
						"TOKEN_4()": "415",
						"TOKEN_5()": "369",
						"TOKEN_6()": "436",
						"balanceOf(address,uint256)": "infinite",
						"balanceOfBatch(address[],uint256[])": "infinite",
						"burn(address,uint256,uint256)": "infinite",
						"isApprovedForAll(address,address)": "infinite",
						"lastMintTime(address,uint256)": "infinite",
						"mint(uint256,uint256)": "infinite",
						"owner()": "2582",
						"renounceOwnership()": "infinite",
						"safeBatchTransferFrom(address,address,uint256[],uint256[],bytes)": "infinite",
						"safeTransferFrom(address,address,uint256,uint256,bytes)": "infinite",
						"setApprovalForAll(address,bool)": "infinite",
						"supportsInterface(bytes4)": "809",
						"transferOwnership(address)": "infinite",
						"uri(uint256)": "infinite"
					}
				},
				"methodIdentifiers": {
					"TOKEN_0()": "d99939a2",
					"TOKEN_1()": "4a3268e4",
					"TOKEN_2()": "82c0fa30",
					"TOKEN_3()": "453f6a32",
					"TOKEN_4()": "0d9371ad",
					"TOKEN_5()": "e74d3862",
					"TOKEN_6()": "a3cacc85",
					"balanceOf(address,uint256)": "00fdd58e",
					"balanceOfBatch(address[],uint256[])": "4e1273f4",
					"burn(address,uint256,uint256)": "f5298aca",
					"isApprovedForAll(address,address)": "e985e9c5",
					"lastMintTime(address,uint256)": "0ce52e07",
					"mint(uint256,uint256)": "1b2ef1ca",
					"owner()": "8da5cb5b",
					"renounceOwnership()": "715018a6",
					"safeBatchTransferFrom(address,address,uint256[],uint256[],bytes)": "2eb2c2d6",
					"safeTransferFrom(address,address,uint256,uint256,bytes)": "f242432a",
					"setApprovalForAll(address,bool)": "a22cb465",
					"supportsInterface(bytes4)": "01ffc9a7",
					"transferOwnership(address)": "f2fde38b",
					"uri(uint256)": "0e89341c"
				}
			},
			"storageLayout": {
				"storage": [
					{
						"astId": 326,
						"contract": "module-3/ERC1155token.sol:MyERC1155Token",
						"label": "_balances",
						"offset": 0,
						"slot": "0",
						"type": "t_mapping(t_uint256,t_mapping(t_address,t_uint256))"
					},
					{
						"astId": 332,
						"contract": "module-3/ERC1155token.sol:MyERC1155Token",
						"label": "_operatorApprovals",
						"offset": 0,
						"slot": "1",
						"type": "t_mapping(t_address,t_mapping(t_address,t_bool))"
					},
					{
						"astId": 334,
						"contract": "module-3/ERC1155token.sol:MyERC1155Token",
						"label": "_uri",
						"offset": 0,
						"slot": "2",
						"type": "t_string_storage"
					},
					{
						"astId": 8,
						"contract": "module-3/ERC1155token.sol:MyERC1155Token",
						"label": "_owner",
						"offset": 0,
						"slot": "3",
						"type": "t_address"
					},
					{
						"astId": 3328,
						"contract": "module-3/ERC1155token.sol:MyERC1155Token",
						"label": "lastMintTime",
						"offset": 0,
						"slot": "4",
						"type": "t_mapping(t_address,t_mapping(t_uint256,t_uint256))"
					}
				],
				"types": {
					"t_address": {
						"encoding": "inplace",
						"label": "address",
						"numberOfBytes": "20"
					},
					"t_bool": {
						"encoding": "inplace",
						"label": "bool",
						"numberOfBytes": "1"
					},
					"t_mapping(t_address,t_bool)": {
						"encoding": "mapping",
						"key": "t_address",
						"label": "mapping(address => bool)",
						"numberOfBytes": "32",
						"value": "t_bool"
					},
					"t_mapping(t_address,t_mapping(t_address,t_bool))": {
						"encoding": "mapping",
						"key": "t_address",
						"label": "mapping(address => mapping(address => bool))",
						"numberOfBytes": "32",
						"value": "t_mapping(t_address,t_bool)"
					},
					"t_mapping(t_address,t_mapping(t_uint256,t_uint256))": {
						"encoding": "mapping",
						"key": "t_address",
						"label": "mapping(address => mapping(uint256 => uint256))",
						"numberOfBytes": "32",
						"value": "t_mapping(t_uint256,t_uint256)"
					},
					"t_mapping(t_address,t_uint256)": {
						"encoding": "mapping",
						"key": "t_address",
						"label": "mapping(address => uint256)",
						"numberOfBytes": "32",
						"value": "t_uint256"
					},
					"t_mapping(t_uint256,t_mapping(t_address,t_uint256))": {
						"encoding": "mapping",
						"key": "t_uint256",
						"label": "mapping(uint256 => mapping(address => uint256))",
						"numberOfBytes": "32",
						"value": "t_mapping(t_address,t_uint256)"
					},
					"t_mapping(t_uint256,t_uint256)": {
						"encoding": "mapping",
						"key": "t_uint256",
						"label": "mapping(uint256 => uint256)",
						"numberOfBytes": "32",
						"value": "t_uint256"
					},
					"t_string_storage": {
						"encoding": "bytes",
						"label": "string",
						"numberOfBytes": "32"
					},
					"t_uint256": {
						"encoding": "inplace",
						"label": "uint256",
						"numberOfBytes": "32"
					}
				}
			},
			"userdoc": {
				"kind": "user",
				"methods": {},
				"version": 1
			}
		}
	}
}