{
	"module-3/ERC1155token.sol": {
		"MyERC1155Token": {
			"abi": [
				{
					"inputs": [],
					"stateMutability": "nonpayable",
					"type": "constructor"
				},
				{
					"inputs": [
						{
							"internalType": "address",
							"name": "sender",
							"type": "address"
						},
						{
							"internalType": "uint256",
							"name": "balance",
							"type": "uint256"
						},
						{
							"internalType": "uint256",
							"name": "needed",
							"type": "uint256"
						},
						{
							"internalType": "uint256",
							"name": "tokenId",
							"type": "uint256"
						}
					],
					"name": "ERC1155InsufficientBalance",
					"type": "error"
				},
				{
					"inputs": [
						{
							"internalType": "address",
							"name": "approver",
							"type": "address"
						}
					],
					"name": "ERC1155InvalidApprover",
					"type": "error"
				},
				{
					"inputs": [
						{
							"internalType": "uint256",
							"name": "idsLength",
							"type": "uint256"
						},
						{
							"internalType": "uint256",
							"name": "valuesLength",
							"type": "uint256"
						}
					],
					"name": "ERC1155InvalidArrayLength",
					"type": "error"
				},
				{
					"inputs": [
						{
							"internalType": "address",
							"name": "operator",
							"type": "address"
						}
					],
					"name": "ERC1155InvalidOperator",
					"type": "error"
				},
				{
					"inputs": [
						{
							"internalType": "address",
							"name": "receiver",
							"type": "address"
						}
					],
					"name": "ERC1155InvalidReceiver",
					"type": "error"
				},
				{
					"inputs": [
						{
							"internalType": "address",
							"name": "sender",
							"type": "address"
						}
					],
					"name": "ERC1155InvalidSender",
					"type": "error"
				},
				{
					"inputs": [
						{
							"internalType": "address",
							"name": "operator",
							"type": "address"
						},
						{
							"internalType": "address",
							"name": "owner",
							"type": "address"
						}
					],
					"name": "ERC1155MissingApprovalForAll",
					"type": "error"
				},
				{
					"inputs": [
						{
							"internalType": "address",
							"name": "owner",
							"type": "address"
						}
					],
					"name": "OwnableInvalidOwner",
					"type": "error"
				},
				{
					"inputs": [
						{
							"internalType": "address",
							"name": "account",
							"type": "address"
						}
					],
					"name": "OwnableUnauthorizedAccount",
					"type": "error"
				},
				{
					"anonymous": false,
					"inputs": [
						{
							"indexed": true,
							"internalType": "address",
							"name": "account",
							"type": "address"
						},
						{
							"indexed": true,
							"internalType": "address",
							"name": "operator",
							"type": "address"
						},
						{
							"indexed": false,
							"internalType": "bool",
							"name": "approved",
							"type": "bool"
						}
					],
					"name": "ApprovalForAll",
					"type": "event"
				},
				{
					"anonymous": false,
					"inputs": [
						{
							"indexed": true,
							"internalType": "address",
							"name": "previousOwner",
							"type": "address"
						},
						{
							"indexed": true,
							"internalType": "address",
							"name": "newOwner",
							"type": "address"
						}
					],
					"name": "OwnershipTransferred",
					"type": "event"
				},
				{
					"anonymous": false,
					"inputs": [
						{
							"indexed": true,
							"internalType": "address",
							"name": "operator",
							"type": "address"
						},
						{
							"indexed": true,
							"internalType": "address",
							"name": "from",
							"type": "address"
						},
						{
							"indexed": true,
							"internalType": "address",
							"name": "to",
							"type": "address"
						},
						{
							"indexed": false,
							"internalType": "uint256[]",
							"name": "ids",
							"type": "uint256[]"
						},
						{
							"indexed": false,
							"internalType": "uint256[]",
							"name": "values",
							"type": "uint256[]"
						}
					],
					"name": "TransferBatch",
					"type": "event"
				},
				{
					"anonymous": false,
					"inputs": [
						{
							"indexed": true,
							"internalType": "address",
							"name": "operator",
							"type": "address"
						},
						{
							"indexed": true,
							"internalType": "address",
							"name": "from",
							"type": "address"
						},
						{
							"indexed": true,
							"internalType": "address",
							"name": "to",
							"type": "address"
						},
						{
							"indexed": false,
							"internalType": "uint256",
							"name": "id",
							"type": "uint256"
						},
						{
							"indexed": false,
							"internalType": "uint256",
							"name": "value",
							"type": "uint256"
						}
					],
					"name": "TransferSingle",
					"type": "event"
				},
				{
					"anonymous": false,
					"inputs": [
						{
							"indexed": false,
							"internalType": "string",
							"name": "value",
							"type": "string"
						},
						{
							"indexed": true,
							"internalType": "uint256",
							"name": "id",
							"type": "uint256"
						}
					],
					"name": "URI",
					"type": "event"
				},
				{
					"inputs": [],
					"name": "TOKEN_0",
					"outputs": [
						{
							"internalType": "uint256",
							"name": "",
							"type": "uint256"
						}
					],
					"stateMutability": "view",
					"type": "function"
				},
				{
					"inputs": [],
					"name": "TOKEN_1",
					"outputs": [
						{
							"internalType": "uint256",
							"name": "",
							"type": "uint256"
						}
					],
					"stateMutability": "view",
					"type": "function"
				},
				{
					"inputs": [],
					"name": "TOKEN_2",
					"outputs": [
						{
							"internalType": "uint256",
							"name": "",
							"type": "uint256"
						}
					],
					"stateMutability": "view",
					"type": "function"
				},
				{
					"inputs": [],
					"name": "TOKEN_3",
					"outputs": [
						{
							"internalType": "uint256",
							"name": "",
							"type": "uint256"
						}
					],
					"stateMutability": "view",
					"type": "function"
				},
				{
					"inputs": [],
					"name": "TOKEN_4",
					"outputs": [
						{
							"internalType": "uint256",
							"name": "",
							"type": "uint256"
						}
					],
					"stateMutability": "view",
					"type": "function"
				},
				{
					"inputs": [],
					"name": "TOKEN_5",
					"outputs": [
						{
							"internalType": "uint256",
							"name": "",
							"type": "uint256"
						}
					],
					"stateMutability": "view",
					"type": "function"
				},
				{
					"inputs": [],
					"name": "TOKEN_6",
					"outputs": [
						{
							"internalType": "uint256",
							"name": "",
							"type": "uint256"
						}
					],
					"stateMutability": "view",
					"type": "function"
				},
				{
					"inputs": [
						{
							"internalType": "address",
							"name": "account",
							"type": "address"
						},
						{
							"internalType": "uint256",
							"name": "id",
							"type": "uint256"
						}
					],
					"name": "balanceOf",
					"outputs": [
						{
							"internalType": "uint256",
							"name": "",
							"type": "uint256"
						}
					],
					"stateMutability": "view",
					"type": "function"
				},
				{
					"inputs": [
						{
							"internalType": "address[]",
							"name": "accounts",
							"type": "address[]"
						},
						{
							"internalType": "uint256[]",
							"name": "ids",
							"type": "uint256[]"
						}
					],
					"name": "balanceOfBatch",
					"outputs": [
						{
							"internalType": "uint256[]",
							"name": "",
							"type": "uint256[]"
						}
					],
					"stateMutability": "view",
					"type": "function"
				},
				{
					"inputs": [
						{
							"internalType": "address",
							"name": "from",
							"type": "address"
						},
						{
							"internalType": "uint256",
							"name": "id",
							"type": "uint256"
						},
						{
							"internalType": "uint256",
							"name": "amount",
							"type": "uint256"
						}
					],
					"name": "burn",
					"outputs": [],
					"stateMutability": "nonpayable",
					"type": "function"
				},
				{
					"inputs": [
						{
							"internalType": "address",
							"name": "from",
							"type": "address"
						},
						{
							"internalType": "uint256[]",
							"name": "ids",
							"type": "uint256[]"
						},
						{
							"internalType": "uint256[]",
							"name": "amounts",
							"type": "uint256[]"
						}
					],
					"name": "burnBatch",
					"outputs": [],
					"stateMutability": "nonpayable",
					"type": "function"
				},
				{
					"inputs": [
						{
							"internalType": "address",
							"name": "account",
							"type": "address"
						},
						{
							"internalType": "address",
							"name": "operator",
							"type": "address"
						}
					],
					"name": "isApprovedForAll",
					"outputs": [
						{
							"internalType": "bool",
							"name": "",
							"type": "bool"
						}
					],
					"stateMutability": "view",
					"type": "function"
				},
				{
					"inputs": [
						{
							"internalType": "address",
							"name": "",
							"type": "address"
						},
						{
							"internalType": "uint256",
							"name": "",
							"type": "uint256"
						}
					],
					"name": "lastMintTime",
					"outputs": [
						{
							"internalType": "uint256",
							"name": "",
							"type": "uint256"
						}
					],
					"stateMutability": "view",
					"type": "function"
				},
				{
					"inputs": [
						{
							"internalType": "uint256",
							"name": "id",
							"type": "uint256"
						},
						{
							"internalType": "uint256",
							"name": "amount",
							"type": "uint256"
						}
					],
					"name": "mint",
					"outputs": [],
					"stateMutability": "nonpayable",
					"type": "function"
				},
				{
					"inputs": [
						{
							"internalType": "address",
							"name": "to",
							"type": "address"
						},
						{
							"internalType": "uint256[]",
							"name": "ids",
							"type": "uint256[]"
						},
						{
							"internalType": "uint256[]",
							"name": "amounts",
							"type": "uint256[]"
						},
						{
							"internalType": "bytes",
							"name": "data",
							"type": "bytes"
						}
					],
					"name": "mintBatch",
					"outputs": [],
					"stateMutability": "nonpayable",
					"type": "function"
				},
				{
					"inputs": [],
					"name": "owner",
					"outputs": [
						{
							"internalType": "address",
							"name": "",
							"type": "address"
						}
					],
					"stateMutability": "view",
					"type": "function"
				},
				{
					"inputs": [],
					"name": "renounceOwnership",
					"outputs": [],
					"stateMutability": "nonpayable",
					"type": "function"
				},
				{
					"inputs": [
						{
							"internalType": "address",
							"name": "from",
							"type": "address"
						},
						{
							"internalType": "address",
							"name": "to",
							"type": "address"
						},
						{
							"internalType": "uint256[]",
							"name": "ids",
							"type": "uint256[]"
						},
						{
							"internalType": "uint256[]",
							"name": "values",
							"type": "uint256[]"
						},
						{
							"internalType": "bytes",
							"name": "data",
							"type": "bytes"
						}
					],
					"name": "safeBatchTransferFrom",
					"outputs": [],
					"stateMutability": "nonpayable",
					"type": "function"
				},
				{
					"inputs": [
						{
							"internalType": "address",
							"name": "from",
							"type": "address"
						},
						{
							"internalType": "address",
							"name": "to",
							"type": "address"
						},
						{
							"internalType": "uint256",
							"name": "id",
							"type": "uint256"
						},
						{
							"internalType": "uint256",
							"name": "value",
							"type": "uint256"
						},
						{
							"internalType": "bytes",
							"name": "data",
							"type": "bytes"
						}
					],
					"name": "safeTransferFrom",
					"outputs": [],
					"stateMutability": "nonpayable",
					"type": "function"
				},
				{
					"inputs": [
						{
							"internalType": "address",
							"name": "operator",
							"type": "address"
						},
						{
							"internalType": "bool",
							"name": "approved",
							"type": "bool"
						}
					],
					"name": "setApprovalForAll",
					"outputs": [],
					"stateMutability": "nonpayable",
					"type": "function"
				},
				{
					"inputs": [
						{
							"internalType": "bytes4",
							"name": "interfaceId",
							"type": "bytes4"
						}
					],
					"name": "supportsInterface",
					"outputs": [
						{
							"internalType": "bool",
							"name": "",
							"type": "bool"
						}
					],
					"stateMutability": "view",
					"type": "function"
				},
				{
					"inputs": [
						{
							"internalType": "address",
							"name": "newOwner",
							"type": "address"
						}
					],
					"name": "transferOwnership",
					"outputs": [],
					"stateMutability": "nonpayable",
					"type": "function"
				},
				{
					"inputs": [
						{
							"internalType": "uint256",
							"name": "",
							"type": "uint256"
						}
					],
					"name": "uri",
					"outputs": [
						{
							"internalType": "string",
							"name": "",
							"type": "string"
						}
					],
					"stateMutability": "view",
					"type": "function"
				}
			],
			"devdoc": {
				"errors": {
					"ERC1155InsufficientBalance(address,uint256,uint256,uint256)": [
						{
							"details": "Indicates an error related to the current `balance` of a `sender`. Used in transfers.",
							"params": {
								"balance": "Current balance for the interacting account.",
								"needed": "Minimum amount required to perform a transfer.",
								"sender": "Address whose tokens are being transferred.",
								"tokenId": "Identifier number of a token."
							}
						}
					],
					"ERC1155InvalidApprover(address)": [
						{
							"details": "Indicates a failure with the `approver` of a token to be approved. Used in approvals.",
							"params": {
								"approver": "Address initiating an approval operation."
							}
						}
					],
					"ERC1155InvalidArrayLength(uint256,uint256)": [
						{
							"details": "Indicates an array length mismatch between ids and values in a safeBatchTransferFrom operation. Used in batch transfers.",
							"params": {
								"idsLength": "Length of the array of token identifiers",
								"valuesLength": "Length of the array of token amounts"
							}
						}
					],
					"ERC1155InvalidOperator(address)": [
						{
							"details": "Indicates a failure with the `operator` to be approved. Used in approvals.",
							"params": {
								"operator": "Address that may be allowed to operate on tokens without being their owner."
							}
						}
					],
					"ERC1155InvalidReceiver(address)": [
						{
							"details": "Indicates a failure with the token `receiver`. Used in transfers.",
							"params": {
								"receiver": "Address to which tokens are being transferred."
							}
						}
					],
					"ERC1155InvalidSender(address)": [
						{
							"details": "Indicates a failure with the token `sender`. Used in transfers.",
							"params": {
								"sender": "Address whose tokens are being transferred."
							}
						}
					],
					"ERC1155MissingApprovalForAll(address,address)": [
						{
							"details": "Indicates a failure with the `operator`’s approval. Used in transfers.",
							"params": {
								"operator": "Address that may be allowed to operate on tokens without being their owner.",
								"owner": "Address of the current owner of a token."
							}
						}
					],
					"OwnableInvalidOwner(address)": [
						{
							"details": "The owner is not a valid owner account. (eg. `address(0)`)"
						}
					],
					"OwnableUnauthorizedAccount(address)": [
						{
							"details": "The caller account is not authorized to perform an operation."
						}
					]
				},
				"events": {
					"ApprovalForAll(address,address,bool)": {
						"details": "Emitted when `account` grants or revokes permission to `operator` to transfer their tokens, according to `approved`."
					},
					"TransferBatch(address,address,address,uint256[],uint256[])": {
						"details": "Equivalent to multiple {TransferSingle} events, where `operator`, `from` and `to` are the same for all transfers."
					},
					"TransferSingle(address,address,address,uint256,uint256)": {
						"details": "Emitted when `value` amount of tokens of type `id` are transferred from `from` to `to` by `operator`."
					},
					"URI(string,uint256)": {
						"details": "Emitted when the URI for token type `id` changes to `value`, if it is a non-programmatic URI. If an {URI} event was emitted for `id`, the standard https://eips.ethereum.org/EIPS/eip-1155#metadata-extensions[guarantees] that `value` will equal the value returned by {IERC1155MetadataURI-uri}."
					}
				},
				"kind": "dev",
				"methods": {
					"balanceOf(address,uint256)": {
						"details": "See {IERC1155-balanceOf}."
					},
					"balanceOfBatch(address[],uint256[])": {
						"details": "See {IERC1155-balanceOfBatch}. Requirements: - `accounts` and `ids` must have the same length."
					},
					"isApprovedForAll(address,address)": {
						"details": "See {IERC1155-isApprovedForAll}."
					},
					"owner()": {
						"details": "Returns the address of the current owner."
					},
					"renounceOwnership()": {
						"details": "Leaves the contract without owner. It will not be possible to call `onlyOwner` functions. Can only be called by the current owner. NOTE: Renouncing ownership will leave the contract without an owner, thereby disabling any functionality that is only available to the owner."
					},
					"safeBatchTransferFrom(address,address,uint256[],uint256[],bytes)": {
						"details": "See {IERC1155-safeBatchTransferFrom}."
					},
					"safeTransferFrom(address,address,uint256,uint256,bytes)": {
						"details": "See {IERC1155-safeTransferFrom}."
					},
					"setApprovalForAll(address,bool)": {
						"details": "See {IERC1155-setApprovalForAll}."
					},
					"supportsInterface(bytes4)": {
						"details": "See {IERC165-supportsInterface}."
					},
					"transferOwnership(address)": {
						"details": "Transfers ownership of the contract to a new account (`newOwner`). Can only be called by the current owner."
					},
					"uri(uint256)": {
						"details": "See {IERC1155MetadataURI-uri}. This implementation returns the same URI for *all* token types. It relies on the token type ID substitution mechanism https://eips.ethereum.org/EIPS/eip-1155#metadata[defined in the EIP]. Clients calling this function must replace the `\\{id\\}` substring with the actual token type ID."
					}
				},
				"version": 1
			},
			"evm": {
				"assembly": "    /* \"module-3/ERC1155token.sol\":171:1673  contract MyERC1155Token is ERC1155,Ownable  {... */\n  mstore(0x40, 0x80)\n    /* \"module-3/ERC1155token.sol\":583:701  constructor() ERC1155(\"ipfs://bafybeihrklb222sgiowrjceg76rmqqpzqiyujmnufv3cq57ssemdxbbe4u/{id}\") Ownable(msg.sender){} */\n  callvalue\n  dup1\n  iszero\n  tag_1\n  jumpi\n  0x00\n  dup1\n  revert\ntag_1:\n  pop\n    /* \"module-3/ERC1155token.sol\":688:698  msg.sender */\n  caller\n    /* \"@openzeppelin/contracts/token/ERC1155/ERC1155.sol\":1251:1313  constructor(string memory uri_) {... */\n  mload(0x40)\n  dup1\n  0x80\n  add\n  0x40\n  mstore\n  dup1\n  0x47\n  dup2\n  mstore\n  0x20\n  add\n  data_3a101464a4e84a7d1a807d584bce9e27324494de0a05dedef590e97c5130cc4d\n  0x47\n  swap2\n  codecopy\n    /* \"@openzeppelin/contracts/token/ERC1155/ERC1155.sol\":1293:1306  _setURI(uri_) */\n  tag_6\n    /* \"@openzeppelin/contracts/token/ERC1155/ERC1155.sol\":1301:1305  uri_ */\n  dup2\n    /* \"@openzeppelin/contracts/token/ERC1155/ERC1155.sol\":1293:1300  _setURI */\n  tag_7\n    /* \"@openzeppelin/contracts/token/ERC1155/ERC1155.sol\":1293:1306  _setURI(uri_) */\n  jump\t// in\ntag_6:\n  pop\n  sub(shl(0xa0, 0x01), 0x01)\n    /* \"@openzeppelin/contracts/access/Ownable.sol\":1273:1299  initialOwner == address(0) */\n  dup2\n  and\n    /* \"@openzeppelin/contracts/access/Ownable.sol\":1269:1364  if (initialOwner == address(0)) {... */\n  tag_9\n  jumpi\n    /* \"@openzeppelin/contracts/access/Ownable.sol\":1322:1353  OwnableInvalidOwner(address(0)) */\n  mload(0x40)\n  shl(0xe0, 0x1e4fbdf7)\n  dup2\n  mstore\n    /* \"@openzeppelin/contracts/access/Ownable.sol\":1350:1351  0 */\n  0x00\n    /* \"@openzeppelin/contracts/access/Ownable.sol\":1322:1353  OwnableInvalidOwner(address(0)) */\n  0x04\n  dup3\n  add\n    /* \"#utility.yul\":160:211   */\n  mstore\n    /* \"#utility.yul\":133:151   */\n  0x24\n  add\n    /* \"@openzeppelin/contracts/access/Ownable.sol\":1322:1353  OwnableInvalidOwner(address(0)) */\n  mload(0x40)\n  dup1\n  swap2\n  sub\n  swap1\n  revert\n    /* \"@openzeppelin/contracts/access/Ownable.sol\":1269:1364  if (initialOwner == address(0)) {... */\ntag_9:\n    /* \"@openzeppelin/contracts/access/Ownable.sol\":1373:1405  _transferOwnership(initialOwner) */\n  tag_12\n    /* \"@openzeppelin/contracts/access/Ownable.sol\":1392:1404  initialOwner */\n  dup2\n    /* \"@openzeppelin/contracts/access/Ownable.sol\":1373:1391  _transferOwnership */\n  tag_13\n    /* \"@openzeppelin/contracts/access/Ownable.sol\":1373:1405  _transferOwnership(initialOwner) */\n  jump\t// in\ntag_12:\n    /* \"@openzeppelin/contracts/access/Ownable.sol\":1225:1412  constructor(address initialOwner) {... */\n  pop\n    /* \"module-3/ERC1155token.sol\":171:1673  contract MyERC1155Token is ERC1155,Ownable  {... */\n  jump(tag_25)\n    /* \"@openzeppelin/contracts/token/ERC1155/ERC1155.sol\":10282:10368  function _setURI(string memory newuri) internal virtual {... */\ntag_7:\n    /* \"@openzeppelin/contracts/token/ERC1155/ERC1155.sol\":10348:10352  _uri */\n  0x02\n    /* \"@openzeppelin/contracts/token/ERC1155/ERC1155.sol\":10348:10361  _uri = newuri */\n  tag_17\n    /* \"@openzeppelin/contracts/token/ERC1155/ERC1155.sol\":10355:10361  newuri */\n  dup3\n    /* \"@openzeppelin/contracts/token/ERC1155/ERC1155.sol\":10348:10352  _uri */\n  dup3\n    /* \"@openzeppelin/contracts/token/ERC1155/ERC1155.sol\":10348:10361  _uri = newuri */\n  tag_18\n  jump\t// in\ntag_17:\n  pop\n    /* \"@openzeppelin/contracts/token/ERC1155/ERC1155.sol\":10282:10368  function _setURI(string memory newuri) internal virtual {... */\n  pop\n  jump\t// out\n    /* \"@openzeppelin/contracts/access/Ownable.sol\":2912:3099  function _transferOwnership(address newOwner) internal virtual {... */\ntag_13:\n    /* \"@openzeppelin/contracts/access/Ownable.sol\":3004:3010  _owner */\n  0x03\n  dup1\n  sload\n  sub(shl(0xa0, 0x01), 0x01)\n    /* \"@openzeppelin/contracts/access/Ownable.sol\":3020:3037  _owner = newOwner */\n  dup4\n  dup2\n  and\n  not(sub(shl(0xa0, 0x01), 0x01))\n  dup4\n  and\n  dup2\n  or\n  swap1\n  swap4\n  sstore\n    /* \"@openzeppelin/contracts/access/Ownable.sol\":3052:3092  OwnershipTransferred(oldOwner, newOwner) */\n  mload(0x40)\n    /* \"@openzeppelin/contracts/access/Ownable.sol\":3004:3010  _owner */\n  swap2\n  and\n  swap2\n    /* \"@openzeppelin/contracts/access/Ownable.sol\":3020:3037  _owner = newOwner */\n  swap1\n    /* \"@openzeppelin/contracts/access/Ownable.sol\":3004:3010  _owner */\n  dup3\n  swap1\n    /* \"@openzeppelin/contracts/access/Ownable.sol\":3052:3092  OwnershipTransferred(oldOwner, newOwner) */\n  0x8be0079c531659141344cd1fd0a4f28419497f9722a3daafe3b4186f6b6457e0\n  swap1\n    /* \"@openzeppelin/contracts/access/Ownable.sol\":2985:3001  address oldOwner */\n  0x00\n  swap1\n    /* \"@openzeppelin/contracts/access/Ownable.sol\":3052:3092  OwnershipTransferred(oldOwner, newOwner) */\n  log3\n    /* \"@openzeppelin/contracts/access/Ownable.sol\":2975:3099  {... */\n  pop\n    /* \"@openzeppelin/contracts/access/Ownable.sol\":2912:3099  function _transferOwnership(address newOwner) internal virtual {... */\n  pop\n  jump\t// out\n    /* \"#utility.yul\":222:349   */\ntag_20:\n    /* \"#utility.yul\":283:293   */\n  0x4e487b71\n    /* \"#utility.yul\":278:281   */\n  0xe0\n    /* \"#utility.yul\":274:294   */\n  shl\n    /* \"#utility.yul\":271:272   */\n  0x00\n    /* \"#utility.yul\":264:295   */\n  mstore\n    /* \"#utility.yul\":314:318   */\n  0x41\n    /* \"#utility.yul\":311:312   */\n  0x04\n    /* \"#utility.yul\":304:319   */\n  mstore\n    /* \"#utility.yul\":338:342   */\n  0x24\n    /* \"#utility.yul\":335:336   */\n  0x00\n    /* \"#utility.yul\":328:343   */\n  revert\n    /* \"#utility.yul\":354:734   */\ntag_21:\n    /* \"#utility.yul\":433:434   */\n  0x01\n    /* \"#utility.yul\":429:441   */\n  dup2\n  dup2\n  shr\n  swap1\n    /* \"#utility.yul\":476:488   */\n  dup3\n  and\n  dup1\n    /* \"#utility.yul\":497:558   */\n  tag_29\n  jumpi\n    /* \"#utility.yul\":551:555   */\n  0x7f\n    /* \"#utility.yul\":543:549   */\n  dup3\n    /* \"#utility.yul\":539:556   */\n  and\n    /* \"#utility.yul\":529:556   */\n  swap2\n  pop\n    /* \"#utility.yul\":497:558   */\ntag_29:\n    /* \"#utility.yul\":604:606   */\n  0x20\n    /* \"#utility.yul\":596:602   */\n  dup3\n    /* \"#utility.yul\":593:607   */\n  lt\n    /* \"#utility.yul\":573:591   */\n  dup2\n    /* \"#utility.yul\":570:608   */\n  sub\n    /* \"#utility.yul\":567:728   */\n  tag_30\n  jumpi\n    /* \"#utility.yul\":650:660   */\n  0x4e487b71\n    /* \"#utility.yul\":645:648   */\n  0xe0\n    /* \"#utility.yul\":641:661   */\n  shl\n    /* \"#utility.yul\":638:639   */\n  0x00\n    /* \"#utility.yul\":631:662   */\n  mstore\n    /* \"#utility.yul\":685:689   */\n  0x22\n    /* \"#utility.yul\":682:683   */\n  0x04\n    /* \"#utility.yul\":675:690   */\n  mstore\n    /* \"#utility.yul\":713:717   */\n  0x24\n    /* \"#utility.yul\":710:711   */\n  0x00\n    /* \"#utility.yul\":703:718   */\n  revert\n    /* \"#utility.yul\":567:728   */\ntag_30:\n  pop\n    /* \"#utility.yul\":354:734   */\n  swap2\n  swap1\n  pop\n  jump\t// out\n    /* \"#utility.yul\":865:1383   */\ntag_23:\n    /* \"#utility.yul\":967:969   */\n  0x1f\n    /* \"#utility.yul\":962:965   */\n  dup3\n    /* \"#utility.yul\":959:970   */\n  gt\n    /* \"#utility.yul\":956:1377   */\n  iszero\n  tag_33\n  jumpi\n    /* \"#utility.yul\":1003:1008   */\n  dup1\n    /* \"#utility.yul\":1000:1001   */\n  0x00\n    /* \"#utility.yul\":993:1009   */\n  mstore\n    /* \"#utility.yul\":1047:1051   */\n  0x20\n    /* \"#utility.yul\":1044:1045   */\n  0x00\n    /* \"#utility.yul\":1034:1052   */\n  keccak256\n    /* \"#utility.yul\":1117:1119   */\n  0x1f\n    /* \"#utility.yul\":1105:1115   */\n  dup5\n    /* \"#utility.yul\":1101:1120   */\n  add\n    /* \"#utility.yul\":1098:1099   */\n  0x05\n    /* \"#utility.yul\":1094:1121   */\n  shr\n    /* \"#utility.yul\":1088:1092   */\n  dup2\n    /* \"#utility.yul\":1084:1122   */\n  add\n    /* \"#utility.yul\":1153:1157   */\n  0x20\n    /* \"#utility.yul\":1141:1151   */\n  dup6\n    /* \"#utility.yul\":1138:1158   */\n  lt\n    /* \"#utility.yul\":1135:1182   */\n  iszero\n  tag_34\n  jumpi\n  pop\n    /* \"#utility.yul\":1176:1180   */\n  dup1\n    /* \"#utility.yul\":1135:1182   */\ntag_34:\n    /* \"#utility.yul\":1231:1233   */\n  0x1f\n    /* \"#utility.yul\":1226:1229   */\n  dup5\n    /* \"#utility.yul\":1222:1234   */\n  add\n    /* \"#utility.yul\":1219:1220   */\n  0x05\n    /* \"#utility.yul\":1215:1235   */\n  shr\n    /* \"#utility.yul\":1209:1213   */\n  dup3\n    /* \"#utility.yul\":1205:1236   */\n  add\n    /* \"#utility.yul\":1195:1236   */\n  swap2\n  pop\n    /* \"#utility.yul\":1286:1367   */\ntag_35:\n    /* \"#utility.yul\":1304:1306   */\n  dup2\n    /* \"#utility.yul\":1297:1302   */\n  dup2\n    /* \"#utility.yul\":1294:1307   */\n  lt\n    /* \"#utility.yul\":1286:1367   */\n  iszero\n  tag_37\n  jumpi\n    /* \"#utility.yul\":1363:1364   */\n  0x00\n    /* \"#utility.yul\":1349:1365   */\n  dup2\n  sstore\n    /* \"#utility.yul\":1330:1331   */\n  0x01\n    /* \"#utility.yul\":1319:1332   */\n  add\n    /* \"#utility.yul\":1286:1367   */\n  jump(tag_35)\ntag_37:\n    /* \"#utility.yul\":1290:1293   */\n  pop\n  pop\n    /* \"#utility.yul\":956:1377   */\ntag_33:\n    /* \"#utility.yul\":865:1383   */\n  pop\n  pop\n  pop\n  jump\t// out\n    /* \"#utility.yul\":1559:2904   */\ntag_18:\n    /* \"#utility.yul\":1679:1689   */\n  dup2\n  mload\n  sub(shl(0x40, 0x01), 0x01)\n    /* \"#utility.yul\":1701:1731   */\n  dup2\n  gt\n    /* \"#utility.yul\":1698:1754   */\n  iszero\n  tag_41\n  jumpi\n    /* \"#utility.yul\":1734:1752   */\n  tag_41\n  tag_20\n  jump\t// in\ntag_41:\n    /* \"#utility.yul\":1763:1860   */\n  tag_42\n    /* \"#utility.yul\":1853:1859   */\n  dup2\n    /* \"#utility.yul\":1813:1851   */\n  tag_43\n    /* \"#utility.yul\":1845:1849   */\n  dup5\n    /* \"#utility.yul\":1839:1850   */\n  sload\n    /* \"#utility.yul\":1813:1851   */\n  tag_21\n  jump\t// in\ntag_43:\n    /* \"#utility.yul\":1807:1811   */\n  dup5\n    /* \"#utility.yul\":1763:1860   */\n  tag_23\n  jump\t// in\ntag_42:\n    /* \"#utility.yul\":1915:1919   */\n  0x20\n  dup1\n    /* \"#utility.yul\":1972:1974   */\n  0x1f\n    /* \"#utility.yul\":1961:1975   */\n  dup4\n  gt\n    /* \"#utility.yul\":1989:1990   */\n  0x01\n    /* \"#utility.yul\":1984:2647   */\n  dup2\n  eq\n  tag_45\n  jumpi\n    /* \"#utility.yul\":2691:2692   */\n  0x00\n    /* \"#utility.yul\":2708:2714   */\n  dup5\n    /* \"#utility.yul\":2705:2794   */\n  iszero\n  tag_46\n  jumpi\n  pop\n    /* \"#utility.yul\":2760:2779   */\n  dup6\n  dup4\n  add\n    /* \"#utility.yul\":2754:2780   */\n  mload\n    /* \"#utility.yul\":2705:2794   */\ntag_46:\n  not(0x00)\n    /* \"#utility.yul\":1516:1517   */\n  0x03\n    /* \"#utility.yul\":1512:1523   */\n  dup7\n  swap1\n  shl\n    /* \"#utility.yul\":1508:1532   */\n  shr\n    /* \"#utility.yul\":1504:1533   */\n  not\n    /* \"#utility.yul\":1494:1534   */\n  and\n    /* \"#utility.yul\":1540:1541   */\n  0x01\n    /* \"#utility.yul\":1536:1547   */\n  dup6\n  swap1\n  shl\n    /* \"#utility.yul\":1491:1548   */\n  or\n    /* \"#utility.yul\":2807:2888   */\n  dup6\n  sstore\n    /* \"#utility.yul\":1954:2898   */\n  jump(tag_44)\n    /* \"#utility.yul\":1984:2647   */\ntag_45:\n    /* \"#utility.yul\":812:813   */\n  0x00\n    /* \"#utility.yul\":805:819   */\n  dup6\n  dup2\n  mstore\n    /* \"#utility.yul\":849:853   */\n  0x20\n    /* \"#utility.yul\":836:854   */\n  dup2\n  keccak256\n  not(0x1f)\n    /* \"#utility.yul\":2020:2040   */\n  dup7\n  and\n  swap2\n    /* \"#utility.yul\":2138:2374   */\ntag_49:\n    /* \"#utility.yul\":2152:2159   */\n  dup3\n    /* \"#utility.yul\":2149:2150   */\n  dup2\n    /* \"#utility.yul\":2146:2160   */\n  lt\n    /* \"#utility.yul\":2138:2374   */\n  iszero\n  tag_51\n  jumpi\n    /* \"#utility.yul\":2241:2260   */\n  dup9\n  dup7\n  add\n    /* \"#utility.yul\":2235:2261   */\n  mload\n    /* \"#utility.yul\":2220:2262   */\n  dup3\n  sstore\n    /* \"#utility.yul\":2333:2360   */\n  swap5\n  dup5\n  add\n  swap5\n    /* \"#utility.yul\":2301:2302   */\n  0x01\n    /* \"#utility.yul\":2289:2303   */\n  swap1\n  swap2\n  add\n  swap1\n    /* \"#utility.yul\":2168:2187   */\n  dup5\n  add\n    /* \"#utility.yul\":2138:2374   */\n  jump(tag_49)\ntag_51:\n    /* \"#utility.yul\":2142:2145   */\n  pop\n    /* \"#utility.yul\":2402:2408   */\n  dup6\n    /* \"#utility.yul\":2393:2400   */\n  dup3\n    /* \"#utility.yul\":2390:2409   */\n  lt\n    /* \"#utility.yul\":2387:2588   */\n  iszero\n  tag_52\n  jumpi\n    /* \"#utility.yul\":2463:2482   */\n  dup8\n  dup6\n  add\n    /* \"#utility.yul\":2457:2483   */\n  mload\n  not(0x00)\n    /* \"#utility.yul\":2546:2547   */\n  0x03\n    /* \"#utility.yul\":2542:2556   */\n  dup9\n  swap1\n  shl\n    /* \"#utility.yul\":2558:2561   */\n  0xf8\n    /* \"#utility.yul\":2538:2562   */\n  and\n    /* \"#utility.yul\":2534:2571   */\n  shr\n    /* \"#utility.yul\":2530:2572   */\n  not\n    /* \"#utility.yul\":2515:2573   */\n  and\n    /* \"#utility.yul\":2500:2574   */\n  dup2\n  sstore\n    /* \"#utility.yul\":2387:2588   */\ntag_52:\n  pop\n  pop\n    /* \"#utility.yul\":2634:2635   */\n  0x01\n    /* \"#utility.yul\":2625:2631   */\n  dup5\n    /* \"#utility.yul\":2622:2623   */\n  0x01\n    /* \"#utility.yul\":2618:2632   */\n  shl\n    /* \"#utility.yul\":2614:2636   */\n  add\n    /* \"#utility.yul\":2608:2612   */\n  dup6\n    /* \"#utility.yul\":2601:2637   */\n  sstore\n    /* \"#utility.yul\":1954:2898   */\ntag_44:\n  pop\n  pop\n  pop\n  pop\n    /* \"#utility.yul\":1559:2904   */\n  pop\n  pop\n  jump\t// out\ntag_25:\n    /* \"module-3/ERC1155token.sol\":171:1673  contract MyERC1155Token is ERC1155,Ownable  {... */\n  dataSize(sub_0)\n  dup1\n  dataOffset(sub_0)\n  0x00\n  codecopy\n  0x00\n  return\nstop\ndata_3a101464a4e84a7d1a807d584bce9e27324494de0a05dedef590e97c5130cc4d 697066733a2f2f6261667962656968726b6c623232327367696f77726a6365673736726d7171707a716979756a6d6e75667633637135377373656d647862626534752f7b69647d\n\nsub_0: assembly {\n        /* \"module-3/ERC1155token.sol\":171:1673  contract MyERC1155Token is ERC1155,Ownable  {... */\n      mstore(0x40, 0x80)\n      callvalue\n      dup1\n      iszero\n      tag_1\n      jumpi\n      0x00\n      dup1\n      revert\n    tag_1:\n      pop\n      jumpi(tag_2, lt(calldatasize, 0x04))\n      shr(0xe0, calldataload(0x00))\n      dup1\n      0x6b20c454\n      gt\n      tag_26\n      jumpi\n      dup1\n      0xd99939a2\n      gt\n      tag_27\n      jumpi\n      dup1\n      0xf242432a\n      gt\n      tag_28\n      jumpi\n      dup1\n      0xf242432a\n      eq\n      tag_23\n      jumpi\n      dup1\n      0xf2fde38b\n      eq\n      tag_24\n      jumpi\n      dup1\n      0xf5298aca\n      eq\n      tag_25\n      jumpi\n      0x00\n      dup1\n      revert\n    tag_28:\n      dup1\n      0xd99939a2\n      eq\n      tag_20\n      jumpi\n      dup1\n      0xe74d3862\n      eq\n      tag_21\n      jumpi\n      dup1\n      0xe985e9c5\n      eq\n      tag_22\n      jumpi\n      0x00\n      dup1\n      revert\n    tag_27:\n      dup1\n      0x8da5cb5b\n      gt\n      tag_29\n      jumpi\n      dup1\n      0x8da5cb5b\n      eq\n      tag_17\n      jumpi\n      dup1\n      0xa22cb465\n      eq\n      tag_18\n      jumpi\n      dup1\n      0xa3cacc85\n      eq\n      tag_19\n      jumpi\n      0x00\n      dup1\n      revert\n    tag_29:\n      dup1\n      0x6b20c454\n      eq\n      tag_14\n      jumpi\n      dup1\n      0x715018a6\n      eq\n      tag_15\n      jumpi\n      dup1\n      0x82c0fa30\n      eq\n      tag_16\n      jumpi\n      0x00\n      dup1\n      revert\n    tag_26:\n      dup1\n      0x1b2ef1ca\n      gt\n      tag_30\n      jumpi\n      dup1\n      0x453f6a32\n      gt\n      tag_31\n      jumpi\n      dup1\n      0x453f6a32\n      eq\n      tag_11\n      jumpi\n      dup1\n      0x4a3268e4\n      eq\n      tag_12\n      jumpi\n      dup1\n      0x4e1273f4\n      eq\n      tag_13\n      jumpi\n      0x00\n      dup1\n      revert\n    tag_31:\n      dup1\n      0x1b2ef1ca\n      eq\n      tag_8\n      jumpi\n      dup1\n      0x1f7fdffa\n      eq\n      tag_9\n      jumpi\n      dup1\n      0x2eb2c2d6\n      eq\n      tag_10\n      jumpi\n      0x00\n      dup1\n      revert\n    tag_30:\n      dup1\n      0x0ce52e07\n      gt\n      tag_32\n      jumpi\n      dup1\n      0x0ce52e07\n      eq\n      tag_5\n      jumpi\n      dup1\n      0x0d9371ad\n      eq\n      tag_6\n      jumpi\n      dup1\n      0x0e89341c\n      eq\n      tag_7\n      jumpi\n      0x00\n      dup1\n      revert\n    tag_32:\n      dup1\n      0xfdd58e\n      eq\n      tag_3\n      jumpi\n      dup1\n      0x01ffc9a7\n      eq\n      tag_4\n      jumpi\n    tag_2:\n      0x00\n      dup1\n      revert\n        /* \"@openzeppelin/contracts/token/ERC1155/ERC1155.sol\":2247:2379  function balanceOf(address account, uint256 id) public view virtual returns (uint256) {... */\n    tag_3:\n      tag_33\n      tag_34\n      calldatasize\n      0x04\n      tag_35\n      jump\t// in\n    tag_34:\n      tag_36\n      jump\t// in\n    tag_33:\n      mload(0x40)\n        /* \"#utility.yul\":620:645   */\n      swap1\n      dup2\n      mstore\n        /* \"#utility.yul\":608:610   */\n      0x20\n        /* \"#utility.yul\":593:611   */\n      add\n        /* \"@openzeppelin/contracts/token/ERC1155/ERC1155.sol\":2247:2379  function balanceOf(address account, uint256 id) public view virtual returns (uint256) {... */\n    tag_37:\n      mload(0x40)\n      dup1\n      swap2\n      sub\n      swap1\n      return\n        /* \"@openzeppelin/contracts/token/ERC1155/ERC1155.sol\":1380:1685  function supportsInterface(bytes4 interfaceId) public view virtual override(ERC165, IERC165) returns (bool) {... */\n    tag_4:\n      tag_39\n      tag_40\n      calldatasize\n      0x04\n      tag_41\n      jump\t// in\n    tag_40:\n      tag_42\n      jump\t// in\n    tag_39:\n      mload(0x40)\n        /* \"#utility.yul\":1253:1267   */\n      swap1\n      iszero\n        /* \"#utility.yul\":1246:1268   */\n      iszero\n        /* \"#utility.yul\":1228:1269   */\n      dup2\n      mstore\n        /* \"#utility.yul\":1216:1218   */\n      0x20\n        /* \"#utility.yul\":1201:1219   */\n      add\n        /* \"@openzeppelin/contracts/token/ERC1155/ERC1155.sol\":1380:1685  function supportsInterface(bytes4 interfaceId) public view virtual override(ERC165, IERC165) returns (bool) {... */\n      tag_37\n        /* \"#utility.yul\":1088:1275   */\n      jump\n        /* \"module-3/ERC1155token.sol\":509:576  mapping(address => mapping(uint256 => uint256)) public lastMintTime */\n    tag_5:\n      tag_33\n      tag_46\n      calldatasize\n      0x04\n      tag_35\n      jump\t// in\n    tag_46:\n      0x04\n      0x20\n      swap1\n      dup2\n      mstore\n      0x00\n      swap3\n      dup4\n      mstore\n      0x40\n      dup1\n      dup5\n      keccak256\n      swap1\n      swap2\n      mstore\n      swap1\n      dup3\n      mstore\n      swap1\n      keccak256\n      sload\n      dup2\n      jump\n        /* \"module-3/ERC1155token.sol\":385:420  uint256 public constant TOKEN_4 = 4 */\n    tag_6:\n      tag_33\n        /* \"module-3/ERC1155token.sol\":419:420  4 */\n      0x04\n        /* \"module-3/ERC1155token.sol\":385:420  uint256 public constant TOKEN_4 = 4 */\n      dup2\n      jump\n        /* \"@openzeppelin/contracts/token/ERC1155/ERC1155.sol\":2084:2187  function uri(uint256 /* id */) public view virtual returns (string memory) {... */\n    tag_7:\n      tag_52\n      tag_53\n      calldatasize\n      0x04\n      tag_54\n      jump\t// in\n    tag_53:\n      tag_55\n      jump\t// in\n    tag_52:\n      mload(0x40)\n      tag_37\n      swap2\n      swap1\n      tag_57\n      jump\t// in\n        /* \"module-3/ERC1155token.sol\":707:1027  function mint(uint256 id, uint256 amount) public {... */\n    tag_8:\n      tag_58\n      tag_59\n      calldatasize\n      0x04\n      tag_60\n      jump\t// in\n    tag_59:\n      tag_61\n      jump\t// in\n    tag_58:\n      stop\n        /* \"module-3/ERC1155token.sol\":1033:1199  function mintBatch(address to, uint256[] memory ids, uint256[] memory amounts, bytes memory data) public onlyOwner {... */\n    tag_9:\n      tag_58\n      tag_63\n      calldatasize\n      0x04\n      tag_64\n      jump\t// in\n    tag_63:\n      tag_65\n      jump\t// in\n        /* \"@openzeppelin/contracts/token/ERC1155/ERC1155.sol\":4014:4443  function safeBatchTransferFrom(... */\n    tag_10:\n      tag_58\n      tag_67\n      calldatasize\n      0x04\n      tag_68\n      jump\t// in\n    tag_67:\n      tag_69\n      jump\t// in\n        /* \"module-3/ERC1155token.sol\":344:379  uint256 public constant TOKEN_3 = 3 */\n    tag_11:\n      tag_33\n        /* \"module-3/ERC1155token.sol\":378:379  3 */\n      0x03\n        /* \"module-3/ERC1155token.sol\":344:379  uint256 public constant TOKEN_3 = 3 */\n      dup2\n      jump\n        /* \"module-3/ERC1155token.sol\":262:297  uint256 public constant TOKEN_1 = 1 */\n    tag_12:\n      tag_33\n        /* \"module-3/ERC1155token.sol\":296:297  1 */\n      0x01\n        /* \"module-3/ERC1155token.sol\":262:297  uint256 public constant TOKEN_1 = 1 */\n      dup2\n      jump\n        /* \"@openzeppelin/contracts/token/ERC1155/ERC1155.sol\":2536:3088  function balanceOfBatch(... */\n    tag_13:\n      tag_76\n      tag_77\n      calldatasize\n      0x04\n      tag_78\n      jump\t// in\n    tag_77:\n      tag_79\n      jump\t// in\n    tag_76:\n      mload(0x40)\n      tag_37\n      swap2\n      swap1\n      tag_81\n      jump\t// in\n        /* \"module-3/ERC1155token.sol\":1425:1671  function burnBatch(address from, uint256[] memory ids, uint256[] memory amounts) public {... */\n    tag_14:\n      tag_58\n      tag_83\n      calldatasize\n      0x04\n      tag_84\n      jump\t// in\n    tag_83:\n      tag_85\n      jump\t// in\n        /* \"@openzeppelin/contracts/access/Ownable.sol\":2293:2394  function renounceOwnership() public virtual onlyOwner {... */\n    tag_15:\n      tag_58\n      tag_87\n      jump\t// in\n        /* \"module-3/ERC1155token.sol\":303:338  uint256 public constant TOKEN_2 = 2 */\n    tag_16:\n      tag_33\n        /* \"module-3/ERC1155token.sol\":337:338  2 */\n      0x02\n        /* \"module-3/ERC1155token.sol\":303:338  uint256 public constant TOKEN_2 = 2 */\n      dup2\n      jump\n        /* \"@openzeppelin/contracts/access/Ownable.sol\":1638:1723  function owner() public view virtual returns (address) {... */\n    tag_17:\n        /* \"@openzeppelin/contracts/access/Ownable.sol\":1710:1716  _owner */\n      sload(0x03)\n        /* \"@openzeppelin/contracts/access/Ownable.sol\":1638:1723  function owner() public view virtual returns (address) {... */\n      mload(0x40)\n      sub(shl(0xa0, 0x01), 0x01)\n        /* \"@openzeppelin/contracts/access/Ownable.sol\":1710:1716  _owner */\n      swap1\n      swap2\n      and\n        /* \"#utility.yul\":8738:8812   */\n      dup2\n      mstore\n        /* \"#utility.yul\":8726:8728   */\n      0x20\n        /* \"#utility.yul\":8711:8729   */\n      add\n        /* \"@openzeppelin/contracts/access/Ownable.sol\":1638:1723  function owner() public view virtual returns (address) {... */\n      tag_37\n        /* \"#utility.yul\":8592:8818   */\n      jump\n        /* \"@openzeppelin/contracts/token/ERC1155/ERC1155.sol\":3156:3300  function setApprovalForAll(address operator, bool approved) public virtual {... */\n    tag_18:\n      tag_58\n      tag_96\n      calldatasize\n      0x04\n      tag_97\n      jump\t// in\n    tag_96:\n      tag_98\n      jump\t// in\n        /* \"module-3/ERC1155token.sol\":467:502  uint256 public constant TOKEN_6 = 6 */\n    tag_19:\n      tag_33\n        /* \"module-3/ERC1155token.sol\":501:502  6 */\n      0x06\n        /* \"module-3/ERC1155token.sol\":467:502  uint256 public constant TOKEN_6 = 6 */\n      dup2\n      jump\n        /* \"module-3/ERC1155token.sol\":221:256  uint256 public constant TOKEN_0 = 0 */\n    tag_20:\n      tag_33\n        /* \"module-3/ERC1155token.sol\":255:256  0 */\n      0x00\n        /* \"module-3/ERC1155token.sol\":221:256  uint256 public constant TOKEN_0 = 0 */\n      dup2\n      jump\n        /* \"module-3/ERC1155token.sol\":426:461  uint256 public constant TOKEN_5 = 5 */\n    tag_21:\n      tag_33\n        /* \"module-3/ERC1155token.sol\":460:461  5 */\n      0x05\n        /* \"module-3/ERC1155token.sol\":426:461  uint256 public constant TOKEN_5 = 5 */\n      dup2\n      jump\n        /* \"@openzeppelin/contracts/token/ERC1155/ERC1155.sol\":3367:3524  function isApprovedForAll(address account, address operator) public view virtual returns (bool) {... */\n    tag_22:\n      tag_39\n      tag_109\n      calldatasize\n      0x04\n      tag_110\n      jump\t// in\n    tag_109:\n      sub(shl(0xa0, 0x01), 0x01)\n        /* \"@openzeppelin/contracts/token/ERC1155/ERC1155.sol\":3480:3507  _operatorApprovals[account] */\n      swap2\n      dup3\n      and\n        /* \"@openzeppelin/contracts/token/ERC1155/ERC1155.sol\":3457:3461  bool */\n      0x00\n        /* \"@openzeppelin/contracts/token/ERC1155/ERC1155.sol\":3480:3507  _operatorApprovals[account] */\n      swap1\n      dup2\n      mstore\n        /* \"@openzeppelin/contracts/token/ERC1155/ERC1155.sol\":3480:3498  _operatorApprovals */\n      0x01\n        /* \"@openzeppelin/contracts/token/ERC1155/ERC1155.sol\":3480:3507  _operatorApprovals[account] */\n      0x20\n      swap1\n      dup2\n      mstore\n      0x40\n      dup1\n      dup4\n      keccak256\n        /* \"@openzeppelin/contracts/token/ERC1155/ERC1155.sol\":3480:3517  _operatorApprovals[account][operator] */\n      swap4\n      swap1\n      swap5\n      and\n      dup3\n      mstore\n      swap2\n      swap1\n      swap2\n      mstore\n      keccak256\n      sload\n      0xff\n      and\n      swap1\n        /* \"@openzeppelin/contracts/token/ERC1155/ERC1155.sol\":3367:3524  function isApprovedForAll(address account, address operator) public view virtual returns (bool) {... */\n      jump\n        /* \"@openzeppelin/contracts/token/ERC1155/ERC1155.sol\":3591:3942  function safeTransferFrom(address from, address to, uint256 id, uint256 value, bytes memory data) public virtual {... */\n    tag_23:\n      tag_58\n      tag_114\n      calldatasize\n      0x04\n      tag_115\n      jump\t// in\n    tag_114:\n      tag_116\n      jump\t// in\n        /* \"@openzeppelin/contracts/access/Ownable.sol\":2543:2758  function transferOwnership(address newOwner) public virtual onlyOwner {... */\n    tag_24:\n      tag_58\n      tag_118\n      calldatasize\n      0x04\n      tag_119\n      jump\t// in\n    tag_118:\n      tag_120\n      jump\t// in\n        /* \"module-3/ERC1155token.sol\":1205:1419  function burn(address from, uint256 id, uint256 amount) public {... */\n    tag_25:\n      tag_58\n      tag_122\n      calldatasize\n      0x04\n      tag_123\n      jump\t// in\n    tag_122:\n      tag_124\n      jump\t// in\n        /* \"@openzeppelin/contracts/token/ERC1155/ERC1155.sol\":2247:2379  function balanceOf(address account, uint256 id) public view virtual returns (uint256) {... */\n    tag_36:\n        /* \"@openzeppelin/contracts/token/ERC1155/ERC1155.sol\":2324:2331  uint256 */\n      0x00\n        /* \"@openzeppelin/contracts/token/ERC1155/ERC1155.sol\":2350:2363  _balances[id] */\n      dup2\n      dup2\n      mstore\n      0x20\n      dup2\n      dup2\n      mstore\n      0x40\n      dup1\n      dup4\n      keccak256\n      sub(shl(0xa0, 0x01), 0x01)\n        /* \"@openzeppelin/contracts/token/ERC1155/ERC1155.sol\":2350:2372  _balances[id][account] */\n      dup7\n      and\n      dup5\n      mstore\n      swap1\n      swap2\n      mstore\n      swap1\n      keccak256\n      sload\n        /* \"@openzeppelin/contracts/token/ERC1155/ERC1155.sol\":2247:2379  function balanceOf(address account, uint256 id) public view virtual returns (uint256) {... */\n    tag_125:\n      swap3\n      swap2\n      pop\n      pop\n      jump\t// out\n        /* \"@openzeppelin/contracts/token/ERC1155/ERC1155.sol\":1380:1685  function supportsInterface(bytes4 interfaceId) public view virtual override(ERC165, IERC165) returns (bool) {... */\n    tag_42:\n        /* \"@openzeppelin/contracts/token/ERC1155/ERC1155.sol\":1482:1486  bool */\n      0x00\n      not(sub(shl(0xe0, 0x01), 0x01))\n        /* \"@openzeppelin/contracts/token/ERC1155/ERC1155.sol\":1517:1558  interfaceId == type(IERC1155).interfaceId */\n      dup3\n      and\n        /* \"@openzeppelin/contracts/token/ERC1155/ERC1155.sol\":1532:1558  type(IERC1155).interfaceId */\n      0xd9b67a2600000000000000000000000000000000000000000000000000000000\n        /* \"@openzeppelin/contracts/token/ERC1155/ERC1155.sol\":1517:1558  interfaceId == type(IERC1155).interfaceId */\n      eq\n      dup1\n        /* \"@openzeppelin/contracts/token/ERC1155/ERC1155.sol\":1517:1626  interfaceId == type(IERC1155).interfaceId ||... */\n      tag_127\n      jumpi\n      pop\n      not(sub(shl(0xe0, 0x01), 0x01))\n        /* \"@openzeppelin/contracts/token/ERC1155/ERC1155.sol\":1574:1626  interfaceId == type(IERC1155MetadataURI).interfaceId */\n      dup3\n      and\n        /* \"@openzeppelin/contracts/token/ERC1155/ERC1155.sol\":1589:1626  type(IERC1155MetadataURI).interfaceId */\n      0x0e89341c00000000000000000000000000000000000000000000000000000000\n        /* \"@openzeppelin/contracts/token/ERC1155/ERC1155.sol\":1574:1626  interfaceId == type(IERC1155MetadataURI).interfaceId */\n      eq\n        /* \"@openzeppelin/contracts/token/ERC1155/ERC1155.sol\":1517:1626  interfaceId == type(IERC1155).interfaceId ||... */\n    tag_127:\n        /* \"@openzeppelin/contracts/token/ERC1155/ERC1155.sol\":1517:1678  interfaceId == type(IERC1155).interfaceId ||... */\n      dup1\n      tag_125\n      jumpi\n      pop\n        /* \"@openzeppelin/contracts/utils/introspection/ERC165.sol\":876:901  type(IERC165).interfaceId */\n      0x01ffc9a700000000000000000000000000000000000000000000000000000000\n      not(sub(shl(0xe0, 0x01), 0x01))\n        /* \"@openzeppelin/contracts/utils/introspection/ERC165.sol\":861:901  interfaceId == type(IERC165).interfaceId */\n      dup4\n      and\n      eq\n        /* \"@openzeppelin/contracts/token/ERC1155/ERC1155.sol\":1642:1678  super.supportsInterface(interfaceId) */\n      tag_125\n        /* \"@openzeppelin/contracts/utils/introspection/ERC165.sol\":762:908  function supportsInterface(bytes4 interfaceId) public view virtual returns (bool) {... */\n      jump\n        /* \"@openzeppelin/contracts/token/ERC1155/ERC1155.sol\":2084:2187  function uri(uint256 /* id */) public view virtual returns (string memory) {... */\n    tag_55:\n        /* \"@openzeppelin/contracts/token/ERC1155/ERC1155.sol\":2144:2157  string memory */\n      0x60\n        /* \"@openzeppelin/contracts/token/ERC1155/ERC1155.sol\":2176:2180  _uri */\n      0x02\n        /* \"@openzeppelin/contracts/token/ERC1155/ERC1155.sol\":2169:2180  return _uri */\n      dup1\n      sload\n      tag_132\n      swap1\n      tag_133\n      jump\t// in\n    tag_132:\n      dup1\n      0x1f\n      add\n      0x20\n      dup1\n      swap2\n      div\n      mul\n      0x20\n      add\n      mload(0x40)\n      swap1\n      dup2\n      add\n      0x40\n      mstore\n      dup1\n      swap3\n      swap2\n      swap1\n      dup2\n      dup2\n      mstore\n      0x20\n      add\n      dup3\n      dup1\n      sload\n      tag_134\n      swap1\n      tag_133\n      jump\t// in\n    tag_134:\n      dup1\n      iszero\n      tag_135\n      jumpi\n      dup1\n      0x1f\n      lt\n      tag_136\n      jumpi\n      0x0100\n      dup1\n      dup4\n      sload\n      div\n      mul\n      dup4\n      mstore\n      swap2\n      0x20\n      add\n      swap2\n      jump(tag_135)\n    tag_136:\n      dup3\n      add\n      swap2\n      swap1\n      0x00\n      mstore\n      keccak256(0x00, 0x20)\n      swap1\n    tag_137:\n      dup2\n      sload\n      dup2\n      mstore\n      swap1\n      0x01\n      add\n      swap1\n      0x20\n      add\n      dup1\n      dup4\n      gt\n      tag_137\n      jumpi\n      dup3\n      swap1\n      sub\n      0x1f\n      and\n      dup3\n      add\n      swap2\n    tag_135:\n      pop\n      pop\n      pop\n      pop\n      pop\n      swap1\n      pop\n        /* \"@openzeppelin/contracts/token/ERC1155/ERC1155.sol\":2084:2187  function uri(uint256 /* id */) public view virtual returns (string memory) {... */\n      swap2\n      swap1\n      pop\n      jump\t// out\n        /* \"module-3/ERC1155token.sol\":707:1027  function mint(uint256 id, uint256 amount) public {... */\n    tag_61:\n        /* \"module-3/ERC1155token.sol\":337:338  2 */\n      0x02\n        /* \"module-3/ERC1155token.sol\":791:793  id */\n      dup3\n        /* \"module-3/ERC1155token.sol\":791:804  id <= TOKEN_2 */\n      gt\n      iszero\n        /* \"module-3/ERC1155token.sol\":766:825  require(id >= TOKEN_0 && id <= TOKEN_2, \"Invalid token ID\") */\n      tag_140\n      jumpi\n      mload(0x40)\n      shl(0xe5, 0x461bcd)\n      dup2\n      mstore\n        /* \"#utility.yul\":11213:11215   */\n      0x20\n        /* \"module-3/ERC1155token.sol\":766:825  require(id >= TOKEN_0 && id <= TOKEN_2, \"Invalid token ID\") */\n      0x04\n      dup3\n      add\n        /* \"#utility.yul\":11195:11216   */\n      mstore\n        /* \"#utility.yul\":11252:11254   */\n      0x10\n        /* \"#utility.yul\":11232:11250   */\n      0x24\n      dup3\n      add\n        /* \"#utility.yul\":11225:11255   */\n      mstore\n        /* \"#utility.yul\":11291:11309   */\n      0x496e76616c696420746f6b656e20494400000000000000000000000000000000\n        /* \"#utility.yul\":11271:11289   */\n      0x44\n      dup3\n      add\n        /* \"#utility.yul\":11264:11310   */\n      mstore\n        /* \"#utility.yul\":11327:11345   */\n      0x64\n      add\n        /* \"module-3/ERC1155token.sol\":766:825  require(id >= TOKEN_0 && id <= TOKEN_2, \"Invalid token ID\") */\n    tag_141:\n      mload(0x40)\n      dup1\n      swap2\n      sub\n      swap1\n      revert\n    tag_140:\n        /* \"module-3/ERC1155token.sol\":875:885  msg.sender */\n      caller\n        /* \"module-3/ERC1155token.sol\":862:886  lastMintTime[msg.sender] */\n      0x00\n      swap1\n      dup2\n      mstore\n        /* \"module-3/ERC1155token.sol\":862:874  lastMintTime */\n      0x04\n        /* \"module-3/ERC1155token.sol\":862:886  lastMintTime[msg.sender] */\n      0x20\n      swap1\n      dup2\n      mstore\n      0x40\n      dup1\n      dup4\n      keccak256\n        /* \"module-3/ERC1155token.sol\":862:890  lastMintTime[msg.sender][id] */\n      dup6\n      dup5\n      mstore\n      swap1\n      swap2\n      mstore\n      swap1\n      keccak256\n      sload\n        /* \"module-3/ERC1155token.sol\":862:902  lastMintTime[msg.sender][id] + 1 minutes */\n      tag_143\n      swap1\n        /* \"module-3/ERC1155token.sol\":893:902  1 minutes */\n      0x3c\n        /* \"module-3/ERC1155token.sol\":862:902  lastMintTime[msg.sender][id] + 1 minutes */\n      tag_144\n      jump\t// in\n    tag_143:\n        /* \"module-3/ERC1155token.sol\":843:858  block.timestamp */\n      timestamp\n        /* \"module-3/ERC1155token.sol\":843:902  block.timestamp >= lastMintTime[msg.sender][id] + 1 minutes */\n      lt\n      iszero\n        /* \"module-3/ERC1155token.sol\":835:920  require(block.timestamp >= lastMintTime[msg.sender][id] + 1 minutes, \"Mint cooldown\") */\n      tag_145\n      jumpi\n      mload(0x40)\n      shl(0xe5, 0x461bcd)\n      dup2\n      mstore\n        /* \"#utility.yul\":11842:11844   */\n      0x20\n        /* \"module-3/ERC1155token.sol\":835:920  require(block.timestamp >= lastMintTime[msg.sender][id] + 1 minutes, \"Mint cooldown\") */\n      0x04\n      dup3\n      add\n        /* \"#utility.yul\":11824:11845   */\n      mstore\n        /* \"#utility.yul\":11881:11883   */\n      0x0d\n        /* \"#utility.yul\":11861:11879   */\n      0x24\n      dup3\n      add\n        /* \"#utility.yul\":11854:11884   */\n      mstore\n        /* \"#utility.yul\":11920:11935   */\n      0x4d696e7420636f6f6c646f776e00000000000000000000000000000000000000\n        /* \"#utility.yul\":11900:11918   */\n      0x44\n      dup3\n      add\n        /* \"#utility.yul\":11893:11936   */\n      mstore\n        /* \"#utility.yul\":11953:11971   */\n      0x64\n      add\n        /* \"module-3/ERC1155token.sol\":835:920  require(block.timestamp >= lastMintTime[msg.sender][id] + 1 minutes, \"Mint cooldown\") */\n      tag_141\n        /* \"#utility.yul\":11640:11977   */\n      jump\n        /* \"module-3/ERC1155token.sol\":835:920  require(block.timestamp >= lastMintTime[msg.sender][id] + 1 minutes, \"Mint cooldown\") */\n    tag_145:\n        /* \"module-3/ERC1155token.sol\":944:954  msg.sender */\n      caller\n        /* \"module-3/ERC1155token.sol\":931:955  lastMintTime[msg.sender] */\n      0x00\n      dup2\n      dup2\n      mstore\n        /* \"module-3/ERC1155token.sol\":931:943  lastMintTime */\n      0x04\n        /* \"module-3/ERC1155token.sol\":931:955  lastMintTime[msg.sender] */\n      0x20\n      swap1\n      dup2\n      mstore\n      0x40\n      dup1\n      dup4\n      keccak256\n        /* \"module-3/ERC1155token.sol\":931:959  lastMintTime[msg.sender][id] */\n      dup7\n      dup5\n      mstore\n      dup3\n      mstore\n      dup1\n      dup4\n      keccak256\n        /* \"module-3/ERC1155token.sol\":962:977  block.timestamp */\n      timestamp\n        /* \"module-3/ERC1155token.sol\":931:977  lastMintTime[msg.sender][id] = block.timestamp */\n      swap1\n      sstore\n        /* \"module-3/ERC1155token.sol\":987:1020  _mint(msg.sender, id, amount, \"\") */\n      dup1\n      mload\n      swap2\n      dup3\n      add\n      swap1\n      mstore\n      swap1\n      dup2\n      mstore\n      tag_148\n      swap2\n        /* \"module-3/ERC1155token.sol\":944:954  msg.sender */\n      swap1\n        /* \"module-3/ERC1155token.sol\":956:958  id */\n      dup5\n      swap1\n        /* \"module-3/ERC1155token.sol\":1009:1015  amount */\n      dup5\n      swap1\n        /* \"module-3/ERC1155token.sol\":987:992  _mint */\n      tag_149\n        /* \"module-3/ERC1155token.sol\":987:1020  _mint(msg.sender, id, amount, \"\") */\n      jump\t// in\n    tag_148:\n        /* \"module-3/ERC1155token.sol\":707:1027  function mint(uint256 id, uint256 amount) public {... */\n      pop\n      pop\n      jump\t// out\n        /* \"module-3/ERC1155token.sol\":1033:1199  function mintBatch(address to, uint256[] memory ids, uint256[] memory amounts, bytes memory data) public onlyOwner {... */\n    tag_65:\n        /* \"@openzeppelin/contracts/access/Ownable.sol\":1531:1544  _checkOwner() */\n      tag_151\n        /* \"@openzeppelin/contracts/access/Ownable.sol\":1531:1542  _checkOwner */\n      tag_152\n        /* \"@openzeppelin/contracts/access/Ownable.sol\":1531:1544  _checkOwner() */\n      jump\t// in\n    tag_151:\n        /* \"module-3/ERC1155token.sol\":1158:1192  _mintBatch(to, ids, amounts, data) */\n      tag_154\n        /* \"module-3/ERC1155token.sol\":1169:1171  to */\n      dup5\n        /* \"module-3/ERC1155token.sol\":1173:1176  ids */\n      dup5\n        /* \"module-3/ERC1155token.sol\":1178:1185  amounts */\n      dup5\n        /* \"module-3/ERC1155token.sol\":1187:1191  data */\n      dup5\n        /* \"module-3/ERC1155token.sol\":1158:1168  _mintBatch */\n      tag_155\n        /* \"module-3/ERC1155token.sol\":1158:1192  _mintBatch(to, ids, amounts, data) */\n      jump\t// in\n    tag_154:\n        /* \"module-3/ERC1155token.sol\":1033:1199  function mintBatch(address to, uint256[] memory ids, uint256[] memory amounts, bytes memory data) public onlyOwner {... */\n      pop\n      pop\n      pop\n      pop\n      jump\t// out\n        /* \"@openzeppelin/contracts/token/ERC1155/ERC1155.sol\":4014:4443  function safeBatchTransferFrom(... */\n    tag_69:\n        /* \"@openzeppelin/contracts/utils/Context.sol\":735:745  msg.sender */\n      caller\n      sub(shl(0xa0, 0x01), 0x01)\n        /* \"@openzeppelin/contracts/token/ERC1155/ERC1155.sol\":4251:4265  from != sender */\n      dup7\n      and\n      dup2\n      eq\n      dup1\n      iszero\n      swap1\n        /* \"@openzeppelin/contracts/token/ERC1155/ERC1155.sol\":4251:4300  from != sender && !isApprovedForAll(from, sender) */\n      tag_159\n      jumpi\n      pop\n      sub(shl(0xa0, 0x01), 0x01)\n        /* \"@openzeppelin/contracts/token/ERC1155/ERC1155.sol\":3480:3507  _operatorApprovals[account] */\n      dup1\n      dup8\n      and\n        /* \"@openzeppelin/contracts/token/ERC1155/ERC1155.sol\":3457:3461  bool */\n      0x00\n        /* \"@openzeppelin/contracts/token/ERC1155/ERC1155.sol\":3480:3507  _operatorApprovals[account] */\n      swap1\n      dup2\n      mstore\n        /* \"@openzeppelin/contracts/token/ERC1155/ERC1155.sol\":3480:3498  _operatorApprovals */\n      0x01\n        /* \"@openzeppelin/contracts/token/ERC1155/ERC1155.sol\":3480:3507  _operatorApprovals[account] */\n      0x20\n      swap1\n      dup2\n      mstore\n      0x40\n      dup1\n      dup4\n      keccak256\n        /* \"@openzeppelin/contracts/token/ERC1155/ERC1155.sol\":3480:3517  _operatorApprovals[account][operator] */\n      swap4\n      dup6\n      and\n      dup4\n      mstore\n      swap3\n      swap1\n      mstore\n      keccak256\n      sload\n      0xff\n      and\n        /* \"@openzeppelin/contracts/token/ERC1155/ERC1155.sol\":4269:4300  !isApprovedForAll(from, sender) */\n      iszero\n        /* \"@openzeppelin/contracts/token/ERC1155/ERC1155.sol\":4251:4300  from != sender && !isApprovedForAll(from, sender) */\n    tag_159:\n        /* \"@openzeppelin/contracts/token/ERC1155/ERC1155.sol\":4247:4376  if (from != sender && !isApprovedForAll(from, sender)) {... */\n      iszero\n      tag_161\n      jumpi\n        /* \"@openzeppelin/contracts/token/ERC1155/ERC1155.sol\":4323:4365  ERC1155MissingApprovalForAll(sender, from) */\n      mload(0x40)\n      shl(0xe1, 0x711bec91)\n      dup2\n      mstore\n      sub(shl(0xa0, 0x01), 0x01)\n        /* \"#utility.yul\":12235:12250   */\n      dup1\n      dup4\n      and\n        /* \"@openzeppelin/contracts/token/ERC1155/ERC1155.sol\":4323:4365  ERC1155MissingApprovalForAll(sender, from) */\n      0x04\n      dup4\n      add\n        /* \"#utility.yul\":12217:12251   */\n      mstore\n        /* \"#utility.yul\":12287:12302   */\n      dup8\n      and\n        /* \"#utility.yul\":12267:12285   */\n      0x24\n      dup3\n      add\n        /* \"#utility.yul\":12260:12303   */\n      mstore\n        /* \"#utility.yul\":12129:12147   */\n      0x44\n      add\n        /* \"@openzeppelin/contracts/token/ERC1155/ERC1155.sol\":4323:4365  ERC1155MissingApprovalForAll(sender, from) */\n      tag_141\n        /* \"#utility.yul\":11982:12309   */\n      jump\n        /* \"@openzeppelin/contracts/token/ERC1155/ERC1155.sol\":4247:4376  if (from != sender && !isApprovedForAll(from, sender)) {... */\n    tag_161:\n        /* \"@openzeppelin/contracts/token/ERC1155/ERC1155.sol\":4385:4436  _safeBatchTransferFrom(from, to, ids, values, data) */\n      tag_164\n        /* \"@openzeppelin/contracts/token/ERC1155/ERC1155.sol\":4408:4412  from */\n      dup7\n        /* \"@openzeppelin/contracts/token/ERC1155/ERC1155.sol\":4414:4416  to */\n      dup7\n        /* \"@openzeppelin/contracts/token/ERC1155/ERC1155.sol\":4418:4421  ids */\n      dup7\n        /* \"@openzeppelin/contracts/token/ERC1155/ERC1155.sol\":4423:4429  values */\n      dup7\n        /* \"@openzeppelin/contracts/token/ERC1155/ERC1155.sol\":4431:4435  data */\n      dup7\n        /* \"@openzeppelin/contracts/token/ERC1155/ERC1155.sol\":4385:4407  _safeBatchTransferFrom */\n      tag_165\n        /* \"@openzeppelin/contracts/token/ERC1155/ERC1155.sol\":4385:4436  _safeBatchTransferFrom(from, to, ids, values, data) */\n      jump\t// in\n    tag_164:\n        /* \"@openzeppelin/contracts/token/ERC1155/ERC1155.sol\":4198:4443  {... */\n      pop\n        /* \"@openzeppelin/contracts/token/ERC1155/ERC1155.sol\":4014:4443  function safeBatchTransferFrom(... */\n      pop\n      pop\n      pop\n      pop\n      pop\n      jump\t// out\n        /* \"@openzeppelin/contracts/token/ERC1155/ERC1155.sol\":2536:3088  function balanceOfBatch(... */\n    tag_79:\n        /* \"@openzeppelin/contracts/token/ERC1155/ERC1155.sol\":2660:2676  uint256[] memory */\n      0x60\n        /* \"@openzeppelin/contracts/token/ERC1155/ERC1155.sol\":2711:2714  ids */\n      dup2\n        /* \"@openzeppelin/contracts/token/ERC1155/ERC1155.sol\":2711:2721  ids.length */\n      mload\n        /* \"@openzeppelin/contracts/token/ERC1155/ERC1155.sol\":2692:2700  accounts */\n      dup4\n        /* \"@openzeppelin/contracts/token/ERC1155/ERC1155.sol\":2692:2707  accounts.length */\n      mload\n        /* \"@openzeppelin/contracts/token/ERC1155/ERC1155.sol\":2692:2721  accounts.length != ids.length */\n      eq\n        /* \"@openzeppelin/contracts/token/ERC1155/ERC1155.sol\":2688:2809  if (accounts.length != ids.length) {... */\n      tag_167\n      jumpi\n        /* \"@openzeppelin/contracts/token/ERC1155/ERC1155.sol\":2770:2780  ids.length */\n      dup2\n      mload\n        /* \"@openzeppelin/contracts/token/ERC1155/ERC1155.sol\":2782:2797  accounts.length */\n      dup4\n      mload\n        /* \"@openzeppelin/contracts/token/ERC1155/ERC1155.sol\":2744:2798  ERC1155InvalidArrayLength(ids.length, accounts.length) */\n      mload(0x40)\n      shl(0xe0, 0x5b059991)\n      dup2\n      mstore\n      0x04\n      dup2\n      add\n        /* \"#utility.yul\":12488:12513   */\n      swap3\n      swap1\n      swap3\n      mstore\n        /* \"#utility.yul\":12529:12547   */\n      0x24\n      dup3\n      add\n        /* \"#utility.yul\":12522:12556   */\n      mstore\n        /* \"#utility.yul\":12461:12479   */\n      0x44\n      add\n        /* \"@openzeppelin/contracts/token/ERC1155/ERC1155.sol\":2744:2798  ERC1155InvalidArrayLength(ids.length, accounts.length) */\n      tag_141\n        /* \"#utility.yul\":12314:12562   */\n      jump\n        /* \"@openzeppelin/contracts/token/ERC1155/ERC1155.sol\":2688:2809  if (accounts.length != ids.length) {... */\n    tag_167:\n        /* \"@openzeppelin/contracts/token/ERC1155/ERC1155.sol\":2819:2849  uint256[] memory batchBalances */\n      0x00\n        /* \"@openzeppelin/contracts/token/ERC1155/ERC1155.sol\":2866:2874  accounts */\n      dup4\n        /* \"@openzeppelin/contracts/token/ERC1155/ERC1155.sol\":2866:2881  accounts.length */\n      mload\n        /* \"@openzeppelin/contracts/token/ERC1155/ERC1155.sol\":2852:2882  new uint256[](accounts.length) */\n      0xffffffffffffffff\n      dup2\n      gt\n      iszero\n      tag_171\n      jumpi\n      tag_171\n      tag_172\n      jump\t// in\n    tag_171:\n      mload(0x40)\n      swap1\n      dup1\n      dup3\n      mstore\n      dup1\n      0x20\n      mul\n      0x20\n      add\n      dup3\n      add\n      0x40\n      mstore\n      dup1\n      iszero\n      tag_173\n      jumpi\n      dup2\n      0x20\n      add\n      0x20\n      dup3\n      mul\n      dup1\n      calldatasize\n      dup4\n      calldatacopy\n      add\n      swap1\n      pop\n    tag_173:\n      pop\n        /* \"@openzeppelin/contracts/token/ERC1155/ERC1155.sol\":2819:2882  uint256[] memory batchBalances = new uint256[](accounts.length) */\n      swap1\n      pop\n        /* \"@openzeppelin/contracts/token/ERC1155/ERC1155.sol\":2898:2907  uint256 i */\n      0x00\n        /* \"@openzeppelin/contracts/token/ERC1155/ERC1155.sol\":2893:3051  for (uint256 i = 0; i < accounts.length; ++i) {... */\n    tag_174:\n        /* \"@openzeppelin/contracts/token/ERC1155/ERC1155.sol\":2917:2925  accounts */\n      dup5\n        /* \"@openzeppelin/contracts/token/ERC1155/ERC1155.sol\":2917:2932  accounts.length */\n      mload\n        /* \"@openzeppelin/contracts/token/ERC1155/ERC1155.sol\":2913:2914  i */\n      dup2\n        /* \"@openzeppelin/contracts/token/ERC1155/ERC1155.sol\":2913:2932  i < accounts.length */\n      lt\n        /* \"@openzeppelin/contracts/token/ERC1155/ERC1155.sol\":2893:3051  for (uint256 i = 0; i < accounts.length; ++i) {... */\n      iszero\n      tag_175\n      jumpi\n        /* \"@openzeppelin/contracts/utils/Arrays.sol\":4777:4781  0x20 */\n      0x20\n        /* \"@openzeppelin/contracts/utils/Arrays.sol\":4768:4782  mul(pos, 0x20) */\n      dup1\n      dup3\n      mul\n        /* \"@openzeppelin/contracts/utils/Arrays.sol\":4748:4783  add(add(arr, 0x20), mul(pos, 0x20)) */\n      dup7\n      add\n      add\n        /* \"@openzeppelin/contracts/utils/Arrays.sol\":4742:4784  mload(add(add(arr, 0x20), mul(pos, 0x20))) */\n      mload\n        /* \"@openzeppelin/contracts/token/ERC1155/ERC1155.sol\":2972:3040  balanceOf(accounts.unsafeMemoryAccess(i), ids.unsafeMemoryAccess(i)) */\n      tag_177\n      swap1\n        /* \"@openzeppelin/contracts/utils/Arrays.sol\":4777:4781  0x20 */\n      0x20\n        /* \"@openzeppelin/contracts/utils/Arrays.sol\":4768:4782  mul(pos, 0x20) */\n      dup1\n      dup5\n      mul\n        /* \"@openzeppelin/contracts/utils/Arrays.sol\":4748:4783  add(add(arr, 0x20), mul(pos, 0x20)) */\n      dup8\n      add\n      add\n        /* \"@openzeppelin/contracts/utils/Arrays.sol\":4742:4784  mload(add(add(arr, 0x20), mul(pos, 0x20))) */\n      mload\n        /* \"@openzeppelin/contracts/token/ERC1155/ERC1155.sol\":2247:2379  function balanceOf(address account, uint256 id) public view virtual returns (uint256) {... */\n      tag_36\n      jump\t// in\n        /* \"@openzeppelin/contracts/token/ERC1155/ERC1155.sol\":2972:3040  balanceOf(accounts.unsafeMemoryAccess(i), ids.unsafeMemoryAccess(i)) */\n    tag_177:\n        /* \"@openzeppelin/contracts/token/ERC1155/ERC1155.sol\":2953:2966  batchBalances */\n      dup3\n        /* \"@openzeppelin/contracts/token/ERC1155/ERC1155.sol\":2967:2968  i */\n      dup3\n        /* \"@openzeppelin/contracts/token/ERC1155/ERC1155.sol\":2953:2969  batchBalances[i] */\n      dup2\n      mload\n      dup2\n      lt\n      tag_183\n      jumpi\n      tag_183\n      tag_184\n      jump\t// in\n    tag_183:\n      0x20\n      swap1\n      dup2\n      mul\n      swap2\n      swap1\n      swap2\n      add\n      add\n        /* \"@openzeppelin/contracts/token/ERC1155/ERC1155.sol\":2953:3040  batchBalances[i] = balanceOf(accounts.unsafeMemoryAccess(i), ids.unsafeMemoryAccess(i)) */\n      mstore\n        /* \"@openzeppelin/contracts/token/ERC1155/ERC1155.sol\":2934:2937  ++i */\n      0x01\n      add\n        /* \"@openzeppelin/contracts/token/ERC1155/ERC1155.sol\":2893:3051  for (uint256 i = 0; i < accounts.length; ++i) {... */\n      jump(tag_174)\n    tag_175:\n      pop\n        /* \"@openzeppelin/contracts/token/ERC1155/ERC1155.sol\":3068:3081  batchBalances */\n      swap4\n        /* \"@openzeppelin/contracts/token/ERC1155/ERC1155.sol\":2536:3088  function balanceOfBatch(... */\n      swap3\n      pop\n      pop\n      pop\n      jump\t// out\n        /* \"module-3/ERC1155token.sol\":1425:1671  function burnBatch(address from, uint256[] memory ids, uint256[] memory amounts) public {... */\n    tag_85:\n        /* \"module-3/ERC1155token.sol\":1531:1541  msg.sender */\n      caller\n      sub(shl(0xa0, 0x01), 0x01)\n        /* \"module-3/ERC1155token.sol\":1531:1549  msg.sender == from */\n      dup5\n      and\n      eq\n      dup1\n        /* \"module-3/ERC1155token.sol\":1531:1587  msg.sender == from || isApprovedForAll(from, msg.sender) */\n      tag_187\n      jumpi\n      pop\n      sub(shl(0xa0, 0x01), 0x01)\n        /* \"@openzeppelin/contracts/token/ERC1155/ERC1155.sol\":3480:3507  _operatorApprovals[account] */\n      dup4\n      and\n        /* \"@openzeppelin/contracts/token/ERC1155/ERC1155.sol\":3457:3461  bool */\n      0x00\n        /* \"@openzeppelin/contracts/token/ERC1155/ERC1155.sol\":3480:3507  _operatorApprovals[account] */\n      swap1\n      dup2\n      mstore\n        /* \"@openzeppelin/contracts/token/ERC1155/ERC1155.sol\":3480:3498  _operatorApprovals */\n      0x01\n        /* \"@openzeppelin/contracts/token/ERC1155/ERC1155.sol\":3480:3507  _operatorApprovals[account] */\n      0x20\n      swap1\n      dup2\n      mstore\n      0x40\n      dup1\n      dup4\n      keccak256\n        /* \"module-3/ERC1155token.sol\":1576:1586  msg.sender */\n      caller\n        /* \"@openzeppelin/contracts/token/ERC1155/ERC1155.sol\":3480:3517  _operatorApprovals[account][operator] */\n      dup5\n      mstore\n      swap1\n      swap2\n      mstore\n      swap1\n      keccak256\n      sload\n      0xff\n      and\n        /* \"module-3/ERC1155token.sol\":1553:1587  isApprovedForAll(from, msg.sender) */\n    tag_187:\n        /* \"module-3/ERC1155token.sol\":1523:1624  require(msg.sender == from || isApprovedForAll(from, msg.sender), \"Caller is not owner nor approved\") */\n      tag_188\n      jumpi\n      mload(0x40)\n      shl(0xe5, 0x461bcd)\n      dup2\n      mstore\n        /* \"#utility.yul\":12958:12960   */\n      0x20\n        /* \"module-3/ERC1155token.sol\":1523:1624  require(msg.sender == from || isApprovedForAll(from, msg.sender), \"Caller is not owner nor approved\") */\n      0x04\n      dup3\n      add\n        /* \"#utility.yul\":12940:12961   */\n      dup2\n      swap1\n      mstore\n        /* \"#utility.yul\":12977:12995   */\n      0x24\n      dup3\n      add\n        /* \"#utility.yul\":12970:13000   */\n      mstore\n        /* \"#utility.yul\":13036:13070   */\n      0x43616c6c6572206973206e6f74206f776e6572206e6f7220617070726f766564\n        /* \"#utility.yul\":13016:13034   */\n      0x44\n      dup3\n      add\n        /* \"#utility.yul\":13009:13071   */\n      mstore\n        /* \"#utility.yul\":13088:13106   */\n      0x64\n      add\n        /* \"module-3/ERC1155token.sol\":1523:1624  require(msg.sender == from || isApprovedForAll(from, msg.sender), \"Caller is not owner nor approved\") */\n      tag_141\n        /* \"#utility.yul\":12756:13112   */\n      jump\n        /* \"module-3/ERC1155token.sol\":1523:1624  require(msg.sender == from || isApprovedForAll(from, msg.sender), \"Caller is not owner nor approved\") */\n    tag_188:\n        /* \"module-3/ERC1155token.sol\":1634:1664  _burnBatch(from, ids, amounts) */\n      tag_191\n        /* \"module-3/ERC1155token.sol\":1645:1649  from */\n      dup4\n        /* \"module-3/ERC1155token.sol\":1651:1654  ids */\n      dup4\n        /* \"module-3/ERC1155token.sol\":1656:1663  amounts */\n      dup4\n        /* \"module-3/ERC1155token.sol\":1634:1644  _burnBatch */\n      tag_192\n        /* \"module-3/ERC1155token.sol\":1634:1664  _burnBatch(from, ids, amounts) */\n      jump\t// in\n    tag_191:\n        /* \"module-3/ERC1155token.sol\":1425:1671  function burnBatch(address from, uint256[] memory ids, uint256[] memory amounts) public {... */\n      pop\n      pop\n      pop\n      jump\t// out\n        /* \"@openzeppelin/contracts/access/Ownable.sol\":2293:2394  function renounceOwnership() public virtual onlyOwner {... */\n    tag_87:\n        /* \"@openzeppelin/contracts/access/Ownable.sol\":1531:1544  _checkOwner() */\n      tag_194\n        /* \"@openzeppelin/contracts/access/Ownable.sol\":1531:1542  _checkOwner */\n      tag_152\n        /* \"@openzeppelin/contracts/access/Ownable.sol\":1531:1544  _checkOwner() */\n      jump\t// in\n    tag_194:\n        /* \"@openzeppelin/contracts/access/Ownable.sol\":2357:2387  _transferOwnership(address(0)) */\n      tag_196\n        /* \"@openzeppelin/contracts/access/Ownable.sol\":2384:2385  0 */\n      0x00\n        /* \"@openzeppelin/contracts/access/Ownable.sol\":2357:2375  _transferOwnership */\n      tag_197\n        /* \"@openzeppelin/contracts/access/Ownable.sol\":2357:2387  _transferOwnership(address(0)) */\n      jump\t// in\n    tag_196:\n        /* \"@openzeppelin/contracts/access/Ownable.sol\":2293:2394  function renounceOwnership() public virtual onlyOwner {... */\n      jump\t// out\n        /* \"@openzeppelin/contracts/token/ERC1155/ERC1155.sol\":3156:3300  function setApprovalForAll(address operator, bool approved) public virtual {... */\n    tag_98:\n        /* \"@openzeppelin/contracts/token/ERC1155/ERC1155.sol\":3241:3293  _setApprovalForAll(_msgSender(), operator, approved) */\n      tag_148\n        /* \"@openzeppelin/contracts/utils/Context.sol\":735:745  msg.sender */\n      caller\n        /* \"@openzeppelin/contracts/token/ERC1155/ERC1155.sol\":3274:3282  operator */\n      dup4\n        /* \"@openzeppelin/contracts/token/ERC1155/ERC1155.sol\":3284:3292  approved */\n      dup4\n        /* \"@openzeppelin/contracts/token/ERC1155/ERC1155.sol\":3241:3259  _setApprovalForAll */\n      tag_202\n        /* \"@openzeppelin/contracts/token/ERC1155/ERC1155.sol\":3241:3293  _setApprovalForAll(_msgSender(), operator, approved) */\n      jump\t// in\n        /* \"@openzeppelin/contracts/token/ERC1155/ERC1155.sol\":3591:3942  function safeTransferFrom(address from, address to, uint256 id, uint256 value, bytes memory data) public virtual {... */\n    tag_116:\n        /* \"@openzeppelin/contracts/utils/Context.sol\":735:745  msg.sender */\n      caller\n      sub(shl(0xa0, 0x01), 0x01)\n        /* \"@openzeppelin/contracts/token/ERC1155/ERC1155.sol\":3757:3771  from != sender */\n      dup7\n      and\n      dup2\n      eq\n      dup1\n      iszero\n      swap1\n        /* \"@openzeppelin/contracts/token/ERC1155/ERC1155.sol\":3757:3806  from != sender && !isApprovedForAll(from, sender) */\n      tag_206\n      jumpi\n      pop\n      sub(shl(0xa0, 0x01), 0x01)\n        /* \"@openzeppelin/contracts/token/ERC1155/ERC1155.sol\":3480:3507  _operatorApprovals[account] */\n      dup1\n      dup8\n      and\n        /* \"@openzeppelin/contracts/token/ERC1155/ERC1155.sol\":3457:3461  bool */\n      0x00\n        /* \"@openzeppelin/contracts/token/ERC1155/ERC1155.sol\":3480:3507  _operatorApprovals[account] */\n      swap1\n      dup2\n      mstore\n        /* \"@openzeppelin/contracts/token/ERC1155/ERC1155.sol\":3480:3498  _operatorApprovals */\n      0x01\n        /* \"@openzeppelin/contracts/token/ERC1155/ERC1155.sol\":3480:3507  _operatorApprovals[account] */\n      0x20\n      swap1\n      dup2\n      mstore\n      0x40\n      dup1\n      dup4\n      keccak256\n        /* \"@openzeppelin/contracts/token/ERC1155/ERC1155.sol\":3480:3517  _operatorApprovals[account][operator] */\n      swap4\n      dup6\n      and\n      dup4\n      mstore\n      swap3\n      swap1\n      mstore\n      keccak256\n      sload\n      0xff\n      and\n        /* \"@openzeppelin/contracts/token/ERC1155/ERC1155.sol\":3775:3806  !isApprovedForAll(from, sender) */\n      iszero\n        /* \"@openzeppelin/contracts/token/ERC1155/ERC1155.sol\":3757:3806  from != sender && !isApprovedForAll(from, sender) */\n    tag_206:\n        /* \"@openzeppelin/contracts/token/ERC1155/ERC1155.sol\":3753:3882  if (from != sender && !isApprovedForAll(from, sender)) {... */\n      iszero\n      tag_208\n      jumpi\n        /* \"@openzeppelin/contracts/token/ERC1155/ERC1155.sol\":3829:3871  ERC1155MissingApprovalForAll(sender, from) */\n      mload(0x40)\n      shl(0xe1, 0x711bec91)\n      dup2\n      mstore\n      sub(shl(0xa0, 0x01), 0x01)\n        /* \"#utility.yul\":12235:12250   */\n      dup1\n      dup4\n      and\n        /* \"@openzeppelin/contracts/token/ERC1155/ERC1155.sol\":3829:3871  ERC1155MissingApprovalForAll(sender, from) */\n      0x04\n      dup4\n      add\n        /* \"#utility.yul\":12217:12251   */\n      mstore\n        /* \"#utility.yul\":12287:12302   */\n      dup8\n      and\n        /* \"#utility.yul\":12267:12285   */\n      0x24\n      dup3\n      add\n        /* \"#utility.yul\":12260:12303   */\n      mstore\n        /* \"#utility.yul\":12129:12147   */\n      0x44\n      add\n        /* \"@openzeppelin/contracts/token/ERC1155/ERC1155.sol\":3829:3871  ERC1155MissingApprovalForAll(sender, from) */\n      tag_141\n        /* \"#utility.yul\":11982:12309   */\n      jump\n        /* \"@openzeppelin/contracts/token/ERC1155/ERC1155.sol\":3753:3882  if (from != sender && !isApprovedForAll(from, sender)) {... */\n    tag_208:\n        /* \"@openzeppelin/contracts/token/ERC1155/ERC1155.sol\":3891:3935  _safeTransferFrom(from, to, id, value, data) */\n      tag_164\n        /* \"@openzeppelin/contracts/token/ERC1155/ERC1155.sol\":3909:3913  from */\n      dup7\n        /* \"@openzeppelin/contracts/token/ERC1155/ERC1155.sol\":3915:3917  to */\n      dup7\n        /* \"@openzeppelin/contracts/token/ERC1155/ERC1155.sol\":3919:3921  id */\n      dup7\n        /* \"@openzeppelin/contracts/token/ERC1155/ERC1155.sol\":3923:3928  value */\n      dup7\n        /* \"@openzeppelin/contracts/token/ERC1155/ERC1155.sol\":3930:3934  data */\n      dup7\n        /* \"@openzeppelin/contracts/token/ERC1155/ERC1155.sol\":3891:3908  _safeTransferFrom */\n      tag_211\n        /* \"@openzeppelin/contracts/token/ERC1155/ERC1155.sol\":3891:3935  _safeTransferFrom(from, to, id, value, data) */\n      jump\t// in\n        /* \"@openzeppelin/contracts/access/Ownable.sol\":2543:2758  function transferOwnership(address newOwner) public virtual onlyOwner {... */\n    tag_120:\n        /* \"@openzeppelin/contracts/access/Ownable.sol\":1531:1544  _checkOwner() */\n      tag_213\n        /* \"@openzeppelin/contracts/access/Ownable.sol\":1531:1542  _checkOwner */\n      tag_152\n        /* \"@openzeppelin/contracts/access/Ownable.sol\":1531:1544  _checkOwner() */\n      jump\t// in\n    tag_213:\n      sub(shl(0xa0, 0x01), 0x01)\n        /* \"@openzeppelin/contracts/access/Ownable.sol\":2627:2649  newOwner == address(0) */\n      dup2\n      and\n        /* \"@openzeppelin/contracts/access/Ownable.sol\":2623:2714  if (newOwner == address(0)) {... */\n      tag_215\n      jumpi\n        /* \"@openzeppelin/contracts/access/Ownable.sol\":2672:2703  OwnableInvalidOwner(address(0)) */\n      mload(0x40)\n      0x1e4fbdf700000000000000000000000000000000000000000000000000000000\n      dup2\n      mstore\n        /* \"@openzeppelin/contracts/access/Ownable.sol\":2700:2701  0 */\n      0x00\n        /* \"@openzeppelin/contracts/access/Ownable.sol\":2672:2703  OwnableInvalidOwner(address(0)) */\n      0x04\n      dup3\n      add\n        /* \"#utility.yul\":8738:8812   */\n      mstore\n        /* \"#utility.yul\":8711:8729   */\n      0x24\n      add\n        /* \"@openzeppelin/contracts/access/Ownable.sol\":2672:2703  OwnableInvalidOwner(address(0)) */\n      tag_141\n        /* \"#utility.yul\":8592:8818   */\n      jump\n        /* \"@openzeppelin/contracts/access/Ownable.sol\":2623:2714  if (newOwner == address(0)) {... */\n    tag_215:\n        /* \"@openzeppelin/contracts/access/Ownable.sol\":2723:2751  _transferOwnership(newOwner) */\n      tag_217\n        /* \"@openzeppelin/contracts/access/Ownable.sol\":2742:2750  newOwner */\n      dup2\n        /* \"@openzeppelin/contracts/access/Ownable.sol\":2723:2741  _transferOwnership */\n      tag_197\n        /* \"@openzeppelin/contracts/access/Ownable.sol\":2723:2751  _transferOwnership(newOwner) */\n      jump\t// in\n    tag_217:\n        /* \"@openzeppelin/contracts/access/Ownable.sol\":2543:2758  function transferOwnership(address newOwner) public virtual onlyOwner {... */\n      pop\n      jump\t// out\n        /* \"module-3/ERC1155token.sol\":1205:1419  function burn(address from, uint256 id, uint256 amount) public {... */\n    tag_124:\n        /* \"module-3/ERC1155token.sol\":1286:1296  msg.sender */\n      caller\n      sub(shl(0xa0, 0x01), 0x01)\n        /* \"module-3/ERC1155token.sol\":1286:1304  msg.sender == from */\n      dup5\n      and\n      eq\n      dup1\n        /* \"module-3/ERC1155token.sol\":1286:1342  msg.sender == from || isApprovedForAll(from, msg.sender) */\n      tag_220\n      jumpi\n      pop\n      sub(shl(0xa0, 0x01), 0x01)\n        /* \"@openzeppelin/contracts/token/ERC1155/ERC1155.sol\":3480:3507  _operatorApprovals[account] */\n      dup4\n      and\n        /* \"@openzeppelin/contracts/token/ERC1155/ERC1155.sol\":3457:3461  bool */\n      0x00\n        /* \"@openzeppelin/contracts/token/ERC1155/ERC1155.sol\":3480:3507  _operatorApprovals[account] */\n      swap1\n      dup2\n      mstore\n        /* \"@openzeppelin/contracts/token/ERC1155/ERC1155.sol\":3480:3498  _operatorApprovals */\n      0x01\n        /* \"@openzeppelin/contracts/token/ERC1155/ERC1155.sol\":3480:3507  _operatorApprovals[account] */\n      0x20\n      swap1\n      dup2\n      mstore\n      0x40\n      dup1\n      dup4\n      keccak256\n        /* \"module-3/ERC1155token.sol\":1331:1341  msg.sender */\n      caller\n        /* \"@openzeppelin/contracts/token/ERC1155/ERC1155.sol\":3480:3517  _operatorApprovals[account][operator] */\n      dup5\n      mstore\n      swap1\n      swap2\n      mstore\n      swap1\n      keccak256\n      sload\n      0xff\n      and\n        /* \"module-3/ERC1155token.sol\":1308:1342  isApprovedForAll(from, msg.sender) */\n    tag_220:\n        /* \"module-3/ERC1155token.sol\":1278:1379  require(msg.sender == from || isApprovedForAll(from, msg.sender), \"Caller is not owner nor approved\") */\n      tag_221\n      jumpi\n      mload(0x40)\n      shl(0xe5, 0x461bcd)\n      dup2\n      mstore\n        /* \"#utility.yul\":12958:12960   */\n      0x20\n        /* \"module-3/ERC1155token.sol\":1278:1379  require(msg.sender == from || isApprovedForAll(from, msg.sender), \"Caller is not owner nor approved\") */\n      0x04\n      dup3\n      add\n        /* \"#utility.yul\":12940:12961   */\n      dup2\n      swap1\n      mstore\n        /* \"#utility.yul\":12977:12995   */\n      0x24\n      dup3\n      add\n        /* \"#utility.yul\":12970:13000   */\n      mstore\n        /* \"#utility.yul\":13036:13070   */\n      0x43616c6c6572206973206e6f74206f776e6572206e6f7220617070726f766564\n        /* \"#utility.yul\":13016:13034   */\n      0x44\n      dup3\n      add\n        /* \"#utility.yul\":13009:13071   */\n      mstore\n        /* \"#utility.yul\":13088:13106   */\n      0x64\n      add\n        /* \"module-3/ERC1155token.sol\":1278:1379  require(msg.sender == from || isApprovedForAll(from, msg.sender), \"Caller is not owner nor approved\") */\n      tag_141\n        /* \"#utility.yul\":12756:13112   */\n      jump\n        /* \"module-3/ERC1155token.sol\":1278:1379  require(msg.sender == from || isApprovedForAll(from, msg.sender), \"Caller is not owner nor approved\") */\n    tag_221:\n        /* \"module-3/ERC1155token.sol\":1389:1412  _burn(from, id, amount) */\n      tag_191\n        /* \"module-3/ERC1155token.sol\":1395:1399  from */\n      dup4\n        /* \"module-3/ERC1155token.sol\":1401:1403  id */\n      dup4\n        /* \"module-3/ERC1155token.sol\":1405:1411  amount */\n      dup4\n        /* \"module-3/ERC1155token.sol\":1389:1394  _burn */\n      tag_224\n        /* \"module-3/ERC1155token.sol\":1389:1412  _burn(from, id, amount) */\n      jump\t// in\n        /* \"@openzeppelin/contracts/token/ERC1155/ERC1155.sol\":10746:11092  function _mint(address to, uint256 id, uint256 value, bytes memory data) internal {... */\n    tag_149:\n      sub(shl(0xa0, 0x01), 0x01)\n        /* \"@openzeppelin/contracts/token/ERC1155/ERC1155.sol\":10842:10858  to == address(0) */\n      dup5\n      and\n        /* \"@openzeppelin/contracts/token/ERC1155/ERC1155.sol\":10838:10926  if (to == address(0)) {... */\n      tag_227\n      jumpi\n        /* \"@openzeppelin/contracts/token/ERC1155/ERC1155.sol\":10881:10915  ERC1155InvalidReceiver(address(0)) */\n      mload(0x40)\n      shl(0xe1, 0x2bfa23e7)\n      dup2\n      mstore\n        /* \"@openzeppelin/contracts/token/ERC1155/ERC1155.sol\":10912:10913  0 */\n      0x00\n        /* \"@openzeppelin/contracts/token/ERC1155/ERC1155.sol\":10881:10915  ERC1155InvalidReceiver(address(0)) */\n      0x04\n      dup3\n      add\n        /* \"#utility.yul\":8738:8812   */\n      mstore\n        /* \"#utility.yul\":8711:8729   */\n      0x24\n      add\n        /* \"@openzeppelin/contracts/token/ERC1155/ERC1155.sol\":10881:10915  ERC1155InvalidReceiver(address(0)) */\n      tag_141\n        /* \"#utility.yul\":8592:8818   */\n      jump\n        /* \"@openzeppelin/contracts/token/ERC1155/ERC1155.sol\":10838:10926  if (to == address(0)) {... */\n    tag_227:\n        /* \"@openzeppelin/contracts/token/ERC1155/ERC1155.sol\":16374:16378  0x40 */\n      0x40\n        /* \"@openzeppelin/contracts/token/ERC1155/ERC1155.sol\":16368:16379  mload(0x40) */\n      dup1\n      mload\n        /* \"@openzeppelin/contracts/token/ERC1155/ERC1155.sol\":16444:16445  1 */\n      0x01\n        /* \"@openzeppelin/contracts/token/ERC1155/ERC1155.sol\":16429:16446  mstore(array1, 1) */\n      dup1\n      dup3\n      mstore\n        /* \"@openzeppelin/contracts/token/ERC1155/ERC1155.sol\":16575:16579  0x20 */\n      0x20\n        /* \"@openzeppelin/contracts/token/ERC1155/ERC1155.sol\":16563:16580  add(array1, 0x20) */\n      dup3\n      add\n        /* \"@openzeppelin/contracts/token/ERC1155/ERC1155.sol\":16556:16591  mstore(add(array1, 0x20), element1) */\n      dup7\n      swap1\n      mstore\n        /* \"@openzeppelin/contracts/token/ERC1155/ERC1155.sol\":16692:16709  add(array1, 0x40) */\n      dup2\n      dup4\n      add\n        /* \"@openzeppelin/contracts/token/ERC1155/ERC1155.sol\":16722:16739  mstore(array2, 1) */\n      swap1\n      dup2\n      mstore\n        /* \"@openzeppelin/contracts/token/ERC1155/ERC1155.sol\":16188:16211  uint256[] memory array1 */\n      0x60\n        /* \"@openzeppelin/contracts/token/ERC1155/ERC1155.sol\":16759:16776  add(array2, 0x20) */\n      dup3\n      add\n        /* \"@openzeppelin/contracts/token/ERC1155/ERC1155.sol\":16752:16787  mstore(add(array2, 0x20), element2) */\n      dup6\n      swap1\n      mstore\n        /* \"@openzeppelin/contracts/token/ERC1155/ERC1155.sol\":16895:16912  add(array2, 0x40) */\n      0x80\n      dup3\n      add\n        /* \"@openzeppelin/contracts/token/ERC1155/ERC1155.sol\":16882:16913  mstore(0x40, add(array2, 0x40)) */\n      swap1\n      swap3\n      mstore\n        /* \"@openzeppelin/contracts/token/ERC1155/ERC1155.sol\":16368:16379  mload(0x40) */\n      swap1\n        /* \"@openzeppelin/contracts/token/ERC1155/ERC1155.sol\":11024:11085  _updateWithAcceptanceCheck(address(0), to, ids, values, data) */\n      tag_164\n      0x00\n        /* \"@openzeppelin/contracts/token/ERC1155/ERC1155.sol\":11063:11065  to */\n      dup8\n        /* \"@openzeppelin/contracts/token/ERC1155/ERC1155.sol\":16368:16379  mload(0x40) */\n      dup5\n        /* \"@openzeppelin/contracts/token/ERC1155/ERC1155.sol\":16692:16709  add(array1, 0x40) */\n      dup5\n        /* \"@openzeppelin/contracts/token/ERC1155/ERC1155.sol\":11080:11084  data */\n      dup8\n        /* \"@openzeppelin/contracts/token/ERC1155/ERC1155.sol\":11024:11050  _updateWithAcceptanceCheck */\n      tag_232\n        /* \"@openzeppelin/contracts/token/ERC1155/ERC1155.sol\":11024:11085  _updateWithAcceptanceCheck(address(0), to, ids, values, data) */\n      jump\t// in\n        /* \"@openzeppelin/contracts/access/Ownable.sol\":1796:1958  function _checkOwner() internal view virtual {... */\n    tag_152:\n        /* \"@openzeppelin/contracts/access/Ownable.sol\":1710:1716  _owner */\n      and(sub(shl(0xa0, 0x01), 0x01), sload(0x03))\n        /* \"@openzeppelin/contracts/utils/Context.sol\":735:745  msg.sender */\n      caller\n        /* \"@openzeppelin/contracts/access/Ownable.sol\":1855:1878  owner() != _msgSender() */\n      eq\n        /* \"@openzeppelin/contracts/access/Ownable.sol\":1851:1952  if (owner() != _msgSender()) {... */\n      tag_196\n      jumpi\n        /* \"@openzeppelin/contracts/access/Ownable.sol\":1901:1941  OwnableUnauthorizedAccount(_msgSender()) */\n      mload(0x40)\n      0x118cdaa700000000000000000000000000000000000000000000000000000000\n      dup2\n      mstore\n        /* \"@openzeppelin/contracts/utils/Context.sol\":735:745  msg.sender */\n      caller\n        /* \"@openzeppelin/contracts/access/Ownable.sol\":1901:1941  OwnableUnauthorizedAccount(_msgSender()) */\n      0x04\n      dup3\n      add\n        /* \"#utility.yul\":8738:8812   */\n      mstore\n        /* \"#utility.yul\":8711:8729   */\n      0x24\n      add\n        /* \"@openzeppelin/contracts/access/Ownable.sol\":1901:1941  OwnableUnauthorizedAccount(_msgSender()) */\n      tag_141\n        /* \"#utility.yul\":8592:8818   */\n      jump\n        /* \"@openzeppelin/contracts/token/ERC1155/ERC1155.sol\":11523:11805  function _mintBatch(address to, uint256[] memory ids, uint256[] memory values, bytes memory data) internal {... */\n    tag_155:\n      sub(shl(0xa0, 0x01), 0x01)\n        /* \"@openzeppelin/contracts/token/ERC1155/ERC1155.sol\":11644:11660  to == address(0) */\n      dup5\n      and\n        /* \"@openzeppelin/contracts/token/ERC1155/ERC1155.sol\":11640:11728  if (to == address(0)) {... */\n      tag_240\n      jumpi\n        /* \"@openzeppelin/contracts/token/ERC1155/ERC1155.sol\":11683:11717  ERC1155InvalidReceiver(address(0)) */\n      mload(0x40)\n      shl(0xe1, 0x2bfa23e7)\n      dup2\n      mstore\n        /* \"@openzeppelin/contracts/token/ERC1155/ERC1155.sol\":11714:11715  0 */\n      0x00\n        /* \"@openzeppelin/contracts/token/ERC1155/ERC1155.sol\":11683:11717  ERC1155InvalidReceiver(address(0)) */\n      0x04\n      dup3\n      add\n        /* \"#utility.yul\":8738:8812   */\n      mstore\n        /* \"#utility.yul\":8711:8729   */\n      0x24\n      add\n        /* \"@openzeppelin/contracts/token/ERC1155/ERC1155.sol\":11683:11717  ERC1155InvalidReceiver(address(0)) */\n      tag_141\n        /* \"#utility.yul\":8592:8818   */\n      jump\n        /* \"@openzeppelin/contracts/token/ERC1155/ERC1155.sol\":11640:11728  if (to == address(0)) {... */\n    tag_240:\n        /* \"@openzeppelin/contracts/token/ERC1155/ERC1155.sol\":11737:11798  _updateWithAcceptanceCheck(address(0), to, ids, values, data) */\n      tag_154\n        /* \"@openzeppelin/contracts/token/ERC1155/ERC1155.sol\":11772:11773  0 */\n      0x00\n        /* \"@openzeppelin/contracts/token/ERC1155/ERC1155.sol\":11776:11778  to */\n      dup6\n        /* \"@openzeppelin/contracts/token/ERC1155/ERC1155.sol\":11780:11783  ids */\n      dup6\n        /* \"@openzeppelin/contracts/token/ERC1155/ERC1155.sol\":11785:11791  values */\n      dup6\n        /* \"@openzeppelin/contracts/token/ERC1155/ERC1155.sol\":11793:11797  data */\n      dup6\n        /* \"@openzeppelin/contracts/token/ERC1155/ERC1155.sol\":11737:11763  _updateWithAcceptanceCheck */\n      tag_232\n        /* \"@openzeppelin/contracts/token/ERC1155/ERC1155.sol\":11737:11798  _updateWithAcceptanceCheck(address(0), to, ids, values, data) */\n      jump\t// in\n        /* \"@openzeppelin/contracts/token/ERC1155/ERC1155.sol\":9015:9460  function _safeBatchTransferFrom(... */\n    tag_165:\n      sub(shl(0xa0, 0x01), 0x01)\n        /* \"@openzeppelin/contracts/token/ERC1155/ERC1155.sol\":9208:9224  to == address(0) */\n      dup5\n      and\n        /* \"@openzeppelin/contracts/token/ERC1155/ERC1155.sol\":9204:9292  if (to == address(0)) {... */\n      tag_245\n      jumpi\n        /* \"@openzeppelin/contracts/token/ERC1155/ERC1155.sol\":9247:9281  ERC1155InvalidReceiver(address(0)) */\n      mload(0x40)\n      shl(0xe1, 0x2bfa23e7)\n      dup2\n      mstore\n        /* \"@openzeppelin/contracts/token/ERC1155/ERC1155.sol\":9278:9279  0 */\n      0x00\n        /* \"@openzeppelin/contracts/token/ERC1155/ERC1155.sol\":9247:9281  ERC1155InvalidReceiver(address(0)) */\n      0x04\n      dup3\n      add\n        /* \"#utility.yul\":8738:8812   */\n      mstore\n        /* \"#utility.yul\":8711:8729   */\n      0x24\n      add\n        /* \"@openzeppelin/contracts/token/ERC1155/ERC1155.sol\":9247:9281  ERC1155InvalidReceiver(address(0)) */\n      tag_141\n        /* \"#utility.yul\":8592:8818   */\n      jump\n        /* \"@openzeppelin/contracts/token/ERC1155/ERC1155.sol\":9204:9292  if (to == address(0)) {... */\n    tag_245:\n      sub(shl(0xa0, 0x01), 0x01)\n        /* \"@openzeppelin/contracts/token/ERC1155/ERC1155.sol\":9305:9323  from == address(0) */\n      dup6\n      and\n        /* \"@openzeppelin/contracts/token/ERC1155/ERC1155.sol\":9301:9389  if (from == address(0)) {... */\n      tag_247\n      jumpi\n        /* \"@openzeppelin/contracts/token/ERC1155/ERC1155.sol\":9346:9378  ERC1155InvalidSender(address(0)) */\n      mload(0x40)\n      shl(0xe2, 0x6a0d45)\n      dup2\n      mstore\n        /* \"@openzeppelin/contracts/token/ERC1155/ERC1155.sol\":9375:9376  0 */\n      0x00\n        /* \"@openzeppelin/contracts/token/ERC1155/ERC1155.sol\":9346:9378  ERC1155InvalidSender(address(0)) */\n      0x04\n      dup3\n      add\n        /* \"#utility.yul\":8738:8812   */\n      mstore\n        /* \"#utility.yul\":8711:8729   */\n      0x24\n      add\n        /* \"@openzeppelin/contracts/token/ERC1155/ERC1155.sol\":9346:9378  ERC1155InvalidSender(address(0)) */\n      tag_141\n        /* \"#utility.yul\":8592:8818   */\n      jump\n        /* \"@openzeppelin/contracts/token/ERC1155/ERC1155.sol\":9301:9389  if (from == address(0)) {... */\n    tag_247:\n        /* \"@openzeppelin/contracts/token/ERC1155/ERC1155.sol\":9398:9453  _updateWithAcceptanceCheck(from, to, ids, values, data) */\n      tag_249\n        /* \"@openzeppelin/contracts/token/ERC1155/ERC1155.sol\":9425:9429  from */\n      dup6\n        /* \"@openzeppelin/contracts/token/ERC1155/ERC1155.sol\":9431:9433  to */\n      dup6\n        /* \"@openzeppelin/contracts/token/ERC1155/ERC1155.sol\":9435:9438  ids */\n      dup6\n        /* \"@openzeppelin/contracts/token/ERC1155/ERC1155.sol\":9440:9446  values */\n      dup6\n        /* \"@openzeppelin/contracts/token/ERC1155/ERC1155.sol\":9448:9452  data */\n      dup6\n        /* \"@openzeppelin/contracts/token/ERC1155/ERC1155.sol\":9398:9424  _updateWithAcceptanceCheck */\n      tag_232\n        /* \"@openzeppelin/contracts/token/ERC1155/ERC1155.sol\":9398:9453  _updateWithAcceptanceCheck(from, to, ids, values, data) */\n      jump\t// in\n    tag_249:\n        /* \"@openzeppelin/contracts/token/ERC1155/ERC1155.sol\":9015:9460  function _safeBatchTransferFrom(... */\n      pop\n      pop\n      pop\n      pop\n      pop\n      jump\t// out\n        /* \"@openzeppelin/contracts/token/ERC1155/ERC1155.sol\":12784:13049  function _burnBatch(address from, uint256[] memory ids, uint256[] memory values) internal {... */\n    tag_192:\n      sub(shl(0xa0, 0x01), 0x01)\n        /* \"@openzeppelin/contracts/token/ERC1155/ERC1155.sol\":12888:12906  from == address(0) */\n      dup4\n      and\n        /* \"@openzeppelin/contracts/token/ERC1155/ERC1155.sol\":12884:12972  if (from == address(0)) {... */\n      tag_253\n      jumpi\n        /* \"@openzeppelin/contracts/token/ERC1155/ERC1155.sol\":12929:12961  ERC1155InvalidSender(address(0)) */\n      mload(0x40)\n      shl(0xe2, 0x6a0d45)\n      dup2\n      mstore\n        /* \"@openzeppelin/contracts/token/ERC1155/ERC1155.sol\":12958:12959  0 */\n      0x00\n        /* \"@openzeppelin/contracts/token/ERC1155/ERC1155.sol\":12929:12961  ERC1155InvalidSender(address(0)) */\n      0x04\n      dup3\n      add\n        /* \"#utility.yul\":8738:8812   */\n      mstore\n        /* \"#utility.yul\":8711:8729   */\n      0x24\n      add\n        /* \"@openzeppelin/contracts/token/ERC1155/ERC1155.sol\":12929:12961  ERC1155InvalidSender(address(0)) */\n      tag_141\n        /* \"#utility.yul\":8592:8818   */\n      jump\n        /* \"@openzeppelin/contracts/token/ERC1155/ERC1155.sol\":12884:12972  if (from == address(0)) {... */\n    tag_253:\n        /* \"@openzeppelin/contracts/token/ERC1155/ERC1155.sol\":12981:13042  _updateWithAcceptanceCheck(from, address(0), ids, values, \"\") */\n      tag_191\n        /* \"@openzeppelin/contracts/token/ERC1155/ERC1155.sol\":13008:13012  from */\n      dup4\n        /* \"@openzeppelin/contracts/token/ERC1155/ERC1155.sol\":13022:13023  0 */\n      0x00\n        /* \"@openzeppelin/contracts/token/ERC1155/ERC1155.sol\":13026:13029  ids */\n      dup5\n        /* \"@openzeppelin/contracts/token/ERC1155/ERC1155.sol\":13031:13037  values */\n      dup5\n        /* \"@openzeppelin/contracts/token/ERC1155/ERC1155.sol\":12981:13042  _updateWithAcceptanceCheck(from, address(0), ids, values, \"\") */\n      mload(0x40)\n      dup1\n      0x20\n      add\n      0x40\n      mstore\n      dup1\n      0x00\n      dup2\n      mstore\n      pop\n        /* \"@openzeppelin/contracts/token/ERC1155/ERC1155.sol\":12981:13007  _updateWithAcceptanceCheck */\n      tag_232\n        /* \"@openzeppelin/contracts/token/ERC1155/ERC1155.sol\":12981:13042  _updateWithAcceptanceCheck(from, address(0), ids, values, \"\") */\n      jump\t// in\n        /* \"@openzeppelin/contracts/access/Ownable.sol\":2912:3099  function _transferOwnership(address newOwner) internal virtual {... */\n    tag_197:\n        /* \"@openzeppelin/contracts/access/Ownable.sol\":3004:3010  _owner */\n      0x03\n      dup1\n      sload\n      sub(shl(0xa0, 0x01), 0x01)\n        /* \"@openzeppelin/contracts/access/Ownable.sol\":3020:3037  _owner = newOwner */\n      dup4\n      dup2\n      and\n      0xffffffffffffffffffffffff0000000000000000000000000000000000000000\n      dup4\n      and\n      dup2\n      or\n      swap1\n      swap4\n      sstore\n        /* \"@openzeppelin/contracts/access/Ownable.sol\":3052:3092  OwnershipTransferred(oldOwner, newOwner) */\n      mload(0x40)\n        /* \"@openzeppelin/contracts/access/Ownable.sol\":3004:3010  _owner */\n      swap2\n      and\n      swap2\n        /* \"@openzeppelin/contracts/access/Ownable.sol\":3020:3037  _owner = newOwner */\n      swap1\n        /* \"@openzeppelin/contracts/access/Ownable.sol\":3004:3010  _owner */\n      dup3\n      swap1\n        /* \"@openzeppelin/contracts/access/Ownable.sol\":3052:3092  OwnershipTransferred(oldOwner, newOwner) */\n      0x8be0079c531659141344cd1fd0a4f28419497f9722a3daafe3b4186f6b6457e0\n      swap1\n        /* \"@openzeppelin/contracts/access/Ownable.sol\":2985:3001  address oldOwner */\n      0x00\n      swap1\n        /* \"@openzeppelin/contracts/access/Ownable.sol\":3052:3092  OwnershipTransferred(oldOwner, newOwner) */\n      log3\n        /* \"@openzeppelin/contracts/access/Ownable.sol\":2975:3099  {... */\n      pop\n        /* \"@openzeppelin/contracts/access/Ownable.sol\":2912:3099  function _transferOwnership(address newOwner) internal virtual {... */\n      pop\n      jump\t// out\n        /* \"@openzeppelin/contracts/token/ERC1155/ERC1155.sol\":13268:13583  function _setApprovalForAll(address owner, address operator, bool approved) internal virtual {... */\n    tag_202:\n      sub(shl(0xa0, 0x01), 0x01)\n        /* \"@openzeppelin/contracts/token/ERC1155/ERC1155.sol\":13375:13397  operator == address(0) */\n      dup3\n      and\n        /* \"@openzeppelin/contracts/token/ERC1155/ERC1155.sol\":13371:13465  if (operator == address(0)) {... */\n      tag_258\n      jumpi\n        /* \"@openzeppelin/contracts/token/ERC1155/ERC1155.sol\":13420:13454  ERC1155InvalidOperator(address(0)) */\n      mload(0x40)\n      0xced3e10000000000000000000000000000000000000000000000000000000000\n      dup2\n      mstore\n        /* \"@openzeppelin/contracts/token/ERC1155/ERC1155.sol\":13451:13452  0 */\n      0x00\n        /* \"@openzeppelin/contracts/token/ERC1155/ERC1155.sol\":13420:13454  ERC1155InvalidOperator(address(0)) */\n      0x04\n      dup3\n      add\n        /* \"#utility.yul\":8738:8812   */\n      mstore\n        /* \"#utility.yul\":8711:8729   */\n      0x24\n      add\n        /* \"@openzeppelin/contracts/token/ERC1155/ERC1155.sol\":13420:13454  ERC1155InvalidOperator(address(0)) */\n      tag_141\n        /* \"#utility.yul\":8592:8818   */\n      jump\n        /* \"@openzeppelin/contracts/token/ERC1155/ERC1155.sol\":13371:13465  if (operator == address(0)) {... */\n    tag_258:\n      sub(shl(0xa0, 0x01), 0x01)\n        /* \"@openzeppelin/contracts/token/ERC1155/ERC1155.sol\":13474:13499  _operatorApprovals[owner] */\n      dup4\n      dup2\n      and\n      0x00\n      dup2\n      dup2\n      mstore\n        /* \"@openzeppelin/contracts/token/ERC1155/ERC1155.sol\":13474:13492  _operatorApprovals */\n      0x01\n        /* \"@openzeppelin/contracts/token/ERC1155/ERC1155.sol\":13474:13499  _operatorApprovals[owner] */\n      0x20\n      swap1\n      dup2\n      mstore\n      0x40\n      dup1\n      dup4\n      keccak256\n        /* \"@openzeppelin/contracts/token/ERC1155/ERC1155.sol\":13474:13509  _operatorApprovals[owner][operator] */\n      swap5\n      dup8\n      and\n      dup1\n      dup5\n      mstore\n      swap5\n      dup3\n      mstore\n      swap2\n      dup3\n      swap1\n      keccak256\n        /* \"@openzeppelin/contracts/token/ERC1155/ERC1155.sol\":13474:13520  _operatorApprovals[owner][operator] = approved */\n      dup1\n      sload\n      not(0xff)\n      and\n      dup7\n      iszero\n      iszero\n      swap1\n      dup2\n      or\n      swap1\n      swap2\n      sstore\n        /* \"@openzeppelin/contracts/token/ERC1155/ERC1155.sol\":13535:13576  ApprovalForAll(owner, operator, approved) */\n      swap2\n      mload\n        /* \"#utility.yul\":1228:1269   */\n      swap2\n      dup3\n      mstore\n        /* \"@openzeppelin/contracts/token/ERC1155/ERC1155.sol\":13535:13576  ApprovalForAll(owner, operator, approved) */\n      0x17307eab39ab6107e8899845ad3d59bd9653f200f220920489ca2b5937696c31\n      swap2\n        /* \"#utility.yul\":1201:1219   */\n      add\n        /* \"@openzeppelin/contracts/token/ERC1155/ERC1155.sol\":13535:13576  ApprovalForAll(owner, operator, approved) */\n      mload(0x40)\n      dup1\n      swap2\n      sub\n      swap1\n      log3\n        /* \"@openzeppelin/contracts/token/ERC1155/ERC1155.sol\":13268:13583  function _setApprovalForAll(address owner, address operator, bool approved) internal virtual {... */\n      pop\n      pop\n      pop\n      jump\t// out\n        /* \"@openzeppelin/contracts/token/ERC1155/ERC1155.sol\":8151:8614  function _safeTransferFrom(address from, address to, uint256 id, uint256 value, bytes memory data) internal {... */\n    tag_211:\n      sub(shl(0xa0, 0x01), 0x01)\n        /* \"@openzeppelin/contracts/token/ERC1155/ERC1155.sol\":8273:8289  to == address(0) */\n      dup5\n      and\n        /* \"@openzeppelin/contracts/token/ERC1155/ERC1155.sol\":8269:8357  if (to == address(0)) {... */\n      tag_262\n      jumpi\n        /* \"@openzeppelin/contracts/token/ERC1155/ERC1155.sol\":8312:8346  ERC1155InvalidReceiver(address(0)) */\n      mload(0x40)\n      shl(0xe1, 0x2bfa23e7)\n      dup2\n      mstore\n        /* \"@openzeppelin/contracts/token/ERC1155/ERC1155.sol\":8343:8344  0 */\n      0x00\n        /* \"@openzeppelin/contracts/token/ERC1155/ERC1155.sol\":8312:8346  ERC1155InvalidReceiver(address(0)) */\n      0x04\n      dup3\n      add\n        /* \"#utility.yul\":8738:8812   */\n      mstore\n        /* \"#utility.yul\":8711:8729   */\n      0x24\n      add\n        /* \"@openzeppelin/contracts/token/ERC1155/ERC1155.sol\":8312:8346  ERC1155InvalidReceiver(address(0)) */\n      tag_141\n        /* \"#utility.yul\":8592:8818   */\n      jump\n        /* \"@openzeppelin/contracts/token/ERC1155/ERC1155.sol\":8269:8357  if (to == address(0)) {... */\n    tag_262:\n      sub(shl(0xa0, 0x01), 0x01)\n        /* \"@openzeppelin/contracts/token/ERC1155/ERC1155.sol\":8370:8388  from == address(0) */\n      dup6\n      and\n        /* \"@openzeppelin/contracts/token/ERC1155/ERC1155.sol\":8366:8454  if (from == address(0)) {... */\n      tag_264\n      jumpi\n        /* \"@openzeppelin/contracts/token/ERC1155/ERC1155.sol\":8411:8443  ERC1155InvalidSender(address(0)) */\n      mload(0x40)\n      shl(0xe2, 0x6a0d45)\n      dup2\n      mstore\n        /* \"@openzeppelin/contracts/token/ERC1155/ERC1155.sol\":8440:8441  0 */\n      0x00\n        /* \"@openzeppelin/contracts/token/ERC1155/ERC1155.sol\":8411:8443  ERC1155InvalidSender(address(0)) */\n      0x04\n      dup3\n      add\n        /* \"#utility.yul\":8738:8812   */\n      mstore\n        /* \"#utility.yul\":8711:8729   */\n      0x24\n      add\n        /* \"@openzeppelin/contracts/token/ERC1155/ERC1155.sol\":8411:8443  ERC1155InvalidSender(address(0)) */\n      tag_141\n        /* \"#utility.yul\":8592:8818   */\n      jump\n        /* \"@openzeppelin/contracts/token/ERC1155/ERC1155.sol\":8366:8454  if (from == address(0)) {... */\n    tag_264:\n        /* \"@openzeppelin/contracts/token/ERC1155/ERC1155.sol\":16374:16378  0x40 */\n      0x40\n        /* \"@openzeppelin/contracts/token/ERC1155/ERC1155.sol\":16368:16379  mload(0x40) */\n      dup1\n      mload\n        /* \"@openzeppelin/contracts/token/ERC1155/ERC1155.sol\":16444:16445  1 */\n      0x01\n        /* \"@openzeppelin/contracts/token/ERC1155/ERC1155.sol\":16429:16446  mstore(array1, 1) */\n      dup1\n      dup3\n      mstore\n        /* \"@openzeppelin/contracts/token/ERC1155/ERC1155.sol\":16575:16579  0x20 */\n      0x20\n        /* \"@openzeppelin/contracts/token/ERC1155/ERC1155.sol\":16563:16580  add(array1, 0x20) */\n      dup3\n      add\n        /* \"@openzeppelin/contracts/token/ERC1155/ERC1155.sol\":16556:16591  mstore(add(array1, 0x20), element1) */\n      dup7\n      swap1\n      mstore\n        /* \"@openzeppelin/contracts/token/ERC1155/ERC1155.sol\":16692:16709  add(array1, 0x40) */\n      dup2\n      dup4\n      add\n        /* \"@openzeppelin/contracts/token/ERC1155/ERC1155.sol\":16722:16739  mstore(array2, 1) */\n      swap1\n      dup2\n      mstore\n        /* \"@openzeppelin/contracts/token/ERC1155/ERC1155.sol\":16188:16211  uint256[] memory array1 */\n      0x60\n        /* \"@openzeppelin/contracts/token/ERC1155/ERC1155.sol\":16759:16776  add(array2, 0x20) */\n      dup3\n      add\n        /* \"@openzeppelin/contracts/token/ERC1155/ERC1155.sol\":16752:16787  mstore(add(array2, 0x20), element2) */\n      dup6\n      swap1\n      mstore\n        /* \"@openzeppelin/contracts/token/ERC1155/ERC1155.sol\":16895:16912  add(array2, 0x40) */\n      0x80\n      dup3\n      add\n        /* \"@openzeppelin/contracts/token/ERC1155/ERC1155.sol\":16882:16913  mstore(0x40, add(array2, 0x40)) */\n      swap1\n      swap3\n      mstore\n        /* \"@openzeppelin/contracts/token/ERC1155/ERC1155.sol\":16368:16379  mload(0x40) */\n      swap1\n        /* \"@openzeppelin/contracts/token/ERC1155/ERC1155.sol\":8552:8607  _updateWithAcceptanceCheck(from, to, ids, values, data) */\n      tag_267\n        /* \"@openzeppelin/contracts/token/ERC1155/ERC1155.sol\":8579:8583  from */\n      dup8\n        /* \"@openzeppelin/contracts/token/ERC1155/ERC1155.sol\":8585:8587  to */\n      dup8\n        /* \"@openzeppelin/contracts/token/ERC1155/ERC1155.sol\":16368:16379  mload(0x40) */\n      dup5\n        /* \"@openzeppelin/contracts/token/ERC1155/ERC1155.sol\":16692:16709  add(array1, 0x40) */\n      dup5\n        /* \"@openzeppelin/contracts/token/ERC1155/ERC1155.sol\":8602:8606  data */\n      dup8\n        /* \"@openzeppelin/contracts/token/ERC1155/ERC1155.sol\":8552:8578  _updateWithAcceptanceCheck */\n      tag_232\n        /* \"@openzeppelin/contracts/token/ERC1155/ERC1155.sol\":8552:8607  _updateWithAcceptanceCheck(from, to, ids, values, data) */\n      jump\t// in\n    tag_267:\n        /* \"@openzeppelin/contracts/token/ERC1155/ERC1155.sol\":8259:8614  {... */\n      pop\n      pop\n        /* \"@openzeppelin/contracts/token/ERC1155/ERC1155.sol\":8151:8614  function _safeTransferFrom(address from, address to, uint256 id, uint256 value, bytes memory data) internal {... */\n      pop\n      pop\n      pop\n      pop\n      pop\n      jump\t// out\n        /* \"@openzeppelin/contracts/token/ERC1155/ERC1155.sol\":12099:12428  function _burn(address from, uint256 id, uint256 value) internal {... */\n    tag_224:\n      sub(shl(0xa0, 0x01), 0x01)\n        /* \"@openzeppelin/contracts/token/ERC1155/ERC1155.sol\":12178:12196  from == address(0) */\n      dup4\n      and\n        /* \"@openzeppelin/contracts/token/ERC1155/ERC1155.sol\":12174:12262  if (from == address(0)) {... */\n      tag_269\n      jumpi\n        /* \"@openzeppelin/contracts/token/ERC1155/ERC1155.sol\":12219:12251  ERC1155InvalidSender(address(0)) */\n      mload(0x40)\n      shl(0xe2, 0x6a0d45)\n      dup2\n      mstore\n        /* \"@openzeppelin/contracts/token/ERC1155/ERC1155.sol\":12248:12249  0 */\n      0x00\n        /* \"@openzeppelin/contracts/token/ERC1155/ERC1155.sol\":12219:12251  ERC1155InvalidSender(address(0)) */\n      0x04\n      dup3\n      add\n        /* \"#utility.yul\":8738:8812   */\n      mstore\n        /* \"#utility.yul\":8711:8729   */\n      0x24\n      add\n        /* \"@openzeppelin/contracts/token/ERC1155/ERC1155.sol\":12219:12251  ERC1155InvalidSender(address(0)) */\n      tag_141\n        /* \"#utility.yul\":8592:8818   */\n      jump\n        /* \"@openzeppelin/contracts/token/ERC1155/ERC1155.sol\":12174:12262  if (from == address(0)) {... */\n    tag_269:\n        /* \"@openzeppelin/contracts/token/ERC1155/ERC1155.sol\":16374:16378  0x40 */\n      0x40\n        /* \"@openzeppelin/contracts/token/ERC1155/ERC1155.sol\":16368:16379  mload(0x40) */\n      dup1\n      mload\n        /* \"@openzeppelin/contracts/token/ERC1155/ERC1155.sol\":16444:16445  1 */\n      0x01\n        /* \"@openzeppelin/contracts/token/ERC1155/ERC1155.sol\":16429:16446  mstore(array1, 1) */\n      dup1\n      dup3\n      mstore\n        /* \"@openzeppelin/contracts/token/ERC1155/ERC1155.sol\":16575:16579  0x20 */\n      0x20\n        /* \"@openzeppelin/contracts/token/ERC1155/ERC1155.sol\":16563:16580  add(array1, 0x20) */\n      dup3\n      add\n        /* \"@openzeppelin/contracts/token/ERC1155/ERC1155.sol\":16556:16591  mstore(add(array1, 0x20), element1) */\n      dup6\n      swap1\n      mstore\n        /* \"@openzeppelin/contracts/token/ERC1155/ERC1155.sol\":16692:16709  add(array1, 0x40) */\n      dup2\n      dup4\n      add\n        /* \"@openzeppelin/contracts/token/ERC1155/ERC1155.sol\":16722:16739  mstore(array2, 1) */\n      swap1\n      dup2\n      mstore\n        /* \"@openzeppelin/contracts/token/ERC1155/ERC1155.sol\":16188:16211  uint256[] memory array1 */\n      0x60\n        /* \"@openzeppelin/contracts/token/ERC1155/ERC1155.sol\":16759:16776  add(array2, 0x20) */\n      dup3\n      add\n        /* \"@openzeppelin/contracts/token/ERC1155/ERC1155.sol\":16752:16787  mstore(add(array2, 0x20), element2) */\n      dup5\n      swap1\n      mstore\n        /* \"@openzeppelin/contracts/token/ERC1155/ERC1155.sol\":12360:12421  _updateWithAcceptanceCheck(from, address(0), ids, values, \"\") */\n      0xa0\n      dup3\n      add\n      swap1\n      swap3\n      mstore\n      0x00\n        /* \"@openzeppelin/contracts/token/ERC1155/ERC1155.sol\":16895:16912  add(array2, 0x40) */\n      0x80\n      dup3\n      add\n        /* \"@openzeppelin/contracts/token/ERC1155/ERC1155.sol\":12360:12421  _updateWithAcceptanceCheck(from, address(0), ids, values, \"\") */\n      dup2\n      dup2\n      mstore\n        /* \"@openzeppelin/contracts/token/ERC1155/ERC1155.sol\":16368:16379  mload(0x40) */\n      swap2\n      swap3\n        /* \"@openzeppelin/contracts/token/ERC1155/ERC1155.sol\":16692:16709  add(array1, 0x40) */\n      swap2\n        /* \"@openzeppelin/contracts/token/ERC1155/ERC1155.sol\":12360:12421  _updateWithAcceptanceCheck(from, address(0), ids, values, \"\") */\n      tag_249\n      swap2\n        /* \"@openzeppelin/contracts/token/ERC1155/ERC1155.sol\":12387:12391  from */\n      dup8\n      swap2\n        /* \"@openzeppelin/contracts/token/ERC1155/ERC1155.sol\":16368:16379  mload(0x40) */\n      dup6\n      swap1\n        /* \"@openzeppelin/contracts/token/ERC1155/ERC1155.sol\":16692:16709  add(array1, 0x40) */\n      dup6\n      swap1\n        /* \"@openzeppelin/contracts/token/ERC1155/ERC1155.sol\":7004:7694  function _updateWithAcceptanceCheck(... */\n    tag_232:\n        /* \"@openzeppelin/contracts/token/ERC1155/ERC1155.sol\":7205:7235  _update(from, to, ids, values) */\n      tag_275\n        /* \"@openzeppelin/contracts/token/ERC1155/ERC1155.sol\":7213:7217  from */\n      dup6\n        /* \"@openzeppelin/contracts/token/ERC1155/ERC1155.sol\":7219:7221  to */\n      dup6\n        /* \"@openzeppelin/contracts/token/ERC1155/ERC1155.sol\":7223:7226  ids */\n      dup6\n        /* \"@openzeppelin/contracts/token/ERC1155/ERC1155.sol\":7228:7234  values */\n      dup6\n        /* \"@openzeppelin/contracts/token/ERC1155/ERC1155.sol\":7205:7212  _update */\n      tag_276\n        /* \"@openzeppelin/contracts/token/ERC1155/ERC1155.sol\":7205:7235  _update(from, to, ids, values) */\n      jump\t// in\n    tag_275:\n      sub(shl(0xa0, 0x01), 0x01)\n        /* \"@openzeppelin/contracts/token/ERC1155/ERC1155.sol\":7249:7265  to != address(0) */\n      dup5\n      and\n      iszero\n        /* \"@openzeppelin/contracts/token/ERC1155/ERC1155.sol\":7245:7688  if (to != address(0)) {... */\n      tag_249\n      jumpi\n        /* \"@openzeppelin/contracts/token/ERC1155/ERC1155.sol\":7330:7340  ids.length */\n      dup3\n      mload\n        /* \"@openzeppelin/contracts/utils/Context.sol\":735:745  msg.sender */\n      caller\n      swap1\n        /* \"@openzeppelin/contracts/token/ERC1155/ERC1155.sol\":7344:7345  1 */\n      0x01\n        /* \"@openzeppelin/contracts/token/ERC1155/ERC1155.sol\":7330:7345  ids.length == 1 */\n      sub\n        /* \"@openzeppelin/contracts/token/ERC1155/ERC1155.sol\":7326:7678  if (ids.length == 1) {... */\n      tag_279\n      jumpi\n        /* \"@openzeppelin/contracts/utils/Arrays.sol\":4777:4781  0x20 */\n      0x20\n        /* \"@openzeppelin/contracts/utils/Arrays.sol\":4748:4783  add(add(arr, 0x20), mul(pos, 0x20)) */\n      dup5\n      dup2\n      add\n        /* \"@openzeppelin/contracts/utils/Arrays.sol\":4742:4784  mload(add(add(arr, 0x20), mul(pos, 0x20))) */\n      mload\n        /* \"@openzeppelin/contracts/utils/Arrays.sol\":4748:4783  add(add(arr, 0x20), mul(pos, 0x20)) */\n      swap1\n      dup5\n      add\n        /* \"@openzeppelin/contracts/utils/Arrays.sol\":4742:4784  mload(add(add(arr, 0x20), mul(pos, 0x20))) */\n      mload\n        /* \"@openzeppelin/contracts/token/ERC1155/ERC1155.sol\":7483:7550  _doSafeTransferAcceptanceCheck(operator, from, to, id, value, data) */\n      tag_282\n        /* \"@openzeppelin/contracts/token/ERC1155/ERC1155.sol\":7514:7522  operator */\n      dup4\n        /* \"@openzeppelin/contracts/token/ERC1155/ERC1155.sol\":7524:7528  from */\n      dup10\n        /* \"@openzeppelin/contracts/token/ERC1155/ERC1155.sol\":7530:7532  to */\n      dup10\n        /* \"@openzeppelin/contracts/utils/Arrays.sol\":4742:4784  mload(add(add(arr, 0x20), mul(pos, 0x20))) */\n      dup6\n      dup6\n        /* \"@openzeppelin/contracts/token/ERC1155/ERC1155.sol\":7545:7549  data */\n      dup10\n        /* \"@openzeppelin/contracts/token/ERC1155/ERC1155.sol\":7483:7513  _doSafeTransferAcceptanceCheck */\n      tag_283\n        /* \"@openzeppelin/contracts/token/ERC1155/ERC1155.sol\":7483:7550  _doSafeTransferAcceptanceCheck(operator, from, to, id, value, data) */\n      jump\t// in\n    tag_282:\n        /* \"@openzeppelin/contracts/token/ERC1155/ERC1155.sol\":7347:7565  {... */\n      pop\n      pop\n        /* \"@openzeppelin/contracts/token/ERC1155/ERC1155.sol\":7326:7678  if (ids.length == 1) {... */\n      jump(tag_164)\n    tag_279:\n        /* \"@openzeppelin/contracts/token/ERC1155/ERC1155.sol\":7589:7663  _doSafeBatchTransferAcceptanceCheck(operator, from, to, ids, values, data) */\n      tag_164\n        /* \"@openzeppelin/contracts/token/ERC1155/ERC1155.sol\":7625:7633  operator */\n      dup2\n        /* \"@openzeppelin/contracts/token/ERC1155/ERC1155.sol\":7635:7639  from */\n      dup8\n        /* \"@openzeppelin/contracts/token/ERC1155/ERC1155.sol\":7641:7643  to */\n      dup8\n        /* \"@openzeppelin/contracts/token/ERC1155/ERC1155.sol\":7645:7648  ids */\n      dup8\n        /* \"@openzeppelin/contracts/token/ERC1155/ERC1155.sol\":7650:7656  values */\n      dup8\n        /* \"@openzeppelin/contracts/token/ERC1155/ERC1155.sol\":7658:7662  data */\n      dup8\n        /* \"@openzeppelin/contracts/token/ERC1155/ERC1155.sol\":7589:7624  _doSafeBatchTransferAcceptanceCheck */\n      tag_286\n        /* \"@openzeppelin/contracts/token/ERC1155/ERC1155.sol\":7589:7663  _doSafeBatchTransferAcceptanceCheck(operator, from, to, ids, values, data) */\n      jump\t// in\n        /* \"@openzeppelin/contracts/token/ERC1155/ERC1155.sol\":5144:6425  function _update(address from, address to, uint256[] memory ids, uint256[] memory values) internal virtual {... */\n    tag_276:\n        /* \"@openzeppelin/contracts/token/ERC1155/ERC1155.sol\":5279:5285  values */\n      dup1\n        /* \"@openzeppelin/contracts/token/ERC1155/ERC1155.sol\":5279:5292  values.length */\n      mload\n        /* \"@openzeppelin/contracts/token/ERC1155/ERC1155.sol\":5265:5268  ids */\n      dup3\n        /* \"@openzeppelin/contracts/token/ERC1155/ERC1155.sol\":5265:5275  ids.length */\n      mload\n        /* \"@openzeppelin/contracts/token/ERC1155/ERC1155.sol\":5265:5292  ids.length != values.length */\n      eq\n        /* \"@openzeppelin/contracts/token/ERC1155/ERC1155.sol\":5261:5378  if (ids.length != values.length) {... */\n      tag_288\n      jumpi\n        /* \"@openzeppelin/contracts/token/ERC1155/ERC1155.sol\":5341:5351  ids.length */\n      dup2\n      mload\n        /* \"@openzeppelin/contracts/token/ERC1155/ERC1155.sol\":5353:5366  values.length */\n      dup2\n      mload\n        /* \"@openzeppelin/contracts/token/ERC1155/ERC1155.sol\":5315:5367  ERC1155InvalidArrayLength(ids.length, values.length) */\n      mload(0x40)\n      shl(0xe0, 0x5b059991)\n      dup2\n      mstore\n      0x04\n      dup2\n      add\n        /* \"#utility.yul\":12488:12513   */\n      swap3\n      swap1\n      swap3\n      mstore\n        /* \"#utility.yul\":12529:12547   */\n      0x24\n      dup3\n      add\n        /* \"#utility.yul\":12522:12556   */\n      mstore\n        /* \"#utility.yul\":12461:12479   */\n      0x44\n      add\n        /* \"@openzeppelin/contracts/token/ERC1155/ERC1155.sol\":5315:5367  ERC1155InvalidArrayLength(ids.length, values.length) */\n      tag_141\n        /* \"#utility.yul\":12314:12562   */\n      jump\n        /* \"@openzeppelin/contracts/token/ERC1155/ERC1155.sol\":5261:5378  if (ids.length != values.length) {... */\n    tag_288:\n        /* \"@openzeppelin/contracts/utils/Context.sol\":735:745  msg.sender */\n      caller\n        /* \"@openzeppelin/contracts/token/ERC1155/ERC1155.sol\":5388:5404  address operator */\n      0x00\n        /* \"@openzeppelin/contracts/token/ERC1155/ERC1155.sol\":5430:6121  for (uint256 i = 0; i < ids.length; ++i) {... */\n    tag_291:\n        /* \"@openzeppelin/contracts/token/ERC1155/ERC1155.sol\":5454:5457  ids */\n      dup4\n        /* \"@openzeppelin/contracts/token/ERC1155/ERC1155.sol\":5454:5464  ids.length */\n      mload\n        /* \"@openzeppelin/contracts/token/ERC1155/ERC1155.sol\":5450:5451  i */\n      dup2\n        /* \"@openzeppelin/contracts/token/ERC1155/ERC1155.sol\":5450:5464  i < ids.length */\n      lt\n        /* \"@openzeppelin/contracts/token/ERC1155/ERC1155.sol\":5430:6121  for (uint256 i = 0; i < ids.length; ++i) {... */\n      iszero\n      tag_292\n      jumpi\n        /* \"@openzeppelin/contracts/utils/Arrays.sol\":4777:4781  0x20 */\n      0x20\n        /* \"@openzeppelin/contracts/utils/Arrays.sol\":4768:4782  mul(pos, 0x20) */\n      dup2\n      dup2\n      mul\n        /* \"@openzeppelin/contracts/utils/Arrays.sol\":4748:4783  add(add(arr, 0x20), mul(pos, 0x20)) */\n      dup6\n      dup2\n      add\n      dup3\n      add\n        /* \"@openzeppelin/contracts/utils/Arrays.sol\":4742:4784  mload(add(add(arr, 0x20), mul(pos, 0x20))) */\n      mload\n        /* \"@openzeppelin/contracts/utils/Arrays.sol\":4748:4783  add(add(arr, 0x20), mul(pos, 0x20)) */\n      swap1\n      dup6\n      add\n      swap1\n      swap2\n      add\n        /* \"@openzeppelin/contracts/utils/Arrays.sol\":4742:4784  mload(add(add(arr, 0x20), mul(pos, 0x20))) */\n      mload\n      sub(shl(0xa0, 0x01), 0x01)\n        /* \"@openzeppelin/contracts/token/ERC1155/ERC1155.sol\":5600:5618  from != address(0) */\n      dup9\n      and\n      iszero\n        /* \"@openzeppelin/contracts/token/ERC1155/ERC1155.sol\":5596:6016  if (from != address(0)) {... */\n      tag_296\n      jumpi\n        /* \"@openzeppelin/contracts/token/ERC1155/ERC1155.sol\":5638:5657  uint256 fromBalance */\n      0x00\n        /* \"@openzeppelin/contracts/token/ERC1155/ERC1155.sol\":5660:5673  _balances[id] */\n      dup3\n      dup2\n      mstore\n      0x20\n      dup2\n      dup2\n      mstore\n      0x40\n      dup1\n      dup4\n      keccak256\n      sub(shl(0xa0, 0x01), 0x01)\n        /* \"@openzeppelin/contracts/token/ERC1155/ERC1155.sol\":5660:5679  _balances[id][from] */\n      dup13\n      and\n      dup5\n      mstore\n      swap1\n      swap2\n      mstore\n      swap1\n      keccak256\n      sload\n        /* \"@openzeppelin/contracts/token/ERC1155/ERC1155.sol\":5701:5720  fromBalance < value */\n      dup2\n      dup2\n      lt\n        /* \"@openzeppelin/contracts/token/ERC1155/ERC1155.sol\":5697:5826  if (fromBalance < value) {... */\n      iszero\n      tag_297\n      jumpi\n        /* \"@openzeppelin/contracts/token/ERC1155/ERC1155.sol\":5751:5807  ERC1155InsufficientBalance(from, fromBalance, value, id) */\n      mload(0x40)\n      0x03dee4c500000000000000000000000000000000000000000000000000000000\n      dup2\n      mstore\n      sub(shl(0xa0, 0x01), 0x01)\n        /* \"#utility.yul\":13366:13421   */\n      dup11\n      and\n        /* \"@openzeppelin/contracts/token/ERC1155/ERC1155.sol\":5751:5807  ERC1155InsufficientBalance(from, fromBalance, value, id) */\n      0x04\n      dup3\n      add\n        /* \"#utility.yul\":13348:13422   */\n      mstore\n        /* \"#utility.yul\":13438:13456   */\n      0x24\n      dup2\n      add\n        /* \"#utility.yul\":13431:13465   */\n      dup3\n      swap1\n      mstore\n        /* \"#utility.yul\":13481:13499   */\n      0x44\n      dup2\n      add\n        /* \"#utility.yul\":13474:13508   */\n      dup4\n      swap1\n      mstore\n        /* \"#utility.yul\":13524:13542   */\n      0x64\n      dup2\n      add\n        /* \"#utility.yul\":13517:13551   */\n      dup5\n      swap1\n      mstore\n        /* \"#utility.yul\":13320:13339   */\n      0x84\n      add\n        /* \"@openzeppelin/contracts/token/ERC1155/ERC1155.sol\":5751:5807  ERC1155InsufficientBalance(from, fromBalance, value, id) */\n      tag_141\n        /* \"#utility.yul\":13117:13557   */\n      jump\n        /* \"@openzeppelin/contracts/token/ERC1155/ERC1155.sol\":5697:5826  if (fromBalance < value) {... */\n    tag_297:\n        /* \"@openzeppelin/contracts/token/ERC1155/ERC1155.sol\":5942:5951  _balances */\n      0x00\n        /* \"@openzeppelin/contracts/token/ERC1155/ERC1155.sol\":5942:5955  _balances[id] */\n      dup4\n      dup2\n      mstore\n      0x20\n      dup2\n      dup2\n      mstore\n      0x40\n      dup1\n      dup4\n      keccak256\n      sub(shl(0xa0, 0x01), 0x01)\n        /* \"@openzeppelin/contracts/token/ERC1155/ERC1155.sol\":5942:5961  _balances[id][from] */\n      dup14\n      and\n      dup5\n      mstore\n      swap1\n      swap2\n      mstore\n      swap1\n      keccak256\n        /* \"@openzeppelin/contracts/token/ERC1155/ERC1155.sol\":5964:5983  fromBalance - value */\n      swap1\n      dup3\n      swap1\n      sub\n        /* \"@openzeppelin/contracts/token/ERC1155/ERC1155.sol\":5942:5983  _balances[id][from] = fromBalance - value */\n      swap1\n      sstore\n        /* \"@openzeppelin/contracts/token/ERC1155/ERC1155.sol\":5596:6016  if (from != address(0)) {... */\n    tag_296:\n      sub(shl(0xa0, 0x01), 0x01)\n        /* \"@openzeppelin/contracts/token/ERC1155/ERC1155.sol\":6034:6050  to != address(0) */\n      dup8\n      and\n      iszero\n        /* \"@openzeppelin/contracts/token/ERC1155/ERC1155.sol\":6030:6111  if (to != address(0)) {... */\n      tag_300\n      jumpi\n        /* \"@openzeppelin/contracts/token/ERC1155/ERC1155.sol\":6070:6079  _balances */\n      0x00\n        /* \"@openzeppelin/contracts/token/ERC1155/ERC1155.sol\":6070:6083  _balances[id] */\n      dup3\n      dup2\n      mstore\n      0x20\n      dup2\n      dup2\n      mstore\n      0x40\n      dup1\n      dup4\n      keccak256\n      sub(shl(0xa0, 0x01), 0x01)\n        /* \"@openzeppelin/contracts/token/ERC1155/ERC1155.sol\":6070:6087  _balances[id][to] */\n      dup12\n      and\n      dup5\n      mstore\n      swap1\n      swap2\n      mstore\n      dup2\n      keccak256\n        /* \"@openzeppelin/contracts/token/ERC1155/ERC1155.sol\":6070:6096  _balances[id][to] += value */\n      dup1\n      sload\n        /* \"@openzeppelin/contracts/token/ERC1155/ERC1155.sol\":6091:6096  value */\n      dup4\n      swap3\n        /* \"@openzeppelin/contracts/token/ERC1155/ERC1155.sol\":6070:6079  _balances */\n      swap1\n        /* \"@openzeppelin/contracts/token/ERC1155/ERC1155.sol\":6070:6096  _balances[id][to] += value */\n      tag_301\n      swap1\n        /* \"@openzeppelin/contracts/token/ERC1155/ERC1155.sol\":6091:6096  value */\n      dup5\n      swap1\n        /* \"@openzeppelin/contracts/token/ERC1155/ERC1155.sol\":6070:6096  _balances[id][to] += value */\n      tag_144\n      jump\t// in\n    tag_301:\n      swap1\n      swap2\n      sstore\n      pop\n      pop\n        /* \"@openzeppelin/contracts/token/ERC1155/ERC1155.sol\":6030:6111  if (to != address(0)) {... */\n    tag_300:\n      pop\n      pop\n        /* \"@openzeppelin/contracts/token/ERC1155/ERC1155.sol\":5466:5469  ++i */\n      0x01\n      add\n        /* \"@openzeppelin/contracts/token/ERC1155/ERC1155.sol\":5430:6121  for (uint256 i = 0; i < ids.length; ++i) {... */\n      jump(tag_291)\n    tag_292:\n      pop\n        /* \"@openzeppelin/contracts/token/ERC1155/ERC1155.sol\":6135:6138  ids */\n      dup3\n        /* \"@openzeppelin/contracts/token/ERC1155/ERC1155.sol\":6135:6145  ids.length */\n      mload\n        /* \"@openzeppelin/contracts/token/ERC1155/ERC1155.sol\":6149:6150  1 */\n      0x01\n        /* \"@openzeppelin/contracts/token/ERC1155/ERC1155.sol\":6135:6150  ids.length == 1 */\n      sub\n        /* \"@openzeppelin/contracts/token/ERC1155/ERC1155.sol\":6131:6419  if (ids.length == 1) {... */\n      tag_302\n      jumpi\n        /* \"@openzeppelin/contracts/utils/Arrays.sol\":4777:4781  0x20 */\n      0x20\n        /* \"@openzeppelin/contracts/utils/Arrays.sol\":4748:4783  add(add(arr, 0x20), mul(pos, 0x20)) */\n      dup4\n      add\n        /* \"@openzeppelin/contracts/utils/Arrays.sol\":4742:4784  mload(add(add(arr, 0x20), mul(pos, 0x20))) */\n      mload\n        /* \"@openzeppelin/contracts/token/ERC1155/ERC1155.sol\":6166:6176  uint256 id */\n      0x00\n      swap1\n        /* \"@openzeppelin/contracts/utils/Arrays.sol\":4777:4781  0x20 */\n      0x20\n        /* \"@openzeppelin/contracts/utils/Arrays.sol\":4748:4783  add(add(arr, 0x20), mul(pos, 0x20)) */\n      dup5\n      add\n        /* \"@openzeppelin/contracts/utils/Arrays.sol\":4742:4784  mload(add(add(arr, 0x20), mul(pos, 0x20))) */\n      mload\n        /* \"@openzeppelin/contracts/token/ERC1155/ERC1155.sol\":6166:6204  uint256 id = ids.unsafeMemoryAccess(0) */\n      swap1\n      swap2\n      pop\n        /* \"@openzeppelin/contracts/token/ERC1155/ERC1155.sol\":6312:6314  to */\n      dup6\n      sub(shl(0xa0, 0x01), 0x01)\n        /* \"@openzeppelin/contracts/token/ERC1155/ERC1155.sol\":6281:6326  TransferSingle(operator, from, to, id, value) */\n      and\n        /* \"@openzeppelin/contracts/token/ERC1155/ERC1155.sol\":6306:6310  from */\n      dup8\n      sub(shl(0xa0, 0x01), 0x01)\n        /* \"@openzeppelin/contracts/token/ERC1155/ERC1155.sol\":6281:6326  TransferSingle(operator, from, to, id, value) */\n      and\n        /* \"@openzeppelin/contracts/token/ERC1155/ERC1155.sol\":6296:6304  operator */\n      dup5\n      sub(shl(0xa0, 0x01), 0x01)\n        /* \"@openzeppelin/contracts/token/ERC1155/ERC1155.sol\":6281:6326  TransferSingle(operator, from, to, id, value) */\n      and\n      0xc3d58168c5ae7397731d063d5bbf3d657854427343f4c083240f7aacaa2d0f62\n        /* \"@openzeppelin/contracts/token/ERC1155/ERC1155.sol\":6316:6318  id */\n      dup6\n        /* \"@openzeppelin/contracts/token/ERC1155/ERC1155.sol\":6320:6325  value */\n      dup6\n        /* \"@openzeppelin/contracts/token/ERC1155/ERC1155.sol\":6281:6326  TransferSingle(operator, from, to, id, value) */\n      mload(0x40)\n      tag_305\n      swap3\n      swap2\n      swap1\n        /* \"#utility.yul\":12488:12513   */\n      swap2\n      dup3\n      mstore\n        /* \"#utility.yul\":12544:12546   */\n      0x20\n        /* \"#utility.yul\":12529:12547   */\n      dup3\n      add\n        /* \"#utility.yul\":12522:12556   */\n      mstore\n        /* \"#utility.yul\":12476:12478   */\n      0x40\n        /* \"#utility.yul\":12461:12479   */\n      add\n      swap1\n        /* \"#utility.yul\":12314:12562   */\n      jump\n        /* \"@openzeppelin/contracts/token/ERC1155/ERC1155.sol\":6281:6326  TransferSingle(operator, from, to, id, value) */\n    tag_305:\n      mload(0x40)\n      dup1\n      swap2\n      sub\n      swap1\n      log4\n        /* \"@openzeppelin/contracts/token/ERC1155/ERC1155.sol\":6152:6337  {... */\n      pop\n      pop\n        /* \"@openzeppelin/contracts/token/ERC1155/ERC1155.sol\":6131:6419  if (ids.length == 1) {... */\n      jump(tag_249)\n    tag_302:\n        /* \"@openzeppelin/contracts/token/ERC1155/ERC1155.sol\":6392:6394  to */\n      dup4\n      sub(shl(0xa0, 0x01), 0x01)\n        /* \"@openzeppelin/contracts/token/ERC1155/ERC1155.sol\":6362:6408  TransferBatch(operator, from, to, ids, values) */\n      and\n        /* \"@openzeppelin/contracts/token/ERC1155/ERC1155.sol\":6386:6390  from */\n      dup6\n      sub(shl(0xa0, 0x01), 0x01)\n        /* \"@openzeppelin/contracts/token/ERC1155/ERC1155.sol\":6362:6408  TransferBatch(operator, from, to, ids, values) */\n      and\n        /* \"@openzeppelin/contracts/token/ERC1155/ERC1155.sol\":6376:6384  operator */\n      dup3\n      sub(shl(0xa0, 0x01), 0x01)\n        /* \"@openzeppelin/contracts/token/ERC1155/ERC1155.sol\":6362:6408  TransferBatch(operator, from, to, ids, values) */\n      and\n      0x4a39dc06d4c0dbc64b70af90fd698a233a518aa5d07e595d983b8c0526c8f7fb\n        /* \"@openzeppelin/contracts/token/ERC1155/ERC1155.sol\":6396:6399  ids */\n      dup7\n        /* \"@openzeppelin/contracts/token/ERC1155/ERC1155.sol\":6401:6407  values */\n      dup7\n        /* \"@openzeppelin/contracts/token/ERC1155/ERC1155.sol\":6362:6408  TransferBatch(operator, from, to, ids, values) */\n      mload(0x40)\n      tag_307\n      swap3\n      swap2\n      swap1\n      tag_308\n      jump\t// in\n    tag_307:\n      mload(0x40)\n      dup1\n      swap2\n      sub\n      swap1\n      log4\n        /* \"@openzeppelin/contracts/token/ERC1155/ERC1155.sol\":5251:6425  {... */\n      pop\n        /* \"@openzeppelin/contracts/token/ERC1155/ERC1155.sol\":5144:6425  function _update(address from, address to, uint256[] memory ids, uint256[] memory values) internal virtual {... */\n      pop\n      pop\n      pop\n      pop\n      jump\t// out\n        /* \"@openzeppelin/contracts/token/ERC1155/ERC1155.sol\":13761:14735  function _doSafeTransferAcceptanceCheck(... */\n    tag_283:\n      sub(shl(0xa0, 0x01), 0x01)\n        /* \"@openzeppelin/contracts/token/ERC1155/ERC1155.sol\":13967:13981  to.code.length */\n      dup5\n      and\n      extcodesize\n        /* \"@openzeppelin/contracts/token/ERC1155/ERC1155.sol\":13967:13985  to.code.length > 0 */\n      iszero\n        /* \"@openzeppelin/contracts/token/ERC1155/ERC1155.sol\":13963:14729  if (to.code.length > 0) {... */\n      tag_164\n      jumpi\n        /* \"@openzeppelin/contracts/token/ERC1155/ERC1155.sol\":14005:14076  IERC1155Receiver(to).onERC1155Received(operator, from, id, value, data) */\n      mload(0x40)\n      shl(0xe0, 0xf23a6e61)\n      dup2\n      mstore\n      sub(shl(0xa0, 0x01), 0x01)\n        /* \"@openzeppelin/contracts/token/ERC1155/ERC1155.sol\":14005:14043  IERC1155Receiver(to).onERC1155Received */\n      dup6\n      and\n      swap1\n      0xf23a6e61\n      swap1\n        /* \"@openzeppelin/contracts/token/ERC1155/ERC1155.sol\":14005:14076  IERC1155Receiver(to).onERC1155Received(operator, from, id, value, data) */\n      tag_311\n      swap1\n        /* \"@openzeppelin/contracts/token/ERC1155/ERC1155.sol\":14044:14052  operator */\n      dup10\n      swap1\n        /* \"@openzeppelin/contracts/token/ERC1155/ERC1155.sol\":14054:14058  from */\n      dup10\n      swap1\n        /* \"@openzeppelin/contracts/token/ERC1155/ERC1155.sol\":14060:14062  id */\n      dup9\n      swap1\n        /* \"@openzeppelin/contracts/token/ERC1155/ERC1155.sol\":14064:14069  value */\n      dup9\n      swap1\n        /* \"@openzeppelin/contracts/token/ERC1155/ERC1155.sol\":14071:14075  data */\n      dup9\n      swap1\n        /* \"@openzeppelin/contracts/token/ERC1155/ERC1155.sol\":14005:14076  IERC1155Receiver(to).onERC1155Received(operator, from, id, value, data) */\n      0x04\n      add\n      tag_312\n      jump\t// in\n    tag_311:\n      0x20\n      mload(0x40)\n      dup1\n      dup4\n      sub\n      dup2\n      0x00\n      dup8\n      gas\n      call\n      swap3\n      pop\n      pop\n      pop\n      dup1\n      iszero\n      tag_313\n      jumpi\n      pop\n      0x40\n      dup1\n      mload\n      0x1f\n      returndatasize\n      swap1\n      dup2\n      add\n      not(0x1f)\n      and\n      dup3\n      add\n      swap1\n      swap3\n      mstore\n      tag_314\n      swap2\n      dup2\n      add\n      swap1\n      tag_315\n      jump\t// in\n    tag_314:\n      0x01\n    tag_313:\n        /* \"@openzeppelin/contracts/token/ERC1155/ERC1155.sol\":14001:14719  try IERC1155Receiver(to).onERC1155Received(operator, from, id, value, data) returns (bytes4 response) {... */\n      tag_316\n      jumpi\n      returndatasize\n      dup1\n      dup1\n      iszero\n      tag_321\n      jumpi\n      mload(0x40)\n      swap2\n      pop\n      and(add(returndatasize, 0x3f), not(0x1f))\n      dup3\n      add\n      0x40\n      mstore\n      returndatasize\n      dup3\n      mstore\n      returndatasize\n      0x00\n      0x20\n      dup5\n      add\n      returndatacopy\n      jump(tag_320)\n    tag_321:\n      0x60\n      swap2\n      pop\n    tag_320:\n      pop\n        /* \"@openzeppelin/contracts/token/ERC1155/ERC1155.sol\":14360:14366  reason */\n      dup1\n        /* \"@openzeppelin/contracts/token/ERC1155/ERC1155.sol\":14360:14373  reason.length */\n      mload\n        /* \"@openzeppelin/contracts/token/ERC1155/ERC1155.sol\":14377:14378  0 */\n      0x00\n        /* \"@openzeppelin/contracts/token/ERC1155/ERC1155.sol\":14360:14378  reason.length == 0 */\n      sub\n        /* \"@openzeppelin/contracts/token/ERC1155/ERC1155.sol\":14356:14705  if (reason.length == 0) {... */\n      tag_322\n      jumpi\n        /* \"@openzeppelin/contracts/token/ERC1155/ERC1155.sol\":14464:14490  ERC1155InvalidReceiver(to) */\n      mload(0x40)\n      shl(0xe1, 0x2bfa23e7)\n      dup2\n      mstore\n      sub(shl(0xa0, 0x01), 0x01)\n        /* \"#utility.yul\":8756:8811   */\n      dup7\n      and\n        /* \"@openzeppelin/contracts/token/ERC1155/ERC1155.sol\":14464:14490  ERC1155InvalidReceiver(to) */\n      0x04\n      dup3\n      add\n        /* \"#utility.yul\":8738:8812   */\n      mstore\n        /* \"#utility.yul\":8711:8729   */\n      0x24\n      add\n        /* \"@openzeppelin/contracts/token/ERC1155/ERC1155.sol\":14464:14490  ERC1155InvalidReceiver(to) */\n      tag_141\n        /* \"#utility.yul\":8592:8818   */\n      jump\n        /* \"@openzeppelin/contracts/token/ERC1155/ERC1155.sol\":14356:14705  if (reason.length == 0) {... */\n    tag_322:\n        /* \"@openzeppelin/contracts/token/ERC1155/ERC1155.sol\":14657:14663  reason */\n      dup1\n        /* \"@openzeppelin/contracts/token/ERC1155/ERC1155.sol\":14651:14664  mload(reason) */\n      mload\n        /* \"@openzeppelin/contracts/token/ERC1155/ERC1155.sol\":14642:14648  reason */\n      dup2\n        /* \"@openzeppelin/contracts/token/ERC1155/ERC1155.sol\":14638:14640  32 */\n      0x20\n        /* \"@openzeppelin/contracts/token/ERC1155/ERC1155.sol\":14634:14649  add(32, reason) */\n      add\n        /* \"@openzeppelin/contracts/token/ERC1155/ERC1155.sol\":14627:14665  revert(add(32, reason), mload(reason)) */\n      revert\n        /* \"@openzeppelin/contracts/token/ERC1155/ERC1155.sol\":14001:14719  try IERC1155Receiver(to).onERC1155Received(operator, from, id, value, data) returns (bytes4 response) {... */\n    tag_316:\n      not(sub(shl(0xe0, 0x01), 0x01))\n        /* \"@openzeppelin/contracts/token/ERC1155/ERC1155.sol\":14125:14180  response != IERC1155Receiver.onERC1155Received.selector */\n      dup2\n      and\n      shl(0xe0, 0xf23a6e61)\n      eq\n        /* \"@openzeppelin/contracts/token/ERC1155/ERC1155.sol\":14121:14295  if (response != IERC1155Receiver.onERC1155Received.selector) {... */\n      tag_267\n      jumpi\n        /* \"@openzeppelin/contracts/token/ERC1155/ERC1155.sol\":14250:14276  ERC1155InvalidReceiver(to) */\n      mload(0x40)\n      shl(0xe1, 0x2bfa23e7)\n      dup2\n      mstore\n      sub(shl(0xa0, 0x01), 0x01)\n        /* \"#utility.yul\":8756:8811   */\n      dup7\n      and\n        /* \"@openzeppelin/contracts/token/ERC1155/ERC1155.sol\":14250:14276  ERC1155InvalidReceiver(to) */\n      0x04\n      dup3\n      add\n        /* \"#utility.yul\":8738:8812   */\n      mstore\n        /* \"#utility.yul\":8711:8729   */\n      0x24\n      add\n        /* \"@openzeppelin/contracts/token/ERC1155/ERC1155.sol\":14250:14276  ERC1155InvalidReceiver(to) */\n      tag_141\n        /* \"#utility.yul\":8592:8818   */\n      jump\n        /* \"@openzeppelin/contracts/token/ERC1155/ERC1155.sol\":14923:15964  function _doSafeBatchTransferAcceptanceCheck(... */\n    tag_286:\n      sub(shl(0xa0, 0x01), 0x01)\n        /* \"@openzeppelin/contracts/token/ERC1155/ERC1155.sol\":15154:15168  to.code.length */\n      dup5\n      and\n      extcodesize\n        /* \"@openzeppelin/contracts/token/ERC1155/ERC1155.sol\":15154:15172  to.code.length > 0 */\n      iszero\n        /* \"@openzeppelin/contracts/token/ERC1155/ERC1155.sol\":15150:15958  if (to.code.length > 0) {... */\n      tag_164\n      jumpi\n        /* \"@openzeppelin/contracts/token/ERC1155/ERC1155.sol\":15192:15270  IERC1155Receiver(to).onERC1155BatchReceived(operator, from, ids, values, data) */\n      mload(0x40)\n      shl(0xe0, 0xbc197c81)\n      dup2\n      mstore\n      sub(shl(0xa0, 0x01), 0x01)\n        /* \"@openzeppelin/contracts/token/ERC1155/ERC1155.sol\":15192:15235  IERC1155Receiver(to).onERC1155BatchReceived */\n      dup6\n      and\n      swap1\n      0xbc197c81\n      swap1\n        /* \"@openzeppelin/contracts/token/ERC1155/ERC1155.sol\":15192:15270  IERC1155Receiver(to).onERC1155BatchReceived(operator, from, ids, values, data) */\n      tag_330\n      swap1\n        /* \"@openzeppelin/contracts/token/ERC1155/ERC1155.sol\":15236:15244  operator */\n      dup10\n      swap1\n        /* \"@openzeppelin/contracts/token/ERC1155/ERC1155.sol\":15246:15250  from */\n      dup10\n      swap1\n        /* \"@openzeppelin/contracts/token/ERC1155/ERC1155.sol\":15252:15255  ids */\n      dup9\n      swap1\n        /* \"@openzeppelin/contracts/token/ERC1155/ERC1155.sol\":15257:15263  values */\n      dup9\n      swap1\n        /* \"@openzeppelin/contracts/token/ERC1155/ERC1155.sol\":15265:15269  data */\n      dup9\n      swap1\n        /* \"@openzeppelin/contracts/token/ERC1155/ERC1155.sol\":15192:15270  IERC1155Receiver(to).onERC1155BatchReceived(operator, from, ids, values, data) */\n      0x04\n      add\n      tag_331\n      jump\t// in\n    tag_330:\n      0x20\n      mload(0x40)\n      dup1\n      dup4\n      sub\n      dup2\n      0x00\n      dup8\n      gas\n      call\n      swap3\n      pop\n      pop\n      pop\n      dup1\n      iszero\n      tag_332\n      jumpi\n      pop\n      0x40\n      dup1\n      mload\n      0x1f\n      returndatasize\n      swap1\n      dup2\n      add\n      not(0x1f)\n      and\n      dup3\n      add\n      swap1\n      swap3\n      mstore\n      tag_333\n      swap2\n      dup2\n      add\n      swap1\n      tag_315\n      jump\t// in\n    tag_333:\n      0x01\n    tag_332:\n        /* \"@openzeppelin/contracts/token/ERC1155/ERC1155.sol\":15188:15948  try IERC1155Receiver(to).onERC1155BatchReceived(operator, from, ids, values, data) returns (... */\n      tag_334\n      jumpi\n      returndatasize\n      dup1\n      dup1\n      iszero\n      tag_321\n      jumpi\n      mload(0x40)\n      swap2\n      pop\n      and(add(returndatasize, 0x3f), not(0x1f))\n      dup3\n      add\n      0x40\n      mstore\n      returndatasize\n      dup3\n      mstore\n      returndatasize\n      0x00\n      0x20\n      dup5\n      add\n      returndatacopy\n      jump(tag_320)\n    tag_334:\n      not(sub(shl(0xe0, 0x01), 0x01))\n        /* \"@openzeppelin/contracts/token/ERC1155/ERC1155.sol\":15349:15409  response != IERC1155Receiver.onERC1155BatchReceived.selector */\n      dup2\n      and\n      shl(0xe0, 0xbc197c81)\n      eq\n        /* \"@openzeppelin/contracts/token/ERC1155/ERC1155.sol\":15345:15524  if (response != IERC1155Receiver.onERC1155BatchReceived.selector) {... */\n      tag_267\n      jumpi\n        /* \"@openzeppelin/contracts/token/ERC1155/ERC1155.sol\":15479:15505  ERC1155InvalidReceiver(to) */\n      mload(0x40)\n      shl(0xe1, 0x2bfa23e7)\n      dup2\n      mstore\n      sub(shl(0xa0, 0x01), 0x01)\n        /* \"#utility.yul\":8756:8811   */\n      dup7\n      and\n        /* \"@openzeppelin/contracts/token/ERC1155/ERC1155.sol\":15479:15505  ERC1155InvalidReceiver(to) */\n      0x04\n      dup3\n      add\n        /* \"#utility.yul\":8738:8812   */\n      mstore\n        /* \"#utility.yul\":8711:8729   */\n      0x24\n      add\n        /* \"@openzeppelin/contracts/token/ERC1155/ERC1155.sol\":15479:15505  ERC1155InvalidReceiver(to) */\n      tag_141\n        /* \"#utility.yul\":8592:8818   */\n      jump\n        /* \"#utility.yul\":14:210   */\n    tag_346:\n        /* \"#utility.yul\":82:102   */\n      dup1\n      calldataload\n      sub(shl(0xa0, 0x01), 0x01)\n        /* \"#utility.yul\":131:185   */\n      dup2\n      and\n        /* \"#utility.yul\":121:186   */\n      dup2\n      eq\n        /* \"#utility.yul\":111:204   */\n      tag_356\n      jumpi\n        /* \"#utility.yul\":200:201   */\n      0x00\n        /* \"#utility.yul\":197:198   */\n      dup1\n        /* \"#utility.yul\":190:202   */\n      revert\n        /* \"#utility.yul\":111:204   */\n    tag_356:\n        /* \"#utility.yul\":14:210   */\n      swap2\n      swap1\n      pop\n      jump\t// out\n        /* \"#utility.yul\":215:469   */\n    tag_35:\n        /* \"#utility.yul\":283:289   */\n      0x00\n        /* \"#utility.yul\":291:297   */\n      dup1\n        /* \"#utility.yul\":344:346   */\n      0x40\n        /* \"#utility.yul\":332:341   */\n      dup4\n        /* \"#utility.yul\":323:330   */\n      dup6\n        /* \"#utility.yul\":319:342   */\n      sub\n        /* \"#utility.yul\":315:347   */\n      slt\n        /* \"#utility.yul\":312:364   */\n      iszero\n      tag_358\n      jumpi\n        /* \"#utility.yul\":360:361   */\n      0x00\n        /* \"#utility.yul\":357:358   */\n      dup1\n        /* \"#utility.yul\":350:362   */\n      revert\n        /* \"#utility.yul\":312:364   */\n    tag_358:\n        /* \"#utility.yul\":383:412   */\n      tag_359\n        /* \"#utility.yul\":402:411   */\n      dup4\n        /* \"#utility.yul\":383:412   */\n      tag_346\n      jump\t// in\n    tag_359:\n        /* \"#utility.yul\":373:412   */\n      swap5\n        /* \"#utility.yul\":459:461   */\n      0x20\n        /* \"#utility.yul\":444:462   */\n      swap4\n      swap1\n      swap4\n      add\n        /* \"#utility.yul\":431:463   */\n      calldataload\n      swap4\n      pop\n      pop\n      pop\n        /* \"#utility.yul\":215:469   */\n      jump\t// out\n        /* \"#utility.yul\":656:833   */\n    tag_347:\n      not(sub(shl(0xe0, 0x01), 0x01))\n        /* \"#utility.yul\":734:739   */\n      dup2\n        /* \"#utility.yul\":730:808   */\n      and\n        /* \"#utility.yul\":723:728   */\n      dup2\n        /* \"#utility.yul\":720:809   */\n      eq\n        /* \"#utility.yul\":710:827   */\n      tag_217\n      jumpi\n        /* \"#utility.yul\":823:824   */\n      0x00\n        /* \"#utility.yul\":820:821   */\n      dup1\n        /* \"#utility.yul\":813:825   */\n      revert\n        /* \"#utility.yul\":838:1083   */\n    tag_41:\n        /* \"#utility.yul\":896:902   */\n      0x00\n        /* \"#utility.yul\":949:951   */\n      0x20\n        /* \"#utility.yul\":937:946   */\n      dup3\n        /* \"#utility.yul\":928:935   */\n      dup5\n        /* \"#utility.yul\":924:947   */\n      sub\n        /* \"#utility.yul\":920:952   */\n      slt\n        /* \"#utility.yul\":917:969   */\n      iszero\n      tag_364\n      jumpi\n        /* \"#utility.yul\":965:966   */\n      0x00\n        /* \"#utility.yul\":962:963   */\n      dup1\n        /* \"#utility.yul\":955:967   */\n      revert\n        /* \"#utility.yul\":917:969   */\n    tag_364:\n        /* \"#utility.yul\":1004:1013   */\n      dup2\n        /* \"#utility.yul\":991:1014   */\n      calldataload\n        /* \"#utility.yul\":1023:1053   */\n      tag_365\n        /* \"#utility.yul\":1047:1052   */\n      dup2\n        /* \"#utility.yul\":1023:1053   */\n      tag_347\n      jump\t// in\n    tag_365:\n        /* \"#utility.yul\":1072:1077   */\n      swap4\n        /* \"#utility.yul\":838:1083   */\n      swap3\n      pop\n      pop\n      pop\n      jump\t// out\n        /* \"#utility.yul\":1280:1460   */\n    tag_54:\n        /* \"#utility.yul\":1339:1345   */\n      0x00\n        /* \"#utility.yul\":1392:1394   */\n      0x20\n        /* \"#utility.yul\":1380:1389   */\n      dup3\n        /* \"#utility.yul\":1371:1378   */\n      dup5\n        /* \"#utility.yul\":1367:1390   */\n      sub\n        /* \"#utility.yul\":1363:1395   */\n      slt\n        /* \"#utility.yul\":1360:1412   */\n      iszero\n      tag_368\n      jumpi\n        /* \"#utility.yul\":1408:1409   */\n      0x00\n        /* \"#utility.yul\":1405:1406   */\n      dup1\n        /* \"#utility.yul\":1398:1410   */\n      revert\n        /* \"#utility.yul\":1360:1412   */\n    tag_368:\n      pop\n        /* \"#utility.yul\":1431:1454   */\n      calldataload\n      swap2\n        /* \"#utility.yul\":1280:1460   */\n      swap1\n      pop\n      jump\t// out\n        /* \"#utility.yul\":1465:1888   */\n    tag_348:\n        /* \"#utility.yul\":1507:1510   */\n      0x00\n        /* \"#utility.yul\":1545:1550   */\n      dup2\n        /* \"#utility.yul\":1539:1551   */\n      mload\n        /* \"#utility.yul\":1572:1578   */\n      dup1\n        /* \"#utility.yul\":1567:1570   */\n      dup5\n        /* \"#utility.yul\":1560:1579   */\n      mstore\n        /* \"#utility.yul\":1597:1598   */\n      0x00\n        /* \"#utility.yul\":1607:1769   */\n    tag_370:\n        /* \"#utility.yul\":1621:1627   */\n      dup2\n        /* \"#utility.yul\":1618:1619   */\n      dup2\n        /* \"#utility.yul\":1615:1628   */\n      lt\n        /* \"#utility.yul\":1607:1769   */\n      iszero\n      tag_372\n      jumpi\n        /* \"#utility.yul\":1683:1687   */\n      0x20\n        /* \"#utility.yul\":1739:1752   */\n      dup2\n      dup6\n      add\n        /* \"#utility.yul\":1735:1757   */\n      dup2\n      add\n        /* \"#utility.yul\":1729:1758   */\n      mload\n        /* \"#utility.yul\":1711:1722   */\n      dup7\n      dup4\n      add\n        /* \"#utility.yul\":1707:1727   */\n      dup3\n      add\n        /* \"#utility.yul\":1700:1759   */\n      mstore\n        /* \"#utility.yul\":1636:1648   */\n      add\n        /* \"#utility.yul\":1607:1769   */\n      jump(tag_370)\n    tag_372:\n        /* \"#utility.yul\":1611:1614   */\n      pop\n        /* \"#utility.yul\":1814:1815   */\n      0x00\n        /* \"#utility.yul\":1807:1811   */\n      0x20\n        /* \"#utility.yul\":1798:1804   */\n      dup3\n        /* \"#utility.yul\":1793:1796   */\n      dup7\n        /* \"#utility.yul\":1789:1805   */\n      add\n        /* \"#utility.yul\":1785:1812   */\n      add\n        /* \"#utility.yul\":1778:1816   */\n      mstore\n        /* \"#utility.yul\":1877:1881   */\n      0x20\n        /* \"#utility.yul\":1870:1872   */\n      0x1f\n        /* \"#utility.yul\":1866:1873   */\n      not\n        /* \"#utility.yul\":1861:1863   */\n      0x1f\n        /* \"#utility.yul\":1853:1859   */\n      dup4\n        /* \"#utility.yul\":1849:1864   */\n      add\n        /* \"#utility.yul\":1845:1874   */\n      and\n        /* \"#utility.yul\":1840:1843   */\n      dup6\n        /* \"#utility.yul\":1836:1875   */\n      add\n        /* \"#utility.yul\":1832:1882   */\n      add\n        /* \"#utility.yul\":1825:1882   */\n      swap2\n      pop\n      pop\n        /* \"#utility.yul\":1465:1888   */\n      swap3\n      swap2\n      pop\n      pop\n      jump\t// out\n        /* \"#utility.yul\":1893:2113   */\n    tag_57:\n        /* \"#utility.yul\":2042:2044   */\n      0x20\n        /* \"#utility.yul\":2031:2040   */\n      dup2\n        /* \"#utility.yul\":2024:2045   */\n      mstore\n        /* \"#utility.yul\":2005:2009   */\n      0x00\n        /* \"#utility.yul\":2062:2107   */\n      tag_365\n        /* \"#utility.yul\":2103:2105   */\n      0x20\n        /* \"#utility.yul\":2092:2101   */\n      dup4\n        /* \"#utility.yul\":2088:2106   */\n      add\n        /* \"#utility.yul\":2080:2086   */\n      dup5\n        /* \"#utility.yul\":2062:2107   */\n      tag_348\n      jump\t// in\n        /* \"#utility.yul\":2118:2366   */\n    tag_60:\n        /* \"#utility.yul\":2186:2192   */\n      0x00\n        /* \"#utility.yul\":2194:2200   */\n      dup1\n        /* \"#utility.yul\":2247:2249   */\n      0x40\n        /* \"#utility.yul\":2235:2244   */\n      dup4\n        /* \"#utility.yul\":2226:2233   */\n      dup6\n        /* \"#utility.yul\":2222:2245   */\n      sub\n        /* \"#utility.yul\":2218:2250   */\n      slt\n        /* \"#utility.yul\":2215:2267   */\n      iszero\n      tag_376\n      jumpi\n        /* \"#utility.yul\":2263:2264   */\n      0x00\n        /* \"#utility.yul\":2260:2261   */\n      dup1\n        /* \"#utility.yul\":2253:2265   */\n      revert\n        /* \"#utility.yul\":2215:2267   */\n    tag_376:\n      pop\n      pop\n        /* \"#utility.yul\":2286:2309   */\n      dup1\n      calldataload\n      swap3\n        /* \"#utility.yul\":2356:2358   */\n      0x20\n        /* \"#utility.yul\":2341:2359   */\n      swap1\n      swap2\n      add\n        /* \"#utility.yul\":2328:2360   */\n      calldataload\n      swap2\n      pop\n        /* \"#utility.yul\":2118:2366   */\n      jump\t// out\n        /* \"#utility.yul\":2371:2555   */\n    tag_172:\n      shl(0xe0, 0x4e487b71)\n        /* \"#utility.yul\":2420:2421   */\n      0x00\n        /* \"#utility.yul\":2413:2501   */\n      mstore\n        /* \"#utility.yul\":2520:2524   */\n      0x41\n        /* \"#utility.yul\":2517:2518   */\n      0x04\n        /* \"#utility.yul\":2510:2525   */\n      mstore\n        /* \"#utility.yul\":2544:2548   */\n      0x24\n        /* \"#utility.yul\":2541:2542   */\n      0x00\n        /* \"#utility.yul\":2534:2549   */\n      revert\n        /* \"#utility.yul\":2560:2835   */\n    tag_349:\n        /* \"#utility.yul\":2631:2633   */\n      0x40\n        /* \"#utility.yul\":2625:2634   */\n      mload\n        /* \"#utility.yul\":2696:2698   */\n      0x1f\n        /* \"#utility.yul\":2677:2690   */\n      dup3\n      add\n      not(0x1f)\n        /* \"#utility.yul\":2673:2700   */\n      and\n        /* \"#utility.yul\":2661:2701   */\n      dup2\n      add\n        /* \"#utility.yul\":2731:2749   */\n      0xffffffffffffffff\n        /* \"#utility.yul\":2716:2750   */\n      dup2\n      gt\n        /* \"#utility.yul\":2752:2774   */\n      dup3\n      dup3\n      lt\n        /* \"#utility.yul\":2713:2775   */\n      or\n        /* \"#utility.yul\":2710:2798   */\n      iszero\n      tag_380\n      jumpi\n        /* \"#utility.yul\":2778:2796   */\n      tag_380\n      tag_172\n      jump\t// in\n    tag_380:\n        /* \"#utility.yul\":2814:2816   */\n      0x40\n        /* \"#utility.yul\":2807:2829   */\n      mstore\n        /* \"#utility.yul\":2560:2835   */\n      swap2\n      swap1\n      pop\n      jump\t// out\n        /* \"#utility.yul\":2840:3023   */\n    tag_350:\n        /* \"#utility.yul\":2900:2904   */\n      0x00\n        /* \"#utility.yul\":2933:2951   */\n      0xffffffffffffffff\n        /* \"#utility.yul\":2925:2931   */\n      dup3\n        /* \"#utility.yul\":2922:2952   */\n      gt\n        /* \"#utility.yul\":2919:2975   */\n      iszero\n      tag_383\n      jumpi\n        /* \"#utility.yul\":2955:2973   */\n      tag_383\n      tag_172\n      jump\t// in\n    tag_383:\n      pop\n        /* \"#utility.yul\":3000:3001   */\n      0x05\n        /* \"#utility.yul\":2996:3010   */\n      shl\n        /* \"#utility.yul\":3012:3016   */\n      0x20\n        /* \"#utility.yul\":2992:3017   */\n      add\n      swap1\n        /* \"#utility.yul\":2840:3023   */\n      jump\t// out\n        /* \"#utility.yul\":3028:3696   */\n    tag_351:\n        /* \"#utility.yul\":3082:3087   */\n      0x00\n        /* \"#utility.yul\":3135:3138   */\n      dup3\n        /* \"#utility.yul\":3128:3132   */\n      0x1f\n        /* \"#utility.yul\":3120:3126   */\n      dup4\n        /* \"#utility.yul\":3116:3133   */\n      add\n        /* \"#utility.yul\":3112:3139   */\n      slt\n        /* \"#utility.yul\":3102:3157   */\n      tag_385\n      jumpi\n        /* \"#utility.yul\":3153:3154   */\n      0x00\n        /* \"#utility.yul\":3150:3151   */\n      dup1\n        /* \"#utility.yul\":3143:3155   */\n      revert\n        /* \"#utility.yul\":3102:3157   */\n    tag_385:\n        /* \"#utility.yul\":3189:3195   */\n      dup2\n        /* \"#utility.yul\":3176:3196   */\n      calldataload\n        /* \"#utility.yul\":3215:3219   */\n      0x20\n        /* \"#utility.yul\":3239:3299   */\n      tag_386\n        /* \"#utility.yul\":3255:3298   */\n      tag_387\n        /* \"#utility.yul\":3295:3297   */\n      dup4\n        /* \"#utility.yul\":3255:3298   */\n      tag_350\n      jump\t// in\n    tag_387:\n        /* \"#utility.yul\":3239:3299   */\n      tag_349\n      jump\t// in\n    tag_386:\n        /* \"#utility.yul\":3321:3324   */\n      dup1\n        /* \"#utility.yul\":3345:3347   */\n      dup4\n        /* \"#utility.yul\":3340:3343   */\n      dup3\n        /* \"#utility.yul\":3333:3348   */\n      mstore\n        /* \"#utility.yul\":3373:3377   */\n      0x20\n        /* \"#utility.yul\":3368:3371   */\n      dup3\n        /* \"#utility.yul\":3364:3378   */\n      add\n        /* \"#utility.yul\":3357:3378   */\n      swap2\n      pop\n        /* \"#utility.yul\":3430:3434   */\n      0x20\n        /* \"#utility.yul\":3424:3426   */\n      dup5\n        /* \"#utility.yul\":3421:3422   */\n      0x05\n        /* \"#utility.yul\":3417:3427   */\n      shl\n        /* \"#utility.yul\":3409:3415   */\n      dup8\n        /* \"#utility.yul\":3405:3428   */\n      add\n        /* \"#utility.yul\":3401:3435   */\n      add\n        /* \"#utility.yul\":3387:3435   */\n      swap4\n      pop\n        /* \"#utility.yul\":3458:3461   */\n      dup7\n        /* \"#utility.yul\":3450:3456   */\n      dup5\n        /* \"#utility.yul\":3447:3462   */\n      gt\n        /* \"#utility.yul\":3444:3479   */\n      iszero\n      tag_388\n      jumpi\n        /* \"#utility.yul\":3475:3476   */\n      0x00\n        /* \"#utility.yul\":3472:3473   */\n      dup1\n        /* \"#utility.yul\":3465:3477   */\n      revert\n        /* \"#utility.yul\":3444:3479   */\n    tag_388:\n        /* \"#utility.yul\":3511:3515   */\n      0x20\n        /* \"#utility.yul\":3503:3509   */\n      dup7\n        /* \"#utility.yul\":3499:3516   */\n      add\n        /* \"#utility.yul\":3525:3667   */\n    tag_389:\n        /* \"#utility.yul\":3541:3547   */\n      dup5\n        /* \"#utility.yul\":3536:3539   */\n      dup2\n        /* \"#utility.yul\":3533:3548   */\n      lt\n        /* \"#utility.yul\":3525:3667   */\n      iszero\n      tag_391\n      jumpi\n        /* \"#utility.yul\":3607:3624   */\n      dup1\n      calldataload\n        /* \"#utility.yul\":3595:3625   */\n      dup4\n      mstore\n        /* \"#utility.yul\":3645:3657   */\n      swap2\n      dup4\n      add\n      swap2\n        /* \"#utility.yul\":3558:3570   */\n      dup4\n      add\n        /* \"#utility.yul\":3525:3667   */\n      jump(tag_389)\n    tag_391:\n      pop\n        /* \"#utility.yul\":3685:3690   */\n      swap7\n        /* \"#utility.yul\":3028:3696   */\n      swap6\n      pop\n      pop\n      pop\n      pop\n      pop\n      pop\n      jump\t// out\n        /* \"#utility.yul\":3701:4231   */\n    tag_352:\n        /* \"#utility.yul\":3743:3748   */\n      0x00\n        /* \"#utility.yul\":3796:3799   */\n      dup3\n        /* \"#utility.yul\":3789:3793   */\n      0x1f\n        /* \"#utility.yul\":3781:3787   */\n      dup4\n        /* \"#utility.yul\":3777:3794   */\n      add\n        /* \"#utility.yul\":3773:3800   */\n      slt\n        /* \"#utility.yul\":3763:3818   */\n      tag_393\n      jumpi\n        /* \"#utility.yul\":3814:3815   */\n      0x00\n        /* \"#utility.yul\":3811:3812   */\n      dup1\n        /* \"#utility.yul\":3804:3816   */\n      revert\n        /* \"#utility.yul\":3763:3818   */\n    tag_393:\n        /* \"#utility.yul\":3850:3856   */\n      dup2\n        /* \"#utility.yul\":3837:3857   */\n      calldataload\n        /* \"#utility.yul\":3876:3894   */\n      0xffffffffffffffff\n        /* \"#utility.yul\":3872:3874   */\n      dup2\n        /* \"#utility.yul\":3869:3895   */\n      gt\n        /* \"#utility.yul\":3866:3918   */\n      iszero\n      tag_395\n      jumpi\n        /* \"#utility.yul\":3898:3916   */\n      tag_395\n      tag_172\n      jump\t// in\n    tag_395:\n        /* \"#utility.yul\":3942:3997   */\n      tag_396\n        /* \"#utility.yul\":3985:3987   */\n      0x1f\n        /* \"#utility.yul\":3966:3979   */\n      dup3\n      add\n      not(0x1f)\n        /* \"#utility.yul\":3962:3989   */\n      and\n        /* \"#utility.yul\":3991:3995   */\n      0x20\n        /* \"#utility.yul\":3958:3996   */\n      add\n        /* \"#utility.yul\":3942:3997   */\n      tag_349\n      jump\t// in\n    tag_396:\n        /* \"#utility.yul\":4022:4024   */\n      dup2\n        /* \"#utility.yul\":4013:4020   */\n      dup2\n        /* \"#utility.yul\":4006:4025   */\n      mstore\n        /* \"#utility.yul\":4068:4071   */\n      dup5\n        /* \"#utility.yul\":4061:4065   */\n      0x20\n        /* \"#utility.yul\":4056:4058   */\n      dup4\n        /* \"#utility.yul\":4048:4054   */\n      dup7\n        /* \"#utility.yul\":4044:4059   */\n      add\n        /* \"#utility.yul\":4040:4066   */\n      add\n        /* \"#utility.yul\":4037:4072   */\n      gt\n        /* \"#utility.yul\":4034:4089   */\n      iszero\n      tag_397\n      jumpi\n        /* \"#utility.yul\":4085:4086   */\n      0x00\n        /* \"#utility.yul\":4082:4083   */\n      dup1\n        /* \"#utility.yul\":4075:4087   */\n      revert\n        /* \"#utility.yul\":4034:4089   */\n    tag_397:\n        /* \"#utility.yul\":4150:4152   */\n      dup2\n        /* \"#utility.yul\":4143:4147   */\n      0x20\n        /* \"#utility.yul\":4135:4141   */\n      dup6\n        /* \"#utility.yul\":4131:4148   */\n      add\n        /* \"#utility.yul\":4124:4128   */\n      0x20\n        /* \"#utility.yul\":4115:4122   */\n      dup4\n        /* \"#utility.yul\":4111:4129   */\n      add\n        /* \"#utility.yul\":4098:4153   */\n      calldatacopy\n        /* \"#utility.yul\":4198:4199   */\n      0x00\n        /* \"#utility.yul\":4173:4189   */\n      swap2\n      dup2\n      add\n        /* \"#utility.yul\":4191:4195   */\n      0x20\n        /* \"#utility.yul\":4169:4196   */\n      add\n        /* \"#utility.yul\":4162:4200   */\n      swap2\n      swap1\n      swap2\n      mstore\n        /* \"#utility.yul\":4177:4184   */\n      swap4\n        /* \"#utility.yul\":3701:4231   */\n      swap3\n      pop\n      pop\n      pop\n      jump\t// out\n        /* \"#utility.yul\":4236:5104   */\n    tag_64:\n        /* \"#utility.yul\":4381:4387   */\n      0x00\n        /* \"#utility.yul\":4389:4395   */\n      dup1\n        /* \"#utility.yul\":4397:4403   */\n      0x00\n        /* \"#utility.yul\":4405:4411   */\n      dup1\n        /* \"#utility.yul\":4458:4461   */\n      0x80\n        /* \"#utility.yul\":4446:4455   */\n      dup6\n        /* \"#utility.yul\":4437:4444   */\n      dup8\n        /* \"#utility.yul\":4433:4456   */\n      sub\n        /* \"#utility.yul\":4429:4462   */\n      slt\n        /* \"#utility.yul\":4426:4479   */\n      iszero\n      tag_399\n      jumpi\n        /* \"#utility.yul\":4475:4476   */\n      0x00\n        /* \"#utility.yul\":4472:4473   */\n      dup1\n        /* \"#utility.yul\":4465:4477   */\n      revert\n        /* \"#utility.yul\":4426:4479   */\n    tag_399:\n        /* \"#utility.yul\":4498:4527   */\n      tag_400\n        /* \"#utility.yul\":4517:4526   */\n      dup6\n        /* \"#utility.yul\":4498:4527   */\n      tag_346\n      jump\t// in\n    tag_400:\n        /* \"#utility.yul\":4488:4527   */\n      swap4\n      pop\n        /* \"#utility.yul\":4578:4580   */\n      0x20\n        /* \"#utility.yul\":4567:4576   */\n      dup6\n        /* \"#utility.yul\":4563:4581   */\n      add\n        /* \"#utility.yul\":4550:4582   */\n      calldataload\n        /* \"#utility.yul\":4601:4619   */\n      0xffffffffffffffff\n        /* \"#utility.yul\":4642:4644   */\n      dup1\n        /* \"#utility.yul\":4634:4640   */\n      dup3\n        /* \"#utility.yul\":4631:4645   */\n      gt\n        /* \"#utility.yul\":4628:4662   */\n      iszero\n      tag_401\n      jumpi\n        /* \"#utility.yul\":4658:4659   */\n      0x00\n        /* \"#utility.yul\":4655:4656   */\n      dup1\n        /* \"#utility.yul\":4648:4660   */\n      revert\n        /* \"#utility.yul\":4628:4662   */\n    tag_401:\n        /* \"#utility.yul\":4681:4742   */\n      tag_402\n        /* \"#utility.yul\":4734:4741   */\n      dup9\n        /* \"#utility.yul\":4725:4731   */\n      dup4\n        /* \"#utility.yul\":4714:4723   */\n      dup10\n        /* \"#utility.yul\":4710:4732   */\n      add\n        /* \"#utility.yul\":4681:4742   */\n      tag_351\n      jump\t// in\n    tag_402:\n        /* \"#utility.yul\":4671:4742   */\n      swap5\n      pop\n        /* \"#utility.yul\":4795:4797   */\n      0x40\n        /* \"#utility.yul\":4784:4793   */\n      dup8\n        /* \"#utility.yul\":4780:4798   */\n      add\n        /* \"#utility.yul\":4767:4799   */\n      calldataload\n        /* \"#utility.yul\":4751:4799   */\n      swap2\n      pop\n        /* \"#utility.yul\":4824:4826   */\n      dup1\n        /* \"#utility.yul\":4814:4822   */\n      dup3\n        /* \"#utility.yul\":4811:4827   */\n      gt\n        /* \"#utility.yul\":4808:4844   */\n      iszero\n      tag_403\n      jumpi\n        /* \"#utility.yul\":4840:4841   */\n      0x00\n        /* \"#utility.yul\":4837:4838   */\n      dup1\n        /* \"#utility.yul\":4830:4842   */\n      revert\n        /* \"#utility.yul\":4808:4844   */\n    tag_403:\n        /* \"#utility.yul\":4863:4926   */\n      tag_404\n        /* \"#utility.yul\":4918:4925   */\n      dup9\n        /* \"#utility.yul\":4907:4915   */\n      dup4\n        /* \"#utility.yul\":4896:4905   */\n      dup10\n        /* \"#utility.yul\":4892:4916   */\n      add\n        /* \"#utility.yul\":4863:4926   */\n      tag_351\n      jump\t// in\n    tag_404:\n        /* \"#utility.yul\":4853:4926   */\n      swap4\n      pop\n        /* \"#utility.yul\":4979:4981   */\n      0x60\n        /* \"#utility.yul\":4968:4977   */\n      dup8\n        /* \"#utility.yul\":4964:4982   */\n      add\n        /* \"#utility.yul\":4951:4983   */\n      calldataload\n        /* \"#utility.yul\":4935:4983   */\n      swap2\n      pop\n        /* \"#utility.yul\":5008:5010   */\n      dup1\n        /* \"#utility.yul\":4998:5006   */\n      dup3\n        /* \"#utility.yul\":4995:5011   */\n      gt\n        /* \"#utility.yul\":4992:5028   */\n      iszero\n      tag_405\n      jumpi\n        /* \"#utility.yul\":5024:5025   */\n      0x00\n        /* \"#utility.yul\":5021:5022   */\n      dup1\n        /* \"#utility.yul\":5014:5026   */\n      revert\n        /* \"#utility.yul\":4992:5028   */\n    tag_405:\n      pop\n        /* \"#utility.yul\":5047:5098   */\n      tag_406\n        /* \"#utility.yul\":5090:5097   */\n      dup8\n        /* \"#utility.yul\":5079:5087   */\n      dup3\n        /* \"#utility.yul\":5068:5077   */\n      dup9\n        /* \"#utility.yul\":5064:5088   */\n      add\n        /* \"#utility.yul\":5047:5098   */\n      tag_352\n      jump\t// in\n    tag_406:\n        /* \"#utility.yul\":5037:5098   */\n      swap2\n      pop\n      pop\n        /* \"#utility.yul\":4236:5104   */\n      swap3\n      swap6\n      swap2\n      swap5\n      pop\n      swap3\n      pop\n      jump\t// out\n        /* \"#utility.yul\":5109:6052   */\n    tag_68:\n        /* \"#utility.yul\":5263:5269   */\n      0x00\n        /* \"#utility.yul\":5271:5277   */\n      dup1\n        /* \"#utility.yul\":5279:5285   */\n      0x00\n        /* \"#utility.yul\":5287:5293   */\n      dup1\n        /* \"#utility.yul\":5295:5301   */\n      0x00\n        /* \"#utility.yul\":5348:5351   */\n      0xa0\n        /* \"#utility.yul\":5336:5345   */\n      dup7\n        /* \"#utility.yul\":5327:5334   */\n      dup9\n        /* \"#utility.yul\":5323:5346   */\n      sub\n        /* \"#utility.yul\":5319:5352   */\n      slt\n        /* \"#utility.yul\":5316:5369   */\n      iszero\n      tag_408\n      jumpi\n        /* \"#utility.yul\":5365:5366   */\n      0x00\n        /* \"#utility.yul\":5362:5363   */\n      dup1\n        /* \"#utility.yul\":5355:5367   */\n      revert\n        /* \"#utility.yul\":5316:5369   */\n    tag_408:\n        /* \"#utility.yul\":5388:5417   */\n      tag_409\n        /* \"#utility.yul\":5407:5416   */\n      dup7\n        /* \"#utility.yul\":5388:5417   */\n      tag_346\n      jump\t// in\n    tag_409:\n        /* \"#utility.yul\":5378:5417   */\n      swap5\n      pop\n        /* \"#utility.yul\":5436:5474   */\n      tag_410\n        /* \"#utility.yul\":5470:5472   */\n      0x20\n        /* \"#utility.yul\":5459:5468   */\n      dup8\n        /* \"#utility.yul\":5455:5473   */\n      add\n        /* \"#utility.yul\":5436:5474   */\n      tag_346\n      jump\t// in\n    tag_410:\n        /* \"#utility.yul\":5426:5474   */\n      swap4\n      pop\n        /* \"#utility.yul\":5525:5527   */\n      0x40\n        /* \"#utility.yul\":5514:5523   */\n      dup7\n        /* \"#utility.yul\":5510:5528   */\n      add\n        /* \"#utility.yul\":5497:5529   */\n      calldataload\n        /* \"#utility.yul\":5548:5566   */\n      0xffffffffffffffff\n        /* \"#utility.yul\":5589:5591   */\n      dup1\n        /* \"#utility.yul\":5581:5587   */\n      dup3\n        /* \"#utility.yul\":5578:5592   */\n      gt\n        /* \"#utility.yul\":5575:5609   */\n      iszero\n      tag_411\n      jumpi\n        /* \"#utility.yul\":5605:5606   */\n      0x00\n        /* \"#utility.yul\":5602:5603   */\n      dup1\n        /* \"#utility.yul\":5595:5607   */\n      revert\n        /* \"#utility.yul\":5575:5609   */\n    tag_411:\n        /* \"#utility.yul\":5628:5689   */\n      tag_412\n        /* \"#utility.yul\":5681:5688   */\n      dup10\n        /* \"#utility.yul\":5672:5678   */\n      dup4\n        /* \"#utility.yul\":5661:5670   */\n      dup11\n        /* \"#utility.yul\":5657:5679   */\n      add\n        /* \"#utility.yul\":5628:5689   */\n      tag_351\n      jump\t// in\n    tag_412:\n        /* \"#utility.yul\":5618:5689   */\n      swap5\n      pop\n        /* \"#utility.yul\":5742:5744   */\n      0x60\n        /* \"#utility.yul\":5731:5740   */\n      dup9\n        /* \"#utility.yul\":5727:5745   */\n      add\n        /* \"#utility.yul\":5714:5746   */\n      calldataload\n        /* \"#utility.yul\":5698:5746   */\n      swap2\n      pop\n        /* \"#utility.yul\":5771:5773   */\n      dup1\n        /* \"#utility.yul\":5761:5769   */\n      dup3\n        /* \"#utility.yul\":5758:5774   */\n      gt\n        /* \"#utility.yul\":5755:5791   */\n      iszero\n      tag_413\n      jumpi\n        /* \"#utility.yul\":5787:5788   */\n      0x00\n        /* \"#utility.yul\":5784:5785   */\n      dup1\n        /* \"#utility.yul\":5777:5789   */\n      revert\n        /* \"#utility.yul\":5755:5791   */\n    tag_413:\n        /* \"#utility.yul\":5810:5873   */\n      tag_414\n        /* \"#utility.yul\":5865:5872   */\n      dup10\n        /* \"#utility.yul\":5854:5862   */\n      dup4\n        /* \"#utility.yul\":5843:5852   */\n      dup11\n        /* \"#utility.yul\":5839:5863   */\n      add\n        /* \"#utility.yul\":5810:5873   */\n      tag_351\n      jump\t// in\n    tag_414:\n        /* \"#utility.yul\":5800:5873   */\n      swap4\n      pop\n        /* \"#utility.yul\":5926:5929   */\n      0x80\n        /* \"#utility.yul\":5915:5924   */\n      dup9\n        /* \"#utility.yul\":5911:5930   */\n      add\n        /* \"#utility.yul\":5898:5931   */\n      calldataload\n        /* \"#utility.yul\":5882:5931   */\n      swap2\n      pop\n        /* \"#utility.yul\":5956:5958   */\n      dup1\n        /* \"#utility.yul\":5946:5954   */\n      dup3\n        /* \"#utility.yul\":5943:5959   */\n      gt\n        /* \"#utility.yul\":5940:5976   */\n      iszero\n      tag_415\n      jumpi\n        /* \"#utility.yul\":5972:5973   */\n      0x00\n        /* \"#utility.yul\":5969:5970   */\n      dup1\n        /* \"#utility.yul\":5962:5974   */\n      revert\n        /* \"#utility.yul\":5940:5976   */\n    tag_415:\n      pop\n        /* \"#utility.yul\":5995:6046   */\n      tag_416\n        /* \"#utility.yul\":6038:6045   */\n      dup9\n        /* \"#utility.yul\":6027:6035   */\n      dup3\n        /* \"#utility.yul\":6016:6025   */\n      dup10\n        /* \"#utility.yul\":6012:6036   */\n      add\n        /* \"#utility.yul\":5995:6046   */\n      tag_352\n      jump\t// in\n    tag_416:\n        /* \"#utility.yul\":5985:6046   */\n      swap2\n      pop\n      pop\n        /* \"#utility.yul\":5109:6052   */\n      swap3\n      swap6\n      pop\n      swap3\n      swap6\n      swap1\n      swap4\n      pop\n      jump\t// out\n        /* \"#utility.yul\":6057:7203   */\n    tag_78:\n        /* \"#utility.yul\":6175:6181   */\n      0x00\n        /* \"#utility.yul\":6183:6189   */\n      dup1\n        /* \"#utility.yul\":6236:6238   */\n      0x40\n        /* \"#utility.yul\":6224:6233   */\n      dup4\n        /* \"#utility.yul\":6215:6222   */\n      dup6\n        /* \"#utility.yul\":6211:6234   */\n      sub\n        /* \"#utility.yul\":6207:6239   */\n      slt\n        /* \"#utility.yul\":6204:6256   */\n      iszero\n      tag_418\n      jumpi\n        /* \"#utility.yul\":6252:6253   */\n      0x00\n        /* \"#utility.yul\":6249:6250   */\n      dup1\n        /* \"#utility.yul\":6242:6254   */\n      revert\n        /* \"#utility.yul\":6204:6256   */\n    tag_418:\n        /* \"#utility.yul\":6292:6301   */\n      dup3\n        /* \"#utility.yul\":6279:6302   */\n      calldataload\n        /* \"#utility.yul\":6321:6339   */\n      0xffffffffffffffff\n        /* \"#utility.yul\":6362:6364   */\n      dup1\n        /* \"#utility.yul\":6354:6360   */\n      dup3\n        /* \"#utility.yul\":6351:6365   */\n      gt\n        /* \"#utility.yul\":6348:6382   */\n      iszero\n      tag_419\n      jumpi\n        /* \"#utility.yul\":6378:6379   */\n      0x00\n        /* \"#utility.yul\":6375:6376   */\n      dup1\n        /* \"#utility.yul\":6368:6380   */\n      revert\n        /* \"#utility.yul\":6348:6382   */\n    tag_419:\n        /* \"#utility.yul\":6416:6422   */\n      dup2\n        /* \"#utility.yul\":6405:6414   */\n      dup6\n        /* \"#utility.yul\":6401:6423   */\n      add\n        /* \"#utility.yul\":6391:6423   */\n      swap2\n      pop\n        /* \"#utility.yul\":6461:6468   */\n      dup6\n        /* \"#utility.yul\":6454:6458   */\n      0x1f\n        /* \"#utility.yul\":6450:6452   */\n      dup4\n        /* \"#utility.yul\":6446:6459   */\n      add\n        /* \"#utility.yul\":6442:6469   */\n      slt\n        /* \"#utility.yul\":6432:6487   */\n      tag_420\n      jumpi\n        /* \"#utility.yul\":6483:6484   */\n      0x00\n        /* \"#utility.yul\":6480:6481   */\n      dup1\n        /* \"#utility.yul\":6473:6485   */\n      revert\n        /* \"#utility.yul\":6432:6487   */\n    tag_420:\n        /* \"#utility.yul\":6519:6521   */\n      dup2\n        /* \"#utility.yul\":6506:6522   */\n      calldataload\n        /* \"#utility.yul\":6541:6545   */\n      0x20\n        /* \"#utility.yul\":6565:6625   */\n      tag_421\n        /* \"#utility.yul\":6581:6624   */\n      tag_387\n        /* \"#utility.yul\":6621:6623   */\n      dup4\n        /* \"#utility.yul\":6581:6624   */\n      tag_350\n      jump\t// in\n        /* \"#utility.yul\":6565:6625   */\n    tag_421:\n        /* \"#utility.yul\":6659:6674   */\n      dup3\n      dup2\n      mstore\n        /* \"#utility.yul\":6741:6742   */\n      0x05\n        /* \"#utility.yul\":6737:6747   */\n      swap3\n      swap1\n      swap3\n      shl\n        /* \"#utility.yul\":6729:6748   */\n      dup5\n      add\n        /* \"#utility.yul\":6725:6753   */\n      dup2\n      add\n      swap2\n        /* \"#utility.yul\":6690:6702   */\n      dup2\n      dup2\n      add\n      swap1\n        /* \"#utility.yul\":6765:6784   */\n      dup10\n      dup5\n      gt\n        /* \"#utility.yul\":6762:6801   */\n      iszero\n      tag_423\n      jumpi\n        /* \"#utility.yul\":6797:6798   */\n      0x00\n        /* \"#utility.yul\":6794:6795   */\n      dup1\n        /* \"#utility.yul\":6787:6799   */\n      revert\n        /* \"#utility.yul\":6762:6801   */\n    tag_423:\n        /* \"#utility.yul\":6821:6832   */\n      swap5\n      dup3\n      add\n      swap5\n        /* \"#utility.yul\":6841:6989   */\n    tag_424:\n        /* \"#utility.yul\":6857:6863   */\n      dup4\n        /* \"#utility.yul\":6852:6855   */\n      dup7\n        /* \"#utility.yul\":6849:6864   */\n      lt\n        /* \"#utility.yul\":6841:6989   */\n      iszero\n      tag_426\n      jumpi\n        /* \"#utility.yul\":6923:6946   */\n      tag_427\n        /* \"#utility.yul\":6942:6945   */\n      dup7\n        /* \"#utility.yul\":6923:6946   */\n      tag_346\n      jump\t// in\n    tag_427:\n        /* \"#utility.yul\":6911:6947   */\n      dup3\n      mstore\n        /* \"#utility.yul\":6874:6886   */\n      swap5\n      dup3\n      add\n      swap5\n        /* \"#utility.yul\":6967:6979   */\n      swap1\n      dup3\n      add\n      swap1\n        /* \"#utility.yul\":6841:6989   */\n      jump(tag_424)\n    tag_426:\n        /* \"#utility.yul\":7008:7013   */\n      swap7\n      pop\n      pop\n        /* \"#utility.yul\":7051:7069   */\n      dup7\n      add\n        /* \"#utility.yul\":7038:7070   */\n      calldataload\n      swap3\n      pop\n      pop\n        /* \"#utility.yul\":7082:7098   */\n      dup1\n      dup3\n      gt\n        /* \"#utility.yul\":7079:7115   */\n      iszero\n      tag_428\n      jumpi\n        /* \"#utility.yul\":7111:7112   */\n      0x00\n        /* \"#utility.yul\":7108:7109   */\n      dup1\n        /* \"#utility.yul\":7101:7113   */\n      revert\n        /* \"#utility.yul\":7079:7115   */\n    tag_428:\n      pop\n        /* \"#utility.yul\":7134:7197   */\n      tag_429\n        /* \"#utility.yul\":7189:7196   */\n      dup6\n        /* \"#utility.yul\":7178:7186   */\n      dup3\n        /* \"#utility.yul\":7167:7176   */\n      dup7\n        /* \"#utility.yul\":7163:7187   */\n      add\n        /* \"#utility.yul\":7134:7197   */\n      tag_351\n      jump\t// in\n    tag_429:\n        /* \"#utility.yul\":7124:7197   */\n      swap2\n      pop\n      pop\n        /* \"#utility.yul\":6057:7203   */\n      swap3\n      pop\n      swap3\n      swap1\n      pop\n      jump\t// out\n        /* \"#utility.yul\":7208:7647   */\n    tag_353:\n        /* \"#utility.yul\":7261:7264   */\n      0x00\n        /* \"#utility.yul\":7299:7304   */\n      dup2\n        /* \"#utility.yul\":7293:7305   */\n      mload\n        /* \"#utility.yul\":7326:7332   */\n      dup1\n        /* \"#utility.yul\":7321:7324   */\n      dup5\n        /* \"#utility.yul\":7314:7333   */\n      mstore\n        /* \"#utility.yul\":7352:7356   */\n      0x20\n        /* \"#utility.yul\":7381:7385   */\n      dup1\n        /* \"#utility.yul\":7376:7379   */\n      dup6\n        /* \"#utility.yul\":7372:7386   */\n      add\n        /* \"#utility.yul\":7365:7386   */\n      swap5\n      pop\n        /* \"#utility.yul\":7420:7424   */\n      0x20\n        /* \"#utility.yul\":7413:7418   */\n      dup5\n        /* \"#utility.yul\":7409:7425   */\n      add\n        /* \"#utility.yul\":7443:7444   */\n      0x00\n        /* \"#utility.yul\":7453:7622   */\n    tag_431:\n        /* \"#utility.yul\":7467:7473   */\n      dup4\n        /* \"#utility.yul\":7464:7465   */\n      dup2\n        /* \"#utility.yul\":7461:7474   */\n      lt\n        /* \"#utility.yul\":7453:7622   */\n      iszero\n      tag_433\n      jumpi\n        /* \"#utility.yul\":7528:7541   */\n      dup2\n      mload\n        /* \"#utility.yul\":7516:7542   */\n      dup8\n      mstore\n        /* \"#utility.yul\":7562:7574   */\n      swap6\n      dup3\n      add\n      swap6\n        /* \"#utility.yul\":7597:7612   */\n      swap1\n      dup3\n      add\n      swap1\n        /* \"#utility.yul\":7489:7490   */\n      0x01\n        /* \"#utility.yul\":7482:7491   */\n      add\n        /* \"#utility.yul\":7453:7622   */\n      jump(tag_431)\n    tag_433:\n      pop\n        /* \"#utility.yul\":7638:7641   */\n      swap5\n      swap6\n        /* \"#utility.yul\":7208:7647   */\n      swap5\n      pop\n      pop\n      pop\n      pop\n      pop\n      jump\t// out\n        /* \"#utility.yul\":7652:7913   */\n    tag_81:\n        /* \"#utility.yul\":7831:7833   */\n      0x20\n        /* \"#utility.yul\":7820:7829   */\n      dup2\n        /* \"#utility.yul\":7813:7834   */\n      mstore\n        /* \"#utility.yul\":7794:7798   */\n      0x00\n        /* \"#utility.yul\":7851:7907   */\n      tag_365\n        /* \"#utility.yul\":7903:7905   */\n      0x20\n        /* \"#utility.yul\":7892:7901   */\n      dup4\n        /* \"#utility.yul\":7888:7906   */\n      add\n        /* \"#utility.yul\":7880:7886   */\n      dup5\n        /* \"#utility.yul\":7851:7907   */\n      tag_353\n      jump\t// in\n        /* \"#utility.yul\":7918:8587   */\n    tag_84:\n        /* \"#utility.yul\":8045:8051   */\n      0x00\n        /* \"#utility.yul\":8053:8059   */\n      dup1\n        /* \"#utility.yul\":8061:8067   */\n      0x00\n        /* \"#utility.yul\":8114:8116   */\n      0x60\n        /* \"#utility.yul\":8102:8111   */\n      dup5\n        /* \"#utility.yul\":8093:8100   */\n      dup7\n        /* \"#utility.yul\":8089:8112   */\n      sub\n        /* \"#utility.yul\":8085:8117   */\n      slt\n        /* \"#utility.yul\":8082:8134   */\n      iszero\n      tag_437\n      jumpi\n        /* \"#utility.yul\":8130:8131   */\n      0x00\n        /* \"#utility.yul\":8127:8128   */\n      dup1\n        /* \"#utility.yul\":8120:8132   */\n      revert\n        /* \"#utility.yul\":8082:8134   */\n    tag_437:\n        /* \"#utility.yul\":8153:8182   */\n      tag_438\n        /* \"#utility.yul\":8172:8181   */\n      dup5\n        /* \"#utility.yul\":8153:8182   */\n      tag_346\n      jump\t// in\n    tag_438:\n        /* \"#utility.yul\":8143:8182   */\n      swap3\n      pop\n        /* \"#utility.yul\":8233:8235   */\n      0x20\n        /* \"#utility.yul\":8222:8231   */\n      dup5\n        /* \"#utility.yul\":8218:8236   */\n      add\n        /* \"#utility.yul\":8205:8237   */\n      calldataload\n        /* \"#utility.yul\":8256:8274   */\n      0xffffffffffffffff\n        /* \"#utility.yul\":8297:8299   */\n      dup1\n        /* \"#utility.yul\":8289:8295   */\n      dup3\n        /* \"#utility.yul\":8286:8300   */\n      gt\n        /* \"#utility.yul\":8283:8317   */\n      iszero\n      tag_439\n      jumpi\n        /* \"#utility.yul\":8313:8314   */\n      0x00\n        /* \"#utility.yul\":8310:8311   */\n      dup1\n        /* \"#utility.yul\":8303:8315   */\n      revert\n        /* \"#utility.yul\":8283:8317   */\n    tag_439:\n        /* \"#utility.yul\":8336:8397   */\n      tag_440\n        /* \"#utility.yul\":8389:8396   */\n      dup8\n        /* \"#utility.yul\":8380:8386   */\n      dup4\n        /* \"#utility.yul\":8369:8378   */\n      dup9\n        /* \"#utility.yul\":8365:8387   */\n      add\n        /* \"#utility.yul\":8336:8397   */\n      tag_351\n      jump\t// in\n    tag_440:\n        /* \"#utility.yul\":8326:8397   */\n      swap4\n      pop\n        /* \"#utility.yul\":8450:8452   */\n      0x40\n        /* \"#utility.yul\":8439:8448   */\n      dup7\n        /* \"#utility.yul\":8435:8453   */\n      add\n        /* \"#utility.yul\":8422:8454   */\n      calldataload\n        /* \"#utility.yul\":8406:8454   */\n      swap2\n      pop\n        /* \"#utility.yul\":8479:8481   */\n      dup1\n        /* \"#utility.yul\":8469:8477   */\n      dup3\n        /* \"#utility.yul\":8466:8482   */\n      gt\n        /* \"#utility.yul\":8463:8499   */\n      iszero\n      tag_441\n      jumpi\n        /* \"#utility.yul\":8495:8496   */\n      0x00\n        /* \"#utility.yul\":8492:8493   */\n      dup1\n        /* \"#utility.yul\":8485:8497   */\n      revert\n        /* \"#utility.yul\":8463:8499   */\n    tag_441:\n      pop\n        /* \"#utility.yul\":8518:8581   */\n      tag_442\n        /* \"#utility.yul\":8573:8580   */\n      dup7\n        /* \"#utility.yul\":8562:8570   */\n      dup3\n        /* \"#utility.yul\":8551:8560   */\n      dup8\n        /* \"#utility.yul\":8547:8571   */\n      add\n        /* \"#utility.yul\":8518:8581   */\n      tag_351\n      jump\t// in\n    tag_442:\n        /* \"#utility.yul\":8508:8581   */\n      swap2\n      pop\n      pop\n        /* \"#utility.yul\":7918:8587   */\n      swap3\n      pop\n      swap3\n      pop\n      swap3\n      jump\t// out\n        /* \"#utility.yul\":8823:9170   */\n    tag_97:\n        /* \"#utility.yul\":8888:8894   */\n      0x00\n        /* \"#utility.yul\":8896:8902   */\n      dup1\n        /* \"#utility.yul\":8949:8951   */\n      0x40\n        /* \"#utility.yul\":8937:8946   */\n      dup4\n        /* \"#utility.yul\":8928:8935   */\n      dup6\n        /* \"#utility.yul\":8924:8947   */\n      sub\n        /* \"#utility.yul\":8920:8952   */\n      slt\n        /* \"#utility.yul\":8917:8969   */\n      iszero\n      tag_445\n      jumpi\n        /* \"#utility.yul\":8965:8966   */\n      0x00\n        /* \"#utility.yul\":8962:8963   */\n      dup1\n        /* \"#utility.yul\":8955:8967   */\n      revert\n        /* \"#utility.yul\":8917:8969   */\n    tag_445:\n        /* \"#utility.yul\":8988:9017   */\n      tag_446\n        /* \"#utility.yul\":9007:9016   */\n      dup4\n        /* \"#utility.yul\":8988:9017   */\n      tag_346\n      jump\t// in\n    tag_446:\n        /* \"#utility.yul\":8978:9017   */\n      swap2\n      pop\n        /* \"#utility.yul\":9067:9069   */\n      0x20\n        /* \"#utility.yul\":9056:9065   */\n      dup4\n        /* \"#utility.yul\":9052:9070   */\n      add\n        /* \"#utility.yul\":9039:9071   */\n      calldataload\n        /* \"#utility.yul\":9114:9119   */\n      dup1\n        /* \"#utility.yul\":9107:9120   */\n      iszero\n        /* \"#utility.yul\":9100:9121   */\n      iszero\n        /* \"#utility.yul\":9093:9098   */\n      dup2\n        /* \"#utility.yul\":9090:9122   */\n      eq\n        /* \"#utility.yul\":9080:9140   */\n      tag_447\n      jumpi\n        /* \"#utility.yul\":9136:9137   */\n      0x00\n        /* \"#utility.yul\":9133:9134   */\n      dup1\n        /* \"#utility.yul\":9126:9138   */\n      revert\n        /* \"#utility.yul\":9080:9140   */\n    tag_447:\n        /* \"#utility.yul\":9159:9164   */\n      dup1\n        /* \"#utility.yul\":9149:9164   */\n      swap2\n      pop\n      pop\n        /* \"#utility.yul\":8823:9170   */\n      swap3\n      pop\n      swap3\n      swap1\n      pop\n      jump\t// out\n        /* \"#utility.yul\":9175:9435   */\n    tag_110:\n        /* \"#utility.yul\":9243:9249   */\n      0x00\n        /* \"#utility.yul\":9251:9257   */\n      dup1\n        /* \"#utility.yul\":9304:9306   */\n      0x40\n        /* \"#utility.yul\":9292:9301   */\n      dup4\n        /* \"#utility.yul\":9283:9290   */\n      dup6\n        /* \"#utility.yul\":9279:9302   */\n      sub\n        /* \"#utility.yul\":9275:9307   */\n      slt\n        /* \"#utility.yul\":9272:9324   */\n      iszero\n      tag_449\n      jumpi\n        /* \"#utility.yul\":9320:9321   */\n      0x00\n        /* \"#utility.yul\":9317:9318   */\n      dup1\n        /* \"#utility.yul\":9310:9322   */\n      revert\n        /* \"#utility.yul\":9272:9324   */\n    tag_449:\n        /* \"#utility.yul\":9343:9372   */\n      tag_450\n        /* \"#utility.yul\":9362:9371   */\n      dup4\n        /* \"#utility.yul\":9343:9372   */\n      tag_346\n      jump\t// in\n    tag_450:\n        /* \"#utility.yul\":9333:9372   */\n      swap2\n      pop\n        /* \"#utility.yul\":9391:9429   */\n      tag_451\n        /* \"#utility.yul\":9425:9427   */\n      0x20\n        /* \"#utility.yul\":9414:9423   */\n      dup5\n        /* \"#utility.yul\":9410:9428   */\n      add\n        /* \"#utility.yul\":9391:9429   */\n      tag_346\n      jump\t// in\n    tag_451:\n        /* \"#utility.yul\":9381:9429   */\n      swap1\n      pop\n        /* \"#utility.yul\":9175:9435   */\n      swap3\n      pop\n      swap3\n      swap1\n      pop\n      jump\t// out\n        /* \"#utility.yul\":9440:10046   */\n    tag_115:\n        /* \"#utility.yul\":9544:9550   */\n      0x00\n        /* \"#utility.yul\":9552:9558   */\n      dup1\n        /* \"#utility.yul\":9560:9566   */\n      0x00\n        /* \"#utility.yul\":9568:9574   */\n      dup1\n        /* \"#utility.yul\":9576:9582   */\n      0x00\n        /* \"#utility.yul\":9629:9632   */\n      0xa0\n        /* \"#utility.yul\":9617:9626   */\n      dup7\n        /* \"#utility.yul\":9608:9615   */\n      dup9\n        /* \"#utility.yul\":9604:9627   */\n      sub\n        /* \"#utility.yul\":9600:9633   */\n      slt\n        /* \"#utility.yul\":9597:9650   */\n      iszero\n      tag_453\n      jumpi\n        /* \"#utility.yul\":9646:9647   */\n      0x00\n        /* \"#utility.yul\":9643:9644   */\n      dup1\n        /* \"#utility.yul\":9636:9648   */\n      revert\n        /* \"#utility.yul\":9597:9650   */\n    tag_453:\n        /* \"#utility.yul\":9669:9698   */\n      tag_454\n        /* \"#utility.yul\":9688:9697   */\n      dup7\n        /* \"#utility.yul\":9669:9698   */\n      tag_346\n      jump\t// in\n    tag_454:\n        /* \"#utility.yul\":9659:9698   */\n      swap5\n      pop\n        /* \"#utility.yul\":9717:9755   */\n      tag_455\n        /* \"#utility.yul\":9751:9753   */\n      0x20\n        /* \"#utility.yul\":9740:9749   */\n      dup8\n        /* \"#utility.yul\":9736:9754   */\n      add\n        /* \"#utility.yul\":9717:9755   */\n      tag_346\n      jump\t// in\n    tag_455:\n        /* \"#utility.yul\":9707:9755   */\n      swap4\n      pop\n        /* \"#utility.yul\":9802:9804   */\n      0x40\n        /* \"#utility.yul\":9791:9800   */\n      dup7\n        /* \"#utility.yul\":9787:9805   */\n      add\n        /* \"#utility.yul\":9774:9806   */\n      calldataload\n        /* \"#utility.yul\":9764:9806   */\n      swap3\n      pop\n        /* \"#utility.yul\":9853:9855   */\n      0x60\n        /* \"#utility.yul\":9842:9851   */\n      dup7\n        /* \"#utility.yul\":9838:9856   */\n      add\n        /* \"#utility.yul\":9825:9857   */\n      calldataload\n        /* \"#utility.yul\":9815:9857   */\n      swap2\n      pop\n        /* \"#utility.yul\":9908:9911   */\n      0x80\n        /* \"#utility.yul\":9897:9906   */\n      dup7\n        /* \"#utility.yul\":9893:9912   */\n      add\n        /* \"#utility.yul\":9880:9913   */\n      calldataload\n        /* \"#utility.yul\":9936:9954   */\n      0xffffffffffffffff\n        /* \"#utility.yul\":9928:9934   */\n      dup2\n        /* \"#utility.yul\":9925:9955   */\n      gt\n        /* \"#utility.yul\":9922:9972   */\n      iszero\n      tag_456\n      jumpi\n        /* \"#utility.yul\":9968:9969   */\n      0x00\n        /* \"#utility.yul\":9965:9966   */\n      dup1\n        /* \"#utility.yul\":9958:9970   */\n      revert\n        /* \"#utility.yul\":9922:9972   */\n    tag_456:\n        /* \"#utility.yul\":9991:10040   */\n      tag_416\n        /* \"#utility.yul\":10032:10039   */\n      dup9\n        /* \"#utility.yul\":10023:10029   */\n      dup3\n        /* \"#utility.yul\":10012:10021   */\n      dup10\n        /* \"#utility.yul\":10008:10030   */\n      add\n        /* \"#utility.yul\":9991:10040   */\n      tag_352\n      jump\t// in\n        /* \"#utility.yul\":10051:10237   */\n    tag_119:\n        /* \"#utility.yul\":10110:10116   */\n      0x00\n        /* \"#utility.yul\":10163:10165   */\n      0x20\n        /* \"#utility.yul\":10151:10160   */\n      dup3\n        /* \"#utility.yul\":10142:10149   */\n      dup5\n        /* \"#utility.yul\":10138:10161   */\n      sub\n        /* \"#utility.yul\":10134:10166   */\n      slt\n        /* \"#utility.yul\":10131:10183   */\n      iszero\n      tag_459\n      jumpi\n        /* \"#utility.yul\":10179:10180   */\n      0x00\n        /* \"#utility.yul\":10176:10177   */\n      dup1\n        /* \"#utility.yul\":10169:10181   */\n      revert\n        /* \"#utility.yul\":10131:10183   */\n    tag_459:\n        /* \"#utility.yul\":10202:10231   */\n      tag_365\n        /* \"#utility.yul\":10221:10230   */\n      dup3\n        /* \"#utility.yul\":10202:10231   */\n      tag_346\n      jump\t// in\n        /* \"#utility.yul\":10242:10564   */\n    tag_123:\n        /* \"#utility.yul\":10319:10325   */\n      0x00\n        /* \"#utility.yul\":10327:10333   */\n      dup1\n        /* \"#utility.yul\":10335:10341   */\n      0x00\n        /* \"#utility.yul\":10388:10390   */\n      0x60\n        /* \"#utility.yul\":10376:10385   */\n      dup5\n        /* \"#utility.yul\":10367:10374   */\n      dup7\n        /* \"#utility.yul\":10363:10386   */\n      sub\n        /* \"#utility.yul\":10359:10391   */\n      slt\n        /* \"#utility.yul\":10356:10408   */\n      iszero\n      tag_462\n      jumpi\n        /* \"#utility.yul\":10404:10405   */\n      0x00\n        /* \"#utility.yul\":10401:10402   */\n      dup1\n        /* \"#utility.yul\":10394:10406   */\n      revert\n        /* \"#utility.yul\":10356:10408   */\n    tag_462:\n        /* \"#utility.yul\":10427:10456   */\n      tag_463\n        /* \"#utility.yul\":10446:10455   */\n      dup5\n        /* \"#utility.yul\":10427:10456   */\n      tag_346\n      jump\t// in\n    tag_463:\n        /* \"#utility.yul\":10417:10456   */\n      swap6\n        /* \"#utility.yul\":10503:10505   */\n      0x20\n        /* \"#utility.yul\":10488:10506   */\n      dup6\n      add\n        /* \"#utility.yul\":10475:10507   */\n      calldataload\n      swap6\n      pop\n        /* \"#utility.yul\":10554:10556   */\n      0x40\n        /* \"#utility.yul\":10539:10557   */\n      swap1\n      swap5\n      add\n        /* \"#utility.yul\":10526:10558   */\n      calldataload\n      swap4\n        /* \"#utility.yul\":10242:10564   */\n      swap3\n      pop\n      pop\n      pop\n      jump\t// out\n        /* \"#utility.yul\":10569:11006   */\n    tag_133:\n        /* \"#utility.yul\":10648:10649   */\n      0x01\n        /* \"#utility.yul\":10644:10656   */\n      dup2\n      dup2\n      shr\n      swap1\n        /* \"#utility.yul\":10691:10703   */\n      dup3\n      and\n      dup1\n        /* \"#utility.yul\":10712:10773   */\n      tag_465\n      jumpi\n        /* \"#utility.yul\":10766:10770   */\n      0x7f\n        /* \"#utility.yul\":10758:10764   */\n      dup3\n        /* \"#utility.yul\":10754:10771   */\n      and\n        /* \"#utility.yul\":10744:10771   */\n      swap2\n      pop\n        /* \"#utility.yul\":10712:10773   */\n    tag_465:\n        /* \"#utility.yul\":10819:10821   */\n      0x20\n        /* \"#utility.yul\":10811:10817   */\n      dup3\n        /* \"#utility.yul\":10808:10822   */\n      lt\n        /* \"#utility.yul\":10788:10806   */\n      dup2\n        /* \"#utility.yul\":10785:10823   */\n      sub\n        /* \"#utility.yul\":10782:11000   */\n      tag_466\n      jumpi\n      shl(0xe0, 0x4e487b71)\n        /* \"#utility.yul\":10853:10854   */\n      0x00\n        /* \"#utility.yul\":10846:10934   */\n      mstore\n        /* \"#utility.yul\":10957:10961   */\n      0x22\n        /* \"#utility.yul\":10954:10955   */\n      0x04\n        /* \"#utility.yul\":10947:10962   */\n      mstore\n        /* \"#utility.yul\":10985:10989   */\n      0x24\n        /* \"#utility.yul\":10982:10983   */\n      0x00\n        /* \"#utility.yul\":10975:10990   */\n      revert\n        /* \"#utility.yul\":10782:11000   */\n    tag_466:\n      pop\n        /* \"#utility.yul\":10569:11006   */\n      swap2\n      swap1\n      pop\n      jump\t// out\n        /* \"#utility.yul\":11356:11635   */\n    tag_144:\n        /* \"#utility.yul\":11421:11430   */\n      dup1\n      dup3\n      add\n        /* \"#utility.yul\":11442:11452   */\n      dup1\n      dup3\n      gt\n        /* \"#utility.yul\":11439:11629   */\n      iszero\n      tag_125\n      jumpi\n      shl(0xe0, 0x4e487b71)\n        /* \"#utility.yul\":11482:11483   */\n      0x00\n        /* \"#utility.yul\":11475:11563   */\n      mstore\n        /* \"#utility.yul\":11586:11590   */\n      0x11\n        /* \"#utility.yul\":11583:11584   */\n      0x04\n        /* \"#utility.yul\":11576:11591   */\n      mstore\n        /* \"#utility.yul\":11614:11618   */\n      0x24\n        /* \"#utility.yul\":11611:11612   */\n      0x00\n        /* \"#utility.yul\":11604:11619   */\n      revert\n        /* \"#utility.yul\":12567:12751   */\n    tag_184:\n      shl(0xe0, 0x4e487b71)\n        /* \"#utility.yul\":12616:12617   */\n      0x00\n        /* \"#utility.yul\":12609:12697   */\n      mstore\n        /* \"#utility.yul\":12716:12720   */\n      0x32\n        /* \"#utility.yul\":12713:12714   */\n      0x04\n        /* \"#utility.yul\":12706:12721   */\n      mstore\n        /* \"#utility.yul\":12740:12744   */\n      0x24\n        /* \"#utility.yul\":12737:12738   */\n      0x00\n        /* \"#utility.yul\":12730:12745   */\n      revert\n        /* \"#utility.yul\":13562:14027   */\n    tag_308:\n        /* \"#utility.yul\":13819:13821   */\n      0x40\n        /* \"#utility.yul\":13808:13817   */\n      dup2\n        /* \"#utility.yul\":13801:13822   */\n      mstore\n        /* \"#utility.yul\":13782:13786   */\n      0x00\n        /* \"#utility.yul\":13845:13901   */\n      tag_477\n        /* \"#utility.yul\":13897:13899   */\n      0x40\n        /* \"#utility.yul\":13886:13895   */\n      dup4\n        /* \"#utility.yul\":13882:13900   */\n      add\n        /* \"#utility.yul\":13874:13880   */\n      dup6\n        /* \"#utility.yul\":13845:13901   */\n      tag_353\n      jump\t// in\n    tag_477:\n        /* \"#utility.yul\":13949:13958   */\n      dup3\n        /* \"#utility.yul\":13941:13947   */\n      dup2\n        /* \"#utility.yul\":13937:13959   */\n      sub\n        /* \"#utility.yul\":13932:13934   */\n      0x20\n        /* \"#utility.yul\":13921:13930   */\n      dup5\n        /* \"#utility.yul\":13917:13935   */\n      add\n        /* \"#utility.yul\":13910:13960   */\n      mstore\n        /* \"#utility.yul\":13977:14021   */\n      tag_478\n        /* \"#utility.yul\":14014:14020   */\n      dup2\n        /* \"#utility.yul\":14006:14012   */\n      dup6\n        /* \"#utility.yul\":13977:14021   */\n      tag_353\n      jump\t// in\n    tag_478:\n        /* \"#utility.yul\":13969:14021   */\n      swap6\n        /* \"#utility.yul\":13562:14027   */\n      swap5\n      pop\n      pop\n      pop\n      pop\n      pop\n      jump\t// out\n        /* \"#utility.yul\":14032:14616   */\n    tag_312:\n        /* \"#utility.yul\":14254:14258   */\n      0x00\n      sub(shl(0xa0, 0x01), 0x01)\n        /* \"#utility.yul\":14364:14366   */\n      dup1\n        /* \"#utility.yul\":14356:14362   */\n      dup9\n        /* \"#utility.yul\":14352:14367   */\n      and\n        /* \"#utility.yul\":14341:14350   */\n      dup4\n        /* \"#utility.yul\":14334:14368   */\n      mstore\n        /* \"#utility.yul\":14416:14418   */\n      dup1\n        /* \"#utility.yul\":14408:14414   */\n      dup8\n        /* \"#utility.yul\":14404:14419   */\n      and\n        /* \"#utility.yul\":14399:14401   */\n      0x20\n        /* \"#utility.yul\":14388:14397   */\n      dup5\n        /* \"#utility.yul\":14384:14402   */\n      add\n        /* \"#utility.yul\":14377:14420   */\n      mstore\n      pop\n        /* \"#utility.yul\":14456:14462   */\n      dup5\n        /* \"#utility.yul\":14451:14453   */\n      0x40\n        /* \"#utility.yul\":14440:14449   */\n      dup4\n        /* \"#utility.yul\":14436:14454   */\n      add\n        /* \"#utility.yul\":14429:14463   */\n      mstore\n        /* \"#utility.yul\":14499:14505   */\n      dup4\n        /* \"#utility.yul\":14494:14496   */\n      0x60\n        /* \"#utility.yul\":14483:14492   */\n      dup4\n        /* \"#utility.yul\":14479:14497   */\n      add\n        /* \"#utility.yul\":14472:14506   */\n      mstore\n        /* \"#utility.yul\":14543:14546   */\n      0xa0\n        /* \"#utility.yul\":14537:14540   */\n      0x80\n        /* \"#utility.yul\":14526:14535   */\n      dup4\n        /* \"#utility.yul\":14522:14541   */\n      add\n        /* \"#utility.yul\":14515:14547   */\n      mstore\n        /* \"#utility.yul\":14564:14610   */\n      tag_480\n        /* \"#utility.yul\":14605:14608   */\n      0xa0\n        /* \"#utility.yul\":14594:14603   */\n      dup4\n        /* \"#utility.yul\":14590:14609   */\n      add\n        /* \"#utility.yul\":14582:14588   */\n      dup5\n        /* \"#utility.yul\":14564:14610   */\n      tag_348\n      jump\t// in\n    tag_480:\n        /* \"#utility.yul\":14556:14610   */\n      swap8\n        /* \"#utility.yul\":14032:14616   */\n      swap7\n      pop\n      pop\n      pop\n      pop\n      pop\n      pop\n      pop\n      jump\t// out\n        /* \"#utility.yul\":14621:14870   */\n    tag_315:\n        /* \"#utility.yul\":14690:14696   */\n      0x00\n        /* \"#utility.yul\":14743:14745   */\n      0x20\n        /* \"#utility.yul\":14731:14740   */\n      dup3\n        /* \"#utility.yul\":14722:14729   */\n      dup5\n        /* \"#utility.yul\":14718:14741   */\n      sub\n        /* \"#utility.yul\":14714:14746   */\n      slt\n        /* \"#utility.yul\":14711:14763   */\n      iszero\n      tag_482\n      jumpi\n        /* \"#utility.yul\":14759:14760   */\n      0x00\n        /* \"#utility.yul\":14756:14757   */\n      dup1\n        /* \"#utility.yul\":14749:14761   */\n      revert\n        /* \"#utility.yul\":14711:14763   */\n    tag_482:\n        /* \"#utility.yul\":14791:14800   */\n      dup2\n        /* \"#utility.yul\":14785:14801   */\n      mload\n        /* \"#utility.yul\":14810:14840   */\n      tag_365\n        /* \"#utility.yul\":14834:14839   */\n      dup2\n        /* \"#utility.yul\":14810:14840   */\n      tag_347\n      jump\t// in\n        /* \"#utility.yul\":14875:15725   */\n    tag_331:\n        /* \"#utility.yul\":15197:15201   */\n      0x00\n      sub(shl(0xa0, 0x01), 0x01)\n        /* \"#utility.yul\":15307:15309   */\n      dup1\n        /* \"#utility.yul\":15299:15305   */\n      dup9\n        /* \"#utility.yul\":15295:15310   */\n      and\n        /* \"#utility.yul\":15284:15293   */\n      dup4\n        /* \"#utility.yul\":15277:15311   */\n      mstore\n        /* \"#utility.yul\":15359:15361   */\n      dup1\n        /* \"#utility.yul\":15351:15357   */\n      dup8\n        /* \"#utility.yul\":15347:15362   */\n      and\n        /* \"#utility.yul\":15342:15344   */\n      0x20\n        /* \"#utility.yul\":15331:15340   */\n      dup5\n        /* \"#utility.yul\":15327:15345   */\n      add\n        /* \"#utility.yul\":15320:15363   */\n      mstore\n      pop\n        /* \"#utility.yul\":15399:15402   */\n      0xa0\n        /* \"#utility.yul\":15394:15396   */\n      0x40\n        /* \"#utility.yul\":15383:15392   */\n      dup4\n        /* \"#utility.yul\":15379:15397   */\n      add\n        /* \"#utility.yul\":15372:15403   */\n      mstore\n        /* \"#utility.yul\":15426:15483   */\n      tag_485\n        /* \"#utility.yul\":15478:15481   */\n      0xa0\n        /* \"#utility.yul\":15467:15476   */\n      dup4\n        /* \"#utility.yul\":15463:15482   */\n      add\n        /* \"#utility.yul\":15455:15461   */\n      dup7\n        /* \"#utility.yul\":15426:15483   */\n      tag_353\n      jump\t// in\n    tag_485:\n        /* \"#utility.yul\":15531:15540   */\n      dup3\n        /* \"#utility.yul\":15523:15529   */\n      dup2\n        /* \"#utility.yul\":15519:15541   */\n      sub\n        /* \"#utility.yul\":15514:15516   */\n      0x60\n        /* \"#utility.yul\":15503:15512   */\n      dup5\n        /* \"#utility.yul\":15499:15517   */\n      add\n        /* \"#utility.yul\":15492:15542   */\n      mstore\n        /* \"#utility.yul\":15565:15609   */\n      tag_486\n        /* \"#utility.yul\":15602:15608   */\n      dup2\n        /* \"#utility.yul\":15594:15600   */\n      dup7\n        /* \"#utility.yul\":15565:15609   */\n      tag_353\n      jump\t// in\n    tag_486:\n        /* \"#utility.yul\":15551:15609   */\n      swap1\n      pop\n        /* \"#utility.yul\":15658:15667   */\n      dup3\n        /* \"#utility.yul\":15650:15656   */\n      dup2\n        /* \"#utility.yul\":15646:15668   */\n      sub\n        /* \"#utility.yul\":15640:15643   */\n      0x80\n        /* \"#utility.yul\":15629:15638   */\n      dup5\n        /* \"#utility.yul\":15625:15644   */\n      add\n        /* \"#utility.yul\":15618:15669   */\n      mstore\n        /* \"#utility.yul\":15686:15719   */\n      tag_487\n        /* \"#utility.yul\":15712:15718   */\n      dup2\n        /* \"#utility.yul\":15704:15710   */\n      dup6\n        /* \"#utility.yul\":15686:15719   */\n      tag_348\n      jump\t// in\n    tag_487:\n        /* \"#utility.yul\":15678:15719   */\n      swap9\n        /* \"#utility.yul\":14875:15725   */\n      swap8\n      pop\n      pop\n      pop\n      pop\n      pop\n      pop\n      pop\n      pop\n      jump\t// out\n\n    auxdata: 0xa26469706673582212202415f628003395ffa510fc79ef0997c9e9aeff30dad6279a292bb784d277104464736f6c63430008180033\n}\n",
				"bytecode": {
					"linkReferences": {},
					"object": "608060405234801562000010575f80fd5b503360405180608001604052806047815260200162001b2460479139620000378162000078565b506001600160a01b0381166200006657604051631e4fbdf760e01b81525f600482015260240160405180910390fd5b62000071816200008a565b5062000245565b600262000086828262000179565b5050565b600380546001600160a01b038381166001600160a01b0319831681179093556040519116919082907f8be0079c531659141344cd1fd0a4f28419497f9722a3daafe3b4186f6b6457e0905f90a35050565b634e487b7160e01b5f52604160045260245ffd5b600181811c908216806200010457607f821691505b6020821081036200012357634e487b7160e01b5f52602260045260245ffd5b50919050565b601f8211156200017457805f5260205f20601f840160051c81016020851015620001505750805b601f840160051c820191505b8181101562000171575f81556001016200015c565b50505b505050565b81516001600160401b03811115620001955762000195620000db565b620001ad81620001a68454620000ef565b8462000129565b602080601f831160018114620001e3575f8415620001cb5750858301515b5f19600386901b1c1916600185901b1785556200023d565b5f85815260208120601f198616915b828110156200021357888601518255948401946001909101908401620001f2565b50858210156200023157878501515f19600388901b60f8161c191681555b505060018460011b0185555b505050505050565b6118d180620002535f395ff3fe608060405234801561000f575f80fd5b5060043610610183575f3560e01c80636b20c454116100dd578063d99939a211610088578063f242432a11610063578063f242432a14610330578063f2fde38b14610343578063f5298aca14610356575f80fd5b8063d99939a2146102e6578063e74d3862146102ed578063e985e9c5146102f5575f80fd5b80638da5cb5b116100b85780638da5cb5b146102b0578063a22cb465146102cb578063a3cacc85146102de575f80fd5b80636b20c4541461028d578063715018a6146102a057806382c0fa30146102a8575f80fd5b80631b2ef1ca1161013d578063453f6a3211610118578063453f6a321461025d5780634a3268e4146102655780634e1273f41461026d575f80fd5b80631b2ef1ca146102225780631f7fdffa146102375780632eb2c2d61461024a575f80fd5b80630ce52e071161016d5780630ce52e07146101d05780630d9371ad146101fa5780630e89341c14610202575f80fd5b8062fdd58e1461018757806301ffc9a7146101ad575b5f80fd5b61019a610195366004611160565b610369565b6040519081526020015b60405180910390f35b6101c06101bb36600461119d565b610390565b60405190151581526020016101a4565b61019a6101de366004611160565b600460209081525f928352604080842090915290825290205481565b61019a600481565b6102156102103660046111bf565b61042a565b6040516101a49190611219565b61023561023036600461122b565b6104bc565b005b61023561024536600461138b565b6105be565b61023561025836600461141e565b6105d8565b61019a600381565b61019a600181565b61028061027b3660046114c1565b61065d565b6040516101a491906115b5565b61023561029b3660046115c7565b610728565b6102356107bd565b61019a600281565b6003546040516001600160a01b0390911681526020016101a4565b6102356102d9366004611636565b6107d0565b61019a600681565b61019a5f81565b61019a600581565b6101c061030336600461166f565b6001600160a01b039182165f90815260016020908152604080832093909416825291909152205460ff1690565b61023561033e3660046116a0565b6107db565b610235610351366004611700565b610858565b610235610364366004611719565b6108ae565b5f818152602081815260408083206001600160a01b03861684529091529020545b92915050565b5f6001600160e01b031982167fd9b67a260000000000000000000000000000000000000000000000000000000014806103f257506001600160e01b031982167f0e89341c00000000000000000000000000000000000000000000000000000000145b8061038a57507f01ffc9a7000000000000000000000000000000000000000000000000000000006001600160e01b031983161461038a565b60606002805461043990611749565b80601f016020809104026020016040519081016040528092919081815260200182805461046590611749565b80156104b05780601f10610487576101008083540402835291602001916104b0565b820191905f5260205f20905b81548152906001019060200180831161049357829003601f168201915b50505050509050919050565b60028211156105125760405162461bcd60e51b815260206004820152601060248201527f496e76616c696420746f6b656e2049440000000000000000000000000000000060448201526064015b60405180910390fd5b335f90815260046020908152604080832085845290915290205461053790603c611781565b4210156105865760405162461bcd60e51b815260206004820152600d60248201527f4d696e7420636f6f6c646f776e000000000000000000000000000000000000006044820152606401610509565b335f8181526004602090815260408083208684528252808320429055805191820190529081526105ba91908490849061093e565b5050565b6105c6610999565b6105d2848484846109df565b50505050565b336001600160a01b038616811480159061061757506001600160a01b038087165f9081526001602090815260408083209385168352929052205460ff16155b156106485760405163711bec9160e11b81526001600160a01b03808316600483015287166024820152604401610509565b6106558686868686610a15565b505050505050565b6060815183511461068e5781518351604051635b05999160e01b815260048101929092526024820152604401610509565b5f835167ffffffffffffffff8111156106a9576106a961124b565b6040519080825280602002602001820160405280156106d2578160200160208202803683370190505b5090505f5b8451811015610720576020808202860101516106fb90602080840287010151610369565b82828151811061070d5761070d6117a0565b60209081029190910101526001016106d7565b509392505050565b336001600160a01b038416148061076157506001600160a01b0383165f90815260016020908152604080832033845290915290205460ff165b6107ad5760405162461bcd60e51b815260206004820181905260248201527f43616c6c6572206973206e6f74206f776e6572206e6f7220617070726f7665646044820152606401610509565b6107b8838383610a7a565b505050565b6107c5610999565b6107ce5f610abd565b565b6105ba338383610b26565b336001600160a01b038616811480159061081a57506001600160a01b038087165f9081526001602090815260408083209385168352929052205460ff16155b1561084b5760405163711bec9160e11b81526001600160a01b03808316600483015287166024820152604401610509565b6106558686868686610bd4565b610860610999565b6001600160a01b0381166108a2576040517f1e4fbdf70000000000000000000000000000000000000000000000000000000081525f6004820152602401610509565b6108ab81610abd565b50565b336001600160a01b03841614806108e757506001600160a01b0383165f90815260016020908152604080832033845290915290205460ff165b6109335760405162461bcd60e51b815260206004820181905260248201527f43616c6c6572206973206e6f74206f776e6572206e6f7220617070726f7665646044820152606401610509565b6107b8838383610c60565b6001600160a01b03841661096757604051632bfa23e760e11b81525f6004820152602401610509565b604080516001808252602082018690528183019081526060820185905260808201909252906106555f87848487610cc2565b6003546001600160a01b031633146107ce576040517f118cdaa7000000000000000000000000000000000000000000000000000000008152336004820152602401610509565b6001600160a01b038416610a0857604051632bfa23e760e11b81525f6004820152602401610509565b6105d25f85858585610cc2565b6001600160a01b038416610a3e57604051632bfa23e760e11b81525f6004820152602401610509565b6001600160a01b038516610a6657604051626a0d4560e21b81525f6004820152602401610509565b610a738585858585610cc2565b5050505050565b6001600160a01b038316610aa257604051626a0d4560e21b81525f6004820152602401610509565b6107b8835f848460405180602001604052805f815250610cc2565b600380546001600160a01b038381167fffffffffffffffffffffffff0000000000000000000000000000000000000000831681179093556040519116919082907f8be0079c531659141344cd1fd0a4f28419497f9722a3daafe3b4186f6b6457e0905f90a35050565b6001600160a01b038216610b68576040517fced3e1000000000000000000000000000000000000000000000000000000000081525f6004820152602401610509565b6001600160a01b038381165f81815260016020908152604080832094871680845294825291829020805460ff191686151590811790915591519182527f17307eab39ab6107e8899845ad3d59bd9653f200f220920489ca2b5937696c31910160405180910390a3505050565b6001600160a01b038416610bfd57604051632bfa23e760e11b81525f6004820152602401610509565b6001600160a01b038516610c2557604051626a0d4560e21b81525f6004820152602401610509565b60408051600180825260208201869052818301908152606082018590526080820190925290610c578787848487610cc2565b50505050505050565b6001600160a01b038316610c8857604051626a0d4560e21b81525f6004820152602401610509565b604080516001808252602082018590528183019081526060820184905260a082019092525f60808201818152919291610a73918791859085905b610cce85858585610d15565b6001600160a01b03841615610a735782513390600103610d075760208481015190840151610d00838989858589610f3d565b5050610655565b61065581878787878761105e565b8051825114610d445781518151604051635b05999160e01b815260048101929092526024820152604401610509565b335f5b8351811015610e5f576020818102858101820151908501909101516001600160a01b03881615610e11575f828152602081815260408083206001600160a01b038c16845290915290205481811015610deb576040517f03dee4c50000000000000000000000000000000000000000000000000000000081526001600160a01b038a166004820152602481018290526044810183905260648101849052608401610509565b5f838152602081815260408083206001600160a01b038d16845290915290209082900390555b6001600160a01b03871615610e55575f828152602081815260408083206001600160a01b038b16845290915281208054839290610e4f908490611781565b90915550505b5050600101610d47565b508251600103610edf5760208301515f906020840151909150856001600160a01b0316876001600160a01b0316846001600160a01b03167fc3d58168c5ae7397731d063d5bbf3d657854427343f4c083240f7aacaa2d0f628585604051610ed0929190918252602082015260400190565b60405180910390a45050610a73565b836001600160a01b0316856001600160a01b0316826001600160a01b03167f4a39dc06d4c0dbc64b70af90fd698a233a518aa5d07e595d983b8c0526c8f7fb8686604051610f2e9291906117b4565b60405180910390a45050505050565b6001600160a01b0384163b156106555760405163f23a6e6160e01b81526001600160a01b0385169063f23a6e6190610f8190899089908890889088906004016117e1565b6020604051808303815f875af1925050508015610fbb575060408051601f3d908101601f19168201909252610fb891810190611823565b60015b611022573d808015610fe8576040519150601f19603f3d011682016040523d82523d5f602084013e610fed565b606091505b5080515f0361101a57604051632bfa23e760e11b81526001600160a01b0386166004820152602401610509565b805181602001fd5b6001600160e01b0319811663f23a6e6160e01b14610c5757604051632bfa23e760e11b81526001600160a01b0386166004820152602401610509565b6001600160a01b0384163b156106555760405163bc197c8160e01b81526001600160a01b0385169063bc197c81906110a2908990899088908890889060040161183e565b6020604051808303815f875af19250505080156110dc575060408051601f3d908101601f191682019092526110d991810190611823565b60015b611109573d808015610fe8576040519150601f19603f3d011682016040523d82523d5f602084013e610fed565b6001600160e01b0319811663bc197c8160e01b14610c5757604051632bfa23e760e11b81526001600160a01b0386166004820152602401610509565b80356001600160a01b038116811461115b575f80fd5b919050565b5f8060408385031215611171575f80fd5b61117a83611145565b946020939093013593505050565b6001600160e01b0319811681146108ab575f80fd5b5f602082840312156111ad575f80fd5b81356111b881611188565b9392505050565b5f602082840312156111cf575f80fd5b5035919050565b5f81518084525f5b818110156111fa576020818501810151868301820152016111de565b505f602082860101526020601f19601f83011685010191505092915050565b602081525f6111b860208301846111d6565b5f806040838503121561123c575f80fd5b50508035926020909101359150565b634e487b7160e01b5f52604160045260245ffd5b604051601f8201601f1916810167ffffffffffffffff811182821017156112885761128861124b565b604052919050565b5f67ffffffffffffffff8211156112a9576112a961124b565b5060051b60200190565b5f82601f8301126112c2575f80fd5b813560206112d76112d283611290565b61125f565b8083825260208201915060208460051b8701019350868411156112f8575f80fd5b602086015b8481101561131457803583529183019183016112fd565b509695505050505050565b5f82601f83011261132e575f80fd5b813567ffffffffffffffff8111156113485761134861124b565b61135b601f8201601f191660200161125f565b81815284602083860101111561136f575f80fd5b816020850160208301375f918101602001919091529392505050565b5f805f806080858703121561139e575f80fd5b6113a785611145565b9350602085013567ffffffffffffffff808211156113c3575f80fd5b6113cf888389016112b3565b945060408701359150808211156113e4575f80fd5b6113f0888389016112b3565b93506060870135915080821115611405575f80fd5b506114128782880161131f565b91505092959194509250565b5f805f805f60a08688031215611432575f80fd5b61143b86611145565b945061144960208701611145565b9350604086013567ffffffffffffffff80821115611465575f80fd5b61147189838a016112b3565b94506060880135915080821115611486575f80fd5b61149289838a016112b3565b935060808801359150808211156114a7575f80fd5b506114b48882890161131f565b9150509295509295909350565b5f80604083850312156114d2575f80fd5b823567ffffffffffffffff808211156114e9575f80fd5b818501915085601f8301126114fc575f80fd5b8135602061150c6112d283611290565b82815260059290921b8401810191818101908984111561152a575f80fd5b948201945b8386101561154f5761154086611145565b8252948201949082019061152f565b96505086013592505080821115611564575f80fd5b50611571858286016112b3565b9150509250929050565b5f815180845260208085019450602084015f5b838110156115aa5781518752958201959082019060010161158e565b509495945050505050565b602081525f6111b8602083018461157b565b5f805f606084860312156115d9575f80fd5b6115e284611145565b9250602084013567ffffffffffffffff808211156115fe575f80fd5b61160a878388016112b3565b9350604086013591508082111561161f575f80fd5b5061162c868287016112b3565b9150509250925092565b5f8060408385031215611647575f80fd5b61165083611145565b915060208301358015158114611664575f80fd5b809150509250929050565b5f8060408385031215611680575f80fd5b61168983611145565b915061169760208401611145565b90509250929050565b5f805f805f60a086880312156116b4575f80fd5b6116bd86611145565b94506116cb60208701611145565b93506040860135925060608601359150608086013567ffffffffffffffff8111156116f4575f80fd5b6114b48882890161131f565b5f60208284031215611710575f80fd5b6111b882611145565b5f805f6060848603121561172b575f80fd5b61173484611145565b95602085013595506040909401359392505050565b600181811c9082168061175d57607f821691505b60208210810361177b57634e487b7160e01b5f52602260045260245ffd5b50919050565b8082018082111561038a57634e487b7160e01b5f52601160045260245ffd5b634e487b7160e01b5f52603260045260245ffd5b604081525f6117c6604083018561157b565b82810360208401526117d8818561157b565b95945050505050565b5f6001600160a01b03808816835280871660208401525084604083015283606083015260a0608083015261181860a08301846111d6565b979650505050505050565b5f60208284031215611833575f80fd5b81516111b881611188565b5f6001600160a01b03808816835280871660208401525060a0604083015261186960a083018661157b565b828103606084015261187b818661157b565b9050828103608084015261188f81856111d6565b9897505050505050505056fea26469706673582212202415f628003395ffa510fc79ef0997c9e9aeff30dad6279a292bb784d277104464736f6c63430008180033697066733a2f2f6261667962656968726b6c623232327367696f77726a6365673736726d7171707a716979756a6d6e75667633637135377373656d647862626534752f7b69647d",
					"opcodes": "PUSH1 0x80 PUSH1 0x40 MSTORE CALLVALUE DUP1 ISZERO PUSH3 0x10 JUMPI PUSH0 DUP1 REVERT JUMPDEST POP CALLER PUSH1 0x40 MLOAD DUP1 PUSH1 0x80 ADD PUSH1 0x40 MSTORE DUP1 PUSH1 0x47 DUP2 MSTORE PUSH1 0x20 ADD PUSH3 0x1B24 PUSH1 0x47 SWAP2 CODECOPY PUSH3 0x37 DUP2 PUSH3 0x78 JUMP JUMPDEST POP PUSH1 0x1 PUSH1 0x1 PUSH1 0xA0 SHL SUB DUP2 AND PUSH3 0x66 JUMPI PUSH1 0x40 MLOAD PUSH4 0x1E4FBDF7 PUSH1 0xE0 SHL DUP2 MSTORE PUSH0 PUSH1 0x4 DUP3 ADD MSTORE PUSH1 0x24 ADD PUSH1 0x40 MLOAD DUP1 SWAP2 SUB SWAP1 REVERT JUMPDEST PUSH3 0x71 DUP2 PUSH3 0x8A JUMP JUMPDEST POP PUSH3 0x245 JUMP JUMPDEST PUSH1 0x2 PUSH3 0x86 DUP3 DUP3 PUSH3 0x179 JUMP JUMPDEST POP POP JUMP JUMPDEST PUSH1 0x3 DUP1 SLOAD PUSH1 0x1 PUSH1 0x1 PUSH1 0xA0 SHL SUB DUP4 DUP2 AND PUSH1 0x1 PUSH1 0x1 PUSH1 0xA0 SHL SUB NOT DUP4 AND DUP2 OR SWAP1 SWAP4 SSTORE PUSH1 0x40 MLOAD SWAP2 AND SWAP2 SWAP1 DUP3 SWAP1 PUSH32 0x8BE0079C531659141344CD1FD0A4F28419497F9722A3DAAFE3B4186F6B6457E0 SWAP1 PUSH0 SWAP1 LOG3 POP POP JUMP JUMPDEST PUSH4 0x4E487B71 PUSH1 0xE0 SHL PUSH0 MSTORE PUSH1 0x41 PUSH1 0x4 MSTORE PUSH1 0x24 PUSH0 REVERT JUMPDEST PUSH1 0x1 DUP2 DUP2 SHR SWAP1 DUP3 AND DUP1 PUSH3 0x104 JUMPI PUSH1 0x7F DUP3 AND SWAP2 POP JUMPDEST PUSH1 0x20 DUP3 LT DUP2 SUB PUSH3 0x123 JUMPI PUSH4 0x4E487B71 PUSH1 0xE0 SHL PUSH0 MSTORE PUSH1 0x22 PUSH1 0x4 MSTORE PUSH1 0x24 PUSH0 REVERT JUMPDEST POP SWAP2 SWAP1 POP JUMP JUMPDEST PUSH1 0x1F DUP3 GT ISZERO PUSH3 0x174 JUMPI DUP1 PUSH0 MSTORE PUSH1 0x20 PUSH0 KECCAK256 PUSH1 0x1F DUP5 ADD PUSH1 0x5 SHR DUP2 ADD PUSH1 0x20 DUP6 LT ISZERO PUSH3 0x150 JUMPI POP DUP1 JUMPDEST PUSH1 0x1F DUP5 ADD PUSH1 0x5 SHR DUP3 ADD SWAP2 POP JUMPDEST DUP2 DUP2 LT ISZERO PUSH3 0x171 JUMPI PUSH0 DUP2 SSTORE PUSH1 0x1 ADD PUSH3 0x15C JUMP JUMPDEST POP POP JUMPDEST POP POP POP JUMP JUMPDEST DUP2 MLOAD PUSH1 0x1 PUSH1 0x1 PUSH1 0x40 SHL SUB DUP2 GT ISZERO PUSH3 0x195 JUMPI PUSH3 0x195 PUSH3 0xDB JUMP JUMPDEST PUSH3 0x1AD DUP2 PUSH3 0x1A6 DUP5 SLOAD PUSH3 0xEF JUMP JUMPDEST DUP5 PUSH3 0x129 JUMP JUMPDEST PUSH1 0x20 DUP1 PUSH1 0x1F DUP4 GT PUSH1 0x1 DUP2 EQ PUSH3 0x1E3 JUMPI PUSH0 DUP5 ISZERO PUSH3 0x1CB JUMPI POP DUP6 DUP4 ADD MLOAD JUMPDEST PUSH0 NOT PUSH1 0x3 DUP7 SWAP1 SHL SHR NOT AND PUSH1 0x1 DUP6 SWAP1 SHL OR DUP6 SSTORE PUSH3 0x23D JUMP JUMPDEST PUSH0 DUP6 DUP2 MSTORE PUSH1 0x20 DUP2 KECCAK256 PUSH1 0x1F NOT DUP7 AND SWAP2 JUMPDEST DUP3 DUP2 LT ISZERO PUSH3 0x213 JUMPI DUP9 DUP7 ADD MLOAD DUP3 SSTORE SWAP5 DUP5 ADD SWAP5 PUSH1 0x1 SWAP1 SWAP2 ADD SWAP1 DUP5 ADD PUSH3 0x1F2 JUMP JUMPDEST POP DUP6 DUP3 LT ISZERO PUSH3 0x231 JUMPI DUP8 DUP6 ADD MLOAD PUSH0 NOT PUSH1 0x3 DUP9 SWAP1 SHL PUSH1 0xF8 AND SHR NOT AND DUP2 SSTORE JUMPDEST POP POP PUSH1 0x1 DUP5 PUSH1 0x1 SHL ADD DUP6 SSTORE JUMPDEST POP POP POP POP POP POP JUMP JUMPDEST PUSH2 0x18D1 DUP1 PUSH3 0x253 PUSH0 CODECOPY PUSH0 RETURN INVALID PUSH1 0x80 PUSH1 0x40 MSTORE CALLVALUE DUP1 ISZERO PUSH2 0xF JUMPI PUSH0 DUP1 REVERT JUMPDEST POP PUSH1 0x4 CALLDATASIZE LT PUSH2 0x183 JUMPI PUSH0 CALLDATALOAD PUSH1 0xE0 SHR DUP1 PUSH4 0x6B20C454 GT PUSH2 0xDD JUMPI DUP1 PUSH4 0xD99939A2 GT PUSH2 0x88 JUMPI DUP1 PUSH4 0xF242432A GT PUSH2 0x63 JUMPI DUP1 PUSH4 0xF242432A EQ PUSH2 0x330 JUMPI DUP1 PUSH4 0xF2FDE38B EQ PUSH2 0x343 JUMPI DUP1 PUSH4 0xF5298ACA EQ PUSH2 0x356 JUMPI PUSH0 DUP1 REVERT JUMPDEST DUP1 PUSH4 0xD99939A2 EQ PUSH2 0x2E6 JUMPI DUP1 PUSH4 0xE74D3862 EQ PUSH2 0x2ED JUMPI DUP1 PUSH4 0xE985E9C5 EQ PUSH2 0x2F5 JUMPI PUSH0 DUP1 REVERT JUMPDEST DUP1 PUSH4 0x8DA5CB5B GT PUSH2 0xB8 JUMPI DUP1 PUSH4 0x8DA5CB5B EQ PUSH2 0x2B0 JUMPI DUP1 PUSH4 0xA22CB465 EQ PUSH2 0x2CB JUMPI DUP1 PUSH4 0xA3CACC85 EQ PUSH2 0x2DE JUMPI PUSH0 DUP1 REVERT JUMPDEST DUP1 PUSH4 0x6B20C454 EQ PUSH2 0x28D JUMPI DUP1 PUSH4 0x715018A6 EQ PUSH2 0x2A0 JUMPI DUP1 PUSH4 0x82C0FA30 EQ PUSH2 0x2A8 JUMPI PUSH0 DUP1 REVERT JUMPDEST DUP1 PUSH4 0x1B2EF1CA GT PUSH2 0x13D JUMPI DUP1 PUSH4 0x453F6A32 GT PUSH2 0x118 JUMPI DUP1 PUSH4 0x453F6A32 EQ PUSH2 0x25D JUMPI DUP1 PUSH4 0x4A3268E4 EQ PUSH2 0x265 JUMPI DUP1 PUSH4 0x4E1273F4 EQ PUSH2 0x26D JUMPI PUSH0 DUP1 REVERT JUMPDEST DUP1 PUSH4 0x1B2EF1CA EQ PUSH2 0x222 JUMPI DUP1 PUSH4 0x1F7FDFFA EQ PUSH2 0x237 JUMPI DUP1 PUSH4 0x2EB2C2D6 EQ PUSH2 0x24A JUMPI PUSH0 DUP1 REVERT JUMPDEST DUP1 PUSH4 0xCE52E07 GT PUSH2 0x16D JUMPI DUP1 PUSH4 0xCE52E07 EQ PUSH2 0x1D0 JUMPI DUP1 PUSH4 0xD9371AD EQ PUSH2 0x1FA JUMPI DUP1 PUSH4 0xE89341C EQ PUSH2 0x202 JUMPI PUSH0 DUP1 REVERT JUMPDEST DUP1 PUSH3 0xFDD58E EQ PUSH2 0x187 JUMPI DUP1 PUSH4 0x1FFC9A7 EQ PUSH2 0x1AD JUMPI JUMPDEST PUSH0 DUP1 REVERT JUMPDEST PUSH2 0x19A PUSH2 0x195 CALLDATASIZE PUSH1 0x4 PUSH2 0x1160 JUMP JUMPDEST PUSH2 0x369 JUMP JUMPDEST PUSH1 0x40 MLOAD SWAP1 DUP2 MSTORE PUSH1 0x20 ADD JUMPDEST PUSH1 0x40 MLOAD DUP1 SWAP2 SUB SWAP1 RETURN JUMPDEST PUSH2 0x1C0 PUSH2 0x1BB CALLDATASIZE PUSH1 0x4 PUSH2 0x119D JUMP JUMPDEST PUSH2 0x390 JUMP JUMPDEST PUSH1 0x40 MLOAD SWAP1 ISZERO ISZERO DUP2 MSTORE PUSH1 0x20 ADD PUSH2 0x1A4 JUMP JUMPDEST PUSH2 0x19A PUSH2 0x1DE CALLDATASIZE PUSH1 0x4 PUSH2 0x1160 JUMP JUMPDEST PUSH1 0x4 PUSH1 0x20 SWAP1 DUP2 MSTORE PUSH0 SWAP3 DUP4 MSTORE PUSH1 0x40 DUP1 DUP5 KECCAK256 SWAP1 SWAP2 MSTORE SWAP1 DUP3 MSTORE SWAP1 KECCAK256 SLOAD DUP2 JUMP JUMPDEST PUSH2 0x19A PUSH1 0x4 DUP2 JUMP JUMPDEST PUSH2 0x215 PUSH2 0x210 CALLDATASIZE PUSH1 0x4 PUSH2 0x11BF JUMP JUMPDEST PUSH2 0x42A JUMP JUMPDEST PUSH1 0x40 MLOAD PUSH2 0x1A4 SWAP2 SWAP1 PUSH2 0x1219 JUMP JUMPDEST PUSH2 0x235 PUSH2 0x230 CALLDATASIZE PUSH1 0x4 PUSH2 0x122B JUMP JUMPDEST PUSH2 0x4BC JUMP JUMPDEST STOP JUMPDEST PUSH2 0x235 PUSH2 0x245 CALLDATASIZE PUSH1 0x4 PUSH2 0x138B JUMP JUMPDEST PUSH2 0x5BE JUMP JUMPDEST PUSH2 0x235 PUSH2 0x258 CALLDATASIZE PUSH1 0x4 PUSH2 0x141E JUMP JUMPDEST PUSH2 0x5D8 JUMP JUMPDEST PUSH2 0x19A PUSH1 0x3 DUP2 JUMP JUMPDEST PUSH2 0x19A PUSH1 0x1 DUP2 JUMP JUMPDEST PUSH2 0x280 PUSH2 0x27B CALLDATASIZE PUSH1 0x4 PUSH2 0x14C1 JUMP JUMPDEST PUSH2 0x65D JUMP JUMPDEST PUSH1 0x40 MLOAD PUSH2 0x1A4 SWAP2 SWAP1 PUSH2 0x15B5 JUMP JUMPDEST PUSH2 0x235 PUSH2 0x29B CALLDATASIZE PUSH1 0x4 PUSH2 0x15C7 JUMP JUMPDEST PUSH2 0x728 JUMP JUMPDEST PUSH2 0x235 PUSH2 0x7BD JUMP JUMPDEST PUSH2 0x19A PUSH1 0x2 DUP2 JUMP JUMPDEST PUSH1 0x3 SLOAD PUSH1 0x40 MLOAD PUSH1 0x1 PUSH1 0x1 PUSH1 0xA0 SHL SUB SWAP1 SWAP2 AND DUP2 MSTORE PUSH1 0x20 ADD PUSH2 0x1A4 JUMP JUMPDEST PUSH2 0x235 PUSH2 0x2D9 CALLDATASIZE PUSH1 0x4 PUSH2 0x1636 JUMP JUMPDEST PUSH2 0x7D0 JUMP JUMPDEST PUSH2 0x19A PUSH1 0x6 DUP2 JUMP JUMPDEST PUSH2 0x19A PUSH0 DUP2 JUMP JUMPDEST PUSH2 0x19A PUSH1 0x5 DUP2 JUMP JUMPDEST PUSH2 0x1C0 PUSH2 0x303 CALLDATASIZE PUSH1 0x4 PUSH2 0x166F JUMP JUMPDEST PUSH1 0x1 PUSH1 0x1 PUSH1 0xA0 SHL SUB SWAP2 DUP3 AND PUSH0 SWAP1 DUP2 MSTORE PUSH1 0x1 PUSH1 0x20 SWAP1 DUP2 MSTORE PUSH1 0x40 DUP1 DUP4 KECCAK256 SWAP4 SWAP1 SWAP5 AND DUP3 MSTORE SWAP2 SWAP1 SWAP2 MSTORE KECCAK256 SLOAD PUSH1 0xFF AND SWAP1 JUMP JUMPDEST PUSH2 0x235 PUSH2 0x33E CALLDATASIZE PUSH1 0x4 PUSH2 0x16A0 JUMP JUMPDEST PUSH2 0x7DB JUMP JUMPDEST PUSH2 0x235 PUSH2 0x351 CALLDATASIZE PUSH1 0x4 PUSH2 0x1700 JUMP JUMPDEST PUSH2 0x858 JUMP JUMPDEST PUSH2 0x235 PUSH2 0x364 CALLDATASIZE PUSH1 0x4 PUSH2 0x1719 JUMP JUMPDEST PUSH2 0x8AE JUMP JUMPDEST PUSH0 DUP2 DUP2 MSTORE PUSH1 0x20 DUP2 DUP2 MSTORE PUSH1 0x40 DUP1 DUP4 KECCAK256 PUSH1 0x1 PUSH1 0x1 PUSH1 0xA0 SHL SUB DUP7 AND DUP5 MSTORE SWAP1 SWAP2 MSTORE SWAP1 KECCAK256 SLOAD JUMPDEST SWAP3 SWAP2 POP POP JUMP JUMPDEST PUSH0 PUSH1 0x1 PUSH1 0x1 PUSH1 0xE0 SHL SUB NOT DUP3 AND PUSH32 0xD9B67A2600000000000000000000000000000000000000000000000000000000 EQ DUP1 PUSH2 0x3F2 JUMPI POP PUSH1 0x1 PUSH1 0x1 PUSH1 0xE0 SHL SUB NOT DUP3 AND PUSH32 0xE89341C00000000000000000000000000000000000000000000000000000000 EQ JUMPDEST DUP1 PUSH2 0x38A JUMPI POP PUSH32 0x1FFC9A700000000000000000000000000000000000000000000000000000000 PUSH1 0x1 PUSH1 0x1 PUSH1 0xE0 SHL SUB NOT DUP4 AND EQ PUSH2 0x38A JUMP JUMPDEST PUSH1 0x60 PUSH1 0x2 DUP1 SLOAD PUSH2 0x439 SWAP1 PUSH2 0x1749 JUMP JUMPDEST DUP1 PUSH1 0x1F ADD PUSH1 0x20 DUP1 SWAP2 DIV MUL PUSH1 0x20 ADD PUSH1 0x40 MLOAD SWAP1 DUP2 ADD PUSH1 0x40 MSTORE DUP1 SWAP3 SWAP2 SWAP1 DUP2 DUP2 MSTORE PUSH1 0x20 ADD DUP3 DUP1 SLOAD PUSH2 0x465 SWAP1 PUSH2 0x1749 JUMP JUMPDEST DUP1 ISZERO PUSH2 0x4B0 JUMPI DUP1 PUSH1 0x1F LT PUSH2 0x487 JUMPI PUSH2 0x100 DUP1 DUP4 SLOAD DIV MUL DUP4 MSTORE SWAP2 PUSH1 0x20 ADD SWAP2 PUSH2 0x4B0 JUMP JUMPDEST DUP3 ADD SWAP2 SWAP1 PUSH0 MSTORE PUSH1 0x20 PUSH0 KECCAK256 SWAP1 JUMPDEST DUP2 SLOAD DUP2 MSTORE SWAP1 PUSH1 0x1 ADD SWAP1 PUSH1 0x20 ADD DUP1 DUP4 GT PUSH2 0x493 JUMPI DUP3 SWAP1 SUB PUSH1 0x1F AND DUP3 ADD SWAP2 JUMPDEST POP POP POP POP POP SWAP1 POP SWAP2 SWAP1 POP JUMP JUMPDEST PUSH1 0x2 DUP3 GT ISZERO PUSH2 0x512 JUMPI PUSH1 0x40 MLOAD PUSH3 0x461BCD PUSH1 0xE5 SHL DUP2 MSTORE PUSH1 0x20 PUSH1 0x4 DUP3 ADD MSTORE PUSH1 0x10 PUSH1 0x24 DUP3 ADD MSTORE PUSH32 0x496E76616C696420746F6B656E20494400000000000000000000000000000000 PUSH1 0x44 DUP3 ADD MSTORE PUSH1 0x64 ADD JUMPDEST PUSH1 0x40 MLOAD DUP1 SWAP2 SUB SWAP1 REVERT JUMPDEST CALLER PUSH0 SWAP1 DUP2 MSTORE PUSH1 0x4 PUSH1 0x20 SWAP1 DUP2 MSTORE PUSH1 0x40 DUP1 DUP4 KECCAK256 DUP6 DUP5 MSTORE SWAP1 SWAP2 MSTORE SWAP1 KECCAK256 SLOAD PUSH2 0x537 SWAP1 PUSH1 0x3C PUSH2 0x1781 JUMP JUMPDEST TIMESTAMP LT ISZERO PUSH2 0x586 JUMPI PUSH1 0x40 MLOAD PUSH3 0x461BCD PUSH1 0xE5 SHL DUP2 MSTORE PUSH1 0x20 PUSH1 0x4 DUP3 ADD MSTORE PUSH1 0xD PUSH1 0x24 DUP3 ADD MSTORE PUSH32 0x4D696E7420636F6F6C646F776E00000000000000000000000000000000000000 PUSH1 0x44 DUP3 ADD MSTORE PUSH1 0x64 ADD PUSH2 0x509 JUMP JUMPDEST CALLER PUSH0 DUP2 DUP2 MSTORE PUSH1 0x4 PUSH1 0x20 SWAP1 DUP2 MSTORE PUSH1 0x40 DUP1 DUP4 KECCAK256 DUP7 DUP5 MSTORE DUP3 MSTORE DUP1 DUP4 KECCAK256 TIMESTAMP SWAP1 SSTORE DUP1 MLOAD SWAP2 DUP3 ADD SWAP1 MSTORE SWAP1 DUP2 MSTORE PUSH2 0x5BA SWAP2 SWAP1 DUP5 SWAP1 DUP5 SWAP1 PUSH2 0x93E JUMP JUMPDEST POP POP JUMP JUMPDEST PUSH2 0x5C6 PUSH2 0x999 JUMP JUMPDEST PUSH2 0x5D2 DUP5 DUP5 DUP5 DUP5 PUSH2 0x9DF JUMP JUMPDEST POP POP POP POP JUMP JUMPDEST CALLER PUSH1 0x1 PUSH1 0x1 PUSH1 0xA0 SHL SUB DUP7 AND DUP2 EQ DUP1 ISZERO SWAP1 PUSH2 0x617 JUMPI POP PUSH1 0x1 PUSH1 0x1 PUSH1 0xA0 SHL SUB DUP1 DUP8 AND PUSH0 SWAP1 DUP2 MSTORE PUSH1 0x1 PUSH1 0x20 SWAP1 DUP2 MSTORE PUSH1 0x40 DUP1 DUP4 KECCAK256 SWAP4 DUP6 AND DUP4 MSTORE SWAP3 SWAP1 MSTORE KECCAK256 SLOAD PUSH1 0xFF AND ISZERO JUMPDEST ISZERO PUSH2 0x648 JUMPI PUSH1 0x40 MLOAD PUSH4 0x711BEC91 PUSH1 0xE1 SHL DUP2 MSTORE PUSH1 0x1 PUSH1 0x1 PUSH1 0xA0 SHL SUB DUP1 DUP4 AND PUSH1 0x4 DUP4 ADD MSTORE DUP8 AND PUSH1 0x24 DUP3 ADD MSTORE PUSH1 0x44 ADD PUSH2 0x509 JUMP JUMPDEST PUSH2 0x655 DUP7 DUP7 DUP7 DUP7 DUP7 PUSH2 0xA15 JUMP JUMPDEST POP POP POP POP POP POP JUMP JUMPDEST PUSH1 0x60 DUP2 MLOAD DUP4 MLOAD EQ PUSH2 0x68E JUMPI DUP2 MLOAD DUP4 MLOAD PUSH1 0x40 MLOAD PUSH4 0x5B059991 PUSH1 0xE0 SHL DUP2 MSTORE PUSH1 0x4 DUP2 ADD SWAP3 SWAP1 SWAP3 MSTORE PUSH1 0x24 DUP3 ADD MSTORE PUSH1 0x44 ADD PUSH2 0x509 JUMP JUMPDEST PUSH0 DUP4 MLOAD PUSH8 0xFFFFFFFFFFFFFFFF DUP2 GT ISZERO PUSH2 0x6A9 JUMPI PUSH2 0x6A9 PUSH2 0x124B JUMP JUMPDEST PUSH1 0x40 MLOAD SWAP1 DUP1 DUP3 MSTORE DUP1 PUSH1 0x20 MUL PUSH1 0x20 ADD DUP3 ADD PUSH1 0x40 MSTORE DUP1 ISZERO PUSH2 0x6D2 JUMPI DUP2 PUSH1 0x20 ADD PUSH1 0x20 DUP3 MUL DUP1 CALLDATASIZE DUP4 CALLDATACOPY ADD SWAP1 POP JUMPDEST POP SWAP1 POP PUSH0 JUMPDEST DUP5 MLOAD DUP2 LT ISZERO PUSH2 0x720 JUMPI PUSH1 0x20 DUP1 DUP3 MUL DUP7 ADD ADD MLOAD PUSH2 0x6FB SWAP1 PUSH1 0x20 DUP1 DUP5 MUL DUP8 ADD ADD MLOAD PUSH2 0x369 JUMP JUMPDEST DUP3 DUP3 DUP2 MLOAD DUP2 LT PUSH2 0x70D JUMPI PUSH2 0x70D PUSH2 0x17A0 JUMP JUMPDEST PUSH1 0x20 SWAP1 DUP2 MUL SWAP2 SWAP1 SWAP2 ADD ADD MSTORE PUSH1 0x1 ADD PUSH2 0x6D7 JUMP JUMPDEST POP SWAP4 SWAP3 POP POP POP JUMP JUMPDEST CALLER PUSH1 0x1 PUSH1 0x1 PUSH1 0xA0 SHL SUB DUP5 AND EQ DUP1 PUSH2 0x761 JUMPI POP PUSH1 0x1 PUSH1 0x1 PUSH1 0xA0 SHL SUB DUP4 AND PUSH0 SWAP1 DUP2 MSTORE PUSH1 0x1 PUSH1 0x20 SWAP1 DUP2 MSTORE PUSH1 0x40 DUP1 DUP4 KECCAK256 CALLER DUP5 MSTORE SWAP1 SWAP2 MSTORE SWAP1 KECCAK256 SLOAD PUSH1 0xFF AND JUMPDEST PUSH2 0x7AD JUMPI PUSH1 0x40 MLOAD PUSH3 0x461BCD PUSH1 0xE5 SHL DUP2 MSTORE PUSH1 0x20 PUSH1 0x4 DUP3 ADD DUP2 SWAP1 MSTORE PUSH1 0x24 DUP3 ADD MSTORE PUSH32 0x43616C6C6572206973206E6F74206F776E6572206E6F7220617070726F766564 PUSH1 0x44 DUP3 ADD MSTORE PUSH1 0x64 ADD PUSH2 0x509 JUMP JUMPDEST PUSH2 0x7B8 DUP4 DUP4 DUP4 PUSH2 0xA7A JUMP JUMPDEST POP POP POP JUMP JUMPDEST PUSH2 0x7C5 PUSH2 0x999 JUMP JUMPDEST PUSH2 0x7CE PUSH0 PUSH2 0xABD JUMP JUMPDEST JUMP JUMPDEST PUSH2 0x5BA CALLER DUP4 DUP4 PUSH2 0xB26 JUMP JUMPDEST CALLER PUSH1 0x1 PUSH1 0x1 PUSH1 0xA0 SHL SUB DUP7 AND DUP2 EQ DUP1 ISZERO SWAP1 PUSH2 0x81A JUMPI POP PUSH1 0x1 PUSH1 0x1 PUSH1 0xA0 SHL SUB DUP1 DUP8 AND PUSH0 SWAP1 DUP2 MSTORE PUSH1 0x1 PUSH1 0x20 SWAP1 DUP2 MSTORE PUSH1 0x40 DUP1 DUP4 KECCAK256 SWAP4 DUP6 AND DUP4 MSTORE SWAP3 SWAP1 MSTORE KECCAK256 SLOAD PUSH1 0xFF AND ISZERO JUMPDEST ISZERO PUSH2 0x84B JUMPI PUSH1 0x40 MLOAD PUSH4 0x711BEC91 PUSH1 0xE1 SHL DUP2 MSTORE PUSH1 0x1 PUSH1 0x1 PUSH1 0xA0 SHL SUB DUP1 DUP4 AND PUSH1 0x4 DUP4 ADD MSTORE DUP8 AND PUSH1 0x24 DUP3 ADD MSTORE PUSH1 0x44 ADD PUSH2 0x509 JUMP JUMPDEST PUSH2 0x655 DUP7 DUP7 DUP7 DUP7 DUP7 PUSH2 0xBD4 JUMP JUMPDEST PUSH2 0x860 PUSH2 0x999 JUMP JUMPDEST PUSH1 0x1 PUSH1 0x1 PUSH1 0xA0 SHL SUB DUP2 AND PUSH2 0x8A2 JUMPI PUSH1 0x40 MLOAD PUSH32 0x1E4FBDF700000000000000000000000000000000000000000000000000000000 DUP2 MSTORE PUSH0 PUSH1 0x4 DUP3 ADD MSTORE PUSH1 0x24 ADD PUSH2 0x509 JUMP JUMPDEST PUSH2 0x8AB DUP2 PUSH2 0xABD JUMP JUMPDEST POP JUMP JUMPDEST CALLER PUSH1 0x1 PUSH1 0x1 PUSH1 0xA0 SHL SUB DUP5 AND EQ DUP1 PUSH2 0x8E7 JUMPI POP PUSH1 0x1 PUSH1 0x1 PUSH1 0xA0 SHL SUB DUP4 AND PUSH0 SWAP1 DUP2 MSTORE PUSH1 0x1 PUSH1 0x20 SWAP1 DUP2 MSTORE PUSH1 0x40 DUP1 DUP4 KECCAK256 CALLER DUP5 MSTORE SWAP1 SWAP2 MSTORE SWAP1 KECCAK256 SLOAD PUSH1 0xFF AND JUMPDEST PUSH2 0x933 JUMPI PUSH1 0x40 MLOAD PUSH3 0x461BCD PUSH1 0xE5 SHL DUP2 MSTORE PUSH1 0x20 PUSH1 0x4 DUP3 ADD DUP2 SWAP1 MSTORE PUSH1 0x24 DUP3 ADD MSTORE PUSH32 0x43616C6C6572206973206E6F74206F776E6572206E6F7220617070726F766564 PUSH1 0x44 DUP3 ADD MSTORE PUSH1 0x64 ADD PUSH2 0x509 JUMP JUMPDEST PUSH2 0x7B8 DUP4 DUP4 DUP4 PUSH2 0xC60 JUMP JUMPDEST PUSH1 0x1 PUSH1 0x1 PUSH1 0xA0 SHL SUB DUP5 AND PUSH2 0x967 JUMPI PUSH1 0x40 MLOAD PUSH4 0x2BFA23E7 PUSH1 0xE1 SHL DUP2 MSTORE PUSH0 PUSH1 0x4 DUP3 ADD MSTORE PUSH1 0x24 ADD PUSH2 0x509 JUMP JUMPDEST PUSH1 0x40 DUP1 MLOAD PUSH1 0x1 DUP1 DUP3 MSTORE PUSH1 0x20 DUP3 ADD DUP7 SWAP1 MSTORE DUP2 DUP4 ADD SWAP1 DUP2 MSTORE PUSH1 0x60 DUP3 ADD DUP6 SWAP1 MSTORE PUSH1 0x80 DUP3 ADD SWAP1 SWAP3 MSTORE SWAP1 PUSH2 0x655 PUSH0 DUP8 DUP5 DUP5 DUP8 PUSH2 0xCC2 JUMP JUMPDEST PUSH1 0x3 SLOAD PUSH1 0x1 PUSH1 0x1 PUSH1 0xA0 SHL SUB AND CALLER EQ PUSH2 0x7CE JUMPI PUSH1 0x40 MLOAD PUSH32 0x118CDAA700000000000000000000000000000000000000000000000000000000 DUP2 MSTORE CALLER PUSH1 0x4 DUP3 ADD MSTORE PUSH1 0x24 ADD PUSH2 0x509 JUMP JUMPDEST PUSH1 0x1 PUSH1 0x1 PUSH1 0xA0 SHL SUB DUP5 AND PUSH2 0xA08 JUMPI PUSH1 0x40 MLOAD PUSH4 0x2BFA23E7 PUSH1 0xE1 SHL DUP2 MSTORE PUSH0 PUSH1 0x4 DUP3 ADD MSTORE PUSH1 0x24 ADD PUSH2 0x509 JUMP JUMPDEST PUSH2 0x5D2 PUSH0 DUP6 DUP6 DUP6 DUP6 PUSH2 0xCC2 JUMP JUMPDEST PUSH1 0x1 PUSH1 0x1 PUSH1 0xA0 SHL SUB DUP5 AND PUSH2 0xA3E JUMPI PUSH1 0x40 MLOAD PUSH4 0x2BFA23E7 PUSH1 0xE1 SHL DUP2 MSTORE PUSH0 PUSH1 0x4 DUP3 ADD MSTORE PUSH1 0x24 ADD PUSH2 0x509 JUMP JUMPDEST PUSH1 0x1 PUSH1 0x1 PUSH1 0xA0 SHL SUB DUP6 AND PUSH2 0xA66 JUMPI PUSH1 0x40 MLOAD PUSH3 0x6A0D45 PUSH1 0xE2 SHL DUP2 MSTORE PUSH0 PUSH1 0x4 DUP3 ADD MSTORE PUSH1 0x24 ADD PUSH2 0x509 JUMP JUMPDEST PUSH2 0xA73 DUP6 DUP6 DUP6 DUP6 DUP6 PUSH2 0xCC2 JUMP JUMPDEST POP POP POP POP POP JUMP JUMPDEST PUSH1 0x1 PUSH1 0x1 PUSH1 0xA0 SHL SUB DUP4 AND PUSH2 0xAA2 JUMPI PUSH1 0x40 MLOAD PUSH3 0x6A0D45 PUSH1 0xE2 SHL DUP2 MSTORE PUSH0 PUSH1 0x4 DUP3 ADD MSTORE PUSH1 0x24 ADD PUSH2 0x509 JUMP JUMPDEST PUSH2 0x7B8 DUP4 PUSH0 DUP5 DUP5 PUSH1 0x40 MLOAD DUP1 PUSH1 0x20 ADD PUSH1 0x40 MSTORE DUP1 PUSH0 DUP2 MSTORE POP PUSH2 0xCC2 JUMP JUMPDEST PUSH1 0x3 DUP1 SLOAD PUSH1 0x1 PUSH1 0x1 PUSH1 0xA0 SHL SUB DUP4 DUP2 AND PUSH32 0xFFFFFFFFFFFFFFFFFFFFFFFF0000000000000000000000000000000000000000 DUP4 AND DUP2 OR SWAP1 SWAP4 SSTORE PUSH1 0x40 MLOAD SWAP2 AND SWAP2 SWAP1 DUP3 SWAP1 PUSH32 0x8BE0079C531659141344CD1FD0A4F28419497F9722A3DAAFE3B4186F6B6457E0 SWAP1 PUSH0 SWAP1 LOG3 POP POP JUMP JUMPDEST PUSH1 0x1 PUSH1 0x1 PUSH1 0xA0 SHL SUB DUP3 AND PUSH2 0xB68 JUMPI PUSH1 0x40 MLOAD PUSH32 0xCED3E10000000000000000000000000000000000000000000000000000000000 DUP2 MSTORE PUSH0 PUSH1 0x4 DUP3 ADD MSTORE PUSH1 0x24 ADD PUSH2 0x509 JUMP JUMPDEST PUSH1 0x1 PUSH1 0x1 PUSH1 0xA0 SHL SUB DUP4 DUP2 AND PUSH0 DUP2 DUP2 MSTORE PUSH1 0x1 PUSH1 0x20 SWAP1 DUP2 MSTORE PUSH1 0x40 DUP1 DUP4 KECCAK256 SWAP5 DUP8 AND DUP1 DUP5 MSTORE SWAP5 DUP3 MSTORE SWAP2 DUP3 SWAP1 KECCAK256 DUP1 SLOAD PUSH1 0xFF NOT AND DUP7 ISZERO ISZERO SWAP1 DUP2 OR SWAP1 SWAP2 SSTORE SWAP2 MLOAD SWAP2 DUP3 MSTORE PUSH32 0x17307EAB39AB6107E8899845AD3D59BD9653F200F220920489CA2B5937696C31 SWAP2 ADD PUSH1 0x40 MLOAD DUP1 SWAP2 SUB SWAP1 LOG3 POP POP POP JUMP JUMPDEST PUSH1 0x1 PUSH1 0x1 PUSH1 0xA0 SHL SUB DUP5 AND PUSH2 0xBFD JUMPI PUSH1 0x40 MLOAD PUSH4 0x2BFA23E7 PUSH1 0xE1 SHL DUP2 MSTORE PUSH0 PUSH1 0x4 DUP3 ADD MSTORE PUSH1 0x24 ADD PUSH2 0x509 JUMP JUMPDEST PUSH1 0x1 PUSH1 0x1 PUSH1 0xA0 SHL SUB DUP6 AND PUSH2 0xC25 JUMPI PUSH1 0x40 MLOAD PUSH3 0x6A0D45 PUSH1 0xE2 SHL DUP2 MSTORE PUSH0 PUSH1 0x4 DUP3 ADD MSTORE PUSH1 0x24 ADD PUSH2 0x509 JUMP JUMPDEST PUSH1 0x40 DUP1 MLOAD PUSH1 0x1 DUP1 DUP3 MSTORE PUSH1 0x20 DUP3 ADD DUP7 SWAP1 MSTORE DUP2 DUP4 ADD SWAP1 DUP2 MSTORE PUSH1 0x60 DUP3 ADD DUP6 SWAP1 MSTORE PUSH1 0x80 DUP3 ADD SWAP1 SWAP3 MSTORE SWAP1 PUSH2 0xC57 DUP8 DUP8 DUP5 DUP5 DUP8 PUSH2 0xCC2 JUMP JUMPDEST POP POP POP POP POP POP POP JUMP JUMPDEST PUSH1 0x1 PUSH1 0x1 PUSH1 0xA0 SHL SUB DUP4 AND PUSH2 0xC88 JUMPI PUSH1 0x40 MLOAD PUSH3 0x6A0D45 PUSH1 0xE2 SHL DUP2 MSTORE PUSH0 PUSH1 0x4 DUP3 ADD MSTORE PUSH1 0x24 ADD PUSH2 0x509 JUMP JUMPDEST PUSH1 0x40 DUP1 MLOAD PUSH1 0x1 DUP1 DUP3 MSTORE PUSH1 0x20 DUP3 ADD DUP6 SWAP1 MSTORE DUP2 DUP4 ADD SWAP1 DUP2 MSTORE PUSH1 0x60 DUP3 ADD DUP5 SWAP1 MSTORE PUSH1 0xA0 DUP3 ADD SWAP1 SWAP3 MSTORE PUSH0 PUSH1 0x80 DUP3 ADD DUP2 DUP2 MSTORE SWAP2 SWAP3 SWAP2 PUSH2 0xA73 SWAP2 DUP8 SWAP2 DUP6 SWAP1 DUP6 SWAP1 JUMPDEST PUSH2 0xCCE DUP6 DUP6 DUP6 DUP6 PUSH2 0xD15 JUMP JUMPDEST PUSH1 0x1 PUSH1 0x1 PUSH1 0xA0 SHL SUB DUP5 AND ISZERO PUSH2 0xA73 JUMPI DUP3 MLOAD CALLER SWAP1 PUSH1 0x1 SUB PUSH2 0xD07 JUMPI PUSH1 0x20 DUP5 DUP2 ADD MLOAD SWAP1 DUP5 ADD MLOAD PUSH2 0xD00 DUP4 DUP10 DUP10 DUP6 DUP6 DUP10 PUSH2 0xF3D JUMP JUMPDEST POP POP PUSH2 0x655 JUMP JUMPDEST PUSH2 0x655 DUP2 DUP8 DUP8 DUP8 DUP8 DUP8 PUSH2 0x105E JUMP JUMPDEST DUP1 MLOAD DUP3 MLOAD EQ PUSH2 0xD44 JUMPI DUP2 MLOAD DUP2 MLOAD PUSH1 0x40 MLOAD PUSH4 0x5B059991 PUSH1 0xE0 SHL DUP2 MSTORE PUSH1 0x4 DUP2 ADD SWAP3 SWAP1 SWAP3 MSTORE PUSH1 0x24 DUP3 ADD MSTORE PUSH1 0x44 ADD PUSH2 0x509 JUMP JUMPDEST CALLER PUSH0 JUMPDEST DUP4 MLOAD DUP2 LT ISZERO PUSH2 0xE5F JUMPI PUSH1 0x20 DUP2 DUP2 MUL DUP6 DUP2 ADD DUP3 ADD MLOAD SWAP1 DUP6 ADD SWAP1 SWAP2 ADD MLOAD PUSH1 0x1 PUSH1 0x1 PUSH1 0xA0 SHL SUB DUP9 AND ISZERO PUSH2 0xE11 JUMPI PUSH0 DUP3 DUP2 MSTORE PUSH1 0x20 DUP2 DUP2 MSTORE PUSH1 0x40 DUP1 DUP4 KECCAK256 PUSH1 0x1 PUSH1 0x1 PUSH1 0xA0 SHL SUB DUP13 AND DUP5 MSTORE SWAP1 SWAP2 MSTORE SWAP1 KECCAK256 SLOAD DUP2 DUP2 LT ISZERO PUSH2 0xDEB JUMPI PUSH1 0x40 MLOAD PUSH32 0x3DEE4C500000000000000000000000000000000000000000000000000000000 DUP2 MSTORE PUSH1 0x1 PUSH1 0x1 PUSH1 0xA0 SHL SUB DUP11 AND PUSH1 0x4 DUP3 ADD MSTORE PUSH1 0x24 DUP2 ADD DUP3 SWAP1 MSTORE PUSH1 0x44 DUP2 ADD DUP4 SWAP1 MSTORE PUSH1 0x64 DUP2 ADD DUP5 SWAP1 MSTORE PUSH1 0x84 ADD PUSH2 0x509 JUMP JUMPDEST PUSH0 DUP4 DUP2 MSTORE PUSH1 0x20 DUP2 DUP2 MSTORE PUSH1 0x40 DUP1 DUP4 KECCAK256 PUSH1 0x1 PUSH1 0x1 PUSH1 0xA0 SHL SUB DUP14 AND DUP5 MSTORE SWAP1 SWAP2 MSTORE SWAP1 KECCAK256 SWAP1 DUP3 SWAP1 SUB SWAP1 SSTORE JUMPDEST PUSH1 0x1 PUSH1 0x1 PUSH1 0xA0 SHL SUB DUP8 AND ISZERO PUSH2 0xE55 JUMPI PUSH0 DUP3 DUP2 MSTORE PUSH1 0x20 DUP2 DUP2 MSTORE PUSH1 0x40 DUP1 DUP4 KECCAK256 PUSH1 0x1 PUSH1 0x1 PUSH1 0xA0 SHL SUB DUP12 AND DUP5 MSTORE SWAP1 SWAP2 MSTORE DUP2 KECCAK256 DUP1 SLOAD DUP4 SWAP3 SWAP1 PUSH2 0xE4F SWAP1 DUP5 SWAP1 PUSH2 0x1781 JUMP JUMPDEST SWAP1 SWAP2 SSTORE POP POP JUMPDEST POP POP PUSH1 0x1 ADD PUSH2 0xD47 JUMP JUMPDEST POP DUP3 MLOAD PUSH1 0x1 SUB PUSH2 0xEDF JUMPI PUSH1 0x20 DUP4 ADD MLOAD PUSH0 SWAP1 PUSH1 0x20 DUP5 ADD MLOAD SWAP1 SWAP2 POP DUP6 PUSH1 0x1 PUSH1 0x1 PUSH1 0xA0 SHL SUB AND DUP8 PUSH1 0x1 PUSH1 0x1 PUSH1 0xA0 SHL SUB AND DUP5 PUSH1 0x1 PUSH1 0x1 PUSH1 0xA0 SHL SUB AND PUSH32 0xC3D58168C5AE7397731D063D5BBF3D657854427343F4C083240F7AACAA2D0F62 DUP6 DUP6 PUSH1 0x40 MLOAD PUSH2 0xED0 SWAP3 SWAP2 SWAP1 SWAP2 DUP3 MSTORE PUSH1 0x20 DUP3 ADD MSTORE PUSH1 0x40 ADD SWAP1 JUMP JUMPDEST PUSH1 0x40 MLOAD DUP1 SWAP2 SUB SWAP1 LOG4 POP POP PUSH2 0xA73 JUMP JUMPDEST DUP4 PUSH1 0x1 PUSH1 0x1 PUSH1 0xA0 SHL SUB AND DUP6 PUSH1 0x1 PUSH1 0x1 PUSH1 0xA0 SHL SUB AND DUP3 PUSH1 0x1 PUSH1 0x1 PUSH1 0xA0 SHL SUB AND PUSH32 0x4A39DC06D4C0DBC64B70AF90FD698A233A518AA5D07E595D983B8C0526C8F7FB DUP7 DUP7 PUSH1 0x40 MLOAD PUSH2 0xF2E SWAP3 SWAP2 SWAP1 PUSH2 0x17B4 JUMP JUMPDEST PUSH1 0x40 MLOAD DUP1 SWAP2 SUB SWAP1 LOG4 POP POP POP POP POP JUMP JUMPDEST PUSH1 0x1 PUSH1 0x1 PUSH1 0xA0 SHL SUB DUP5 AND EXTCODESIZE ISZERO PUSH2 0x655 JUMPI PUSH1 0x40 MLOAD PUSH4 0xF23A6E61 PUSH1 0xE0 SHL DUP2 MSTORE PUSH1 0x1 PUSH1 0x1 PUSH1 0xA0 SHL SUB DUP6 AND SWAP1 PUSH4 0xF23A6E61 SWAP1 PUSH2 0xF81 SWAP1 DUP10 SWAP1 DUP10 SWAP1 DUP9 SWAP1 DUP9 SWAP1 DUP9 SWAP1 PUSH1 0x4 ADD PUSH2 0x17E1 JUMP JUMPDEST PUSH1 0x20 PUSH1 0x40 MLOAD DUP1 DUP4 SUB DUP2 PUSH0 DUP8 GAS CALL SWAP3 POP POP POP DUP1 ISZERO PUSH2 0xFBB JUMPI POP PUSH1 0x40 DUP1 MLOAD PUSH1 0x1F RETURNDATASIZE SWAP1 DUP2 ADD PUSH1 0x1F NOT AND DUP3 ADD SWAP1 SWAP3 MSTORE PUSH2 0xFB8 SWAP2 DUP2 ADD SWAP1 PUSH2 0x1823 JUMP JUMPDEST PUSH1 0x1 JUMPDEST PUSH2 0x1022 JUMPI RETURNDATASIZE DUP1 DUP1 ISZERO PUSH2 0xFE8 JUMPI PUSH1 0x40 MLOAD SWAP2 POP PUSH1 0x1F NOT PUSH1 0x3F RETURNDATASIZE ADD AND DUP3 ADD PUSH1 0x40 MSTORE RETURNDATASIZE DUP3 MSTORE RETURNDATASIZE PUSH0 PUSH1 0x20 DUP5 ADD RETURNDATACOPY PUSH2 0xFED JUMP JUMPDEST PUSH1 0x60 SWAP2 POP JUMPDEST POP DUP1 MLOAD PUSH0 SUB PUSH2 0x101A JUMPI PUSH1 0x40 MLOAD PUSH4 0x2BFA23E7 PUSH1 0xE1 SHL DUP2 MSTORE PUSH1 0x1 PUSH1 0x1 PUSH1 0xA0 SHL SUB DUP7 AND PUSH1 0x4 DUP3 ADD MSTORE PUSH1 0x24 ADD PUSH2 0x509 JUMP JUMPDEST DUP1 MLOAD DUP2 PUSH1 0x20 ADD REVERT JUMPDEST PUSH1 0x1 PUSH1 0x1 PUSH1 0xE0 SHL SUB NOT DUP2 AND PUSH4 0xF23A6E61 PUSH1 0xE0 SHL EQ PUSH2 0xC57 JUMPI PUSH1 0x40 MLOAD PUSH4 0x2BFA23E7 PUSH1 0xE1 SHL DUP2 MSTORE PUSH1 0x1 PUSH1 0x1 PUSH1 0xA0 SHL SUB DUP7 AND PUSH1 0x4 DUP3 ADD MSTORE PUSH1 0x24 ADD PUSH2 0x509 JUMP JUMPDEST PUSH1 0x1 PUSH1 0x1 PUSH1 0xA0 SHL SUB DUP5 AND EXTCODESIZE ISZERO PUSH2 0x655 JUMPI PUSH1 0x40 MLOAD PUSH4 0xBC197C81 PUSH1 0xE0 SHL DUP2 MSTORE PUSH1 0x1 PUSH1 0x1 PUSH1 0xA0 SHL SUB DUP6 AND SWAP1 PUSH4 0xBC197C81 SWAP1 PUSH2 0x10A2 SWAP1 DUP10 SWAP1 DUP10 SWAP1 DUP9 SWAP1 DUP9 SWAP1 DUP9 SWAP1 PUSH1 0x4 ADD PUSH2 0x183E JUMP JUMPDEST PUSH1 0x20 PUSH1 0x40 MLOAD DUP1 DUP4 SUB DUP2 PUSH0 DUP8 GAS CALL SWAP3 POP POP POP DUP1 ISZERO PUSH2 0x10DC JUMPI POP PUSH1 0x40 DUP1 MLOAD PUSH1 0x1F RETURNDATASIZE SWAP1 DUP2 ADD PUSH1 0x1F NOT AND DUP3 ADD SWAP1 SWAP3 MSTORE PUSH2 0x10D9 SWAP2 DUP2 ADD SWAP1 PUSH2 0x1823 JUMP JUMPDEST PUSH1 0x1 JUMPDEST PUSH2 0x1109 JUMPI RETURNDATASIZE DUP1 DUP1 ISZERO PUSH2 0xFE8 JUMPI PUSH1 0x40 MLOAD SWAP2 POP PUSH1 0x1F NOT PUSH1 0x3F RETURNDATASIZE ADD AND DUP3 ADD PUSH1 0x40 MSTORE RETURNDATASIZE DUP3 MSTORE RETURNDATASIZE PUSH0 PUSH1 0x20 DUP5 ADD RETURNDATACOPY PUSH2 0xFED JUMP JUMPDEST PUSH1 0x1 PUSH1 0x1 PUSH1 0xE0 SHL SUB NOT DUP2 AND PUSH4 0xBC197C81 PUSH1 0xE0 SHL EQ PUSH2 0xC57 JUMPI PUSH1 0x40 MLOAD PUSH4 0x2BFA23E7 PUSH1 0xE1 SHL DUP2 MSTORE PUSH1 0x1 PUSH1 0x1 PUSH1 0xA0 SHL SUB DUP7 AND PUSH1 0x4 DUP3 ADD MSTORE PUSH1 0x24 ADD PUSH2 0x509 JUMP JUMPDEST DUP1 CALLDATALOAD PUSH1 0x1 PUSH1 0x1 PUSH1 0xA0 SHL SUB DUP2 AND DUP2 EQ PUSH2 0x115B JUMPI PUSH0 DUP1 REVERT JUMPDEST SWAP2 SWAP1 POP JUMP JUMPDEST PUSH0 DUP1 PUSH1 0x40 DUP4 DUP6 SUB SLT ISZERO PUSH2 0x1171 JUMPI PUSH0 DUP1 REVERT JUMPDEST PUSH2 0x117A DUP4 PUSH2 0x1145 JUMP JUMPDEST SWAP5 PUSH1 0x20 SWAP4 SWAP1 SWAP4 ADD CALLDATALOAD SWAP4 POP POP POP JUMP JUMPDEST PUSH1 0x1 PUSH1 0x1 PUSH1 0xE0 SHL SUB NOT DUP2 AND DUP2 EQ PUSH2 0x8AB JUMPI PUSH0 DUP1 REVERT JUMPDEST PUSH0 PUSH1 0x20 DUP3 DUP5 SUB SLT ISZERO PUSH2 0x11AD JUMPI PUSH0 DUP1 REVERT JUMPDEST DUP2 CALLDATALOAD PUSH2 0x11B8 DUP2 PUSH2 0x1188 JUMP JUMPDEST SWAP4 SWAP3 POP POP POP JUMP JUMPDEST PUSH0 PUSH1 0x20 DUP3 DUP5 SUB SLT ISZERO PUSH2 0x11CF JUMPI PUSH0 DUP1 REVERT JUMPDEST POP CALLDATALOAD SWAP2 SWAP1 POP JUMP JUMPDEST PUSH0 DUP2 MLOAD DUP1 DUP5 MSTORE PUSH0 JUMPDEST DUP2 DUP2 LT ISZERO PUSH2 0x11FA JUMPI PUSH1 0x20 DUP2 DUP6 ADD DUP2 ADD MLOAD DUP7 DUP4 ADD DUP3 ADD MSTORE ADD PUSH2 0x11DE JUMP JUMPDEST POP PUSH0 PUSH1 0x20 DUP3 DUP7 ADD ADD MSTORE PUSH1 0x20 PUSH1 0x1F NOT PUSH1 0x1F DUP4 ADD AND DUP6 ADD ADD SWAP2 POP POP SWAP3 SWAP2 POP POP JUMP JUMPDEST PUSH1 0x20 DUP2 MSTORE PUSH0 PUSH2 0x11B8 PUSH1 0x20 DUP4 ADD DUP5 PUSH2 0x11D6 JUMP JUMPDEST PUSH0 DUP1 PUSH1 0x40 DUP4 DUP6 SUB SLT ISZERO PUSH2 0x123C JUMPI PUSH0 DUP1 REVERT JUMPDEST POP POP DUP1 CALLDATALOAD SWAP3 PUSH1 0x20 SWAP1 SWAP2 ADD CALLDATALOAD SWAP2 POP JUMP JUMPDEST PUSH4 0x4E487B71 PUSH1 0xE0 SHL PUSH0 MSTORE PUSH1 0x41 PUSH1 0x4 MSTORE PUSH1 0x24 PUSH0 REVERT JUMPDEST PUSH1 0x40 MLOAD PUSH1 0x1F DUP3 ADD PUSH1 0x1F NOT AND DUP2 ADD PUSH8 0xFFFFFFFFFFFFFFFF DUP2 GT DUP3 DUP3 LT OR ISZERO PUSH2 0x1288 JUMPI PUSH2 0x1288 PUSH2 0x124B JUMP JUMPDEST PUSH1 0x40 MSTORE SWAP2 SWAP1 POP JUMP JUMPDEST PUSH0 PUSH8 0xFFFFFFFFFFFFFFFF DUP3 GT ISZERO PUSH2 0x12A9 JUMPI PUSH2 0x12A9 PUSH2 0x124B JUMP JUMPDEST POP PUSH1 0x5 SHL PUSH1 0x20 ADD SWAP1 JUMP JUMPDEST PUSH0 DUP3 PUSH1 0x1F DUP4 ADD SLT PUSH2 0x12C2 JUMPI PUSH0 DUP1 REVERT JUMPDEST DUP2 CALLDATALOAD PUSH1 0x20 PUSH2 0x12D7 PUSH2 0x12D2 DUP4 PUSH2 0x1290 JUMP JUMPDEST PUSH2 0x125F JUMP JUMPDEST DUP1 DUP4 DUP3 MSTORE PUSH1 0x20 DUP3 ADD SWAP2 POP PUSH1 0x20 DUP5 PUSH1 0x5 SHL DUP8 ADD ADD SWAP4 POP DUP7 DUP5 GT ISZERO PUSH2 0x12F8 JUMPI PUSH0 DUP1 REVERT JUMPDEST PUSH1 0x20 DUP7 ADD JUMPDEST DUP5 DUP2 LT ISZERO PUSH2 0x1314 JUMPI DUP1 CALLDATALOAD DUP4 MSTORE SWAP2 DUP4 ADD SWAP2 DUP4 ADD PUSH2 0x12FD JUMP JUMPDEST POP SWAP7 SWAP6 POP POP POP POP POP POP JUMP JUMPDEST PUSH0 DUP3 PUSH1 0x1F DUP4 ADD SLT PUSH2 0x132E JUMPI PUSH0 DUP1 REVERT JUMPDEST DUP2 CALLDATALOAD PUSH8 0xFFFFFFFFFFFFFFFF DUP2 GT ISZERO PUSH2 0x1348 JUMPI PUSH2 0x1348 PUSH2 0x124B JUMP JUMPDEST PUSH2 0x135B PUSH1 0x1F DUP3 ADD PUSH1 0x1F NOT AND PUSH1 0x20 ADD PUSH2 0x125F JUMP JUMPDEST DUP2 DUP2 MSTORE DUP5 PUSH1 0x20 DUP4 DUP7 ADD ADD GT ISZERO PUSH2 0x136F JUMPI PUSH0 DUP1 REVERT JUMPDEST DUP2 PUSH1 0x20 DUP6 ADD PUSH1 0x20 DUP4 ADD CALLDATACOPY PUSH0 SWAP2 DUP2 ADD PUSH1 0x20 ADD SWAP2 SWAP1 SWAP2 MSTORE SWAP4 SWAP3 POP POP POP JUMP JUMPDEST PUSH0 DUP1 PUSH0 DUP1 PUSH1 0x80 DUP6 DUP8 SUB SLT ISZERO PUSH2 0x139E JUMPI PUSH0 DUP1 REVERT JUMPDEST PUSH2 0x13A7 DUP6 PUSH2 0x1145 JUMP JUMPDEST SWAP4 POP PUSH1 0x20 DUP6 ADD CALLDATALOAD PUSH8 0xFFFFFFFFFFFFFFFF DUP1 DUP3 GT ISZERO PUSH2 0x13C3 JUMPI PUSH0 DUP1 REVERT JUMPDEST PUSH2 0x13CF DUP9 DUP4 DUP10 ADD PUSH2 0x12B3 JUMP JUMPDEST SWAP5 POP PUSH1 0x40 DUP8 ADD CALLDATALOAD SWAP2 POP DUP1 DUP3 GT ISZERO PUSH2 0x13E4 JUMPI PUSH0 DUP1 REVERT JUMPDEST PUSH2 0x13F0 DUP9 DUP4 DUP10 ADD PUSH2 0x12B3 JUMP JUMPDEST SWAP4 POP PUSH1 0x60 DUP8 ADD CALLDATALOAD SWAP2 POP DUP1 DUP3 GT ISZERO PUSH2 0x1405 JUMPI PUSH0 DUP1 REVERT JUMPDEST POP PUSH2 0x1412 DUP8 DUP3 DUP9 ADD PUSH2 0x131F JUMP JUMPDEST SWAP2 POP POP SWAP3 SWAP6 SWAP2 SWAP5 POP SWAP3 POP JUMP JUMPDEST PUSH0 DUP1 PUSH0 DUP1 PUSH0 PUSH1 0xA0 DUP7 DUP9 SUB SLT ISZERO PUSH2 0x1432 JUMPI PUSH0 DUP1 REVERT JUMPDEST PUSH2 0x143B DUP7 PUSH2 0x1145 JUMP JUMPDEST SWAP5 POP PUSH2 0x1449 PUSH1 0x20 DUP8 ADD PUSH2 0x1145 JUMP JUMPDEST SWAP4 POP PUSH1 0x40 DUP7 ADD CALLDATALOAD PUSH8 0xFFFFFFFFFFFFFFFF DUP1 DUP3 GT ISZERO PUSH2 0x1465 JUMPI PUSH0 DUP1 REVERT JUMPDEST PUSH2 0x1471 DUP10 DUP4 DUP11 ADD PUSH2 0x12B3 JUMP JUMPDEST SWAP5 POP PUSH1 0x60 DUP9 ADD CALLDATALOAD SWAP2 POP DUP1 DUP3 GT ISZERO PUSH2 0x1486 JUMPI PUSH0 DUP1 REVERT JUMPDEST PUSH2 0x1492 DUP10 DUP4 DUP11 ADD PUSH2 0x12B3 JUMP JUMPDEST SWAP4 POP PUSH1 0x80 DUP9 ADD CALLDATALOAD SWAP2 POP DUP1 DUP3 GT ISZERO PUSH2 0x14A7 JUMPI PUSH0 DUP1 REVERT JUMPDEST POP PUSH2 0x14B4 DUP9 DUP3 DUP10 ADD PUSH2 0x131F JUMP JUMPDEST SWAP2 POP POP SWAP3 SWAP6 POP SWAP3 SWAP6 SWAP1 SWAP4 POP JUMP JUMPDEST PUSH0 DUP1 PUSH1 0x40 DUP4 DUP6 SUB SLT ISZERO PUSH2 0x14D2 JUMPI PUSH0 DUP1 REVERT JUMPDEST DUP3 CALLDATALOAD PUSH8 0xFFFFFFFFFFFFFFFF DUP1 DUP3 GT ISZERO PUSH2 0x14E9 JUMPI PUSH0 DUP1 REVERT JUMPDEST DUP2 DUP6 ADD SWAP2 POP DUP6 PUSH1 0x1F DUP4 ADD SLT PUSH2 0x14FC JUMPI PUSH0 DUP1 REVERT JUMPDEST DUP2 CALLDATALOAD PUSH1 0x20 PUSH2 0x150C PUSH2 0x12D2 DUP4 PUSH2 0x1290 JUMP JUMPDEST DUP3 DUP2 MSTORE PUSH1 0x5 SWAP3 SWAP1 SWAP3 SHL DUP5 ADD DUP2 ADD SWAP2 DUP2 DUP2 ADD SWAP1 DUP10 DUP5 GT ISZERO PUSH2 0x152A JUMPI PUSH0 DUP1 REVERT JUMPDEST SWAP5 DUP3 ADD SWAP5 JUMPDEST DUP4 DUP7 LT ISZERO PUSH2 0x154F JUMPI PUSH2 0x1540 DUP7 PUSH2 0x1145 JUMP JUMPDEST DUP3 MSTORE SWAP5 DUP3 ADD SWAP5 SWAP1 DUP3 ADD SWAP1 PUSH2 0x152F JUMP JUMPDEST SWAP7 POP POP DUP7 ADD CALLDATALOAD SWAP3 POP POP DUP1 DUP3 GT ISZERO PUSH2 0x1564 JUMPI PUSH0 DUP1 REVERT JUMPDEST POP PUSH2 0x1571 DUP6 DUP3 DUP7 ADD PUSH2 0x12B3 JUMP JUMPDEST SWAP2 POP POP SWAP3 POP SWAP3 SWAP1 POP JUMP JUMPDEST PUSH0 DUP2 MLOAD DUP1 DUP5 MSTORE PUSH1 0x20 DUP1 DUP6 ADD SWAP5 POP PUSH1 0x20 DUP5 ADD PUSH0 JUMPDEST DUP4 DUP2 LT ISZERO PUSH2 0x15AA JUMPI DUP2 MLOAD DUP8 MSTORE SWAP6 DUP3 ADD SWAP6 SWAP1 DUP3 ADD SWAP1 PUSH1 0x1 ADD PUSH2 0x158E JUMP JUMPDEST POP SWAP5 SWAP6 SWAP5 POP POP POP POP POP JUMP JUMPDEST PUSH1 0x20 DUP2 MSTORE PUSH0 PUSH2 0x11B8 PUSH1 0x20 DUP4 ADD DUP5 PUSH2 0x157B JUMP JUMPDEST PUSH0 DUP1 PUSH0 PUSH1 0x60 DUP5 DUP7 SUB SLT ISZERO PUSH2 0x15D9 JUMPI PUSH0 DUP1 REVERT JUMPDEST PUSH2 0x15E2 DUP5 PUSH2 0x1145 JUMP JUMPDEST SWAP3 POP PUSH1 0x20 DUP5 ADD CALLDATALOAD PUSH8 0xFFFFFFFFFFFFFFFF DUP1 DUP3 GT ISZERO PUSH2 0x15FE JUMPI PUSH0 DUP1 REVERT JUMPDEST PUSH2 0x160A DUP8 DUP4 DUP9 ADD PUSH2 0x12B3 JUMP JUMPDEST SWAP4 POP PUSH1 0x40 DUP7 ADD CALLDATALOAD SWAP2 POP DUP1 DUP3 GT ISZERO PUSH2 0x161F JUMPI PUSH0 DUP1 REVERT JUMPDEST POP PUSH2 0x162C DUP7 DUP3 DUP8 ADD PUSH2 0x12B3 JUMP JUMPDEST SWAP2 POP POP SWAP3 POP SWAP3 POP SWAP3 JUMP JUMPDEST PUSH0 DUP1 PUSH1 0x40 DUP4 DUP6 SUB SLT ISZERO PUSH2 0x1647 JUMPI PUSH0 DUP1 REVERT JUMPDEST PUSH2 0x1650 DUP4 PUSH2 0x1145 JUMP JUMPDEST SWAP2 POP PUSH1 0x20 DUP4 ADD CALLDATALOAD DUP1 ISZERO ISZERO DUP2 EQ PUSH2 0x1664 JUMPI PUSH0 DUP1 REVERT JUMPDEST DUP1 SWAP2 POP POP SWAP3 POP SWAP3 SWAP1 POP JUMP JUMPDEST PUSH0 DUP1 PUSH1 0x40 DUP4 DUP6 SUB SLT ISZERO PUSH2 0x1680 JUMPI PUSH0 DUP1 REVERT JUMPDEST PUSH2 0x1689 DUP4 PUSH2 0x1145 JUMP JUMPDEST SWAP2 POP PUSH2 0x1697 PUSH1 0x20 DUP5 ADD PUSH2 0x1145 JUMP JUMPDEST SWAP1 POP SWAP3 POP SWAP3 SWAP1 POP JUMP JUMPDEST PUSH0 DUP1 PUSH0 DUP1 PUSH0 PUSH1 0xA0 DUP7 DUP9 SUB SLT ISZERO PUSH2 0x16B4 JUMPI PUSH0 DUP1 REVERT JUMPDEST PUSH2 0x16BD DUP7 PUSH2 0x1145 JUMP JUMPDEST SWAP5 POP PUSH2 0x16CB PUSH1 0x20 DUP8 ADD PUSH2 0x1145 JUMP JUMPDEST SWAP4 POP PUSH1 0x40 DUP7 ADD CALLDATALOAD SWAP3 POP PUSH1 0x60 DUP7 ADD CALLDATALOAD SWAP2 POP PUSH1 0x80 DUP7 ADD CALLDATALOAD PUSH8 0xFFFFFFFFFFFFFFFF DUP2 GT ISZERO PUSH2 0x16F4 JUMPI PUSH0 DUP1 REVERT JUMPDEST PUSH2 0x14B4 DUP9 DUP3 DUP10 ADD PUSH2 0x131F JUMP JUMPDEST PUSH0 PUSH1 0x20 DUP3 DUP5 SUB SLT ISZERO PUSH2 0x1710 JUMPI PUSH0 DUP1 REVERT JUMPDEST PUSH2 0x11B8 DUP3 PUSH2 0x1145 JUMP JUMPDEST PUSH0 DUP1 PUSH0 PUSH1 0x60 DUP5 DUP7 SUB SLT ISZERO PUSH2 0x172B JUMPI PUSH0 DUP1 REVERT JUMPDEST PUSH2 0x1734 DUP5 PUSH2 0x1145 JUMP JUMPDEST SWAP6 PUSH1 0x20 DUP6 ADD CALLDATALOAD SWAP6 POP PUSH1 0x40 SWAP1 SWAP5 ADD CALLDATALOAD SWAP4 SWAP3 POP POP POP JUMP JUMPDEST PUSH1 0x1 DUP2 DUP2 SHR SWAP1 DUP3 AND DUP1 PUSH2 0x175D JUMPI PUSH1 0x7F DUP3 AND SWAP2 POP JUMPDEST PUSH1 0x20 DUP3 LT DUP2 SUB PUSH2 0x177B JUMPI PUSH4 0x4E487B71 PUSH1 0xE0 SHL PUSH0 MSTORE PUSH1 0x22 PUSH1 0x4 MSTORE PUSH1 0x24 PUSH0 REVERT JUMPDEST POP SWAP2 SWAP1 POP JUMP JUMPDEST DUP1 DUP3 ADD DUP1 DUP3 GT ISZERO PUSH2 0x38A JUMPI PUSH4 0x4E487B71 PUSH1 0xE0 SHL PUSH0 MSTORE PUSH1 0x11 PUSH1 0x4 MSTORE PUSH1 0x24 PUSH0 REVERT JUMPDEST PUSH4 0x4E487B71 PUSH1 0xE0 SHL PUSH0 MSTORE PUSH1 0x32 PUSH1 0x4 MSTORE PUSH1 0x24 PUSH0 REVERT JUMPDEST PUSH1 0x40 DUP2 MSTORE PUSH0 PUSH2 0x17C6 PUSH1 0x40 DUP4 ADD DUP6 PUSH2 0x157B JUMP JUMPDEST DUP3 DUP2 SUB PUSH1 0x20 DUP5 ADD MSTORE PUSH2 0x17D8 DUP2 DUP6 PUSH2 0x157B JUMP JUMPDEST SWAP6 SWAP5 POP POP POP POP POP JUMP JUMPDEST PUSH0 PUSH1 0x1 PUSH1 0x1 PUSH1 0xA0 SHL SUB DUP1 DUP9 AND DUP4 MSTORE DUP1 DUP8 AND PUSH1 0x20 DUP5 ADD MSTORE POP DUP5 PUSH1 0x40 DUP4 ADD MSTORE DUP4 PUSH1 0x60 DUP4 ADD MSTORE PUSH1 0xA0 PUSH1 0x80 DUP4 ADD MSTORE PUSH2 0x1818 PUSH1 0xA0 DUP4 ADD DUP5 PUSH2 0x11D6 JUMP JUMPDEST SWAP8 SWAP7 POP POP POP POP POP POP POP JUMP JUMPDEST PUSH0 PUSH1 0x20 DUP3 DUP5 SUB SLT ISZERO PUSH2 0x1833 JUMPI PUSH0 DUP1 REVERT JUMPDEST DUP2 MLOAD PUSH2 0x11B8 DUP2 PUSH2 0x1188 JUMP JUMPDEST PUSH0 PUSH1 0x1 PUSH1 0x1 PUSH1 0xA0 SHL SUB DUP1 DUP9 AND DUP4 MSTORE DUP1 DUP8 AND PUSH1 0x20 DUP5 ADD MSTORE POP PUSH1 0xA0 PUSH1 0x40 DUP4 ADD MSTORE PUSH2 0x1869 PUSH1 0xA0 DUP4 ADD DUP7 PUSH2 0x157B JUMP JUMPDEST DUP3 DUP2 SUB PUSH1 0x60 DUP5 ADD MSTORE PUSH2 0x187B DUP2 DUP7 PUSH2 0x157B JUMP JUMPDEST SWAP1 POP DUP3 DUP2 SUB PUSH1 0x80 DUP5 ADD MSTORE PUSH2 0x188F DUP2 DUP6 PUSH2 0x11D6 JUMP JUMPDEST SWAP9 SWAP8 POP POP POP POP POP POP POP POP JUMP INVALID LOG2 PUSH5 0x6970667358 0x22 SLT KECCAK256 0x24 ISZERO 0xF6 0x28 STOP CALLER SWAP6 SELFDESTRUCT 0xA5 LT 0xFC PUSH26 0xEF0997C9E9AEFF30DAD6279A292BB784D277104464736F6C6343 STOP ADDMOD XOR STOP CALLER PUSH10 0x7066733A2F2F62616679 PUSH3 0x656968 PUSH19 0x6B6C623232327367696F77726A636567373672 PUSH14 0x7171707A716979756A6D6E756676 CALLER PUSH4 0x71353773 PUSH20 0x656D647862626534752F7B69647D000000000000 "
				},
				"gasEstimates": {
					"creation": {
						"codeDepositCost": "1270600",
						"executionCost": "infinite",
						"totalCost": "infinite"
					},
					"external": {
						"TOKEN_0()": "227",
						"TOKEN_1()": "250",
						"TOKEN_2()": "273",
						"TOKEN_3()": "228",
						"TOKEN_4()": "251",
						"TOKEN_5()": "250",
						"TOKEN_6()": "272",
						"balanceOf(address,uint256)": "2680",
						"balanceOfBatch(address[],uint256[])": "infinite",
						"burn(address,uint256,uint256)": "infinite",
						"burnBatch(address,uint256[],uint256[])": "infinite",
						"isApprovedForAll(address,address)": "infinite",
						"lastMintTime(address,uint256)": "2644",
						"mint(uint256,uint256)": "infinite",
						"mintBatch(address,uint256[],uint256[],bytes)": "infinite",
						"owner()": "2345",
						"renounceOwnership()": "infinite",
						"safeBatchTransferFrom(address,address,uint256[],uint256[],bytes)": "infinite",
						"safeTransferFrom(address,address,uint256,uint256,bytes)": "infinite",
						"setApprovalForAll(address,bool)": "26723",
						"supportsInterface(bytes4)": "580",
						"transferOwnership(address)": "28384",
						"uri(uint256)": "infinite"
					}
				},
				"methodIdentifiers": {
					"TOKEN_0()": "d99939a2",
					"TOKEN_1()": "4a3268e4",
					"TOKEN_2()": "82c0fa30",
					"TOKEN_3()": "453f6a32",
					"TOKEN_4()": "0d9371ad",
					"TOKEN_5()": "e74d3862",
					"TOKEN_6()": "a3cacc85",
					"balanceOf(address,uint256)": "00fdd58e",
					"balanceOfBatch(address[],uint256[])": "4e1273f4",
					"burn(address,uint256,uint256)": "f5298aca",
					"burnBatch(address,uint256[],uint256[])": "6b20c454",
					"isApprovedForAll(address,address)": "e985e9c5",
					"lastMintTime(address,uint256)": "0ce52e07",
					"mint(uint256,uint256)": "1b2ef1ca",
					"mintBatch(address,uint256[],uint256[],bytes)": "1f7fdffa",
					"owner()": "8da5cb5b",
					"renounceOwnership()": "715018a6",
					"safeBatchTransferFrom(address,address,uint256[],uint256[],bytes)": "2eb2c2d6",
					"safeTransferFrom(address,address,uint256,uint256,bytes)": "f242432a",
					"setApprovalForAll(address,bool)": "a22cb465",
					"supportsInterface(bytes4)": "01ffc9a7",
					"transferOwnership(address)": "f2fde38b",
					"uri(uint256)": "0e89341c"
				}
			},
			"storageLayout": {
				"storage": [
					{
						"astId": 326,
						"contract": "module-3/ERC1155token.sol:MyERC1155Token",
						"label": "_balances",
						"offset": 0,
						"slot": "0",
						"type": "t_mapping(t_uint256,t_mapping(t_address,t_uint256))"
					},
					{
						"astId": 332,
						"contract": "module-3/ERC1155token.sol:MyERC1155Token",
						"label": "_operatorApprovals",
						"offset": 0,
						"slot": "1",
						"type": "t_mapping(t_address,t_mapping(t_address,t_bool))"
					},
					{
						"astId": 334,
						"contract": "module-3/ERC1155token.sol:MyERC1155Token",
						"label": "_uri",
						"offset": 0,
						"slot": "2",
						"type": "t_string_storage"
					},
					{
						"astId": 8,
						"contract": "module-3/ERC1155token.sol:MyERC1155Token",
						"label": "_owner",
						"offset": 0,
						"slot": "3",
						"type": "t_address"
					},
					{
						"astId": 2964,
						"contract": "module-3/ERC1155token.sol:MyERC1155Token",
						"label": "lastMintTime",
						"offset": 0,
						"slot": "4",
						"type": "t_mapping(t_address,t_mapping(t_uint256,t_uint256))"
					}
				],
				"types": {
					"t_address": {
						"encoding": "inplace",
						"label": "address",
						"numberOfBytes": "20"
					},
					"t_bool": {
						"encoding": "inplace",
						"label": "bool",
						"numberOfBytes": "1"
					},
					"t_mapping(t_address,t_bool)": {
						"encoding": "mapping",
						"key": "t_address",
						"label": "mapping(address => bool)",
						"numberOfBytes": "32",
						"value": "t_bool"
					},
					"t_mapping(t_address,t_mapping(t_address,t_bool))": {
						"encoding": "mapping",
						"key": "t_address",
						"label": "mapping(address => mapping(address => bool))",
						"numberOfBytes": "32",
						"value": "t_mapping(t_address,t_bool)"
					},
					"t_mapping(t_address,t_mapping(t_uint256,t_uint256))": {
						"encoding": "mapping",
						"key": "t_address",
						"label": "mapping(address => mapping(uint256 => uint256))",
						"numberOfBytes": "32",
						"value": "t_mapping(t_uint256,t_uint256)"
					},
					"t_mapping(t_address,t_uint256)": {
						"encoding": "mapping",
						"key": "t_address",
						"label": "mapping(address => uint256)",
						"numberOfBytes": "32",
						"value": "t_uint256"
					},
					"t_mapping(t_uint256,t_mapping(t_address,t_uint256))": {
						"encoding": "mapping",
						"key": "t_uint256",
						"label": "mapping(uint256 => mapping(address => uint256))",
						"numberOfBytes": "32",
						"value": "t_mapping(t_address,t_uint256)"
					},
					"t_mapping(t_uint256,t_uint256)": {
						"encoding": "mapping",
						"key": "t_uint256",
						"label": "mapping(uint256 => uint256)",
						"numberOfBytes": "32",
						"value": "t_uint256"
					},
					"t_string_storage": {
						"encoding": "bytes",
						"label": "string",
						"numberOfBytes": "32"
					},
					"t_uint256": {
						"encoding": "inplace",
						"label": "uint256",
						"numberOfBytes": "32"
					}
				}
			},
			"userdoc": {
				"kind": "user",
				"methods": {},
				"version": 1
			}
		}
	}
}