{
	"data": {
		"bytecode": {
			"linkReferences": {},
			"object": "608060405234801562000010575f80fd5b503360405180608001604052806047815260200162001d1960479139620000378162000078565b506001600160a01b0381166200006657604051631e4fbdf760e01b81525f600482015260240160405180910390fd5b62000071816200008a565b5062000245565b600262000086828262000179565b5050565b600380546001600160a01b038381166001600160a01b0319831681179093556040519116919082907f8be0079c531659141344cd1fd0a4f28419497f9722a3daafe3b4186f6b6457e0905f90a35050565b634e487b7160e01b5f52604160045260245ffd5b600181811c908216806200010457607f821691505b6020821081036200012357634e487b7160e01b5f52602260045260245ffd5b50919050565b601f8211156200017457805f5260205f20601f840160051c81016020851015620001505750805b601f840160051c820191505b8181101562000171575f81556001016200015c565b50505b505050565b81516001600160401b03811115620001955762000195620000db565b620001ad81620001a68454620000ef565b8462000129565b602080601f831160018114620001e3575f8415620001cb5750858301515b5f19600386901b1c1916600185901b1785556200023d565b5f85815260208120601f198616915b828110156200021357888601518255948401946001909101908401620001f2565b50858210156200023157878501515f19600388901b60f8161c191681555b505060018460011b0185555b505050505050565b611ac680620002535f395ff3fe608060405234801561000f575f80fd5b5060043610610183575f3560e01c80636b20c454116100dd578063d99939a211610088578063f242432a11610063578063f242432a14610330578063f2fde38b14610343578063f5298aca14610356575f80fd5b8063d99939a2146102e6578063e74d3862146102ed578063e985e9c5146102f5575f80fd5b80638da5cb5b116100b85780638da5cb5b146102b0578063a22cb465146102cb578063a3cacc85146102de575f80fd5b80636b20c4541461028d578063715018a6146102a057806382c0fa30146102a8575f80fd5b80631b2ef1ca1161013d578063453f6a3211610118578063453f6a321461025d5780634a3268e4146102655780634e1273f41461026d575f80fd5b80631b2ef1ca146102225780631f7fdffa146102375780632eb2c2d61461024a575f80fd5b80630ce52e071161016d5780630ce52e07146101d05780630d9371ad146101fa5780630e89341c14610202575f80fd5b8062fdd58e1461018757806301ffc9a7146101ad575b5f80fd5b61019a61019536600461131d565b610369565b6040519081526020015b60405180910390f35b6101c06101bb36600461135a565b610390565b60405190151581526020016101a4565b61019a6101de36600461131d565b600460209081525f928352604080842090915290825290205481565b61019a600481565b61021561021036600461137c565b61042a565b6040516101a491906113e0565b6102356102303660046113f2565b610465565b005b610235610245366004611552565b610567565b6102356102583660046115e5565b610581565b61019a600381565b61019a600181565b61028061027b366004611688565b610606565b6040516101a4919061177c565b61023561029b36600461178e565b6106d1565b610235610766565b61019a600281565b6003546040516001600160a01b0390911681526020016101a4565b6102356102d93660046117fd565b610779565b61019a600681565b61019a5f81565b61019a600581565b6101c0610303366004611836565b6001600160a01b039182165f90815260016020908152604080832093909416825291909152205460ff1690565b61023561033e366004611867565b610784565b6102356103513660046118c7565b610801565b6102356103643660046118e0565b610857565b5f818152602081815260408083206001600160a01b03861684529091529020545b92915050565b5f6001600160e01b031982167fd9b67a260000000000000000000000000000000000000000000000000000000014806103f257506001600160e01b031982167f0e89341c00000000000000000000000000000000000000000000000000000000145b8061038a57507f01ffc9a7000000000000000000000000000000000000000000000000000000006001600160e01b031983161461038a565b6060610435826108e7565b61043e83610979565b60405160200161044f929190611910565b6040516020818303038152906040529050919050565b60028211156104bb5760405162461bcd60e51b815260206004820152601060248201527f496e76616c696420746f6b656e2049440000000000000000000000000000000060448201526064015b60405180910390fd5b335f9081526004602090815260408083208584529091529020546104e090603c61193e565b42101561052f5760405162461bcd60e51b815260206004820152600d60248201527f4d696e7420636f6f6c646f776e0000000000000000000000000000000000000060448201526064016104b2565b335f818152600460209081526040808320868452825280832042905580519182019052908152610563919084908490610a16565b5050565b61056f610a71565b61057b84848484610ab7565b50505050565b336001600160a01b03861681148015906105c057506001600160a01b038087165f9081526001602090815260408083209385168352929052205460ff16155b156105f15760405163711bec9160e11b81526001600160a01b038083166004830152871660248201526044016104b2565b6105fe8686868686610aed565b505050505050565b606081518351146106375781518351604051635b05999160e01b8152600481019290925260248201526044016104b2565b5f835167ffffffffffffffff81111561065257610652611412565b60405190808252806020026020018201604052801561067b578160200160208202803683370190505b5090505f5b84518110156106c9576020808202860101516106a490602080840287010151610369565b8282815181106106b6576106b661195d565b6020908102919091010152600101610680565b509392505050565b336001600160a01b038416148061070a57506001600160a01b0383165f90815260016020908152604080832033845290915290205460ff165b6107565760405162461bcd60e51b815260206004820181905260248201527f43616c6c6572206973206e6f74206f776e6572206e6f7220617070726f76656460448201526064016104b2565b610761838383610b52565b505050565b61076e610a71565b6107775f610b95565b565b610563338383610bfe565b336001600160a01b03861681148015906107c357506001600160a01b038087165f9081526001602090815260408083209385168352929052205460ff16155b156107f45760405163711bec9160e11b81526001600160a01b038083166004830152871660248201526044016104b2565b6105fe8686868686610cac565b610809610a71565b6001600160a01b03811661084b576040517f1e4fbdf70000000000000000000000000000000000000000000000000000000081525f60048201526024016104b2565b61085481610b95565b50565b336001600160a01b038416148061089057506001600160a01b0383165f90815260016020908152604080832033845290915290205460ff165b6108dc5760405162461bcd60e51b815260206004820181905260248201527f43616c6c6572206973206e6f74206f776e6572206e6f7220617070726f76656460448201526064016104b2565b610761838383610d38565b6060600280546108f690611971565b80601f016020809104026020016040519081016040528092919081815260200182805461092290611971565b801561096d5780601f106109445761010080835404028352916020019161096d565b820191905f5260205f20905b81548152906001019060200180831161095057829003601f168201915b50505050509050919050565b60605f61098583610d9e565b60010190505f8167ffffffffffffffff8111156109a4576109a4611412565b6040519080825280601f01601f1916602001820160405280156109ce576020820181803683370190505b5090508181016020015b5f19017f3031323334353637383961626364656600000000000000000000000000000000600a86061a8153600a85049450846109d857509392505050565b6001600160a01b038416610a3f57604051632bfa23e760e11b81525f60048201526024016104b2565b604080516001808252602082018690528183019081526060820185905260808201909252906105fe5f87848487610e7f565b6003546001600160a01b03163314610777576040517f118cdaa70000000000000000000000000000000000000000000000000000000081523360048201526024016104b2565b6001600160a01b038416610ae057604051632bfa23e760e11b81525f60048201526024016104b2565b61057b5f85858585610e7f565b6001600160a01b038416610b1657604051632bfa23e760e11b81525f60048201526024016104b2565b6001600160a01b038516610b3e57604051626a0d4560e21b81525f60048201526024016104b2565b610b4b8585858585610e7f565b5050505050565b6001600160a01b038316610b7a57604051626a0d4560e21b81525f60048201526024016104b2565b610761835f848460405180602001604052805f815250610e7f565b600380546001600160a01b038381167fffffffffffffffffffffffff0000000000000000000000000000000000000000831681179093556040519116919082907f8be0079c531659141344cd1fd0a4f28419497f9722a3daafe3b4186f6b6457e0905f90a35050565b6001600160a01b038216610c40576040517fced3e1000000000000000000000000000000000000000000000000000000000081525f60048201526024016104b2565b6001600160a01b038381165f81815260016020908152604080832094871680845294825291829020805460ff191686151590811790915591519182527f17307eab39ab6107e8899845ad3d59bd9653f200f220920489ca2b5937696c31910160405180910390a3505050565b6001600160a01b038416610cd557604051632bfa23e760e11b81525f60048201526024016104b2565b6001600160a01b038516610cfd57604051626a0d4560e21b81525f60048201526024016104b2565b60408051600180825260208201869052818301908152606082018590526080820190925290610d2f8787848487610e7f565b50505050505050565b6001600160a01b038316610d6057604051626a0d4560e21b81525f60048201526024016104b2565b604080516001808252602082018590528183019081526060820184905260a082019092525f60808201818152919291610b4b91879185908590610e7f565b5f807a184f03e93ff9f4daa797ed6e38ed64bf6a1f0100000000000000008310610de6577a184f03e93ff9f4daa797ed6e38ed64bf6a1f010000000000000000830492506040015b6d04ee2d6d415b85acef81000000008310610e12576d04ee2d6d415b85acef8100000000830492506020015b662386f26fc100008310610e3057662386f26fc10000830492506010015b6305f5e1008310610e48576305f5e100830492506008015b6127108310610e5c57612710830492506004015b60648310610e6e576064830492506002015b600a831061038a5760010192915050565b610e8b85858585610ed2565b6001600160a01b03841615610b4b5782513390600103610ec45760208481015190840151610ebd8389898585896110fa565b50506105fe565b6105fe81878787878761121b565b8051825114610f015781518151604051635b05999160e01b8152600481019290925260248201526044016104b2565b335f5b835181101561101c576020818102858101820151908501909101516001600160a01b03881615610fce575f828152602081815260408083206001600160a01b038c16845290915290205481811015610fa8576040517f03dee4c50000000000000000000000000000000000000000000000000000000081526001600160a01b038a1660048201526024810182905260448101839052606481018490526084016104b2565b5f838152602081815260408083206001600160a01b038d16845290915290209082900390555b6001600160a01b03871615611012575f828152602081815260408083206001600160a01b038b1684529091528120805483929061100c90849061193e565b90915550505b5050600101610f04565b50825160010361109c5760208301515f906020840151909150856001600160a01b0316876001600160a01b0316846001600160a01b03167fc3d58168c5ae7397731d063d5bbf3d657854427343f4c083240f7aacaa2d0f62858560405161108d929190918252602082015260400190565b60405180910390a45050610b4b565b836001600160a01b0316856001600160a01b0316826001600160a01b03167f4a39dc06d4c0dbc64b70af90fd698a233a518aa5d07e595d983b8c0526c8f7fb86866040516110eb9291906119a9565b60405180910390a45050505050565b6001600160a01b0384163b156105fe5760405163f23a6e6160e01b81526001600160a01b0385169063f23a6e619061113e90899089908890889088906004016119d6565b6020604051808303815f875af1925050508015611178575060408051601f3d908101601f1916820190925261117591810190611a18565b60015b6111df573d8080156111a5576040519150601f19603f3d011682016040523d82523d5f602084013e6111aa565b606091505b5080515f036111d757604051632bfa23e760e11b81526001600160a01b03861660048201526024016104b2565b805181602001fd5b6001600160e01b0319811663f23a6e6160e01b14610d2f57604051632bfa23e760e11b81526001600160a01b03861660048201526024016104b2565b6001600160a01b0384163b156105fe5760405163bc197c8160e01b81526001600160a01b0385169063bc197c819061125f9089908990889088908890600401611a33565b6020604051808303815f875af1925050508015611299575060408051601f3d908101601f1916820190925261129691810190611a18565b60015b6112c6573d8080156111a5576040519150601f19603f3d011682016040523d82523d5f602084013e6111aa565b6001600160e01b0319811663bc197c8160e01b14610d2f57604051632bfa23e760e11b81526001600160a01b03861660048201526024016104b2565b80356001600160a01b0381168114611318575f80fd5b919050565b5f806040838503121561132e575f80fd5b61133783611302565b946020939093013593505050565b6001600160e01b031981168114610854575f80fd5b5f6020828403121561136a575f80fd5b813561137581611345565b9392505050565b5f6020828403121561138c575f80fd5b5035919050565b5f5b838110156113ad578181015183820152602001611395565b50505f910152565b5f81518084526113cc816020860160208601611393565b601f01601f19169290920160200192915050565b602081525f61137560208301846113b5565b5f8060408385031215611403575f80fd5b50508035926020909101359150565b634e487b7160e01b5f52604160045260245ffd5b604051601f8201601f1916810167ffffffffffffffff8111828210171561144f5761144f611412565b604052919050565b5f67ffffffffffffffff82111561147057611470611412565b5060051b60200190565b5f82601f830112611489575f80fd5b8135602061149e61149983611457565b611426565b8083825260208201915060208460051b8701019350868411156114bf575f80fd5b602086015b848110156114db57803583529183019183016114c4565b509695505050505050565b5f82601f8301126114f5575f80fd5b813567ffffffffffffffff81111561150f5761150f611412565b611522601f8201601f1916602001611426565b818152846020838601011115611536575f80fd5b816020850160208301375f918101602001919091529392505050565b5f805f8060808587031215611565575f80fd5b61156e85611302565b9350602085013567ffffffffffffffff8082111561158a575f80fd5b6115968883890161147a565b945060408701359150808211156115ab575f80fd5b6115b78883890161147a565b935060608701359150808211156115cc575f80fd5b506115d9878288016114e6565b91505092959194509250565b5f805f805f60a086880312156115f9575f80fd5b61160286611302565b945061161060208701611302565b9350604086013567ffffffffffffffff8082111561162c575f80fd5b61163889838a0161147a565b9450606088013591508082111561164d575f80fd5b61165989838a0161147a565b9350608088013591508082111561166e575f80fd5b5061167b888289016114e6565b9150509295509295909350565b5f8060408385031215611699575f80fd5b823567ffffffffffffffff808211156116b0575f80fd5b818501915085601f8301126116c3575f80fd5b813560206116d361149983611457565b82815260059290921b840181019181810190898411156116f1575f80fd5b948201945b838610156117165761170786611302565b825294820194908201906116f6565b9650508601359250508082111561172b575f80fd5b506117388582860161147a565b9150509250929050565b5f815180845260208085019450602084015f5b8381101561177157815187529582019590820190600101611755565b509495945050505050565b602081525f6113756020830184611742565b5f805f606084860312156117a0575f80fd5b6117a984611302565b9250602084013567ffffffffffffffff808211156117c5575f80fd5b6117d18783880161147a565b935060408601359150808211156117e6575f80fd5b506117f38682870161147a565b9150509250925092565b5f806040838503121561180e575f80fd5b61181783611302565b91506020830135801515811461182b575f80fd5b809150509250929050565b5f8060408385031215611847575f80fd5b61185083611302565b915061185e60208401611302565b90509250929050565b5f805f805f60a0868803121561187b575f80fd5b61188486611302565b945061189260208701611302565b93506040860135925060608601359150608086013567ffffffffffffffff8111156118bb575f80fd5b61167b888289016114e6565b5f602082840312156118d7575f80fd5b61137582611302565b5f805f606084860312156118f2575f80fd5b6118fb84611302565b95602085013595506040909401359392505050565b5f8351611921818460208801611393565b835190830190611935818360208801611393565b01949350505050565b8082018082111561038a57634e487b7160e01b5f52601160045260245ffd5b634e487b7160e01b5f52603260045260245ffd5b600181811c9082168061198557607f821691505b6020821081036119a357634e487b7160e01b5f52602260045260245ffd5b50919050565b604081525f6119bb6040830185611742565b82810360208401526119cd8185611742565b95945050505050565b5f6001600160a01b03808816835280871660208401525084604083015283606083015260a06080830152611a0d60a08301846113b5565b979650505050505050565b5f60208284031215611a28575f80fd5b815161137581611345565b5f6001600160a01b03808816835280871660208401525060a06040830152611a5e60a0830186611742565b8281036060840152611a708186611742565b90508281036080840152611a8481856113b5565b9897505050505050505056fea2646970667358221220ef4c8abfd5824fac1b09cd44db62e4f8fa038482ab1dd67fff9ed70fd004a72e64736f6c63430008180033697066733a2f2f6261667962656968726b6c623232327367696f77726a6365673736726d7171707a716979756a6d6e75667633637135377373656d647862626534752f7b69647d",
			"opcodes": "PUSH1 0x80 PUSH1 0x40 MSTORE CALLVALUE DUP1 ISZERO PUSH3 0x10 JUMPI PUSH0 DUP1 REVERT JUMPDEST POP CALLER PUSH1 0x40 MLOAD DUP1 PUSH1 0x80 ADD PUSH1 0x40 MSTORE DUP1 PUSH1 0x47 DUP2 MSTORE PUSH1 0x20 ADD PUSH3 0x1D19 PUSH1 0x47 SWAP2 CODECOPY PUSH3 0x37 DUP2 PUSH3 0x78 JUMP JUMPDEST POP PUSH1 0x1 PUSH1 0x1 PUSH1 0xA0 SHL SUB DUP2 AND PUSH3 0x66 JUMPI PUSH1 0x40 MLOAD PUSH4 0x1E4FBDF7 PUSH1 0xE0 SHL DUP2 MSTORE PUSH0 PUSH1 0x4 DUP3 ADD MSTORE PUSH1 0x24 ADD PUSH1 0x40 MLOAD DUP1 SWAP2 SUB SWAP1 REVERT JUMPDEST PUSH3 0x71 DUP2 PUSH3 0x8A JUMP JUMPDEST POP PUSH3 0x245 JUMP JUMPDEST PUSH1 0x2 PUSH3 0x86 DUP3 DUP3 PUSH3 0x179 JUMP JUMPDEST POP POP JUMP JUMPDEST PUSH1 0x3 DUP1 SLOAD PUSH1 0x1 PUSH1 0x1 PUSH1 0xA0 SHL SUB DUP4 DUP2 AND PUSH1 0x1 PUSH1 0x1 PUSH1 0xA0 SHL SUB NOT DUP4 AND DUP2 OR SWAP1 SWAP4 SSTORE PUSH1 0x40 MLOAD SWAP2 AND SWAP2 SWAP1 DUP3 SWAP1 PUSH32 0x8BE0079C531659141344CD1FD0A4F28419497F9722A3DAAFE3B4186F6B6457E0 SWAP1 PUSH0 SWAP1 LOG3 POP POP JUMP JUMPDEST PUSH4 0x4E487B71 PUSH1 0xE0 SHL PUSH0 MSTORE PUSH1 0x41 PUSH1 0x4 MSTORE PUSH1 0x24 PUSH0 REVERT JUMPDEST PUSH1 0x1 DUP2 DUP2 SHR SWAP1 DUP3 AND DUP1 PUSH3 0x104 JUMPI PUSH1 0x7F DUP3 AND SWAP2 POP JUMPDEST PUSH1 0x20 DUP3 LT DUP2 SUB PUSH3 0x123 JUMPI PUSH4 0x4E487B71 PUSH1 0xE0 SHL PUSH0 MSTORE PUSH1 0x22 PUSH1 0x4 MSTORE PUSH1 0x24 PUSH0 REVERT JUMPDEST POP SWAP2 SWAP1 POP JUMP JUMPDEST PUSH1 0x1F DUP3 GT ISZERO PUSH3 0x174 JUMPI DUP1 PUSH0 MSTORE PUSH1 0x20 PUSH0 KECCAK256 PUSH1 0x1F DUP5 ADD PUSH1 0x5 SHR DUP2 ADD PUSH1 0x20 DUP6 LT ISZERO PUSH3 0x150 JUMPI POP DUP1 JUMPDEST PUSH1 0x1F DUP5 ADD PUSH1 0x5 SHR DUP3 ADD SWAP2 POP JUMPDEST DUP2 DUP2 LT ISZERO PUSH3 0x171 JUMPI PUSH0 DUP2 SSTORE PUSH1 0x1 ADD PUSH3 0x15C JUMP JUMPDEST POP POP JUMPDEST POP POP POP JUMP JUMPDEST DUP2 MLOAD PUSH1 0x1 PUSH1 0x1 PUSH1 0x40 SHL SUB DUP2 GT ISZERO PUSH3 0x195 JUMPI PUSH3 0x195 PUSH3 0xDB JUMP JUMPDEST PUSH3 0x1AD DUP2 PUSH3 0x1A6 DUP5 SLOAD PUSH3 0xEF JUMP JUMPDEST DUP5 PUSH3 0x129 JUMP JUMPDEST PUSH1 0x20 DUP1 PUSH1 0x1F DUP4 GT PUSH1 0x1 DUP2 EQ PUSH3 0x1E3 JUMPI PUSH0 DUP5 ISZERO PUSH3 0x1CB JUMPI POP DUP6 DUP4 ADD MLOAD JUMPDEST PUSH0 NOT PUSH1 0x3 DUP7 SWAP1 SHL SHR NOT AND PUSH1 0x1 DUP6 SWAP1 SHL OR DUP6 SSTORE PUSH3 0x23D JUMP JUMPDEST PUSH0 DUP6 DUP2 MSTORE PUSH1 0x20 DUP2 KECCAK256 PUSH1 0x1F NOT DUP7 AND SWAP2 JUMPDEST DUP3 DUP2 LT ISZERO PUSH3 0x213 JUMPI DUP9 DUP7 ADD MLOAD DUP3 SSTORE SWAP5 DUP5 ADD SWAP5 PUSH1 0x1 SWAP1 SWAP2 ADD SWAP1 DUP5 ADD PUSH3 0x1F2 JUMP JUMPDEST POP DUP6 DUP3 LT ISZERO PUSH3 0x231 JUMPI DUP8 DUP6 ADD MLOAD PUSH0 NOT PUSH1 0x3 DUP9 SWAP1 SHL PUSH1 0xF8 AND SHR NOT AND DUP2 SSTORE JUMPDEST POP POP PUSH1 0x1 DUP5 PUSH1 0x1 SHL ADD DUP6 SSTORE JUMPDEST POP POP POP POP POP POP JUMP JUMPDEST PUSH2 0x1AC6 DUP1 PUSH3 0x253 PUSH0 CODECOPY PUSH0 RETURN INVALID PUSH1 0x80 PUSH1 0x40 MSTORE CALLVALUE DUP1 ISZERO PUSH2 0xF JUMPI PUSH0 DUP1 REVERT JUMPDEST POP PUSH1 0x4 CALLDATASIZE LT PUSH2 0x183 JUMPI PUSH0 CALLDATALOAD PUSH1 0xE0 SHR DUP1 PUSH4 0x6B20C454 GT PUSH2 0xDD JUMPI DUP1 PUSH4 0xD99939A2 GT PUSH2 0x88 JUMPI DUP1 PUSH4 0xF242432A GT PUSH2 0x63 JUMPI DUP1 PUSH4 0xF242432A EQ PUSH2 0x330 JUMPI DUP1 PUSH4 0xF2FDE38B EQ PUSH2 0x343 JUMPI DUP1 PUSH4 0xF5298ACA EQ PUSH2 0x356 JUMPI PUSH0 DUP1 REVERT JUMPDEST DUP1 PUSH4 0xD99939A2 EQ PUSH2 0x2E6 JUMPI DUP1 PUSH4 0xE74D3862 EQ PUSH2 0x2ED JUMPI DUP1 PUSH4 0xE985E9C5 EQ PUSH2 0x2F5 JUMPI PUSH0 DUP1 REVERT JUMPDEST DUP1 PUSH4 0x8DA5CB5B GT PUSH2 0xB8 JUMPI DUP1 PUSH4 0x8DA5CB5B EQ PUSH2 0x2B0 JUMPI DUP1 PUSH4 0xA22CB465 EQ PUSH2 0x2CB JUMPI DUP1 PUSH4 0xA3CACC85 EQ PUSH2 0x2DE JUMPI PUSH0 DUP1 REVERT JUMPDEST DUP1 PUSH4 0x6B20C454 EQ PUSH2 0x28D JUMPI DUP1 PUSH4 0x715018A6 EQ PUSH2 0x2A0 JUMPI DUP1 PUSH4 0x82C0FA30 EQ PUSH2 0x2A8 JUMPI PUSH0 DUP1 REVERT JUMPDEST DUP1 PUSH4 0x1B2EF1CA GT PUSH2 0x13D JUMPI DUP1 PUSH4 0x453F6A32 GT PUSH2 0x118 JUMPI DUP1 PUSH4 0x453F6A32 EQ PUSH2 0x25D JUMPI DUP1 PUSH4 0x4A3268E4 EQ PUSH2 0x265 JUMPI DUP1 PUSH4 0x4E1273F4 EQ PUSH2 0x26D JUMPI PUSH0 DUP1 REVERT JUMPDEST DUP1 PUSH4 0x1B2EF1CA EQ PUSH2 0x222 JUMPI DUP1 PUSH4 0x1F7FDFFA EQ PUSH2 0x237 JUMPI DUP1 PUSH4 0x2EB2C2D6 EQ PUSH2 0x24A JUMPI PUSH0 DUP1 REVERT JUMPDEST DUP1 PUSH4 0xCE52E07 GT PUSH2 0x16D JUMPI DUP1 PUSH4 0xCE52E07 EQ PUSH2 0x1D0 JUMPI DUP1 PUSH4 0xD9371AD EQ PUSH2 0x1FA JUMPI DUP1 PUSH4 0xE89341C EQ PUSH2 0x202 JUMPI PUSH0 DUP1 REVERT JUMPDEST DUP1 PUSH3 0xFDD58E EQ PUSH2 0x187 JUMPI DUP1 PUSH4 0x1FFC9A7 EQ PUSH2 0x1AD JUMPI JUMPDEST PUSH0 DUP1 REVERT JUMPDEST PUSH2 0x19A PUSH2 0x195 CALLDATASIZE PUSH1 0x4 PUSH2 0x131D JUMP JUMPDEST PUSH2 0x369 JUMP JUMPDEST PUSH1 0x40 MLOAD SWAP1 DUP2 MSTORE PUSH1 0x20 ADD JUMPDEST PUSH1 0x40 MLOAD DUP1 SWAP2 SUB SWAP1 RETURN JUMPDEST PUSH2 0x1C0 PUSH2 0x1BB CALLDATASIZE PUSH1 0x4 PUSH2 0x135A JUMP JUMPDEST PUSH2 0x390 JUMP JUMPDEST PUSH1 0x40 MLOAD SWAP1 ISZERO ISZERO DUP2 MSTORE PUSH1 0x20 ADD PUSH2 0x1A4 JUMP JUMPDEST PUSH2 0x19A PUSH2 0x1DE CALLDATASIZE PUSH1 0x4 PUSH2 0x131D JUMP JUMPDEST PUSH1 0x4 PUSH1 0x20 SWAP1 DUP2 MSTORE PUSH0 SWAP3 DUP4 MSTORE PUSH1 0x40 DUP1 DUP5 KECCAK256 SWAP1 SWAP2 MSTORE SWAP1 DUP3 MSTORE SWAP1 KECCAK256 SLOAD DUP2 JUMP JUMPDEST PUSH2 0x19A PUSH1 0x4 DUP2 JUMP JUMPDEST PUSH2 0x215 PUSH2 0x210 CALLDATASIZE PUSH1 0x4 PUSH2 0x137C JUMP JUMPDEST PUSH2 0x42A JUMP JUMPDEST PUSH1 0x40 MLOAD PUSH2 0x1A4 SWAP2 SWAP1 PUSH2 0x13E0 JUMP JUMPDEST PUSH2 0x235 PUSH2 0x230 CALLDATASIZE PUSH1 0x4 PUSH2 0x13F2 JUMP JUMPDEST PUSH2 0x465 JUMP JUMPDEST STOP JUMPDEST PUSH2 0x235 PUSH2 0x245 CALLDATASIZE PUSH1 0x4 PUSH2 0x1552 JUMP JUMPDEST PUSH2 0x567 JUMP JUMPDEST PUSH2 0x235 PUSH2 0x258 CALLDATASIZE PUSH1 0x4 PUSH2 0x15E5 JUMP JUMPDEST PUSH2 0x581 JUMP JUMPDEST PUSH2 0x19A PUSH1 0x3 DUP2 JUMP JUMPDEST PUSH2 0x19A PUSH1 0x1 DUP2 JUMP JUMPDEST PUSH2 0x280 PUSH2 0x27B CALLDATASIZE PUSH1 0x4 PUSH2 0x1688 JUMP JUMPDEST PUSH2 0x606 JUMP JUMPDEST PUSH1 0x40 MLOAD PUSH2 0x1A4 SWAP2 SWAP1 PUSH2 0x177C JUMP JUMPDEST PUSH2 0x235 PUSH2 0x29B CALLDATASIZE PUSH1 0x4 PUSH2 0x178E JUMP JUMPDEST PUSH2 0x6D1 JUMP JUMPDEST PUSH2 0x235 PUSH2 0x766 JUMP JUMPDEST PUSH2 0x19A PUSH1 0x2 DUP2 JUMP JUMPDEST PUSH1 0x3 SLOAD PUSH1 0x40 MLOAD PUSH1 0x1 PUSH1 0x1 PUSH1 0xA0 SHL SUB SWAP1 SWAP2 AND DUP2 MSTORE PUSH1 0x20 ADD PUSH2 0x1A4 JUMP JUMPDEST PUSH2 0x235 PUSH2 0x2D9 CALLDATASIZE PUSH1 0x4 PUSH2 0x17FD JUMP JUMPDEST PUSH2 0x779 JUMP JUMPDEST PUSH2 0x19A PUSH1 0x6 DUP2 JUMP JUMPDEST PUSH2 0x19A PUSH0 DUP2 JUMP JUMPDEST PUSH2 0x19A PUSH1 0x5 DUP2 JUMP JUMPDEST PUSH2 0x1C0 PUSH2 0x303 CALLDATASIZE PUSH1 0x4 PUSH2 0x1836 JUMP JUMPDEST PUSH1 0x1 PUSH1 0x1 PUSH1 0xA0 SHL SUB SWAP2 DUP3 AND PUSH0 SWAP1 DUP2 MSTORE PUSH1 0x1 PUSH1 0x20 SWAP1 DUP2 MSTORE PUSH1 0x40 DUP1 DUP4 KECCAK256 SWAP4 SWAP1 SWAP5 AND DUP3 MSTORE SWAP2 SWAP1 SWAP2 MSTORE KECCAK256 SLOAD PUSH1 0xFF AND SWAP1 JUMP JUMPDEST PUSH2 0x235 PUSH2 0x33E CALLDATASIZE PUSH1 0x4 PUSH2 0x1867 JUMP JUMPDEST PUSH2 0x784 JUMP JUMPDEST PUSH2 0x235 PUSH2 0x351 CALLDATASIZE PUSH1 0x4 PUSH2 0x18C7 JUMP JUMPDEST PUSH2 0x801 JUMP JUMPDEST PUSH2 0x235 PUSH2 0x364 CALLDATASIZE PUSH1 0x4 PUSH2 0x18E0 JUMP JUMPDEST PUSH2 0x857 JUMP JUMPDEST PUSH0 DUP2 DUP2 MSTORE PUSH1 0x20 DUP2 DUP2 MSTORE PUSH1 0x40 DUP1 DUP4 KECCAK256 PUSH1 0x1 PUSH1 0x1 PUSH1 0xA0 SHL SUB DUP7 AND DUP5 MSTORE SWAP1 SWAP2 MSTORE SWAP1 KECCAK256 SLOAD JUMPDEST SWAP3 SWAP2 POP POP JUMP JUMPDEST PUSH0 PUSH1 0x1 PUSH1 0x1 PUSH1 0xE0 SHL SUB NOT DUP3 AND PUSH32 0xD9B67A2600000000000000000000000000000000000000000000000000000000 EQ DUP1 PUSH2 0x3F2 JUMPI POP PUSH1 0x1 PUSH1 0x1 PUSH1 0xE0 SHL SUB NOT DUP3 AND PUSH32 0xE89341C00000000000000000000000000000000000000000000000000000000 EQ JUMPDEST DUP1 PUSH2 0x38A JUMPI POP PUSH32 0x1FFC9A700000000000000000000000000000000000000000000000000000000 PUSH1 0x1 PUSH1 0x1 PUSH1 0xE0 SHL SUB NOT DUP4 AND EQ PUSH2 0x38A JUMP JUMPDEST PUSH1 0x60 PUSH2 0x435 DUP3 PUSH2 0x8E7 JUMP JUMPDEST PUSH2 0x43E DUP4 PUSH2 0x979 JUMP JUMPDEST PUSH1 0x40 MLOAD PUSH1 0x20 ADD PUSH2 0x44F SWAP3 SWAP2 SWAP1 PUSH2 0x1910 JUMP JUMPDEST PUSH1 0x40 MLOAD PUSH1 0x20 DUP2 DUP4 SUB SUB DUP2 MSTORE SWAP1 PUSH1 0x40 MSTORE SWAP1 POP SWAP2 SWAP1 POP JUMP JUMPDEST PUSH1 0x2 DUP3 GT ISZERO PUSH2 0x4BB JUMPI PUSH1 0x40 MLOAD PUSH3 0x461BCD PUSH1 0xE5 SHL DUP2 MSTORE PUSH1 0x20 PUSH1 0x4 DUP3 ADD MSTORE PUSH1 0x10 PUSH1 0x24 DUP3 ADD MSTORE PUSH32 0x496E76616C696420746F6B656E20494400000000000000000000000000000000 PUSH1 0x44 DUP3 ADD MSTORE PUSH1 0x64 ADD JUMPDEST PUSH1 0x40 MLOAD DUP1 SWAP2 SUB SWAP1 REVERT JUMPDEST CALLER PUSH0 SWAP1 DUP2 MSTORE PUSH1 0x4 PUSH1 0x20 SWAP1 DUP2 MSTORE PUSH1 0x40 DUP1 DUP4 KECCAK256 DUP6 DUP5 MSTORE SWAP1 SWAP2 MSTORE SWAP1 KECCAK256 SLOAD PUSH2 0x4E0 SWAP1 PUSH1 0x3C PUSH2 0x193E JUMP JUMPDEST TIMESTAMP LT ISZERO PUSH2 0x52F JUMPI PUSH1 0x40 MLOAD PUSH3 0x461BCD PUSH1 0xE5 SHL DUP2 MSTORE PUSH1 0x20 PUSH1 0x4 DUP3 ADD MSTORE PUSH1 0xD PUSH1 0x24 DUP3 ADD MSTORE PUSH32 0x4D696E7420636F6F6C646F776E00000000000000000000000000000000000000 PUSH1 0x44 DUP3 ADD MSTORE PUSH1 0x64 ADD PUSH2 0x4B2 JUMP JUMPDEST CALLER PUSH0 DUP2 DUP2 MSTORE PUSH1 0x4 PUSH1 0x20 SWAP1 DUP2 MSTORE PUSH1 0x40 DUP1 DUP4 KECCAK256 DUP7 DUP5 MSTORE DUP3 MSTORE DUP1 DUP4 KECCAK256 TIMESTAMP SWAP1 SSTORE DUP1 MLOAD SWAP2 DUP3 ADD SWAP1 MSTORE SWAP1 DUP2 MSTORE PUSH2 0x563 SWAP2 SWAP1 DUP5 SWAP1 DUP5 SWAP1 PUSH2 0xA16 JUMP JUMPDEST POP POP JUMP JUMPDEST PUSH2 0x56F PUSH2 0xA71 JUMP JUMPDEST PUSH2 0x57B DUP5 DUP5 DUP5 DUP5 PUSH2 0xAB7 JUMP JUMPDEST POP POP POP POP JUMP JUMPDEST CALLER PUSH1 0x1 PUSH1 0x1 PUSH1 0xA0 SHL SUB DUP7 AND DUP2 EQ DUP1 ISZERO SWAP1 PUSH2 0x5C0 JUMPI POP PUSH1 0x1 PUSH1 0x1 PUSH1 0xA0 SHL SUB DUP1 DUP8 AND PUSH0 SWAP1 DUP2 MSTORE PUSH1 0x1 PUSH1 0x20 SWAP1 DUP2 MSTORE PUSH1 0x40 DUP1 DUP4 KECCAK256 SWAP4 DUP6 AND DUP4 MSTORE SWAP3 SWAP1 MSTORE KECCAK256 SLOAD PUSH1 0xFF AND ISZERO JUMPDEST ISZERO PUSH2 0x5F1 JUMPI PUSH1 0x40 MLOAD PUSH4 0x711BEC91 PUSH1 0xE1 SHL DUP2 MSTORE PUSH1 0x1 PUSH1 0x1 PUSH1 0xA0 SHL SUB DUP1 DUP4 AND PUSH1 0x4 DUP4 ADD MSTORE DUP8 AND PUSH1 0x24 DUP3 ADD MSTORE PUSH1 0x44 ADD PUSH2 0x4B2 JUMP JUMPDEST PUSH2 0x5FE DUP7 DUP7 DUP7 DUP7 DUP7 PUSH2 0xAED JUMP JUMPDEST POP POP POP POP POP POP JUMP JUMPDEST PUSH1 0x60 DUP2 MLOAD DUP4 MLOAD EQ PUSH2 0x637 JUMPI DUP2 MLOAD DUP4 MLOAD PUSH1 0x40 MLOAD PUSH4 0x5B059991 PUSH1 0xE0 SHL DUP2 MSTORE PUSH1 0x4 DUP2 ADD SWAP3 SWAP1 SWAP3 MSTORE PUSH1 0x24 DUP3 ADD MSTORE PUSH1 0x44 ADD PUSH2 0x4B2 JUMP JUMPDEST PUSH0 DUP4 MLOAD PUSH8 0xFFFFFFFFFFFFFFFF DUP2 GT ISZERO PUSH2 0x652 JUMPI PUSH2 0x652 PUSH2 0x1412 JUMP JUMPDEST PUSH1 0x40 MLOAD SWAP1 DUP1 DUP3 MSTORE DUP1 PUSH1 0x20 MUL PUSH1 0x20 ADD DUP3 ADD PUSH1 0x40 MSTORE DUP1 ISZERO PUSH2 0x67B JUMPI DUP2 PUSH1 0x20 ADD PUSH1 0x20 DUP3 MUL DUP1 CALLDATASIZE DUP4 CALLDATACOPY ADD SWAP1 POP JUMPDEST POP SWAP1 POP PUSH0 JUMPDEST DUP5 MLOAD DUP2 LT ISZERO PUSH2 0x6C9 JUMPI PUSH1 0x20 DUP1 DUP3 MUL DUP7 ADD ADD MLOAD PUSH2 0x6A4 SWAP1 PUSH1 0x20 DUP1 DUP5 MUL DUP8 ADD ADD MLOAD PUSH2 0x369 JUMP JUMPDEST DUP3 DUP3 DUP2 MLOAD DUP2 LT PUSH2 0x6B6 JUMPI PUSH2 0x6B6 PUSH2 0x195D JUMP JUMPDEST PUSH1 0x20 SWAP1 DUP2 MUL SWAP2 SWAP1 SWAP2 ADD ADD MSTORE PUSH1 0x1 ADD PUSH2 0x680 JUMP JUMPDEST POP SWAP4 SWAP3 POP POP POP JUMP JUMPDEST CALLER PUSH1 0x1 PUSH1 0x1 PUSH1 0xA0 SHL SUB DUP5 AND EQ DUP1 PUSH2 0x70A JUMPI POP PUSH1 0x1 PUSH1 0x1 PUSH1 0xA0 SHL SUB DUP4 AND PUSH0 SWAP1 DUP2 MSTORE PUSH1 0x1 PUSH1 0x20 SWAP1 DUP2 MSTORE PUSH1 0x40 DUP1 DUP4 KECCAK256 CALLER DUP5 MSTORE SWAP1 SWAP2 MSTORE SWAP1 KECCAK256 SLOAD PUSH1 0xFF AND JUMPDEST PUSH2 0x756 JUMPI PUSH1 0x40 MLOAD PUSH3 0x461BCD PUSH1 0xE5 SHL DUP2 MSTORE PUSH1 0x20 PUSH1 0x4 DUP3 ADD DUP2 SWAP1 MSTORE PUSH1 0x24 DUP3 ADD MSTORE PUSH32 0x43616C6C6572206973206E6F74206F776E6572206E6F7220617070726F766564 PUSH1 0x44 DUP3 ADD MSTORE PUSH1 0x64 ADD PUSH2 0x4B2 JUMP JUMPDEST PUSH2 0x761 DUP4 DUP4 DUP4 PUSH2 0xB52 JUMP JUMPDEST POP POP POP JUMP JUMPDEST PUSH2 0x76E PUSH2 0xA71 JUMP JUMPDEST PUSH2 0x777 PUSH0 PUSH2 0xB95 JUMP JUMPDEST JUMP JUMPDEST PUSH2 0x563 CALLER DUP4 DUP4 PUSH2 0xBFE JUMP JUMPDEST CALLER PUSH1 0x1 PUSH1 0x1 PUSH1 0xA0 SHL SUB DUP7 AND DUP2 EQ DUP1 ISZERO SWAP1 PUSH2 0x7C3 JUMPI POP PUSH1 0x1 PUSH1 0x1 PUSH1 0xA0 SHL SUB DUP1 DUP8 AND PUSH0 SWAP1 DUP2 MSTORE PUSH1 0x1 PUSH1 0x20 SWAP1 DUP2 MSTORE PUSH1 0x40 DUP1 DUP4 KECCAK256 SWAP4 DUP6 AND DUP4 MSTORE SWAP3 SWAP1 MSTORE KECCAK256 SLOAD PUSH1 0xFF AND ISZERO JUMPDEST ISZERO PUSH2 0x7F4 JUMPI PUSH1 0x40 MLOAD PUSH4 0x711BEC91 PUSH1 0xE1 SHL DUP2 MSTORE PUSH1 0x1 PUSH1 0x1 PUSH1 0xA0 SHL SUB DUP1 DUP4 AND PUSH1 0x4 DUP4 ADD MSTORE DUP8 AND PUSH1 0x24 DUP3 ADD MSTORE PUSH1 0x44 ADD PUSH2 0x4B2 JUMP JUMPDEST PUSH2 0x5FE DUP7 DUP7 DUP7 DUP7 DUP7 PUSH2 0xCAC JUMP JUMPDEST PUSH2 0x809 PUSH2 0xA71 JUMP JUMPDEST PUSH1 0x1 PUSH1 0x1 PUSH1 0xA0 SHL SUB DUP2 AND PUSH2 0x84B JUMPI PUSH1 0x40 MLOAD PUSH32 0x1E4FBDF700000000000000000000000000000000000000000000000000000000 DUP2 MSTORE PUSH0 PUSH1 0x4 DUP3 ADD MSTORE PUSH1 0x24 ADD PUSH2 0x4B2 JUMP JUMPDEST PUSH2 0x854 DUP2 PUSH2 0xB95 JUMP JUMPDEST POP JUMP JUMPDEST CALLER PUSH1 0x1 PUSH1 0x1 PUSH1 0xA0 SHL SUB DUP5 AND EQ DUP1 PUSH2 0x890 JUMPI POP PUSH1 0x1 PUSH1 0x1 PUSH1 0xA0 SHL SUB DUP4 AND PUSH0 SWAP1 DUP2 MSTORE PUSH1 0x1 PUSH1 0x20 SWAP1 DUP2 MSTORE PUSH1 0x40 DUP1 DUP4 KECCAK256 CALLER DUP5 MSTORE SWAP1 SWAP2 MSTORE SWAP1 KECCAK256 SLOAD PUSH1 0xFF AND JUMPDEST PUSH2 0x8DC JUMPI PUSH1 0x40 MLOAD PUSH3 0x461BCD PUSH1 0xE5 SHL DUP2 MSTORE PUSH1 0x20 PUSH1 0x4 DUP3 ADD DUP2 SWAP1 MSTORE PUSH1 0x24 DUP3 ADD MSTORE PUSH32 0x43616C6C6572206973206E6F74206F776E6572206E6F7220617070726F766564 PUSH1 0x44 DUP3 ADD MSTORE PUSH1 0x64 ADD PUSH2 0x4B2 JUMP JUMPDEST PUSH2 0x761 DUP4 DUP4 DUP4 PUSH2 0xD38 JUMP JUMPDEST PUSH1 0x60 PUSH1 0x2 DUP1 SLOAD PUSH2 0x8F6 SWAP1 PUSH2 0x1971 JUMP JUMPDEST DUP1 PUSH1 0x1F ADD PUSH1 0x20 DUP1 SWAP2 DIV MUL PUSH1 0x20 ADD PUSH1 0x40 MLOAD SWAP1 DUP2 ADD PUSH1 0x40 MSTORE DUP1 SWAP3 SWAP2 SWAP1 DUP2 DUP2 MSTORE PUSH1 0x20 ADD DUP3 DUP1 SLOAD PUSH2 0x922 SWAP1 PUSH2 0x1971 JUMP JUMPDEST DUP1 ISZERO PUSH2 0x96D JUMPI DUP1 PUSH1 0x1F LT PUSH2 0x944 JUMPI PUSH2 0x100 DUP1 DUP4 SLOAD DIV MUL DUP4 MSTORE SWAP2 PUSH1 0x20 ADD SWAP2 PUSH2 0x96D JUMP JUMPDEST DUP3 ADD SWAP2 SWAP1 PUSH0 MSTORE PUSH1 0x20 PUSH0 KECCAK256 SWAP1 JUMPDEST DUP2 SLOAD DUP2 MSTORE SWAP1 PUSH1 0x1 ADD SWAP1 PUSH1 0x20 ADD DUP1 DUP4 GT PUSH2 0x950 JUMPI DUP3 SWAP1 SUB PUSH1 0x1F AND DUP3 ADD SWAP2 JUMPDEST POP POP POP POP POP SWAP1 POP SWAP2 SWAP1 POP JUMP JUMPDEST PUSH1 0x60 PUSH0 PUSH2 0x985 DUP4 PUSH2 0xD9E JUMP JUMPDEST PUSH1 0x1 ADD SWAP1 POP PUSH0 DUP2 PUSH8 0xFFFFFFFFFFFFFFFF DUP2 GT ISZERO PUSH2 0x9A4 JUMPI PUSH2 0x9A4 PUSH2 0x1412 JUMP JUMPDEST PUSH1 0x40 MLOAD SWAP1 DUP1 DUP3 MSTORE DUP1 PUSH1 0x1F ADD PUSH1 0x1F NOT AND PUSH1 0x20 ADD DUP3 ADD PUSH1 0x40 MSTORE DUP1 ISZERO PUSH2 0x9CE JUMPI PUSH1 0x20 DUP3 ADD DUP2 DUP1 CALLDATASIZE DUP4 CALLDATACOPY ADD SWAP1 POP JUMPDEST POP SWAP1 POP DUP2 DUP2 ADD PUSH1 0x20 ADD JUMPDEST PUSH0 NOT ADD PUSH32 0x3031323334353637383961626364656600000000000000000000000000000000 PUSH1 0xA DUP7 MOD BYTE DUP2 MSTORE8 PUSH1 0xA DUP6 DIV SWAP5 POP DUP5 PUSH2 0x9D8 JUMPI POP SWAP4 SWAP3 POP POP POP JUMP JUMPDEST PUSH1 0x1 PUSH1 0x1 PUSH1 0xA0 SHL SUB DUP5 AND PUSH2 0xA3F JUMPI PUSH1 0x40 MLOAD PUSH4 0x2BFA23E7 PUSH1 0xE1 SHL DUP2 MSTORE PUSH0 PUSH1 0x4 DUP3 ADD MSTORE PUSH1 0x24 ADD PUSH2 0x4B2 JUMP JUMPDEST PUSH1 0x40 DUP1 MLOAD PUSH1 0x1 DUP1 DUP3 MSTORE PUSH1 0x20 DUP3 ADD DUP7 SWAP1 MSTORE DUP2 DUP4 ADD SWAP1 DUP2 MSTORE PUSH1 0x60 DUP3 ADD DUP6 SWAP1 MSTORE PUSH1 0x80 DUP3 ADD SWAP1 SWAP3 MSTORE SWAP1 PUSH2 0x5FE PUSH0 DUP8 DUP5 DUP5 DUP8 PUSH2 0xE7F JUMP JUMPDEST PUSH1 0x3 SLOAD PUSH1 0x1 PUSH1 0x1 PUSH1 0xA0 SHL SUB AND CALLER EQ PUSH2 0x777 JUMPI PUSH1 0x40 MLOAD PUSH32 0x118CDAA700000000000000000000000000000000000000000000000000000000 DUP2 MSTORE CALLER PUSH1 0x4 DUP3 ADD MSTORE PUSH1 0x24 ADD PUSH2 0x4B2 JUMP JUMPDEST PUSH1 0x1 PUSH1 0x1 PUSH1 0xA0 SHL SUB DUP5 AND PUSH2 0xAE0 JUMPI PUSH1 0x40 MLOAD PUSH4 0x2BFA23E7 PUSH1 0xE1 SHL DUP2 MSTORE PUSH0 PUSH1 0x4 DUP3 ADD MSTORE PUSH1 0x24 ADD PUSH2 0x4B2 JUMP JUMPDEST PUSH2 0x57B PUSH0 DUP6 DUP6 DUP6 DUP6 PUSH2 0xE7F JUMP JUMPDEST PUSH1 0x1 PUSH1 0x1 PUSH1 0xA0 SHL SUB DUP5 AND PUSH2 0xB16 JUMPI PUSH1 0x40 MLOAD PUSH4 0x2BFA23E7 PUSH1 0xE1 SHL DUP2 MSTORE PUSH0 PUSH1 0x4 DUP3 ADD MSTORE PUSH1 0x24 ADD PUSH2 0x4B2 JUMP JUMPDEST PUSH1 0x1 PUSH1 0x1 PUSH1 0xA0 SHL SUB DUP6 AND PUSH2 0xB3E JUMPI PUSH1 0x40 MLOAD PUSH3 0x6A0D45 PUSH1 0xE2 SHL DUP2 MSTORE PUSH0 PUSH1 0x4 DUP3 ADD MSTORE PUSH1 0x24 ADD PUSH2 0x4B2 JUMP JUMPDEST PUSH2 0xB4B DUP6 DUP6 DUP6 DUP6 DUP6 PUSH2 0xE7F JUMP JUMPDEST POP POP POP POP POP JUMP JUMPDEST PUSH1 0x1 PUSH1 0x1 PUSH1 0xA0 SHL SUB DUP4 AND PUSH2 0xB7A JUMPI PUSH1 0x40 MLOAD PUSH3 0x6A0D45 PUSH1 0xE2 SHL DUP2 MSTORE PUSH0 PUSH1 0x4 DUP3 ADD MSTORE PUSH1 0x24 ADD PUSH2 0x4B2 JUMP JUMPDEST PUSH2 0x761 DUP4 PUSH0 DUP5 DUP5 PUSH1 0x40 MLOAD DUP1 PUSH1 0x20 ADD PUSH1 0x40 MSTORE DUP1 PUSH0 DUP2 MSTORE POP PUSH2 0xE7F JUMP JUMPDEST PUSH1 0x3 DUP1 SLOAD PUSH1 0x1 PUSH1 0x1 PUSH1 0xA0 SHL SUB DUP4 DUP2 AND PUSH32 0xFFFFFFFFFFFFFFFFFFFFFFFF0000000000000000000000000000000000000000 DUP4 AND DUP2 OR SWAP1 SWAP4 SSTORE PUSH1 0x40 MLOAD SWAP2 AND SWAP2 SWAP1 DUP3 SWAP1 PUSH32 0x8BE0079C531659141344CD1FD0A4F28419497F9722A3DAAFE3B4186F6B6457E0 SWAP1 PUSH0 SWAP1 LOG3 POP POP JUMP JUMPDEST PUSH1 0x1 PUSH1 0x1 PUSH1 0xA0 SHL SUB DUP3 AND PUSH2 0xC40 JUMPI PUSH1 0x40 MLOAD PUSH32 0xCED3E10000000000000000000000000000000000000000000000000000000000 DUP2 MSTORE PUSH0 PUSH1 0x4 DUP3 ADD MSTORE PUSH1 0x24 ADD PUSH2 0x4B2 JUMP JUMPDEST PUSH1 0x1 PUSH1 0x1 PUSH1 0xA0 SHL SUB DUP4 DUP2 AND PUSH0 DUP2 DUP2 MSTORE PUSH1 0x1 PUSH1 0x20 SWAP1 DUP2 MSTORE PUSH1 0x40 DUP1 DUP4 KECCAK256 SWAP5 DUP8 AND DUP1 DUP5 MSTORE SWAP5 DUP3 MSTORE SWAP2 DUP3 SWAP1 KECCAK256 DUP1 SLOAD PUSH1 0xFF NOT AND DUP7 ISZERO ISZERO SWAP1 DUP2 OR SWAP1 SWAP2 SSTORE SWAP2 MLOAD SWAP2 DUP3 MSTORE PUSH32 0x17307EAB39AB6107E8899845AD3D59BD9653F200F220920489CA2B5937696C31 SWAP2 ADD PUSH1 0x40 MLOAD DUP1 SWAP2 SUB SWAP1 LOG3 POP POP POP JUMP JUMPDEST PUSH1 0x1 PUSH1 0x1 PUSH1 0xA0 SHL SUB DUP5 AND PUSH2 0xCD5 JUMPI PUSH1 0x40 MLOAD PUSH4 0x2BFA23E7 PUSH1 0xE1 SHL DUP2 MSTORE PUSH0 PUSH1 0x4 DUP3 ADD MSTORE PUSH1 0x24 ADD PUSH2 0x4B2 JUMP JUMPDEST PUSH1 0x1 PUSH1 0x1 PUSH1 0xA0 SHL SUB DUP6 AND PUSH2 0xCFD JUMPI PUSH1 0x40 MLOAD PUSH3 0x6A0D45 PUSH1 0xE2 SHL DUP2 MSTORE PUSH0 PUSH1 0x4 DUP3 ADD MSTORE PUSH1 0x24 ADD PUSH2 0x4B2 JUMP JUMPDEST PUSH1 0x40 DUP1 MLOAD PUSH1 0x1 DUP1 DUP3 MSTORE PUSH1 0x20 DUP3 ADD DUP7 SWAP1 MSTORE DUP2 DUP4 ADD SWAP1 DUP2 MSTORE PUSH1 0x60 DUP3 ADD DUP6 SWAP1 MSTORE PUSH1 0x80 DUP3 ADD SWAP1 SWAP3 MSTORE SWAP1 PUSH2 0xD2F DUP8 DUP8 DUP5 DUP5 DUP8 PUSH2 0xE7F JUMP JUMPDEST POP POP POP POP POP POP POP JUMP JUMPDEST PUSH1 0x1 PUSH1 0x1 PUSH1 0xA0 SHL SUB DUP4 AND PUSH2 0xD60 JUMPI PUSH1 0x40 MLOAD PUSH3 0x6A0D45 PUSH1 0xE2 SHL DUP2 MSTORE PUSH0 PUSH1 0x4 DUP3 ADD MSTORE PUSH1 0x24 ADD PUSH2 0x4B2 JUMP JUMPDEST PUSH1 0x40 DUP1 MLOAD PUSH1 0x1 DUP1 DUP3 MSTORE PUSH1 0x20 DUP3 ADD DUP6 SWAP1 MSTORE DUP2 DUP4 ADD SWAP1 DUP2 MSTORE PUSH1 0x60 DUP3 ADD DUP5 SWAP1 MSTORE PUSH1 0xA0 DUP3 ADD SWAP1 SWAP3 MSTORE PUSH0 PUSH1 0x80 DUP3 ADD DUP2 DUP2 MSTORE SWAP2 SWAP3 SWAP2 PUSH2 0xB4B SWAP2 DUP8 SWAP2 DUP6 SWAP1 DUP6 SWAP1 PUSH2 0xE7F JUMP JUMPDEST PUSH0 DUP1 PUSH27 0x184F03E93FF9F4DAA797ED6E38ED64BF6A1F010000000000000000 DUP4 LT PUSH2 0xDE6 JUMPI PUSH27 0x184F03E93FF9F4DAA797ED6E38ED64BF6A1F010000000000000000 DUP4 DIV SWAP3 POP PUSH1 0x40 ADD JUMPDEST PUSH14 0x4EE2D6D415B85ACEF8100000000 DUP4 LT PUSH2 0xE12 JUMPI PUSH14 0x4EE2D6D415B85ACEF8100000000 DUP4 DIV SWAP3 POP PUSH1 0x20 ADD JUMPDEST PUSH7 0x2386F26FC10000 DUP4 LT PUSH2 0xE30 JUMPI PUSH7 0x2386F26FC10000 DUP4 DIV SWAP3 POP PUSH1 0x10 ADD JUMPDEST PUSH4 0x5F5E100 DUP4 LT PUSH2 0xE48 JUMPI PUSH4 0x5F5E100 DUP4 DIV SWAP3 POP PUSH1 0x8 ADD JUMPDEST PUSH2 0x2710 DUP4 LT PUSH2 0xE5C JUMPI PUSH2 0x2710 DUP4 DIV SWAP3 POP PUSH1 0x4 ADD JUMPDEST PUSH1 0x64 DUP4 LT PUSH2 0xE6E JUMPI PUSH1 0x64 DUP4 DIV SWAP3 POP PUSH1 0x2 ADD JUMPDEST PUSH1 0xA DUP4 LT PUSH2 0x38A JUMPI PUSH1 0x1 ADD SWAP3 SWAP2 POP POP JUMP JUMPDEST PUSH2 0xE8B DUP6 DUP6 DUP6 DUP6 PUSH2 0xED2 JUMP JUMPDEST PUSH1 0x1 PUSH1 0x1 PUSH1 0xA0 SHL SUB DUP5 AND ISZERO PUSH2 0xB4B JUMPI DUP3 MLOAD CALLER SWAP1 PUSH1 0x1 SUB PUSH2 0xEC4 JUMPI PUSH1 0x20 DUP5 DUP2 ADD MLOAD SWAP1 DUP5 ADD MLOAD PUSH2 0xEBD DUP4 DUP10 DUP10 DUP6 DUP6 DUP10 PUSH2 0x10FA JUMP JUMPDEST POP POP PUSH2 0x5FE JUMP JUMPDEST PUSH2 0x5FE DUP2 DUP8 DUP8 DUP8 DUP8 DUP8 PUSH2 0x121B JUMP JUMPDEST DUP1 MLOAD DUP3 MLOAD EQ PUSH2 0xF01 JUMPI DUP2 MLOAD DUP2 MLOAD PUSH1 0x40 MLOAD PUSH4 0x5B059991 PUSH1 0xE0 SHL DUP2 MSTORE PUSH1 0x4 DUP2 ADD SWAP3 SWAP1 SWAP3 MSTORE PUSH1 0x24 DUP3 ADD MSTORE PUSH1 0x44 ADD PUSH2 0x4B2 JUMP JUMPDEST CALLER PUSH0 JUMPDEST DUP4 MLOAD DUP2 LT ISZERO PUSH2 0x101C JUMPI PUSH1 0x20 DUP2 DUP2 MUL DUP6 DUP2 ADD DUP3 ADD MLOAD SWAP1 DUP6 ADD SWAP1 SWAP2 ADD MLOAD PUSH1 0x1 PUSH1 0x1 PUSH1 0xA0 SHL SUB DUP9 AND ISZERO PUSH2 0xFCE JUMPI PUSH0 DUP3 DUP2 MSTORE PUSH1 0x20 DUP2 DUP2 MSTORE PUSH1 0x40 DUP1 DUP4 KECCAK256 PUSH1 0x1 PUSH1 0x1 PUSH1 0xA0 SHL SUB DUP13 AND DUP5 MSTORE SWAP1 SWAP2 MSTORE SWAP1 KECCAK256 SLOAD DUP2 DUP2 LT ISZERO PUSH2 0xFA8 JUMPI PUSH1 0x40 MLOAD PUSH32 0x3DEE4C500000000000000000000000000000000000000000000000000000000 DUP2 MSTORE PUSH1 0x1 PUSH1 0x1 PUSH1 0xA0 SHL SUB DUP11 AND PUSH1 0x4 DUP3 ADD MSTORE PUSH1 0x24 DUP2 ADD DUP3 SWAP1 MSTORE PUSH1 0x44 DUP2 ADD DUP4 SWAP1 MSTORE PUSH1 0x64 DUP2 ADD DUP5 SWAP1 MSTORE PUSH1 0x84 ADD PUSH2 0x4B2 JUMP JUMPDEST PUSH0 DUP4 DUP2 MSTORE PUSH1 0x20 DUP2 DUP2 MSTORE PUSH1 0x40 DUP1 DUP4 KECCAK256 PUSH1 0x1 PUSH1 0x1 PUSH1 0xA0 SHL SUB DUP14 AND DUP5 MSTORE SWAP1 SWAP2 MSTORE SWAP1 KECCAK256 SWAP1 DUP3 SWAP1 SUB SWAP1 SSTORE JUMPDEST PUSH1 0x1 PUSH1 0x1 PUSH1 0xA0 SHL SUB DUP8 AND ISZERO PUSH2 0x1012 JUMPI PUSH0 DUP3 DUP2 MSTORE PUSH1 0x20 DUP2 DUP2 MSTORE PUSH1 0x40 DUP1 DUP4 KECCAK256 PUSH1 0x1 PUSH1 0x1 PUSH1 0xA0 SHL SUB DUP12 AND DUP5 MSTORE SWAP1 SWAP2 MSTORE DUP2 KECCAK256 DUP1 SLOAD DUP4 SWAP3 SWAP1 PUSH2 0x100C SWAP1 DUP5 SWAP1 PUSH2 0x193E JUMP JUMPDEST SWAP1 SWAP2 SSTORE POP POP JUMPDEST POP POP PUSH1 0x1 ADD PUSH2 0xF04 JUMP JUMPDEST POP DUP3 MLOAD PUSH1 0x1 SUB PUSH2 0x109C JUMPI PUSH1 0x20 DUP4 ADD MLOAD PUSH0 SWAP1 PUSH1 0x20 DUP5 ADD MLOAD SWAP1 SWAP2 POP DUP6 PUSH1 0x1 PUSH1 0x1 PUSH1 0xA0 SHL SUB AND DUP8 PUSH1 0x1 PUSH1 0x1 PUSH1 0xA0 SHL SUB AND DUP5 PUSH1 0x1 PUSH1 0x1 PUSH1 0xA0 SHL SUB AND PUSH32 0xC3D58168C5AE7397731D063D5BBF3D657854427343F4C083240F7AACAA2D0F62 DUP6 DUP6 PUSH1 0x40 MLOAD PUSH2 0x108D SWAP3 SWAP2 SWAP1 SWAP2 DUP3 MSTORE PUSH1 0x20 DUP3 ADD MSTORE PUSH1 0x40 ADD SWAP1 JUMP JUMPDEST PUSH1 0x40 MLOAD DUP1 SWAP2 SUB SWAP1 LOG4 POP POP PUSH2 0xB4B JUMP JUMPDEST DUP4 PUSH1 0x1 PUSH1 0x1 PUSH1 0xA0 SHL SUB AND DUP6 PUSH1 0x1 PUSH1 0x1 PUSH1 0xA0 SHL SUB AND DUP3 PUSH1 0x1 PUSH1 0x1 PUSH1 0xA0 SHL SUB AND PUSH32 0x4A39DC06D4C0DBC64B70AF90FD698A233A518AA5D07E595D983B8C0526C8F7FB DUP7 DUP7 PUSH1 0x40 MLOAD PUSH2 0x10EB SWAP3 SWAP2 SWAP1 PUSH2 0x19A9 JUMP JUMPDEST PUSH1 0x40 MLOAD DUP1 SWAP2 SUB SWAP1 LOG4 POP POP POP POP POP JUMP JUMPDEST PUSH1 0x1 PUSH1 0x1 PUSH1 0xA0 SHL SUB DUP5 AND EXTCODESIZE ISZERO PUSH2 0x5FE JUMPI PUSH1 0x40 MLOAD PUSH4 0xF23A6E61 PUSH1 0xE0 SHL DUP2 MSTORE PUSH1 0x1 PUSH1 0x1 PUSH1 0xA0 SHL SUB DUP6 AND SWAP1 PUSH4 0xF23A6E61 SWAP1 PUSH2 0x113E SWAP1 DUP10 SWAP1 DUP10 SWAP1 DUP9 SWAP1 DUP9 SWAP1 DUP9 SWAP1 PUSH1 0x4 ADD PUSH2 0x19D6 JUMP JUMPDEST PUSH1 0x20 PUSH1 0x40 MLOAD DUP1 DUP4 SUB DUP2 PUSH0 DUP8 GAS CALL SWAP3 POP POP POP DUP1 ISZERO PUSH2 0x1178 JUMPI POP PUSH1 0x40 DUP1 MLOAD PUSH1 0x1F RETURNDATASIZE SWAP1 DUP2 ADD PUSH1 0x1F NOT AND DUP3 ADD SWAP1 SWAP3 MSTORE PUSH2 0x1175 SWAP2 DUP2 ADD SWAP1 PUSH2 0x1A18 JUMP JUMPDEST PUSH1 0x1 JUMPDEST PUSH2 0x11DF JUMPI RETURNDATASIZE DUP1 DUP1 ISZERO PUSH2 0x11A5 JUMPI PUSH1 0x40 MLOAD SWAP2 POP PUSH1 0x1F NOT PUSH1 0x3F RETURNDATASIZE ADD AND DUP3 ADD PUSH1 0x40 MSTORE RETURNDATASIZE DUP3 MSTORE RETURNDATASIZE PUSH0 PUSH1 0x20 DUP5 ADD RETURNDATACOPY PUSH2 0x11AA JUMP JUMPDEST PUSH1 0x60 SWAP2 POP JUMPDEST POP DUP1 MLOAD PUSH0 SUB PUSH2 0x11D7 JUMPI PUSH1 0x40 MLOAD PUSH4 0x2BFA23E7 PUSH1 0xE1 SHL DUP2 MSTORE PUSH1 0x1 PUSH1 0x1 PUSH1 0xA0 SHL SUB DUP7 AND PUSH1 0x4 DUP3 ADD MSTORE PUSH1 0x24 ADD PUSH2 0x4B2 JUMP JUMPDEST DUP1 MLOAD DUP2 PUSH1 0x20 ADD REVERT JUMPDEST PUSH1 0x1 PUSH1 0x1 PUSH1 0xE0 SHL SUB NOT DUP2 AND PUSH4 0xF23A6E61 PUSH1 0xE0 SHL EQ PUSH2 0xD2F JUMPI PUSH1 0x40 MLOAD PUSH4 0x2BFA23E7 PUSH1 0xE1 SHL DUP2 MSTORE PUSH1 0x1 PUSH1 0x1 PUSH1 0xA0 SHL SUB DUP7 AND PUSH1 0x4 DUP3 ADD MSTORE PUSH1 0x24 ADD PUSH2 0x4B2 JUMP JUMPDEST PUSH1 0x1 PUSH1 0x1 PUSH1 0xA0 SHL SUB DUP5 AND EXTCODESIZE ISZERO PUSH2 0x5FE JUMPI PUSH1 0x40 MLOAD PUSH4 0xBC197C81 PUSH1 0xE0 SHL DUP2 MSTORE PUSH1 0x1 PUSH1 0x1 PUSH1 0xA0 SHL SUB DUP6 AND SWAP1 PUSH4 0xBC197C81 SWAP1 PUSH2 0x125F SWAP1 DUP10 SWAP1 DUP10 SWAP1 DUP9 SWAP1 DUP9 SWAP1 DUP9 SWAP1 PUSH1 0x4 ADD PUSH2 0x1A33 JUMP JUMPDEST PUSH1 0x20 PUSH1 0x40 MLOAD DUP1 DUP4 SUB DUP2 PUSH0 DUP8 GAS CALL SWAP3 POP POP POP DUP1 ISZERO PUSH2 0x1299 JUMPI POP PUSH1 0x40 DUP1 MLOAD PUSH1 0x1F RETURNDATASIZE SWAP1 DUP2 ADD PUSH1 0x1F NOT AND DUP3 ADD SWAP1 SWAP3 MSTORE PUSH2 0x1296 SWAP2 DUP2 ADD SWAP1 PUSH2 0x1A18 JUMP JUMPDEST PUSH1 0x1 JUMPDEST PUSH2 0x12C6 JUMPI RETURNDATASIZE DUP1 DUP1 ISZERO PUSH2 0x11A5 JUMPI PUSH1 0x40 MLOAD SWAP2 POP PUSH1 0x1F NOT PUSH1 0x3F RETURNDATASIZE ADD AND DUP3 ADD PUSH1 0x40 MSTORE RETURNDATASIZE DUP3 MSTORE RETURNDATASIZE PUSH0 PUSH1 0x20 DUP5 ADD RETURNDATACOPY PUSH2 0x11AA JUMP JUMPDEST PUSH1 0x1 PUSH1 0x1 PUSH1 0xE0 SHL SUB NOT DUP2 AND PUSH4 0xBC197C81 PUSH1 0xE0 SHL EQ PUSH2 0xD2F JUMPI PUSH1 0x40 MLOAD PUSH4 0x2BFA23E7 PUSH1 0xE1 SHL DUP2 MSTORE PUSH1 0x1 PUSH1 0x1 PUSH1 0xA0 SHL SUB DUP7 AND PUSH1 0x4 DUP3 ADD MSTORE PUSH1 0x24 ADD PUSH2 0x4B2 JUMP JUMPDEST DUP1 CALLDATALOAD PUSH1 0x1 PUSH1 0x1 PUSH1 0xA0 SHL SUB DUP2 AND DUP2 EQ PUSH2 0x1318 JUMPI PUSH0 DUP1 REVERT JUMPDEST SWAP2 SWAP1 POP JUMP JUMPDEST PUSH0 DUP1 PUSH1 0x40 DUP4 DUP6 SUB SLT ISZERO PUSH2 0x132E JUMPI PUSH0 DUP1 REVERT JUMPDEST PUSH2 0x1337 DUP4 PUSH2 0x1302 JUMP JUMPDEST SWAP5 PUSH1 0x20 SWAP4 SWAP1 SWAP4 ADD CALLDATALOAD SWAP4 POP POP POP JUMP JUMPDEST PUSH1 0x1 PUSH1 0x1 PUSH1 0xE0 SHL SUB NOT DUP2 AND DUP2 EQ PUSH2 0x854 JUMPI PUSH0 DUP1 REVERT JUMPDEST PUSH0 PUSH1 0x20 DUP3 DUP5 SUB SLT ISZERO PUSH2 0x136A JUMPI PUSH0 DUP1 REVERT JUMPDEST DUP2 CALLDATALOAD PUSH2 0x1375 DUP2 PUSH2 0x1345 JUMP JUMPDEST SWAP4 SWAP3 POP POP POP JUMP JUMPDEST PUSH0 PUSH1 0x20 DUP3 DUP5 SUB SLT ISZERO PUSH2 0x138C JUMPI PUSH0 DUP1 REVERT JUMPDEST POP CALLDATALOAD SWAP2 SWAP1 POP JUMP JUMPDEST PUSH0 JUMPDEST DUP4 DUP2 LT ISZERO PUSH2 0x13AD JUMPI DUP2 DUP2 ADD MLOAD DUP4 DUP3 ADD MSTORE PUSH1 0x20 ADD PUSH2 0x1395 JUMP JUMPDEST POP POP PUSH0 SWAP2 ADD MSTORE JUMP JUMPDEST PUSH0 DUP2 MLOAD DUP1 DUP5 MSTORE PUSH2 0x13CC DUP2 PUSH1 0x20 DUP7 ADD PUSH1 0x20 DUP7 ADD PUSH2 0x1393 JUMP JUMPDEST PUSH1 0x1F ADD PUSH1 0x1F NOT AND SWAP3 SWAP1 SWAP3 ADD PUSH1 0x20 ADD SWAP3 SWAP2 POP POP JUMP JUMPDEST PUSH1 0x20 DUP2 MSTORE PUSH0 PUSH2 0x1375 PUSH1 0x20 DUP4 ADD DUP5 PUSH2 0x13B5 JUMP JUMPDEST PUSH0 DUP1 PUSH1 0x40 DUP4 DUP6 SUB SLT ISZERO PUSH2 0x1403 JUMPI PUSH0 DUP1 REVERT JUMPDEST POP POP DUP1 CALLDATALOAD SWAP3 PUSH1 0x20 SWAP1 SWAP2 ADD CALLDATALOAD SWAP2 POP JUMP JUMPDEST PUSH4 0x4E487B71 PUSH1 0xE0 SHL PUSH0 MSTORE PUSH1 0x41 PUSH1 0x4 MSTORE PUSH1 0x24 PUSH0 REVERT JUMPDEST PUSH1 0x40 MLOAD PUSH1 0x1F DUP3 ADD PUSH1 0x1F NOT AND DUP2 ADD PUSH8 0xFFFFFFFFFFFFFFFF DUP2 GT DUP3 DUP3 LT OR ISZERO PUSH2 0x144F JUMPI PUSH2 0x144F PUSH2 0x1412 JUMP JUMPDEST PUSH1 0x40 MSTORE SWAP2 SWAP1 POP JUMP JUMPDEST PUSH0 PUSH8 0xFFFFFFFFFFFFFFFF DUP3 GT ISZERO PUSH2 0x1470 JUMPI PUSH2 0x1470 PUSH2 0x1412 JUMP JUMPDEST POP PUSH1 0x5 SHL PUSH1 0x20 ADD SWAP1 JUMP JUMPDEST PUSH0 DUP3 PUSH1 0x1F DUP4 ADD SLT PUSH2 0x1489 JUMPI PUSH0 DUP1 REVERT JUMPDEST DUP2 CALLDATALOAD PUSH1 0x20 PUSH2 0x149E PUSH2 0x1499 DUP4 PUSH2 0x1457 JUMP JUMPDEST PUSH2 0x1426 JUMP JUMPDEST DUP1 DUP4 DUP3 MSTORE PUSH1 0x20 DUP3 ADD SWAP2 POP PUSH1 0x20 DUP5 PUSH1 0x5 SHL DUP8 ADD ADD SWAP4 POP DUP7 DUP5 GT ISZERO PUSH2 0x14BF JUMPI PUSH0 DUP1 REVERT JUMPDEST PUSH1 0x20 DUP7 ADD JUMPDEST DUP5 DUP2 LT ISZERO PUSH2 0x14DB JUMPI DUP1 CALLDATALOAD DUP4 MSTORE SWAP2 DUP4 ADD SWAP2 DUP4 ADD PUSH2 0x14C4 JUMP JUMPDEST POP SWAP7 SWAP6 POP POP POP POP POP POP JUMP JUMPDEST PUSH0 DUP3 PUSH1 0x1F DUP4 ADD SLT PUSH2 0x14F5 JUMPI PUSH0 DUP1 REVERT JUMPDEST DUP2 CALLDATALOAD PUSH8 0xFFFFFFFFFFFFFFFF DUP2 GT ISZERO PUSH2 0x150F JUMPI PUSH2 0x150F PUSH2 0x1412 JUMP JUMPDEST PUSH2 0x1522 PUSH1 0x1F DUP3 ADD PUSH1 0x1F NOT AND PUSH1 0x20 ADD PUSH2 0x1426 JUMP JUMPDEST DUP2 DUP2 MSTORE DUP5 PUSH1 0x20 DUP4 DUP7 ADD ADD GT ISZERO PUSH2 0x1536 JUMPI PUSH0 DUP1 REVERT JUMPDEST DUP2 PUSH1 0x20 DUP6 ADD PUSH1 0x20 DUP4 ADD CALLDATACOPY PUSH0 SWAP2 DUP2 ADD PUSH1 0x20 ADD SWAP2 SWAP1 SWAP2 MSTORE SWAP4 SWAP3 POP POP POP JUMP JUMPDEST PUSH0 DUP1 PUSH0 DUP1 PUSH1 0x80 DUP6 DUP8 SUB SLT ISZERO PUSH2 0x1565 JUMPI PUSH0 DUP1 REVERT JUMPDEST PUSH2 0x156E DUP6 PUSH2 0x1302 JUMP JUMPDEST SWAP4 POP PUSH1 0x20 DUP6 ADD CALLDATALOAD PUSH8 0xFFFFFFFFFFFFFFFF DUP1 DUP3 GT ISZERO PUSH2 0x158A JUMPI PUSH0 DUP1 REVERT JUMPDEST PUSH2 0x1596 DUP9 DUP4 DUP10 ADD PUSH2 0x147A JUMP JUMPDEST SWAP5 POP PUSH1 0x40 DUP8 ADD CALLDATALOAD SWAP2 POP DUP1 DUP3 GT ISZERO PUSH2 0x15AB JUMPI PUSH0 DUP1 REVERT JUMPDEST PUSH2 0x15B7 DUP9 DUP4 DUP10 ADD PUSH2 0x147A JUMP JUMPDEST SWAP4 POP PUSH1 0x60 DUP8 ADD CALLDATALOAD SWAP2 POP DUP1 DUP3 GT ISZERO PUSH2 0x15CC JUMPI PUSH0 DUP1 REVERT JUMPDEST POP PUSH2 0x15D9 DUP8 DUP3 DUP9 ADD PUSH2 0x14E6 JUMP JUMPDEST SWAP2 POP POP SWAP3 SWAP6 SWAP2 SWAP5 POP SWAP3 POP JUMP JUMPDEST PUSH0 DUP1 PUSH0 DUP1 PUSH0 PUSH1 0xA0 DUP7 DUP9 SUB SLT ISZERO PUSH2 0x15F9 JUMPI PUSH0 DUP1 REVERT JUMPDEST PUSH2 0x1602 DUP7 PUSH2 0x1302 JUMP JUMPDEST SWAP5 POP PUSH2 0x1610 PUSH1 0x20 DUP8 ADD PUSH2 0x1302 JUMP JUMPDEST SWAP4 POP PUSH1 0x40 DUP7 ADD CALLDATALOAD PUSH8 0xFFFFFFFFFFFFFFFF DUP1 DUP3 GT ISZERO PUSH2 0x162C JUMPI PUSH0 DUP1 REVERT JUMPDEST PUSH2 0x1638 DUP10 DUP4 DUP11 ADD PUSH2 0x147A JUMP JUMPDEST SWAP5 POP PUSH1 0x60 DUP9 ADD CALLDATALOAD SWAP2 POP DUP1 DUP3 GT ISZERO PUSH2 0x164D JUMPI PUSH0 DUP1 REVERT JUMPDEST PUSH2 0x1659 DUP10 DUP4 DUP11 ADD PUSH2 0x147A JUMP JUMPDEST SWAP4 POP PUSH1 0x80 DUP9 ADD CALLDATALOAD SWAP2 POP DUP1 DUP3 GT ISZERO PUSH2 0x166E JUMPI PUSH0 DUP1 REVERT JUMPDEST POP PUSH2 0x167B DUP9 DUP3 DUP10 ADD PUSH2 0x14E6 JUMP JUMPDEST SWAP2 POP POP SWAP3 SWAP6 POP SWAP3 SWAP6 SWAP1 SWAP4 POP JUMP JUMPDEST PUSH0 DUP1 PUSH1 0x40 DUP4 DUP6 SUB SLT ISZERO PUSH2 0x1699 JUMPI PUSH0 DUP1 REVERT JUMPDEST DUP3 CALLDATALOAD PUSH8 0xFFFFFFFFFFFFFFFF DUP1 DUP3 GT ISZERO PUSH2 0x16B0 JUMPI PUSH0 DUP1 REVERT JUMPDEST DUP2 DUP6 ADD SWAP2 POP DUP6 PUSH1 0x1F DUP4 ADD SLT PUSH2 0x16C3 JUMPI PUSH0 DUP1 REVERT JUMPDEST DUP2 CALLDATALOAD PUSH1 0x20 PUSH2 0x16D3 PUSH2 0x1499 DUP4 PUSH2 0x1457 JUMP JUMPDEST DUP3 DUP2 MSTORE PUSH1 0x5 SWAP3 SWAP1 SWAP3 SHL DUP5 ADD DUP2 ADD SWAP2 DUP2 DUP2 ADD SWAP1 DUP10 DUP5 GT ISZERO PUSH2 0x16F1 JUMPI PUSH0 DUP1 REVERT JUMPDEST SWAP5 DUP3 ADD SWAP5 JUMPDEST DUP4 DUP7 LT ISZERO PUSH2 0x1716 JUMPI PUSH2 0x1707 DUP7 PUSH2 0x1302 JUMP JUMPDEST DUP3 MSTORE SWAP5 DUP3 ADD SWAP5 SWAP1 DUP3 ADD SWAP1 PUSH2 0x16F6 JUMP JUMPDEST SWAP7 POP POP DUP7 ADD CALLDATALOAD SWAP3 POP POP DUP1 DUP3 GT ISZERO PUSH2 0x172B JUMPI PUSH0 DUP1 REVERT JUMPDEST POP PUSH2 0x1738 DUP6 DUP3 DUP7 ADD PUSH2 0x147A JUMP JUMPDEST SWAP2 POP POP SWAP3 POP SWAP3 SWAP1 POP JUMP JUMPDEST PUSH0 DUP2 MLOAD DUP1 DUP5 MSTORE PUSH1 0x20 DUP1 DUP6 ADD SWAP5 POP PUSH1 0x20 DUP5 ADD PUSH0 JUMPDEST DUP4 DUP2 LT ISZERO PUSH2 0x1771 JUMPI DUP2 MLOAD DUP8 MSTORE SWAP6 DUP3 ADD SWAP6 SWAP1 DUP3 ADD SWAP1 PUSH1 0x1 ADD PUSH2 0x1755 JUMP JUMPDEST POP SWAP5 SWAP6 SWAP5 POP POP POP POP POP JUMP JUMPDEST PUSH1 0x20 DUP2 MSTORE PUSH0 PUSH2 0x1375 PUSH1 0x20 DUP4 ADD DUP5 PUSH2 0x1742 JUMP JUMPDEST PUSH0 DUP1 PUSH0 PUSH1 0x60 DUP5 DUP7 SUB SLT ISZERO PUSH2 0x17A0 JUMPI PUSH0 DUP1 REVERT JUMPDEST PUSH2 0x17A9 DUP5 PUSH2 0x1302 JUMP JUMPDEST SWAP3 POP PUSH1 0x20 DUP5 ADD CALLDATALOAD PUSH8 0xFFFFFFFFFFFFFFFF DUP1 DUP3 GT ISZERO PUSH2 0x17C5 JUMPI PUSH0 DUP1 REVERT JUMPDEST PUSH2 0x17D1 DUP8 DUP4 DUP9 ADD PUSH2 0x147A JUMP JUMPDEST SWAP4 POP PUSH1 0x40 DUP7 ADD CALLDATALOAD SWAP2 POP DUP1 DUP3 GT ISZERO PUSH2 0x17E6 JUMPI PUSH0 DUP1 REVERT JUMPDEST POP PUSH2 0x17F3 DUP7 DUP3 DUP8 ADD PUSH2 0x147A JUMP JUMPDEST SWAP2 POP POP SWAP3 POP SWAP3 POP SWAP3 JUMP JUMPDEST PUSH0 DUP1 PUSH1 0x40 DUP4 DUP6 SUB SLT ISZERO PUSH2 0x180E JUMPI PUSH0 DUP1 REVERT JUMPDEST PUSH2 0x1817 DUP4 PUSH2 0x1302 JUMP JUMPDEST SWAP2 POP PUSH1 0x20 DUP4 ADD CALLDATALOAD DUP1 ISZERO ISZERO DUP2 EQ PUSH2 0x182B JUMPI PUSH0 DUP1 REVERT JUMPDEST DUP1 SWAP2 POP POP SWAP3 POP SWAP3 SWAP1 POP JUMP JUMPDEST PUSH0 DUP1 PUSH1 0x40 DUP4 DUP6 SUB SLT ISZERO PUSH2 0x1847 JUMPI PUSH0 DUP1 REVERT JUMPDEST PUSH2 0x1850 DUP4 PUSH2 0x1302 JUMP JUMPDEST SWAP2 POP PUSH2 0x185E PUSH1 0x20 DUP5 ADD PUSH2 0x1302 JUMP JUMPDEST SWAP1 POP SWAP3 POP SWAP3 SWAP1 POP JUMP JUMPDEST PUSH0 DUP1 PUSH0 DUP1 PUSH0 PUSH1 0xA0 DUP7 DUP9 SUB SLT ISZERO PUSH2 0x187B JUMPI PUSH0 DUP1 REVERT JUMPDEST PUSH2 0x1884 DUP7 PUSH2 0x1302 JUMP JUMPDEST SWAP5 POP PUSH2 0x1892 PUSH1 0x20 DUP8 ADD PUSH2 0x1302 JUMP JUMPDEST SWAP4 POP PUSH1 0x40 DUP7 ADD CALLDATALOAD SWAP3 POP PUSH1 0x60 DUP7 ADD CALLDATALOAD SWAP2 POP PUSH1 0x80 DUP7 ADD CALLDATALOAD PUSH8 0xFFFFFFFFFFFFFFFF DUP2 GT ISZERO PUSH2 0x18BB JUMPI PUSH0 DUP1 REVERT JUMPDEST PUSH2 0x167B DUP9 DUP3 DUP10 ADD PUSH2 0x14E6 JUMP JUMPDEST PUSH0 PUSH1 0x20 DUP3 DUP5 SUB SLT ISZERO PUSH2 0x18D7 JUMPI PUSH0 DUP1 REVERT JUMPDEST PUSH2 0x1375 DUP3 PUSH2 0x1302 JUMP JUMPDEST PUSH0 DUP1 PUSH0 PUSH1 0x60 DUP5 DUP7 SUB SLT ISZERO PUSH2 0x18F2 JUMPI PUSH0 DUP1 REVERT JUMPDEST PUSH2 0x18FB DUP5 PUSH2 0x1302 JUMP JUMPDEST SWAP6 PUSH1 0x20 DUP6 ADD CALLDATALOAD SWAP6 POP PUSH1 0x40 SWAP1 SWAP5 ADD CALLDATALOAD SWAP4 SWAP3 POP POP POP JUMP JUMPDEST PUSH0 DUP4 MLOAD PUSH2 0x1921 DUP2 DUP5 PUSH1 0x20 DUP9 ADD PUSH2 0x1393 JUMP JUMPDEST DUP4 MLOAD SWAP1 DUP4 ADD SWAP1 PUSH2 0x1935 DUP2 DUP4 PUSH1 0x20 DUP9 ADD PUSH2 0x1393 JUMP JUMPDEST ADD SWAP5 SWAP4 POP POP POP POP JUMP JUMPDEST DUP1 DUP3 ADD DUP1 DUP3 GT ISZERO PUSH2 0x38A JUMPI PUSH4 0x4E487B71 PUSH1 0xE0 SHL PUSH0 MSTORE PUSH1 0x11 PUSH1 0x4 MSTORE PUSH1 0x24 PUSH0 REVERT JUMPDEST PUSH4 0x4E487B71 PUSH1 0xE0 SHL PUSH0 MSTORE PUSH1 0x32 PUSH1 0x4 MSTORE PUSH1 0x24 PUSH0 REVERT JUMPDEST PUSH1 0x1 DUP2 DUP2 SHR SWAP1 DUP3 AND DUP1 PUSH2 0x1985 JUMPI PUSH1 0x7F DUP3 AND SWAP2 POP JUMPDEST PUSH1 0x20 DUP3 LT DUP2 SUB PUSH2 0x19A3 JUMPI PUSH4 0x4E487B71 PUSH1 0xE0 SHL PUSH0 MSTORE PUSH1 0x22 PUSH1 0x4 MSTORE PUSH1 0x24 PUSH0 REVERT JUMPDEST POP SWAP2 SWAP1 POP JUMP JUMPDEST PUSH1 0x40 DUP2 MSTORE PUSH0 PUSH2 0x19BB PUSH1 0x40 DUP4 ADD DUP6 PUSH2 0x1742 JUMP JUMPDEST DUP3 DUP2 SUB PUSH1 0x20 DUP5 ADD MSTORE PUSH2 0x19CD DUP2 DUP6 PUSH2 0x1742 JUMP JUMPDEST SWAP6 SWAP5 POP POP POP POP POP JUMP JUMPDEST PUSH0 PUSH1 0x1 PUSH1 0x1 PUSH1 0xA0 SHL SUB DUP1 DUP9 AND DUP4 MSTORE DUP1 DUP8 AND PUSH1 0x20 DUP5 ADD MSTORE POP DUP5 PUSH1 0x40 DUP4 ADD MSTORE DUP4 PUSH1 0x60 DUP4 ADD MSTORE PUSH1 0xA0 PUSH1 0x80 DUP4 ADD MSTORE PUSH2 0x1A0D PUSH1 0xA0 DUP4 ADD DUP5 PUSH2 0x13B5 JUMP JUMPDEST SWAP8 SWAP7 POP POP POP POP POP POP POP JUMP JUMPDEST PUSH0 PUSH1 0x20 DUP3 DUP5 SUB SLT ISZERO PUSH2 0x1A28 JUMPI PUSH0 DUP1 REVERT JUMPDEST DUP2 MLOAD PUSH2 0x1375 DUP2 PUSH2 0x1345 JUMP JUMPDEST PUSH0 PUSH1 0x1 PUSH1 0x1 PUSH1 0xA0 SHL SUB DUP1 DUP9 AND DUP4 MSTORE DUP1 DUP8 AND PUSH1 0x20 DUP5 ADD MSTORE POP PUSH1 0xA0 PUSH1 0x40 DUP4 ADD MSTORE PUSH2 0x1A5E PUSH1 0xA0 DUP4 ADD DUP7 PUSH2 0x1742 JUMP JUMPDEST DUP3 DUP2 SUB PUSH1 0x60 DUP5 ADD MSTORE PUSH2 0x1A70 DUP2 DUP7 PUSH2 0x1742 JUMP JUMPDEST SWAP1 POP DUP3 DUP2 SUB PUSH1 0x80 DUP5 ADD MSTORE PUSH2 0x1A84 DUP2 DUP6 PUSH2 0x13B5 JUMP JUMPDEST SWAP9 SWAP8 POP POP POP POP POP POP POP POP JUMP INVALID LOG2 PUSH5 0x6970667358 0x22 SLT KECCAK256 0xEF 0x4C DUP11 0xBF 0xD5 DUP3 0x4F 0xAC SHL MULMOD 0xCD PREVRANDAO 0xDB PUSH3 0xE4F8FA SUB DUP5 DUP3 0xAB SAR 0xD6 PUSH32 0xFF9ED70FD004A72E64736F6C63430008180033697066733A2F2F626166796265 PUSH10 0x68726B6C623232327367 PUSH10 0x6F77726A636567373672 PUSH14 0x7171707A716979756A6D6E756676 CALLER PUSH4 0x71353773 PUSH20 0x656D647862626534752F7B69647D000000000000 "
		},
		"gasEstimates": {
			"creation": {
				"codeDepositCost": "1370800",
				"executionCost": "infinite",
				"totalCost": "infinite"
			},
			"external": {
				"TOKEN_0()": "227",
				"TOKEN_1()": "250",
				"TOKEN_2()": "273",
				"TOKEN_3()": "228",
				"TOKEN_4()": "251",
				"TOKEN_5()": "250",
				"TOKEN_6()": "272",
				"balanceOf(address,uint256)": "2680",
				"balanceOfBatch(address[],uint256[])": "infinite",
				"burn(address,uint256,uint256)": "infinite",
				"burnBatch(address,uint256[],uint256[])": "infinite",
				"isApprovedForAll(address,address)": "infinite",
				"lastMintTime(address,uint256)": "2644",
				"mint(uint256,uint256)": "infinite",
				"mintBatch(address,uint256[],uint256[],bytes)": "infinite",
				"owner()": "2345",
				"renounceOwnership()": "infinite",
				"safeBatchTransferFrom(address,address,uint256[],uint256[],bytes)": "infinite",
				"safeTransferFrom(address,address,uint256,uint256,bytes)": "infinite",
				"setApprovalForAll(address,bool)": "26723",
				"supportsInterface(bytes4)": "580",
				"transferOwnership(address)": "28384",
				"uri(uint256)": "infinite"
			}
		},
		"methodIdentifiers": {
			"TOKEN_0()": "d99939a2",
			"TOKEN_1()": "4a3268e4",
			"TOKEN_2()": "82c0fa30",
			"TOKEN_3()": "453f6a32",
			"TOKEN_4()": "0d9371ad",
			"TOKEN_5()": "e74d3862",
			"TOKEN_6()": "a3cacc85",
			"balanceOf(address,uint256)": "00fdd58e",
			"balanceOfBatch(address[],uint256[])": "4e1273f4",
			"burn(address,uint256,uint256)": "f5298aca",
			"burnBatch(address,uint256[],uint256[])": "6b20c454",
			"isApprovedForAll(address,address)": "e985e9c5",
			"lastMintTime(address,uint256)": "0ce52e07",
			"mint(uint256,uint256)": "1b2ef1ca",
			"mintBatch(address,uint256[],uint256[],bytes)": "1f7fdffa",
			"owner()": "8da5cb5b",
			"renounceOwnership()": "715018a6",
			"safeBatchTransferFrom(address,address,uint256[],uint256[],bytes)": "2eb2c2d6",
			"safeTransferFrom(address,address,uint256,uint256,bytes)": "f242432a",
			"setApprovalForAll(address,bool)": "a22cb465",
			"supportsInterface(bytes4)": "01ffc9a7",
			"transferOwnership(address)": "f2fde38b",
			"uri(uint256)": "0e89341c"
		}
	},
	"abi": [
		{
			"inputs": [],
			"stateMutability": "nonpayable",
			"type": "constructor"
		},
		{
			"inputs": [
				{
					"internalType": "address",
					"name": "sender",
					"type": "address"
				},
				{
					"internalType": "uint256",
					"name": "balance",
					"type": "uint256"
				},
				{
					"internalType": "uint256",
					"name": "needed",
					"type": "uint256"
				},
				{
					"internalType": "uint256",
					"name": "tokenId",
					"type": "uint256"
				}
			],
			"name": "ERC1155InsufficientBalance",
			"type": "error"
		},
		{
			"inputs": [
				{
					"internalType": "address",
					"name": "approver",
					"type": "address"
				}
			],
			"name": "ERC1155InvalidApprover",
			"type": "error"
		},
		{
			"inputs": [
				{
					"internalType": "uint256",
					"name": "idsLength",
					"type": "uint256"
				},
				{
					"internalType": "uint256",
					"name": "valuesLength",
					"type": "uint256"
				}
			],
			"name": "ERC1155InvalidArrayLength",
			"type": "error"
		},
		{
			"inputs": [
				{
					"internalType": "address",
					"name": "operator",
					"type": "address"
				}
			],
			"name": "ERC1155InvalidOperator",
			"type": "error"
		},
		{
			"inputs": [
				{
					"internalType": "address",
					"name": "receiver",
					"type": "address"
				}
			],
			"name": "ERC1155InvalidReceiver",
			"type": "error"
		},
		{
			"inputs": [
				{
					"internalType": "address",
					"name": "sender",
					"type": "address"
				}
			],
			"name": "ERC1155InvalidSender",
			"type": "error"
		},
		{
			"inputs": [
				{
					"internalType": "address",
					"name": "operator",
					"type": "address"
				},
				{
					"internalType": "address",
					"name": "owner",
					"type": "address"
				}
			],
			"name": "ERC1155MissingApprovalForAll",
			"type": "error"
		},
		{
			"inputs": [
				{
					"internalType": "address",
					"name": "owner",
					"type": "address"
				}
			],
			"name": "OwnableInvalidOwner",
			"type": "error"
		},
		{
			"inputs": [
				{
					"internalType": "address",
					"name": "account",
					"type": "address"
				}
			],
			"name": "OwnableUnauthorizedAccount",
			"type": "error"
		},
		{
			"anonymous": false,
			"inputs": [
				{
					"indexed": true,
					"internalType": "address",
					"name": "account",
					"type": "address"
				},
				{
					"indexed": true,
					"internalType": "address",
					"name": "operator",
					"type": "address"
				},
				{
					"indexed": false,
					"internalType": "bool",
					"name": "approved",
					"type": "bool"
				}
			],
			"name": "ApprovalForAll",
			"type": "event"
		},
		{
			"anonymous": false,
			"inputs": [
				{
					"indexed": true,
					"internalType": "address",
					"name": "previousOwner",
					"type": "address"
				},
				{
					"indexed": true,
					"internalType": "address",
					"name": "newOwner",
					"type": "address"
				}
			],
			"name": "OwnershipTransferred",
			"type": "event"
		},
		{
			"anonymous": false,
			"inputs": [
				{
					"indexed": true,
					"internalType": "address",
					"name": "operator",
					"type": "address"
				},
				{
					"indexed": true,
					"internalType": "address",
					"name": "from",
					"type": "address"
				},
				{
					"indexed": true,
					"internalType": "address",
					"name": "to",
					"type": "address"
				},
				{
					"indexed": false,
					"internalType": "uint256[]",
					"name": "ids",
					"type": "uint256[]"
				},
				{
					"indexed": false,
					"internalType": "uint256[]",
					"name": "values",
					"type": "uint256[]"
				}
			],
			"name": "TransferBatch",
			"type": "event"
		},
		{
			"anonymous": false,
			"inputs": [
				{
					"indexed": true,
					"internalType": "address",
					"name": "operator",
					"type": "address"
				},
				{
					"indexed": true,
					"internalType": "address",
					"name": "from",
					"type": "address"
				},
				{
					"indexed": true,
					"internalType": "address",
					"name": "to",
					"type": "address"
				},
				{
					"indexed": false,
					"internalType": "uint256",
					"name": "id",
					"type": "uint256"
				},
				{
					"indexed": false,
					"internalType": "uint256",
					"name": "value",
					"type": "uint256"
				}
			],
			"name": "TransferSingle",
			"type": "event"
		},
		{
			"anonymous": false,
			"inputs": [
				{
					"indexed": false,
					"internalType": "string",
					"name": "value",
					"type": "string"
				},
				{
					"indexed": true,
					"internalType": "uint256",
					"name": "id",
					"type": "uint256"
				}
			],
			"name": "URI",
			"type": "event"
		},
		{
			"inputs": [],
			"name": "TOKEN_0",
			"outputs": [
				{
					"internalType": "uint256",
					"name": "",
					"type": "uint256"
				}
			],
			"stateMutability": "view",
			"type": "function"
		},
		{
			"inputs": [],
			"name": "TOKEN_1",
			"outputs": [
				{
					"internalType": "uint256",
					"name": "",
					"type": "uint256"
				}
			],
			"stateMutability": "view",
			"type": "function"
		},
		{
			"inputs": [],
			"name": "TOKEN_2",
			"outputs": [
				{
					"internalType": "uint256",
					"name": "",
					"type": "uint256"
				}
			],
			"stateMutability": "view",
			"type": "function"
		},
		{
			"inputs": [],
			"name": "TOKEN_3",
			"outputs": [
				{
					"internalType": "uint256",
					"name": "",
					"type": "uint256"
				}
			],
			"stateMutability": "view",
			"type": "function"
		},
		{
			"inputs": [],
			"name": "TOKEN_4",
			"outputs": [
				{
					"internalType": "uint256",
					"name": "",
					"type": "uint256"
				}
			],
			"stateMutability": "view",
			"type": "function"
		},
		{
			"inputs": [],
			"name": "TOKEN_5",
			"outputs": [
				{
					"internalType": "uint256",
					"name": "",
					"type": "uint256"
				}
			],
			"stateMutability": "view",
			"type": "function"
		},
		{
			"inputs": [],
			"name": "TOKEN_6",
			"outputs": [
				{
					"internalType": "uint256",
					"name": "",
					"type": "uint256"
				}
			],
			"stateMutability": "view",
			"type": "function"
		},
		{
			"inputs": [
				{
					"internalType": "address",
					"name": "account",
					"type": "address"
				},
				{
					"internalType": "uint256",
					"name": "id",
					"type": "uint256"
				}
			],
			"name": "balanceOf",
			"outputs": [
				{
					"internalType": "uint256",
					"name": "",
					"type": "uint256"
				}
			],
			"stateMutability": "view",
			"type": "function"
		},
		{
			"inputs": [
				{
					"internalType": "address[]",
					"name": "accounts",
					"type": "address[]"
				},
				{
					"internalType": "uint256[]",
					"name": "ids",
					"type": "uint256[]"
				}
			],
			"name": "balanceOfBatch",
			"outputs": [
				{
					"internalType": "uint256[]",
					"name": "",
					"type": "uint256[]"
				}
			],
			"stateMutability": "view",
			"type": "function"
		},
		{
			"inputs": [
				{
					"internalType": "address",
					"name": "from",
					"type": "address"
				},
				{
					"internalType": "uint256",
					"name": "id",
					"type": "uint256"
				},
				{
					"internalType": "uint256",
					"name": "amount",
					"type": "uint256"
				}
			],
			"name": "burn",
			"outputs": [],
			"stateMutability": "nonpayable",
			"type": "function"
		},
		{
			"inputs": [
				{
					"internalType": "address",
					"name": "from",
					"type": "address"
				},
				{
					"internalType": "uint256[]",
					"name": "ids",
					"type": "uint256[]"
				},
				{
					"internalType": "uint256[]",
					"name": "amounts",
					"type": "uint256[]"
				}
			],
			"name": "burnBatch",
			"outputs": [],
			"stateMutability": "nonpayable",
			"type": "function"
		},
		{
			"inputs": [
				{
					"internalType": "address",
					"name": "account",
					"type": "address"
				},
				{
					"internalType": "address",
					"name": "operator",
					"type": "address"
				}
			],
			"name": "isApprovedForAll",
			"outputs": [
				{
					"internalType": "bool",
					"name": "",
					"type": "bool"
				}
			],
			"stateMutability": "view",
			"type": "function"
		},
		{
			"inputs": [
				{
					"internalType": "address",
					"name": "",
					"type": "address"
				},
				{
					"internalType": "uint256",
					"name": "",
					"type": "uint256"
				}
			],
			"name": "lastMintTime",
			"outputs": [
				{
					"internalType": "uint256",
					"name": "",
					"type": "uint256"
				}
			],
			"stateMutability": "view",
			"type": "function"
		},
		{
			"inputs": [
				{
					"internalType": "uint256",
					"name": "id",
					"type": "uint256"
				},
				{
					"internalType": "uint256",
					"name": "amount",
					"type": "uint256"
				}
			],
			"name": "mint",
			"outputs": [],
			"stateMutability": "nonpayable",
			"type": "function"
		},
		{
			"inputs": [
				{
					"internalType": "address",
					"name": "to",
					"type": "address"
				},
				{
					"internalType": "uint256[]",
					"name": "ids",
					"type": "uint256[]"
				},
				{
					"internalType": "uint256[]",
					"name": "amounts",
					"type": "uint256[]"
				},
				{
					"internalType": "bytes",
					"name": "data",
					"type": "bytes"
				}
			],
			"name": "mintBatch",
			"outputs": [],
			"stateMutability": "nonpayable",
			"type": "function"
		},
		{
			"inputs": [],
			"name": "owner",
			"outputs": [
				{
					"internalType": "address",
					"name": "",
					"type": "address"
				}
			],
			"stateMutability": "view",
			"type": "function"
		},
		{
			"inputs": [],
			"name": "renounceOwnership",
			"outputs": [],
			"stateMutability": "nonpayable",
			"type": "function"
		},
		{
			"inputs": [
				{
					"internalType": "address",
					"name": "from",
					"type": "address"
				},
				{
					"internalType": "address",
					"name": "to",
					"type": "address"
				},
				{
					"internalType": "uint256[]",
					"name": "ids",
					"type": "uint256[]"
				},
				{
					"internalType": "uint256[]",
					"name": "values",
					"type": "uint256[]"
				},
				{
					"internalType": "bytes",
					"name": "data",
					"type": "bytes"
				}
			],
			"name": "safeBatchTransferFrom",
			"outputs": [],
			"stateMutability": "nonpayable",
			"type": "function"
		},
		{
			"inputs": [
				{
					"internalType": "address",
					"name": "from",
					"type": "address"
				},
				{
					"internalType": "address",
					"name": "to",
					"type": "address"
				},
				{
					"internalType": "uint256",
					"name": "id",
					"type": "uint256"
				},
				{
					"internalType": "uint256",
					"name": "value",
					"type": "uint256"
				},
				{
					"internalType": "bytes",
					"name": "data",
					"type": "bytes"
				}
			],
			"name": "safeTransferFrom",
			"outputs": [],
			"stateMutability": "nonpayable",
			"type": "function"
		},
		{
			"inputs": [
				{
					"internalType": "address",
					"name": "operator",
					"type": "address"
				},
				{
					"internalType": "bool",
					"name": "approved",
					"type": "bool"
				}
			],
			"name": "setApprovalForAll",
			"outputs": [],
			"stateMutability": "nonpayable",
			"type": "function"
		},
		{
			"inputs": [
				{
					"internalType": "bytes4",
					"name": "interfaceId",
					"type": "bytes4"
				}
			],
			"name": "supportsInterface",
			"outputs": [
				{
					"internalType": "bool",
					"name": "",
					"type": "bool"
				}
			],
			"stateMutability": "view",
			"type": "function"
		},
		{
			"inputs": [
				{
					"internalType": "address",
					"name": "newOwner",
					"type": "address"
				}
			],
			"name": "transferOwnership",
			"outputs": [],
			"stateMutability": "nonpayable",
			"type": "function"
		},
		{
			"inputs": [
				{
					"internalType": "uint256",
					"name": "id",
					"type": "uint256"
				}
			],
			"name": "uri",
			"outputs": [
				{
					"internalType": "string",
					"name": "",
					"type": "string"
				}
			],
			"stateMutability": "view",
			"type": "function"
		}
	]
}