{
	"data": {
		"bytecode": {
			"linkReferences": {},
			"object": "608060405234801561000f575f80fd5b506040516105e03803806105e083398101604081905261002e91610052565b5f80546001600160a01b0319166001600160a01b039290921691909117905561007f565b5f60208284031215610062575f80fd5b81516001600160a01b0381168114610078575f80fd5b9392505050565b6105548061008c5f395ff3fe608060405234801561000f575f80fd5b5060043610610029575f3560e01c806350cc33ac1461002d575b5f80fd5b61004061003b3660046104a2565b610042565b005b81518351146100985760405162461bcd60e51b815260206004820152601460248201527f4d69736d617463686564206275726e206461746100000000000000000000000060448201526064015b60405180910390fd5b6100a28382610272565b6100ee5760405162461bcd60e51b815260206004820152600d60248201527f496e76616c696420666f72676500000000000000000000000000000000000000604482015260640161008f565b5f5b83518110156101e7575f54845173ffffffffffffffffffffffffffffffffffffffff9091169063f5298aca9033908790859081106101305761013061050a565b602002602001015186858151811061014a5761014a61050a565b60209081029190910101516040517fffffffff0000000000000000000000000000000000000000000000000000000060e086901b16815273ffffffffffffffffffffffffffffffffffffffff9093166004840152602483019190915260448201526064015f604051808303815f87803b1580156101c5575f80fd5b505af11580156101d7573d5f803e3d5ffd5b5050600190920191506100f09050565b505f546040517f1b2ef1ca000000000000000000000000000000000000000000000000000000008152600481018390526001602482015273ffffffffffffffffffffffffffffffffffffffff90911690631b2ef1ca906044015f604051808303815f87803b158015610257575f80fd5b505af1158015610269573d5f803e3d5ffd5b50505050505050565b5f816003036102d157825160021480156102a45750825f815181106102995761029961050a565b60200260200101515f145b80156102ca5750826001815181106102be576102be61050a565b60200260200101516001145b90506103ed565b8160040361032f57825160021480156103035750825f815181106102f7576102f761050a565b60200260200101516001145b80156102ca57508260018151811061031d5761031d61050a565b602002602001015160021490506103ed565b8160050361037957825160021480156103035750825f815181106103555761035561050a565b60200260200101515f1480156102ca57508260018151811061031d5761031d61050a565b816006036103ea57825160031480156103aa5750825f8151811061039f5761039f61050a565b60200260200101515f145b80156103d05750826001815181106103c4576103c461050a565b60200260200101516001145b80156102ca57508260028151811061031d5761031d61050a565b505f5b92915050565b634e487b7160e01b5f52604160045260245ffd5b5f82601f830112610416575f80fd5b8135602067ffffffffffffffff80831115610433576104336103f3565b8260051b604051601f19603f83011681018181108482111715610458576104586103f3565b6040529384526020818701810194908101925087851115610477575f80fd5b6020870191505b848210156104975781358352918301919083019061047e565b979650505050505050565b5f805f606084860312156104b4575f80fd5b833567ffffffffffffffff808211156104cb575f80fd5b6104d787838801610407565b945060208601359150808211156104ec575f80fd5b506104f986828701610407565b925050604084013590509250925092565b634e487b7160e01b5f52603260045260245ffdfea264697066735822122080fb3b9e4d46b3ebf012afc6fa33ee5eb51da207d595b8e275986639f7f9bb5a64736f6c63430008180033",
			"opcodes": "PUSH1 0x80 PUSH1 0x40 MSTORE CALLVALUE DUP1 ISZERO PUSH2 0xF JUMPI PUSH0 DUP1 REVERT JUMPDEST POP PUSH1 0x40 MLOAD PUSH2 0x5E0 CODESIZE SUB DUP1 PUSH2 0x5E0 DUP4 CODECOPY DUP2 ADD PUSH1 0x40 DUP2 SWAP1 MSTORE PUSH2 0x2E SWAP2 PUSH2 0x52 JUMP JUMPDEST PUSH0 DUP1 SLOAD PUSH1 0x1 PUSH1 0x1 PUSH1 0xA0 SHL SUB NOT AND PUSH1 0x1 PUSH1 0x1 PUSH1 0xA0 SHL SUB SWAP3 SWAP1 SWAP3 AND SWAP2 SWAP1 SWAP2 OR SWAP1 SSTORE PUSH2 0x7F JUMP JUMPDEST PUSH0 PUSH1 0x20 DUP3 DUP5 SUB SLT ISZERO PUSH2 0x62 JUMPI PUSH0 DUP1 REVERT JUMPDEST DUP2 MLOAD PUSH1 0x1 PUSH1 0x1 PUSH1 0xA0 SHL SUB DUP2 AND DUP2 EQ PUSH2 0x78 JUMPI PUSH0 DUP1 REVERT JUMPDEST SWAP4 SWAP3 POP POP POP JUMP JUMPDEST PUSH2 0x554 DUP1 PUSH2 0x8C PUSH0 CODECOPY PUSH0 RETURN INVALID PUSH1 0x80 PUSH1 0x40 MSTORE CALLVALUE DUP1 ISZERO PUSH2 0xF JUMPI PUSH0 DUP1 REVERT JUMPDEST POP PUSH1 0x4 CALLDATASIZE LT PUSH2 0x29 JUMPI PUSH0 CALLDATALOAD PUSH1 0xE0 SHR DUP1 PUSH4 0x50CC33AC EQ PUSH2 0x2D JUMPI JUMPDEST PUSH0 DUP1 REVERT JUMPDEST PUSH2 0x40 PUSH2 0x3B CALLDATASIZE PUSH1 0x4 PUSH2 0x4A2 JUMP JUMPDEST PUSH2 0x42 JUMP JUMPDEST STOP JUMPDEST DUP2 MLOAD DUP4 MLOAD EQ PUSH2 0x98 JUMPI PUSH1 0x40 MLOAD PUSH3 0x461BCD PUSH1 0xE5 SHL DUP2 MSTORE PUSH1 0x20 PUSH1 0x4 DUP3 ADD MSTORE PUSH1 0x14 PUSH1 0x24 DUP3 ADD MSTORE PUSH32 0x4D69736D617463686564206275726E2064617461000000000000000000000000 PUSH1 0x44 DUP3 ADD MSTORE PUSH1 0x64 ADD JUMPDEST PUSH1 0x40 MLOAD DUP1 SWAP2 SUB SWAP1 REVERT JUMPDEST PUSH2 0xA2 DUP4 DUP3 PUSH2 0x272 JUMP JUMPDEST PUSH2 0xEE JUMPI PUSH1 0x40 MLOAD PUSH3 0x461BCD PUSH1 0xE5 SHL DUP2 MSTORE PUSH1 0x20 PUSH1 0x4 DUP3 ADD MSTORE PUSH1 0xD PUSH1 0x24 DUP3 ADD MSTORE PUSH32 0x496E76616C696420666F72676500000000000000000000000000000000000000 PUSH1 0x44 DUP3 ADD MSTORE PUSH1 0x64 ADD PUSH2 0x8F JUMP JUMPDEST PUSH0 JUMPDEST DUP4 MLOAD DUP2 LT ISZERO PUSH2 0x1E7 JUMPI PUSH0 SLOAD DUP5 MLOAD PUSH20 0xFFFFFFFFFFFFFFFFFFFFFFFFFFFFFFFFFFFFFFFF SWAP1 SWAP2 AND SWAP1 PUSH4 0xF5298ACA SWAP1 CALLER SWAP1 DUP8 SWAP1 DUP6 SWAP1 DUP2 LT PUSH2 0x130 JUMPI PUSH2 0x130 PUSH2 0x50A JUMP JUMPDEST PUSH1 0x20 MUL PUSH1 0x20 ADD ADD MLOAD DUP7 DUP6 DUP2 MLOAD DUP2 LT PUSH2 0x14A JUMPI PUSH2 0x14A PUSH2 0x50A JUMP JUMPDEST PUSH1 0x20 SWAP1 DUP2 MUL SWAP2 SWAP1 SWAP2 ADD ADD MLOAD PUSH1 0x40 MLOAD PUSH32 0xFFFFFFFF00000000000000000000000000000000000000000000000000000000 PUSH1 0xE0 DUP7 SWAP1 SHL AND DUP2 MSTORE PUSH20 0xFFFFFFFFFFFFFFFFFFFFFFFFFFFFFFFFFFFFFFFF SWAP1 SWAP4 AND PUSH1 0x4 DUP5 ADD MSTORE PUSH1 0x24 DUP4 ADD SWAP2 SWAP1 SWAP2 MSTORE PUSH1 0x44 DUP3 ADD MSTORE PUSH1 0x64 ADD PUSH0 PUSH1 0x40 MLOAD DUP1 DUP4 SUB DUP2 PUSH0 DUP8 DUP1 EXTCODESIZE ISZERO DUP1 ISZERO PUSH2 0x1C5 JUMPI PUSH0 DUP1 REVERT JUMPDEST POP GAS CALL ISZERO DUP1 ISZERO PUSH2 0x1D7 JUMPI RETURNDATASIZE PUSH0 DUP1 RETURNDATACOPY RETURNDATASIZE PUSH0 REVERT JUMPDEST POP POP PUSH1 0x1 SWAP1 SWAP3 ADD SWAP2 POP PUSH2 0xF0 SWAP1 POP JUMP JUMPDEST POP PUSH0 SLOAD PUSH1 0x40 MLOAD PUSH32 0x1B2EF1CA00000000000000000000000000000000000000000000000000000000 DUP2 MSTORE PUSH1 0x4 DUP2 ADD DUP4 SWAP1 MSTORE PUSH1 0x1 PUSH1 0x24 DUP3 ADD MSTORE PUSH20 0xFFFFFFFFFFFFFFFFFFFFFFFFFFFFFFFFFFFFFFFF SWAP1 SWAP2 AND SWAP1 PUSH4 0x1B2EF1CA SWAP1 PUSH1 0x44 ADD PUSH0 PUSH1 0x40 MLOAD DUP1 DUP4 SUB DUP2 PUSH0 DUP8 DUP1 EXTCODESIZE ISZERO DUP1 ISZERO PUSH2 0x257 JUMPI PUSH0 DUP1 REVERT JUMPDEST POP GAS CALL ISZERO DUP1 ISZERO PUSH2 0x269 JUMPI RETURNDATASIZE PUSH0 DUP1 RETURNDATACOPY RETURNDATASIZE PUSH0 REVERT JUMPDEST POP POP POP POP POP POP POP JUMP JUMPDEST PUSH0 DUP2 PUSH1 0x3 SUB PUSH2 0x2D1 JUMPI DUP3 MLOAD PUSH1 0x2 EQ DUP1 ISZERO PUSH2 0x2A4 JUMPI POP DUP3 PUSH0 DUP2 MLOAD DUP2 LT PUSH2 0x299 JUMPI PUSH2 0x299 PUSH2 0x50A JUMP JUMPDEST PUSH1 0x20 MUL PUSH1 0x20 ADD ADD MLOAD PUSH0 EQ JUMPDEST DUP1 ISZERO PUSH2 0x2CA JUMPI POP DUP3 PUSH1 0x1 DUP2 MLOAD DUP2 LT PUSH2 0x2BE JUMPI PUSH2 0x2BE PUSH2 0x50A JUMP JUMPDEST PUSH1 0x20 MUL PUSH1 0x20 ADD ADD MLOAD PUSH1 0x1 EQ JUMPDEST SWAP1 POP PUSH2 0x3ED JUMP JUMPDEST DUP2 PUSH1 0x4 SUB PUSH2 0x32F JUMPI DUP3 MLOAD PUSH1 0x2 EQ DUP1 ISZERO PUSH2 0x303 JUMPI POP DUP3 PUSH0 DUP2 MLOAD DUP2 LT PUSH2 0x2F7 JUMPI PUSH2 0x2F7 PUSH2 0x50A JUMP JUMPDEST PUSH1 0x20 MUL PUSH1 0x20 ADD ADD MLOAD PUSH1 0x1 EQ JUMPDEST DUP1 ISZERO PUSH2 0x2CA JUMPI POP DUP3 PUSH1 0x1 DUP2 MLOAD DUP2 LT PUSH2 0x31D JUMPI PUSH2 0x31D PUSH2 0x50A JUMP JUMPDEST PUSH1 0x20 MUL PUSH1 0x20 ADD ADD MLOAD PUSH1 0x2 EQ SWAP1 POP PUSH2 0x3ED JUMP JUMPDEST DUP2 PUSH1 0x5 SUB PUSH2 0x379 JUMPI DUP3 MLOAD PUSH1 0x2 EQ DUP1 ISZERO PUSH2 0x303 JUMPI POP DUP3 PUSH0 DUP2 MLOAD DUP2 LT PUSH2 0x355 JUMPI PUSH2 0x355 PUSH2 0x50A JUMP JUMPDEST PUSH1 0x20 MUL PUSH1 0x20 ADD ADD MLOAD PUSH0 EQ DUP1 ISZERO PUSH2 0x2CA JUMPI POP DUP3 PUSH1 0x1 DUP2 MLOAD DUP2 LT PUSH2 0x31D JUMPI PUSH2 0x31D PUSH2 0x50A JUMP JUMPDEST DUP2 PUSH1 0x6 SUB PUSH2 0x3EA JUMPI DUP3 MLOAD PUSH1 0x3 EQ DUP1 ISZERO PUSH2 0x3AA JUMPI POP DUP3 PUSH0 DUP2 MLOAD DUP2 LT PUSH2 0x39F JUMPI PUSH2 0x39F PUSH2 0x50A JUMP JUMPDEST PUSH1 0x20 MUL PUSH1 0x20 ADD ADD MLOAD PUSH0 EQ JUMPDEST DUP1 ISZERO PUSH2 0x3D0 JUMPI POP DUP3 PUSH1 0x1 DUP2 MLOAD DUP2 LT PUSH2 0x3C4 JUMPI PUSH2 0x3C4 PUSH2 0x50A JUMP JUMPDEST PUSH1 0x20 MUL PUSH1 0x20 ADD ADD MLOAD PUSH1 0x1 EQ JUMPDEST DUP1 ISZERO PUSH2 0x2CA JUMPI POP DUP3 PUSH1 0x2 DUP2 MLOAD DUP2 LT PUSH2 0x31D JUMPI PUSH2 0x31D PUSH2 0x50A JUMP JUMPDEST POP PUSH0 JUMPDEST SWAP3 SWAP2 POP POP JUMP JUMPDEST PUSH4 0x4E487B71 PUSH1 0xE0 SHL PUSH0 MSTORE PUSH1 0x41 PUSH1 0x4 MSTORE PUSH1 0x24 PUSH0 REVERT JUMPDEST PUSH0 DUP3 PUSH1 0x1F DUP4 ADD SLT PUSH2 0x416 JUMPI PUSH0 DUP1 REVERT JUMPDEST DUP2 CALLDATALOAD PUSH1 0x20 PUSH8 0xFFFFFFFFFFFFFFFF DUP1 DUP4 GT ISZERO PUSH2 0x433 JUMPI PUSH2 0x433 PUSH2 0x3F3 JUMP JUMPDEST DUP3 PUSH1 0x5 SHL PUSH1 0x40 MLOAD PUSH1 0x1F NOT PUSH1 0x3F DUP4 ADD AND DUP2 ADD DUP2 DUP2 LT DUP5 DUP3 GT OR ISZERO PUSH2 0x458 JUMPI PUSH2 0x458 PUSH2 0x3F3 JUMP JUMPDEST PUSH1 0x40 MSTORE SWAP4 DUP5 MSTORE PUSH1 0x20 DUP2 DUP8 ADD DUP2 ADD SWAP5 SWAP1 DUP2 ADD SWAP3 POP DUP8 DUP6 GT ISZERO PUSH2 0x477 JUMPI PUSH0 DUP1 REVERT JUMPDEST PUSH1 0x20 DUP8 ADD SWAP2 POP JUMPDEST DUP5 DUP3 LT ISZERO PUSH2 0x497 JUMPI DUP2 CALLDATALOAD DUP4 MSTORE SWAP2 DUP4 ADD SWAP2 SWAP1 DUP4 ADD SWAP1 PUSH2 0x47E JUMP JUMPDEST SWAP8 SWAP7 POP POP POP POP POP POP POP JUMP JUMPDEST PUSH0 DUP1 PUSH0 PUSH1 0x60 DUP5 DUP7 SUB SLT ISZERO PUSH2 0x4B4 JUMPI PUSH0 DUP1 REVERT JUMPDEST DUP4 CALLDATALOAD PUSH8 0xFFFFFFFFFFFFFFFF DUP1 DUP3 GT ISZERO PUSH2 0x4CB JUMPI PUSH0 DUP1 REVERT JUMPDEST PUSH2 0x4D7 DUP8 DUP4 DUP9 ADD PUSH2 0x407 JUMP JUMPDEST SWAP5 POP PUSH1 0x20 DUP7 ADD CALLDATALOAD SWAP2 POP DUP1 DUP3 GT ISZERO PUSH2 0x4EC JUMPI PUSH0 DUP1 REVERT JUMPDEST POP PUSH2 0x4F9 DUP7 DUP3 DUP8 ADD PUSH2 0x407 JUMP JUMPDEST SWAP3 POP POP PUSH1 0x40 DUP5 ADD CALLDATALOAD SWAP1 POP SWAP3 POP SWAP3 POP SWAP3 JUMP JUMPDEST PUSH4 0x4E487B71 PUSH1 0xE0 SHL PUSH0 MSTORE PUSH1 0x32 PUSH1 0x4 MSTORE PUSH1 0x24 PUSH0 REVERT INVALID LOG2 PUSH5 0x6970667358 0x22 SLT KECCAK256 DUP1 0xFB EXTCODESIZE SWAP15 0x4D CHAINID 0xB3 0xEB CREATE SLT 0xAF 0xC6 STATICCALL CALLER 0xEE MCOPY 0xB5 SAR LOG2 SMOD 0xD5 SWAP6 0xB8 0xE2 PUSH22 0x986639F7F9BB5A64736F6C6343000818003300000000 "
		},
		"gasEstimates": {
			"creation": {
				"codeDepositCost": "272800",
				"executionCost": "infinite",
				"totalCost": "infinite"
			},
			"external": {
				"forgeToken(uint256[],uint256[],uint256)": "infinite"
			},
			"internal": {
				"isValidForge(uint256[] memory,uint256)": "infinite"
			}
		},
		"methodIdentifiers": {
			"forgeToken(uint256[],uint256[],uint256)": "50cc33ac"
		}
	},
	"abi": [
		{
			"inputs": [
				{
					"internalType": "contract MyERC1155Token",
					"name": "_tokenContract",
					"type": "address"
				}
			],
			"stateMutability": "nonpayable",
			"type": "constructor"
		},
		{
			"inputs": [
				{
					"internalType": "uint256[]",
					"name": "burnIds",
					"type": "uint256[]"
				},
				{
					"internalType": "uint256[]",
					"name": "burnAmounts",
					"type": "uint256[]"
				},
				{
					"internalType": "uint256",
					"name": "mintId",
					"type": "uint256"
				}
			],
			"name": "forgeToken",
			"outputs": [],
			"stateMutability": "nonpayable",
			"type": "function"
		}
	]
}