{
	"data": {
		"bytecode": {
			"linkReferences": {},
			"object": "608060405234801561000f575f80fd5b50604051610bde380380610bde833981810160405281019061003191906100e5565b805f806101000a81548173ffffffffffffffffffffffffffffffffffffffff021916908373ffffffffffffffffffffffffffffffffffffffff16021790555050610110565b5f80fd5b5f73ffffffffffffffffffffffffffffffffffffffff82169050919050565b5f6100a38261007a565b9050919050565b5f6100b482610099565b9050919050565b6100c4816100aa565b81146100ce575f80fd5b50565b5f815190506100df816100bb565b92915050565b5f602082840312156100fa576100f9610076565b5b5f610107848285016100d1565b91505092915050565b610ac18061011d5f395ff3fe608060405234801561000f575f80fd5b5060043610610029575f3560e01c806350cc33ac1461002d575b5f80fd5b6100476004803603810190610042919061080a565b610049565b005b815183511461008d576040517f08c379a0000000000000000000000000000000000000000000000000000000008152600401610084906108ec565b60405180910390fd5b6100978382610239565b6100d6576040517f08c379a00000000000000000000000000000000000000000000000000000000081526004016100cd90610954565b60405180910390fd5b5f5b83518110156101ab575f8054906101000a900473ffffffffffffffffffffffffffffffffffffffff1673ffffffffffffffffffffffffffffffffffffffff1663f5298aca338684815181106101305761012f610972565b5b602002602001015186858151811061014b5761014a610972565b5b60200260200101516040518463ffffffff1660e01b8152600401610171939291906109ed565b5f604051808303815f87803b158015610188575f80fd5b505af115801561019a573d5f803e3d5ffd5b5050505080806001019150506100d8565b505f8054906101000a900473ffffffffffffffffffffffffffffffffffffffff1673ffffffffffffffffffffffffffffffffffffffff16631b2ef1ca8260016040518363ffffffff1660e01b8152600401610207929190610a64565b5f604051808303815f87803b15801561021e575f80fd5b505af1158015610230573d5f803e3d5ffd5b50505050505050565b5f600382036102e3575f600267ffffffffffffffff81111561025e5761025d61069b565b5b60405190808252806020026020018201604052801561028c5781602001602082028036833780820191505090505b5090505f815f815181106102a3576102a2610972565b5b6020026020010181815250506001816001815181106102c5576102c4610972565b5b6020026020010181815250506102db848261050b565b915050610505565b6004820361038d575f600267ffffffffffffffff8111156103075761030661069b565b5b6040519080825280602002602001820160405280156103355781602001602082028036833780820191505090505b5090506001815f8151811061034d5761034c610972565b5b60200260200101818152505060028160018151811061036f5761036e610972565b5b602002602001018181525050610385848261050b565b915050610505565b60058203610436575f600267ffffffffffffffff8111156103b1576103b061069b565b5b6040519080825280602002602001820160405280156103df5781602001602082028036833780820191505090505b5090505f815f815181106103f6576103f5610972565b5b60200260200101818152505060028160018151811061041857610417610972565b5b60200260200101818152505061042e848261050b565b915050610505565b60068203610501575f600367ffffffffffffffff81111561045a5761045961069b565b5b6040519080825280602002602001820160405280156104885781602001602082028036833780820191505090505b5090505f815f8151811061049f5761049e610972565b5b6020026020010181815250506001816001815181106104c1576104c0610972565b5b6020026020010181815250506002816002815181106104e3576104e2610972565b5b6020026020010181815250506104f9848261050b565b915050610505565b5f90505b92915050565b5f815183511461051d575f9050610670565b5f825167ffffffffffffffff8111156105395761053861069b565b5b6040519080825280602002602001820160405280156105675781602001602082028036833780820191505090505b5090505f5b8451811015610627575f5b84518110156106195784818151811061059357610592610972565b5b60200260200101518683815181106105ae576105ad610972565b5b60200260200101511480156105db57508281815181106105d1576105d0610972565b5b6020026020010151155b1561060c5760018382815181106105f5576105f4610972565b5b602002602001019015159081151581525050610619565b8080600101915050610577565b50808060010191505061056c565b505f5b81518110156106695781818151811061064657610645610972565b5b602002602001015161065c575f92505050610670565b808060010191505061062a565b5060019150505b92915050565b5f604051905090565b5f80fd5b5f80fd5b5f80fd5b5f601f19601f8301169050919050565b7f4e487b71000000000000000000000000000000000000000000000000000000005f52604160045260245ffd5b6106d18261068b565b810181811067ffffffffffffffff821117156106f0576106ef61069b565b5b80604052505050565b5f610702610676565b905061070e82826106c8565b919050565b5f67ffffffffffffffff82111561072d5761072c61069b565b5b602082029050602081019050919050565b5f80fd5b5f819050919050565b61075481610742565b811461075e575f80fd5b50565b5f8135905061076f8161074b565b92915050565b5f61078761078284610713565b6106f9565b905080838252602082019050602084028301858111156107aa576107a961073e565b5b835b818110156107d357806107bf8882610761565b8452602084019350506020810190506107ac565b5050509392505050565b5f82601f8301126107f1576107f0610687565b5b8135610801848260208601610775565b91505092915050565b5f805f606084860312156108215761082061067f565b5b5f84013567ffffffffffffffff81111561083e5761083d610683565b5b61084a868287016107dd565b935050602084013567ffffffffffffffff81111561086b5761086a610683565b5b610877868287016107dd565b925050604061088886828701610761565b9150509250925092565b5f82825260208201905092915050565b7f4d69736d617463686564206275726e20646174610000000000000000000000005f82015250565b5f6108d6601483610892565b91506108e1826108a2565b602082019050919050565b5f6020820190508181035f830152610903816108ca565b9050919050565b7f496e76616c696420666f726765000000000000000000000000000000000000005f82015250565b5f61093e600d83610892565b91506109498261090a565b602082019050919050565b5f6020820190508181035f83015261096b81610932565b9050919050565b7f4e487b71000000000000000000000000000000000000000000000000000000005f52603260045260245ffd5b5f73ffffffffffffffffffffffffffffffffffffffff82169050919050565b5f6109c88261099f565b9050919050565b6109d8816109be565b82525050565b6109e781610742565b82525050565b5f606082019050610a005f8301866109cf565b610a0d60208301856109de565b610a1a60408301846109de565b949350505050565b5f819050919050565b5f819050919050565b5f610a4e610a49610a4484610a22565b610a2b565b610742565b9050919050565b610a5e81610a34565b82525050565b5f604082019050610a775f8301856109de565b610a846020830184610a55565b939250505056fea264697066735822122043cb666f17f0f6f495fc6b046d894ad0acb8bedbd74cf8bfac1e878bc714964c64736f6c63430008180033",
			"opcodes": "PUSH1 0x80 PUSH1 0x40 MSTORE CALLVALUE DUP1 ISZERO PUSH2 0xF JUMPI PUSH0 DUP1 REVERT JUMPDEST POP PUSH1 0x40 MLOAD PUSH2 0xBDE CODESIZE SUB DUP1 PUSH2 0xBDE DUP4 CODECOPY DUP2 DUP2 ADD PUSH1 0x40 MSTORE DUP2 ADD SWAP1 PUSH2 0x31 SWAP2 SWAP1 PUSH2 0xE5 JUMP JUMPDEST DUP1 PUSH0 DUP1 PUSH2 0x100 EXP DUP2 SLOAD DUP2 PUSH20 0xFFFFFFFFFFFFFFFFFFFFFFFFFFFFFFFFFFFFFFFF MUL NOT AND SWAP1 DUP4 PUSH20 0xFFFFFFFFFFFFFFFFFFFFFFFFFFFFFFFFFFFFFFFF AND MUL OR SWAP1 SSTORE POP POP PUSH2 0x110 JUMP JUMPDEST PUSH0 DUP1 REVERT JUMPDEST PUSH0 PUSH20 0xFFFFFFFFFFFFFFFFFFFFFFFFFFFFFFFFFFFFFFFF DUP3 AND SWAP1 POP SWAP2 SWAP1 POP JUMP JUMPDEST PUSH0 PUSH2 0xA3 DUP3 PUSH2 0x7A JUMP JUMPDEST SWAP1 POP SWAP2 SWAP1 POP JUMP JUMPDEST PUSH0 PUSH2 0xB4 DUP3 PUSH2 0x99 JUMP JUMPDEST SWAP1 POP SWAP2 SWAP1 POP JUMP JUMPDEST PUSH2 0xC4 DUP2 PUSH2 0xAA JUMP JUMPDEST DUP2 EQ PUSH2 0xCE JUMPI PUSH0 DUP1 REVERT JUMPDEST POP JUMP JUMPDEST PUSH0 DUP2 MLOAD SWAP1 POP PUSH2 0xDF DUP2 PUSH2 0xBB JUMP JUMPDEST SWAP3 SWAP2 POP POP JUMP JUMPDEST PUSH0 PUSH1 0x20 DUP3 DUP5 SUB SLT ISZERO PUSH2 0xFA JUMPI PUSH2 0xF9 PUSH2 0x76 JUMP JUMPDEST JUMPDEST PUSH0 PUSH2 0x107 DUP5 DUP3 DUP6 ADD PUSH2 0xD1 JUMP JUMPDEST SWAP2 POP POP SWAP3 SWAP2 POP POP JUMP JUMPDEST PUSH2 0xAC1 DUP1 PUSH2 0x11D PUSH0 CODECOPY PUSH0 RETURN INVALID PUSH1 0x80 PUSH1 0x40 MSTORE CALLVALUE DUP1 ISZERO PUSH2 0xF JUMPI PUSH0 DUP1 REVERT JUMPDEST POP PUSH1 0x4 CALLDATASIZE LT PUSH2 0x29 JUMPI PUSH0 CALLDATALOAD PUSH1 0xE0 SHR DUP1 PUSH4 0x50CC33AC EQ PUSH2 0x2D JUMPI JUMPDEST PUSH0 DUP1 REVERT JUMPDEST PUSH2 0x47 PUSH1 0x4 DUP1 CALLDATASIZE SUB DUP2 ADD SWAP1 PUSH2 0x42 SWAP2 SWAP1 PUSH2 0x80A JUMP JUMPDEST PUSH2 0x49 JUMP JUMPDEST STOP JUMPDEST DUP2 MLOAD DUP4 MLOAD EQ PUSH2 0x8D JUMPI PUSH1 0x40 MLOAD PUSH32 0x8C379A000000000000000000000000000000000000000000000000000000000 DUP2 MSTORE PUSH1 0x4 ADD PUSH2 0x84 SWAP1 PUSH2 0x8EC JUMP JUMPDEST PUSH1 0x40 MLOAD DUP1 SWAP2 SUB SWAP1 REVERT JUMPDEST PUSH2 0x97 DUP4 DUP3 PUSH2 0x239 JUMP JUMPDEST PUSH2 0xD6 JUMPI PUSH1 0x40 MLOAD PUSH32 0x8C379A000000000000000000000000000000000000000000000000000000000 DUP2 MSTORE PUSH1 0x4 ADD PUSH2 0xCD SWAP1 PUSH2 0x954 JUMP JUMPDEST PUSH1 0x40 MLOAD DUP1 SWAP2 SUB SWAP1 REVERT JUMPDEST PUSH0 JUMPDEST DUP4 MLOAD DUP2 LT ISZERO PUSH2 0x1AB JUMPI PUSH0 DUP1 SLOAD SWAP1 PUSH2 0x100 EXP SWAP1 DIV PUSH20 0xFFFFFFFFFFFFFFFFFFFFFFFFFFFFFFFFFFFFFFFF AND PUSH20 0xFFFFFFFFFFFFFFFFFFFFFFFFFFFFFFFFFFFFFFFF AND PUSH4 0xF5298ACA CALLER DUP7 DUP5 DUP2 MLOAD DUP2 LT PUSH2 0x130 JUMPI PUSH2 0x12F PUSH2 0x972 JUMP JUMPDEST JUMPDEST PUSH1 0x20 MUL PUSH1 0x20 ADD ADD MLOAD DUP7 DUP6 DUP2 MLOAD DUP2 LT PUSH2 0x14B JUMPI PUSH2 0x14A PUSH2 0x972 JUMP JUMPDEST JUMPDEST PUSH1 0x20 MUL PUSH1 0x20 ADD ADD MLOAD PUSH1 0x40 MLOAD DUP5 PUSH4 0xFFFFFFFF AND PUSH1 0xE0 SHL DUP2 MSTORE PUSH1 0x4 ADD PUSH2 0x171 SWAP4 SWAP3 SWAP2 SWAP1 PUSH2 0x9ED JUMP JUMPDEST PUSH0 PUSH1 0x40 MLOAD DUP1 DUP4 SUB DUP2 PUSH0 DUP8 DUP1 EXTCODESIZE ISZERO DUP1 ISZERO PUSH2 0x188 JUMPI PUSH0 DUP1 REVERT JUMPDEST POP GAS CALL ISZERO DUP1 ISZERO PUSH2 0x19A JUMPI RETURNDATASIZE PUSH0 DUP1 RETURNDATACOPY RETURNDATASIZE PUSH0 REVERT JUMPDEST POP POP POP POP DUP1 DUP1 PUSH1 0x1 ADD SWAP2 POP POP PUSH2 0xD8 JUMP JUMPDEST POP PUSH0 DUP1 SLOAD SWAP1 PUSH2 0x100 EXP SWAP1 DIV PUSH20 0xFFFFFFFFFFFFFFFFFFFFFFFFFFFFFFFFFFFFFFFF AND PUSH20 0xFFFFFFFFFFFFFFFFFFFFFFFFFFFFFFFFFFFFFFFF AND PUSH4 0x1B2EF1CA DUP3 PUSH1 0x1 PUSH1 0x40 MLOAD DUP4 PUSH4 0xFFFFFFFF AND PUSH1 0xE0 SHL DUP2 MSTORE PUSH1 0x4 ADD PUSH2 0x207 SWAP3 SWAP2 SWAP1 PUSH2 0xA64 JUMP JUMPDEST PUSH0 PUSH1 0x40 MLOAD DUP1 DUP4 SUB DUP2 PUSH0 DUP8 DUP1 EXTCODESIZE ISZERO DUP1 ISZERO PUSH2 0x21E JUMPI PUSH0 DUP1 REVERT JUMPDEST POP GAS CALL ISZERO DUP1 ISZERO PUSH2 0x230 JUMPI RETURNDATASIZE PUSH0 DUP1 RETURNDATACOPY RETURNDATASIZE PUSH0 REVERT JUMPDEST POP POP POP POP POP POP POP JUMP JUMPDEST PUSH0 PUSH1 0x3 DUP3 SUB PUSH2 0x2E3 JUMPI PUSH0 PUSH1 0x2 PUSH8 0xFFFFFFFFFFFFFFFF DUP2 GT ISZERO PUSH2 0x25E JUMPI PUSH2 0x25D PUSH2 0x69B JUMP JUMPDEST JUMPDEST PUSH1 0x40 MLOAD SWAP1 DUP1 DUP3 MSTORE DUP1 PUSH1 0x20 MUL PUSH1 0x20 ADD DUP3 ADD PUSH1 0x40 MSTORE DUP1 ISZERO PUSH2 0x28C JUMPI DUP2 PUSH1 0x20 ADD PUSH1 0x20 DUP3 MUL DUP1 CALLDATASIZE DUP4 CALLDATACOPY DUP1 DUP3 ADD SWAP2 POP POP SWAP1 POP JUMPDEST POP SWAP1 POP PUSH0 DUP2 PUSH0 DUP2 MLOAD DUP2 LT PUSH2 0x2A3 JUMPI PUSH2 0x2A2 PUSH2 0x972 JUMP JUMPDEST JUMPDEST PUSH1 0x20 MUL PUSH1 0x20 ADD ADD DUP2 DUP2 MSTORE POP POP PUSH1 0x1 DUP2 PUSH1 0x1 DUP2 MLOAD DUP2 LT PUSH2 0x2C5 JUMPI PUSH2 0x2C4 PUSH2 0x972 JUMP JUMPDEST JUMPDEST PUSH1 0x20 MUL PUSH1 0x20 ADD ADD DUP2 DUP2 MSTORE POP POP PUSH2 0x2DB DUP5 DUP3 PUSH2 0x50B JUMP JUMPDEST SWAP2 POP POP PUSH2 0x505 JUMP JUMPDEST PUSH1 0x4 DUP3 SUB PUSH2 0x38D JUMPI PUSH0 PUSH1 0x2 PUSH8 0xFFFFFFFFFFFFFFFF DUP2 GT ISZERO PUSH2 0x307 JUMPI PUSH2 0x306 PUSH2 0x69B JUMP JUMPDEST JUMPDEST PUSH1 0x40 MLOAD SWAP1 DUP1 DUP3 MSTORE DUP1 PUSH1 0x20 MUL PUSH1 0x20 ADD DUP3 ADD PUSH1 0x40 MSTORE DUP1 ISZERO PUSH2 0x335 JUMPI DUP2 PUSH1 0x20 ADD PUSH1 0x20 DUP3 MUL DUP1 CALLDATASIZE DUP4 CALLDATACOPY DUP1 DUP3 ADD SWAP2 POP POP SWAP1 POP JUMPDEST POP SWAP1 POP PUSH1 0x1 DUP2 PUSH0 DUP2 MLOAD DUP2 LT PUSH2 0x34D JUMPI PUSH2 0x34C PUSH2 0x972 JUMP JUMPDEST JUMPDEST PUSH1 0x20 MUL PUSH1 0x20 ADD ADD DUP2 DUP2 MSTORE POP POP PUSH1 0x2 DUP2 PUSH1 0x1 DUP2 MLOAD DUP2 LT PUSH2 0x36F JUMPI PUSH2 0x36E PUSH2 0x972 JUMP JUMPDEST JUMPDEST PUSH1 0x20 MUL PUSH1 0x20 ADD ADD DUP2 DUP2 MSTORE POP POP PUSH2 0x385 DUP5 DUP3 PUSH2 0x50B JUMP JUMPDEST SWAP2 POP POP PUSH2 0x505 JUMP JUMPDEST PUSH1 0x5 DUP3 SUB PUSH2 0x436 JUMPI PUSH0 PUSH1 0x2 PUSH8 0xFFFFFFFFFFFFFFFF DUP2 GT ISZERO PUSH2 0x3B1 JUMPI PUSH2 0x3B0 PUSH2 0x69B JUMP JUMPDEST JUMPDEST PUSH1 0x40 MLOAD SWAP1 DUP1 DUP3 MSTORE DUP1 PUSH1 0x20 MUL PUSH1 0x20 ADD DUP3 ADD PUSH1 0x40 MSTORE DUP1 ISZERO PUSH2 0x3DF JUMPI DUP2 PUSH1 0x20 ADD PUSH1 0x20 DUP3 MUL DUP1 CALLDATASIZE DUP4 CALLDATACOPY DUP1 DUP3 ADD SWAP2 POP POP SWAP1 POP JUMPDEST POP SWAP1 POP PUSH0 DUP2 PUSH0 DUP2 MLOAD DUP2 LT PUSH2 0x3F6 JUMPI PUSH2 0x3F5 PUSH2 0x972 JUMP JUMPDEST JUMPDEST PUSH1 0x20 MUL PUSH1 0x20 ADD ADD DUP2 DUP2 MSTORE POP POP PUSH1 0x2 DUP2 PUSH1 0x1 DUP2 MLOAD DUP2 LT PUSH2 0x418 JUMPI PUSH2 0x417 PUSH2 0x972 JUMP JUMPDEST JUMPDEST PUSH1 0x20 MUL PUSH1 0x20 ADD ADD DUP2 DUP2 MSTORE POP POP PUSH2 0x42E DUP5 DUP3 PUSH2 0x50B JUMP JUMPDEST SWAP2 POP POP PUSH2 0x505 JUMP JUMPDEST PUSH1 0x6 DUP3 SUB PUSH2 0x501 JUMPI PUSH0 PUSH1 0x3 PUSH8 0xFFFFFFFFFFFFFFFF DUP2 GT ISZERO PUSH2 0x45A JUMPI PUSH2 0x459 PUSH2 0x69B JUMP JUMPDEST JUMPDEST PUSH1 0x40 MLOAD SWAP1 DUP1 DUP3 MSTORE DUP1 PUSH1 0x20 MUL PUSH1 0x20 ADD DUP3 ADD PUSH1 0x40 MSTORE DUP1 ISZERO PUSH2 0x488 JUMPI DUP2 PUSH1 0x20 ADD PUSH1 0x20 DUP3 MUL DUP1 CALLDATASIZE DUP4 CALLDATACOPY DUP1 DUP3 ADD SWAP2 POP POP SWAP1 POP JUMPDEST POP SWAP1 POP PUSH0 DUP2 PUSH0 DUP2 MLOAD DUP2 LT PUSH2 0x49F JUMPI PUSH2 0x49E PUSH2 0x972 JUMP JUMPDEST JUMPDEST PUSH1 0x20 MUL PUSH1 0x20 ADD ADD DUP2 DUP2 MSTORE POP POP PUSH1 0x1 DUP2 PUSH1 0x1 DUP2 MLOAD DUP2 LT PUSH2 0x4C1 JUMPI PUSH2 0x4C0 PUSH2 0x972 JUMP JUMPDEST JUMPDEST PUSH1 0x20 MUL PUSH1 0x20 ADD ADD DUP2 DUP2 MSTORE POP POP PUSH1 0x2 DUP2 PUSH1 0x2 DUP2 MLOAD DUP2 LT PUSH2 0x4E3 JUMPI PUSH2 0x4E2 PUSH2 0x972 JUMP JUMPDEST JUMPDEST PUSH1 0x20 MUL PUSH1 0x20 ADD ADD DUP2 DUP2 MSTORE POP POP PUSH2 0x4F9 DUP5 DUP3 PUSH2 0x50B JUMP JUMPDEST SWAP2 POP POP PUSH2 0x505 JUMP JUMPDEST PUSH0 SWAP1 POP JUMPDEST SWAP3 SWAP2 POP POP JUMP JUMPDEST PUSH0 DUP2 MLOAD DUP4 MLOAD EQ PUSH2 0x51D JUMPI PUSH0 SWAP1 POP PUSH2 0x670 JUMP JUMPDEST PUSH0 DUP3 MLOAD PUSH8 0xFFFFFFFFFFFFFFFF DUP2 GT ISZERO PUSH2 0x539 JUMPI PUSH2 0x538 PUSH2 0x69B JUMP JUMPDEST JUMPDEST PUSH1 0x40 MLOAD SWAP1 DUP1 DUP3 MSTORE DUP1 PUSH1 0x20 MUL PUSH1 0x20 ADD DUP3 ADD PUSH1 0x40 MSTORE DUP1 ISZERO PUSH2 0x567 JUMPI DUP2 PUSH1 0x20 ADD PUSH1 0x20 DUP3 MUL DUP1 CALLDATASIZE DUP4 CALLDATACOPY DUP1 DUP3 ADD SWAP2 POP POP SWAP1 POP JUMPDEST POP SWAP1 POP PUSH0 JUMPDEST DUP5 MLOAD DUP2 LT ISZERO PUSH2 0x627 JUMPI PUSH0 JUMPDEST DUP5 MLOAD DUP2 LT ISZERO PUSH2 0x619 JUMPI DUP5 DUP2 DUP2 MLOAD DUP2 LT PUSH2 0x593 JUMPI PUSH2 0x592 PUSH2 0x972 JUMP JUMPDEST JUMPDEST PUSH1 0x20 MUL PUSH1 0x20 ADD ADD MLOAD DUP7 DUP4 DUP2 MLOAD DUP2 LT PUSH2 0x5AE JUMPI PUSH2 0x5AD PUSH2 0x972 JUMP JUMPDEST JUMPDEST PUSH1 0x20 MUL PUSH1 0x20 ADD ADD MLOAD EQ DUP1 ISZERO PUSH2 0x5DB JUMPI POP DUP3 DUP2 DUP2 MLOAD DUP2 LT PUSH2 0x5D1 JUMPI PUSH2 0x5D0 PUSH2 0x972 JUMP JUMPDEST JUMPDEST PUSH1 0x20 MUL PUSH1 0x20 ADD ADD MLOAD ISZERO JUMPDEST ISZERO PUSH2 0x60C JUMPI PUSH1 0x1 DUP4 DUP3 DUP2 MLOAD DUP2 LT PUSH2 0x5F5 JUMPI PUSH2 0x5F4 PUSH2 0x972 JUMP JUMPDEST JUMPDEST PUSH1 0x20 MUL PUSH1 0x20 ADD ADD SWAP1 ISZERO ISZERO SWAP1 DUP2 ISZERO ISZERO DUP2 MSTORE POP POP PUSH2 0x619 JUMP JUMPDEST DUP1 DUP1 PUSH1 0x1 ADD SWAP2 POP POP PUSH2 0x577 JUMP JUMPDEST POP DUP1 DUP1 PUSH1 0x1 ADD SWAP2 POP POP PUSH2 0x56C JUMP JUMPDEST POP PUSH0 JUMPDEST DUP2 MLOAD DUP2 LT ISZERO PUSH2 0x669 JUMPI DUP2 DUP2 DUP2 MLOAD DUP2 LT PUSH2 0x646 JUMPI PUSH2 0x645 PUSH2 0x972 JUMP JUMPDEST JUMPDEST PUSH1 0x20 MUL PUSH1 0x20 ADD ADD MLOAD PUSH2 0x65C JUMPI PUSH0 SWAP3 POP POP POP PUSH2 0x670 JUMP JUMPDEST DUP1 DUP1 PUSH1 0x1 ADD SWAP2 POP POP PUSH2 0x62A JUMP JUMPDEST POP PUSH1 0x1 SWAP2 POP POP JUMPDEST SWAP3 SWAP2 POP POP JUMP JUMPDEST PUSH0 PUSH1 0x40 MLOAD SWAP1 POP SWAP1 JUMP JUMPDEST PUSH0 DUP1 REVERT JUMPDEST PUSH0 DUP1 REVERT JUMPDEST PUSH0 DUP1 REVERT JUMPDEST PUSH0 PUSH1 0x1F NOT PUSH1 0x1F DUP4 ADD AND SWAP1 POP SWAP2 SWAP1 POP JUMP JUMPDEST PUSH32 0x4E487B7100000000000000000000000000000000000000000000000000000000 PUSH0 MSTORE PUSH1 0x41 PUSH1 0x4 MSTORE PUSH1 0x24 PUSH0 REVERT JUMPDEST PUSH2 0x6D1 DUP3 PUSH2 0x68B JUMP JUMPDEST DUP2 ADD DUP2 DUP2 LT PUSH8 0xFFFFFFFFFFFFFFFF DUP3 GT OR ISZERO PUSH2 0x6F0 JUMPI PUSH2 0x6EF PUSH2 0x69B JUMP JUMPDEST JUMPDEST DUP1 PUSH1 0x40 MSTORE POP POP POP JUMP JUMPDEST PUSH0 PUSH2 0x702 PUSH2 0x676 JUMP JUMPDEST SWAP1 POP PUSH2 0x70E DUP3 DUP3 PUSH2 0x6C8 JUMP JUMPDEST SWAP2 SWAP1 POP JUMP JUMPDEST PUSH0 PUSH8 0xFFFFFFFFFFFFFFFF DUP3 GT ISZERO PUSH2 0x72D JUMPI PUSH2 0x72C PUSH2 0x69B JUMP JUMPDEST JUMPDEST PUSH1 0x20 DUP3 MUL SWAP1 POP PUSH1 0x20 DUP2 ADD SWAP1 POP SWAP2 SWAP1 POP JUMP JUMPDEST PUSH0 DUP1 REVERT JUMPDEST PUSH0 DUP2 SWAP1 POP SWAP2 SWAP1 POP JUMP JUMPDEST PUSH2 0x754 DUP2 PUSH2 0x742 JUMP JUMPDEST DUP2 EQ PUSH2 0x75E JUMPI PUSH0 DUP1 REVERT JUMPDEST POP JUMP JUMPDEST PUSH0 DUP2 CALLDATALOAD SWAP1 POP PUSH2 0x76F DUP2 PUSH2 0x74B JUMP JUMPDEST SWAP3 SWAP2 POP POP JUMP JUMPDEST PUSH0 PUSH2 0x787 PUSH2 0x782 DUP5 PUSH2 0x713 JUMP JUMPDEST PUSH2 0x6F9 JUMP JUMPDEST SWAP1 POP DUP1 DUP4 DUP3 MSTORE PUSH1 0x20 DUP3 ADD SWAP1 POP PUSH1 0x20 DUP5 MUL DUP4 ADD DUP6 DUP2 GT ISZERO PUSH2 0x7AA JUMPI PUSH2 0x7A9 PUSH2 0x73E JUMP JUMPDEST JUMPDEST DUP4 JUMPDEST DUP2 DUP2 LT ISZERO PUSH2 0x7D3 JUMPI DUP1 PUSH2 0x7BF DUP9 DUP3 PUSH2 0x761 JUMP JUMPDEST DUP5 MSTORE PUSH1 0x20 DUP5 ADD SWAP4 POP POP PUSH1 0x20 DUP2 ADD SWAP1 POP PUSH2 0x7AC JUMP JUMPDEST POP POP POP SWAP4 SWAP3 POP POP POP JUMP JUMPDEST PUSH0 DUP3 PUSH1 0x1F DUP4 ADD SLT PUSH2 0x7F1 JUMPI PUSH2 0x7F0 PUSH2 0x687 JUMP JUMPDEST JUMPDEST DUP2 CALLDATALOAD PUSH2 0x801 DUP5 DUP3 PUSH1 0x20 DUP7 ADD PUSH2 0x775 JUMP JUMPDEST SWAP2 POP POP SWAP3 SWAP2 POP POP JUMP JUMPDEST PUSH0 DUP1 PUSH0 PUSH1 0x60 DUP5 DUP7 SUB SLT ISZERO PUSH2 0x821 JUMPI PUSH2 0x820 PUSH2 0x67F JUMP JUMPDEST JUMPDEST PUSH0 DUP5 ADD CALLDATALOAD PUSH8 0xFFFFFFFFFFFFFFFF DUP2 GT ISZERO PUSH2 0x83E JUMPI PUSH2 0x83D PUSH2 0x683 JUMP JUMPDEST JUMPDEST PUSH2 0x84A DUP7 DUP3 DUP8 ADD PUSH2 0x7DD JUMP JUMPDEST SWAP4 POP POP PUSH1 0x20 DUP5 ADD CALLDATALOAD PUSH8 0xFFFFFFFFFFFFFFFF DUP2 GT ISZERO PUSH2 0x86B JUMPI PUSH2 0x86A PUSH2 0x683 JUMP JUMPDEST JUMPDEST PUSH2 0x877 DUP7 DUP3 DUP8 ADD PUSH2 0x7DD JUMP JUMPDEST SWAP3 POP POP PUSH1 0x40 PUSH2 0x888 DUP7 DUP3 DUP8 ADD PUSH2 0x761 JUMP JUMPDEST SWAP2 POP POP SWAP3 POP SWAP3 POP SWAP3 JUMP JUMPDEST PUSH0 DUP3 DUP3 MSTORE PUSH1 0x20 DUP3 ADD SWAP1 POP SWAP3 SWAP2 POP POP JUMP JUMPDEST PUSH32 0x4D69736D617463686564206275726E2064617461000000000000000000000000 PUSH0 DUP3 ADD MSTORE POP JUMP JUMPDEST PUSH0 PUSH2 0x8D6 PUSH1 0x14 DUP4 PUSH2 0x892 JUMP JUMPDEST SWAP2 POP PUSH2 0x8E1 DUP3 PUSH2 0x8A2 JUMP JUMPDEST PUSH1 0x20 DUP3 ADD SWAP1 POP SWAP2 SWAP1 POP JUMP JUMPDEST PUSH0 PUSH1 0x20 DUP3 ADD SWAP1 POP DUP2 DUP2 SUB PUSH0 DUP4 ADD MSTORE PUSH2 0x903 DUP2 PUSH2 0x8CA JUMP JUMPDEST SWAP1 POP SWAP2 SWAP1 POP JUMP JUMPDEST PUSH32 0x496E76616C696420666F72676500000000000000000000000000000000000000 PUSH0 DUP3 ADD MSTORE POP JUMP JUMPDEST PUSH0 PUSH2 0x93E PUSH1 0xD DUP4 PUSH2 0x892 JUMP JUMPDEST SWAP2 POP PUSH2 0x949 DUP3 PUSH2 0x90A JUMP JUMPDEST PUSH1 0x20 DUP3 ADD SWAP1 POP SWAP2 SWAP1 POP JUMP JUMPDEST PUSH0 PUSH1 0x20 DUP3 ADD SWAP1 POP DUP2 DUP2 SUB PUSH0 DUP4 ADD MSTORE PUSH2 0x96B DUP2 PUSH2 0x932 JUMP JUMPDEST SWAP1 POP SWAP2 SWAP1 POP JUMP JUMPDEST PUSH32 0x4E487B7100000000000000000000000000000000000000000000000000000000 PUSH0 MSTORE PUSH1 0x32 PUSH1 0x4 MSTORE PUSH1 0x24 PUSH0 REVERT JUMPDEST PUSH0 PUSH20 0xFFFFFFFFFFFFFFFFFFFFFFFFFFFFFFFFFFFFFFFF DUP3 AND SWAP1 POP SWAP2 SWAP1 POP JUMP JUMPDEST PUSH0 PUSH2 0x9C8 DUP3 PUSH2 0x99F JUMP JUMPDEST SWAP1 POP SWAP2 SWAP1 POP JUMP JUMPDEST PUSH2 0x9D8 DUP2 PUSH2 0x9BE JUMP JUMPDEST DUP3 MSTORE POP POP JUMP JUMPDEST PUSH2 0x9E7 DUP2 PUSH2 0x742 JUMP JUMPDEST DUP3 MSTORE POP POP JUMP JUMPDEST PUSH0 PUSH1 0x60 DUP3 ADD SWAP1 POP PUSH2 0xA00 PUSH0 DUP4 ADD DUP7 PUSH2 0x9CF JUMP JUMPDEST PUSH2 0xA0D PUSH1 0x20 DUP4 ADD DUP6 PUSH2 0x9DE JUMP JUMPDEST PUSH2 0xA1A PUSH1 0x40 DUP4 ADD DUP5 PUSH2 0x9DE JUMP JUMPDEST SWAP5 SWAP4 POP POP POP POP JUMP JUMPDEST PUSH0 DUP2 SWAP1 POP SWAP2 SWAP1 POP JUMP JUMPDEST PUSH0 DUP2 SWAP1 POP SWAP2 SWAP1 POP JUMP JUMPDEST PUSH0 PUSH2 0xA4E PUSH2 0xA49 PUSH2 0xA44 DUP5 PUSH2 0xA22 JUMP JUMPDEST PUSH2 0xA2B JUMP JUMPDEST PUSH2 0x742 JUMP JUMPDEST SWAP1 POP SWAP2 SWAP1 POP JUMP JUMPDEST PUSH2 0xA5E DUP2 PUSH2 0xA34 JUMP JUMPDEST DUP3 MSTORE POP POP JUMP JUMPDEST PUSH0 PUSH1 0x40 DUP3 ADD SWAP1 POP PUSH2 0xA77 PUSH0 DUP4 ADD DUP6 PUSH2 0x9DE JUMP JUMPDEST PUSH2 0xA84 PUSH1 0x20 DUP4 ADD DUP5 PUSH2 0xA55 JUMP JUMPDEST SWAP4 SWAP3 POP POP POP JUMP INVALID LOG2 PUSH5 0x6970667358 0x22 SLT KECCAK256 NUMBER 0xCB PUSH7 0x6F17F0F6F495FC PUSH12 0x46D894AD0ACB8BEDBD74CF8 0xBF 0xAC 0x1E DUP8 DUP12 0xC7 EQ SWAP7 0x4C PUSH5 0x736F6C6343 STOP ADDMOD XOR STOP CALLER "
		},
		"gasEstimates": {
			"creation": {
				"codeDepositCost": "550600",
				"executionCost": "infinite",
				"totalCost": "infinite"
			},
			"external": {
				"forgeToken(uint256[],uint256[],uint256)": "infinite"
			},
			"internal": {
				"checkForge(uint256[] memory,uint256[] memory)": "infinite",
				"isValidForge(uint256[] memory,uint256)": "infinite"
			}
		},
		"methodIdentifiers": {
			"forgeToken(uint256[],uint256[],uint256)": "50cc33ac"
		}
	},
	"abi": [
		{
			"inputs": [
				{
					"internalType": "contract MyERC1155Token",
					"name": "_tokenContract",
					"type": "address"
				}
			],
			"stateMutability": "nonpayable",
			"type": "constructor"
		},
		{
			"inputs": [
				{
					"internalType": "uint256[]",
					"name": "burnIds",
					"type": "uint256[]"
				},
				{
					"internalType": "uint256[]",
					"name": "burnAmounts",
					"type": "uint256[]"
				},
				{
					"internalType": "uint256",
					"name": "mintId",
					"type": "uint256"
				}
			],
			"name": "forgeToken",
			"outputs": [],
			"stateMutability": "nonpayable",
			"type": "function"
		}
	]
}